PGRYTV   030201060000062602002602MONA THE VAMPIRE                                  SUN / HEAT EPS 33                                 CINAR YTV   A68342 1 35107ECC                              
PRCYTV   030201060106      000030YTV PROMO CONTRACT                                                                                                                                             
PRCYTV   030201060136      000015YTV PROMO CONTRACT                                                                                                                                             
PRCYTV   030201061257      000030YTV PROMO CONTRACT                                                                                                                                             
PRCYTV   030201061327      000015YTV PROMO CONTRACT                                                                                                                                             
PRCYTV   030201062448      000030YTV PROMO CONTRACT                                                                                                                                             
PRCYTV   030201062518      000015YTV PROMO CONTRACT                                                                                                                                             
INTYTV   030201062602063000000358CHIP 'N' ORBIT                                    EPISODE 21                                                           1 311120CC                              
ID YTV   030201062948      000012STATION ID                                                                                                                                                     
PGRYTV   030201063000065429002429MONSTER BY MISTAKE                                SOAP BOX DERBY EP18                               MONSTEYTV   A30284 1 35107ECC                              
PRCYTV   030201063821      000015YTV PROMO CONTRACT                                                                                                                                             
PROYTV   030201064628      000015YTV PROMO CONTRACT                                                                                                                                             
PRCYTV   030201065323      000015YTV PROMO CONTRACT                                                                                                                                             
INTYTV   030201065429065729000300NANALAN'                                          BUTTERFLY TAG EP22                                                   1 351120                                
INTYTV   030201065729065924000155NELVANA INTERSTITIALS                             MAY THE BUNNY RISE TO MEET YOU                                       1 321120                                
ID YTV   030201065913      000012STATION ID                                                                                                                                                     
INTYTV   030201065924070024000100PROGRAM JOCKEY                                    PROGRAM JOCKEY                                                       1 213120                                
PGRYTV   030201070024070701000637REBOOT                                            MEDUSA BUG                                        ALLIANYTV   P14547 1 35307ECC                              
INTYTV   030201070701070721000020PROGRAM JOCKEY                                    PROGRAM JOCKEY                                                       1 213120                                
PGRYTV   030201070721071254000533REBOOT                                            MEDUSA BUG                                        ALLIANYTV   P14547 1 35307ECC                              
SPOYTV   030201070728      000010BURGER KING/KIDS - VARIOUS                                                                                                                                     
COMYTV   030201070738      000015BVHV/101 DALMATIONS 2                                                                                                                                          
COMYTV   030201070753      000030KELLOGG/FROOT LOOPS                                                                                                                                            
COMYTV   030201070823      000015L'OREAL CANADA                                                                                                                                                 
INTYTV   030201071254071314000020PROGRAM JOCKEY                                    PROGRAM JOCKEY                                                       1 213120                                
PGRYTV   030201071314071421000107REBOOT                                            MEDUSA BUG                                        ALLIANYTV   P14547 1 35307ECC                              
COMYTV   030201071321      000030MCDONALD'S RESTAURANTS CANADA                                                                                                                                  
COMYTV   030201071351      000030BVP/JUNGLE BOOK 2                                                                                                                                              
PSAYTV   030201071421071451000030PSA/CONCERN CHILDREN/BLOWN AWA                                                                                         1 000130                                
PGRYTV   030201071451072252000801REBOOT                                            MEDUSA BUG                                        ALLIANYTV   P14547 1 35307ECC                              
COMYTV   030201071451      000030GENERAL MILLS CANADA INC.                                                                                                                                      
INTYTV   030201072252072312000020PROGRAM JOCKEY                                    PROGRAM JOCKEY                                                       1 213120                                
PGRYTV   030201072312072917000605REBOOT                                            MEDUSA BUG                                        ALLIANYTV   P14547 1 35307ECC                              
COMYTV   030201072318      000030MCDONALDS/HAPPY MEAL                                                                                                                                           
COMYTV   030201072348      000030KELLOGG/FROSTED FLAKES                                                                                                                                         
PRCYTV   030201072418      000015YTV PROMO CONTRACT                                                                                                                                             
INTYTV   030201072917072959000042PROGRAM JOCKEY                                    PROGRAM JOCKEY                                                       1 213120                                
ID YTV   030201072946      000012STATION ID                                                                                                                                                     
PGRYTV   030201072959073526000527BEYBLADE                                          PRACTISE MAKES PERFECT  EPS 21                                D02016 7 38307ECC2                             
INTYTV   030201073526073546000020PROGRAM JOCKEY                                    PROGRAM JOCKEY                                                       1 213120                                
PGRYTV   030201073546074303000717BEYBLADE                                          PRACTISE MAKES PERFECT  EPS 21                                D02016 7 38307ECC2                             
SPOYTV   030201073551      000010BURGER KING/KIDS - VARIOUS                                                                                                                                     
COMYTV   030201073601      000030KELLOGG/FROOT LOOPS                                                                                                                                            
COMYTV   030201073631      000030BVHV/101 DALMATIONS 2                                                                                                                                          
PRCYTV   030201073701      000030YTV PROMO CONTRACT                                                                                                                                             
INTYTV   030201074303074323000020PROGRAM JOCKEY                                    PROGRAM JOCKEY                                                       1 213120                                
PGRYTV   030201074323074957000634BEYBLADE                                          PRACTISE MAKES PERFECT  EPS 21                                D02016 7 38307ECC2                             
COMYTV   030201074329      000030BVP/JUNGLE BOOK 2                                                                                                                                              
COMYTV   030201074359      000030GENERAL MILLS/VARIOUS                                                                                                                                          
COMYTV   030201074429      000030LEGO/STAR WARS                                                                                                                                                 
COMYTV   030201074459      000030MCDONALDS/HAPPY MEAL                                                                                                                                           
INTYTV   030201074957075017000020PROGRAM JOCKEY                                    PROGRAM JOCKEY                                                       1 213120                                
PGRYTV   030201075017075818000801BEYBLADE                                          PRACTISE MAKES PERFECT  EPS 21                                D02016 7 38307ECC2                             
COMYTV   030201075023      000030KELLOGG/FROSTED FLAKES                                                                                                                                         
COMYTV   030201075053      000030PARMALAT/CHEESE STRINGS                                                                                                                                        
PROYTV   030201075123      000030YTV PROMO CONTRACT                                                                                                                                             
PROYTV   030201075153      000030YTV PROMO CONTRACT                                                                                                                                             
INTYTV   030201075818080006000148PROGRAM JOCKEY                                    PROGRAM JOCKEY                                                       1 213120                                
ID YTV   030201075948      000012STATION ID                                                                                                                                                     
SPOYTV   030201080000      000005KELLOGG/VARIOUS-BILLBOARD CAMP                                                                                                                                 
PGRYTV   030201080006080548000542BEAST MACHINES                                    MERCENARY PURSUITS EP56                           TRANSFYTV   A33501 1 35307ECC                              
INTYTV   030201080548080608000020PROGRAM JOCKEY                                    PROGRAM JOCKEY                                                       1 213120                                
PGRYTV   030201080608081442000834BEAST MACHINES                                    MERCENARY PURSUITS EP56                           TRANSFYTV   A33501 1 35307ECC                              
SPOYTV   030201080614      000010DISCOVERY KIDS/DK WEB                                                                                                                                          
COMYTV   030201080624      000030KELLOGG/FROOT LOOPS                                                                                                                                            
COMYTV   030201080654      000030DISCOVERY KIDS                                                                                                                                                 
PRCYTV   030201080724      000030YTV PROMO CONTRACT                                                                                                                                             
INTYTV   030201081442081502000020PROGRAM JOCKEY                                    PROGRAM JOCKEY                                                       1 213120                                
PGRYTV   030201081502082546001044BEAST MACHINES                                    MERCENARY PURSUITS EP56                           TRANSFYTV   A33501 1 35307ECC                              
COMYTV   030201081507      000030BOY SCOUTS OF CANADA/CORPORATE                                                                                                                                 
COMYTV   030201081537      000030GENERAL MILLS CANADA INC.                                                                                                                                      
COMYTV   030201081607      000030MATTEL/SPRING VARIOUS                                                                                                                                          
COMYTV   030201081637      000030KRAFT CANADA INC.                                                                                                                                              
INTYTV   030201082546082606000020PROGRAM JOCKEY                                    PROGRAM JOCKEY                                                       1 213120                                
PGRYTV   030201082606082656000050BEAST MACHINES                                    MERCENARY PURSUITS EP56                           TRANSFYTV   A33501 1 35307ECC                              
COMYTV   030201082611      000015PARAMOUNT/RUGRATS/SPONGEBOB                                                                                                                                    
COMYTV   030201082626      000030LEGO/ORIENT                                                                                                                                                    
PSAYTV   030201082656082711000015WAR AMPS/WINNER'S CIRCLE                                                                                               1 000130                                
PGRYTV   030201082711082848000137BEAST MACHINES                                    MERCENARY PURSUITS EP56                           TRANSFYTV   A33501 1 35307ECC                              
PROYTV   030201082711      000030YTV PROMO CONTRACT                                                                                                                                             
PRCYTV   030201082741      000030YTV PROMO CONTRACT                                                                                                                                             
INTYTV   030201082848083000000112PROGRAM JOCKEY                                    PROGRAM JOCKEY                                                       1 213120                                
ID YTV   030201082947      000012STATION ID                                                                                                                                                     
PGRYTV   030201083000083216000216TRANSFORMERS ARMADA                               CARNIVAL  EPS 7                                                      2 28307ECC                              
INTYTV   030201083216083236000020PROGRAM JOCKEY                                    PROGRAM JOCKEY                                                       1 213120                                
PGRYTV   030201083236084300001024TRANSFORMERS ARMADA                               CARNIVAL  EPS 7                                                      2 28307ECC                              
SPOYTV   030201083241      000010BURGER KING/KIDS - VARIOUS                                                                                                                                     
COMYTV   030201083251      000030KELLOGG/FROOT LOOPS                                                                                                                                            
COMYTV   030201083321      000030DISCOVERY KIDS/DK WEB                                                                                                                                          
PRCYTV   030201083351      000030YTV PROMO CONTRACT                                                                                                                                             
PRCYTV   030201083421      000030YTV PROMO CONTRACT                                                                                                                                             
INTYTV   030201084300084320000020PROGRAM JOCKEY                                    PROGRAM JOCKEY                                                       1 213120                                
PGRYTV   030201084320085550001230TRANSFORMERS ARMADA                               CARNIVAL  EPS 7                                                      2 28307ECC                              
COMYTV   030201084325      000030BOY SCOUTS OF CANADA/CORPORATE                                                                                                                                 
COMYTV   030201084355      000030LEGO CANADA INC.                                                                                                                                               
COMYTV   030201084425      000030GENERAL MILLS CANADA INC.                                                                                                                                      
COMYTV   030201084455      000030MATTEL CANADA INC.                                                                                                                                             
PRCYTV   030201084525      000015YTV PROMO CONTRACT                                                                                                                                             
INTYTV   030201085550085610000020PROGRAM JOCKEY                                    PROGRAM JOCKEY                                                       1 213120                                
PGRYTV   030201085610085714000104TRANSFORMERS ARMADA                               CARNIVAL  EPS 7                                                      2 28307ECC                              
COMYTV   030201085614      000030MCDONALD'S RESTAURANTS CANADA                                                                                                                                  
COMYTV   030201085644      000030DISCOVERY KIDS                                                                                                                                                 
PSAYTV   030201085714085744000030CONCERNED CHILDREN/WALK AWAY                                                                                           1 000130                                
PGRYTV   030201085744085919000135TRANSFORMERS ARMADA                               CARNIVAL  EPS 7                                                      2 28307ECC                              
PRCYTV   030201085744      000030YTV PROMO CONTRACT                                                                                                                                             
INTYTV   030201085919090001000042PROGRAM JOCKEY                                    PROGRAM JOCKEY                                                       1 213120                                
ID YTV   030201085947      000012STATION ID                                                                                                                                                     
PGRYTV   030201090001090213000212JACKIE CHAN ADVENTURES                            LITTLE VOLMONT, BIG JADE EP 63                                       2 28307ECC                              
INTYTV   030201090213090233000020PROGRAM JOCKEY                                    PROGRAM JOCKEY                                                       1 213120                                
PGRYTV   030201090233090332000059JACKIE CHAN ADVENTURES                            LITTLE VOLMONT, BIG JADE EP 63                                       2 38307ECC                              
SPOYTV   030201090237      000010BURGER KING/KIDS - VARIOUS                                                                                                                                     
COMYTV   030201090247      000015LEGO/ORIENT                                                                                                                                                    
COMYTV   030201090302      000030GENERAL MILLS/VARIOUS                                                                                                                                          
PSAYTV   030201090332090347000015PSA/WAR AMPS/MAX SAYS PLAYSAFE                                                                                         1 000130                                
PGRYTV   030201090347091049000702JACKIE CHAN ADVENTURES                            LITTLE VOLMONT, BIG JADE EP 63                                       2 38307ECC                              
PRCYTV   030201090347      000030YTV PROMO CONTRACT                                                                                                                                             
PRCYTV   030201090417      000015YTV PROMO CONTRACT                                                                                                                                             
INTYTV   030201091049091109000020PROGRAM JOCKEY                                    PROGRAM JOCKEY                                                       1 213120                                
PGRYTV   030201091109092010000901JACKIE CHAN ADVENTURES                            LITTLE VOLMONT, BIG JADE EP 63                                       2 38307ECC                              
COMYTV   030201091112      000030MCDONALDS/HAPPY MEAL                                                                                                                                           
COMYTV   030201091142      000030BVP/JUNGLE BOOK 2                                                                                                                                              
COMYTV   030201091212      000030KRAFT CANADA INC.                                                                                                                                              
COMYTV   030201091242      000030MATTEL CANADA INC.                                                                                                                                             
INTYTV   030201092010092030000020PROGRAM JOCKEY                                    PROGRAM JOCKEY                                                       1 213120                                
PGRYTV   030201092030092822000752JACKIE CHAN ADVENTURES                            LITTLE VOLMONT, BIG JADE EP 63                                       2 38307ECC                              
COMYTV   030201092035      000030KELLOGG CANADA INC.                                                                                                                                            
COMYTV   030201092105      000030LEGO CANADA INC.                                                                                                                                               
PROYTV   030201092135      000030YTV PROMO CONTRACT                                                                                                                                             
PRCYTV   030201092205      000030YTV PROMO CONTRACT                                                                                                                                             
INTYTV   030201092822093004000142PROGRAM JOCKEY                                    PROGRAM JOCKEY                                                       1 213120                                
ID YTV   030201092951      000012STATION ID                                                                                                                                                     
PGRYTV   030201093004093242000238THE MUMMY                                         PT1 - JUST ANOTHER PIECE...                                          2 28307ECC                              
INTYTV   030201093242093301000019PROGRAM JOCKEY                                    PROGRAM JOCKEY                                                       1 213120                                
SPOYTV   030201093301      000010LEGO/STAR WARS                                                                                                                                                 
PGRYTV   030201093301094105000804THE MUMMY                                         PT1 - JUST ANOTHER PIECE...                                          2 28307ECC                              
SPOYTV   030201093317      000010BURGER KING/KIDS - VARIOUS                                                                                                                                     
COMYTV   030201093327      000030KRAFT CANADA INC.                                                                                                                                              
COMYTV   030201093357      000030DISCOVERY KIDS                                                                                                                                                 
PRCYTV   030201093427      000030YTV PROMO CONTRACT                                                                                                                                             
PRCYTV   030201093457      000030YTV PROMO CONTRACT                                                                                                                                             
INTYTV   030201094105094125000020PROGRAM JOCKEY                                    PROGRAM JOCKEY                                                       1 213120                                
PGRYTV   030201094125095008000843THE MUMMY                                         PT1 - JUST ANOTHER PIECE...                                          2 28307ECC                              
COMYTV   030201094129      000030BVP/JUNGLE BOOK 2                                                                                                                                              
COMYTV   030201094159      000030MCDONALD'S RESTAURANTS CANADA                                                                                                                                  
COMYTV   030201094229      000030BOY SCOUTS OF CANADA                                                                                                                                           
COMYTV   030201094259      000030LEGO CANADA INC.                                                                                                                                               
INTYTV   030201095008095028000020PROGRAM JOCKEY                                    PROGRAM JOCKEY                                                       1 213120                                
PGRYTV   030201095028095825000757THE MUMMY                                         PT1 - JUST ANOTHER PIECE...                                          2 28307ECC                              
COMYTV   030201095032      000030MCDONALDS/HAPPY MEAL                                                                                                                                           
COMYTV   030201095102      000030LEGO CANADA INC.                                                                                                                                               
PRCYTV   030201095132      000030YTV PROMO CONTRACT                                                                                                                                             
INTYTV   030201095825100011000146PROGRAM JOCKEY                                    PROGRAM JOCKEY                                                       1 213120                                
ID YTV   030201095956      000012STATION ID                                                                                                                                                     
PGRYTV   030201100011100921000910HE-MAN & MASTERS OF UNIVERSE                      TURNABOUT  EPS 11                                                    2 38307ECC                              
INTYTV   030201100921100941000020PROGRAM JOCKEY                                    PROGRAM JOCKEY                                                       1 213120                                
PGRYTV   030201100941101811000830HE-MAN & MASTERS OF UNIVERSE                      TURNABOUT  EPS 11                                                    2 38307ECC                              
SPOYTV   030201100945      000010BURGER KING/KIDS - VARIOUS                                                                                                                                     
COMYTV   030201100955      000030GENERAL MILLS CANADA INC.                                                                                                                                      
COMYTV   030201101025      000030DISCOVERY KIDS                                                                                                                                                 
INTYTV   030201101811101831000020PROGRAM JOCKEY                                    PROGRAM JOCKEY                                                       1 213120                                
PGRYTV   030201101831102645000814HE-MAN & MASTERS OF UNIVERSE                      TURNABOUT  EPS 11                                                    2 38307ECC                              
COMYTV   030201101835      000030BVP/JUNGLE BOOK 2                                                                                                                                              
COMYTV   030201101905      000030GENERAL MILLS CANADA INC.                                                                                                                                      
COMYTV   030201101935      000030LEGO CANADA INC.                                                                                                                                               
COMYTV   030201102005      000030MCDONALD'S RESTAURANTS CANADA                                                                                                                                  
INTYTV   030201102645102705000020PROGRAM JOCKEY                                    PROGRAM JOCKEY                                                       1 213120                                
PGRYTV   030201102705102857000152HE-MAN & MASTERS OF UNIVERSE                      TURNABOUT  EPS 11                                                    2 38307ECC                              
COMYTV   030201102711      000030MCDONALD'S RESTAURANTS CANADA                                                                                                                                  
COMYTV   030201102741      000030GENERAL MILLS CANADA INC.                                                                                                                                      
PRCYTV   030201102811      000015YTV PROMO CONTRACT                                                                                                                                             
INTYTV   030201102857103009000112PROGRAM JOCKEY                                    PROGRAM JOCKEY                                                       1 213120                                
ID YTV   030201102956      000012STATION ID                                                                                                                                                     
PGRYTV   030201103009103218000209X-MEN: EVOLUTION                                  JOYRIDE  EPS 21                                                      2 38307ECC                              
INTYTV   030201103218103238000020PROGRAM JOCKEY                                    PROGRAM JOCKEY                                                       1 213120                                
PGRYTV   030201103238104044000806X-MEN: EVOLUTION                                  JOYRIDE  EPS 21                                                      2 38307ECC                              
SPOYTV   030201103243      000010DISCOVERY KIDS/DK WEB                                                                                                                                          
COMYTV   030201103253      000030DISCOVERY KIDS                                                                                                                                                 
COMYTV   030201103323      000030KRAFT CANADA INC.                                                                                                                                              
PRCYTV   030201103353      000030YTV PROMO CONTRACT                                                                                                                                             
INTYTV   030201104044104104000020PROGRAM JOCKEY                                    PROGRAM JOCKEY                                                       1 213120                                
PGRYTV   030201104104104858000754X-MEN: EVOLUTION                                  JOYRIDE  EPS 21                                                      2 38307ECC                              
COMYTV   030201104110      000030BVP/JUNGLE BOOK 2                                                                                                                                              
COMYTV   030201104140      000030GENERAL MILLS CANADA INC.                                                                                                                                      
COMYTV   030201104210      000030MCDONALD'S RESTAURANTS CANADA                                                                                                                                  
COMYTV   030201104240      000030MATTEL CANADA INC.                                                                                                                                             
INTYTV   030201104858104918000020PROGRAM JOCKEY                                    PROGRAM JOCKEY                                                       1 213120                                
PGRYTV   030201104918105023000105X-MEN: EVOLUTION                                  JOYRIDE  EPS 21                                                      2 38307ECC                              
COMYTV   030201104923      000030KELLOGG CANADA INC.                                                                                                                                            
COMYTV   030201104953      000030LEGO CANADA INC.                                                                                                                                               
PSAYTV   030201105023105053000030CONCERNED CHILDREN/WALK AWAY                                                                                           1 000130                                
PGRYTV   030201105053105824000731X-MEN: EVOLUTION                                  JOYRIDE  EPS 21                                                      2 38307ECC                              
PRCYTV   030201105053      000030YTV PROMO CONTRACT                                                                                                                                             
INTYTV   030201105824110007000143PROGRAM JOCKEY                                    PROGRAM JOCKEY                                                       1 213120                                
ID YTV   030201105954      000012STATION ID                                                                                                                                                     
PGRYTV   030201110007110211000204JUSTICE LEAGUE                                    PT1-THE BRAVE & THE BOLD  EP12                                       2 38307ECC                              
INTYTV   030201110211110231000020PROGRAM JOCKEY                                    PROGRAM JOCKEY                                                       1 213120                                
PGRYTV   030201110231111407001136JUSTICE LEAGUE                                    PT1-THE BRAVE & THE BOLD  EP12                                       2 38307ECC                              
COMYTV   030201110236      000015L'OREAL CANADA                                                                                                                                                 
COMYTV   030201110251      000030GENERAL MILLS CANADA INC.                                                                                                                                      
COMYTV   030201110321      000015LEGO CANADA INC.                                                                                                                                               
INTYTV   030201111407111427000020PROGRAM JOCKEY                                    PROGRAM JOCKEY                                                       1 213120                                
PGRYTV   030201111427112508001041JUSTICE LEAGUE                                    PT1-THE BRAVE & THE BOLD  EP12                                       2 38307ECC                              
COMYTV   030201111433      000030MATTEL CANADA INC.                                                                                                                                             
COMYTV   030201111503      000030MCDONALDS/HAPPY MEAL                                                                                                                                           
COMYTV   030201111533      000030BVP/JUNGLE BOOK 2                                                                                                                                              
COMYTV   030201111603      000030BOY SCOUTS OF CANADA                                                                                                                                           
INTYTV   030201112508112528000020PROGRAM JOCKEY                                    PROGRAM JOCKEY                                                       1 213120                                
PGRYTV   030201112528112604000036JUSTICE LEAGUE                                    PT1-THE BRAVE & THE BOLD  EP12                                       2 38307ECC                              
COMYTV   030201112534      000030GENERAL MILLS CANADA INC.                                                                                                                                      
PSAYTV   030201112604112634000030CONCERNED CHILDREN/WALK AWAY                                                                                           1 000130                                
PGRYTV   030201112634112805000131JUSTICE LEAGUE                                    PT1-THE BRAVE & THE BOLD  EP12                                       2 38307ECC                              
PRCYTV   030201112634      000030YTV PROMO CONTRACT                                                                                                                                             
PRCYTV   030201112704      000030YTV PROMO CONTRACT                                                                                                                                             
INTYTV   030201112805113007000202PROGRAM JOCKEY                                    PROGRAM JOCKEY                                                       1 213120                                
ID YTV   030201112954      000012STATION ID                                                                                                                                                     
PGRYTV   030201113007113124000117SAMURAI JACK                                      JACK & THE LAVA MONSTER EP 10                                        2 38307ECC                              
INTYTV   030201113124113144000020PROGRAM JOCKEY                                    PROGRAM JOCKEY                                                       1 213120                                
PGRYTV   030201113144114227001043SAMURAI JACK                                      JACK & THE LAVA MONSTER EP 10                                        2 38307ECC                              
COMYTV   030201113149      000015L'OREAL CANADA                                                                                                                                                 
COMYTV   030201113204      000030KELLOGG/FROOT LOOPS                                                                                                                                            
COMYTV   030201113234      000015LEGO CANADA INC.                                                                                                                                               
PRCYTV   030201113249      000030YTV PROMO CONTRACT                                                                                                                                             
PRCYTV   030201113319      000030YTV PROMO CONTRACT                                                                                                                                             
INTYTV   030201114227114247000020PROGRAM JOCKEY                                    PROGRAM JOCKEY                                                       1 213120                                
PGRYTV   030201114247114252000005SAMURAI JACK                                      JACK & THE LAVA MONSTER EP 10                                        2 38307ECC                              
PSAYTV   030201114252114322000030PSA/CONCERN CHILDREN/THE CHASE                                                                                         1 000130                                
PGRYTV   030201114322115617001255SAMURAI JACK                                      JACK & THE LAVA MONSTER EP 10                                        2 38307ECC                              
COMYTV   030201114322      000030MCDONALD'S RESTAURANTS CANADA                                                                                                                                  
COMYTV   030201114352      000030MATTEL CANADA INC.                                                                                                                                             
COMYTV   030201114422      000030BOY SCOUTS OF CANADA                                                                                                                                           
INTYTV   030201115617115637000020PROGRAM JOCKEY                                    PROGRAM JOCKEY                                                       1 213120                                
PGRYTV   030201115637115925000248SAMURAI JACK                                      JACK & THE LAVA MONSTER EP 10                                        2 38307ECC                              
COMYTV   030201115642      000030PARMALAT                                                                                                                                                       
COMYTV   030201115712      000030LEGO CANADA INC.                                                                                                                                               
PROYTV   030201115742      000030YTV PROMO CONTRACT                                                                                                                                             
PROYTV   030201115812      000015YTV PROMO CONTRACT                                                                                                                                             
INTYTV   030201115925120007000042PROGRAM JOCKEY                                    PROGRAM JOCKEY                                                       1 213120                                
ID YTV   030201115954      000012STATION ID                                                                                                                                                     
PGRYTV   030201120007122820002813GALIDOR                                           REMEMBERING EP 24                                 CINEGRYTV   A70365 1 35307ECC                              
SPOYTV   030201121014      000010BURGER KING/KIDS - VARIOUS                                                                                                                                     
COMYTV   030201121024      000015L'OREAL CANADA                                                                                                                                                 
COMYTV   030201121039      000030KELLOGG CANADA INC.                                                                                                                                            
COMYTV   030201121109      000100AT HOME TRAINING/EDUCATION DIR                                                                                                                                 
COMYTV   030201121209      000015LEGO CANADA INC.                                                                                                                                               
COMYTV   030201122306      000030MATTEL/SPRING VARIOUS                                                                                                                                          
COMYTV   030201122336      000030MCDONALD'S RESTAURANTS CANADA                                                                                                                                  
COMYTV   030201122406      000030DISCOVERY KIDS/DK WEB                                                                                                                                          
COMYTV   030201122436      000030BOY SCOUTS OF CANADA                                                                                                                                           
COMYTV   030201122650      000030KELLOGG CANADA INC.                                                                                                                                            
COMYTV   030201122720      000030DISCOVERY KIDS                                                                                                                                                 
COMYTV   030201122750      000030GENERAL MILLS CANADA INC.                                                                                                                                      
PSAYTV   030201122820122850000030CONCERNED CHILDREN/WALK AWAY                                                                                           1 000130                                
PGRYTV   030201122850123009000119GALIDOR                                           REMEMBERING EP 24                                 CINEGRYTV   A70365 1 35307ECC                              
PRCYTV   030201122850      000030YTV PROMO CONTRACT                                                                                                                                             
ID YTV   030201122956      000012STATION ID                                                                                                                                                     
PGRYTV   030201123009124823001814JACQUES COUSTEAU'S OCEAN TALES                    IN SEARCH OF ATLANTIS EPS 24                      VIVATOYTV   A59290 1 25307ECC                              
SPOYTV   030201123731      000010BURGER KING/KIDS - VARIOUS                                                                                                                                     
COMYTV   030201123741      000015L'OREAL CANADA                                                                                                                                                 
COMYTV   030201123756      000030KRAFT CANADA INC.                                                                                                                                              
COMYTV   030201123826      000030DISCOVERY KIDS                                                                                                                                                 
COMYTV   030201123856      000030GENERAL MILLS CANADA INC.                                                                                                                                      
COMYTV   030201123926      000015LEGO CANADA INC.                                                                                                                                               
COMYTV   030201124638      000015SONY VIDEO/MASTER OF DISGUISE                                                                                                                                  
COMYTV   030201124653      000030BOY SCOUTS OF CANADA/CORPORATE                                                                                                                                 
COMYTV   030201124723      000030MCDONALD'S RESTAURANTS CANADA                                                                                                                                  
COMYTV   030201124753      000030LEGO CANADA INC.                                                                                                                                               
PSAYTV   030201124823124838000015WAR AMPS/WINNER'S CIRCLE                                                                                               1 000130                                
PGRYTV   030201124838125752000914JACQUES COUSTEAU'S OCEAN TALES                    IN SEARCH OF ATLANTIS EPS 24                      VIVATOYTV   A59290 1 25307ECC                              
COMYTV   030201125722      000030GENERAL MILLS CANADA INC.                                                                                                                                      
PSAYTV   030201125752125822000030CONCERNED CHILDREN/WALK AWAY                                                                                           1 000130                                
PGRYTV   030201125822130005000143JACQUES COUSTEAU'S OCEAN TALES                    IN SEARCH OF ATLANTIS EPS 24                      VIVATOYTV   A59290 1 25307ECC                              
COMYTV   030201125822      000030KELLOGG CANADA INC.                                                                                                                                            
COMYTV   030201125852      000030DISCOVERY KIDS                                                                                                                                                 
PRCYTV   030201125922      000015YTV PROMO CONTRACT                                                                                                                                             
ID YTV   030201125952      000012STATION ID                                                                                                                                                     
PGRYTV   030201130005131015001010VIDEO & ARCADE TOP TEN                            EPS 10                                            SIX   YTV   C20820 1 253100CC                              
COMYTV   030201130915      000015L'OREAL CANADA                                                                                                                                                 
COMYTV   030201130930      000030KELLOGG/FROOT LOOPS                                                                                                                                            
COMYTV   030201131000      000015LEGO CANADA INC.                                                                                                                                               
PSAYTV   030201131015131115000100CONCERNED CHILDREN/SMART AS YO                                                                                         1 000130                                
PGRYTV   030201131115133005001850VIDEO & ARCADE TOP TEN                            EPS 10                                            SIX   YTV   C20820 1 253100CC                              
COMYTV   030201132105      000030GENERAL MILLS/VARIOUS                                                                                                                                          
COMYTV   030201132135      000030LEGO CANADA INC.                                                                                                                                               
COMYTV   030201132205      000030KRAFT CANADA INC.                                                                                                                                              
COMYTV   030201132235      000030MATTEL CANADA INC.                                                                                                                                             
COMYTV   030201132545      000030MCDONALD'S RESTAURANTS CANADA                                                                                                                                  
COMYTV   030201132615      000030LEGO CANADA INC.                                                                                                                                               
COMYTV   030201132645      000030PARMALAT                                                                                                                                                       
COMYTV   030201132715      000030DISCOVERY KIDS                                                                                                                                                 
ID YTV   030201132952      000012STATION ID                                                                                                                                                     
PGRYTV   030201133005134322001317UH OH!                                            EPS 220                                                              1 313110CC                              
SPOYTV   030201133323      000005GENERAL MILLS/GUSHERS UH OH                                                                                                                                    
COMYTV   030201133328      000015L'OREAL CANADA                                                                                                                                                 
COMYTV   030201133343      000030GENERAL MILLS/VARIOUS                                                                                                                                          
COMYTV   030201133413      000030DISCOVERY KIDS                                                                                                                                                 
COMYTV   030201133443      000030KELLOGG CANADA INC.                                                                                                                                            
COMYTV   030201133513      000015LEGO CANADA INC.                                                                                                                                               
COMYTV   030201134222      000030GENERAL MILLS CANADA INC.                                                                                                                                      
COMYTV   030201134252      000030BOY SCOUTS OF CANADA                                                                                                                                           
PSAYTV   030201134322134422000100PSA/CCA/STORYTIME(RACOONS1)                                                                                            1 000130                                
PGRYTV   030201134422135210000748UH OH!                                            EPS 220                                                              1 313110CC                              
PRCYTV   030201134422      000015YTV PROMO CONTRACT                                                                                                                                             
COMYTV   030201135040      000030GENERAL MILLS/GUSHERS UH OH                                                                                                                                    
COMYTV   030201135110      000030KELLOGG CANADA INC.                                                                                                                                            
COMYTV   030201135140      000030LEGO CANADA INC.                                                                                                                                               
PSAYTV   030201135210135240000030CONCERNED CHILDREN/WALK AWAY                                                                                           1 000130                                
PGRYTV   030201135240140000000720UH OH!                                            EPS 220                                                              1 313110CC                              
ID YTV   030201135947      000012STATION ID                                                                                                                                                     
PGRYTV   030201140000140657000657MEDABOTS                                          ME AND MY SHADOW SWORD EP21                                   D01866 7 38307ECC2                             
COMYTV   030201140527      000030KRAFT/KIDS P1 :30'S                                                                                                                                            
COMYTV   030201140557      000030DISCOVERY KIDS                                                                                                                                                 
COMYTV   030201140627      000030GENERAL MILLS CANADA INC.                                                                                                                                      
PSAYTV   030201140657140728000031CONCERNED CHILDREN/WALK AWAY                                                                                           1 000130                                
PSAYTV   030201140728140757000029FIRE MARSHALL/PREVENTION                                                                                               1 000130                                
PGRYTV   030201140757142222001425MEDABOTS                                          ME AND MY SHADOW SWORD EP21                                   D01866 7 38307ECC2                             
COMYTV   030201141212      000030LEGO/STAR WARS                                                                                                                                                 
COMYTV   030201141242      000030GENERAL MILLS CANADA INC.                                                                                                                                      
COMYTV   030201141312      000030MATTEL CANADA INC.                                                                                                                                             
COMYTV   030201141342      000030KRAFT CANADA INC.                                                                                                                                              
PRCYTV   030201141412      000030YTV PROMO CONTRACT                                                                                                                                             
COMYTV   030201142052      000030MCDONALD'S RESTAURANTS CANADA                                                                                                                                  
COMYTV   030201142122      000030DISCOVERY KIDS                                                                                                                                                 
COMYTV   030201142152      000030PARMALAT                                                                                                                                                       
PSAYTV   030201142222142252000030CONCERNED CHILDREN/WALK AWAY                                                                                           1 000130                                
PGRYTV   030201142252143002000710MEDABOTS                                          ME AND MY SHADOW SWORD EP21                                   D01866 7 38307ECC2                             
PRCYTV   030201142252      000030YTV PROMO CONTRACT                                                                                                                                             
PRCYTV   030201142322      000030YTV PROMO CONTRACT                                                                                                                                             
ID YTV   030201142949      000012STATION ID                                                                                                                                                     
PGRYTV   030201143002144805001803DIGIMON                                           ISLAND OF MISFIT BOYS  EPS 162                                       7 38307ECC                              
COMYTV   030201143141      000015BVHV/101 DALMATIONS 2                                                                                                                                          
COMYTV   030201143156      000030KRAFT CANADA INC.                                                                                                                                              
COMYTV   030201143226      000030DISCOVERY KIDS                                                                                                                                                 
COMYTV   030201143256      000030GENERAL MILLS CANADA INC.                                                                                                                                      
COMYTV   030201143326      000015LEGO/ORIENT                                                                                                                                                    
COMYTV   030201143800      000030BOY SCOUTS OF CANADA                                                                                                                                           
COMYTV   030201143830      000030MATTEL CANADA INC.                                                                                                                                             
COMYTV   030201143900      000030DISCOVERY KIDS                                                                                                                                                 
COMYTV   030201143930      000030MCDONALD'S RESTAURANTS CANADA                                                                                                                                  
PRCYTV   030201144000      000015YTV PROMO CONTRACT                                                                                                                                             
COMYTV   030201144635      000030LEGO/ORIENT                                                                                                                                                    
COMYTV   030201144705      000030MCDONALD'S RESTAURANTS CANADA                                                                                                                                  
COMYTV   030201144735      000030DISCOVERY KIDS                                                                                                                                                 
PSAYTV   030201144805144835000030CONCERNED CHILDREN/WALK AWAY                                                                                           1 000130                                
PGRYTV   030201144835150000001125DIGIMON                                           ISLAND OF MISFIT BOYS  EPS 162                                       7 38307ECC                              
PRCYTV   030201144835      000030YTV PROMO CONTRACT                                                                                                                                             
PRCYTV   030201144905      000030YTV PROMO CONTRACT                                                                                                                                             
ID YTV   030201145947      000012STATION ID                                                                                                                                                     
PGRYTV   030201150000150312000312POWER STONE                                       POWER STONE OF MYSTERY EP1                                    D01748 7 38307ECC2                             
COMYTV   030201150142      000030BVHV/101 DALMATIONS 2                                                                                                                                          
COMYTV   030201150212      000030KELLOGG CANADA INC.                                                                                                                                            
COMYTV   030201150242      000030DISCOVERY KIDS                                                                                                                                                 
PSAYTV   030201150312150342000030CONCERNED CHILDREN/WALK AWAY                                                                                           1 000130                                
PGRYTV   030201150342153001002619POWER STONE                                       POWER STONE OF MYSTERY EP1                                    D01748 7 38307ECC2                             
COMYTV   030201151331      000030MATTEL CANADA INC.                                                                                                                                             
COMYTV   030201151401      000030KELLOGG/FROOT LOOPS                                                                                                                                            
COMYTV   030201151431      000030BOY SCOUTS OF CANADA                                                                                                                                           
COMYTV   030201151501      000030LEGO CANADA INC.                                                                                                                                               
PRCYTV   030201151531      000030YTV PROMO CONTRACT                                                                                                                                             
PRCYTV   030201151601      000030YTV PROMO CONTRACT                                                                                                                                             
COMYTV   030201152710      000030DISCOVERY KIDS                                                                                                                                                 
COMYTV   030201152740      000030PARMALAT/CHEESE STRINGS                                                                                                                                        
COMYTV   030201152810      000030KELLOGG CANADA INC.                                                                                                                                            
COMYTV   030201152840      000030LEGO CANADA INC.                                                                                                                                               
ID YTV   030201152948      000012STATION ID                                                                                                                                                     
PGRYTV   030201153001153633000632BEYBLADE                                          PRACTISE MAKES PERFECT  EPS 21                                D02016 7 38307ECC2                             
COMYTV   030201153533      000030KELLOGG CANADA INC.                                                                                                                                            
COMYTV   030201153603      000030DISCOVERY KIDS                                                                                                                                                 
PSAYTV   030201153633153734000101CONCERNED CHILDREN/HOUSE HIPPO                                                                                         1 000130                                
PSAYTV   030201153734153803000029FIRE MARSHALL/PREVENTION                                                                                               1 000130                                
PGRYTV   030201153803154441000638BEYBLADE                                          PRACTISE MAKES PERFECT  EPS 21                                D02016 7 38307ECC2                             
COMYTV   030201154341      000030KRAFT/KIDS P1 :30'S                                                                                                                                            
COMYTV   030201154411      000030MCDONALD'S RESTAURANTS CANADA                                                                                                                                  
PSAYTV   030201154441154541000100PSA/CCA/STORYTIME(RACOONS1)                                                                                            1 000130                                
PGRYTV   030201154541160002001421BEYBLADE                                          PRACTISE MAKES PERFECT  EPS 21                                D02016 7 38307ECC2                             
PRCYTV   030201154541      000030YTV PROMO CONTRACT                                                                                                                                             
COMYTV   030201155054      000030MCDONALD'S RESTAURANTS CANADA                                                                                                                                  
COMYTV   030201155124      000100AT HOME TRAINING/EDUCATION DIR                                                                                                                                 
COMYTV   030201155224      000030LEGO CANADA INC.                                                                                                                                               
PRCYTV   030201155254      000030YTV PROMO CONTRACT                                                                                                                                             
PRCYTV   030201155324      000030YTV PROMO CONTRACT                                                                                                                                             
ID YTV   030201155949      000012STATION ID                                                                                                                                                     
PGRYTV   030201160002174516014514JUST LIKE DAD                                     JUST LIKE DAD                                                       A2 38807CCC                              
SPOYTV   030201161232      000010WRIGLEY/JUICY FRUIT                                                                                                                                            
COMYTV   030201161242      000100P&G/CORPORATE BASE BUY                                                                                                                                         
COMYTV   030201161342      000030KELLOGG/FROOT LOOPS                                                                                                                                            
COMYTV   030201161412      000030HWY/CPA-ADULT PACKAGE#4                                                                                                                                        
COMYTV   030201162304      000030WALMART/BABY DEPARTMENT                                                                                                                                        
COMYTV   030201162334      000030PARAMOUNT/HOW TO LOSE GUY-10DA                                                                                                                                 
COMYTV   030201162404      000100WALT DISNEY/DR-MAGICAL PACKAGE                                                                                                                                 
COMYTV   030201162504      000030HWY/CPA-ADULT PACKAGE#3                                                                                                                                        
COMYTV   030201163526      000030DISCOVERY KIDS/DK WEB                                                                                                                                          
COMYTV   030201163556      000030BVHV/SWEET HOME ALABAMA                                                                                                                                        
COMYTV   030201163626      000030HWY/ADULT BARTER#4                                                                                                                                             
COMYTV   030201163656      000030HWY/ADULT BARTER#2                                                                                                                                             
COMYTV   030201164823      000030KELLOGG/FROOT LOOPS                                                                                                                                            
COMYTV   030201164853      000100P&G/CORP BASE BUY/PRE-EMPTIBLE                                                                                                                                 
COMYTV   030201164953      000030HWY/CPA-ADULT PACKAGE#3                                                                                                                                        
COMYTV   030201170040      000030HWY/CPA-ADULT PACKAGE#2                                                                                                                                        
COMYTV   030201170110      000030COLGATE/TOOTHBRUSH,TOOTHPASTE                                                                                                                                  
COMYTV   030201170140      000015J&J/ACNE WASH                                                                                                                                                  
COMYTV   030201170155      000030HWY/CPA-ADULT PACKAGE#1                                                                                                                                        
COMYTV   030201170225      000030GEN MOTORS/VARIOUS                                                                                                                                             
COMYTV   030201171319      000030BVHV/SWEET HOME ALABAMA                                                                                                                                        
COMYTV   030201171349      000030KELLOGG/CORN POPS/POP TARTS                                                                                                                                    
COMYTV   030201171419      000100PRIMUS CANADA                                                                                                                                                  
COMYTV   030201171519      000030HWY/PLAYTOY BARTER                                                                                                                                             
COMYTV   030201173151      000030HEALTH CANADA/ANTI-SMOKING/TOB                                                                                                                                 
COMYTV   030201173221      000030COLGATE/TOOTHBRUSH,TOOTHPASTE                                                                                                                                  
COMYTV   030201173251      000015BVHV/101 DALMATIONS 2                                                                                                                                          
COMYTV   030201173306      000030HWY/CPA-ADULT PACKAGE#5                                                                                                                                        
COMYTV   030201173336      000030HWY/PLAYTOY BARTER                                                                                                                                             
COMYTV   030201174446      000030COLGATE/TOOTHBRUSH,TOOTHPASTE                                                                                                                                  
PSAYTV   030201174516174546000030PSA/CONCERN CHILDREN/ICE CREAM                                                                                         1 000130                                
PGRYTV   030201174546180009001423JUST LIKE DAD                                     JUST LIKE DAD                                                       A2 38807CCC                              
COMYTV   030201174546      000030J.M. SCHNEIDER                                                                                                                                                 
COMYTV   030201174616      000030HIGHWAY ENTERTAINMENT                                                                                                                                          
ID YTV   030201175956      000012STATION ID                                                                                                                                                     
PGRYTV   030201180009183004002955MOVILLE MYSTERIES                                 CURSE OF THE MOMMIES     EPS 8                    NELVANYTV          1 32307ECC                              
SPOYTV   030201180847      000010DISCOVERY KIDS/DK WEB                                                                                                                                          
COMYTV   030201180857      000030KRAFT/KIDS P1 :30'S                                                                                                                                            
COMYTV   030201180927      000100SYLVAN LEARNING CENTERS                                                                                                                                        
COMYTV   030201181027      000030HWY/ADULT BARTER#2                                                                                                                                             
COMYTV   030201181639      000030HWY/CPA-ADULT PACKAGE#2                                                                                                                                        
COMYTV   030201181709      000030SMITHKLINE BEECHAM                                                                                                                                             
COMYTV   030201181739      000030WRIGLEY CANADA INC.                                                                                                                                            
PRCYTV   030201181809      000030YTV PROMO CONTRACT                                                                                                                                             
PRCYTV   030201181839      000030YTV PROMO CONTRACT                                                                                                                                             
COMYTV   030201182620      000030WALMART/BABY DEPARTMENT                                                                                                                                        
COMYTV   030201182650      000015HWY/ADULT BARTER#3                                                                                                                                             
COMYTV   030201182705      000100WALT DISNEY/DR-MAGICAL PACKAGE                                                                                                                                 
ID YTV   030201182951      000012STATION ID                                                                                                                                                     
PGRYTV   030201183004190000002956FREAKY STORIES                                    APOLOGIES/CREEPING/FISHY EP22                     BIGTIMYTV   A23769 1 35307ECC                              
SPOYTV   030201183607      000010COLGATE/TOOTHBRUSH,TOOTHPASTE                                                                                                                                  
COMYTV   030201183617      00003020TH CENTURY/DAREDEVIL                                                                                                                                         
COMYTV   030201183647      000100WALT DISNEY/DR-MAGICAL PACKAGE                                                                                                                                 
COMYTV   030201183747      000030J.M. SCHNEIDER                                                                                                                                                 
COMYTV   030201184334      000030COLGATE/TOOTHBRUSH,TOOTHPASTE                                                                                                                                  
COMYTV   030201184404      000100PRIMUS CANADA                                                                                                                                                  
COMYTV   030201184504      000015SUBWAY SUBS                                                                                                                                                    
COMYTV   030201185034      000015BVHV/SWEET HOME ALABAMA                                                                                                                                        
COMYTV   030201185049      000030KELLOGG/FROSTED FLAKES                                                                                                                                         
COMYTV   030201185119      000030CASST/CAB                                                                                                                                                      
COMYTV   030201185149      000030HWY/ADULT BARTER#4                                                                                                                                             
COMYTV   030201185219      000015JOHNSON & JOHNSON INC.                                                                                                                                         
ID YTV   030201185947      000012STATION ID                                                                                                                                                     
PGRYTV   030201190000193000003000GOOSEBUMPS (III)(#301-322 )                       PT1-PERFECT SCHOOL   EP44                         PROTOCYTV   C13551 1 35307ACC                              
COMYTV   030201190309      000030BVHV/101 DALMATIONS 2                                                                                                                                          
COMYTV   030201190339      000030HIGHWAY ENTERTAINMENT                                                                                                                                          
COMYTV   030201190409      000030SHAW @ HOME                                                                                                                                                    
COMYTV   030201190439      000030GOVERNMENT OF CANADA/HEALTH CA                                                                                                                                 
COMYTV   030201191538      000030NESTLE CANADA INC.                                                                                                                                             
COMYTV   030201191608      000030PARAMOUNT/HOW TO LOSE GUY-10DA                                                                                                                                 
COMYTV   030201191638      000030GOVERNMENT OF CANADA/HEALTH CA                                                                                                                                 
COMYTV   030201191708      000030KELLOGG CANADA INC.                                                                                                                                            
PRCYTV   030201191738      000030YTV PROMO CONTRACT                                                                                                                                             
COMYTV   030201192520      000030KIMBERLY-CLARK OF CANADA LTD.                                                                                                                                  
COMYTV   030201192550      000100EDUCATION DIRECT                                                                                                                                               
COMYTV   030201192650      000030MOVIE CENTRAL                                                                                                                                                  
PRCYTV   030201192720      000030YTV PROMO CONTRACT                                                                                                                                             
PRCYTV   030201192750      000015YTV PROMO CONTRACT                                                                                                                                             
ID YTV   030201192947      000012STATION ID                                                                                                                                                     
PGRYTV   030201193000195133002133ADDAM'S FAMILY: THE SERIES                        MORTICIA JOINS THE LADIES EP 4                    AFS         C15097 1 35307BCC                              
SPOYTV   030201193206      000010EFFEM/M&M 10 SEC CC BB                                                                                                                                         
COMYTV   030201193216      000015K CLARK/KOTEX                                                                                                                                                  
COMYTV   030201193231      000030GOVERNMENT OF CANADA/HEALTH CA                                                                                                                                 
COMYTV   030201193301      000030HIGHWAY ENTERTAINMENT                                                                                                                                          
COMYTV   030201193331      000030PATRIMOINE CANADA                                                                                                                                              
COMYTV   030201193401      000015HWY/ADULT BARTER#3                                                                                                                                             
PRCYTV   030201193416      000015YTV PROMO CONTRACT                                                                                                                                             
COMYTV   030201194001      000030KRAFT/KIDS P1 :30'S                                                                                                                                            
COMYTV   030201194031      000030PATRIMOINE CANADA                                                                                                                                              
COMYTV   030201194101      000030BOY SCOUTS OF CANADA/CORPORATE                                                                                                                                 
COMYTV   030201194131      000030SHAW @ HOME                                                                                                                                                    
PRCYTV   030201194201      000030YTV PROMO CONTRACT                                                                                                                                             
COMYTV   030201194933      000015BVHV/SWEET HOME ALABAMA                                                                                                                                        
COMYTV   030201194948      000100WALT DISNEY/DR-MAGICAL PACKAGE                                                                                                                                 
COMYTV   030201195048      000030MOVIE CENTRAL                                                                                                                                                  
COMYTV   030201195118      000015HWY/ADULT BARTER#3                                                                                                                                             
PSAYTV   030201195133195203000030FIRE MARSHALL/PREVENTION                                                                                               1 000130                                
PGRYTV   030201195203200004000801ADDAM'S FAMILY: THE SERIES                        MORTICIA JOINS THE LADIES EP 4                    AFS         C15097 1 35307BCC                              
ID YTV   030201195949      000012STATION ID                                                                                                                                                     
PGRYTV   030201200004203004003000MYSTERY HUNTERS                                   NASCA LINES/TROPHY HEADS EPS 8                    APARTMYTV   C20142 1 35305BCC                              
COMYTV   030201200653      000030HWY/PLAYTOY BARTER                                                                                                                                             
COMYTV   030201200723      000030J.M. SCHNEIDER                                                                                                                                                 
COMYTV   030201200753      000030KIMBERLY-CLARK OF CANADA LTD.                                                                                                                                  
COMYTV   030201200823      000030CASST/CAB                                                                                                                                                      
COMYTV   030201201621      000030GENERAL MILLS/VARIOUS                                                                                                                                          
COMYTV   030201201651      000030SMITHKLINE BEECHAM                                                                                                                                             
COMYTV   030201201721      000030HIGHWAY ENTERTAINMENT                                                                                                                                          
COMYTV   030201202719      000030MATTEL/SPRING VARIOUS                                                                                                                                          
COMYTV   030201202749      000100P&G/CORP BASE BUY/PRE-EMPTIBLE                                                                                                                                 
COMYTV   030201202849      000030GOVERNMENT OF CANADA/HEALTH CA                                                                                                                                 
ID YTV   030201202949      000012STATION ID                                                                                                                                                     
PGRYTV   030201203004210012003008VAMPIRE HIGH                                      DADS AND MONSTERS EPS 10                          LAFETEYTV   C18377 1 35307ACC                              
SPOYTV   030201203759      000010EFFEM/M&M 10 SEC CC BB                                                                                                                                         
COMYTV   030201203809      000030K CLARK/PULL UPS                                                                                                                                               
COMYTV   030201203839      000100EDUCATION DIRECT                                                                                                                                               
COMYTV   030201203939      00003020TH CENTURY/DAREDEVIL                                                                                                                                         
COMYTV   030201204727      000015L'OREAL CANADA/EVERFRESH                                                                                                                                       
COMYTV   030201204742      000100SYLVAN LEARNING CENTERS                                                                                                                                        
COMYTV   030201204842      000030HWY/CPA-ADULT PACKAGE#6                                                                                                                                        
COMYTV   030201204912      000015HWY/ADULT BARTER#3                                                                                                                                             
COMYTV   030201205342      000030P&G/PRINGLES                                                                                                                                                   
COMYTV   030201205412      000030GOVERNMENT OF CANADA/HEALTH CA                                                                                                                                 
COMYTV   030201205442      000030J.M. SCHNEIDER                                                                                                                                                 
COMYTV   030201205512      000030CASST/CAB                                                                                                                                                      
PRCYTV   030201205542      000030YTV PROMO CONTRACT                                                                                                                                             
ID YTV   030201205949      000012STATION ID                                                                                                                                                     
SPOYTV   030201210006      000005K CLARK/KOTEX                                                                                                                                                  
PGRYTV   030201210012220012010000BUFFY THE VAMPIRE SLAYER                          HELP  EPS 126                                                        2 38307ACC                              
SPOYTV   030201210409      000010EFFEM/M&M 10 SEC CC BB                                                                                                                                         
COMYTV   030201210419      000030WALMART/BABY DEPARTMENT                                                                                                                                        
COMYTV   030201210449      000030WHITEHALL/CORPORATE                                                                                                                                            
COMYTV   030201210519      00003020TH CENTURY/DAREDEVIL                                                                                                                                         
COMYTV   030201210549      000030CHATTEM/PHISODERM CT 61                                                                                                                                        
