PGRYTV   040801060000062559002559UH OH!                                            EPS 87                                                               1 311100CC                              
PRCYTV   040801060328      000030YTV PROMO CONTRACT                                                                                                                                             
PRCYTV   040801060358      000030YTV PROMO CONTRACT                                                                                                                                             
PRCYTV   040801061157      000030YTV PROMO CONTRACT                                                                                                                                             
PRCYTV   040801061227      000015YTV PROMO CONTRACT                                                                                                                                             
PRCYTV   040801061758      000030YTV PROMO CONTRACT                                                                                                                                             
PRCYTV   040801061828      000030YTV PROMO CONTRACT                                                                                                                                             
INTYTV   040801062559062956000357CHIP 'N' ORBIT                                    EPISODE 17                                                           1 311120CC                              
ID YTV   040801062946      000012STATION ID                                                                                                                                                     
PGRYTV   040801062956065554002558SEVEN LITTLE MONSTERS                             NO PLACE LIKE/GUYS & DOLLS  PS                                       1 32107ECC                              
PRCYTV   040801065428      000015YTV PROMO CONTRACT                                                                                                                                             
PRCYTV   040801065443      000030YTV PROMO CONTRACT                                                                                                                                             
PRCYTV   040801065513      000030YTV PROMO CONTRACT                                                                                                                                             
INTYTV   040801065554065824000230NELVANA INTERSTITIALS                             YOU ARE WHAT YOU EAT                                                 1 321120                                
PRCYTV   040801065655      000030YTV PROMO CONTRACT                                                                                                                                             
PRCYTV   040801065725      000030YTV PROMO CONTRACT                                                                                                                                             
PRCYTV   040801065755      000030YTV PROMO CONTRACT                                                                                                                                             
INTYTV   040801065824070000000136RALF THE RECORD RAT                               EPS 90                                                               1 351120                                
ID YTV   040801065948      000012STATION ID                                                                                                                                                     
PGRYTV   040801070000072751002751JUST JAMIE                                        CAT'S OUT/PET PEEVES     EP 5                     FUNBAGYTV   A89066 1 25307ECC                              
COMYTV   040801070550      000030MATTEL/KIDS SUMMER CORP JUL-AU                                                                                                                                 
COMYTV   040801070620      000030KELLOGG/RICE KRISPIES                                                                                                                                          
COMYTV   040801071258      000030LEGO/BIONICLE 30'S                                                                                                                                             
COMYTV   040801071328      000030GEN MILLS/VARIOUS ROTATION                                                                                                                                     
COMYTV   040801071358      000030YTV CREATIVE MEDIA                                                                                                                                             
COMYTV   040801071428      000030KRAFT CANADA INC.                                                                                                                                              
COMYTV   040801072132      000030GEN MILLS/VARIOUS ROTATION                                                                                                                                     
COMYTV   040801072202      000030MATTEL CANADA INC.                                                                                                                                             
INTYTV   040801072751073028000237EVERYDAY HEROES                                   COAST GUARD  SEP 2                                                   1 313120                                
ID YTV   040801073017      000012STATION ID                                                                                                                                                     
PGRYTV   040801073028075824002756THE BOY                                           BATTERIES NOT INCLUDED    EP 9                    TOONCAYTV   A58642 1 35307ECC                              
COMYTV   040801074122      000030YTV/HASBRO - WOW SPONSORSHIP                                                                                                                                   
COMYTV   040801074152      000030KRAFT CANADA INC.                                                                                                                                              
COMYTV   040801074742      000030MATTEL/KIDS SUMMER CORP JUL-AU                                                                                                                                 
COMYTV   040801074812      000030KELLOGG/EGGO                                                                                                                                                   
COMYTV   040801074842      000030LEGO CANADA INC.                                                                                                                                               
COMYTV   040801074912      000030MCDONALD'S RESTAURANTS CANADA                                                                                                                                  
COMYTV   040801075659      000030KELLOGG/RICE KRISPIES                                                                                                                                          
COMYTV   040801075729      000015MATTEL CANADA INC.                                                                                                                                             
COMYTV   040801075744      000015VAN MELLE                                                                                                                                                      
INTYTV   040801075824080000000136RALF THE RECORD RAT                               EPS 91                                                               1 353120                                
ID YTV   040801075948      000012STATION ID                                                                                                                                                     
PGRYTV   040801080000081558001558STUART LITTLE                                     A LITTLE TOO FAST  EPS 10                                            2 38307ECC                              
SPOYTV   040801080114      000010KELLOGG/CORPORATE KIDS                                                                                                                                         
COMYTV   040801080124      000030KRAFT/P2 KIDS 30'S                                                                                                                                             
COMYTV   040801080154      000030MATTEL CANADA INC.                                                                                                                                             
PRCYTV   040801080224      000030YTV PROMO CONTRACT                                                                                                                                             
PRCYTV   040801080254      000030YTV PROMO CONTRACT                                                                                                                                             
COMYTV   040801081428      000030KELLOGG/RICE KRISPIES                                                                                                                                          
COMYTV   040801081458      000030MATTEL/SUMMER BONUS                                                                                                                                            
COMYTV   040801081528      000030GEN MILLS/VARIOUS ROTATION                                                                                                                                     
PSAYTV   040801081558081628000030PSA/CONCERN CHILDREN/THE CHASE                                                                                         1 000130                                
PGRYTV   040801081628082848001220STUART LITTLE                                     A LITTLE TOO FAST  EPS 10                                            2 38307ECC                              
COMYTV   040801082521      000030MCDONALDS/HAPPY MEAL                                                                                                                                           
COMYTV   040801082551      000030YTV CREATIVE MEDIA                                                                                                                                             
PRCYTV   040801082621      000030YTV PROMO CONTRACT                                                                                                                                             
PROYTV   040801082651      000030YTV PROMO CONTRACT                                                                                                                                             
INTYTV   040801082848083000000112PROGRAM JOCKEY                                    KELLOGGS - ANDREA NEIL                                               1 213120                                
ID YTV   040801082948      000012STATION ID                                                                                                                                                     
PGRYTV   040801083000084356001356CHALK ZONE                                        SNAP/DATE/MUMBO/FUTURE    EP 2                                       2 38307ECC                              
COMYTV   040801083051      000030KELLOGG/EGGO                                                                                                                                                   
COMYTV   040801083121      000030MATTEL CANADA INC.                                                                                                                                             
PRCYTV   040801083151      000030YTV PROMO CONTRACT                                                                                                                                             
PRCYTV   040801083221      000030YTV PROMO CONTRACT                                                                                                                                             
COMYTV   040801084256      000015KRAFT/P2 KIDS 15'S                                                                                                                                             
COMYTV   040801084311      000030MATTEL CANADA INC.                                                                                                                                             
COMYTV   040801084341      000015VAN MELLE/AIRHEADS BUBBLE GUM                                                                                                                                  
PSAYTV   040801084356084456000100HINTERLAND WHO/POLAR BEAR                                                                                              1 000130                                
PGRYTV   040801084456090000001504CHALK ZONE                                        SNAP/DATE/MUMBO/FUTURE    EP 2                                       2 38307ECC                              
COMYTV   040801085703      000030MCDONALDS/HAPPY MEAL                                                                                                                                           
COMYTV   040801085733      000030KRAFT/P2 KIDS 30'S                                                                                                                                             
PROYTV   040801085803      000030YTV PROMO CONTRACT                                                                                                                                             
PRCYTV   040801085833      000030YTV PROMO CONTRACT                                                                                                                                             
ID YTV   040801085948      000012STATION ID                                                                                                                                                     
PGRYTV   040801090000091530001530HEY ARNOLD                                        APTITUDE TEST/OSKAR GETS A JOB                                       2 38307ECC                              
COMYTV   040801090537      00001520TH CENTURY VIDEO/GARFIELD                                                                                                                                    
COMYTV   040801090552      000015KRAFT/P2 KIDS 15'S                                                                                                                                             
COMYTV   040801090607      000030LEGO CANADA INC.                                                                                                                                               
PRCYTV   040801090637      000015YTV PROMO CONTRACT                                                                                                                                             
PRCYTV   040801090652      000015YTV PROMO CONTRACT                                                                                                                                             
PRCYTV   040801090707      000030YTV PROMO CONTRACT                                                                                                                                             
COMYTV   040801091400      000015BVHV/CONFESSNS OF TEEN QUEEN15                                                                                                                                 
COMYTV   040801091415      000015VAN MELLE/AIRHEADS BUBBLE GUM                                                                                                                                  
COMYTV   040801091430      000030MATTEL CANADA INC.                                                                                                                                             
COMYTV   040801091500      000030KRAFT/P2 KIDS 30'S                                                                                                                                             
PSAYTV   040801091530091600000030PSA/CONCERN CHILDREN/ICE CREAM                                                                                         1 000130                                
PGRYTV   040801091600093005001405HEY ARNOLD                                        APTITUDE TEST/OSKAR GETS A JOB                                       2 38307ECC                              
COMYTV   040801092131      000030KELLOGG/CEREAL&MILK BAR                                                                                                                                        
COMYTV   040801092201      000030YTV CREATIVE MEDIA                                                                                                                                             
PROYTV   040801092231      000030YTV PROMO CONTRACT                                                                                                                                             
PROYTV   040801092301      000030YTV PROMO CONTRACT                                                                                                                                             
ID YTV   040801092952      000012STATION ID                                                                                                                                                     
PGRYTV   040801093005094515001510JIMMY NEUTRON                                     RETROVILLE 9/GRUMPY MEN  EPS23                                       2 38307ECC                              
COMYTV   040801093045      000030MCDONALDS/HAPPY MEAL                                                                                                                                           
COMYTV   040801093115      000030GEN MILLS/VARIOUS-TRAD CHILD 1                                                                                                                                 
PRCYTV   040801093145      000015YTV PROMO CONTRACT                                                                                                                                             
PRCYTV   040801093200      000030YTV PROMO CONTRACT                                                                                                                                             
COMYTV   040801094345      000015MATTEL/KIDS SUMMER CORP 15'S                                                                                                                                   
COMYTV   040801094400      000030KELLOGG/CEREAL&MILK BAR                                                                                                                                        
COMYTV   040801094430      000030LEGO CANADA INC.                                                                                                                                               
COMYTV   040801094500      000015VAN MELLE                                                                                                                                                      
PSAYTV   040801094515094545000030PSA/THINK FAST/KICKFLIP-CDN                                                                                            1 000130                                
PGRYTV   040801094545100001001416JIMMY NEUTRON                                     RETROVILLE 9/GRUMPY MEN  EPS23                                       2 38307ECC                              
SPOYTV   040801095654      000010KELLOGG/CORPORATE KIDS                                                                                                                                         
COMYTV   040801095704      000030MATTEL/KIDS SUMMER CORP JUL-AU                                                                                                                                 
COMYTV   040801095734      000030KRAFT/P2 KIDS 30'S                                                                                                                                             
PRCYTV   040801095804      000030YTV PROMO CONTRACT                                                                                                                                             
PROYTV   040801095834      000030YTV PROMO CONTRACT                                                                                                                                             
ID YTV   040801095949      000012STATION ID                                                                                                                                                     
PGRYTV   040801100001101526001525SPONGEBOB SQUAREPANTS                             PIZZA DELIVERY/PINEAPPLE EP5                                         2 38307ECC                              
COMYTV   040801100050      000030WARNER BROS/YU GI OH                                                                                                                                           
COMYTV   040801100120      000030KRAFT/P2 KIDS 30'S                                                                                                                                             
PRCYTV   040801100150      000030YTV PROMO CONTRACT                                                                                                                                             
PROYTV   040801100220      000030YTV PROMO CONTRACT                                                                                                                                             
COMYTV   040801101356      000015BVHV/CONFESSNS OF TEEN QUEEN15                                                                                                                                 
COMYTV   040801101411      000030MCDONALDS/HAPPY MEAL                                                                                                                                           
COMYTV   040801101441      000015MATTEL/KIDS SUMMER CORP 15'S                                                                                                                                   
COMYTV   040801101456      000030KRAFT/P2 KIDS 30'S                                                                                                                                             
PSAYTV   040801101526101556000030PSA/ADOPT A TIGER                                                                                                      1 000130                                
PGRYTV   040801101556103000001404SPONGEBOB SQUAREPANTS                             PIZZA DELIVERY/PINEAPPLE EP5                                         2 38307ECC                              
COMYTV   040801102339      000030MATTEL/KIDS SUMMER CORP JUL-AU                                                                                                                                 
COMYTV   040801102409      000030GEN MILLS/FRUIT BY THE FOOT                                                                                                                                    
PRCYTV   040801102439      000030YTV PROMO CONTRACT                                                                                                                                             
PROYTV   040801102509      000030YTV PROMO CONTRACT                                                                                                                                             
ID YTV   040801102948      000012STATION ID                                                                                                                                                     
PGRYTV   040801103000105849002849FAIRLY ODD PARENTS                                BEDDY BYE/GRASS IS GREEN EPS33                                       2 38307ECC                              
COMYTV   040801103051      000030WARNER BROS/YU GI OH                                                                                                                                           
COMYTV   040801103121      000030MCDONALDS/HAPPY MEAL                                                                                                                                           
COMYTV   040801104313      000030GEN MILLS/CINNAMON TOAST CRNCH                                                                                                                                 
COMYTV   040801104343      000030MATTEL/KIDS SUMMER CORP JUL-AU                                                                                                                                 
COMYTV   040801104413      000030KELLOGG/RICE KRISPIES                                                                                                                                          
COMYTV   040801104443      000030YTV CREATIVE MEDIA                                                                                                                                             
COMYTV   040801105630      000030BVHV/CONFESSNS TEEN QUEEN 30'S                                                                                                                                 
COMYTV   040801105700      000015MATTEL/KIDS SUMMER CORP 15'S                                                                                                                                   
COMYTV   040801105715      000015KRAFT CANADA INC.                                                                                                                                              
PRCYTV   040801105730      000030YTV PROMO CONTRACT                                                                                                                                             
INTYTV   040801105849110001000112PROGRAM JOCKEY                                    KELLOGGS - RANDEE HERMUS                                             1 313120                                
ID YTV   040801105948      000012STATION ID                                                                                                                                                     
PGRYTV   040801110001112833002832ALL GROWN UP                                      THE OLD & THE RESTLESS   EPS 9                                       2 38307ECC                              
COMYTV   040801111001      000030WARNER BROS/YU GI OH                                                                                                                                           
COMYTV   040801111031      000030KELLOGG/RICE KRISPIES                                                                                                                                          
PRCYTV   040801111101      000015YTV PROMO CONTRACT                                                                                                                                             
COMYTV   040801111717      000030KELLOGG/POP TARTS                                                                                                                                              
COMYTV   040801111747      000030MATTEL CANADA INC.                                                                                                                                             
COMYTV   040801111817      000030MCDONALDS/HAPPY MEAL                                                                                                                                           
COMYTV   040801111847      000030LEGO CANADA INC.                                                                                                                                               
COMYTV   040801112619      000030KRAFT/P2 KIDS 30'S                                                                                                                                             
COMYTV   040801112649      000030GEN MILLS/FRUIT BY THE FOOT                                                                                                                                    
PRCYTV   040801112719      000030YTV PROMO CONTRACT                                                                                                                                             
OFTYTV   040801112833113038000205OFF AIR-TECHNICAL                                                                                                      0 000                                   
PGRYTV   040801113038115150002112JACOB TWO TWO                                     JTT & THE UNLICKABLE COWLICK                                         1 32307ECC                              
ID YTV   040801113051      000012STATION ID                                                                                                                                                     
COMYTV   040801114049      000030KELLOGG/POP TARTS                                                                                                                                              
COMYTV   040801114119      000030MATTEL CANADA INC.                                                                                                                                             
PRCYTV   040801114149      000015YTV PROMO CONTRACT                                                                                                                                             
PRCYTV   040801114204      000015YTV PROMO CONTRACT                                                                                                                                             
PRCYTV   040801114219      000015YTV PROMO CONTRACT                                                                                                                                             
COMYTV   040801115020      000030MCDONALDS/HAPPY MEAL                                                                                                                                           
COMYTV   040801115050      000030LEGO CANADA INC.                                                                                                                                               
COMYTV   040801115120      000030KELLOGG/CEREAL&MILK BAR                                                                                                                                        
PSAYTV   040801115150115220000030ABC LEARNING-KIDS GENERIC                                                                                              1 000130                                
PGRYTV   040801115220120005000745JACOB TWO TWO                                     JTT & THE UNLICKABLE COWLICK                                         1 32307ECC                              
COMYTV   040801115651      000030GEN MILLS/REESE                                                                                                                                                
COMYTV   040801115721      000030MATTEL CANADA INC.                                                                                                                                             
PRCYTV   040801115751      000030YTV PROMO CONTRACT                                                                                                                                             
ID YTV   040801115951      000012STATION ID                                                                                                                                                     
PGRYTV   040801120005123008003003YVON OF THE YUKON                                 A RIVAL'S ARRIVAL       EPS 43                    YVON  YTV   A77145 1 35307ECC                              
COMYTV   040801120817      000015UNIVERSAL FILMS/THUNDERBIRDS15                                                                                                                                 
COMYTV   040801120832      000015KRAFT/P2 KIDS 15'S                                                                                                                                             
COMYTV   040801120847      000030MATTEL/SUMMER BONUS                                                                                                                                            
COMYTV   040801120917      000030KELLOGG/RICE KRISPIES                                                                                                                                          
COMYTV   040801120947      000030YTV CREATIVE MEDIA                                                                                                                                             
COMYTV   040801121811      000015KRAFT/P2 KIDS 15'S                                                                                                                                             
COMYTV   040801121826      000030MATTEL CANADA INC.                                                                                                                                             
COMYTV   040801121856      000015YTV/C PLUS-SUMMER PROMO                                                                                                                                        
COMYTV   040801121911      000030LEGO CANADA INC.                                                                                                                                               
COMYTV   040801121941      000030GENERAL MILLS CANADA INC.                                                                                                                                      
COMYTV   040801122725      000015UNIVERSAL FILMS/THUNDERBIRDS15                                                                                                                                 
COMYTV   040801122740      000030KRAFT/P2 KIDS 30'S                                                                                                                                             
COMYTV   040801122810      000030MATTEL CANADA INC.                                                                                                                                             
COMYTV   040801122840      000015VAN MELLE                                                                                                                                                      
COMYTV   040801122855      000030LEGO CANADA INC.                                                                                                                                               
ID YTV   040801122955      000012STATION ID                                                                                                                                                     
PGRYTV   040801123008124534001526GIRLSTUFF/BOYSTUFF                                VAL - VALENTINE'S/ASSESS THIS                     DECODEYTV   A74623 1 35307ECC                              
COMYTV   040801123058      000015UNIVERSAL FILMS/THUNDERBIRDS15                                                                                                                                 
COMYTV   040801123113      000030MCDONALDS/HAPPY MEAL                                                                                                                                           
COMYTV   040801123143      000030MATTEL CANADA INC.                                                                                                                                             
COMYTV   040801123213      000015KRAFT/P2 KIDS 15'S                                                                                                                                             
COMYTV   040801123228      000030LEGO CANADA INC.                                                                                                                                               
COMYTV   040801124404      000030KELLOGG/CEREAL&MILK BAR                                                                                                                                        
COMYTV   040801124434      000030MATTEL/SUMMER BONUS                                                                                                                                            
COMYTV   040801124504      000030KRAFT/P2 KIDS 30'S                                                                                                                                             
PSAYTV   040801124534124604000030PSA/CONCERN CHILDREN/ICE CREAM                                                                                         1 000130                                
PGRYTV   040801124604130013001409GIRLSTUFF/BOYSTUFF                                VAL - VALENTINE'S/ASSESS THIS                     DECODEYTV   A74623 1 35307ECC                              
COMYTV   040801125725      000030GEN MILLS/VARIOUS ROTATION                                                                                                                                     
COMYTV   040801125755      000030MATTEL CANADA INC.                                                                                                                                             
COMYTV   040801125825      000030KRAFT CANADA INC.                                                                                                                                              
COMYTV   040801125855      000030YTV CREATIVE MEDIA                                                                                                                                             
ID YTV   040801125958      000012STATION ID                                                                                                                                                     
PGRYTV   040801130013133016003003MONSTER BY MISTAKE                                NATURAL DISASTER          EP31                    MONSTEYTV   A95733 1 25307ECC                              
COMYTV   040801130905      000015UNIVERSAL FILMS/THUNDERBIRDS15                                                                                                                                 
COMYTV   040801130920      000015VAN MELLE                                                                                                                                                      
COMYTV   040801130935      000030MATTEL CANADA INC.                                                                                                                                             
COMYTV   040801131005      000030KELLOGG CANADA INC.                                                                                                                                            
COMYTV   040801131035      000030LEGO CANADA INC.                                                                                                                                               
COMYTV   040801131816      000030LEGO/BIONICLE 30'S                                                                                                                                             
COMYTV   040801131846      000030MCDONALD'S RESTAURANTS CANADA                                                                                                                                  
COMYTV   040801131916      000030MATTEL CANADA INC.                                                                                                                                             
COMYTV   040801131946      000030GENERAL MILLS CANADA INC.                                                                                                                                      
COMYTV   040801132717      000030KRAFT/P2 KIDS 30'S                                                                                                                                             
COMYTV   040801132747      000030MATTEL CANADA INC.                                                                                                                                             
COMYTV   040801132817      000030GEN MILLS/VARIOUS-TRAD CHILD 1                                                                                                                                 
COMYTV   040801132847      000030YTV CREATIVE MEDIA                                                                                                                                             
ID YTV   040801133002      000012STATION ID                                                                                                                                                     
PGRYTV   040801133016140019003003THE BOY                                           IF YOU SEE WHAT I MEAN    EP22                    TOONCA      A84999 1 35307ECC                              
COMYTV   040801133947      000015UNIVERSAL FILMS/THUNDERBIRDS15                                                                                                                                 
COMYTV   040801134002      000015VAN MELLE/AIRHEADS BUBBLE GUM                                                                                                                                  
COMYTV   040801134017      000030MATTEL CANADA INC.                                                                                                                                             
COMYTV   040801134047      000030KRAFT CANADA INC.                                                                                                                                              
COMYTV   040801134117      000030YTV CREATIVE MEDIA                                                                                                                                             
COMYTV   040801134830      000030GEN MILLS/VARIOUS ROTATION                                                                                                                                     
COMYTV   040801134900      000030LEGO CANADA INC.                                                                                                                                               
COMYTV   040801134930      000030KELLOGG CANADA INC.                                                                                                                                            
COMYTV   040801135000      000015MATTEL CANADA INC.                                                                                                                                             
COMYTV   040801135015      000015KRAFT CANADA INC.                                                                                                                                              
COMYTV   040801135740      000030KELLOGG/EGGO                                                                                                                                                   
COMYTV   040801135810      000030MATTEL CANADA INC.                                                                                                                                             
COMYTV   040801135840      000030GENERAL MILLS CANADA INC.                                                                                                                                      
COMYTV   040801135910      000030LEGO CANADA INC.                                                                                                                                               
ID YTV   040801140006      000012STATION ID                                                                                                                                                     
PGRYTV   040801140019143001002942MARTIN MYSTERY                                    MYSTERY OF THE HOLE... EPS 15                     MYSTERYTV   A85381 1 35307ECC                              
COMYTV   040801140640      000015UNIVERSAL FILMS/THUNDERBIRDS15                                                                                                                                 
COMYTV   040801140655      000015VAN MELLE                                                                                                                                                      
COMYTV   040801140710      000030MATTEL CANADA INC.                                                                                                                                             
COMYTV   040801140740      000030KRAFT CANADA INC.                                                                                                                                              
COMYTV   040801140810      000030YTV CREATIVE MEDIA                                                                                                                                             
COMYTV   040801141457      000030GEN MILLS/VARIOUS ROTATION                                                                                                                                     
COMYTV   040801141527      000030YTV CREATIVE MEDIA                                                                                                                                             
COMYTV   040801141557      000030KRAFT CANADA INC.                                                                                                                                              
COMYTV   040801141627      000030LEGO CANADA INC.                                                                                                                                               
COMYTV   040801142314      000015UNIVERSAL FILMS/THUNDERBIRDS15                                                                                                                                 
COMYTV   040801142329      000015KRAFT CANADA INC.                                                                                                                                              
COMYTV   040801142344      000030MATTEL CANADA INC.                                                                                                                                             
COMYTV   040801142414      000030KELLOGG CANADA INC.                                                                                                                                            
COMYTV   040801142444      000030LEGO CANADA INC.                                                                                                                                               
ID YTV   040801142948      000012STATION ID                                                                                                                                                     
PGRYTV   040801143001150002003001MOVILLE MYSTERIES                                 MOVILLE WITCH PROJECT    EPS 5                    NELVANYTV          1 32307ECC                              
COMYTV   040801143701      000015UNIVERSAL FILMS/THUNDERBIRDS15                                                                                                                                 
COMYTV   040801143716      000015YTV/C PLUS-SUMMER PROMO                                                                                                                                        
COMYTV   040801143731      000030MATTEL CANADA INC.                                                                                                                                             
COMYTV   040801143801      000030GENERAL MILLS CANADA INC.                                                                                                                                      
COMYTV   040801143831      000030LEGO CANADA INC.                                                                                                                                               
COMYTV   040801144503      000030BVHV/CONFESSNS TEEN QUEEN 30'S                                                                                                                                 
COMYTV   040801144533      000030KELLOGG CANADA INC.                                                                                                                                            
COMYTV   040801144603      000030MATTEL CANADA INC.                                                                                                                                             
COMYTV   040801144633      000030GENERAL MILLS CANADA INC.                                                                                                                                      
COMYTV   040801145532      000030YTV/HASBRO - WOW SPONSORSHIP                                                                                                                                   
COMYTV   040801145602      000030MCDONALD'S RESTAURANTS CANADA                                                                                                                                  
COMYTV   040801145632      000030MATTEL CANADA INC.                                                                                                                                             
COMYTV   040801145702      000030KRAFT CANADA INC.                                                                                                                                              
PRCYTV   040801145732      000030YTV PROMO CONTRACT                                                                                                                                             
ID YTV   040801145948      000012STATION ID                                                                                                                                                     
PGRYTV   040801150002153003003001MYSTERY HUNTERS                                   BIG FOOT/SKUNK APE/LAB EPS 1                      APARTMYTV   C20141 1 35305BCC                              
COMYTV   040801150658      000030UNIVERSAL FILMS/THUNDERBIRDS                                                                                                                                   
COMYTV   040801150728      000030MATTEL/SUMMER BONUS                                                                                                                                            
COMYTV   040801150758      000030KELLOGG CANADA INC.                                                                                                                                            
COMYTV   040801150828      000030LEGO CANADA INC.                                                                                                                                               
COMYTV   040801151703      000030KELLOGG/RICE KRISPIES                                                                                                                                          
COMYTV   040801151733      000015MATTEL CANADA INC.                                                                                                                                             
COMYTV   040801151748      000015VAN MELLE                                                                                                                                                      
COMYTV   040801151803      000030LEGO CANADA INC.                                                                                                                                               
COMYTV   040801152719      000030MATTEL/KIDS SUMMER CORP JUL-AU                                                                                                                                 
COMYTV   040801152749      000030KRAFT CANADA INC.                                                                                                                                              
COMYTV   040801152819      000030YTV CREATIVE MEDIA                                                                                                                                             
COMYTV   040801152849      000030GENERAL MILLS CANADA INC.                                                                                                                                      
ID YTV   040801152949      000012STATION ID                                                                                                                                                     
PGRYTV   040801153003154157001154MY BRAND NEW LIFE                                 WHEELCHAIR CHALLENGE       EP8                    LAFETEYTV   A87982 1 253110CC                              
COMYTV   040801153150      000030UNIVERSAL FILMS/THUNDERBIRDS                                                                                                                                   
COMYTV   040801153220      000015DISCOVERY KIDS/:15 GENERIC WEB                                                                                                                                 
COMYTV   040801153235      000015KRAFT CANADA INC.                                                                                                                                              
COMYTV   040801153250      000030MATTEL CANADA INC.                                                                                                                                             
COMYTV   040801153320      000030GENERAL MILLS CANADA INC.                                                                                                                                      
COMYTV   040801154027      000015YTV/C PLUS-SUMMER PROMO                                                                                                                                        
COMYTV   040801154042      000015DISCOVERY KIDS/:15 GENERIC WEB                                                                                                                                 
COMYTV   040801154057      000030GENERAL MILLS CANADA INC.                                                                                                                                      
COMYTV   040801154127      000030MATTEL CANADA INC.                                                                                                                                             
PSAYTV   040801154157154227000030CONCERNED CHILDREN/WORDS HURT                                                                                          1 000130                                
PGRYTV   040801154227160004001737MY BRAND NEW LIFE                                 WHEELCHAIR CHALLENGE       EP8                    LAFETEYTV   A87982 1 253110CC                              
COMYTV   040801154928      000030MATTEL/KIDS SUMMER CORP JUL-AU                                                                                                                                 
COMYTV   040801154958      000015VAN MELLE                                                                                                                                                      
COMYTV   040801155013      000015DISCOVERY KIDS/:15 GENERIC WEB                                                                                                                                 
COMYTV   040801155028      000030KRAFT CANADA INC.                                                                                                                                              
COMYTV   040801155058      000030LEGO CANADA INC.                                                                                                                                               
PGRYTV   040801160004161542001538SUPERMAN                                          SUPERMAN                                                             2 38307D                                
COMYTV   040801161342      000015UNIVERSAL FILMS/THUNDERBIRDS15                                                                                                                                 
COMYTV   040801161357      000015HEINZ/KETCHUP SUMMER 04 15'S                                                                                                                                   
COMYTV   040801161412      000015MATTEL/KIDS SUMMER CORP 15'S                                                                                                                                   
COMYTV   040801161427      000015YTV/C PLUS-SUMMER PROMO                                                                                                                                        
COMYTV   040801161442      000030TORONTO ZOO/CORPORATE                                                                                                                                          
COMYTV   040801161512      000030KELLOGG/RICE KRISPIES                                                                                                                                          
PSAYTV   040801161542161612000030CONCERNED CHILDREN/WORDS HURT                                                                                          1 000130                                
PGRYTV   040801161612162833001221SUPERMAN                                          SUPERMAN                                                             2 38307D                                
COMYTV   040801162603      000015SONY VIDEO/13 GOING ON 30 DVD                                                                                                                                  
COMYTV   040801162618      000015DAYS INN/SCHREK PROMOTION                                                                                                                                      
COMYTV   040801162633      000030GEN MILLS/BERRY BURST CHEERIOS                                                                                                                                 
COMYTV   040801162703      000030SC JOHNSON/SKINTAMATE                                                                                                                                          
COMYTV   040801162733      000030KRAFT/P2 KIDS 30'S                                                                                                                                             
COMYTV   040801162803      000030MATTEL/SUMMER BONUS                                                                                                                                            
PSAYTV   040801162833162903000030ABC LEARNING/MUNSCH GENERIC                                                                                            1 000130                                
PGRYTV   040801162903165341002438SUPERMAN                                          SUPERMAN                                                             2 38307D                                
COMYTV   040801163949      000030SONY ENT/LITTLE BLACK BOOK                                                                                                                                     
COMYTV   040801164019      000030PRISZM BRANDS/KFC :30 SUMMER                                                                                                                                   
COMYTV   040801164049      000030K CLARK/HUGGIES :30 SUMMER REN                                                                                                                                 
COMYTV   040801164119      000030KRAFT/P2 KIDS 30'S                                                                                                                                             
COMYTV   040801164149      000030SC JOHNSON                                                                                                                                                     
COMYTV   040801164219      000015HEINZ                                                                                                                                                          
COMYTV   040801164234      000015DAYS INN HOTELS                                                                                                                                                
COMYTV   040801165111      000015UNIVERSAL FILMS/THUNDERBIRDS15                                                                                                                                 
COMYTV   040801165126      000015PEPSICO/CRISPY MINI'S                                                                                                                                          
COMYTV   040801165141      000030ACTIVISION/SPIDERMAN MOVIE2                                                                                                                                    
COMYTV   040801165211      000030KRAFT/P2 KIDS 30'S                                                                                                                                             
COMYTV   040801165241      000030P&G/2004 CORP NON PRE-EMPT                                                                                                                                     
COMYTV   040801165311      000030MCDONALDS/HAPPY MEAL                                                                                                                                           
PSAYTV   040801165341165411000030HINTERLAND WHO'S/BURROWING OWL                                                                                         1 000130                                
PGRYTV   040801165411172218002807SUPERMAN                                          SUPERMAN                                                             2 38307D                                
COMYTV   040801170717      000030SONY ENT/LITTLE BLACK BOOK                                                                                                                                     
COMYTV   040801170747      000030CADBURY CHOC/SOFT & CHEWY                                                                                                                                      
COMYTV   040801170817      000030SC JOHNSON/SKINTAMATE                                                                                                                                          
COMYTV   040801170847      000015HEINZ/KETCHUP SUMMER 04 15'S                                                                                                                                   
COMYTV   040801170902      000030P&G/2004 CORP NON PRE-EMPT                                                                                                                                     
COMYTV   040801170932      000015VAN MELLE/AIRHEADS BUBBLE GUM                                                                                                                                  
COMYTV   040801170947      000030KIMBERLY-CLARK OF CANADA LTD.                                                                                                                                  
COMYTV   040801171948      000015SONY VIDEO/13 GOING ON 30 DVD                                                                                                                                  
COMYTV   040801172003      000030GEN MILLS/BERRY BURST CHEERIOS                                                                                                                                 
COMYTV   040801172033      000030P&G/2004 CORP PRE-EMPTIBLE                                                                                                                                     
COMYTV   040801172103      000015VAN MELLE/AIRHEADS BUBBLE GUM                                                                                                                                  
COMYTV   040801172118      000030TORONTO ZOO/BONUS CONTRACT                                                                                                                                     
COMYTV   040801172148      000030PRISZM BRANDS INC                                                                                                                                              
PSAYTV   040801172218172248000030PSA/THINK FAST/KICKFLIP-CDN                                                                                            1 000130                                
PGRYTV   040801172248173905001617SUPERMAN                                          SUPERMAN                                                             2 38307D                                
COMYTV   040801173705      000015UNIVERSAL FILMS/THUNDERBIRDS15                                                                                                                                 
COMYTV   040801173720      000015J&J/JOHNSON'S BABY WASH                                                                                                                                        
COMYTV   040801173735      000015PEPSICO/CRISPY MINI'S                                                                                                                                          
COMYTV   040801173750      000015DAYS INN/SCHREK PROMOTION                                                                                                                                      
COMYTV   040801173805      000030GEN MILLS/VARIOUS ROTATION                                                                                                                                     
COMYTV   040801173835      000030MATTEL/SUMMER BONUS                                                                                                                                            
PSAYTV   040801173905173935000030PSA/THINK FAST/KICKFLIP-CDN                                                                                            1 000130                                
PRCYTV   040801173935      000015YTV PROMO CONTRACT                                                                                                                                             
PGRYTV   040801173935175756001821SUPERMAN                                          SUPERMAN                                                             2 38307D                                
COMYTV   040801175526      000030SONY ENT/LITTLE BLACK BOOK                                                                                                                                     
COMYTV   040801175556      000030CADBURY CHOC/SOFT & CHEWY                                                                                                                                      
COMYTV   040801175626      000030P&G/2004 CORP PRE-EMPTIBLE                                                                                                                                     
COMYTV   040801175656      000030GEN MILLS/VARIOUS ROTATION                                                                                                                                     
COMYTV   040801175726      000030KIMBERLY-CLARK OF CANADA LTD.                                                                                                                                  
PSAYTV   040801175756175826000030HINTERLAND WHO/THE POLAR BEAR                                                                                          1 000130                                
PGRYTV   040801175826181005001139SUPERMAN                                          SUPERMAN                                                             2 38307D                                
COMYTV   040801180735      000015SONY VIDEO/13 GOING ON 30 DVD                                                                                                                                  
COMYTV   040801180750      000030K CLARK/BABY WIPE/HUG SUMMER R                                                                                                                                 
COMYTV   040801180820      000015BOOTS HEALTH/CLEARASIL                                                                                                                                         
COMYTV   040801180835      000030PEPSICO/DORITOS                                                                                                                                                
COMYTV   040801180905      000030SC JOHNSON                                                                                                                                                     
COMYTV   040801180935      000030GENERAL MILLS CANADA INC.                                                                                                                                      
PSAYTV   040801181005181035000030KIDS HELP/DINNER                                                                                                       1 000130                                
PGRYTV   040801181035185023003948SUPERMAN                                          SUPERMAN                                                             2 38307D                                
COMYTV   040801182213      000015UNIVERSAL FILMS/THUNDERBIRDS15                                                                                                                                 
COMYTV   040801182228      000030K CLARK/HUGGIES :30 SUMMER REN                                                                                                                                 
COMYTV   040801182258      000015YTV/C PLUS-SUMMER PROMO                                                                                                                                        
COMYTV   040801182313      000030MATTEL/KIDS SUMMER CORP JUL-AU                                                                                                                                 
COMYTV   040801182343      000030PEPSICO/PEPSI BRANDS                                                                                                                                           
COMYTV   040801182413      000030SC JOHNSON                                                                                                                                                     
COMYTV   040801182443      000030PRISZM BRANDS INC                                                                                                                                              
COMYTV   040801183512      000030BVP/PRINCESS DIARIES 2 30'S                                                                                                                                    
COMYTV   040801183542      000015J&J/JOHNSON'S BABY WASH                                                                                                                                        
COMYTV   040801183557      000030CADBURY CHOC/SOFT & CHEWY                                                                                                                                      
COMYTV   040801183627      000030YTV/HASBRO - WOW SPONSORSHIP                                                                                                                                   
COMYTV   040801183657      000030GENERAL MILLS CANADA INC.                                                                                                                                      
COMYTV   040801183727      000030KIMBERLY-CLARK OF CANADA LTD.                                                                                                                                  
COMYTV   040801183757      000015SONY ENT/LITTLE BLACK BOOK                                                                                                                                     
COMYTV   040801184753      000015UNIVERSAL FILMS/THUNDERBIRDS15                                                                                                                                 
COMYTV   040801184808      000015HWY/ADULT CASH LOW DEMAND                                                                                                                                      
COMYTV   040801184823      000030SEARS/FURNITURE/APPLIANCES SUM                                                                                                                                 
COMYTV   040801184853      000030HWY/ADULT CASH LOW DEMAND                                                                                                                                      
COMYTV   040801184923      000030KIMBERLY-CLARK OF CANADA LTD.                                                                                                                                  
COMYTV   040801184953      000030PRISZM BRANDS INC                                                                                                                                              
PSAYTV   040801185023185053000030KIDS HELP/BEDTIME                                                                                                      1 000130                                
PGRYTV   040801185053190003000910SUPERMAN                                          SUPERMAN                                                             2 38307D                                
ID YTV   040801185948      000012STATION ID                                                                                                                                                     
PGRYTV   040801190003192409002406YTV'S HIT LIST                                    EPS 23                                                               1 31308CCC                              
COMYTV   040801191119      000030SONY ENT/LITTLE BLACK BOOK                                                                                                                                     
COMYTV   040801191149      000030MATTEL/KIDS SUMMER CORP JUL-AU                                                                                                                                 
COMYTV   040801191219      000030P&G/2004 CORP PRE-EMPTIBLE                                                                                                                                     
COMYTV   040801191249      000030KRAFT CANADA INC.                                                                                                                                              
COMYTV   040801192209      000015UNIVERSAL FILMS/THUNDERBIRDS15                                                                                                                                 
COMYTV   040801192224      000030P&G/2004 CORP NON PRE-EMPT                                                                                                                                     
COMYTV   040801192254      000015HWY/ADULT BARTER LOW DEMAND                                                                                                                                    
COMYTV   040801192309      000030SEARS CANADA INC.                                                                                                                                              
COMYTV   040801192339      000030PEPSICO                                                                                                                                                        
PSAYTV   040801192409192439000030PSA/CONCERN CHILDREN/ICE CREAM                                                                                         1 000130                                
PGRYTV   040801192439194331001852YTV'S HIT LIST                                    EPS 23                                                               1 31308CCC                              
COMYTV   040801193116      000015SONY VIDEO/13 GOING ON 30 DVD                                                                                                                                  
COMYTV   040801193131      000015HWY/ADULT BARTER LOW DEMAND                                                                                                                                    
COMYTV   040801193146      000030KIMBERLY-CLARK OF CANADA LTD.                                                                                                                                  
COMYTV   040801193216      000030GENERAL MILLS CANADA INC.                                                                                                                                      
COMYTV   040801193246      000030MATTEL CANADA INC.                                                                                                                                             
COMYTV   040801193316      000030PRISZM BRANDS INC                                                                                                                                              
COMYTV   040801194131      000030SONY ENT/LITTLE BLACK BOOK                                                                                                                                     
COMYTV   040801194201      000030P&G/2004 CORP PRE-EMPTIBLE                                                                                                                                     
COMYTV   040801194231      000030GENERAL MILLS CANADA INC.                                                                                                                                      
COMYTV   040801194301      000030MATTEL CANADA INC.                                                                                                                                             
PSAYTV   040801194331194401000030ABC LEARNING/MUNSCH GENERIC                                                                                            1 000130                                
PGRYTV   040801194401200002001601YTV'S HIT LIST                                    EPS 23                                                               1 31308CCC                              
COMYTV   040801195129      000015UNIVERSAL FILMS/THUNDERBIRDS15                                                                                                                                 
COMYTV   040801195144      000015YTV/C PLUS-SUMMER PROMO                                                                                                                                        
COMYTV   040801195159      000030SC JOHNSON                                                                                                                                                     
COMYTV   040801195229      000030HIGHWAY ENTERTAINMENT                                                                                                                                          
COMYTV   040801195259      000030KIMBERLY-CLARK OF CANADA LTD.                                                                                                                                  
COMYTV   040801195329      000030PEPSICO                                                                                                                                                        
ID YTV   040801195948      000012STATION ID                                                                                                                                                     
PGRYTV   040801200002201553001551MENTAL BLOCK                                      EXPOSED                   EP24                    ZONE 3YTV   C22323 1 35307ACC3                             
COMYTV   040801200229      000030GEN MILLS/VARIOUS ROTATION                                                                                                                                     
COMYTV   040801200259      000030TORONTO ZOO/CORPORATE                                                                                                                                          
COMYTV   040801200329      000030PRISZM BRANDS INC                                                                                                                                              
COMYTV   040801200359      000030MATTEL CANADA INC.                                                                                                                                             
COMYTV   040801201423      000015SONY ENT/LITTLE BLACK BOOK                                                                                                                                     
COMYTV   040801201438      000015BOOTS HEALTHCARE                                                                                                                                               
COMYTV   040801201453      000030CADBURY ADAMS                                                                                                                                                  
COMYTV   040801201523      000030SEARS CANADA INC.                                                                                                                                              
PSAYTV   040801201553201623000030KIDS HELP/BEDTIME                                                                                                      1 000130                                
PGRYTV   040801201623203006001343MENTAL BLOCK                                      EXPOSED                   EP24                    ZONE 3YTV   C22323 1 35307ACC3                             
COMYTV   040801202556      000030UNIVERSAL FILMS/THUNDERBIRDS                                                                                                                                   
COMYTV   040801202626      000030KELLOGG/CEREAL&MILK BAR                                                                                                                                        
COMYTV   040801202656      000030MATTEL CANADA INC.                                                                                                                                             
COMYTV   040801202726      000015PEPSICO                                                                                                                                                        
COMYTV   040801202741      000015DAYS INN HOTELS                                                                                                                                                
ID YTV   040801202951      000012STATION ID                                                                                                                                                     
PGRYTV   040801203006210010003004GIRLZ TV                                          EPS 62                                                        C22244 1 253110CC                              
COMYTV   040801203620      000030SEARS/FURNITURE/APPLIANCES SUM                                                                                                                                 
COMYTV   040801203650      000030P&G/2004 CORP PRE-EMPTIBLE                                                                                                                                     
COMYTV   040801203720      000030CADBURY ADAMS                                                                                                                                                  
COMYTV   040801203750      000030MATTEL CANADA INC.                                                                                                                                             
COMYTV   040801204336      000030SONY ENT/LITTLE BLACK BOOK                                                                                                                                     
COMYTV   040801204406      000030KRAFT/WM VARIOUS:ASSOC. HAL                                                                                                                                    
COMYTV   040801204436      000030SC JOHNSON                                                                                                                                                     
COMYTV   040801204506      000030GENERAL MILLS CANADA INC.                                                                                                                                      
COMYTV   040801205222      000015UNIVERSAL FILMS/THUNDERBIRDS15                                                                                                                                 
COMYTV   040801205237      000015HIGHWAY ENTERTAINMENT                                                                                                                                          
COMYTV   040801205252      000030YTV CREATIVE MEDIA                                                                                                                                             
COMYTV   040801205322      000030KRAFT CANADA INC.                                                                                                                                              
COMYTV   040801205352      000030KIMBERLY-CLARK OF CANADA LTD.                                                                                                                                  
ID YTV   040801205954      000012STATION ID                                                                                                                                                     
PGRYTV   040801210010213051003041MYSTERY HUNTERS                                   PRISON INN/GHOST SEEING DOGS                      APARTMYTV   C20142 1 35305BCC                              
SPOYTV   040801210735      000010MAPLE LEAF FOODS/SPEC HIGHLIGH                                                                                                                                 
COMYTV   040801210745      000030MAPLE LEAF FOODS/SPEC HIGHLIGH                                                                                                                                 
COMYTV   040801210815      000030K CLARK/HUGGIES :30 SUMMER REN                                                                                                                                 
COMYTV   040801210845      000015YTV/C PLUS-SUMMER PROMO                                                                                                                                        
COMYTV   040801210900      000030TORONTO ZOO/CORPORATE                                                                                                                                          
COMYTV   040801210930      000015HWY/ADULT BARTER LOW DEMAND                                                                                                                                    
COMYTV   040801211622      000015DAYS INN/SCHREK PROMOTION                                                                                                                                      
COMYTV   040801211637      000030HWY/ADULT CASH LOW DEMAND                                                                                                                                      
COMYTV   040801211707      000030SEARS/FURNITURE/APPLIANCES SUM                                                                                                                                 
COMYTV   040801211737      000015PEPSICO/CRISPY MINIS                                                                                                                                           
COMYTV   040801211752      000030KIMBERLY-CLARK OF CANADA LTD.                                                                                                                                  
COMYTV   040801212804      000015UNIVERSAL FILMS/THUNDERBIRDS15                                                                                                                                 
COMYTV   040801212819      000015BOOTS HEALTH/CLEARASIL                                                                                                                                         
COMYTV   040801212834      000030EFFEM/SKITLES-:30:S TEEN 20PTS                                                                                                                                 
COMYTV   040801212904      000100PRIMUS/PER INQUIRY $15/CALL                                                                                                                                    
ID YTV   040801213034      000012STATION ID                                                                                                                                                     
PGRYTV   040801213051220055003004TIMEBLAZERS                                       GOLD!    EPS 10                                   TIMETRYTV   C20884 1 35307ACC3                             
COMYTV   040801213212      000030K CLARK/KOTEX SUMMER RENEGOTIA                                                                                                                                 
COMYTV   040801213242      000030SC JOHNSON/SKINTAMATE                                                                                                                                          
COMYTV   040801213312      000030GEN MILLS/BERRY BURST CHEERIOS                                                                                                                                 
COMYTV   040801213342      000030P&G/2004 CORP PRE-EMPTIBLE                                                                                                                                     
COMYTV   040801214447      000015J&J/JOHNSON'S BABY WASH                                                                                                                                        
COMYTV   040801214502      000030HEINZ/KETCHUP SUMMER 04 :30                                                                                                                                    
COMYTV   040801214532      000030SEARS/FURNITURE/APPLIANCES SUM                                                                                                                                 
COMYTV   040801214602      000015YTV/C PLUS-SUMMER PROMO                                                                                                                                        
COMYTV   040801214617      000030P&G/2004 CORP PRE-EMPTIBLE                                                                                                                                     
COMYTV   040801215752      000015DAYS INN/SCHREK PROMOTION                                                                                                                                      
COMYTV   040801215807      000015BOOTS HEALTH/CLEARASIL                                                                                                                                         
COMYTV   040801215822      000030K CLARK/KOTEX SUMMER RENEGOTIA                                                                                                                                 
COMYTV   040801215852      000030TORONTO ZOO/CORPORATE                                                                                                                                          
COMYTV   040801215922      000030GENERAL MILLS CANADA INC.                                                                                                                                      
ID YTV   040801220037      000012STATION ID                                                                                                                                                     
PGRYTV   040801220055223027002932ROAD SCHOLARS                                     BELIZE                    EP20                                C21486 1 25302BCC                              
COMYTV   040801220754      000030HILLROY/BACK TO SCHOOL                                                                                                                                         
COMYTV   040801220824      000030SC JOHNSON/SKINTAMATE                                                                                                                                          
COMYTV   040801220854      000030P&G/2004 CORP NON PRE-EMPT                                                                                                                                     
COMYTV   040801220924      000030WHIRLPOOL CANADA                                                                                                                                               
COMYTV   040801221638      000015UNIVERSAL FILMS/THUNDERBIRDS15                                                                                                                                 
COMYTV   040801221653      000030HWY/ADULT CASH LOW DEMAND                                                                                                                                      
COMYTV   040801221723      000015HWY/ADULT CASH LOW DEMAND                                                                                                                                      
COMYTV   040801221738      000030K CLARK/KOTEX SUMMER RENEGOTIA                                                                                                                                 
COMYTV   040801221808      000030TORONTO ZOO/CORPORATE                                                                                                                                          
COMYTV   040801222419      000030K CLARK/HUGGIES :30 SUMMER REN                                                                                                                                 
COMYTV   040801222449      000030KRAFT/WM VARIOUS SUMMER 04                                                                                                                                     
COMYTV   040801222519      000030WHILPOOL/CONTINUITY 1692/WH/38                                                                                                                                 
COMYTV   040801222549      000030CADBURY CHOC/SOFT & CHEWY                                                                                                                                      
ID YTV   040801223010      000012STATION ID                                                                                                                                                     
PGRYTV   0408012230272300250029582030CE                                            FREE ROBBY  EPS 15                                MINDS YTV   C20363 1 35307ACC3                             
COMYTV   040801223305      000030SONY ENT/LITTLE BLACK BOOK                                                                                                                                     
COMYTV   040801223335      000030MCCAINS/CORPORATE AGREEMENT                                                                                                                                    
COMYTV   040801223405      000030SEARS/BONUS CONTRACT                                                                                                                                           
COMYTV   040801223435      000030P&G/2004 CORP PRE-EMPTIBLE                                                                                                                                     
COMYTV   040801224425      000030UNIVERSAL FILMS/THUNDERBIRDS                                                                                                                                   
COMYTV   040801224455      000015YTV/C PLUS-SUMMER PROMO                                                                                                                                        
COMYTV   040801224510      000030SEARS/FURNITURE/APPLIANCES SUM                                                                                                                                 
COMYTV   040801224540      000015HWY/ADULT BARTER LOW DEMAND                                                                                                                                    
COMYTV   040801224555      000030P&G/2004 CORP PRE-EMPTIBLE                                                                                                                                     
COMYTV   040801225642      000030MCCAINS/CORPORATE AGREEMENT                                                                                                                                    
COMYTV   040801225712      000030SEARS/FURNITURE/APPLIANCES SUM                                                                                                                                 
COMYTV   040801225742      000030MAPLE LEAF FOODS/SPEC HIGHLIGH                                                                                                                                 
COMYTV   040801225812      000030HIGHWAY ENTERTAINMENT                                                                                                                                          
PGRYTV   040801230025233340003315THUNDERBIRDS                                      PT1 - DAY OF DISASTER                                                3 38307GCC                              
SPOYTV   040801230159      000010PEPSICO/LIPTON BRISK TEEN BB                                                                                                                                   
COMYTV   040801230209      000030SONY ENT/LITTLE BLACK BOOK                                                                                                                                     
