PGRYTV   040401060000062603002603UH OH!                                            EPS 104                                                              1 311100CC                              
PRCYTV   040401060306      000030YTV PROMO CONTRACT                                                                                                                                             
PRCYTV   040401060336      000030YTV PROMO CONTRACT                                                                                                                                             
PRCYTV   040401061137      000030YTV PROMO CONTRACT                                                                                                                                             
PRCYTV   040401061732      000030YTV PROMO CONTRACT                                                                                                                                             
PRCYTV   040401061802      000030YTV PROMO CONTRACT                                                                                                                                             
INTYTV   040401062603063000000357CHIP 'N' ORBIT                                    EPISODE 8                                                            1 311120CC                              
ID YTV   040401062948      000012STATION ID                                                                                                                                                     
PGRYTV   040401063000065544002544STICKIN' AROUND                                   HOLD IT/JOURNEY EP15                              NELVANYTV   A10441 1 32107ECC                              
PRCYTV   040401063106      000030YTV PROMO CONTRACT                                                                                                                                             
PRCYTV   040401063136      000015YTV PROMO CONTRACT                                                                                                                                             
PRCYTV   040401064230      000030YTV PROMO CONTRACT                                                                                                                                             
PRCYTV   040401065339      000030YTV PROMO CONTRACT                                                                                                                                             
INTYTV   040401065544065844000300NANALAN'                                          NEW FRIEND EP39                                                      1 351120                                
INTYTV   040401065844070000000116DINGA                                             EPS 23                                                               7 381120                                
ID YTV   040401065948      000012STATION ID                                                                                                                                                     
PGRYTV   040401070000072602002602GEORGE SHRINKS                                    SPEED SHRINKS EP 25                               NELVAN             1 32107E                                
INTYTV   040401072602072846000244NELVANA INTERSTITIALS                             ALL'S QUIET ON MONSTER FRONT                                         1 321120                                
PRCYTV   040401072735      000030YTV PROMO CONTRACT                                                                                                                                             
PRCYTV   040401072805      000030YTV PROMO CONTRACT                                                                                                                                             
INTYTV   040401072846073000000114DINGA                                             EPS 24                                                               7 381120                                
ID YTV   040401072948      000012STATION ID                                                                                                                                                     
PGRYTV   040401073000075749002749WOODY WOODPECKER (NEW)                            MIRAGE/QUEEN/PARTY EP11                                              2 38307ECC                              
SPOYTV   040401073037      000010YTV/MATTEL FANTASY TALES PROMO                                                                                                                                 
COMYTV   040401073047      000015BANDAI/KNIGHTS OF THE ZODIAC                                                                                                                                   
COMYTV   040401073102      000030MATTEL/KIDS CORP SPRING04/#3                                                                                                                                   
COMYTV   040401073132      000015BINNEY&SMITH/CRAYOLA SPRING                                                                                                                                    
PRCYTV   040401073147      000030YTV PROMO CONTRACT                                                                                                                                             
PRCYTV   040401073217      000030YTV PROMO CONTRACT                                                                                                                                             
COMYTV   040401073938      000015HASBRO/PRE-FALL                                                                                                                                                
COMYTV   040401073953      000030MATTEL/BONUS CONTRACT                                                                                                                                          
COMYTV   040401074023      000030GEN.MILLS/03/04 P3 TRADITIONAL                                                                                                                                 
COMYTV   040401074053      000030MATTEL/KIDS CORP SPRING04/#3                                                                                                                                   
COMYTV   040401074123      000015HASBRO/PRE-FALL                                                                                                                                                
COMYTV   040401074829      000030BANDAI/POWER RANGERS                                                                                                                                           
COMYTV   040401074859      000030MATTEL/KIDS CORP SPRING04/#3                                                                                                                                   
PROYTV   040401074929      000030YTV PROMO CONTRACT                                                                                                                                             
PRCYTV   040401074959      000030YTV PROMO CONTRACT                                                                                                                                             
INTYTV   040401075749075849000100HOOTA & SNOZ                                      EPS 21                                                               7 383120                                
INTYTV   040401075849080000000111STICKIN' AROUND                                   THE GOOD, THE BAD, AND THE                                           1 323120CC                              
ID YTV   040401075948      000012STATION ID                                                                                                                                                     
PGRYTV   040401080000083000003000RUGRATS                                           GRANDPA'S BAD BUG/LADY LUCK                                          2 38307ECC                              
SPOYTV   040401080644      000010YTV/MATTEL FANTASY TALES PROMO                                                                                                                                 
COMYTV   040401080654      000030MATTEL/BONUS CONTRACT                                                                                                                                          
COMYTV   040401080724      000030YTV CRTVE MDIA/PARMALAT BD                                                                                                                                     
COMYTV   040401081313      000015BANDAI/KNIGHTS OF THE ZODIAC                                                                                                                                   
COMYTV   040401081328      000030GEN.MILLS/03/04 P3 TRADITIONAL                                                                                                                                 
COMYTV   040401081358      000030MATTEL/KIDS CORP SPRING04/#3                                                                                                                                   
COMYTV   040401081428      000015YTV MAGAZINE/YTV MAGAZINE                                                                                                                                      
COMYTV   040401081443      000030HASBRO/PRE-FALL                                                                                                                                                
PRCYTV   040401081513      000030YTV PROMO CONTRACT                                                                                                                                             
COMYTV   040401082254      000030MGA ENT/DOLLS BEST FRIENDS                                                                                                                                     
COMYTV   040401082324      000030KELLOGG/FROSTED FLAKES                                                                                                                                         
PRCYTV   040401082354      000030YTV PROMO CONTRACT                                                                                                                                             
PRCYTV   040401082424      000030YTV PROMO CONTRACT                                                                                                                                             
ID YTV   040401082948      000012STATION ID                                                                                                                                                     
PGRYTV   040401083000085331002331MONA THE VAMPIRE                                  VON KREEPSULA/COMPUTER EP2.                       FANCYCYTV   A18412 1 35107ECC                              
PGRYTV   040401085331090014000643ELLIOT MOOSE                                      THE MARSHMALLOW EXPRESS EP7                       NELVAN      A25733 1 32107GCC                              
ID YTV   040401090001      000012STATION ID                                                                                                                                                     
PGRYTV   040401090014092421002407RUPERT                                            APR - RUPERT AND THE APRIL                        NELVANYTV   P17298 1 32107ECC                              
INTYTV   040401092421092638000217NELVANA INTERSTITIALS                             THE WHOLE TOOTH                                                      1 321120                                
PRCYTV   040401092614      000015YTV PROMO CONTRACT                                                                                                                                             
INTYTV   040401092638092738000100STICKIN' AROUND                                   RUSSELL'S LUNCH                                                      1 321120CC                              
INTYTV   040401092738093000000222NELVANA INTERSTITIALS                             MONSTER TRASH                                                        1 321120                                
PRCYTV   040401092903      000030YTV PROMO CONTRACT                                                                                                                                             
PRCYTV   040401092933      000015YTV PROMO CONTRACT                                                                                                                                             
ID YTV   040401092948      000012STATION ID                                                                                                                                                     
PGRYTV   040401093000095348002348CARE BEARS SERIES                                 CAMP OUT/ROBOT HEART  EPS 7                       NELVAN      C06927 1 32107E                                
SPOYTV   040401095332      000010MCDONALDS/HAPPY MEAL                                                                                                                                           
INTYTV   040401095348095648000300NANALAN'                                          CLOUDS EP40                                                          1 351120                                
INTYTV   040401095648100000000312NANALAN'                                          WORM EP41                                                            1 351120                                
ID YTV   040401095948      000012STATION ID                                                                                                                                                     
PGRYTV   040401100000102733002733SEVEN LITTLE MONSTERS                             THE PLOOKY EP 11                                  NELVAN             1 32107ECC                              
PRCYTV   040401100725      000015YTV PROMO CONTRACT                                                                                                                                             
PRCYTV   040401101427      000015YTV PROMO CONTRACT                                                                                                                                             
PRCYTV   040401102044      000030YTV PROMO CONTRACT                                                                                                                                             
PGRYTV   040401102733103000000227EVERYDAY HEROES                                   ZOOTEK  EP 8                                                         1 311120                                
ID YTV   040401102948      000012STATION ID                                                                                                                                                     
PGRYTV   040401103000105318002318MONSTER BY MISTAKE                                KIDNAPPED EP10.                                   MONSTEYTV   A21774 1 35107ECC                              
PRCYTV   040401105303      000015YTV PROMO CONTRACT                                                                                                                                             
PGRYTV   040401105318110001000643ELLIOT MOOSE                                      PURPLE KNIGHT EP8                                 NELVAN      A25745 1 32107GCC                              
ID YTV   040401105948      000012STATION ID                                                                                                                                                     
PGRYTV   040401110001112528002527STICKIN' AROUND                                   LOOONG WEEKEND/ADIOS EP38                         NELVANYTV   A26973 1 32107ECC                              
PRCYTV   040401110106      000030YTV PROMO CONTRACT                                                                                                                                             
PRCYTV   040401111208      000030YTV PROMO CONTRACT                                                                                                                                             
PRCYTV   040401112323      000030YTV PROMO CONTRACT                                                                                                                                             
INTYTV   040401112528112647000119NELVANA INTERSTITIALS                             WIZ DUMB                                                             1 321120                                
INTYTV   040401112647113000000313NELVANA INTERSTITIALS                             CAMP UPPIDY                                                          1 321120                                
PRCYTV   040401112848      000030YTV PROMO CONTRACT                                                                                                                                             
PRCYTV   040401112918      000030YTV PROMO CONTRACT                                                                                                                                             
ID YTV   040401112948      000012STATION ID                                                                                                                                                     
PGRYTV   040401113000115210002210FLYING RHINO JUNIOR HIGH                          PHANTOMASTIC VOYAGE     EPS 24                    NELVAN             1 32107ECC                              
SPOYTV   040401115159      000010MCDONALDS/HAPPY MEAL                                                                                                                                           
INTYTV   040401115210115603000353NANALAN'                                          STRETCHING EP42                                                      1 351120                                
PRCYTV   040401115509      000030YTV PROMO CONTRACT                                                                                                                                             
PRCYTV   040401115539      000015YTV PROMO CONTRACT                                                                                                                                             
INTYTV   040401115603120000000357CHIP 'N' ORBIT                                    EPISODE 9                                                            1 311120CC                              
ID YTV   040401115948      000012STATION ID                                                                                                                                                     
PGRYTV   040401120000123000003000SPONGEBOB SQUAREPANTS                             APR - FOOLS/SPATULA E19                                              2 38307ECC                              
COMYTV   040401120049      000015BANDAI/KNIGHTS OF THE ZODIAC                                                                                                                                   
COMYTV   040401120104      000030MATTEL/BONUS CONTRACT                                                                                                                                          
COMYTV   040401120134      000015BINNEY&SMITH/CRAYOLA SPRING                                                                                                                                    
PRCYTV   040401120149      000030YTV PROMO CONTRACT                                                                                                                                             
PRCYTV   040401120219      000015YTV PROMO CONTRACT                                                                                                                                             
COMYTV   040401121341      000030KELLOGG/FROSTED FLAKES                                                                                                                                         
COMYTV   040401121411      000030MATTEL/KIDS CORP SPRING04/#3                                                                                                                                   
COMYTV   040401121441      000030GEN.MILLS/03/04 P3 TRADITIONAL                                                                                                                                 
COMYTV   040401121511      000030MATTEL/KIDS CORP SPRING04/#3                                                                                                                                   
COMYTV   040401122703      000015HASBRO/PRE-FALL                                                                                                                                                
COMYTV   040401122718      000030TOPP'S/JUICY DROP CHEWS/BABY B                                                                                                                                 
COMYTV   040401122748      000015HASBRO/PRE-FALL                                                                                                                                                
PROYTV   040401122803      000030YTV PROMO CONTRACT                                                                                                                                             
PRCYTV   040401122833      000030YTV PROMO CONTRACT                                                                                                                                             
ID YTV   040401122948      000012STATION ID                                                                                                                                                     
PGRYTV   040401123000125425002425HAMTARO                                           LAURA IS REALLY GONE!   EPS 55                                D02043 7 38307E  2                             
COMYTV   040401123114      000030BANDAI/POWER RANGERS                                                                                                                                           
COMYTV   040401123144      000030GEN.MILLS/03/04 P3 TRADITIONAL                                                                                                                                 
COMYTV   040401123810      000015YTV/20TH CENT HV/CHPR BY DOZEN                                                                                                                                 
COMYTV   040401123825      000030HASBRO/HEAVY UP                                                                                                                                                
COMYTV   040401123855      000030KELLOGG/RICE KRISPIES                                                                                                                                          
COMYTV   040401123925      000015I TOYS/I TOP                                                                                                                                                   
COMYTV   040401123940      000030MATTEL/BONUS CONTRACT                                                                                                                                          
COMYTV   040401124639      000030BANDAI/STRAWBERRY SHORTCAKE                                                                                                                                    
COMYTV   040401124709      000030MATTEL/KIDS CORP SPRING04/#3                                                                                                                                   
PGRYTV   040401125425130000000535PINGU                                             PINGU DREAMS              EP26                                       3 18107E                                
ID YTV   040401125948      000012STATION ID                                                                                                                                                     
PGRYTV   040401130000132247002247CARE BEARS                                        SPR-CARING FOR SPRING  EPS 26                     NELVAN      C07540 1 32107E                                
PRCYTV   040401132123      000030YTV PROMO CONTRACT                                                                                                                                             
PRCYTV   040401132153      000030YTV PROMO CONTRACT                                                                                                                                             
PRCYTV   040401132223      000015YTV PROMO CONTRACT                                                                                                                                             
INTYTV   040401132247132647000400NANALAN'                                          POTATO BUG EP43                                                      1 351120                                
PRCYTV   040401132547      000030YTV PROMO CONTRACT                                                                                                                                             
PRCYTV   040401132617      000030YTV PROMO CONTRACT                                                                                                                                             
INTYTV   040401132647133000000313NANALAN'                                          HOSE EP44                                                            1 351120                                
ID YTV   040401132948      000012STATION ID                                                                                                                                                     
PGRYTV   040401133000135602002602GEORGE SHRINKS                                    SPEED SHRINKS EP 25                               NELVAN             1 32107E                                
INTYTV   040401135602135845000243NELVANA INTERSTITIALS                             MISSION IMPROBIBLE                                                   1 321120                                
PRCYTV   040401135749      000030YTV PROMO CONTRACT                                                                                                                                             
PRCYTV   040401135819      000015YTV PROMO CONTRACT                                                                                                                                             
INTYTV   040401135845140000000115DINGA                                             EPS 25                                                               7 381120                                
ID YTV   040401135948      000012STATION ID                                                                                                                                                     
PGRYTV   040401140000142338002338MONA THE VAMPIRE                                  WITCH WATCH/HEXED MANSION  32.                    CINAR YTV   A68341 1 35107ECC                              
INTYTV   040401142338142848000510CHIP 'N' ORBIT                                    EPISODE 10                                                           1 311120CC                              
PRCYTV   040401142723      000030YTV PROMO CONTRACT                                                                                                                                             
PRCYTV   040401142753      000030YTV PROMO CONTRACT                                                                                                                                             
PRCYTV   040401142823      000015YTV PROMO CONTRACT                                                                                                                                             
INTYTV   040401142848143000000112STICKIN' AROUND                                   THIS IS A HICCUP!                                                    1 321120CC                              
ID YTV   040401142948      000012STATION ID                                                                                                                                                     
PGRYTV   040401143000145411002411D'MYNA LEAGUES                                    WHO DO VOODOO?    EPS 12 (PS)                     D'MYNAYTV   A40246 1 35107ECC                              
PRCYTV   040401145246      000030YTV PROMO CONTRACT                                                                                                                                             
PRCYTV   040401145316      000015YTV PROMO CONTRACT                                                                                                                                             
PROYTV   040401145331      000030YTV PROMO CONTRACT                                                                                                                                             
INTYTV   040401145411145757000346CHIP 'N' ORBIT                                    EPISODE 11                                                           1 311120CC                              
PGRYTV   040401145757150000000203EVERYDAY HEROES                                   COMPOST WORM  EP 9                                                   1 311120                                
PGRYTV   040401150000152843002843POKEMON                                           A CLAIM TO FLAME        EP 264                                       7 38307ECC                              
COMYTV   040401150213      000030BANDAI/POWER RANGERS                                                                                                                                           
COMYTV   040401150243      000030MATTEL/KIDS CORP SPRING04/#3                                                                                                                                   
PRCYTV   040401150313      000030YTV PROMO CONTRACT                                                                                                                                             
PRCYTV   040401150343      000030YTV PROMO CONTRACT                                                                                                                                             
COMYTV   040401151408      000030SPIN MASTER TOYS/TMNT                                                                                                                                          
COMYTV   040401151438      000030YTV CRTVE MDIA/PARMALAT BD                                                                                                                                     
COMYTV   040401151508      000030KRAFT/KID P1 :30'S                                                                                                                                             
COMYTV   040401151538      000030MATTEL/KIDS CORP SPRING04/#3                                                                                                                                   
PRCYTV   040401151608      000030YTV PROMO CONTRACT                                                                                                                                             
PRCYTV   040401151638      000015YTV PROMO CONTRACT                                                                                                                                             
COMYTV   040401152411      000015BANDAI/KNIGHTS OF THE ZODIAC                                                                                                                                   
COMYTV   040401152426      000030GEN.MILLS/03/04 P3 TRADITIONAL                                                                                                                                 
COMYTV   040401152456      000015HASBRO/PRE-FALL                                                                                                                                                
PRCYTV   040401152511      000030YTV PROMO CONTRACT                                                                                                                                             
PRCYTV   040401152541      000030YTV PROMO CONTRACT                                                                                                                                             
INTYTV   040401152843153000000117ANIME MINUTES                                     EPS 35                                                               1 313120                                
PGRYTV   040401153000155817002817WILD THORNBERRYS                                  APR - APRIL FOOLS DAY  EPS 63                                        2 38307ECC                              
COMYTV   040401153955      000030VAN MELLE/AIRHEADS                                                                                                                                             
COMYTV   040401154025      000030MATTEL/KIDS CORP SPRING04/#3                                                                                                                                   
PRCYTV   040401154055      000015YTV PROMO CONTRACT                                                                                                                                             
COMYTV   040401154722      000030ALLIANCE/ELLA ENCHANTED                                                                                                                                        
COMYTV   040401154752      000030TOPP/JUICY DROP POP/PUSH POPS                                                                                                                                  
COMYTV   040401154822      000030MATTEL/KIDS CORP SPRING04/#3                                                                                                                                   
COMYTV   040401154852      000030KELLOGG/FROSTED FLAKES                                                                                                                                         
COMYTV   040401155632      000015BINNEY&SMITH/CRAYOLA SPRING                                                                                                                                    
COMYTV   040401155647      000030GEN.MILLS/03/04 P3 TRADITIONAL                                                                                                                                 
COMYTV   040401155717      000015HASBRO/HEAVY UP                                                                                                                                                
INTYTV   040401155817160000000143PROGRAM JOCKEY                                    PROGRAM JOCKEY                                                       1 213120                                
PGRYTV   040401160000162820002820AS TOLD BY GINGER                                 APR - APRIL FOOLS  EPS 31                                            2 38307ECC                              
SPOYTV   040401160051      000010WRIGLEY/HUBBA BUBBA P1                                                                                                                                         
COMYTV   040401160101      000015HASBRO/HEAVY UP                                                                                                                                                
COMYTV   040401160116      000030WRIGLEY/HUBBA BUBBA P1                                                                                                                                         
COMYTV   040401160146      000015HASBRO/PRE-FALL                                                                                                                                                
COMYTV   040401161110      000030BVHV/BROTHER BEAR DVD 30'S                                                                                                                                     
COMYTV   040401161140      000015I TOYS/I TOP                                                                                                                                                   
COMYTV   040401161155      000030TOPP'S/JUICY DROP CHEWS/BABY B                                                                                                                                 
COMYTV   040401161225      000015HASBRO/PRE-FALL                                                                                                                                                
COMYTV   040401161240      000030MATTEL/KIDS CORP SPRING04/#3                                                                                                                                   
COMYTV   040401161901      000030HASBRO/HEAVY UP                                                                                                                                                
COMYTV   040401161931      000030BANDAI/POWER RANGERS                                                                                                                                           
INTYTV   040401162820163000000140PROGRAM JOCKEY                                    PROGRAM JOCKEY                                                       1 213120                                
ID YTV   040401162948      000012STATION ID                                                                                                                                                     
PGRYTV   040401163000165818002818ALL GROWN UP                                      APR FOOLS - TOMMY FOOLERY EP11                                       2 28307ECC                              
SPOYTV   040401163725      000010YTV/MATTEL FANTASY TALES PROMO                                                                                                                                 
COMYTV   040401163735      000015BVP/HOME ON THE RANGE 15'S                                                                                                                                     
COMYTV   040401163750      000015HASBRO/HEAVY UP                                                                                                                                                
COMYTV   040401163805      000015TOPP'S/RING POPS                                                                                                                                               
COMYTV   040401163820      000015SPIN MSTR TOYS/MIGHTY BEANZ 15                                                                                                                                 
COMYTV   040401164657      000030BVHV/BROTHER BEAR DVD 30'S                                                                                                                                     
COMYTV   040401164727      000030ZAPF/CHOU CHOU/ROCK-A-BYE CHOU                                                                                                                                 
COMYTV   040401164757      000030GEN.MILLS/03/04 P3 TRADITIONAL                                                                                                                                 
COMYTV   040401164827      000030MATTEL/KIDS CORP SPRING04/#3                                                                                                                                   
COMYTV   040401165633      000030ALLIANCE/ELLA ENCHANTED                                                                                                                                        
COMYTV   040401165703      000030MATTEL/KIDS CORP SPRING04/#3                                                                                                                                   
INTYTV   040401165818170000000142PROGRAM JOCKEY                                    PROGRAM JOCKEY                                                       1 213120                                
PGRYTV   040401170000172719002719YU-GI-OH                                          BURYING THE PAST - PT 2                                              7 28307ECC                              
SPOYTV   040401170712      000010YTV/MATTEL FANTASY TALES PROMO                                                                                                                                 
COMYTV   040401170722      000015SPIN MSTR TOYS/MIGHTY BEANZ 15                                                                                                                                 
COMYTV   040401170737      000030GEN.MILLS/03/04 P3 TRADITIONAL                                                                                                                                 
COMYTV   040401170807      000015BANDAI/KNIGHTS OF THE ZODIAC                                                                                                                                   
COMYTV   040401171248      000015WARNER BROS/SCOOBY DOO 2                                                                                                                                       
COMYTV   040401171303      000030YTV CRTVE MDIA/PARMALAT BD                                                                                                                                     
COMYTV   040401171333      000015BANDAI/KNIGHTS OF THE ZODIAC                                                                                                                                   
COMYTV   040401171348      000030KELLOGG/FROSTED FLAKES                                                                                                                                         
COMYTV   040401171418      000030VAN MELLE/AIRHEADS                                                                                                                                             
COMYTV   040401171922      000030HASBRO/PRE-FALL                                                                                                                                                
COMYTV   040401171952      000030MATTEL/KIDS CORP SPRING04/#3                                                                                                                                   
PRCYTV   040401172022      000030YTV PROMO CONTRACT                                                                                                                                             
PROYTV   040401172052      000030YTV PROMO CONTRACT                                                                                                                                             
INTYTV   040401172719173000000241PROGRAM JOCKEY                                    PROGRAM JOCKEY                                                       1 213120                                
PGRYTV   040401173000175710002710BEYBLADE                                          WHEN IN ROME...  EPS 35                                       D02016 7 38307ECC2                             
COMYTV   040401173615      000015WARNER BROS/SCOOBY DOO 2                                                                                                                                       
COMYTV   040401173630      000030KRAFT/KID P1 :30'S                                                                                                                                             
COMYTV   040401173700      000015BIG TIME TOYS/CORPORATE                                                                                                                                        
PRCYTV   040401173715      000015YTV PROMO CONTRACT                                                                                                                                             
COMYTV   040401174214      000030HASBRO/HEAVY UP                                                                                                                                                
COMYTV   040401174244      000030SPIN MASTER TOYS/BUBLE WAND 30                                                                                                                                 
COMYTV   040401174314      000030GEN.MILLS/03/04 P3 TRADITIONAL                                                                                                                                 
COMYTV   040401174344      000030MATTEL/KIDS CORP SPRING04/#3                                                                                                                                   
COMYTV   040401174950      000030SUN-RYPE/SPRING-FALL 2004                                                                                                                                      
COMYTV   040401175020      000030BANDAI/STRAWBERRY SHORTCAKE                                                                                                                                    
PROYTV   040401175050      000030YTV PROMO CONTRACT                                                                                                                                             
PRCYTV   040401175120      000030YTV PROMO CONTRACT                                                                                                                                             
INTYTV   040401175710180000000250PROGRAM JOCKEY                                    PROGRAM JOCKEY                                                       1 213120                                
PGRYTV   040401180000183026003026SPONGEBOB SQUAREPANTS                             APR - FOOLS/SPATULA E19                                              2 38307ECC                              
SPOYTV   040401180049      000010KRAFT/KOOK AID JAMMERS                                                                                                                                         
COMYTV   040401180059      000015PARAMOUNT/TH PRINCE AND ME                                                                                                                                     
COMYTV   040401180114      000030GEN.MILLS/03/04 P3 KIDS ISO                                                                                                                                    
COMYTV   040401180144      000015BINNEY&SMITH/CRAYOLA SPRING                                                                                                                                    
COMYTV   040401180159      000030KELLOGG/RICE KRISPIES                                                                                                                                          
COMYTV   040401180229      000030MATTEL/KIDS CORP SPRING04/#3                                                                                                                                   
COMYTV   040401181406      000015WARNER BROS/SCOOBY DOO 2                                                                                                                                       
COMYTV   040401181421      000015HASBRO/TRIVIA PURSUIT POP DVD                                                                                                                                  
COMYTV   040401181436      000030KELLOGG/FROSTED FLAKES                                                                                                                                         
COMYTV   040401181506      000030ZAPF/CHOU CHOU/BABY ANNABELL                                                                                                                                   
COMYTV   040401181536      000030HWY/ADULT CASH HIGH DEM SPRING                                                                                                                                 
COMYTV   040401182728      000015BVHV/BROTHER BEAR 15'S                                                                                                                                         
COMYTV   040401182743      000030KRAFT/KID P1 :30'S                                                                                                                                             
COMYTV   040401182813      000015HASBRO/PRE-FALL                                                                                                                                                
COMYTV   040401182828      000030KRAFT/CHEEZ WHIZ                                                                                                                                               
COMYTV   040401182858      000030DYNA/SMELLY BELLY'S/AQUAPETS                                                                                                                                   
ID YTV   040401183013      000012STATION ID                                                                                                                                                     
PGRYTV   040401183026190006002940JIMMY NEUTRON                                     EGGPIRE STRIKES BACK-PT1  EP16                                       2 38307ECC                              
SPOYTV   040401183106      000010KRAFT/KOOK AID JAMMERS                                                                                                                                         
COMYTV   040401183116      000015BINNEY&SMITH/CRAYOLA SPRING                                                                                                                                    
COMYTV   040401183131      000030KRAFT/HEAVY-UP WOMEN                                                                                                                                           
COMYTV   040401183201      000030K CLARK/HUGGIES :30'S ALONE                                                                                                                                    
COMYTV   040401183231      000015HASBRO/TRIVIA PURSUIT POP DVD                                                                                                                                  
COMYTV   040401183246      000030KRAFT/HEAVY-UP WOMEN                                                                                                                                           
COMYTV   040401184351      000015KRAFT/COOL WHIP                                                                                                                                                
COMYTV   040401184406      000030WRIGLEY/HUBBA BUBBA P1                                                                                                                                         
COMYTV   040401184436      000030MATTEL/WOMEN VARIOUS 10PTS/WK                                                                                                                                  
COMYTV   040401184506      000030GEN.MILLS/PIZZA POPS                                                                                                                                           
COMYTV   040401184536      000015KRAFT/PEAK FREANS :15'S                                                                                                                                        
COMYTV   040401185709      000030KRAFT/CHEEZ WHIZ                                                                                                                                               
COMYTV   040401185739      000030I TOYS/I TOP/DOODLE WRITER                                                                                                                                     
COMYTV   040401185809      000030MATTEL/KIDS CORP SPRING04/#3                                                                                                                                   
COMYTV   040401185839      000030KRAFT/HEAVY-UP WOMEN                                                                                                                                           
ID YTV   040401185954      000012STATION ID                                                                                                                                                     
PGRYTV   040401190006193029003023MY LIFE AS A TEENAGE ROBOT                        WONDERFUL WORLD OF.../CALL...                                        2 28307ECC                              
SPOYTV   040401190047      000010YTV/MATTEL FANTASY TALES PROMO                                                                                                                                 
COMYTV   040401190057      000015HASBRO/HEAVY UP                                                                                                                                                
COMYTV   040401190112      000100KUMON NA/INTRODUCTION                                                                                                                                          
COMYTV   040401190212      000015HASBRO/PRE-FALL                                                                                                                                                
COMYTV   040401190227      000030MATTEL/KIDS CORP SPRING04/#3                                                                                                                                   
COMYTV   040401191413      000030KRAFT/HEAVY-UP WOMEN                                                                                                                                           
COMYTV   040401191443      000030MATTEL/KIDS CORP SPRING04/#3                                                                                                                                   
COMYTV   040401191513      000100P&G/CORPORATE-PRE-EMPTIBLE                                                                                                                                     
COMYTV   040401192729      000015BVP/HOME ON THE RANGE 15'S                                                                                                                                     
COMYTV   040401192744      000030HASBRO/HEAVY UP                                                                                                                                                
COMYTV   040401192814      000030TOPP'S/JUICY DROP CHEWS/BABY B                                                                                                                                 
COMYTV   040401192844      000030MATTEL/KIDS CORP SPRING04/#3                                                                                                                                   
COMYTV   040401192914      000015HASBRO/PRE-FALL                                                                                                                                                
ID YTV   040401193014      000012STATION ID                                                                                                                                                     
PGRYTV   040401193029200043003014YVON OF THE YUKON                                 TIME TWERP          EPS 41                        YVON  YTV   A77143 1 35307ECC                              
SPOYTV   040401194017      000010YTV/MATTEL FANTASY TALES PROMO                                                                                                                                 
COMYTV   040401194027      000015I TOYS/I TOP                                                                                                                                                   
COMYTV   040401194042      000100KUMON NA/INTRODUCTION                                                                                                                                          
COMYTV   040401194142      000030HASBRO/HEAVY UP                                                                                                                                                
COMYTV   040401194212      000015BINNEY&SMITH/CRAYOLA SPRING                                                                                                                                    
COMYTV   040401194845      000015HASBRO/PRE-FALL                                                                                                                                                
COMYTV   040401194900      000015GLAX/SKB/AQUAFRESH X CLEAN3073                                                                                                                                 
COMYTV   040401194915      000030MATTEL/KIDS CORP SPRING04/#3                                                                                                                                   
COMYTV   040401194945      000100P&G/CORPORATE-PRE-EMPTIBLE                                                                                                                                     
COMYTV   040401195757      000030GEN.MILLS/03/04 P3 TRADITIONAL                                                                                                                                 
COMYTV   040401195827      000030SPIN MASTER TOYS/TMNT                                                                                                                                          
COMYTV   040401195857      000030KELLOGG/FROOT LOOPS                                                                                                                                            
COMYTV   040401195927      000030MATTEL/KIDS CORP SPRING04/#3                                                                                                                                   
ID YTV   040401200027      000012STATION ID                                                                                                                                                     
PGRYTV   040401200043203001002918DRAGON BALL                                       OOLONG THE TERRIBLE!     EPS 4                                D02587 7 38307ECC2                             
COMYTV   040401200144      000030HWY/ADULT CASH HIGH DEM SPRING                                                                                                                                 
COMYTV   040401200214      000030SONY CONSUMER/PLAYSTATION CLSC                                                                                                                                 
COMYTV   040401200244      000030KRAFT/KID P1 :30'S                                                                                                                                             
COMYTV   040401200314      000030MATTEL/KIDS CORP SPRING04/#3                                                                                                                                   
PRCYTV   040401200344      000015YTV PROMO CONTRACT                                                                                                                                             
COMYTV   040401201759      000015SONY VIDEO/THE SWAN PRINCESS                                                                                                                                   
COMYTV   040401201814      000030KRAFT/HEAVY-UP WOMEN                                                                                                                                           
COMYTV   040401201844      000030MATTEL/KIDS CORP SPRING04/#3                                                                                                                                   
COMYTV   040401201914      000030NESTLE/SMARTIES                                                                                                                                                
COMYTV   040401201944      000015HASBRO/PRE-FALL                                                                                                                                                
PRCYTV   040401201959      000030YTV PROMO CONTRACT                                                                                                                                             
COMYTV   040401202548      000030GEN.MILLS/03/04 P3 TRADITIONAL                                                                                                                                 
COMYTV   040401202618      000030MATTEL/KIDS CORP SPRING04/#3                                                                                                                                   
COMYTV   040401202648      000030YTV CRTVE MDIA/PARMALAT BD                                                                                                                                     
COMYTV   040401202718      000030SONY CONSUMER/PLAYSTATION CLSC                                                                                                                                 
PRCYTV   040401202748      000030YTV PROMO CONTRACT                                                                                                                                             
PRCYTV   040401202818      000030YTV PROMO CONTRACT                                                                                                                                             
ID YTV   040401202948      000012STATION ID                                                                                                                                                     
PGRYTV   040401203001210005003004DRAGON BALL Z                                     FOLLOW DR. GERO EP117                                         D01860 7 38307ECC2                             
COMYTV   040401203106      000015PARAMOUNT/TH PRINCE AND ME                                                                                                                                     
COMYTV   040401203121      000030KRAFT/HEAVY-UP WOMEN                                                                                                                                           
COMYTV   040401203151      000030NINTENDO/POKEMON GAME CUBE COL                                                                                                                                 
COMYTV   040401203221      000030TOPP/JUICY DROP POP/PUSH POPS                                                                                                                                  
COMYTV   040401203251      000015HWY/ADULT BARTER HIGH DEM SPR                                                                                                                                  
PRCYTV   040401203306      000030YTV PROMO CONTRACT                                                                                                                                             
COMYTV   040401204149      000030SONY ENT/THIRTEEN GOING ON 30                                                                                                                                  
COMYTV   040401204219      000030MATTEL/KIDS CORP SPRING04/#3                                                                                                                                   
COMYTV   040401204249      000030GEN.MILLS/03/04 P3 TRADITIONAL                                                                                                                                 
COMYTV   040401204319      000030MATTEL/KIDS CORP SPRING04/#3                                                                                                                                   
PRCYTV   040401204349      000030YTV PROMO CONTRACT                                                                                                                                             
COMYTV   040401205549      000030GEN MOTORS/VARIOUS                                                                                                                                             
COMYTV   040401205619      000015YTV/20TH CENT HV/CHPR BY DOZEN                                                                                                                                 
COMYTV   040401205634      000030PEPSICO/PEPSI BRANDS                                                                                                                                           
COMYTV   040401205704      000015HASBRO/PRE-FALL                                                                                                                                                
COMYTV   040401205719      000030KRAFT/HEAVY-UP ADULT                                                                                                                                           
PRCYTV   040401205749      000030YTV PROMO CONTRACT                                                                                                                                             
PRCYTV   040401205819      000030YTV PROMO CONTRACT                                                                                                                                             
ID YTV   040401205948      000012STATION ID                                                                                                                                                     
SPOYTV   040401210000      000005K CLARK/KOTEX REVISED SCHEDULE                                                                                                                                 
PGRYTV   040401210005213014003009RADIO ACTIVE ( III)(#53-78)                       THE RATINGS WAR EP70                              TELEACYTV   C16978 1 35307BCC                              
COMYTV   040401210908      000015PLAYTEX/TAMPONS :15'S                                                                                                                                          
COMYTV   040401210923      000015LA-Z-BOY CANADA                                                                                                                                                
COMYTV   040401210938      000100PRIMUS CANADA                                                                                                                                                  
COMYTV   040401211038      000030SONY CONSUMER/PLAYSTATION CLSC                                                                                                                                 
COMYTV   040401211701      000015KRAFT/COOL WHIP                                                                                                                                                
COMYTV   040401211716      000030K CLARK/HUGGIES ALONE 22 WKS                                                                                                                                   
COMYTV   040401211746      000100SYLVAN LEARNING/SPRING CORP                                                                                                                                    
COMYTV   040401211846      000015K CLARK/KOTEX REVISED SCHEDULE                                                                                                                                 
COMYTV   040401212609      000015HWY/ADULT BARTER HIGH DEM SPR                                                                                                                                  
COMYTV   040401212624      000015K CLARK/BABY WIPES 15'S                                                                                                                                        
COMYTV   040401212639      000030MR. LUBE                                                                                                                                                       
COMYTV   040401212709      000100P&G/CORPORATE-PRE-EMPTIBLE                                                                                                                                     
ID YTV   040401212957      000012STATION ID                                                                                                                                                     
SPOYTV   040401213009      000005K CLARK/HUGGIES :30'S ALONE                                                                                                                                    
PGRYTV   040401213014220018003004MENTAL BLOCK                                      DANGER BOY                EP16                    ZONE 3YTV   C22323 1 35307ACC3                             
COMYTV   040401213356      000030ALLIANCE/ELLA ENCHANTED                                                                                                                                        
COMYTV   040401213426      000015HWY/ADULT BARTER HIGH DEM SPR                                                                                                                                  
COMYTV   040401213441      000100PRIMUS CANADA                                                                                                                                                  
COMYTV   040401213541      000015K CLARK/KOTEX REVISED SCHEDULE                                                                                                                                 
COMYTV   040401214535      00003020TH CENT VIDEO/CHPR BY THE DZ                                                                                                                                 
COMYTV   040401214605      000100BELL CANADA/SYMPATICO DR                                                                                                                                       
COMYTV   040401214705      000030MAPLE LEAF FOODS/SPEC HIGHLIGH                                                                                                                                 
COMYTV   040401215529      000015PLAYTEX/TAMPONS :15'S                                                                                                                                          
COMYTV   040401215544      000030K CLARK/HUGGIES :30'S ALONE                                                                                                                                    
COMYTV   040401215614      000100KUMON NA/INTRODUCTION                                                                                                                                          
COMYTV   040401215714      000015K CLARK/KOTEX REVISED SCHEDULE                                                                                                                                 
ID YTV   040401220005      000012STATION ID                                                                                                                                                     
PGRYTV   040401220018223022003004READY OR NOT (III)(#40-52)                        HEROES                  EPS 49                    INSIGH      C12986 1 35307ACC                              
COMYTV   040401220342      00003020TH CENT VIDEO/CHPR BY THE DZ                                                                                                                                 
COMYTV   040401220412      0000153M/NEXCARE - 3087*NX*01                                                                                                                                        
COMYTV   040401220427      000100PRIMUS CANADA                                                                                                                                                  
COMYTV   040401220527      000015K CLARK/KOTEX REVISED SCHEDULE                                                                                                                                 
COMYTV   040401221147      000030GLAXO/SMITH/BEECH/SENSODYNE                                                                                                                                    
COMYTV   040401221217      000015J&J/CAREFREE                                                                                                                                                   
COMYTV   040401221232      000100SYLVAN LEARNING/SPRING CORP                                                                                                                                    
COMYTV   040401221332      000015SCOTT PAPER/SCOT TOWELS                                                                                                                                        
COMYTV   040401222439      000030SONY ENT/THIRTEEN GOING ON 30                                                                                                                                  
COMYTV   040401222509      000015MATTEL/WN VARIOUS HEAVY UP15'S                                                                                                                                 
COMYTV   040401222524      000100PRIMUS CANADA                                                                                                                                                  
COMYTV   040401222624      000015CHURCH & DWIGHT/CARPET                                                                                                                                         
ID YTV   040401223009      000012STATION ID                                                                                                                                                     
PGRYTV   040401223022230000002938BIG WOLF ON CAMPUS                                BABY ON BOARD  EPS 57                             TELESC      C21967 1 35307BCC                              
COMYTV   040401223832      00003020TH CENT VIDEO/CHPR BY THE DZ                                                                                                                                 
COMYTV   040401223902      000100SYLVAN LEARNING/SPRING CORP                                                                                                                                    
COMYTV   040401224002      000030SONY CONSUMER/PLAYSTATION CLSC                                                                                                                                 
PRCYTV   040401224032      000030YTV PROMO CONTRACT                                                                                                                                             
COMYTV   040401224737      000030EFFEM/PED-HEALTHY VITALITY-DRY                                                                                                                                 
COMYTV   040401224807      000100BELL CANADA/SYMPATICO DR                                                                                                                                       
COMYTV   040401224907      000030PLAYTEX/TAMPONS                                                                                                                                                
PRCYTV   040401224937      000015YTV PROMO CONTRACT                                                                                                                                             
PRCYTV   040401224952      000030YTV PROMO CONTRACT                                                                                                                                             
COMYTV   040401225557      000015HWY/ADULT BARTER HIGH DEM SPR                                                                                                                                  
COMYTV   040401225612      000030SONY CONSUMER/PLAYSTATION CLSC                                                                                                                                 
COMYTV   040401225642      000100PRIMUS CANADA                                                                                                                                                  
COMYTV   040401225742      000015K CLARK/KOTEX REVISED SCHEDULE                                                                                                                                 
PRCYTV   040401225757      000030YTV PROMO CONTRACT                                                                                                                                             
ID YTV   040401225948      000012STATION ID                                                                                                                                                     
PGRYTV   040401230000233000003000ADDAMS FAMILY: THE SERIES (#1-65)                 FESTER, THE MARRIAGE EP53                         AFS         C15097 1 35307BCC                              
COMYTV   040401230152      000015LA-Z-BOY CANADA LTD.                                                                                                                                           
COMYTV   040401230207      000030KRAFT/HEAVY-UP ADULT                                                                                                                                           
COMYTV   040401230237      000015HASBRO/TRIVIA PURSUIT POP DVD                                                                                                                                  
COMYTV   040401230252      000100P&G/CORPORATE BASE 52 WEEK                                                                                                                                     
PRCYTV   040401230352      000015YTV PROMO CONTRACT                                                                                                                                             
COMYTV   040401230925      000015GLAX/SKB/AQUAFRESH X CLEAN3073                                                                                                                                 
COMYTV   040401230940      000100PRIMUS CANADA                                                                                                                                                  
COMYTV   040401231040      000030HWY/ADULT CASH HIGH DEM SPRING                                                                                                                                 
COMYTV   040401231110      000015K CLARK/KOTEX REVISED SCHEDULE                                                                                                                                 
PRCYTV   040401231125      000030YTV PROMO CONTRACT                                                                                                                                             
COMYTV   040401231826      000030MR.LUBE/SPRING-3272-TV-05                                                                                                                                      
COMYTV   040401231856      000030PARMALAT/ASTRO YGURT 3059-AS07                                                                                                                                 
COMYTV   040401231926      000030SONY CONSUMER/PLAYSTATION CLSC                                                                                                                                 
COMYTV   040401231956      000030KRAFT/CHEEZ WHIZ                                                                                                                                               
PRCYTV   040401232026      000030YTV PROMO CONTRACT                                                                                                                                             
ID YTV   040401232948      000012STATION ID                                                                                                                                                     
PGRYTV   0404012330000007440037442 POINT 4 CHILDREN                                SATURDAY NIGHT/SUNDAY MORNING                                        3 38807BCC                              
COMYTV   040401233726      000030WALMART/DISNEY DVD/BROTHR BEAR                                                                                                                                 
COMYTV   040401233756      000030CLOROX/GLAD WASTE :30'S                                                                                                                                        
COMYTV   040401233826      000015MATTEL/WN VARIOUS HEAVY UP15'S                                                                                                                                 
COMYTV   040401233841      000030SCHNEI/MICHELINA'S BOWLS*3022*                                                                                                                                 
COMYTV   040401233911      000015K CLARK/KOTEX REVISED SCHEDULE                                                                                                                                 
COMYTV   040401234822      0000153M/NEXCARE - 3087*NX*01                                                                                                                                        
COMYTV   040401234837      000030KRAFT/CHEEZ WHIZ                                                                                                                                               
COMYTV   040401234907      000030MR.LUBE/SPRING-3272-TV-05                                                                                                                                      
COMYTV   040401234937      000030CLOROX/GLAD WASTE :30'S                                                                                                                                        
COMYTV   040401235007      000015K CLARK/KOTEX REVISED SCHEDULE                                                                                                                                 
COMYTV   040401235951      00003020TH CENT VIDEO/CHPR BY THE DZ                                                                                                                                 
COMYTV   040401000021      000030UNILEVER/LIPTON SIDEKICKS                                                                                                                                      
COMYTV   040401000051      000030CLOROX/PINE-SOL :30'S                                                                                                                                          
COMYTV   040401000121      000030KRAFT/HEAVY-UP WOMEN                                                                                                                                           
COMYTV   040401000532      000030MAPLE LEAF FOODS/SPEC HIGHLIGH                                                                                                                                 
COMYTV   040401000602      000030KRAFT/HEAVY-UP ADULT                                                                                                                                           
COMYTV   040401000632      000100P&G/CORPORATE BASE 52 WEEK                                                                                                                                     
PGRYTV   040401000744004042003258ARE YOU BEING SERVED?                             IT PAYS TO ADVERTISE                                                 3 38807BCC                              
COMYTV   040401001532      00003020TH CENT VIDEO/CHPR BY THE DZ                                                                                                                                 
COMYTV   040401001602      000015MATTEL/WN VARIOUS HEAVY UP15'S                                                                                                                                 
COMYTV   040401001617      000030PARMALAT/ASTRO YGURT 3059-AS07                                                                                                                                 
COMYTV   040401001647      000030ZELLERS/HILLARY DUFF CLOTHING                                                                                                                                  
COMYTV   040401001717      000015KRAFT/PEAK FREANS :15'S                                                                                                                                        
COMYTV   040401002431      000030WALMART/DISNEY DVD/BROTHR BEAR                                                                                                                                 
COMYTV   040401002501      000015HASBRO/TRIVIA PURSUIT POP DVD                                                                                                                                  
COMYTV   040401002516      000030SCHNEI/MICHELINA'S BOWLS*3022*                                                                                                                                 
COMYTV   040401002546      000030MATTEL/WOMEN VARIOUS 10PTS/WK                                                                                                                                  
COMYTV   040401002616      000030KRAFT/HEAVY-UP WOMEN                                                                                                                                           
COMYTV   040401002646      000015MATTEL/WN VARIOUS HEAVY UP15'S                                                                                                                                 
COMYTV   040401003149      000030GEN MOTORS/VARIOUS                                                                                                                                             
COMYTV   040401003219      000015L'OREAL/GARNIER-FRUCTIS HARD                                                                                                                                   
COMYTV   040401003234      000030CLOROX/PINE-SOL :30'S                                                                                                                                          
COMYTV   040401003304      000015SCOTT PAPER/SCOT TOWELS                                                                                                                                        
COMYTV   040401003319      000100P&G/CORPORATE BASE 52 WEEK                                                                                                                                     
PGRYTV   040401004042011735003653KEEPING UP APPEARANCES                            EPS 12                                                               3 38807BCC                              
COMYTV   040401005037      00003020TH CENT VIDEO/CHPR BY THE DZ                                                                                                                                 
COMYTV   040401005107      000030KRAFT/HEAVY-UP WOMEN                                                                                                                                           
COMYTV   040401005137      000100P&G/CORPORATE-PRE-EMPTIBLE                                                                                                                                     
COMYTV   040401010144      000030WALMART/DISNEY DVD/BROTHR BEAR                                                                                                                                 
COMYTV   040401010214      000015KRAFT/PEAK FREANS :15'S                                                                                                                                        
COMYTV   040401010229      000030MATTEL/WOMEN VARIOUS 10PTS/WK                                                                                                                                  
COMYTV   040401010259      000030MAPLE LEAF FOODS/SPEC HIGHLIGH                                                                                                                                 
COMYTV   040401010329      000015MATTEL/WN VARIOUS HEAVY UP15'S                                                                                                                                 
COMYTV   040401010344      000030KRAFT/HEAVY-UP ADULT                                                                                                                                           
COMYTV   040401010930      000015HASBRO/TRIVIA PURSUIT POP DVD                                                                                                                                  
COMYTV   040401010945      000030EFFEM/PED-HEALTHY VITALITY-DRY                                                                                                                                 
COMYTV   040401011015      000030GEN MOTORS/VARIOUS                                                                                                                                             
COMYTV   040401011045      000015MATTEL/WN VARIOUS HEAVY UP15'S                                                                                                                                 
COMYTV   040401011100      000100P&G/CORPORATE BASE 52 WEEK                                                                                                                                     
PGRYTV   0404010117350154130036382 POINT 4 CHILDREN                                SATURDAY NIGHT/SUNDAY MORNING                                        3 38807BCC                              
COMYTV   040401012501      000015KRAFT/PEAK FREANS :15'S                                                                                                                                        
COMYTV   040401012516      000030ZELLERS/HILLARY DUFF CLOTHING                                                                                                                                  
COMYTV   040401012546      000030HWY/ADULT CASH HIGH DEM SPRING                                                                                                                                 
COMYTV   040401012616      000015MATTEL/WN VARIOUS HEAVY UP15'S                                                                                                                                 
COMYTV   040401012631      000030KRAFT/HEAVY-UP ADULT                                                                                                                                           
COMYTV   040401013557      000030NESTLE/SMARTIES                                                                                                                                                
COMYTV   040401013627      000015J&J/CAREFREE                                                                                                                                                   
COMYTV   040401013642      000030KRAFT/HEAVY-UP WOMEN                                                                                                                                           
COMYTV   040401013712      000015HWY/ADULT BARTER HIGH DEM SPR                                                                                                                                  
COMYTV   040401013727      000100P&G/CORPORATE-PRE-EMPTIBLE                                                                                                                                     
COMYTV   040401014756      000030HWY/ADULT CASH HIGH DEM SPRING                                                                                                                                 
COMYTV   040401014826      000030KRAFT/HEAVY-UP WOMEN                                                                                                                                           
COMYTV   040401014856      000015HASBRO/TRIVIA PURSUIT POP DVD                                                                                                                                  
COMYTV   040401014911      000030GEN MOTORS/VARIOUS                                                                                                                                             
COMYTV   040401014941      000030L'OREAL/FOREVER LIP METALLIC                                                                                                                                   
COMYTV   040401015011      000015KRAFT/COOL WHIP                                                                                                                                                
PGRYTV   040401015413022352002939ADDAMS FAMILY: THE SERIES (#1-65)                 FESTER, THE MARRIAGE EP53                         AFS         C15097 1 35307BCC                              
COMYTV   040401015605      000030PEPSICO/PEPSI BRANDS                                                                                                                                           
COMYTV   040401015635      000015GLAX/SKB/AQUAFRESH X CLEAN3073                                                                                                                                 
COMYTV   040401015650      000030KRAFT/HEAVY-UP ADULT                                                                                                                                           
COMYTV   040401015720      000030HWY/ADULT CASH HIGH DEM SPRING                                                                                                                                 
COMYTV   040401015750      000015KRAFT/PEAK FREANS :15'S                                                                                                                                        
COMYTV   040401020317      000030KRAFT/HEAVY-UP WOMEN                                                                                                                                           
COMYTV   040401020347      000030CLOROX/PINE-SOL :30'S                                                                                                                                          
COMYTV   040401020417      000100P&G/CORPORATE-PRE-EMPTIBLE                                                                                                                                     
COMYTV   040401020517      000030KRAFT/CHEEZ WHIZ                                                                                                                                               
COMYTV   040401021218      000030MAPLE LEAF FOODS/SPEC HIGHLIGH                                                                                                                                 
COMYTV   040401021248      000030MATTEL/WOMEN VARIOUS 10PTS/WK                                                                                                                                  
COMYTV   040401021318      000030HWY/ADULT CASH HIGH DEM SPRING                                                                                                                                 
COMYTV   040401021348      000100P&G/CORPORATE BASE 52 WEEK                                                                                                                                     
PGRYTV   040401022352022904000512FREAKY STORIES                                    DO UNTO OTHERS EP64                               BIGTIMYTV   A23763 1 35307ECC                              
PGRYTV   040401022904030008003104RADIO ACTIVE ( III)(#53-78)                       THE RATINGS WAR EP70                              TELEACYTV   C16978 1 35307BCC                              
COMYTV   040401023807      000015HASBRO/TRIVIA PURSUIT POP DVD                                                                                                                                  
COMYTV   040401023822      000015KRAFT/COOL WHIP                                                                                                                                                
COMYTV   040401023837      000100P&G/CORPORATE BASE 52 WEEK                                                                                                                                     
COMYTV   040401023937      000030HWY/ADULT CASH HIGH DEM SPRING                                                                                                                                 
COMYTV   040401024600      000030SCHNEI/MICHELINA'S BOWLS*3022*                                                                                                                                 
COMYTV   040401024630      000030KRAFT/HEAVY-UP WOMEN                                                                                                                                           
COMYTV   040401024700      000100P&G/CORPORATE-PRE-EMPTIBLE                                                                                                                                     
COMYTV   040401024800      000030J&J/CHILDREN'S MOTRIN                                                                                                                                          
COMYTV   040401025538      000015GLAX/SKB/AQUAFRESH X CLEAN3073                                                                                                                                 
COMYTV   040401025553      000030KRAFT/CHEEZ WHIZ                                                                                                                                               
COMYTV   040401025623      000030MR.LUBE/SPRING-3272-TV-05                                                                                                                                      
COMYTV   040401025653      000030MAPLE LEAF FOODS/SPEC HIGHLIGH                                                                                                                                 
COMYTV   040401025723      000015HASBRO/TRIVIA PURSUIT POP DVD                                                                                                                                  
