PGRYTV   010501060000062418002418ONCE UPON A HAMSTER (II)(#27-52)                  EPS 45-THE TRUNK OF HATS                          HAMMY YTV   C14253 1 35107ACC                              
PGRYTV   010501062418063003000545MAISY                                             TRAIN EPS 6                                                          3 38107E                                
ID YTV   010501062936      000012STATION ID                                                                                                                                                     
PRCYTV   010501062948      000015YTV PROMO CONTRACT                                                                                                                                             
PGRYTV   010501063003065449002446TURTLE ISLAND                                     BABY DRAGON EPS 1                                             A35491 1 35107ECC                              
PRCYTV   010501065333      000030YTV PROMO CONTRACT                                                                                                                                             
PRCYTV   010501065403      000030YTV PROMO CONTRACT                                                                                                                                             
PRCYTV   010501065433      000015YTV PROMO CONTRACT                                                                                                                                             
PGRYTV   010501065449070000000511SPOT, ADVENTURES OF                               SPOT'S SURPRISE PARCEL EP1                                           3 38107E                                
ID YTV   010501065946      000012STATION ID                                                                                                                                                     
PGRYTV   010501070000072548002548FUZZPAWS                                          A HAIRY SITUATION EP15.                                       A29184 1 31107GCC                              
PRCYTV   010501072425      000030YTV PROMO CONTRACT                                                                                                                                             
PRCYTV   010501072455      000030YTV PROMO CONTRACT                                                                                                                                             
PRCYTV   010501072525      000015YTV PROMO CONTRACT                                                                                                                                             
INTYTV   010501072548073000000412JUDY & DAVID'S BOOM BOX                           MR. FUDDLE  EPS 7                                                    1 311120                                
ID YTV   010501072946      000012STATION ID                                                                                                                                                     
PGRYTV   010501073000075350002350ELLIOT MOOSE                                      PARTY/ICE/TOUCH/EPS 15.                           NELVAN      A25747 1 35107GCC                              
PRCYTV   010501075211      000030YTV PROMO CONTRACT                                                                                                                                             
PRCYTV   010501075241      000030YTV PROMO CONTRACT                                                                                                                                             
PRCYTV   010501075311      000030YTV PROMO CONTRACT                                                                                                                                             
PGRYTV   010501075350080002000612LISA                                              SPACE ADVENTURE EPS 13                                               3 38107E                                
ID YTV   010501075947      000012STATION ID                                                                                                                                                     
PGRYTV   010501080002082334002332MONA THE VAMPIRE                                  CREATURE FROM/WEREWOLF EP16.                      FANCYCYTV   A18426 1 25307ECC                              
PGRYTV   010501082334082906000532MAISY                                             FOLLOW THE LEADER EP54                                               3 38107ECC                              
INTYTV   010501082906083022000116MILLENIUM MINUTE                                  SIR JOHN A. MACDONALD                                                1 373120CC                              
ID YTV   010501083007      000012STATION ID                                                                                                                                                     
PGRYTV   010501083022085226002204ANATOLE                                           ARTFUL DODGER EP5.                                NELVANYTV   A25670 1 35107ECC                              
INTYTV   010501085226085611000345CHIP 'N' ORBIT                                    EPISODE 2                                                            1 311120CC                              
INTYTV   010501085611090028000417MAMEMO                                            ON THE MOON EPS 17                                                   7 381120                                
ID YTV   010501090013      000012STATION ID                                                                                                                                                     
PGRYTV   010501090028092442002414RUPERT                                            EPS 47-RUPERT AND THE MYSTERY                     NELVANYTV   P21123 1 35107ECC                              
PGRYTV   010501092442093013000531PABLO THE LITTLE RED FOX                          AT THE SUPERMARKET EP12                                              3 38107ECC                              
ID YTV   010501092948      000012STATION ID                                                                                                                                                     
SPOYTV   010501093000      000010MCDONALDS/HAPPY MEAL:YTV JR.                                                                                                                                   
PGRYTV   010501093013094514001501ST. BEAR'S DOLLS HOSPITAL                         FROG IN A BOX EP13                                MARIONYTV   A17987 1 35107GCC                              
PRCYTV   010501094440      000030YTV PROMO CONTRACT                                                                                                                                             
PGRYTV   010501094514100000001446BEEZOO'S ATTIC (II)(1997, #1-26)                  BEEZOO'S BIRTHDAY EP64                            MEDIA       C14418 1 35107ACC                              
ID YTV   010501095945      000012STATION ID                                                                                                                                                     
PGRYTV   010501100000102500002500PACHA ET LES CHATS (IV)                           THE BLOOPS/BATH TIME EP100                        PRISMA      C10987 1 15107A                                
PGRYTV   010501102500103001000501FUZZPAWS                                          NORMAN ROCKWELL EP25                                                 1 31107B                                
ID YTV   010501102945      000012STATION ID                                                                                                                                                     
PGRYTV   010501103001105318002317BABAR                                             NEVER CRY ALIEN! EPS 63                           NELVAN      C09929 1 12107ECC                              
INTYTV   010501105318105624000306NANALAN'                                          PATIO EP 63                                                          1 351120                                
INTYTV   010501105624110006000342PLONSTERS                                         EPS 12                                                               7 381120                                
ID YTV   010501105946      000012STATION ID                                                                                                                                                     
SPOYTV   010501105958      000005TOPP'S/PUSH POP                                                                                                                                                
PGRYTV   010501110006112554002548FUZZPAWS                                          A HAIRY SITUATION EP15.                                       A29184 1 31107GCC                              
PRCYTV   010501112430      000015YTV PROMO CONTRACT                                                                                                                                             
PRCYTV   010501112445      000030YTV PROMO CONTRACT                                                                                                                                             
PRCYTV   010501112515      000030YTV PROMO CONTRACT                                                                                                                                             
INTYTV   010501112554113006000412JUDY & DAVID'S BOOM BOX                           JUMPIN UP & DOWN EP25                                                1 311120                                
ID YTV   010501112951      000012STATION ID                                                                                                                                                     
PGRYTV   010501113006115220002214ELLIOT MOOSE                                      PARTY/ICE/TOUCH/EPS 15.                           NELVAN      A25747 1 35107GCC                              
PGRYTV   010501115220115815000555LISA                                              GETS A BABYSITTER EP 1                                               3 38107E                                
ID YTV   010501115759      000012STATION ID                                                                                                                                                     
INTYTV   010501115815120006000151WILDLIFE                                          EPS 17..                                                             7 381120                                
PGRYTV   010501120006123000002954SAILOR MOON (#1-65)                               PREDICTION OF DOOM                                            D01277 7 38307ECC2                             
COMYTV   010501120200      000030KIDS:30'S PERIOD 1: KRAFT                                                                                                                                      
COMYTV   010501120230      000030HASBRO/VARIOUS SPRING                                                                                                                                          
PROYTV   010501120300      000030YTV PROMO/ON-AIR PROMOTION                                                                                                                                     
PROYTV   010501120330      000030YTV PROMO CONTRACT                                                                                                                                             
PROYTV   010501120400      000030YTV PROMO CONTRACT                                                                                                                                             
COMYTV   010501121102      000030ENG 25 - EMPEROR'S NEW GROOVE                                                                                                                                  
COMYTV   010501121132      000030KELLOGG/VARIOUS KIDS                                                                                                                                           
COMYTV   010501121202      000030L'OREAL CANADA/KIDS                                                                                                                                            
COMYTV   010501121232      000030MCDONALDS/HAPPY MEAL                                                                                                                                           
PROYTV   010501121302      000030YTV PROMO CONTRACT                                                                                                                                             
COMYTV   010501122044      000030DREAMWORKS/SHREK                                                                                                                                               
COMYTV   010501122114      000030HASBRO/VARIOUS SPRING                                                                                                                                          
PROYTV   010501122144      000030YTV PROMO CONTRACT                                                                                                                                             
PROYTV   010501122214      000030YTV PROMO CONTRACT                                                                                                                                             
PROYTV   010501122244      000030YTV PROMO CONTRACT                                                                                                                                             
ID YTV   010501122947      000012STATION ID                                                                                                                                                     
PGRYTV   010501123000125848002848UH OH!                                            EPS 71                                                        A18776 1 313100CC                              
COMYTV   010501123313      000030MATTEL/SPRING '01 CORPORATE                                                                                                                                    
COMYTV   010501123343      000030KIDS:30'S PERIOD 1: KRAFT                                                                                                                                      
PROYTV   010501123413      000030YTV PROMO CONTRACT                                                                                                                                             
COMYTV   010501124109      000030MCDONALDS/HAPPY MEAL                                                                                                                                           
COMYTV   010501124139      000030MATTEL/SPRING '01 CORPORATE                                                                                                                                    
COMYTV   010501124209      000030KIDS:30'S PERIOD 1: KRAFT                                                                                                                                      
COMYTV   010501124239      000030HASBRO/VARIOUS SPRING                                                                                                                                          
PROYTV   010501124309      000030YTV PROMO CONTRACT                                                                                                                                             
COMYTV   010501124822      000030GENERAL MILLS/TRADITIONAL CHIL                                                                                                                                 
COMYTV   010501124852      000030MATTEL/SPRING '01 CORPORATE                                                                                                                                    
PROYTV   010501124922      000030YTV PROMO CONTRACT                                                                                                                                             
INTYTV   010501125848130000000112STICKIN' AROUND                                   RETURN YOUR SEATS TO AN...                                           1 351120CC                              
ID YTV   010501125948      000012STATION ID                                                                                                                                                     
PGRYTV   010501130000132500002500KITTY CATS (III)                                  VOYAGE/BOOM-BEAR EPS 72                           PRISMA      C10316 1 35107A                                
PGRYTV   010501132500133005000505FUZZPAWS                                          FROG PRINCE EP46                                                     1 31107B                                
ID YTV   010501132948      000012STATION ID                                                                                                                                                     
SPOYTV   010501133000      000005TOPP'S/BABY BOTTLE POP                                                                                                                                         
PGRYTV   010501133005135317002312BABAR                                             NEVER CRY ALIEN! EPS 63                           NELVAN      C09929 1 32107ECC                              
INTYTV   010501135317135553000236ARTIFACTS                                         DRUMS EP3                                                            1 351120                                
PRCYTV   010501135523      000030YTV PROMO CONTRACT                                                                                                                                             
INTYTV   010501135553140006000413JUDY & DAVID'S BOOM BOX                           BE YOUR FRIEND EPS 3                                                 1 311120                                
ID YTV   010501135953      000012STATION ID                                                                                                                                                     
PGRYTV   010501140006141521001515ST. BEAR'S DOLLS HOSPITAL                         FROG IN A BOX EP13                                MARIONYTV   A17987 1 35107GCC                              
PRCYTV   010501141435      000030YTV PROMO CONTRACT                                                                                                                                             
PRCYTV   010501141505      000015YTV PROMO CONTRACT                                                                                                                                             
PGRYTV   010501141521143014001453BEEZOO'S ATTIC (II)(1997, #1-26)                  BEEZOO'S BIRTHDAY EP64                            MEDIA       C14418 1 35107ACC                              
ID YTV   010501142955      000012STATION ID                                                                                                                                                     
SPOYTV   010501143007      000005TOPP'S/BABY BOTTLE POP                                                                                                                                         
PGRYTV   010501143014145213002159ANATOLE                                           THE VILLAGE IS FALLING EP6.                       NELVANYTV   A25671 1 35107ECC                              
INTYTV   010501145213145558000345CHIP 'N' ORBIT                                    EPISODE 19                                                           1 311120CC                              
INTYTV   010501145558150019000421MAMEMO                                            HERE COMES THE SUN                                                   7 381120                                
ID YTV   010501150000      000012STATION ID                                                                                                                                                     
SPOYTV   010501150012      000005L'OREAL CANADA/KIDS                                                                                                                                            
PGRYTV   010501150019153000002941MONA THE VAMPIRE                                  CREATURES/MONA EP16                               FANCYCYTV   A18426 1 35307ECC                              
COMYTV   010501150123      000030DREAMWORKS/SHREK                                                                                                                                               
COMYTV   010501150153      000030GENERAL MILLS/TRADITIONAL CHIL                                                                                                                                 
PROYTV   010501150223      000030YTV PROMO CONTRACT                                                                                                                                             
COMYTV   010501151359      000030MATTEL/SPRING '01 CORPORATE                                                                                                                                    
COMYTV   010501151429      000030YTV NESQUIK WHERES TH BUNNY PR                                                                                                                                 
COMYTV   010501151459      000030KELLOGG/VARIOUS KIDS                                                                                                                                           
COMYTV   010501151529      000030PARMALAT/CHEESESTRINGS                                                                                                                                         
PROYTV   010501151559      000015YTV PROMO CONTRACT                                                                                                                                             
COMYTV   010501152728      000030KIDS:30'S PERIOD 1: KRAFT                                                                                                                                      
COMYTV   010501152758      000030MATTEL/SPRING '01 CORPORATE                                                                                                                                    
PROYTV   010501152828      000030YTV PROMO CONTRACT                                                                                                                                             
PROYTV   010501152858      000015YTV PROMO CONTRACT                                                                                                                                             
SPOYTV   010501152943      000005L'OREAL CANADA/KIDS                                                                                                                                            
ID YTV   010501152948      000012STATION ID                                                                                                                                                     
PGRYTV   010501153000155746002746UH OH!                                            EPS 132                                                              1 313100CC                              
COMYTV   010501153338      000030MATTEL/SPRING '01 CORPORATE                                                                                                                                    
COMYTV   010501153408      000030YTV CO-MKT/KOOL-AID KOOL-SOUND                                                                                                                                 
COMYTV   010501154211      000030HIGHWAY ENT/ADULTS CPA 1                                                                                                                                       
COMYTV   010501154241      000030MATTEL/SPRING '01 CORPORATE                                                                                                                                    
COMYTV   010501154311      000030KELLOGG/VARIOUS KIDS                                                                                                                                           
COMYTV   010501154341      000030HASBRO/VARIOUS SPRING                                                                                                                                          
PROYTV   010501154411      000030YTV PROMO CONTRACT                                                                                                                                             
COMYTV   010501155027      000030KIDS:30'S PERIOD 1: KRAFT                                                                                                                                      
COMYTV   010501155057      000030HASBRO/VARIOUS SPRING                                                                                                                                          
PRCYTV   010501155127      000030YTV PROMO CONTRACT                                                                                                                                             
INTYTV   010501155746160006000220PROGRAM JOCKEY                                    PROGRAM JOCKEY                                                       1 213120                                
ID YTV   010501155948      000012STATION ID                                                                                                                                                     
SPOYTV   010501160000      000005GENERAL MILLS/TRADITIONAL CHIL                                                                                                                                 
PGRYTV   010501160006162919002913RUGRATS                                           WRESTLING GRANDPA/COLLECTSE109                                       2 38307ECC                              
COMYTV   010501160057      000030KIDS:30'S PERIOD 1: KRAFT                                                                                                                                      
COMYTV   010501160127      000030MATTEL/SPRING '01 CORPORATE                                                                                                                                    
COMYTV   010501161309      000030HIGHWAY ENT./OETKER                                                                                                                                            
COMYTV   010501161339      000015ENG 25 - EMPEROR'S NEW GROOVE                                                                                                                                  
COMYTV   010501161354      000015TOPP'S/PUSH POP                                                                                                                                                
COMYTV   010501161409      000030HASBRO/VARIOUS SPRING                                                                                                                                          
COMYTV   010501161439      000030GENERAL MILLS/BARTER                                                                                                                                           
COMYTV   010501162621      000030KIDS:30'S PERIOD 1: KRAFT                                                                                                                                      
COMYTV   010501162651      000030HASBRO/VARIOUS SPRING                                                                                                                                          
PROYTV   010501162721      000030YTV PROMO CONTRACT                                                                                                                                             
INTYTV   010501162919163001000042PROGRAM JOCKEY                                    PROGRAM JOCKEY                                                       1 213120                                
ID YTV   010501162948      000012STATION ID                                                                                                                                                     
PGRYTV   010501163001165742002741HEY ARNOLD                                        HELGA'S SHOW/THE FLOOD EP58                                          2 38307ECC                              
COMYTV   010501163533      000030DREAMWORKS/SHREK                                                                                                                                               
COMYTV   010501163603      000030MATTEL/SPRING '01 CORPORATE                                                                                                                                    
COMYTV   010501164300      000030PARMALAT/CHEESESTRINGS                                                                                                                                         
COMYTV   010501164330      000030MATTEL/SPRING '01 CORPORATE                                                                                                                                    
COMYTV   010501164400      000030GENERAL MILLS/TRADITIONAL CHIL                                                                                                                                 
COMYTV   010501164430      000030HASBRO/VARIOUS SPRING                                                                                                                                          
COMYTV   010501164943      000030KIDS:30'S PERIOD 1: KRAFT                                                                                                                                      
COMYTV   010501165013      000030KELLOGG/KELLOGG'S TEENS                                                                                                                                        
PROYTV   010501165043      000030YTV PROMO CONTRACT                                                                                                                                             
INTYTV   010501165742165958000216PROGRAM JOCKEY                                    PROGRAM JOCKEY                                                       1 213120                                
ID YTV   010501165948      000012STATION ID                                                                                                                                                     
PGRYTV   010501165958172723002725POKEMON                                           FOREST GRUMPS EPS 154                                                7 38307ECC                              
COMYTV   010501170107      000030CIBC/SMARTSTART-YAA TO THE M@X                                                                                                                                 
COMYTV   010501170137      000030DREAMWORKS/SHREK                                                                                                                                               
COMYTV   010501171141      000030MATTEL/SPRING '01 CORPORATE                                                                                                                                    
COMYTV   010501171211      000030PARMALAT/CHEESESTRINGS                                                                                                                                         
COMYTV   010501171241      000030KENNER-PARKER/BARTER                                                                                                                                           
COMYTV   010501171311      000030YTV NESQUIK WHERES TH BUNNY PR                                                                                                                                 
PROYTV   010501171341      000030YTV PROMO CONTRACT                                                                                                                                             
COMYTV   010501172511      000030KIDS:30'S PERIOD 1: KRAFT                                                                                                                                      
COMYTV   010501172541      000030L'OREAL CANADA/KIDS                                                                                                                                            
INTYTV   010501172723173000000237PROGRAM JOCKEY                                    PROGRAM JOCKEY                                                       1 213120                                
ID YTV   010501172948      000012STATION ID                                                                                                                                                     
PGRYTV   010501173000175555002555DIGIMON                                           KEN'S SECRET EP62                                                    7 38307ECC                              
COMYTV   010501173315      000030HIGHWAY ENT./OETKER                                                                                                                                            
COMYTV   010501173345      000030CIBC/SMARTSTART-YAA TO THE M@X                                                                                                                                 
PROYTV   010501173415      000030YTV PROMO CONTRACT                                                                                                                                             
COMYTV   010501174141      000030MATTEL/SPRING '01 CORPORATE                                                                                                                                    
COMYTV   010501174211      000030NESTLE/NESQUIK                                                                                                                                                 
COMYTV   010501174241      000030HASBRO/VARIOUS SPRING                                                                                                                                          
COMYTV   010501174311      000030PARMALAT/CHEESESTRINGS                                                                                                                                         
PROYTV   010501174341      000015YTV PROMO CONTRACT                                                                                                                                             
COMYTV   010501175220      000030KIDS:30'S PERIOD 1: KRAFT                                                                                                                                      
COMYTV   010501175255      000015ENG 25 - EMPEROR'S NEW GROOVE                                                                                                                                  
COMYTV   010501175305      000015TOPP'S/BABY BOTTLE POP                                                                                                                                         
PROYTV   010501175320      000015YTV PROMO CONTRACT                                                                                                                                             
INTYTV   010501175555180004000409PROGRAM JOCKEY                                    PROGRAM JOCKEY                                                       1 213120                                
ID YTV   010501175948      000012STATION ID                                                                                                                                                     
SPOYTV   010501180000      000005K CLARK/HUGGIES                                                                                                                                                
PGRYTV   010501180004183001002957TWO OF A KIND                                     KEVIN BURKE'S DAY OFF EP20                                           2 38307BCC                              
SPOYTV   010501180230      000010DREAMWORKS/SHREK                                                                                                                                               
COMYTV   010501180240      000030DREAMWORKS/SHREK                                                                                                                                               
COMYTV   010501180310      000015J&J/CLEAN & CLEAR                                                                                                                                              
COMYTV   010501180325      000030KELLOGG/KELLOGG'S TEENS                                                                                                                                        
COMYTV   010501180355      000015K CLARK/BABY WIPES                                                                                                                                             
COMYTV   010501180410      000030L'OREAL CANADA/MAYBELLINE                                                                                                                                      
PRCYTV   010501180440      000030YTV PROMO CONTRACT                                                                                                                                             
COMYTV   010501181702      000030GILLETTE/VENUS                                                                                                                                                 
COMYTV   010501181732      000015SONY ENT/A KNIGHT'S TALE                                                                                                                                       
COMYTV   010501181747      000030MATTEL/SPRING '01 CORPORATE                                                                                                                                    
COMYTV   010501181817      000015J&J/NEUTROGENA ACNE                                                                                                                                            
COMYTV   010501181832      000030NABISCO/CORN NUTS                                                                                                                                              
PRCYTV   010501181902      000030YTV PROMO CONTRACT                                                                                                                                             
COMYTV   010501182554      000030MATTEL/SPRING '01 CORPORATE                                                                                                                                    
COMYTV   010501182624      000030DISNEY FAMILY VACATIONS                                                                                                                                        
COMYTV   010501182654      000015WOMEN:15'S P1/KRAFT                                                                                                                                            
COMYTV   010501182709      000015J&J/ACUVUE2                                                                                                                                                    
COMYTV   010501182724      000030K CLARK/HUGGIES                                                                                                                                                
PRCYTV   010501182754      000030YTV PROMO CONTRACT                                                                                                                                             
PRCYTV   010501182824      000015YTV PROMO CONTRACT                                                                                                                                             
SPOYTV   010501182944      000005K CLARK/HUGGIES                                                                                                                                                
ID YTV   010501182949      000012STATION ID                                                                                                                                                     
PGRYTV   010501183001190007003006SAILOR MOON                                       FIENDISH FERNS EP114 CON.EP120                                D01865 7 38307ECC2                             
COMYTV   010501183159      000030MATTEL/SPRING '01 CORPORATE                                                                                                                                    
COMYTV   010501183229      000030NABISCO/CORN NUTS                                                                                                                                              
COMYTV   010501183259      000030ROYAL CANADIAN MINT/CORPORATE                                                                                                                                  
COMYTV   010501183329      000030KIDS:30'S PERIOD 1: KRAFT                                                                                                                                      
PRCYTV   010501183359      000030YTV PROMO CONTRACT                                                                                                                                             
COMYTV   010501184354      000030DREAMWORKS/SHREK                                                                                                                                               
COMYTV   010501184424      000030KELLOGG/VARIOUS KIDS                                                                                                                                           
COMYTV   010501184454      000030MATTEL/SPRING '01 CORPORATE                                                                                                                                    
COMYTV   010501184524      000030ROGERS AT&T/SPRING 2001-Q2                                                                                                                                     
PRCYTV   010501184554      000030YTV PROMO CONTRACT                                                                                                                                             
COMYTV   010501185642      000030MATTEL/SPRING '01 CORPORATE                                                                                                                                    
COMYTV   010501185712      000030KIDS:30'S PERIOD 1: KRAFT                                                                                                                                      
COMYTV   010501185742      000015J&J/MONISTAT                                                                                                                                                   
COMYTV   010501185757      000030HOSTESS/F-L/LAYS - BASE BUY -A                                                                                                                                 
COMYTV   010501185827      000015CIBC/SMARTSTART-YAA TO THE M@X                                                                                                                                 
PRCYTV   010501185842      000030YTV PROMO CONTRACT                                                                                                                                             
ID YTV   010501185949      000012STATION ID                                                                                                                                                     
SPOYTV   010501190001      000005POLAROID/PB                                                                                                                                                    
PGRYTV   010501190007193005002958SADDLE CLUB                                       SET UP EP13                                       PROTOCYTV   A43917 1 25307ACC                              
COMYTV   010501190308      000030HIGHWAY ENT/AD CPA HU 4                                                                                                                                        
COMYTV   010501190338      000030HIGHWAY ENT/WM CPA HU                                                                                                                                          
COMYTV   010501190408      000030HIGHWAY ENT/AD CPA HU 1                                                                                                                                        
COMYTV   010501190438      000030MAYTAG/IMAGE                                                                                                                                                   
COMYTV   010501191332      000015SONY ENT/A KNIGHT'S TALE                                                                                                                                       
COMYTV   010501191347      000030HIGHWAY ENT/ADULTS CPA 2                                                                                                                                       
COMYTV   010501191417      000100P&G/BASE WINTER/SPRING/SUMMER                                                                                                                                  
COMYTV   010501191517      000015HIGHWAY ENT/BARTER 7                                                                                                                                           
COMYTV   010501192542      000030HIGHWAY ENT/ADULTS CPA 1                                                                                                                                       
COMYTV   010501192612      000030QUAKER/CRISPY MINIS                                                                                                                                            
COMYTV   010501192642      000015J&J/MONISTAT                                                                                                                                                   
COMYTV   010501192657      000030HIGHWAY ENT/AD CPA HU 3                                                                                                                                        
COMYTV   010501192727      000015HIGHWAY ENT/AD CPA HU 3                                                                                                                                        
ID YTV   010501192953      000012STATION ID                                                                                                                                                     
PGRYTV   010501193005200009003004CAITLIN'S WAY                                     OUTLAWS EP41                                      RIVIERYTV   C18987 1 25307ACC                              
COMYTV   010501193306      000030HIGHWAY ENT/ADULTS CPA 2                                                                                                                                       
COMYTV   010501193336      000030DISNEY FAMILY VACATIONS                                                                                                                                        
COMYTV   010501193406      000030K CLARK/HUGGIES                                                                                                                                                
COMYTV   010501193436      000015NESTLE/CONTACT LENS SOLUTION                                                                                                                                   
COMYTV   010501193451      000015HIGHWAY ENT/AD CPA HU 3                                                                                                                                        
COMYTV   010501194557      000030KELLOGG/RICE KRISPIES                                                                                                                                          
COMYTV   010501194627      000030K CLARK/PULL UPS                                                                                                                                               
COMYTV   010501194657      000030HIGHWAY ENT/AD CPA HU 4                                                                                                                                        
COMYTV   010501194727      000030ROYAL CANADIAN MINT/CORPORATE                                                                                                                                  
COMYTV   010501195712      000030PEPSICO/TOSTITOS-B                                                                                                                                             
COMYTV   010501195742      000015NESTLE/CONTACT LENS SOLUTION                                                                                                                                   
COMYTV   010501195757      000015J&J/NEUTROGENA ACNE                                                                                                                                            
COMYTV   010501195812      000030DISNEY FAMILY VACATIONS                                                                                                                                        
COMYTV   010501195842      000030HIGHWAY ENT/AD CPA HU 2                                                                                                                                        
ID YTV   010501195956      000012STATION ID                                                                                                                                                     
PGRYTV   010501200009202957002948DRAGON BALL Z                                     SUPER VEGETA EP140                                                   7 38307ECC                              
COMYTV   010501200114      000030WOMEN:30'S P1/KRAFT                                                                                                                                            
COMYTV   010501200144      000030L'OREAL CANADA/KIDS                                                                                                                                            
COMYTV   010501200214      000030KIDS:30'S PERIOD 1: KRAFT                                                                                                                                      
COMYTV   010501200244      000030GENERAL MILLS/TRADITIONAL CHIL                                                                                                                                 
PRCYTV   010501200314      000030YTV PROMO CONTRACT                                                                                                                                             
PRCYTV   010501200344      000015YTV PROMO CONTRACT                                                                                                                                             
COMYTV   010501201408      000030QUAKER/CRISPY MINIS                                                                                                                                            
COMYTV   010501201438      000030ROYAL CANADIAN MINT/CORPORATE                                                                                                                                  
COMYTV   010501201508      000030DISNEY FAMILY VACATIONS                                                                                                                                        
COMYTV   010501201538      000030KIDS:30'S PERIOD 1: KRAFT                                                                                                                                      
PRCYTV   010501201608      000015YTV PROMO CONTRACT                                                                                                                                             
PRCYTV   010501201623      000015YTV PROMO CONTRACT                                                                                                                                             
COMYTV   010501202609      000030P&G/PRINGLES                                                                                                                                                   
COMYTV   010501202639      000030KIDS:30'S PERIOD 1: KRAFT                                                                                                                                      
COMYTV   010501202709      000030MAYTAG/IMAGE                                                                                                                                                   
COMYTV   010501202739      000030KELLOGG/KELLOGG'S TEENS                                                                                                                                        
PRCYTV   010501202809      000030YTV PROMO CONTRACT                                                                                                                                             
ID YTV   010501202938      000012STATION ID                                                                                                                                                     
SPOYTV   010501202950      000005POLAROID/PB                                                                                                                                                    
PGRYTV   010501202957210001003004RADIO ACTIVE ( III)(#53-78)                       BULLY FOR YOU EP62                                TELEACYTV   C16978 1 35307BCC3                             
COMYTV   010501203716      000030K CLARK/PULL UPS                                                                                                                                               
COMYTV   010501203746      000030HIGHWAY ENT/BARTER 1                                                                                                                                           
COMYTV   010501203816      000030MATTEL/SPRING '01 CORPORATE                                                                                                                                    
COMYTV   010501203846      000030HIGHWAY ENT.PT BARTER                                                                                                                                          
COMYTV   010501204551      000030WOMEN:30'S P1/KRAFT                                                                                                                                            
COMYTV   010501204621      000030MATTEL/SPRING '01 CORPORATE                                                                                                                                    
COMYTV   010501204651      000030HIGHWAY ENT/BARTER 3                                                                                                                                           
COMYTV   010501204721      000030HIGHWAY ENT.PT BARTER                                                                                                                                          
COMYTV   010501205557      000030KIDS:30'S PERIOD 1: KRAFT                                                                                                                                      
COMYTV   010501205627      000030HIGHWAY ENT/BARTER 1                                                                                                                                           
COMYTV   010501205657      000015HIGHWAY ENT/BARTER 3                                                                                                                                           
COMYTV   010501205712      000030GENERAL MILLS/TRADITIONAL CHIL                                                                                                                                 
COMYTV   010501205742      000015NESTLE/CONTACT LENS SOLUTION                                                                                                                                   
ID YTV   010501205947      000012STATION ID                                                                                                                                                     
PGRYTV   010501210001212959002958BIG WOLF ON CAMPUS                                THAT SWAMP THING YOU DO EP6                       347689      A29758 1 35307BCC                              
COMYTV   010501210629      000030NABISCO/CORN NUTS                                                                                                                                              
COMYTV   010501210659      000030ROYAL CANADIAN MINT/CORPORATE                                                                                                                                  
COMYTV   010501210729      000030HIGHWAY ENT/ADULTS CPA 1                                                                                                                                       
COMYTV   010501210759      000015K CLARK/BABY WIPES                                                                                                                                             
COMYTV   010501210814      000015HIGHWAY ENT/AD CPA HU 3                                                                                                                                        
PRCYTV   010501210829      000015YTV PROMO CONTRACT                                                                                                                                             
COMYTV   010501211355      000030HIGHWAY ENT/AD CPA HU 4                                                                                                                                        
COMYTV   010501211425      000030HALLMARK/FALL 00 POST COMPENSA                                                                                                                                 
COMYTV   010501211455      000030HIGHWAY ENT/BARTER 1                                                                                                                                           
COMYTV   010501211525      000030K CLARK/HUGGIES                                                                                                                                                
PRCYTV   010501211555      000030YTV PROMO CONTRACT                                                                                                                                             
COMYTV   010501212524      000030HIGHWAY ENT/BARTER 7                                                                                                                                           
COMYTV   010501212554      000015HIGHWAY ENT/BARTER 7                                                                                                                                           
COMYTV   010501212609      000015NESTLE/CONTACT LENS SOLUTION                                                                                                                                   
COMYTV   010501212624      000030HIGHWAY ENT/BARTER 4                                                                                                                                           
COMYTV   010501212654      000030HIGHWAY ENT/BARTER 6                                                                                                                                           
PRCYTV   010501212724      000030YTV PROMO CONTRACT                                                                                                                                             
ID YTV   010501212947      000012STATION ID                                                                                                                                                     
PGRYTV   010501212959220010003011STUDENT BODIES                                    ALL HALLOW'S EVE EP6                              STUDEN      A22501 1 35307ACC                              
SPOYTV   010501213327      000010J&J/CLEAN & CLEAR                                                                                                                                              
COMYTV   010501213337      000030HALLMARK CARDS                                                                                                                                                 
COMYTV   010501213407      000015HIGHWAY ENT/AD CPA HU 3                                                                                                                                        
COMYTV   010501213422      000015J&J/MONISTAT                                                                                                                                                   
COMYTV   010501213437      000030K CLARK/HUGGIES                                                                                                                                                
COMYTV   010501213507      000030HIGHWAY ENT/BARTER 5                                                                                                                                           
COMYTV   010501214343      000015HIGHWAY ENT/BARTER 3                                                                                                                                           
COMYTV   010501214358      000015J&J/CLEAN & CLEAR                                                                                                                                              
COMYTV   010501214413      000030HIGHWAY ENT/BARTER 2                                                                                                                                           
COMYTV   010501214443      000030HIGHWAY ENT.PT BARTER                                                                                                                                          
COMYTV   010501214513      000030PEPSICO/TOSTITOS-B                                                                                                                                             
COMYTV   010501215322      000030HIGHWAY ENT/BARTER 5                                                                                                                                           
COMYTV   010501215352      000030HIGHWAY ENT/BARTER 7                                                                                                                                           
COMYTV   010501215422      000030K CLARK/HUGGIES                                                                                                                                                
COMYTV   010501215452      000030KFC:30'S                                                                                                                                                       
PRCYTV   010501215522      000030YTV PROMO CONTRACT                                                                                                                                             
ID YTV   010501215958      000012STATION ID                                                                                                                                                     
PGRYTV   010501220010223014003004FREAKY STORIES                                    NEED/ZIT'S/GIRL/SMELL EP21                        BIGTIMYTV   A23768 1 35307ECC                              
COMYTV   010501220609      000030HIGHWAY ENT/WM CPA HU                                                                                                                                          
COMYTV   010501220639      000030HIGHWAY ENT/BARTER 3                                                                                                                                           
COMYTV   010501220709      000030HIGHWAY ENT/AD CPA HU 1                                                                                                                                        
COMYTV   010501220739      000015CIBC/SMARTSTART-YAA TO THE M@X                                                                                                                                 
COMYTV   010501220754      000015HIGHWAY ENT/AD CPA HU 3                                                                                                                                        
COMYTV   010501221330      000015SONY ENT/A KNIGHT'S TALE                                                                                                                                       
COMYTV   010501221345      000100P&G/BASE WINTER/SPRING/SUMMER                                                                                                                                  
COMYTV   010501221445      000030HIGHWAY ENT/AD CPA HU 3                                                                                                                                        
COMYTV   010501221515      000015HIGHWAY ENT/BARTER 7                                                                                                                                           
COMYTV   010501222044      000030HIGHWAY ENT/WM CPA HU                                                                                                                                          
COMYTV   010501222114      000030HIGHWAY ENT/BARTER 3                                                                                                                                           
COMYTV   010501222144      000015HIGHWAY ENT/BARTER 7                                                                                                                                           
COMYTV   010501222159      000015J&J/ACUVUE2                                                                                                                                                    
COMYTV   010501222214      000030HIGHWAY ENT/BARTER 7                                                                                                                                           
ID YTV   010501222955      000012STATION ID                                                                                                                                                     
SPOYTV   010501223007      000005K CLARK/KOTEX                                                                                                                                                  
PGRYTV   010501223014225958002944GOOSEBUMPS (IV)(1998-99, #401-408)                CRY OF PT2 EP66                                   PROTOCYTV   SR0294 1 36307ACC                              
COMYTV   010501223306      000030HIGHWAY ENT/ADULTS CPA 1                                                                                                                                       
COMYTV   010501223336      000030HIGHWAY ENT/BARTER 2                                                                                                                                           
COMYTV   010501223406      000030ROGERS AT&T/SPRING 2001-Q2                                                                                                                                     
COMYTV   010501223436      000030HIGHWAY ENT/BARTER 1                                                                                                                                           
PRCYTV   010501223506      000015YTV PROMO CONTRACT                                                                                                                                             
COMYTV   010501224212      000030K CLARK/KOTEX                                                                                                                                                  
COMYTV   010501224242      000015HIGHWAY ENT/AD CPA HU 3                                                                                                                                        
COMYTV   010501224257      000015SONY ENT/A KNIGHT'S TALE                                                                                                                                       
COMYTV   010501224312      000030HIGHWAY ENT/BARTER 6                                                                                                                                           
COMYTV   010501224342      000030QUAKER/CRISPY MINIS                                                                                                                                            
COMYTV   010501224947      000030HIGHWAY ENT/BARTER 1                                                                                                                                           
COMYTV   010501225017      000030HIGHWAY ENT/AD CPA HU 4                                                                                                                                        
COMYTV   010501225047      000015J&J/CLEAN & CLEAR                                                                                                                                              
COMYTV   010501225102      000030HIGHWAY ENT/BARTER 2                                                                                                                                           
COMYTV   010501225132      000015NESTLE/CONTACT LENS SOLUTION                                                                                                                                   
PRCYTV   010501225147      000030YTV PROMO CONTRACT                                                                                                                                             
SPOYTV   010501225941      000005K CLARK/KOTEX                                                                                                                                                  
ID YTV   010501225946      000012STATION ID                                                                                                                                                     
PGRYTV   010501225958233015003017WORST WITCH                                       MONKEY BUSINESS EP6                               GALA  YTV   A21624 1 35307ACC                              
COMYTV   010501230728      000030HIGHWAY ENT/BARTER 5                                                                                                                                           
COMYTV   010501230758      000015HIGHWAY ENT/BARTER 7                                                                                                                                           
COMYTV   010501230813      000015SONY ENT/A KNIGHT'S TALE                                                                                                                                       
COMYTV   010501230828      000030COCA-COLA/POST COMPENSATION                                                                                                                                    
COMYTV   010501230858      000030HIGHWAY ENT/BARTER 1                                                                                                                                           
COMYTV   010501231542      000030HIGHWAY ENT/ADULTS CPA 2                                                                                                                                       
COMYTV   010501231612      000015NESTLE/CONTACT LENS SOLUTION                                                                                                                                   
COMYTV   010501231627      000015HIGHWAY ENT/BARTER 3                                                                                                                                           
COMYTV   010501231642      000030HIGHWAY ENT/AD CPA HU 2                                                                                                                                        
COMYTV   010501231712      000030HIGHWAY ENT/AD CPA HU 4                                                                                                                                        
COMYTV   010501232728      000030HIGHWAY ENT/BARTER 1                                                                                                                                           
COMYTV   010501232758      000030DISNEY FAMILY VACATIONS                                                                                                                                        
COMYTV   010501232828      000015HIGHWAY ENT/BARTER 3                                                                                                                                           
COMYTV   010501232843      000015POLAROID/PF: JOYCAM                                                                                                                                            
COMYTV   010501232858      000030HIGHWAY ENT/BARTER 4                                                                                                                                           
ID YTV   010501233003      000012STATION ID                                                                                                                                                     
PGRYTV   010501233015000012002957INCREDIBLE STORY STUDIO                           MARS ATTACK! EP19                                 INCREDYTV   A20856 1 35307ACC                              
COMYTV   010501233051      000030ROYAL CANADIAN MINT/CORPORATE                                                                                                                                  
COMYTV   010501233121      000100P&G/PRE-EMPTIBLE WIN/SPR/SUMMR                                                                                                                                 
COMYTV   010501233221      000030PEPSICO/7 UP                                                                                                                                                   
COMYTV   010501234407      000030WOMEN:30'S P1/KRAFT                                                                                                                                            
COMYTV   010501234437      000030HIGHWAY ENT/WM CPA HU                                                                                                                                          
COMYTV   010501234507      000030KFC:30'S                                                                                                                                                       
COMYTV   010501234537      000030CHRYSLER/BRAND                                                                                                                                                 
COMYTV   010501235713      000030ROYAL CANADIAN MINT/CORPORATE                                                                                                                                  
COMYTV   010501235743      000030HALLMARK CARDS                                                                                                                                                 
COMYTV   010501235813      000030PEPSICO/7 UP                                                                                                                                                   
COMYTV   010501235843      000030KODAK/ADVANTIX                                                                                                                                                 
ID YTV   010501000000      000012STATION ID                                                                                                                                                     
PGRYTV   010501000012003239003227ARE YOU BEING SERVED?                             THE AGENT                                                            3 38807BCC                              
SPOYTV   010501000515      000010DIAGEO/CORP CC BILLBOARDS(OEP)                                                                                                                                 
COMYTV   010501000525      000030WOMEN:30'S P1/KRAFT                                                                                                                                            
COMYTV   010501000555      000100P&G/BASE WINTER/SPRING/SUMMER                                                                                                                                  
COMYTV   010501000655      000030HIGHWAY ENT/ADULTS CPA 2                                                                                                                                       
COMYTV   010501001553      000015NESTLE/CONTACT LENS SOLUTION                                                                                                                                   
COMYTV   010501001608      000030ROYAL CANADIAN MINT/CORPORATE                                                                                                                                  
COMYTV   010501001638      000030SHAW @ HOME                                                                                                                                                    
COMYTV   010501001708      000015K CLARK/BABY WIPES                                                                                                                                             
COMYTV   010501001723      000030HIGHWAY ENT/BARTER 4                                                                                                                                           
COMYTV   010501002457      000015SONY ENT/A KNIGHT'S TALE                                                                                                                                       
COMYTV   010501002512      000030HIGHWAY ENT/ADULTS CPA 2                                                                                                                                       
COMYTV   010501002542      000030DISNEY FAMILY VACATIONS                                                                                                                                        
COMYTV   010501002612      000015J&J/ACUVUE2                                                                                                                                                    
COMYTV   010501002627      000030P&G/OLAY DAILY FACIAL CLEANSER                                                                                                                                 
COMYTV   010501002657      000030HALLMARK/FALL 00 POST COMPENSA                                                                                                                                 
ID YTV   010501003221      000012STATION ID                                                                                                                                                     
SPOYTV   010501003233      000005ROYAL BANK/LIFE INSURANCE                                                                                                                                      
PGRYTV   010501003239010906003627KEEPING UP APPEARANCES                            EPS 24                                                               3 38807BCC                              
SPOYTV   010501003819      000010DIAGEO/CORP CC BILLBOARDS(OEP)                                                                                                                                 
COMYTV   010501003829      000030ROYAL BANK/LIFE INSURANCE                                                                                                                                      
COMYTV   010501003859      000100P&G/BASE WINTER/SPRING/SUMMER                                                                                                                                  
COMYTV   010501003959      000030HIGHWAY ENT/ADULTS CPA 2                                                                                                                                       
COMYTV   010501004534      000015NESTLE/CONTACT LENS SOLUTION                                                                                                                                   
COMYTV   010501004549      000030DISNEY FAMILY VACATIONS                                                                                                                                        
COMYTV   010501004619      000030HIGHWAY ENT/AD CPA HU 2                                                                                                                                        
COMYTV   010501004649      000015WOMEN:15'S P1/KRAFT                                                                                                                                            
COMYTV   010501004704      000030ROYAL CANADIAN MINT/CORPORATE                                                                                                                                  
COMYTV   010501005433      000030PEPSICO/TOSTITOS-B                                                                                                                                             
COMYTV   010501005503      000100P&G/BASE WINTER/SPRING/SUMMER                                                                                                                                  
COMYTV   010501005603      000030HIGHWAY ENT/ADULTS CPA 2                                                                                                                                       
COMYTV   010501005633      000030HIGHWAY ENT/AD CPA HU 3                                                                                                                                        
SPOYTV   010501010849      000005ROYAL BANK/LIFE INSURANCE                                                                                                                                      
ID YTV   010501010854      000012STATION ID                                                                                                                                                     
PGRYTV   010501010906014118003212YES MINISTER                                      QUESTION OF LOYALTY                                                  3 38807BCC                              
COMYTV   010501011325      000100P&G/BASE WINTER/SPRING/SUMMER                                                                                                                                  
COMYTV   010501011425      000030HIGHWAY ENT/ADULTS CPA 1                                                                                                                                       
COMYTV   010501011455      000030HIGHWAY ENT/AD CPA HU 4                                                                                                                                        
COMYTV   010501012205      000100P&G/BASE WINTER/SPRING/SUMMER                                                                                                                                  
COMYTV   010501012305      000030ROYAL CANADIAN MINT/CORPORATE                                                                                                                                  
COMYTV   010501012335      000030HIGHWAY ENT/AD CPA HU 3                                                                                                                                        
COMYTV   010501013021      000030ROGERS AT&T/SPRING 2001-Q2                                                                                                                                     
COMYTV   010501013051      000030HIGHWAY ENT/AD CPA HU 4                                                                                                                                        
COMYTV   010501013121      000030HALLMARK CARDS                                                                                                                                                 
COMYTV   010501013151      000030DISNEY FAMILY VACATIONS                                                                                                                                        
COMYTV   010501013221      000030HIGHWAY ENT/BARTER 7                                                                                                                                           
ID YTV   010501014106      000012STATION ID                                                                                                                                                     
PGRYTV   010501014118021042002924ROCKY & BULLWINKLE                                EPS 99                                                               2 38307E                                
COMYTV   010501014645      000030CHRYSLER/BRAND                                                                                                                                                 
COMYTV   010501014715      000030HOSTESS/F-L/LAYS - BASE BUY -A                                                                                                                                 
COMYTV   010501014745      000030HIGHWAY ENT/WM CPA HU                                                                                                                                          
COMYTV   010501014815      000030HIGHWAY ENT/BARTER 6                                                                                                                                           
COMYTV   010501015422      000015HIGHWAY ENT/BARTER 7                                                                                                                                           
COMYTV   010501015437      000100P&G/BASE WINTER/SPRING/SUMMER                                                                                                                                  
COMYTV   010501015537      000030HOSTESS/F-L/LAYS - BASE BUY -A                                                                                                                                 
COMYTV   010501015607      000015NESTLE/CONTACT LENS SOLUTION                                                                                                                                   
COMYTV   010501020300      000015HIGHWAY ENT/BARTER 3                                                                                                                                           
COMYTV   010501020315      000030MAYTAG/IMAGE                                                                                                                                                   
COMYTV   010501020345      000030HOSTESS/F-L/LAYS - BASE BUY -A                                                                                                                                 
COMYTV   010501020415      000030HIGHWAY ENT/BARTER 7                                                                                                                                           
COMYTV   010501020445      000030WOMEN:30'S P1/KRAFT                                                                                                                                            
ID YTV   010501021030      000012STATION ID                                                                                                                                                     
PGRYTV   010501021042024134003052HEY ARNOLD                                        HELGA'S SHOW/THE FLOOD EP58                                          2 38307ECC                              
COMYTV   010501021615      000030KFC:30'S                                                                                                                                                       
COMYTV   010501021645      000030HIGHWAY ENT/ADULTS CPA 1                                                                                                                                       
COMYTV   010501021715      000015HIGHWAY ENT/BARTER 7                                                                                                                                           
COMYTV   010501021730      000100P&G/BASE WINTER/SPRING/SUMMER                                                                                                                                  
COMYTV   010501022457      000100P&G/BASE WINTER/SPRING/SUMMER                                                                                                                                  
COMYTV   010501022557      000030HIGHWAY ENT.PT BARTER                                                                                                                                          
COMYTV   010501022627      000030HIGHWAY ENT/AD CPA HU 2                                                                                                                                        
COMYTV   010501023140      000030KFC:30'S                                                                                                                                                       
COMYTV   010501023210      000015NESTLE/CONTACT LENS SOLUTION                                                                                                                                   
COMYTV   010501023225      000030HIGHWAY ENT/BARTER 2                                                                                                                                           
COMYTV   010501023255      000030HIGHWAY ENT/BARTER 6                                                                                                                                           
COMYTV   010501023325      000030HIGHWAY ENT/AD CPA HU 1                                                                                                                                        
COMYTV   010501023355      000015HIGHWAY ENT/BARTER 7                                                                                                                                           
ID YTV   010501024122      000012STATION ID                                                                                                                                                     
PGRYTV   010501024134030931002757ROSWELL CONSPIRACIES                              CONSPIRACY REVEALED EP37                                             4 38307ECC                              
COMYTV   010501024225      000030QUAKER/CRISPY MINIS                                                                                                                                            
COMYTV   010501024255      000030ROGERS AT&T/SPRING 2001-Q2                                                                                                                                     
COMYTV   010501024325      000030HIGHWAY ENT/BARTER 5                                                                                                                                           
COMYTV   010501024355      000030HIGHWAY ENT/BARTER 4                                                                                                                                           
COMYTV   010501024425      000015HIGHWAY ENT/BARTER 3                                                                                                                                           
COMYTV   010501025139      000100P&G/BASE WINTER/SPRING/SUMMER                                                                                                                                  
COMYTV   010501025239      000015J&J/MONISTAT                                                                                                                                                   
COMYTV   010501025254      000030HIGHWAY ENT.PT BARTER                                                                                                                                          
COMYTV   010501025324      000015NESTLE/CONTACT LENS SOLUTION                                                                                                                                   
COMYTV   010501030046      000100P&G/BASE WINTER/SPRING/SUMMER                                                                                                                                  
COMYTV   010501030146      000030PEPSICO/7 UP                                                                                                                                                   
COMYTV   010501030216      000030HIGHWAY ENT/BARTER 3                                                                                                                                           
COMYTV   010501030246      000015HIGHWAY ENT/BARTER 3                                                                                                                                           
ID YTV   010501030919      000012STATION ID                                                                                                                                                     
PGRYTV   010501030931033920002949THREE FRIENDS & JERRY                             OSTRICH/ AGE LIMIE EP28                                              7 38307ECC                              
COMYTV   010501031038      000030HIGHWAY ENT/ADULTS CPA 1                                                                                                                                       
COMYTV   010501031108      000030HIGHWAY ENT/AD CPA HU 2                                                                                                                                        
COMYTV   010501031138      000030ROYAL CANADIAN MINT/CORPORATE                                                                                                                                  
COMYTV   010501031208      000030MAYTAG/IMAGE                                                                                                                                                   
COMYTV   010501032318      000030HOSTESS/F-L/LAYS - BASE BUY -A                                                                                                                                 
COMYTV   010501032348      000030HIGHWAY ENT/ADULTS CPA 2                                                                                                                                       
COMYTV   010501032418      000030PEPSICO/7 UP                                                                                                                                                   
COMYTV   010501032448      000030KODAK/ADVANTIX                                                                                                                                                 
COMYTV   010501033637      000030MAYTAG/IMAGE                                                                                                                                                   
COMYTV   010501033707      000100P&G/BASE WINTER/SPRING/SUMMER                                                                                                                                  
COMYTV   010501033807      000030PEPSICO/7 UP                                                                                                                                                   
ID YTV   010501033908      000012STATION ID                                                                                                                                                     
PGRYTV   010501033920040640002720BATMAN (ANIMATED)                                 CHEMISTRY EP107                                                      2 38307E                                
COMYTV   010501034031      000015J&J/CLEAN & CLEAR                                                                                                                                              
COMYTV   010501034046      000030LIPTON/BRISK ICED TEA                                                                                                                                          
COMYTV   010501034116      000030ROGERS AT&T/SPRING 2001-Q2                                                                                                                                     
COMYTV   010501034146      000015WOMEN:15'S P1/KRAFT                                                                                                                                            
COMYTV   010501034201      000030HOSTESS/F-L/LAYS - BASE BUY -A                                                                                                                                 
COMYTV   010501034811      000030QUAKER/CRISPY MINIS                                                                                                                                            
COMYTV   010501034841      000030ROYAL CANADIAN MINT/CORPORATE                                                                                                                                  
COMYTV   010501034911      000030PEPSICO/7 UP                                                                                                                                                   
COMYTV   010501034941      000030GILLETTE/VENUS                                                                                                                                                 
