PGRYTV   040501060000062602002602UH OH!                                            EPS 214                                                              1 311100CC                              
PRCYTV   040501060318      000030YTV PROMO CONTRACT                                                                                                                                             
PRCYTV   040501060348      000030YTV PROMO CONTRACT                                                                                                                                             
PRCYTV   040501061144      000030YTV PROMO CONTRACT                                                                                                                                             
PRCYTV   040501061822      000030YTV PROMO CONTRACT                                                                                                                                             
PRCYTV   040501061852      000030YTV PROMO CONTRACT                                                                                                                                             
INTYTV   040501062602063000000358CHIP 'N' ORBIT                                    EPISODE 33                                                           1 311120CC                              
ID YTV   040501062948      000012STATION ID                                                                                                                                                     
PGRYTV   040501063000065303002303MONSTER BY MISTAKE                                SPECIAL TALENT EP6.                               MONSTEYTV   A21770 1 35107ECC                              
INTYTV   040501065303065533000230NELVANA INTERSTITIALS                             OUT OF SIGHT                                                         1 321120                                
PRCYTV   040501065351      000030YTV PROMO CONTRACT                                                                                                                                             
PRCYTV   040501065421      000030YTV PROMO CONTRACT                                                                                                                                             
PRCYTV   040501065451      000030YTV PROMO CONTRACT                                                                                                                                             
INTYTV   040501065533065727000154RALF THE RECORD RAT                               EPS 92                                                               1 251120                                
PRCYTV   040501065656      000030YTV PROMO CONTRACT                                                                                                                                             
INTYTV   040501065727065930000203EVERYDAY HEROES                                   COMPOST WORM  EP 9                                                   1 311120                                
ID YTV   040501065917      000012STATION ID                                                                                                                                                     
INTYTV   040501065930070000000030PROGRAM JOCKEY                                    PROGRAM JOCKEY                                                       1 213120                                
PGRYTV   040501070000070715000715BEASTIES (#1-26)                                  PT2 - TRIGGER PART TWO EP17                       ALLIANYTV   C13141 1 35307ECC                              
INTYTV   040501070715070740000025PROGRAM JOCKEY                                    PROGRAM JOCKEY                                                       1 213120                                
PGRYTV   040501070740071447000707BEASTIES (#1-26)                                  PT2 - TRIGGER PART TWO EP17                       ALLIANYTV   C13141 1 35307ECC                              
COMYTV   040501070740      000030MATTEL/BONUS CONTRACT                                                                                                                                          
COMYTV   040501070810      000030KRAFT CANADA INC.                                                                                                                                              
INTYTV   040501071447071507000020PROGRAM JOCKEY                                    PROGRAM JOCKEY                                                       1 213120                                
PGRYTV   040501071507071644000137BEASTIES (#1-26)                                  PT2 - TRIGGER PART TWO EP17                       ALLIANYTV   C13141 1 35307ECC                              
COMYTV   040501071513      000030KRAFT CANADA INC.                                                                                                                                              
COMYTV   040501071543      000030MATTEL CANADA INC.                                                                                                                                             
COMYTV   040501071613      000030TOPP'S                                                                                                                                                         
PSAYTV   040501071644071713000029KIDS HELP/DINNER                                                                                                       1 000130                                
PGRYTV   040501071713072408000655BEASTIES (#1-26)                                  PT2 - TRIGGER PART TWO EP17                       ALLIANYTV   C13141 1 35307ECC                              
INTYTV   040501072408072428000020PROGRAM JOCKEY                                    PROGRAM JOCKEY                                                       1 213120                                
PGRYTV   040501072428072811000343BEASTIES (#1-26)                                  PT2 - TRIGGER PART TWO EP17                       ALLIANYTV   C13141 1 35307ECC                              
COMYTV   040501072434      000030KRAFT CANADA INC.                                                                                                                                              
COMYTV   040501072504      000030MATTEL CANADA INC.                                                                                                                                             
INTYTV   040501072811073007000156PROGRAM JOCKEY                                    PROGRAM JOCKEY                                                       1 213120                                
ID YTV   040501072957      000012STATION ID                                                                                                                                                     
PGRYTV   040501073007073612000605MEDABOTS                                          FINAL GOODBYES        EPS 90                                  D02194 7 28307ECC2                             
INTYTV   040501073612073633000021PROGRAM JOCKEY                                    PROGRAM JOCKEY                                                       1 213120                                
PGRYTV   040501073633074409000736MEDABOTS                                          FINAL GOODBYES        EPS 90                                  D02194 7 38307ECC2                             
COMYTV   040501073639      000030KELLOGG CANADA INC.                                                                                                                                            
COMYTV   040501073709      000030SPIN MASTER TOYS INC.                                                                                                                                          
PRCYTV   040501073739      000030YTV PROMO CONTRACT                                                                                                                                             
INTYTV   040501074409074430000021PROGRAM JOCKEY                                    PROGRAM JOCKEY                                                       1 213120                                
PGRYTV   040501074430074606000136MEDABOTS                                          FINAL GOODBYES        EPS 90                                  D02194 7 38307ECC2                             
COMYTV   040501074436      000030MATTEL CANADA INC.                                                                                                                                             
COMYTV   040501074506      000030KRAFT CANADA INC.                                                                                                                                              
COMYTV   040501074536      000030MATTEL CANADA INC.                                                                                                                                             
PSAYTV   040501074606074636000030KIDS HELP/BEDTIME                                                                                                      1 000130                                
PGRYTV   040501074636075042000406MEDABOTS                                          FINAL GOODBYES        EPS 90                                  D02194 7 38307ECC2                             
INTYTV   040501075042075103000021PROGRAM JOCKEY                                    PROGRAM JOCKEY                                                       1 213120                                
PGRYTV   040501075103075818000715MEDABOTS                                          FINAL GOODBYES        EPS 90                                  D02194 7 38307ECC2                             
COMYTV   040501075109      000015KRAFT CANADA INC.                                                                                                                                              
COMYTV   040501075124      000030TOPP'S                                                                                                                                                         
COMYTV   040501075154      000015SPIN MASTER TOYS INC.                                                                                                                                          
PRCYTV   040501075209      000030YTV PROMO CONTRACT                                                                                                                                             
PRCYTV   040501075239      000030YTV PROMO CONTRACT                                                                                                                                             
INTYTV   040501075818080000000142PROGRAM JOCKEY                                    PROGRAM JOCKEY                                                       1 213120                                
ID YTV   040501075948      000012STATION ID                                                                                                                                                     
PGRYTV   040501080000080555000555YU-GI-OH                                          SO CLOSE YET SO FAR                                                  7 38307ECC                              
INTYTV   040501080555080615000020PROGRAM JOCKEY                                    PROGRAM JOCKEY                                                       1 213120                                
PGRYTV   040501080615081353000738YU-GI-OH                                          SO CLOSE YET SO FAR                                                  7 38307ECC                              
COMYTV   040501080621      000030KRAFT CANADA INC.                                                                                                                                              
COMYTV   040501080651      000030KRAFT CANADA INC.                                                                                                                                              
PRCYTV   040501080721      000030YTV PROMO CONTRACT                                                                                                                                             
PRCYTV   040501080751      000015YTV PROMO CONTRACT                                                                                                                                             
INTYTV   040501081353081413000020PROGRAM JOCKEY                                    PROGRAM JOCKEY                                                       1 213120                                
PGRYTV   040501081413081549000136YU-GI-OH                                          SO CLOSE YET SO FAR                                                  7 38307ECC                              
COMYTV   040501081419      000030MATTEL CANADA INC.                                                                                                                                             
COMYTV   040501081449      000030KRAFT CANADA INC.                                                                                                                                              
COMYTV   040501081519      000030MATTEL CANADA INC.                                                                                                                                             
PSAYTV   040501081549081619000030KIDS HELP/BEDTIME                                                                                                      1 000130                                
PGRYTV   040501081619082042000423YU-GI-OH                                          SO CLOSE YET SO FAR                                                  7 38307ECC                              
INTYTV   040501082042082102000020PROGRAM JOCKEY                                    PROGRAM JOCKEY                                                       1 213120                                
PGRYTV   040501082102082848000746YU-GI-OH                                          SO CLOSE YET SO FAR                                                  7 38307ECC                              
COMYTV   040501082108      000015SPIN MASTER TOYS/BUBLE WAND/15                                                                                                                                 
COMYTV   040501082123      000030HASBRO/PRE-FALL                                                                                                                                                
COMYTV   040501082153      000015KRAFT CANADA INC.                                                                                                                                              
PRCYTV   040501082208      000030YTV PROMO CONTRACT                                                                                                                                             
PRCYTV   040501082238      000030YTV PROMO CONTRACT                                                                                                                                             
INTYTV   040501082848083000000112PROGRAM JOCKEY                                    PROGRAM JOCKEY                                                       1 213120                                
ID YTV   040501082948      000012STATION ID                                                                                                                                                     
PGRYTV   040501083000083032000032TRANSFORMERS: ENERGON                             ENERGON STARS              EP2                                       7 38307ECC                              
INTYTV   040501083032083052000020PROGRAM JOCKEY                                    PROGRAM JOCKEY                                                       1 213120                                
PGRYTV   040501083052084226001134TRANSFORMERS: ENERGON                             ENERGON STARS              EP2                                       7 38307ECC                              
COMYTV   040501083058      000030KRAFT/KID P1 :30'S                                                                                                                                             
COMYTV   040501083128      000030MCDONALDS/HAPPY MEAL                                                                                                                                           
PRCYTV   040501083158      000030YTV PROMO CONTRACT                                                                                                                                             
PRCYTV   040501083228      000030YTV PROMO CONTRACT                                                                                                                                             
INTYTV   040501084226084246000020PROGRAM JOCKEY                                    PROGRAM JOCKEY                                                       1 213120                                
PGRYTV   040501084246084422000136TRANSFORMERS: ENERGON                             ENERGON STARS              EP2                                       7 38307ECC                              
COMYTV   040501084252      000030KRAFT CANADA INC.                                                                                                                                              
COMYTV   040501084322      000030SPIN MASTER TOYS INC.                                                                                                                                          
COMYTV   040501084352      000030KRAFT/KID P1 :30'S                                                                                                                                             
PSAYTV   040501084422084452000030D SUZUKI/NATURE CHALLENGE                                                                                              1 000130                                
PGRYTV   040501084452085550001058TRANSFORMERS: ENERGON                             ENERGON STARS              EP2                                       7 38307ECC                              
INTYTV   040501085550085610000020PROGRAM JOCKEY                                    PROGRAM JOCKEY                                                       1 213120                                
PGRYTV   040501085610085848000238TRANSFORMERS: ENERGON                             ENERGON STARS              EP2                                       7 38307ECC                              
COMYTV   040501085616      000015COLGATE/BIONICLES TOOTHBRUSH                                                                                                                                   
COMYTV   040501085631      000030KELLOGG/FROOT LOOPS                                                                                                                                            
COMYTV   040501085701      000015KRAFT/KID P1 :15'S                                                                                                                                             
PRCYTV   040501085716      000030YTV PROMO CONTRACT                                                                                                                                             
PRCYTV   040501085746      000030YTV PROMO CONTRACT                                                                                                                                             
INTYTV   040501085848090000000112PROGRAM JOCKEY                                    PROGRAM JOCKEY                                                       1 213120                                
ID YTV   040501085948      000012STATION ID                                                                                                                                                     
PGRYTV   040501090000090219000219JACKIE CHAN ADVENTURES                            VIVA LAS JACKIES  EPS 57                                             2 38307ECC                              
INTYTV   040501090219090238000019PROGRAM JOCKEY                                    PROGRAM JOCKEY                                                       1 213120                                
PGRYTV   040501090238091127000849JACKIE CHAN ADVENTURES                            VIVA LAS JACKIES  EPS 57                                             2 38307ECC                              
COMYTV   040501090244      000015KRAFT/KID P1 :15'S                                                                                                                                             
COMYTV   040501090259      000030MATTEL CANADA INC.                                                                                                                                             
COMYTV   040501090329      000015SPIN MASTER TOYS INC.                                                                                                                                          
PRCYTV   040501090344      000015YTV PROMO CONTRACT                                                                                                                                             
INTYTV   040501091127091148000021PROGRAM JOCKEY                                    PROGRAM JOCKEY                                                       1 213120                                
PGRYTV   040501091148091859000711JACKIE CHAN ADVENTURES                            VIVA LAS JACKIES  EPS 57                                             2 38307ECC                              
COMYTV   040501091154      000015BVHV/HAUNTED MANSION 15'S                                                                                                                                      
COMYTV   040501091209      000030MCDONALDS/HAPPY MEAL                                                                                                                                           
COMYTV   040501091239      000030MATTEL CANADA INC.                                                                                                                                             
COMYTV   040501091309      000030TOPP'S                                                                                                                                                         
COMYTV   040501091339      000015KRAFT CANADA INC.                                                                                                                                              
INTYTV   040501091859091920000021PROGRAM JOCKEY                                    PROGRAM JOCKEY                                                       1 213120                                
PGRYTV   040501091920092817000857JACKIE CHAN ADVENTURES                            VIVA LAS JACKIES  EPS 57                                             2 38307ECC                              
COMYTV   040501091926      000015HASBRO/PRE-FALL                                                                                                                                                
COMYTV   040501091941      000030KRAFT/KID P1 :30'S                                                                                                                                             
COMYTV   040501092011      000015COLGATE/BIONICLES TOOTHBRUSH                                                                                                                                   
PRCYTV   040501092026      000030YTV PROMO CONTRACT                                                                                                                                             
PRCYTV   040501092056      000030YTV PROMO CONTRACT                                                                                                                                             
PRCYTV   040501092126      000030YTV PROMO CONTRACT                                                                                                                                             
INTYTV   040501092817093000000143PROGRAM JOCKEY                                    PROGRAM JOCKEY                                                       1 213120                                
ID YTV   040501092948      000012STATION ID                                                                                                                                                     
PGRYTV   040501093000093057000057DUEL MASTERS                                      I'LL BE A MONKEY'S BROTHER                                           7 38307ECC                              
INTYTV   040501093057093117000020PROGRAM JOCKEY                                    PROGRAM JOCKEY                                                       1 213120                                
PGRYTV   040501093117093811000654DUEL MASTERS                                      I'LL BE A MONKEY'S BROTHER                                           7 38307ECC                              
COMYTV   040501093123      000030MATTEL/KIDS CORP SPRING04/#3                                                                                                                                   
COMYTV   040501093153      000030KRAFT CANADA INC.                                                                                                                                              
PRCYTV   040501093223      000030YTV PROMO CONTRACT                                                                                                                                             
PRCYTV   040501093253      000030YTV PROMO CONTRACT                                                                                                                                             
INTYTV   040501093811093830000019PROGRAM JOCKEY                                    PROGRAM JOCKEY                                                       1 213120                                
PGRYTV   040501093830094925001055DUEL MASTERS                                      I'LL BE A MONKEY'S BROTHER                                           7 38307ECC                              
COMYTV   040501093836      000030MATTEL CANADA INC.                                                                                                                                             
COMYTV   040501093906      000030MATTEL/BONUS CONTRACT                                                                                                                                          
COMYTV   040501093936      000030SPIN MASTER TOYS INC.                                                                                                                                          
COMYTV   040501094006      000030MATTEL CANADA INC.                                                                                                                                             
INTYTV   040501094925094943000018PROGRAM JOCKEY                                    PROGRAM JOCKEY                                                       1 213120                                
PGRYTV   040501094943095917000934DUEL MASTERS                                      I'LL BE A MONKEY'S BROTHER                                           7 38307ECC                              
COMYTV   040501094949      000030MCDONALDS/HAPPY MEAL                                                                                                                                           
COMYTV   040501095019      000030TOPP'S                                                                                                                                                         
PRCYTV   040501095049      000030YTV PROMO CONTRACT                                                                                                                                             
PRCYTV   040501095119      000030YTV PROMO CONTRACT                                                                                                                                             
PRCYTV   040501095149      000015YTV PROMO CONTRACT                                                                                                                                             
INTYTV   040501095917095959000042PROGRAM JOCKEY                                    PROGRAM JOCKEY                                                       1 213120                                
ID YTV   040501095948      000012STATION ID                                                                                                                                                     
PGRYTV   040501095959100246000247TEEN TITANS                                       DEEP SIX               EPS 8                                         2 38307ECC                              
INTYTV   040501100246100306000020PROGRAM JOCKEY                                    PROGRAM JOCKEY                                                       1 213120                                
PGRYTV   040501100306101411001105TEEN TITANS                                       DEEP SIX               EPS 8                                         2 38307ECC                              
COMYTV   040501100312      000030MATTEL/KIDS CORP SPRING04/#3                                                                                                                                   
COMYTV   040501100342      000030KRAFT CANADA INC.                                                                                                                                              
PRCYTV   040501100412      000030YTV PROMO CONTRACT                                                                                                                                             
PRCYTV   040501100442      000015YTV PROMO CONTRACT                                                                                                                                             
INTYTV   040501101411101432000021PROGRAM JOCKEY                                    PROGRAM JOCKEY                                                       1 213120                                
PGRYTV   040501101432102551001119TEEN TITANS                                       DEEP SIX               EPS 8                                         2 38307ECC                              
COMYTV   040501101438      000030KRAFT/KID P1 :30'S                                                                                                                                             
COMYTV   040501101508      000030MATTEL CANADA INC.                                                                                                                                             
COMYTV   040501101538      000030SPIN MASTER TOYS INC.                                                                                                                                          
COMYTV   040501101608      000030KRAFT CANADA INC.                                                                                                                                              
INTYTV   040501102551102612000021PROGRAM JOCKEY                                    PROGRAM JOCKEY                                                       1 213120                                
PGRYTV   040501102612102618000006TEEN TITANS                                       DEEP SIX               EPS 8                                         2 38307ECC                              
PSAYTV   040501102618102718000100HINTERLAND WHO/COMMON LOON                                                                                             1 000130                                
PGRYTV   040501102718103000000242TEEN TITANS                                       DEEP SIX               EPS 8                                         2 38307ECC                              
PROYTV   040501102718      000030YTV PROMO CONTRACT                                                                                                                                             
PROYTV   040501102748      000030YTV PROMO CONTRACT                                                                                                                                             
PGRYTV   040501103000103243000243X-MEN: EVOLUTION                                  BLIND ALLEY     EPS 35                                               2 38307ECC                              
INTYTV   040501103243103303000020PROGRAM JOCKEY                                    PROGRAM JOCKEY                                                       1 213120                                
PGRYTV   040501103303104017000714X-MEN: EVOLUTION                                  BLIND ALLEY     EPS 35                                               2 38307ECC                              
COMYTV   040501103309      000030MATTEL/KIDS CORP SPRING04/#3                                                                                                                                   
COMYTV   040501103339      000030KELLOGG CANADA INC.                                                                                                                                            
PRCYTV   040501103409      000030YTV PROMO CONTRACT                                                                                                                                             
INTYTV   040501104017104038000021PROGRAM JOCKEY                                    PROGRAM JOCKEY                                                       1 213120                                
PGRYTV   040501104038104733000655X-MEN: EVOLUTION                                  BLIND ALLEY     EPS 35                                               2 38307ECC                              
COMYTV   040501104044      000030MCDONALDS/HAPPY MEAL                                                                                                                                           
COMYTV   040501104114      000030KELLOGG/FROOT LOOPS                                                                                                                                            
COMYTV   040501104144      000030KRAFT CANADA INC.                                                                                                                                              
COMYTV   040501104214      000030TOPP'S                                                                                                                                                         
INTYTV   040501104733104754000021PROGRAM JOCKEY                                    PROGRAM JOCKEY                                                       1 213120                                
PGRYTV   040501104754105818001024X-MEN: EVOLUTION                                  BLIND ALLEY     EPS 35                                               2 38307ECC                              
COMYTV   040501104800      000015COLGATE/BIONICLES TOOTHBRUSH                                                                                                                                   
COMYTV   040501104815      000030MATTEL CANADA INC.                                                                                                                                             
COMYTV   040501104845      000015SPIN MASTER TOYS INC.                                                                                                                                          
PRCYTV   040501104900      000030YTV PROMO CONTRACT                                                                                                                                             
PROYTV   040501104930      000030YTV PROMO CONTRACT                                                                                                                                             
INTYTV   040501105818110000000142PROGRAM JOCKEY                                    PROGRAM JOCKEY                                                       1 213120                                
ID YTV   040501105948      000012STATION ID                                                                                                                                                     
PGRYTV   040501110000110204000204JUSTICE LEAGUE                                    SECRET SOCIETY - PART 2  EP 44                                       2 38307ECC                              
INTYTV   040501110204110224000020PROGRAM JOCKEY                                    PROGRAM JOCKEY                                                       1 213120                                
PGRYTV   040501110224111400001136JUSTICE LEAGUE                                    SECRET SOCIETY - PART 2  EP 44                                       2 38307ECC                              
COMYTV   040501110230      000030MATTEL CANADA INC.                                                                                                                                             
COMYTV   040501110300      000030MATTEL CANADA INC.                                                                                                                                             
PRCYTV   040501110330      000030YTV PROMO CONTRACT                                                                                                                                             
PROYTV   040501110400      000015YTV PROMO CONTRACT                                                                                                                                             
INTYTV   040501111400111420000020PROGRAM JOCKEY                                    PROGRAM JOCKEY                                                       1 213120                                
PGRYTV   040501111420111456000036JUSTICE LEAGUE                                    SECRET SOCIETY - PART 2  EP 44                                       2 38307ECC                              
COMYTV   040501111426      000030TOPP/JUICY DROP POP/DROP CHEW                                                                                                                                  
PSAYTV   040501111456111457000001HINTERLAND WHO/LEATHERBACK SE                                                                                          1 000130                                
PGRYTV   040501111457112552001055JUSTICE LEAGUE                                    SECRET SOCIETY - PART 2  EP 44                                       2 38307ECC                              
COMYTV   040501111556      000030KRAFT CANADA INC.                                                                                                                                              
INTYTV   040501112552112612000020PROGRAM JOCKEY                                    PROGRAM JOCKEY                                                       1 213120                                
PGRYTV   040501112612112848000236JUSTICE LEAGUE                                    SECRET SOCIETY - PART 2  EP 44                                       2 38307ECC                              
COMYTV   040501112618      000030MATTEL/BONUS CONTRACT                                                                                                                                          
COMYTV   040501112648      000030SPIN MASTER TOYS INC.                                                                                                                                          
PRCYTV   040501112718      000030YTV PROMO CONTRACT                                                                                                                                             
PRCYTV   040501112748      000030YTV PROMO CONTRACT                                                                                                                                             
INTYTV   040501112848113000000112PROGRAM JOCKEY                                    PROGRAM JOCKEY                                                       1 213120                                
ID YTV   040501112948      000012STATION ID                                                                                                                                                     
PGRYTV   040501113000113040000040HE-MAN & MASTERS OF UNIVERSE                      WEB OF EVIL          EPS 36                                          2 38307ECC                              
INTYTV   040501113040113100000020PROGRAM JOCKEY                                    PROGRAM JOCKEY                                                       1 213120                                
PGRYTV   040501113100114736001636HE-MAN & MASTERS OF UNIVERSE                      WEB OF EVIL          EPS 36                                          2 38307ECC                              
COMYTV   040501113106      000030TOPP'S/PUSH POPS/BABY BOTTLE P                                                                                                                                 
COMYTV   040501113136      000030MATTEL CANADA INC.                                                                                                                                             
INTYTV   040501114736114756000020PROGRAM JOCKEY                                    PROGRAM JOCKEY                                                       1 213120                                
PGRYTV   040501114756115622000826HE-MAN & MASTERS OF UNIVERSE                      WEB OF EVIL          EPS 36                                          2 38307ECC                              
COMYTV   040501114802      000030KRAFT CANADA INC.                                                                                                                                              
COMYTV   040501114832      000030SPIN MASTER/BOY COMBO                                                                                                                                          
COMYTV   040501114902      000030KRAFT CANADA INC.                                                                                                                                              
COMYTV   040501114932      000030KRAFT CANADA INC.                                                                                                                                              
INTYTV   040501115622115642000020PROGRAM JOCKEY                                    PROGRAM JOCKEY                                                       1 213120                                
PGRYTV   040501115642115918000236HE-MAN & MASTERS OF UNIVERSE                      WEB OF EVIL          EPS 36                                          2 38307ECC                              
COMYTV   040501115648      000030MATTEL CANADA INC.                                                                                                                                             
COMYTV   040501115718      000030KRAFT CANADA INC.                                                                                                                                              
PRCYTV   040501115748      000030YTV PROMO CONTRACT                                                                                                                                             
PROYTV   040501115818      000030YTV PROMO CONTRACT                                                                                                                                             
INTYTV   040501115918120001000043PROGRAM JOCKEY                                    PROGRAM JOCKEY                                                       1 213120                                
ID YTV   040501115948      000012STATION ID                                                                                                                                                     
PGRYTV   040501120001123003003002POKEMON                                           TAMING OF THE SHROOMISH  EP281                                       7 38307ECC                              
COMYTV   040501120202      000030KRAFT/KID P1 :30'S                                                                                                                                             
COMYTV   040501120232      000030MATTEL CANADA INC.                                                                                                                                             
COMYTV   040501120302      000030KRAFT CANADA INC.                                                                                                                                              
COMYTV   040501120332      000030MATTEL CANADA INC.                                                                                                                                             
PRCYTV   040501120402      000015YTV PROMO CONTRACT                                                                                                                                             
PRCYTV   040501120417      000015YTV PROMO CONTRACT                                                                                                                                             
COMYTV   040501121417      000030MATTEL/BONUS CONTRACT                                                                                                                                          
COMYTV   040501121447      000030JOHNSON & JOHNSON INC.                                                                                                                                         
COMYTV   040501121517      000030MAPLE LEAF FOOD INC.                                                                                                                                           
COMYTV   040501121547      000030WHIRLPOOL CANADA                                                                                                                                               
PRCYTV   040501121617      000030YTV PROMO CONTRACT                                                                                                                                             
COMYTV   040501122510      000030MATTEL/KIDS CORP SPRING04/#3                                                                                                                                   
COMYTV   040501122540      000030SOBEY'S                                                                                                                                                        
COMYTV   040501122610      000030DAIMLER CHRYSLER LIMITED                                                                                                                                       
COMYTV   040501122640      000030KRAFT CANADA INC.                                                                                                                                              
PRCYTV   040501122710      000030YTV PROMO CONTRACT                                                                                                                                             
PRCYTV   040501122740      000030YTV PROMO CONTRACT                                                                                                                                             
ID YTV   040501122948      000012STATION ID                                                                                                                                                     
PGRYTV   040501123003123140000137DIGIMON                                           ICE ICE BABY         EPS 191                                         7 38307ECC                              
PSAYTV   040501123140123141000001HINTERLAND WHO/LEATHERBACK SEA                                                                                         1 000130                                
PGRYTV   040501123141130000002819DIGIMON                                           ICE ICE BABY         EPS 191                                         7 38307ECC                              
COMYTV   040501123240      000030FROMAGERIE BEL                                                                                                                                                 
COMYTV   040501123310      000030EFFEM FOODS LTD.                                                                                                                                               
COMYTV   040501124305      000030HASBRO/PRE-FALL                                                                                                                                                
COMYTV   040501124335      000030CLOROX                                                                                                                                                         
COMYTV   040501124405      000030SHAW  (ATTN: JENNIFER TURNER)                                                                                                                                  
COMYTV   040501124435      000030KIMBERLY-CLARK OF CANADA LTD.                                                                                                                                  
COMYTV   040501125612      000030KRAFT/KID P1 :30'S                                                                                                                                             
COMYTV   040501125642      000030L'OREAL CANADA                                                                                                                                                 
COMYTV   040501125712      000030HIGHWAY ENTERTAINMENT                                                                                                                                          
COMYTV   040501125742      000030MR. LUBE                                                                                                                                                       
PRCYTV   040501125812      000030YTV PROMO CONTRACT                                                                                                                                             
PRCYTV   040501125842      000030YTV PROMO CONTRACT                                                                                                                                             
ID YTV   040501125948      000012STATION ID                                                                                                                                                     
PGRYTV   040501130000132712002712VIDEO & ARCADE TOP TEN                            EPS 22                                            SIX   YTV   C22427 1 253100CC                              
COMYTV   040501130932      000030GENERAL MILLS CANADA INC.                                                                                                                                      
COMYTV   040501131002      000030TOPP'S                                                                                                                                                         
COMYTV   040501131032      000030HIGHWAY ENTERTAINMENT                                                                                                                                          
COMYTV   040501131102      000030KRAFT/KID P1 :30'S                                                                                                                                             
COMYTV   040501132105      000030MATTEL CANADA INC.                                                                                                                                             
COMYTV   040501132135      000030KRAFT CANADA INC.                                                                                                                                              
COMYTV   040501132205      000030WALMART                                                                                                                                                        
COMYTV   040501132235      000030EXPEDIA.CA                                                                                                                                                     
COMYTV   040501132542      000030MATTEL/KIDS CORP SPRING04/#3                                                                                                                                   
COMYTV   040501132612      000030KELLOGG CANADA INC.                                                                                                                                            
COMYTV   040501132642      000030MAPLE LEAF FOOD INC.                                                                                                                                           
PSAYTV   040501132712132742000030KIDS HELP/DINNER                                                                                                       1 000130                                
PGRYTV   040501132742133000000218VIDEO & ARCADE TOP TEN                            EPS 22                                            SIX   YTV   C22427 1 353100CC                              
ID YTV   040501132947      000012STATION ID                                                                                                                                                     
PGRYTV   040501133000140005003005ZIXX LEVEL ONE                                    PHUNKEE ZEE          EPS 1                        PHUNKEYTV   C21727 1 35307ACC                              
COMYTV   040501133250      000030MCDONALDS/HAPPY MEAL                                                                                                                                           
COMYTV   040501133320      000030SPIN MASTER TOYS INC.                                                                                                                                          
COMYTV   040501133350      000030KRAFT CANADA INC.                                                                                                                                              
COMYTV   040501133420      000030MAPLE LEAF FOOD INC.                                                                                                                                           
COMYTV   040501134430      000030KRAFT/KID P1 :30'S                                                                                                                                             
COMYTV   040501134500      000030MICROCELL                                                                                                                                                      
COMYTV   040501134530      000030GENERAL MOTORS OF CANADA LTD.                                                                                                                                  
COMYTV   040501134600      000030PEPSICO                                                                                                                                                        
COMYTV   040501135623      000030MATTEL/KIDS CORP SPRING04/#3                                                                                                                                   
COMYTV   040501135653      000030GLAXO/SMITHKLINE BEECHAM                                                                                                                                       
COMYTV   040501135723      000030ZELLERS INC.                                                                                                                                                   
COMYTV   040501135753      000030KRAFT CANADA INC.                                                                                                                                              
ID YTV   040501135951      000012STATION ID                                                                                                                                                     
PGRYTV   040501140005143007003002KNIGHTS OF THE ZODIAC                             DRAGON'S SACRIFICE     EP 28                                  D02175 7 28307ECC2                             
COMYTV   040501140109      000015WARNER BROS/NEW YORK MINUTE                                                                                                                                    
COMYTV   040501140124      000030MATTEL CANADA INC.                                                                                                                                             
COMYTV   040501140154      000030HIGHWAY ENTERTAINMENT                                                                                                                                          
COMYTV   040501140224      000030SOBEY'S                                                                                                                                                        
COMYTV   040501140254      000015KRAFT CANADA INC.                                                                                                                                              
COMYTV   040501141330      000015NIVEA CREAM                                                                                                                                                    
COMYTV   040501141345      000030GLAXO/SMITHKLINE BEECHAM                                                                                                                                       
COMYTV   040501141415      000030MR. LUBE                                                                                                                                                       
COMYTV   040501141445      000030GILLETTE CANADA INC.                                                                                                                                           
COMYTV   040501141515      000015SUBWAY SUBS                                                                                                                                                    
PRCYTV   040501141530      000030YTV PROMO CONTRACT                                                                                                                                             
COMYTV   040501142644      000030MATTEL/BONUS CONTRACT                                                                                                                                          
COMYTV   040501142714      000030EFFEM FOODS LTD.                                                                                                                                               
COMYTV   040501142744      000030GENERAL MILLS CANADA INC.                                                                                                                                      
COMYTV   040501142814      000030GLAXO/SMITHKLINE BEECHAM                                                                                                                                       
PRCYTV   040501142844      000030YTV PROMO CONTRACT                                                                                                                                             
ID YTV   040501142951      000012STATION ID                                                                                                                                                     
PGRYTV   040501143007150000002953BEASTIES (#1-26)                                  PT2 - TRIGGER PART TWO EP17                       ALLIANYTV   C13141 1 35307ECC                              
COMYTV   040501143724      000030KELLOGG/FROOT LOOPS                                                                                                                                            
COMYTV   040501143754      000030PEPSICO                                                                                                                                                        
COMYTV   040501143824      000030SHAW  (ATTN: JENNIFER TURNER)                                                                                                                                  
COMYTV   040501143854      000030MATTEL/BONUS CONTRACT                                                                                                                                          
COMYTV   040501144537      000030TOPP'S                                                                                                                                                         
COMYTV   040501144607      000030MATTEL CANADA INC.                                                                                                                                             
COMYTV   040501144637      000030L'OREAL CANADA                                                                                                                                                 
COMYTV   040501144707      000030MATTEL CANADA INC.                                                                                                                                             
PRCYTV   040501144737      000015YTV PROMO CONTRACT                                                                                                                                             
PRCYTV   040501144752      000015YTV PROMO CONTRACT                                                                                                                                             
COMYTV   040501145508      000030KIMBERLY-CLARK OF CANADA LTD.                                                                                                                                  
COMYTV   040501145538      000030GENERAL MOTORS OF CANADA LTD.                                                                                                                                  
COMYTV   040501145608      000030MATTEL CANADA INC.                                                                                                                                             
COMYTV   040501145638      000030GLAXO/SMITHKLINE BEECHAM                                                                                                                                       
ID YTV   040501145945      000012STATION ID                                                                                                                                                     
PGRYTV   040501150000153004003004THE BOY                                           ONE PLUS ONE EQUALS DEAD                          TOONCAYTV   A58646 1 25307ECC                              
COMYTV   040501151036      000030KELLOGG/RICE KRISPIES                                                                                                                                          
COMYTV   040501151106      000030WHIRLPOOL CANADA                                                                                                                                               
COMYTV   040501151136      000030KRAFT CANADA INC.                                                                                                                                              
COMYTV   040501151206      000030MATTEL CANADA INC.                                                                                                                                             
COMYTV   040501151840      000015CHURCH & DWIGHT                                                                                                                                                
COMYTV   040501151855      000030SOBEY'S                                                                                                                                                        
COMYTV   040501151925      000030SPIN MASTER/STINK BLASTER                                                                                                                                      
COMYTV   040501151955      000030FROMAGERIE BEL                                                                                                                                                 
COMYTV   040501152025      0000153M                                                                                                                                                             
COMYTV   040501152725      000030KRAFT/KID P1 :30'S                                                                                                                                             
COMYTV   040501152755      000030GENERAL MOTORS OF CANADA LTD.                                                                                                                                  
COMYTV   040501152825      000030TOPP'S/PUSH POPS/BABY BOTTLE P                                                                                                                                 
COMYTV   040501152855      000030KRAFT CANADA INC.                                                                                                                                              
ID YTV   040501152951      000012STATION ID                                                                                                                                                     
PGRYTV   040501153004160000002956ASTRO BOY                                         REVIVING JUMBO            EP12                                       2 28307ECC                              
COMYTV   040501153429      000015SPIN MASTER TOYS/BUBLE WAND/15                                                                                                                                 
COMYTV   040501153444      000030KRAFT CANADA INC.                                                                                                                                              
COMYTV   040501153514      000030JOHNSON & JOHNSON INC.                                                                                                                                         
COMYTV   040501153544      000030MICROCELL                                                                                                                                                      
COMYTV   040501153614      000015HASBRO/PRE-FALL                                                                                                                                                
PRCYTV   040501153629      000030YTV PROMO CONTRACT                                                                                                                                             
PRCYTV   040501153659      000030YTV PROMO CONTRACT                                                                                                                                             
COMYTV   040501154325      000030MATTEL/KIDS CORP SPRING04/#3                                                                                                                                   
COMYTV   040501154355      000030MR. LUBE                                                                                                                                                       
COMYTV   040501154425      000030MAPLE LEAF FOOD INC.                                                                                                                                           
COMYTV   040501154455      000030MATTEL CANADA INC.                                                                                                                                             
PRCYTV   040501154525      000030YTV PROMO CONTRACT                                                                                                                                             
PRCYTV   040501154555      000030YTV PROMO CONTRACT                                                                                                                                             
COMYTV   040501155305      000030SPIN MASTER/BOY COMBO                                                                                                                                          
COMYTV   040501155335      000030SOBEY'S                                                                                                                                                        
COMYTV   040501155405      000030KELLOGG CANADA INC.                                                                                                                                            
COMYTV   040501155435      000030HIGHWAY ENTERTAINMENT                                                                                                                                          
ID YTV   040501155948      000012STATION ID                                                                                                                                                     
PGRYTV   040501160000173000013000GLOBEHUNTERS                                      GLOBEHUNTERS: AROUND WORLD                                          A2 38307E                                
COMYTV   040501161341      000030CHRYSLER/DODGE CARAVAN                                                                                                                                         
COMYTV   040501161411      000030MATTEL/KIDS CORP SPRING04/#3                                                                                                                                   
COMYTV   040501161441      000030KELLOGG/FROOT LOOPS                                                                                                                                            
COMYTV   040501161511      000030KRAFT/HEAVY-UP WOMEN                                                                                                                                           
COMYTV   040501161541      000030P&G/CORPORATE BASE 52 WEEK                                                                                                                                     
COMYTV   040501161611      000030PEPSICO/TROPICANA PURE PREMIUM                                                                                                                                 
COMYTV   040501162225      000030J&J/BABY SOFT WASH :30'S                                                                                                                                       
COMYTV   040501162255      000030KRAFT/KID P1 :30'S                                                                                                                                             
COMYTV   040501162325      000100CDN TIRE/DECOR-4091-04-01                                                                                                                                      
COMYTV   040501162425      000030MATTEL/KIDS CORP SPRING04/#3                                                                                                                                   
COMYTV   040501162455      000030P&G/CORPORATE-PRE-EMPTIBLE                                                                                                                                     
COMYTV   040501164043      000030KRAFT/RITZ SCUBA                                                                                                                                               
COMYTV   040501164113      000030P&G/CORPORATE BASE 52 WEEK                                                                                                                                     
COMYTV   040501164143      000030SHAW                                                                                                                                                           
COMYTV   040501164213      000030HWY/ADULT BARTER HIGH DEM SPR                                                                                                                                  
COMYTV   040501164243      000030MR.LUBE/SPRING-3272-TV-05                                                                                                                                      
PROYTV   040501164313      000030YTV PROMO/OAP NON-CANADIAN                                                                                                                                     
COMYTV   040501165239      000015PARAMOUNT/MEAN GIRLS                                                                                                                                           
COMYTV   040501165254      000030KRAFT/HEAVY-UP WOMEN                                                                                                                                           
COMYTV   040501165324      000030L'OREAL CANADA/TRUE MARCH                                                                                                                                      
COMYTV   040501165354      000030MATTEL/KIDS CORP SPRING04/#3                                                                                                                                   
COMYTV   040501165424      000030PEPSICO                                                                                                                                                        
COMYTV   040501165454      000030PRISZM BRANDS/KFC :30 SUMMER                                                                                                                                   
COMYTV   040501165524      000015J&J/CLEAN & CLEAR BONUS                                                                                                                                        
COMYTV   040501170823      000015J&J/CLEAN & CLEAR                                                                                                                                              
COMYTV   040501170838      000030KRAFT/KID P1 :30'S                                                                                                                                             
COMYTV   040501170908      000030MATTEL CANADA INC.                                                                                                                                             
COMYTV   040501170938      000030GENERAL MOTORS OF CANADA LTD.                                                                                                                                  
COMYTV   040501171008      000030MATTEL CANADA INC.                                                                                                                                             
COMYTV   040501171038      000030TOPP'S                                                                                                                                                         
COMYTV   040501171108      0000153M/NEXCARE - 3087*NX*01                                                                                                                                        
COMYTV   040501171957      000015WARNER BROS/NEW YORK MINUTE                                                                                                                                    
COMYTV   040501172012      000030MR. LUBE                                                                                                                                                       
COMYTV   040501172042      000030ZELLERS/HILLARY DUFF CLOTHING                                                                                                                                  
COMYTV   040501172112      000030DAIMLER CHRYSLER LIMITED                                                                                                                                       
COMYTV   040501172142      000030HIGHWAY ENTERTAINMENT                                                                                                                                          
COMYTV   040501172212      000030SUBWAY SUBS                                                                                                                                                    
COMYTV   040501172242      000015J&J/BAND-AID LIQUID                                                                                                                                            
PGRYTV   040501173000180001003001JACOB TWO TWO                                     JTT & SCHOLARS FOR DOLLARS                                           1 32307ECC                              
COMYTV   040501173629      000030PEPSICO/TROPICANA PURE PREMIUM                                                                                                                                 
COMYTV   040501173659      000100CDN TIRE/PRESSURE WASHER-FL 1                                                                                                                                  
COMYTV   040501173759      000030MATTEL/BONUS CONTRACT                                                                                                                                          
COMYTV   040501174639      000015J&J/CLEAN & CLEAR                                                                                                                                              
COMYTV   040501174654      000030GEN MOTORS/VARIOUS                                                                                                                                             
COMYTV   040501174724      000030MATTEL/KIDS CORP SPRING04/#3                                                                                                                                   
COMYTV   040501174754      000030SOBEY'S                                                                                                                                                        
COMYTV   040501174824      000015NIVEA CREAM/ELASTOPLAST                                                                                                                                        
COMYTV   040501175617      000030BVP/RAISING HELEN 30'S                                                                                                                                         
COMYTV   040501175647      000015J&J/BAND-AID LIQUID                                                                                                                                            
COMYTV   040501175702      000030GEN MOTORS/EQUINOX                                                                                                                                             
COMYTV   040501175732      000030ZELLERS INC.                                                                                                                                                   
COMYTV   040501175802      000015SUBWAY SUBS                                                                                                                                                    
ID YTV   040501175948      000012STATION ID                                                                                                                                                     
PGRYTV   040501180001183006003005ZIXX LEVEL ONE                                    IN FOR A PENNY          EPS 2                     PHUNKEYTV   C21727 1 35307ACC                              
COMYTV   040501180226      000015NIVEA CREAM/ELASTOPLAST                                                                                                                                        
COMYTV   040501180241      000100SEARS DR/SEARS PATIO SET                                                                                                                                       
COMYTV   040501180341      000030KELLOGG/RICE KRISPIES                                                                                                                                          
COMYTV   040501180411      000015SCOTT PAPER                                                                                                                                                    
COMYTV   040501181311      000030HASBRO/PRE-FALL                                                                                                                                                
COMYTV   040501181341      000100BELL CANADA/SYMPATICO DR                                                                                                                                       
COMYTV   040501181441      000030SOBEY'S/                                                                                                                                                       
COMYTV   040501182549      000015COLGATE/BIONICLES TOOTHBRUSH                                                                                                                                   
COMYTV   040501182604      000030SPIN MASTER/STINK BLASTER                                                                                                                                      
COMYTV   040501182634      000030KRAFT/CL-JJ                                                                                                                                                    
COMYTV   040501182704      000030MICROCELL                                                                                                                                                      
COMYTV   040501182734      000015SPIN MASTER TOYS INC.                                                                                                                                          
ID YTV   040501182953      000012STATION ID                                                                                                                                                     
PGRYTV   040501183006190000002954FREAKY STORIES                                    NOT THE WALTONS                                   BIGTIMYTV   A12032 1 35307ECC                              
COMYTV   040501183605      000015GLAX/SKB/AQUAFRESH X CLEAN3073                                                                                                                                 
COMYTV   040501183620      000100BELL CANADA/SYMPATICO DR                                                                                                                                       
COMYTV   040501183720      000030P&G/CORPORATE-PRE-EMPTIBLE                                                                                                                                     
COMYTV   040501183750      000015CHURCH & DWIGHT                                                                                                                                                
COMYTV   040501184303      000030TOPP'S/PUSH POPS/BABY BOTTLE P                                                                                                                                 
COMYTV   040501184333      000100KUMON NA/INTRODUCTION                                                                                                                                          
COMYTV   040501184433      000030GEN MOTORS/EQUINOX                                                                                                                                             
COMYTV   040501185021      000030FROMAGERIE BEL/MINI BABYBEL                                                                                                                                    
COMYTV   040501185051      000100BELL CANADA/SYMPATICO DR                                                                                                                                       
COMYTV   040501185151      000030KRAFT/HEAVY-UP WOMEN                                                                                                                                           
ID YTV   040501185948      000012STATION ID                                                                                                                                                     
PGRYTV   040501190000193000003000MARTIN MYSTERY                                    REVENGE OF THE DOPPLEGANGER                       MYSTERYTV   A85385 1 35307ECC                              
COMYTV   040501190624      000030K CLARK/HUGGIES :30'S ALONE                                                                                                                                    
COMYTV   040501190654      000030DELL COMPUTER/DIRECT RESPONSE                                                                                                                                  
COMYTV   040501190724      000030EXPEDIA.CA                                                                                                                                                     
COMYTV   040501190754      000030CLOROX                                                                                                                                                         
PRCYTV   040501190824      000015YTV PROMO CONTRACT                                                                                                                                             
COMYTV   040501191454      000015GILLETTE CANADA INC.                                                                                                                                           
COMYTV   040501191509      000030SPIN MASTER/RC DEFENDER                                                                                                                                        
COMYTV   040501191539      000030KRAFT/RITZ SCUBA                                                                                                                                               
COMYTV   040501191609      000030MATTEL CANADA INC.                                                                                                                                             
COMYTV   040501191639      000015KIMBERLY-CLARK OF CANADA LTD.                                                                                                                                  
COMYTV   040501192313      000015SCOTT PAPER/SCOTTIES                                                                                                                                           
COMYTV   040501192328      000030FROMAGERIE BEL                                                                                                                                                 
COMYTV   040501192358      000030K CLARK/HUGGIES :30'S ALONE                                                                                                                                    
COMYTV   040501192428      000030GENERAL MILLS CANADA INC.                                                                                                                                      
COMYTV   040501192458      000015HASBRO/PRE-FALL                                                                                                                                                
ID YTV   040501192948      000012STATION ID                                                                                                                                                     
PGRYTV   040501193000200030003030MYSTERY HUNTERS                                   BIG FOOT/SKUNK APE/LAB EPS 1                      APARTMYTV   C20141 1 35305BCC                              
COMYTV   040501193658      000030KRAFT/WM VARIOUS:ASSOC. HAL                                                                                                                                    
COMYTV   040501193728      000030EFFEM FOODS LTD.                                                                                                                                               
COMYTV   040501193758      000030MCDONALDS/HAPPY MEAL                                                                                                                                           
COMYTV   040501193828      000030MR. LUBE                                                                                                                                                       
COMYTV   040501194703      000030KRAFT/HEAVY-UP WOMEN                                                                                                                                           
COMYTV   040501194733      000100KUMON NA/INTRODUCTION                                                                                                                                          
COMYTV   040501194833      000030SPIN MASTER TOYS INC.                                                                                                                                          
COMYTV   040501195749      000015SCOTT PAPER                                                                                                                                                    
COMYTV   040501195804      000030PEPSICO/DORITOS                                                                                                                                                
COMYTV   040501195834      000030SPIN MASTER/BOY COMBO                                                                                                                                          
COMYTV   040501195904      000030NESTLE CANADA INC.                                                                                                                                             
COMYTV   040501195934      000015NIVEA CREAM                                                                                                                                                    
ID YTV   040501200019      000012STATION ID                                                                                                                                                     
PGRYTV   040501200030220000015930LADYBUGS                                          LADYBUGS                                                             2 18807DCC                              
COMYTV   040501201301      000015CLOROX                                                                                                                                                         
COMYTV   040501201316      000030KRAFT/HEAVY-UP WOMEN                                                                                                                                           
COMYTV   040501201346      000030GLAXO/SMITH/BEECH/SENSODYNE                                                                                                                                    
COMYTV   040501201416      000030KRAFT/HEAVY-UP WOMEN                                                                                                                                           
COMYTV   040501201446      000030K CLARK/HUGGIES ALONE 22 WKS                                                                                                                                   
COMYTV   040501201516      000030GENERAL MILLS CANADA INC.                                                                                                                                      
COMYTV   040501201546      000015GILLETTE CANADA INC.                                                                                                                                           
PRCYTV   040501201601      000030YTV PROMO CONTRACT                                                                                                                                             
PRCYTV   040501201631      000030YTV PROMO CONTRACT                                                                                                                                             
COMYTV   040501202511      000030ZELLERS/HILLARY DUFF CLOTHING                                                                                                                                  
COMYTV   040501202541      000030CLOROX/GLAD WASTE :30'S                                                                                                                                        
COMYTV   040501202611      000100KUMON NA/INTRODUCTION                                                                                                                                          
COMYTV   040501202711      000030L'OREAL CANADA/TRUE MARCH                                                                                                                                      
COMYTV   040501202741      000030KRAFT/CHEEZ WHIZ                                                                                                                                               
PRCYTV   040501202811      000030YTV PROMO CONTRACT                                                                                                                                             
PRCYTV   040501202841      000030YTV PROMO CONTRACT                                                                                                                                             
COMYTV   040501204148      000015KRAFT/KID P1 :15'S                                                                                                                                             
COMYTV   040501204203      000015GLAX/SKB/AQUAFRESH X CLEAN3073                                                                                                                                 
COMYTV   040501204218      000030KRAFT/RITZ SCUBA                                                                                                                                               
COMYTV   040501204248      000100CDN TIRE/PRESSURE WASHER-FL 1                                                                                                                                  
COMYTV   040501204348      000030KRAFT/HEAVY-UP WOMEN                                                                                                                                           
COMYTV   040501204418      0000153M/NEXCARE - 3087*NX*01                                                                                                                                        
COMYTV   040501204433      000015SPIN MASTER TOYS INC.                                                                                                                                          
PRCYTV   040501204448      000030YTV PROMO CONTRACT                                                                                                                                             
PRCYTV   040501204518      000030YTV PROMO CONTRACT                                                                                                                                             
COMYTV   040501205447      000030BVP/RAISING HELEN 30'S                                                                                                                                         
COMYTV   040501205517      000015J&J/CAREFREE                                                                                                                                                   
COMYTV   040501205532      000030KRAFT/CL-JJ                                                                                                                                                    
COMYTV   040501205602      000030MR.LUBE/SPRING-3272-TV-05                                                                                                                                      
COMYTV   040501205632      000030KRAFT/KID P1 :30'S                                                                                                                                             
COMYTV   040501205702      000030MICROCELL                                                                                                                                                      
COMYTV   040501205732      000015KIMBERLY-CLARK OF CANADA LTD.                                                                                                                                  
PRCYTV   040501205747      000030YTV PROMO CONTRACT                                                                                                                                             
PRCYTV   040501205817      000030YTV PROMO CONTRACT                                                                                                                                             
COMYTV   040501210921      000015J&J/BAND-AID LIQUID                                                                                                                                            
COMYTV   040501210936      000030GEN MOTORS/EQUINOX                                                                                                                                             
COMYTV   040501211006      000030ZELLERS/HILLARY DUFF CLOTHING                                                                                                                                  
COMYTV   040501211036      000100SEARS DR/SEARS PATIO SET                                                                                                                                       
COMYTV   040501211136      000030KRAFT/KID P1 :30'S                                                                                                                                             
COMYTV   040501211206      000015CLOROX/PINE-SOL :15'S                                                                                                                                          
PRCYTV   040501211221      000030YTV PROMO CONTRACT                                                                                                                                             
