PGRYTV   020901060000062607002607MONA THE VAMPIRE                                  POTATO FISH/IT'S ALL EPS 39                       CINAR YTV   A68348 1 35107ECC                              
PRCYTV   020901060106      000030YTV PROMO CONTRACT                                                                                                                                             
PRCYTV   020901061242      000030YTV PROMO CONTRACT                                                                                                                                             
PRCYTV   020901062418      000030YTV PROMO CONTRACT                                                                                                                                             
PRCYTV   020901062525      000030YTV PROMO CONTRACT                                                                                                                                             
PRCYTV   020901062555      000015YTV PROMO CONTRACT                                                                                                                                             
INTYTV   020901062607063010000403MY SPECIAL BOOK                                   PAKA & HER DUSTY ROOM EP1                                            1 311120CC                              
ID YTV   020901062958      000012STATION ID                                                                                                                                                     
PGRYTV   020901063010065504002454LEGEND OF WHITE FANG                              THE TRAP EPS 1.                                               P10719 1 35107ACC                              
PRCYTV   020901065351      000030YTV PROMO CONTRACT                                                                                                                                             
PRCYTV   020901065421      000015YTV PROMO CONTRACT                                                                                                                                             
PRCYTV   020901065436      000015YTV PROMO CONTRACT                                                                                                                                             
PGRYTV   020901065504070004000500FUZZPAWS                                          TEAMWORK EP50                                                        1 31107G                                
ID YTV   020901065952      000012STATION ID                                                                                                                                                     
PGRYTV   020901070004072535002531WATERSHIP DOWN                                    THE SECRET OF REDSTONE EPS 31                     WATERSYTV   A65090 1 35107ECC                              
PRCYTV   020901070936      000030YTV PROMO CONTRACT                                                                                                                                             
PRCYTV   020901071659      000030YTV PROMO CONTRACT                                                                                                                                             
PRCYTV   020901072422      000030YTV PROMO CONTRACT                                                                                                                                             
PRCYTV   020901072452      000015YTV PROMO CONTRACT                                                                                                                                             
INTYTV   020901072535072835000300NANALAN'                                          NAP SWAP EP31                                                        1 351120                                
INTYTV   020901072835073000000125SOCCER VIGNETTES                                  EP 4                                                                 1 311120                                
ID YTV   020901072937      000012STATION ID                                                                                                                                                     
PGRYTV   020901073000075303002303MONSTER BY MISTAKE                                THE BIG DIG EP17.                                 MONSTEYTV   A30283 1 35107ECC                              
INTYTV   020901075303075503000200TECH ART                                          EP 45                                                                1 311120                                
INTYTV   020901075503080001000458BIG SISTER,LITTLE BROTHER                         THE VACUUM CLEANER EPS 9                                             3 381120                                
PRCYTV   020901075749      000030YTV PROMO CONTRACT                                                                                                                                             
PRCYTV   020901075819      000030YTV PROMO CONTRACT                                                                                                                                             
PRCYTV   020901075849      000030YTV PROMO CONTRACT                                                                                                                                             
PRCYTV   020901075919      000030YTV PROMO CONTRACT                                                                                                                                             
ID YTV   020901075949      000012STATION ID                                                                                                                                                     
PGRYTV   0209010800010829290029287 LITTLE MONSTERS                                 PLEASE MR.POSTMAN  EP 6                           NELVAN             1 32107ECC                              
PRCYTV   020901080652      000030YTV PROMO CONTRACT                                                                                                                                             
PRCYTV   020901080722      000030YTV PROMO CONTRACT                                                                                                                                             
PRCYTV   020901081322      000030YTV PROMO CONTRACT                                                                                                                                             
PRCYTV   020901081352      000030YTV PROMO CONTRACT                                                                                                                                             
PRCYTV   020901082043      000030YTV PROMO CONTRACT                                                                                                                                             
PRCYTV   020901082113      000030YTV PROMO CONTRACT                                                                                                                                             
ID YTV   020901082919      000012STATION ID                                                                                                                                                     
PGRYTV   020901082929085346002417ULTIMATE BOOK OF SPELLS                           VEIL OF ILLUSION  EPS 19                                             4 38107ECC                              
PRCYTV   020901083835      000030YTV PROMO CONTRACT                                                                                                                                             
PRCYTV   020901084512      000030YTV PROMO CONTRACT                                                                                                                                             
PRCYTV   020901085214      000030YTV PROMO CONTRACT                                                                                                                                             
PRCYTV   020901085244      000030YTV PROMO CONTRACT                                                                                                                                             
PGRYTV   020901085346085849000503ANIMAL STORIES                                    MELVIN THE MOOSE EP51                                                3 38107E                                
INTYTV   020901085849085958000109PROGRAM JOCKEY                                    PROGRAM JOCKEY                                                       1 211120                                
ID YTV   020901085937      000012STATION ID                                                                                                                                                     
PGRYTV   020901085958092757002759HAMTARO                                           COME OUT, BIJOU!  EP 4                                        D02043 7 38307ECC2                             
COMYTV   020901090112      000030KRAFT/KIDS :30'S W/O 8/26                                                                                                                                      
COMYTV   020901090142      000015HASBRO/CORPORATE PREFALL                                                                                                                                       
COMYTV   020901090157      000015TOPP'S/RING POPS&TWISTED RING                                                                                                                                  
PROYTV   020901090212      000030YTV PROMO CONTRACT                                                                                                                                             
PROYTV   020901090242      000030YTV PROMO CONTRACT                                                                                                                                             
COMYTV   020901090922      000030KRAFT/KIDS :30'S W/O 8/26                                                                                                                                      
COMYTV   020901090952      000030BVHP/RETURN TO NEVERLAND                                                                                                                                       
COMYTV   020901091022      000030MCDONALDS/CORPORATE HAPPY MEAL                                                                                                                                 
COMYTV   020901091052      000030BACK TO SCHOOL/VARIOUS                                                                                                                                         
PRCYTV   020901091122      000030YTV PROMO CONTRACT                                                                                                                                             
PRCYTV   020901091152      000030YTV PROMO CONTRACT                                                                                                                                             
COMYTV   020901091824      000030FERRERO/KINDERSURPRISE                                                                                                                                         
COMYTV   020901091854      000030GENERAL MILLS/TRADITIONAL                                                                                                                                      
PRCYTV   020901091924      000030YTV PROMO CONTRACT                                                                                                                                             
PRCYTV   020901091954      000030YTV PROMO CONTRACT                                                                                                                                             
PRCYTV   020901092024      000030YTV PROMO CONTRACT                                                                                                                                             
ID YTV   020901092744      000012STATION ID                                                                                                                                                     
PGRYTV   020901092757095929003132BIG TEETH, BAD BREATH                             BARRY'S CLOSE ENCOUNTERSEPS 16                    SEXTANYTV   A61231 1 35307GCC                              
SPOYTV   020901093805      000010YTV CO-MKTG/IMAGINEX PROMOTION                                                                                                                                 
COMYTV   020901093815      000030KRAFT/KIDS :30'S W/O 8/26                                                                                                                                      
COMYTV   020901093845      000030HASBRO-BEYBLADE-W.O.W. SPONSOR                                                                                                                                 
PROYTV   020901093915      000030YTV PROMO CONTRACT                                                                                                                                             
PROYTV   020901093945      000030YTV PROMO CONTRACT                                                                                                                                             
PRCYTV   020901094015      000030YTV PROMO CONTRACT                                                                                                                                             
COMYTV   020901094938      000030KRAFT/KIDS :30'S W/O 8/26                                                                                                                                      
COMYTV   020901095008      000100KRAFT/KIDS :60'S SPY KID PROMO                                                                                                                                 
COMYTV   020901095108      000030MCDONALDS/CORPORATE HAPPY MEAL                                                                                                                                 
PRCYTV   020901095138      000030YTV PROMO CONTRACT                                                                                                                                             
PRCYTV   020901095208      000030YTV PROMO CONTRACT                                                                                                                                             
COMYTV   020901095554      000030GENERAL MILLS/TRADITIONAL                                                                                                                                      
COMYTV   020901095624      000030FERRERO/KINDERSURPRISE                                                                                                                                         
PRCYTV   020901095654      000030YTV PROMO CONTRACT                                                                                                                                             
PRCYTV   020901095724      000030YTV PROMO CONTRACT                                                                                                                                             
PRCYTV   020901095754      000030YTV PROMO CONTRACT                                                                                                                                             
ID YTV   020901095915      000012STATION ID                                                                                                                                                     
PGRYTV   020901095929102906002937PINKY AND THE BRAIN                               THE PINKY PROTOCOL EP36                                              2 38307ECC                              
SPOYTV   020901100038      000010YTV CO-MKTG/IMAGINEX PROMOTION                                                                                                                                 
COMYTV   020901100048      000030KRAFT/KIDS :30'S W/O 8/26                                                                                                                                      
COMYTV   020901100118      000030BACK TO SCHOOL/VARIOUS                                                                                                                                         
PROYTV   020901100148      000030YTV PROMO CONTRACT                                                                                                                                             
PROYTV   020901100218      000030YTV PROMO CONTRACT                                                                                                                                             
PRCYTV   020901100248      000015YTV PROMO CONTRACT                                                                                                                                             
COMYTV   020901100947      000030MCDONALDS/CORPORATE HAPPY MEAL                                                                                                                                 
COMYTV   020901101017      000015HASBRO/CORPORATE PREFALL                                                                                                                                       
COMYTV   020901101032      000030KELLOGG/KIDS FALL                                                                                                                                              
COMYTV   020901101102      000030MINUTE MAID/BIBO-W.O.W. SPONS                                                                                                                                  
COMYTV   020901101132      000015BVHV/MICKEY HOUSE VILLAIN                                                                                                                                      
PRCYTV   020901101147      000030YTV PROMO CONTRACT                                                                                                                                             
PRCYTV   020901101217      000030YTV PROMO CONTRACT                                                                                                                                             
PRCYTV   020901101247      000030YTV PROMO CONTRACT                                                                                                                                             
COMYTV   020901102052      000030FERRERO/KINDERSURPRISE                                                                                                                                         
COMYTV   020901102122      000015KRAFT/KID'S :15'S W/O 8/26                                                                                                                                     
COMYTV   020901102137      000015TOPP'S/TRIPLE POWER PUPS                                                                                                                                       
PROYTV   020901102152      000030YTV PROMO CONTRACT                                                                                                                                             
PROYTV   020901102222      000030YTV PROMO CONTRACT                                                                                                                                             
PRCYTV   020901102252      000030YTV PROMO CONTRACT                                                                                                                                             
INTYTV   020901102906103003000057PROGRAM JOCKEY                                    PROGRAM JOCKEY                                                       1 213120                                
ID YTV   020901102947      000012STATION ID                                                                                                                                                     
PGRYTV   020901103003105911002908DEXTER'S LABORATORY                               DEE DEE BE DEEP/911/DOWN IN                                          2 38307ECC                              
SPOYTV   020901103727      000010YTV CO-MKTG/IMAGINEX PROMOTION                                                                                                                                 
COMYTV   020901103737      000015TOPP'S/RING POPS&TWISTED RING                                                                                                                                  
COMYTV   020901103752      000015BVHV/RETURN TO NEVERLAND                                                                                                                                       
COMYTV   020901103807      000030GENERAL MILLS/TRADITIONAL                                                                                                                                      
PRCYTV   020901103837      000030YTV PROMO CONTRACT                                                                                                                                             
PRCYTV   020901103907      000030YTV PROMO CONTRACT                                                                                                                                             
COMYTV   020901104634      000030KRAFT/KIDS :30'S W/O 8/26                                                                                                                                      
COMYTV   020901104704      000030HASBRO-BEYBLADE-W.O.W. SPONSOR                                                                                                                                 
COMYTV   020901104734      000030KRAFT/KIDS :30'S W/O 8/26                                                                                                                                      
COMYTV   020901104804      000030MCDONALDS/CORPORATE HAPPY MEAL                                                                                                                                 
PRCYTV   020901104834      000030YTV PROMO CONTRACT                                                                                                                                             
COMYTV   020901105318      000030GENERAL MILLS/TRADITIONAL                                                                                                                                      
COMYTV   020901105348      000030FERRERO/KINDERSURPRISE                                                                                                                                         
PRCYTV   020901105418      000030YTV PROMO CONTRACT                                                                                                                                             
PRCYTV   020901105448      000030YTV PROMO CONTRACT                                                                                                                                             
INTYTV   020901105911110009000058PROGRAM JOCKEY                                    PROGRAM JOCKEY                                                       1 213120                                
ID YTV   020901105952      000012STATION ID                                                                                                                                                     
PGRYTV   020901110009113008002959SPONGEBOB SQUAREPANTS                             S.B.129/KARATE CHOPPERS EP14                                         2 38307ECC                              
COMYTV   020901110053      000015TOPP'S/TRIPLE POWER PUPS                                                                                                                                       
COMYTV   020901110108      000030KRAFT/KIDS :30'S W/O 8/26                                                                                                                                      
COMYTV   020901110138      000015LAURENTION/COLOUR PENCILS-MARK                                                                                                                                 
PRCYTV   020901110153      000030YTV PROMO CONTRACT                                                                                                                                             
COMYTV   020901111400      000030MCDONALDS/CORPORATE HAPPY MEAL                                                                                                                                 
COMYTV   020901111430      000100KRAFT/KIDS :60'S SPY KID PROMO                                                                                                                                 
COMYTV   020901111530      000030GENERAL MILLS/TRADITIONAL                                                                                                                                      
COMYTV   020901112707      000015TOPP'S/RING POPS&TWISTED RING                                                                                                                                  
COMYTV   020901112722      000015KRAFT/KID'S :15'S W/O 8/26                                                                                                                                     
COMYTV   020901112737      000030KRAFT/KIDS :30'S W/O 8/26                                                                                                                                      
PROYTV   020901112807      000030YTV PROMO CONTRACT                                                                                                                                             
PRCYTV   020901112837      000030YTV PROMO CONTRACT                                                                                                                                             
ID YTV   020901112952      000012STATION ID                                                                                                                                                     
PGRYTV   020901113008115908002900WOODY WOODPECKER (NEW)                            K-9/CLOSE UP/GOPHER IT EP24                                          2 38307ECC                              
SPOYTV   020901113041      000010FERRERO/KINDERSURPRISE                                                                                                                                         
COMYTV   020901113051      000030KRAFT/KIDS :30'S W/O 8/26                                                                                                                                      
COMYTV   020901113121      000030BVHV/MICKEY HOUSE VILLAIN                                                                                                                                      
PROYTV   020901113151      000030YTV PROMO CONTRACT                                                                                                                                             
PROYTV   020901113221      000015YTV PROMO CONTRACT                                                                                                                                             
PRCYTV   020901113236      000015YTV PROMO CONTRACT                                                                                                                                             
COMYTV   020901113948      000030KRAFT/KIDS :30'S W/O 8/26                                                                                                                                      
COMYTV   020901114018      000030MCDONALDS/CORPORATE HAPPY MEAL                                                                                                                                 
COMYTV   020901114048      000015HASBRO/CORPORATE PREFALL                                                                                                                                       
COMYTV   020901114103      000030KELLOGG/KIDS FALL                                                                                                                                              
PRCYTV   020901114133      000030YTV PROMO CONTRACT                                                                                                                                             
PRCYTV   020901114203      000015YTV PROMO CONTRACT                                                                                                                                             
SPOYTV   020901114909      000010YTV CO-MKTG/IMAGINEX PROMOTION                                                                                                                                 
COMYTV   020901114919      000030FERRERO/KINDERSURPRISE                                                                                                                                         
COMYTV   020901114949      000015KRAFT/KID'S :15'S W/O 8/26                                                                                                                                     
COMYTV   020901115004      000015TOPP'S/RING POPS&TWISTED RING                                                                                                                                  
PRCYTV   020901115019      000030YTV PROMO CONTRACT                                                                                                                                             
PRCYTV   020901115049      000030YTV PROMO CONTRACT                                                                                                                                             
PROYTV   020901115119      000030YTV PROMO CONTRACT                                                                                                                                             
INTYTV   020901115908120006000058PROGRAM JOCKEY                                    PROGRAM JOCKEY                                                       1 213120                                
ID YTV   020901115954      000012STATION ID                                                                                                                                                     
PGRYTV   020901120006121820001814D'MYNA LEAGUES                                    BASEBALL...EPS 7                                  DMYNA YTV   A40241 1 35307ECC                              
SPOYTV   020901120809      000010MINUTE MAID/BIBO-W.O.W. SPONS                                                                                                                                  
COMYTV   020901120819      000030HOSTESS/F-L/PLANET LUNCH                                                                                                                                       
COMYTV   020901120849      000030MINUTE MAID/BIBO-W.O.W. SPONS                                                                                                                                  
COMYTV   020901120919      000030KRAFT/KIDS :30'S W/O 8/26                                                                                                                                      
COMYTV   020901120949      000030KRAFT/KIDS :30'S W/O 8/26                                                                                                                                      
COMYTV   020901121635      000030KELLOGG/KIDS FALL                                                                                                                                              
COMYTV   020901121705      000015BVHV/RETURN TO NEVERLAND                                                                                                                                       
COMYTV   020901121720      000030KRAFT/KIDS :30'S W/O 8/26                                                                                                                                      
COMYTV   020901121750      000030MCDONALDS/CORPORATE HAPPY MEAL                                                                                                                                 
PSAYTV   020901121820121835000015ARTISTS VS RACISM/HOOTIE&BLOWF                                                                                         1 000130                                
PGRYTV   020901121835123006001131D'MYNA LEAGUES                                    BASEBALL...EPS 7                                  DMYNA YTV   A40241 1 35307ECC                              
COMYTV   020901122654      000030GENERAL MILLS/TRADITIONAL                                                                                                                                      
COMYTV   020901122724      000030FERRERO/KINDERSURPRISE                                                                                                                                         
COMYTV   020901122754      000030BACK TO SCHOOL/VARIOUS                                                                                                                                         
COMYTV   020901122824      000030KRAFT/KIDS :30'S W/O 8/26                                                                                                                                      
PRCYTV   020901122854      000030YTV PROMO CONTRACT                                                                                                                                             
ID YTV   020901122954      000012STATION ID                                                                                                                                                     
PGRYTV   020901123006130011003005YVON OF THE YUKON                                 FROMAGE TO ETERNITY EP9                           YVON  YTV   A34357 1 35307ECC                              
COMYTV   020901124054      000030HOSTESS/F-L/PLANET LUNCH                                                                                                                                       
COMYTV   020901124124      000015BVHV/MICKEY HOUSE VILLAIN                                                                                                                                      
COMYTV   020901124139      000030KRAFT/KIDS :30'S W/O 8/26                                                                                                                                      
COMYTV   020901124209      000015HASBRO/CORPORATE PREFALL                                                                                                                                       
COMYTV   020901124224      000030KRAFT/KIDS :30'S W/O 8/26                                                                                                                                      
COMYTV   020901124706      000015KRAFT/KID'S :15'S W/O 8/26                                                                                                                                     
COMYTV   020901124721      000030MATTEL/FASHION DIVA                                                                                                                                            
COMYTV   020901124751      000015BVHV/RETURN TO NEVERLAND                                                                                                                                       
COMYTV   020901124806      000030GENERAL MILLS/TRADITIONAL                                                                                                                                      
COMYTV   020901124836      000030HASBRO-BEYBLADE-W.O.W. SPONSOR                                                                                                                                 
COMYTV   020901125728      000030KRAFT/KIDS :30'S W/O 8/26                                                                                                                                      
COMYTV   020901125758      000015DYNA TECH SYSTEMS/Z CARDS                                                                                                                                      
COMYTV   020901125813      000030KRAFT/KIDS :30'S W/O 8/26                                                                                                                                      
COMYTV   020901125843      000015LAURENTION/COLOUR PENCILS-MARK                                                                                                                                 
COMYTV   020901125858      000030MINUTE MAID/BIBO-W.O.W. SPONS                                                                                                                                  
ID YTV   020901125958      000012STATION ID                                                                                                                                                     
PGRYTV   020901130011133000002949SYSTEM CRASH                                      JOBS & RESPONSIBILITIES EP11                                  A18372 1 31307FCC                              
SPOYTV   020901130653      000010MINUTE MAID/BIBO-W.O.W. SPONS                                                                                                                                  
COMYTV   020901130703      000030HOSTESS/F-L/PLANET LUNCH                                                                                                                                       
COMYTV   020901130733      000030MCDONALDS/CORPORATE HAPPY MEAL                                                                                                                                 
COMYTV   020901130803      000030KRAFT/KIDS :30'S W/O 8/26                                                                                                                                      
COMYTV   020901130833      000030GENERAL MILLS/TRADITIONAL CHIL                                                                                                                                 
COMYTV   020901131335      000030KRAFT/KIDS :30'S W/O 8/26                                                                                                                                      
COMYTV   020901131405      000030MATTEL/FASHION DIVA                                                                                                                                            
COMYTV   020901131435      000030BVHP/RETURN TO NEVERLAND                                                                                                                                       
COMYTV   020901131505      000030KELLOGG/KIDS FALL                                                                                                                                              
COMYTV   020901132145      000015TOPP'S/RING POPS&TWISTED RING                                                                                                                                  
COMYTV   020901132200      000015J&J/KIDS SHAMPOO+LINE EX-FOAM                                                                                                                                  
COMYTV   020901132215      000030KRAFT/KIDS :30'S W/O 8/26                                                                                                                                      
COMYTV   020901132245      000030BVHV/MICKEY HOUSE VILLAIN                                                                                                                                      
COMYTV   020901132315      000030KRAFT/KIDS :30'S W/O 8/26                                                                                                                                      
PRCYTV   020901132345      000030YTV PROMO CONTRACT                                                                                                                                             
ID YTV   020901132948      000012STATION ID                                                                                                                                                     
PGRYTV   020901133000135949002949DON'T LICK THE PIG                                EP 2                                                                 1 31307FCC                              
COMYTV   020901133457      000030HOSTESS/F-L/PLANET LUNCH                                                                                                                                       
COMYTV   020901133527      000030FERRERO/KINDERSURPRISE                                                                                                                                         
COMYTV   020901133557      000030BOY SCOUTS OF CANADA                                                                                                                                           
COMYTV   020901133627      000030GENERAL MILLS/TRADITIONAL                                                                                                                                      
COMYTV   020901134456      000030KRAFT/KIDS :30'S W/O 8/26                                                                                                                                      
COMYTV   020901134526      000030MATTEL/FASHION DIVA                                                                                                                                            
COMYTV   020901134556      000015BVHV/RETURN TO NEVERLAND                                                                                                                                       
COMYTV   020901134611      000030GENERAL MILLS/TRADITIONAL CHIL                                                                                                                                 
COMYTV   020901134641      000015HASBRO/CORPORATE PREFALL                                                                                                                                       
COMYTV   020901135258      000030MCDONALDS/CORPORATE HAPPY MEAL                                                                                                                                 
COMYTV   020901135328      000030KRAFT/KIDS :30'S W/O 8/26                                                                                                                                      
COMYTV   020901135358      000030BVHV/MICKEY HOUSE VILLAIN                                                                                                                                      
COMYTV   020901135428      000030KELLOGG/KIDS 52 WEEK                                                                                                                                           
PRCYTV   020901135458      000030YTV PROMO CONTRACT                                                                                                                                             
PRCYTV   020901135528      000015YTV PROMO CONTRACT                                                                                                                                             
ID YTV   020901135936      000012STATION ID                                                                                                                                                     
PGRYTV   020901135949143004003015JACQUES COUSTEAU'S OCEAN TALES                    MONSTERS OF THE DEEP EP 12                        VIVAT0YTV   A59278 1 35307ECC                              
COMYTV   020901140756      000030HASBRO-BEYBLADE-W.O.W. SPONSOR                                                                                                                                 
COMYTV   020901140826      000030GENERAL MILLS/TRADITIONAL                                                                                                                                      
COMYTV   020901140856      000030FERRERO/KINDERSURPRISE                                                                                                                                         
COMYTV   020901140926      000030HOSTESS/F-L/PLANET LUNCH                                                                                                                                       
COMYTV   020901141608      000100KRAFT/KIDS :60'S SPY KID PROMO                                                                                                                                 
COMYTV   020901141708      000030BACK TO SCHOOL/VARIOUS                                                                                                                                         
COMYTV   020901141738      000030KRAFT/KIDS :30'S W/O 8/26                                                                                                                                      
COMYTV   020901142643      000015KRAFT/KID'S :15'S W/O 8/26                                                                                                                                     
COMYTV   020901142658      000015HASBRO/CORPORATE PREFALL                                                                                                                                       
COMYTV   020901142713      000030KRAFT/KIDS :30'S W/O 8/26                                                                                                                                      
COMYTV   020901142743      000030MCDONALDS/CORPORATE HAPPY MEAL                                                                                                                                 
COMYTV   020901142813      000030MATTEL/FASHION DIVA                                                                                                                                            
PRCYTV   020901142843      000030YTV PROMO CONTRACT                                                                                                                                             
PRCYTV   020901142913      000015YTV PROMO CONTRACT                                                                                                                                             
ID YTV   020901142951      000012STATION ID                                                                                                                                                     
PGRYTV   020901143004150044003040MYSTERY HUNTERS                                   OGOPOGO/MUMMY                                     APARTMYTV   C20142 1 35305ACC                              
SPOYTV   020901143630      000010BACK TO SCHOOL/VARIOUS                                                                                                                                         
COMYTV   020901143640      000030HWY/ADULT BARTER#4                                                                                                                                             
COMYTV   020901143710      000015LAURENTION/COLOUR PENCILS-MARK                                                                                                                                 
COMYTV   020901143725      000030FERRERO/KINDERSURPRISE                                                                                                                                         
COMYTV   020901143755      000015L'OREAL CANADA/KIDS                                                                                                                                            
COMYTV   020901143810      000030WALMART/CORPORATE                                                                                                                                              
COMYTV   020901144723      000030HWY/CASH LINE EXTENSIONS                                                                                                                                       
COMYTV   020901144753      000030KRAFT/KIDS :30'S W/O 8/26                                                                                                                                      
COMYTV   020901144823      000030ALLIANCE/AUSTIN/SPY KIDS#3                                                                                                                                     
COMYTV   020901144853      000030GENERAL MILLS/TRADITIONAL                                                                                                                                      
COMYTV   020901145801      000100KRAFT/KIDS :60'S SPY KID PROMO                                                                                                                                 
COMYTV   020901145901      000100P&G/CORPORATE BASE BUY                                                                                                                                         
ID YTV   020901150031      000012STATION ID                                                                                                                                                     
PGRYTV   020901150044153003002919POWER STONE                                       RUN TOWARD TOMORROW EP18                                      D01748 7 28307ECC2                             
COMYTV   020901150255      000030GRAND & TOY/BACK TO SCHOOL                                                                                                                                     
COMYTV   020901150325      000030KRAFT/KIDS :30'S W/O 8/26                                                                                                                                      
COMYTV   020901150355      000030HWY/ADULT BARTER #2                                                                                                                                            
COMYTV   020901150425      000030K CLARK/PULL-UPS                                                                                                                                               
COMYTV   020901151438      000015GILLETTE/SOFT & DRY                                                                                                                                            
COMYTV   020901151453      000030ALLIANCE/AUSTIN/SPY KIDS#3                                                                                                                                     
COMYTV   020901151523      000015HASBRO/CORPORATE PREFALL                                                                                                                                       
COMYTV   020901151538      000030GENERAL MILLS/PIZZA POPS-FALL                                                                                                                                  
COMYTV   020901151608      000030STAPLES BUS DEPOT/BACK TO SCHO                                                                                                                                 
COMYTV   020901152659      000015ARM&HAMMER/BAKING SODA                                                                                                                                         
COMYTV   020901152714      000030GRAND & TOY/BACK TO SCHOOL                                                                                                                                     
COMYTV   020901152744      000030CAMPBELLS/GOLDFISH WOMEN                                                                                                                                       
COMYTV   020901152814      000015J&J/HAIR CARE                                                                                                                                                  
COMYTV   020901152829      000030KELLOGG/KIDS FALL                                                                                                                                              
PRCYTV   020901152859      000015YTV PROMO CONTRACT                                                                                                                                             
ID YTV   020901152951      000012STATION ID                                                                                                                                                     
PGRYTV   020901153003160003003000YU-GI-OH                                          BLACK LUSTER SOLDIER DESCENDS                                        7 38307ECC                              
SPOYTV   020901153632      000010HASBRO-BEYBLADE-W.O.W. SPONSOR                                                                                                                                 
COMYTV   020901153642      000015TOPP'S/TRIPLE POWER PUPS                                                                                                                                       
COMYTV   020901153657      000030MCDONALDS/CORPORATE HAPPY MEAL                                                                                                                                 
COMYTV   020901153727      000030HOSTESS/F-L/PLANET LUNCH                                                                                                                                       
COMYTV   020901153757      000015BVHV/RETURN TO NEVERLAND                                                                                                                                       
COMYTV   020901153812      000030GEN MILLS/CTC NON ANIMATED                                                                                                                                     
PRCYTV   020901153842      000030YTV PROMO CONTRACT                                                                                                                                             
COMYTV   020901154454      000030KRAFT/KIDS :30'S W/O 8/26                                                                                                                                      
COMYTV   020901154524      000015LAURENTION/COLOUR PENCILS-MARK                                                                                                                                 
COMYTV   020901154539      000030GENERAL MILLS/TRADITIONAL                                                                                                                                      
COMYTV   020901154609      000015TOPP'S/RING POPS&TWISTED RING                                                                                                                                  
COMYTV   020901154624      000030KRAFT/KIDS :30'S W/O 8/26                                                                                                                                      
PRCYTV   020901154654      000030YTV PROMO CONTRACT                                                                                                                                             
COMYTV   020901155236      000015HASBRO/CORPORATE PREFALL                                                                                                                                       
COMYTV   020901155251      000015BVHV/MICKEY HOUSE VILLAIN                                                                                                                                      
COMYTV   020901155306      000030HWY/ADULT BARTER#4                                                                                                                                             
COMYTV   020901155336      000030MATTEL/FASHION DIVA                                                                                                                                            
COMYTV   020901155406      000030KRAFT/KIDS :30'S W/O 8/26                                                                                                                                      
PRCYTV   020901155436      000030YTV PROMO CONTRACT                                                                                                                                             
ID YTV   020901155951      000012STATION ID                                                                                                                                                     
PGRYTV   020901160003163002002959HAMTARO                                           COME OUT, BIJOU!  EP 4                                        D02043 7 38307ECC2                             
COMYTV   020901160117      000030BVHV/MICKEY HOUSE VILLAIN                                                                                                                                      
COMYTV   020901160147      000030GENERAL MILLS/TRADITIONAL                                                                                                                                      
COMYTV   020901160217      000030HASBRO-BEYBLADE-W.O.W. SPONSOR                                                                                                                                 
COMYTV   020901160247      000030KRAFT/KIDS :30'S W/O 8/26                                                                                                                                      
PRCYTV   020901160317      000030YTV PROMO CONTRACT                                                                                                                                             
PRCYTV   020901160347      000030YTV PROMO CONTRACT                                                                                                                                             
COMYTV   020901161027      000030KRAFT/KIDS :30'S W/O 8/26                                                                                                                                      
COMYTV   020901161057      000030YTV CO-MKTG/BIBO                                                                                                                                               
COMYTV   020901161127      000030HOSTESS/F-L/PLANET LUNCH                                                                                                                                       
COMYTV   020901161157      000030KELLOGG/KIDS FALL                                                                                                                                              
PRCYTV   020901161227      000030YTV PROMO CONTRACT                                                                                                                                             
PRCYTV   020901161257      000030YTV PROMO CONTRACT                                                                                                                                             
COMYTV   020901161929      000100KRAFT/KIDS :60'S SPY KID PROMO                                                                                                                                 
COMYTV   020901162029      000030MATTEL/FASHION DIVA                                                                                                                                            
COMYTV   020901162059      000015BVHV/RETURN TO NEVERLAND                                                                                                                                       
COMYTV   020901162114      000015HASBRO/CORPORATE PREFALL                                                                                                                                       
PRCYTV   020901162129      000030YTV PROMO CONTRACT                                                                                                                                             
PRCYTV   020901162159      000030YTV PROMO CONTRACT                                                                                                                                             
PRCYTV   020901162229      000030YTV PROMO CONTRACT                                                                                                                                             
ID YTV   020901162949      000012STATION ID                                                                                                                                                     
PGRYTV   020901163002165949002947MEDABOT                                           TAKING THE VICTOR ...                                         D01866 7 38307ECC2                             
SPOYTV   020901163519      000010HASBRO-BEYBLADE-W.O.W. SPONSOR                                                                                                                                 
COMYTV   020901163529      000030KRAFT/KIDS :30'S W/O 8/26                                                                                                                                      
COMYTV   020901163559      000030YTV CO-MKTG/BIBO                                                                                                                                               
COMYTV   020901163629      000030GEN MILLS/CTC NON ANIMATED                                                                                                                                     
COMYTV   020901163659      000030HASBRO-BEYBLADE-W.O.W. SPONSOR                                                                                                                                 
PRCYTV   020901163729      000030YTV PROMO CONTRACT                                                                                                                                             
COMYTV   020901164314      000030KRAFT/KIDS :30'S W/O 8/26                                                                                                                                      
COMYTV   020901164344      000030MINUTE MAID/BIBO-W.O.W. SPONS                                                                                                                                  
COMYTV   020901164414      000030HOSTESS/F-L/PLANET LUNCH                                                                                                                                       
COMYTV   020901164444      000030KELLOGG/KIDS FALL                                                                                                                                              
PRCYTV   020901164514      000030YTV PROMO CONTRACT                                                                                                                                             
COMYTV   020901165038      000030BVHP/RETURN TO NEVERLAND                                                                                                                                       
COMYTV   020901165108      000030HOSTESS/F-L/PLANET LUNCH                                                                                                                                       
COMYTV   020901165138      000030MATTEL/FASHION DIVA                                                                                                                                            
COMYTV   020901165208      000030KRAFT/KIDS :30'S W/O 8/26                                                                                                                                      
PRCYTV   020901165238      000030YTV PROMO CONTRACT                                                                                                                                             
PRCYTV   020901165308      000015YTV PROMO CONTRACT                                                                                                                                             
ID YTV   020901165935      000012STATION ID                                                                                                                                                     
PGRYTV   020901165949172950003001D'MYNA LEAGUES                                    BASEBALL...EPS 7                                  DMYNA YTV   A40241 1 35307ECC                              
COMYTV   020901170750      000015HEINZ/BAGEL BITES                                                                                                                                              
COMYTV   020901170805      000030KRAFT/KIDS :30'S W/O 8/26                                                                                                                                      
COMYTV   020901170835      000030CAMPBELLS/GOLDFISH WOMEN                                                                                                                                       
COMYTV   020901170905      000030ALLIANCE/AUSTIN/SPY KIDS#3                                                                                                                                     
COMYTV   020901170935      000015HEINZ/BAGEL BITES                                                                                                                                              
COMYTV   020901171601      000030HASBRO-BEYBLADE-W.O.W. SPONSOR                                                                                                                                 
COMYTV   020901171631      000015LONDON DRUGS/CLEARASIL                                                                                                                                         
COMYTV   020901171646      000015GILLETTE/SOFT & DRY                                                                                                                                            
COMYTV   020901171701      000030CAMPBELLS/GOLDFISH WOMEN                                                                                                                                       
COMYTV   020901171731      000030KRAFT/KIDS :30'S W/O 8/26                                                                                                                                      
COMYTV   020901172620      000030MINUTE MAID/BIBO-W.O.W. SPONS                                                                                                                                  
COMYTV   020901172650      000030GENERAL MILLS/TRADITIONAL                                                                                                                                      
COMYTV   020901172720      000030WALMART/CORPORATE                                                                                                                                              
COMYTV   020901172750      000030KRAFT/KIDS :30'S W/O 8/26                                                                                                                                      
PRCYTV   020901172820      000030YTV PROMO CONTRACT                                                                                                                                             
PRCYTV   020901172850      000015YTV PROMO CONTRACT                                                                                                                                             
ID YTV   020901172935      000012STATION ID                                                                                                                                                     
PGRYTV   020901172950175954003004YVON OF THE YUKON                                 FROMAGE TO ETERNITY EP9                           YVON  YTV   A34357 1 35307ECC                              
COMYTV   020901174035      000030ACTIVISION/MATT HOFFMAN                                                                                                                                        
COMYTV   020901174105      000030HWY/ADULT BARTER#4                                                                                                                                             
COMYTV   020901174135      000030CAMPBELLS/GOLDFISH WOMEN                                                                                                                                       
COMYTV   020901174205      000030ALLIANCE/AUSTIN/SPY KIDS#3                                                                                                                                     
COMYTV   020901174647      000030STAPLES BUS DEPOT/BACK TO SCHO                                                                                                                                 
COMYTV   020901174717      000015LONDON DRUGS/CLEARASIL                                                                                                                                         
COMYTV   020901174732      000030KRAFT/KIDS :30'S W/O 8/26                                                                                                                                      
COMYTV   020901174802      000030BVHV/MICKEY HOUSE VILLAIN                                                                                                                                      
COMYTV   020901174832      000015ACTIVISION/MATT HOFFMAN                                                                                                                                        
COMYTV   020901175709      000030KRAFT/KIDS :30'S W/O 8/26                                                                                                                                      
COMYTV   020901175739      000030GRAND & TOY/BACK TO SCHOOL                                                                                                                                     
COMYTV   020901175809      000030GENERAL MILLS/TRADITIONAL                                                                                                                                      
COMYTV   020901175839      000030MATTEL/FASHION DIVA                                                                                                                                            
ID YTV   020901175939      000012STATION ID                                                                                                                                                     
PGRYTV   020901175954183002003008FREAKY STORIES                                    A WORD FROM OUR SPONSOR EP29                      BIGTIMYTV   A42887 1 35307ECC                              
SPOYTV   020901180624      000010ZELLERS/REQUEST JEANS                                                                                                                                          
COMYTV   020901180634      000030ALLIANCE/AUSTIN/SPY KIDS#3                                                                                                                                     
COMYTV   020901180704      000030GENERAL MILLS/PIZZA POPS-FALL                                                                                                                                  
COMYTV   020901180734      000030HWY/CASH LINE EXTENSIONS                                                                                                                                       
COMYTV   020901180804      000030GENERAL MILLS/TRADITIONAL                                                                                                                                      
COMYTV   020901181405      000030MATTEL/FALL CORPORATE                                                                                                                                          
COMYTV   020901181435      000030EMI/NOW 7                                                                                                                                                      
COMYTV   020901181505      000100P&G/CORPORATE BASE BUY                                                                                                                                         
COMYTV   020901182130      000030FERRERO/KINDERSURPRISE                                                                                                                                         
COMYTV   020901182200      000030WINNERS                                                                                                                                                        
COMYTV   020901182230      000030KRAFT/KIDS :30'S W/O 8/26                                                                                                                                      
COMYTV   020901182300      000030BOY SCOUTS OF CANADA                                                                                                                                           
ID YTV   020901182946      000012STATION ID                                                                                                                                                     
PGRYTV   020901183002190007003005ADDAM'S FAMILY: THE SERIES                        GREEN-EYED GOMEZ EP29                             AFS         C15097 1 35307BCC                              
SPOYTV   020901183149      000010STAPLES BUS DEPOT/BACK TO SCHO                                                                                                                                 
COMYTV   020901183159      000015HEINZ/BAGEL BITES                                                                                                                                              
COMYTV   020901183214      000030NINTENDO/SUPER MARIO SUNSHINE                                                                                                                                  
COMYTV   020901183244      000030P&G/PRINGLES                                                                                                                                                   
COMYTV   020901183314      000030YM INC/STITCHES/BACK TO SCHOOL                                                                                                                                 
COMYTV   020901183344      000015HEINZ/BAGEL BITES                                                                                                                                              
PRCYTV   020901183359      000015YTV PROMO CONTRACT                                                                                                                                             
COMYTV   020901184012      000030GRAND & TOY/BACK TO SCHOOL                                                                                                                                     
COMYTV   020901184042      000030ROGERS AT&T/WIRELESS                                                                                                                                           
COMYTV   020901184112      00001520TH CENTURY/SWIM FAN                                                                                                                                          
COMYTV   020901184127      000030ZELLERS/BACK TO SCHOOL                                                                                                                                         
COMYTV   020901184157      000015J&J/HAIR CARE                                                                                                                                                  
PRCYTV   020901184212      000030YTV PROMO CONTRACT                                                                                                                                             
COMYTV   020901184920      000030STAPLES BUS DEPOT/BACK TO SCHO                                                                                                                                 
COMYTV   020901184950      000030EMI/NOW 7                                                                                                                                                      
COMYTV   020901185020      000030WINNERS                                                                                                                                                        
COMYTV   020901185050      000030HILLROY/BACK TO SCHOOL                                                                                                                                         
PRCYTV   020901185120      000030YTV PROMO CONTRACT                                                                                                                                             
ID YTV   020901185951      000012STATION ID                                                                                                                                                     
PGRYTV   020901190007192947002940BIG WOLF ON CAMPUS                                THANKS  EPS 65                                    TELESC      C21967 1 35307BCC                              
COMYTV   020901190547      000030AOL/AOL                                                                                                                                                        
COMYTV   020901190617      000030KRAFT/KIDS :30'S W/O 8/26                                                                                                                                      
COMYTV   020901190647      000015J&J/CLEAN & CLEAR                                                                                                                                              
COMYTV   020901190702      000015KRAFT/KID'S :15'S W/O 8/26                                                                                                                                     
COMYTV   020901190717      000030HOSTESS/F-L/PLANET LUNCH                                                                                                                                       
PRCYTV   020901190747      000030YTV PROMO CONTRACT                                                                                                                                             
PRCYTV   020901190817      000015YTV PROMO CONTRACT                                                                                                                                             
COMYTV   020901191605      000030KELLOGG/TEENS                                                                                                                                                  
COMYTV   020901191635      000015HASBRO/CORPORATE PREFALL                                                                                                                                       
COMYTV   020901191650      000030GRAND & TOY/BACK TO SCHOOL                                                                                                                                     
COMYTV   020901191720      000015J&J/HAIR CARE                                                                                                                                                  
COMYTV   020901191735      000030AOL/AOL                                                                                                                                                        
PRCYTV   020901191805      000030YTV PROMO CONTRACT                                                                                                                                             
COMYTV   020901192306      000015L'OREAL CANADA/KIDS                                                                                                                                            
COMYTV   020901192321      000015BVHV/MICKEY HOUSE VILLAIN                                                                                                                                      
COMYTV   020901192336      000030K CLARK/PULL-UPS                                                                                                                                               
COMYTV   020901192406      000030HWY/CASH LINE EXTENSIONS                                                                                                                                       
COMYTV   020901192436      000030KRAFT/KIDS :30'S W/O 8/26                                                                                                                                      
PRCYTV   020901192506      000030YTV PROMO CONTRACT                                                                                                                                             
ID YTV   020901192935      000012STATION ID                                                                                                                                                     
PGRYTV   020901192947200000003013SCREECH OWLS                                      HORROR ON RIVER ROAD  EPS 14                      SHAFT YTV   C19019 1 35307ACC3                             
SPOYTV   020901193727      000010YTV CO-MKTG/IMAGINEX PROMOTION                                                                                                                                 
COMYTV   020901193737      000030HWY/WOMEN CPA HU                                                                                                                                               
COMYTV   020901193807      000030HWY/ADULT BARTER#4                                                                                                                                             
COMYTV   020901193837      000030GRAND & TOY/BACK TO SCHOOL                                                                                                                                     
COMYTV   020901193907      000030KELLOGG/KIDS FALL                                                                                                                                              
COMYTV   020901194532      000015HASBRO/CORPORATE PREFALL                                                                                                                                       
COMYTV   020901194547      000015ARM&HAMMER/BAKING SODA                                                                                                                                         
COMYTV   020901194602      000030K CLARK/KOTEX                                                                                                                                                  
COMYTV   020901194632      000030KELLOGG/COMPENSATION                                                                                                                                           
COMYTV   020901194702      000030MINUTE MAID/FRUITOPIA                                                                                                                                          
COMYTV   020901195515      000030HOSTESS/F-L/PLANET LUNCH                                                                                                                                       
COMYTV   020901195545      000030GRAND & TOY/BACK TO SCHOOL                                                                                                                                     
COMYTV   020901195615      000030CAMPBELLS/GOLDFISH WOMEN                                                                                                                                       
COMYTV   020901195645      000030HWY/ADULT BARTER #2                                                                                                                                            
ID YTV   020901195948      000012STATION ID                                                                                                                                                     
PGRYTV   020901200000202958002958SADDLE CLUB                                       HORSE SHY EP5                                     PROTOCYTV   A43909 1 35307ACC                              
COMYTV   020901200349      000015HEINZ/BAGEL BITES                                                                                                                                              
COMYTV   020901200404      000030KRAFT/KIDS :30'S W/O 8/26                                                                                                                                      
COMYTV   020901200434      000030GRAND & TOY/BACK TO SCHOOL                                                                                                                                     
COMYTV   020901200504      000030HWY/ADULT BARTER#4                                                                                                                                             
COMYTV   020901200534      000015HEINZ/BAGEL BITES                                                                                                                                              
COMYTV   020901201455      000100KRAFT/KIDS :60'S SPY KID PROMO                                                                                                                                 
COMYTV   020901201555      000015COCA-COLA/BARQ'S                                                                                                                                               
COMYTV   020901201610      000030KRAFT/KIDS :30'S W/O 8/26                                                                                                                                      
COMYTV   020901201640      000015HASBRO/CORPORATE PREFALL                                                                                                                                       
COMYTV   020901202606      000030HOSTESS/F-L/PLANET LUNCH                                                                                                                                       
COMYTV   020901202636      000030MATTEL/FASHION DIVA                                                                                                                                            
COMYTV   020901202706      000030STAPLES BUS DEPOT/BACK TO SCHO                                                                                                                                 
COMYTV   020901202736      000030KELLOGG/COMPENSATION                                                                                                                                           
ID YTV   020901202946      000012STATION ID                                                                                                                                                     
PGRYTV   020901202958210001003003CAITLIN'S WAY                                     MONEY WALKS EPS 32                                RIVIERYTV   C18987 1 35307ACC                              
COMYTV   020901203243      000030KRAFT/KIDS :30'S W/O 8/26                                                                                                                                      
COMYTV   020901203313      000030CHURCH & DWIGHT/DENTAL CARE                                                                                                                                    
COMYTV   020901203343      000030KELLOGG/COMPENSATION                                                                                                                                           
COMYTV   020901203413      000030HWY/ADULT BARTER#2                                                                                                                                             
COMYTV   020901204522      000015J&J/KIDS SHAMPOO+LINE EX-FOAM                                                                                                                                  
COMYTV   020901204537      000030GENERAL MILLS/BARTER                                                                                                                                           
COMYTV   020901204607      000100P&G/CORP BASE BUY/PRE-EMPTIBLE                                                                                                                                 
COMYTV   020901204707      000015HASBRO/CORPORATE PREFALL                                                                                                                                       
COMYTV   020901205704      000015GILLETTE/SOFT & DRY                                                                                                                                            
COMYTV   020901205719      000030KRAFT/KIDS :30'S W/O 8/26                                                                                                                                      
COMYTV   020901205749      000030MINUTE MAID/FRUITOPIA                                                                                                                                          
COMYTV   020901205819      000015J&J/HAIR CARE                                                                                                                                                  
COMYTV   020901205834      000030GENERAL MILLS/TRADITIONAL                                                                                                                                      
ID YTV   020901205948      000012STATION ID                                                                                                                                                     
PGRYTV   020901210001212951002950INCREDIBLE STORY STUDIO                           DUST! EP 64                                       INCRE5YTV   SR7048 1 36307ACC                              
COMYTV   020901210036      000030ALLIANCE/AUSTIN/SPY KIDS#3                                                                                                                                     
COMYTV   020901210106      000030K CLARK/HUGGIES: SUPREME                                                                                                                                       
COMYTV   020901210136      000030AOL/AOL BARTER                                                                                                                                                 
COMYTV   020901210206      000030COCA-COLA/COKE                                                                                                                                                 
COMYTV   020901211330      000030ROGERS AT&T/WIRELESS                                                                                                                                           
COMYTV   020901211400      000030K CLARK/HUGGIES SUPREME                                                                                                                                        
COMYTV   020901211430      000030YM INC/STITCHES/BACK TO SCHOOL                                                                                                                                 
COMYTV   020901211500      000030CON AGRA/POGO                                                                                                                                                  
COMYTV   020901212605      000030STAPLES BUS DEPOT/BACK TO SCHO                                                                                                                                 
COMYTV   020901212635      000030AOL/AOL                                                                                                                                                        
COMYTV   020901212705      000030HWY/ADULT BARTER #5                                                                                                                                            
COMYTV   020901212735      000030PEPSICO/PEPSI BRAND                                                                                                                                            
PRCYTV   020901212805      000030YTV PROMO CONTRACT                                                                                                                                             
ID YTV   020901212938      000012STATION ID                                                                                                                                                     
PGRYTV   020901212951220056003105ADVENTURES OF SHIRLEY HOLMES (II)(#14-26)         CASE OF RISING MOON EP14                          SHIRLEYTV   C14772 1 35307ACC                              
COMYTV   020901214152      000030MINUTE MAID/FRUITOPIA                                                                                                                                          
COMYTV   020901214222      000030WALMART/CORPORATE                                                                                                                                              
COMYTV   020901214252      000030COCA-COLA/MELLO YELLOW                                                                                                                                         
COMYTV   020901214322      000030ALLIANCE/AUSTIN/SPY KIDS#3                                                                                                                                     
COMYTV   020901215229      00001520TH CENTURY/SWIM FAN                                                                                                                                          
COMYTV   020901215244      000030K CLARK/HUGGIES :30 ULTRA                                                                                                                                      
COMYTV   020901215314      000030AOL/AOL BARTER                                                                                                                                                 
COMYTV   020901215344      000015J&J/HAIR CARE                                                                                                                                                  
COMYTV   020901215359      000030GRAND & TOY/BACK TO SCHOOL                                                                                                                                     
COMYTV   020901215807      000030HWY/ADULT BARTER #4                                                                                                                                            
COMYTV   020901215837      000100P&G/CORPORATE BASE BUY                                                                                                                                         
COMYTV   020901215937      000030K CLARK/KOTEX                                                                                                                                                  
ID YTV   020901220042      000012STATION ID                                                                                                                                                     
PGRYTV   020901220056222959002903DON'T LICK THE PIG                                EP 3                                                                 1 31307FCC                              
COMYTV   020901220541      000030HWY/WOMEN CPA HU                                                                                                                                               
COMYTV   020901220611      000030HWY/ADULT BARTER #2                                                                                                                                            
COMYTV   020901220641      000015HWY/ADULT BARTER #1                                                                                                                                            
COMYTV   020901220656      000015J&J/HAIR CARE                                                                                                                                                  
COMYTV   020901220711      000030ALLIANCE/AUSTIN/SPY KIDS#3                                                                                                                                     
COMYTV   020901221442      000015J&J/CLEAN & CLEAR                                                                                                                                              
COMYTV   020901221457      000030HWY/ADULT BARTER #5                                                                                                                                            
COMYTV   020901221527      000030ACTIVISION/STREEP HOOPS                                                                                                                                        
COMYTV   020901221557      000030AOL/AOL                                                                                                                                                        
COMYTV   020901221627      000015BMG MUSIC/TREBLE CHARGER                                                                                                                                       
COMYTV   020901222248      000030HWY/ADULT BARTER #5                                                                                                                                            
COMYTV   020901222318      000030KELLOGG/TEENS                                                                                                                                                  
COMYTV   020901222348      000030HWY/ADULT BARTER #2                                                                                                                                            
COMYTV   020901222418      000030AOL/AOL BARTER                                                                                                                                                 
ID YTV   020901222946      000012STATION ID                                                                                                                                                     
