PGRYTV   021001060000062848002848MONA THE VAMPIRE                                  WIN -MUMMY TOMB/FREAKY SNOWMAN                    FANCYCYTV   A18420 1 35307ECC                              
SPOYTV   021001060106      000010DISCOVERY KIDS/DK WEB                                                                                                                                          
COMYTV   021001060116      000030MATTEL CANADA INC.                                                                                                                                             
COMYTV   021001060146      000030KELLOGG CANADA INC.                                                                                                                                            
PRCYTV   021001060216      000015YTV PROMO CONTRACT                                                                                                                                             
COMYTV   021001061341      000030HASBRO CANADA INC.                                                                                                                                             
COMYTV   021001061411      000030GENERAL MILLS CANADA INC.                                                                                                                                      
COMYTV   021001061441      000030MATTEL CANADA INC.                                                                                                                                             
COMYTV   021001061511      000030BOY SCOUTS OF CANADA                                                                                                                                           
COMYTV   021001062648      000030KELLOGG CANADA INC.                                                                                                                                            
COMYTV   021001062718      000030MATTEL CANADA INC.                                                                                                                                             
PRCYTV   021001062748      000030YTV PROMO CONTRACT                                                                                                                                             
INTYTV   021001062848063000000112HOOTA & SNOZ                                      EPS 24                                                               7 383120                                
ID YTV   021001062948      000012STATION ID                                                                                                                                                     
PGRYTV   021001063000065848002848MONSTER BY MISTAKE                                JUST DESSERTS EP4                                 MONSTEYTV   A21768 1 35307ECC                              
COMYTV   021001063726      000030MATTEL CANADA INC.                                                                                                                                             
COMYTV   021001063756      000030KRAFT CANADA INC.                                                                                                                                              
PROYTV   021001063826      000030YTV PROMO CONTRACT                                                                                                                                             
COMYTV   021001064709      000030HASBRO CANADA INC.                                                                                                                                             
COMYTV   021001064739      000030GENERAL MILLS CANADA INC.                                                                                                                                      
COMYTV   021001064809      000030MCDONALD'S RESTAURANTS CANADA                                                                                                                                  
COMYTV   021001064839      000030MATTEL CANADA INC.                                                                                                                                             
COMYTV   021001065630      000030GENERAL MILLS CANADA INC.                                                                                                                                      
COMYTV   021001065700      000030MATTEL CANADA INC.                                                                                                                                             
PRCYTV   021001065730      000030YTV PROMO CONTRACT                                                                                                                                             
INTYTV   021001065848070000000112HOOTA & SNOZ                                      EPS 25                                                               7 383120                                
ID YTV   021001065948      000012STATION ID                                                                                                                                                     
PGRYTV   021001070000072730002730SAILOR MOON (#1-65)                               PREDICTION OF DOOM                                            D01277 7 38307ECC2                             
COMYTV   021001070158      000030ALLIANCE/BARBIE AS RAPUNZEL                                                                                                                                    
COMYTV   021001070228      000030HASBRO/CORPORATE FALL                                                                                                                                          
PROYTV   021001070258      000015YTV PROMO CONTRACT                                                                                                                                             
COMYTV   021001070945      000015YTV CO-MKTG/CDN INV&SAVING/BON                                                                                                                                 
COMYTV   021001071000      000030MCDONALDS/HAPPY MEAL                                                                                                                                           
COMYTV   021001071030      000030MATTEL CANADA INC.                                                                                                                                             
COMYTV   021001071100      000030GENERAL MILLS/BARTER                                                                                                                                           
COMYTV   021001071130      000015HASBRO/CORPORATE FALL                                                                                                                                          
COMYTV   021001071857      000030MATTEL/FALL CORPORATE                                                                                                                                          
COMYTV   021001071927      000030MATTEL/FALL CORPORATE                                                                                                                                          
PRCYTV   021001071957      000030YTV PROMO CONTRACT                                                                                                                                             
PRCYTV   021001072027      000030YTV PROMO CONTRACT                                                                                                                                             
INTYTV   021001072730072848000118JIMMY NEUTRON                                     EPS 7                                                                2 383120                                
INTYTV   021001072848073000000112STICKIN' AROUND                                   RUSSELL'S LUNCH                                                      1 353120CC                              
ID YTV   021001072948      000012STATION ID                                                                                                                                                     
PGRYTV   021001073000075648002648HAMTARO                                           HAM-HAM GANG AT THE AQUARIUM                                  D02043 7 28307ECC2                             
SPOYTV   021001073114      000010YTV CO-MKTG/MATTEL: HE MAN                                                                                                                                     
COMYTV   021001073124      000015L'OREAL CANADA/KIDS SHAMPOO                                                                                                                                    
COMYTV   021001073139      000030KELLOGG/KIDS FALL                                                                                                                                              
COMYTV   021001073209      000015HASBRO/CORPORATE FALL                                                                                                                                          
PROYTV   021001073224      000030YTV PROMO CONTRACT                                                                                                                                             
PROYTV   021001073254      000030YTV PROMO CONTRACT                                                                                                                                             
COMYTV   021001073940      000015HASBRO/CORPORATE FALL                                                                                                                                          
COMYTV   021001073955      000030KRAFT/FALL KIDS :30'S                                                                                                                                          
COMYTV   021001074025      000030MATTEL CANADA INC.                                                                                                                                             
COMYTV   021001074055      000030MCDONALD'S RESTAURANTS CANADA                                                                                                                                  
COMYTV   021001074125      000015YTV CO-MARKETING                                                                                                                                               
PRCYTV   021001074140      000030YTV PROMO CONTRACT                                                                                                                                             
PRCYTV   021001074210      000015YTV PROMO CONTRACT                                                                                                                                             
COMYTV   021001074801      000015DANONE/PETITE DANONE                                                                                                                                           
COMYTV   021001074816      000015YTV/ROYAL CDN MINT/FALL-JULILE                                                                                                                                 
COMYTV   021001074831      000030KRAFT/FALL KIDS :30'S                                                                                                                                          
PRCYTV   021001074901      000030YTV PROMO CONTRACT                                                                                                                                             
INTYTV   021001075648080000000312NANALAN'                                          BUTTERFLY TAG EP22                                                   1 353120                                
ID YTV   021001075948      000012STATION ID                                                                                                                                                     
PGRYTV   021001080000082828002828RUGRATS                                           REAL OR ROBOTS/SPECIAL EPS 8                                         2 38307ECC                              
COMYTV   021001080052      000015HASBRO/CORPORATE FALL                                                                                                                                          
COMYTV   021001080107      000015DANONE/PETITE DANONE                                                                                                                                           
COMYTV   021001080122      000030MATTEL/FALL CORPORATE                                                                                                                                          
COMYTV   021001081303      000030MCDONALDS/HAPPY MEAL                                                                                                                                           
COMYTV   021001081333      000030BOY SCOUTS OF CANADA                                                                                                                                           
COMYTV   021001081403      000030KRAFT/FALL KIDS :30'S                                                                                                                                          
COMYTV   021001081433      000030MATTEL CANADA INC.                                                                                                                                             
PRCYTV   021001081503      000015YTV PROMO CONTRACT                                                                                                                                             
COMYTV   021001081937      000030HASBRO/CORPORATE FALL                                                                                                                                          
COMYTV   021001082007      000030GENERAL MILLS/TRADITIONAL                                                                                                                                      
PRCYTV   021001082037      000030YTV PROMO CONTRACT                                                                                                                                             
INTYTV   021001082828083000000132JIMMY NEUTRON                                     EPS 1                                                                2 383120                                
ID YTV   021001082948      000012STATION ID                                                                                                                                                     
PGRYTV   021001083000090009003009UH OH!                                            EPS 187                                                              1 313100CC                              
SPOYTV   021001083333      000010DISCOVERY KIDS/DK WEB                                                                                                                                          
COMYTV   021001083343      000030GENERAL MILLS/GUSHERS UH OH                                                                                                                                    
COMYTV   021001083413      000030HASBRO/CORPORATE FALL                                                                                                                                          
PROYTV   021001083443      000030YTV PROMO CONTRACT                                                                                                                                             
PROYTV   021001083513      000030YTV PROMO CONTRACT                                                                                                                                             
COMYTV   021001084324      000015HASBRO/CORPORATE FALL                                                                                                                                          
COMYTV   021001084339      000030MATTEL/FALL CORPORATE                                                                                                                                          
COMYTV   021001084409      000030GENERAL MILLS/TRADITIONAL                                                                                                                                      
COMYTV   021001084439      000030MCDONALD'S RESTAURANTS CANADA                                                                                                                                  
COMYTV   021001084509      000015HASBRO CANADA INC.                                                                                                                                             
COMYTV   021001085037      000030HASBRO/CORPORATE FALL                                                                                                                                          
COMYTV   021001085107      000030ZAPF/BABY BORN+CHOU CHOU                                                                                                                                       
PRCYTV   021001085137      000030YTV PROMO CONTRACT                                                                                                                                             
PRCYTV   021001085207      000030YTV PROMO CONTRACT                                                                                                                                             
PRCYTV   021001085237      000015YTV PROMO CONTRACT                                                                                                                                             
ID YTV   021001085946      000012STATION ID                                                                                                                                                     
SPOYTV   021001085958      000010ALLIANCE/JONAH-VEGGIE TALES                                                                                                                                    
PGRYTV   021001090009092417002408LITTLE BEAR                                       MONSTER/SIMON SAYS/APPLEEPS 31                    NELVAN      A04967 1 35107E                                
INTYTV   021001092417092514000057NELVANA INTERSTITIALS                             FEAR NO BUNNY II                                                     1 371120                                
INTYTV   021001092514092614000100STICKIN' AROUND                                   THIS IS A HICCUP!                                                    1 351120CC                              
INTYTV   021001092614092831000217NELVANA INTERSTITIALS                             FEAR NO BUNNY III                                                    1 371120                                
ID YTV   021001092807      000012STATION ID                                                                                                                                                     
SPOYTV   021001092819      000010MCDONALDS/HAPPY MEAL 10SEC CC                                                                                                                                  
PGRYTV   021001092831095317002446BABAR                                             OH, TO BE AN ADULT EPS 60                         NELVAN      C09929 1 32107ECC                              
PRCYTV   021001095145      000030YTV PROMO CONTRACT                                                                                                                                             
PRCYTV   021001095215      000030YTV PROMO CONTRACT                                                                                                                                             
PRCYTV   021001095245      000030YTV PROMO CONTRACT                                                                                                                                             
PGRYTV   021001095317100010000653ELLIOT MOOSE                                      THE SONG CONTEST EP63                             NELVAN      A25750 1 35107GCC                              
ID YTV   021001095945      000012STATION ID                                                                                                                                                     
SPOYTV   021001100000      000010MCDONALDS/HAPPY MEAL 10SEC CC                                                                                                                                  
PGRYTV   021001100010102418002408RUPERT                                            EPS 10-RUPERT'S UNDERSEA ADV                      NELVANYTV   P11520 1 35107ECC                              
INTYTV   021001102418102526000108NELVANA INTERSTITIALS                             MAY THE BUNNIES RISE TO MEET                                         1 371120                                
INTYTV   021001102526102626000100STICKIN' AROUND                                   THE MUCUS TOUCH                                                      1 351120CC                              
INTYTV   021001102626103012000346NELVANA INTERSTITIALS                             THE TOOTH                                                            1 371120                                
PRCYTV   021001102835      000030YTV PROMO CONTRACT                                                                                                                                             
PRCYTV   021001102905      000030YTV PROMO CONTRACT                                                                                                                                             
PRCYTV   021001102935      000015YTV PROMO CONTRACT                                                                                                                                             
ID YTV   021001102950      000012STATION ID                                                                                                                                                     
SPOYTV   021001103002      000010R P TOYS/NON COM BB'S                                                                                                                                          
PGRYTV   021001103012105317002305DUMB BUNNIES                                      KEEPING UPPITY EP9.                               NELVANYTV   A25648 1 35107E                                
PRCYTV   021001105217      000030YTV PROMO CONTRACT                                                                                                                                             
PRCYTV   021001105247      000030YTV PROMO CONTRACT                                                                                                                                             
PGRYTV   021001105317105959000642ELLIOT MOOSE                                      BEACH TOYS EP64                                   NELVAN      A25742 1 35107GCC                              
ID YTV   021001105947      000012STATION ID                                                                                                                                                     
PGRYTV   021001105959112303002304GEORGE & MARTHA                                   DANCE RECITAL/TOOTH. EP1                          NELVANYTV   A34106 1 35107ECC                              
SPOYTV   021001105959      000010R P TOYS/NON COM BB'S                                                                                                                                          
PGRYTV   021001112303113011000708ELLIOT MOOSE                                      WADING POOL EP65                                  NELVAN      A25741 1 35107GCC                              
PRCYTV   021001112933      000015YTV PROMO CONTRACT                                                                                                                                             
ID YTV   021001112948      000012STATION ID                                                                                                                                                     
SPOYTV   021001113000      000010ALLIANCE/JONAH-VEGGIE TALES                                                                                                                                    
PGRYTV   021001113011115556002545STICKIN' AROUND                                   DIDN'TCHA MR D/THE AMAZING RUB                    NELVANYTV   A08090 1 35107ECC                              
PRCYTV   021001113121      000015YTV PROMO CONTRACT                                                                                                                                             
PRCYTV   021001114243      000015YTV PROMO CONTRACT                                                                                                                                             
PRCYTV   021001115405      000015YTV PROMO CONTRACT                                                                                                                                             
INTYTV   021001115556115803000207NELVANA INTERSTITIALS                             BUILDING A HOUSE FOR EMILY                                           1 371120                                
INTYTV   021001115803120002000159NELVANA INTERSTITIALS                             THE BIG BEAR SITTER                                                  1 371120                                
ID YTV   021001115949      000012STATION ID                                                                                                                                                     
PGRYTV   021001120002122833002831RUGRATS                                           REAL OR ROBOTS/SPECIAL EPS 8                                         2 38307ECC                              
COMYTV   021001120053      000015HASBRO/CORPORATE FALL                                                                                                                                          
COMYTV   021001120108      000030KRAFT/FALL KIDS :30'S                                                                                                                                          
COMYTV   021001120138      000015BUENA HV/BEAUTY&BEAST-15SEC                                                                                                                                    
PROYTV   021001120153      000015YTV PROMO CONTRACT                                                                                                                                             
COMYTV   021001121313      000015HASBRO/CORPORATE FALL                                                                                                                                          
COMYTV   021001121328      000030GENERAL MILLS CANADA INC.                                                                                                                                      
COMYTV   021001121358      000030MATTEL CANADA INC.                                                                                                                                             
COMYTV   021001121428      000030BOY SCOUTS OF CANADA                                                                                                                                           
COMYTV   021001121458      000015YTV CO-MARKETING                                                                                                                                               
PROYTV   021001121513      000030YTV PROMO CONTRACT                                                                                                                                             
COMYTV   021001121958      000030HASBRO/CORPORATE FALL                                                                                                                                          
COMYTV   021001122028      000030KRAFT CANADA INC.                                                                                                                                              
PRCYTV   021001122058      000015YTV PROMO CONTRACT                                                                                                                                             
INTYTV   021001122833122959000126JIMMY NEUTRON                                     EPS 2                                                                2 383120                                
ID YTV   021001122948      000012STATION ID                                                                                                                                                     
PGRYTV   021001122959125646002647HAMTARO                                           HAM-HAM GANG AT THE AQUARIUM                                  D02043 7 38307ECC2                             
COMYTV   021001123114      000030HASBRO/CORPORATE FALL                                                                                                                                          
COMYTV   021001123144      000030MATTEL/FALL CORPORATE                                                                                                                                          
PROYTV   021001123214      000030YTV PROMO CONTRACT                                                                                                                                             
PROYTV   021001123244      000030YTV PROMO CONTRACT                                                                                                                                             
COMYTV   021001123930      000015HASBRO/CORPORATE FALL                                                                                                                                          
COMYTV   021001123945      000030BOY SCOUTS OF CANADA                                                                                                                                           
COMYTV   021001124015      000030MATTEL CANADA INC.                                                                                                                                             
COMYTV   021001124045      000030GENERAL MILLS/TRADITIONAL                                                                                                                                      
COMYTV   021001124115      000015L'OREAL CANADA/KIDS SHAMPOO                                                                                                                                    
PRCYTV   021001124130      000030YTV PROMO CONTRACT                                                                                                                                             
COMYTV   021001124729      000030MATTEL CANADA INC.                                                                                                                                             
COMYTV   021001124759      000030GENERAL MILLS CANADA INC.                                                                                                                                      
PRCYTV   021001124829      000030YTV PROMO CONTRACT                                                                                                                                             
PRCYTV   021001124859      000030YTV PROMO CONTRACT                                                                                                                                             
INTYTV   021001125646125958000312NANALAN'                                          BUBBLES EP2                                                          1 351120                                
ID YTV   021001125946      000012STATION ID                                                                                                                                                     
PGRYTV   021001125958132436002438MONSTER BY MISTAKE                                LIVE FROM PICKFORD EP14                           MONSTEYTV   A30280 1 35107ECC                              
SPOYTV   021001125958      000010ALLIANCE/JONAH-VEGGIE TALES                                                                                                                                    
PRCYTV   021001130814      000015YTV PROMO CONTRACT                                                                                                                                             
PRCYTV   021001131539      000015YTV PROMO CONTRACT                                                                                                                                             
PRCYTV   021001132332      000015YTV PROMO CONTRACT                                                                                                                                             
PGRYTV   021001132436133059000623LISA                                              SOMETHING IN THE WALL  EPS 21                                        3 38107E                                
ID YTV   021001133039      000012STATION ID                                                                                                                                                     
SPOYTV   021001133051      000010R P TOYS/NON COM BB'S                                                                                                                                          
PGRYTV   021001133059135506002407COUNTRY MOUSE & CITY MOUSE                        MOUSE-O-TAUR EP7                                  CINAR       CXXXXX 1 35107ECC                              
PRCYTV   021001135455      000015YTV PROMO CONTRACT                                                                                                                                             
PGRYTV   021001135506140031000525ANIMAL STORIES                                    RALPH THE RABBIT EPS 40                                              3 38107E                                
ID YTV   021001140012      000012STATION ID                                                                                                                                                     
SPOYTV   021001140024      000010ALLIANCE/JONAH-VEGGIE TALES                                                                                                                                    
PGRYTV   021001140031142601002530MONA THE VAMPIRE                                  WIN -MUMMY TOMB/FREAKY SNOWMAN                    FANCYCYTV   A18420 1 35107ECC                              
PRCYTV   021001140140      000030YTV PROMO CONTRACT                                                                                                                                             
PRCYTV   021001141317      000030YTV PROMO CONTRACT                                                                                                                                             
PRCYTV   021001142503      000030YTV PROMO CONTRACT                                                                                                                                             
INTYTV   021001142601143009000408CHIP 'N' ORBIT                                    EPISODE 21                                                           1 311120CC                              
ID YTV   021001142948      000012STATION ID                                                                                                                                                     
SPOYTV   021001143000      000010R P TOYS/NON COM BB'S                                                                                                                                          
PGRYTV   021001143009145447002438SAILOR MOON (#1-65)                               PREDICTION OF DOOM                                            D01277 7 38107ECC2                             
PRCYTV   021001143208      000030YTV PROMO CONTRACT                                                                                                                                             
PRCYTV   021001143902      000030YTV PROMO CONTRACT                                                                                                                                             
PRCYTV   021001143932      000015YTV PROMO CONTRACT                                                                                                                                             
PRCYTV   021001144708      000030YTV PROMO CONTRACT                                                                                                                                             
PRCYTV   021001145417      000030YTV PROMO CONTRACT                                                                                                                                             
PGRYTV   021001145447150000000513ANIMAL STORIES                                    AUSTIN THE OYSTER EPS 41                                             3 38107E                                
ID YTV   021001145948      000012STATION ID                                                                                                                                                     
PGRYTV   021001150000152749002749MEDABOTS                                          SOMETHING ABOUT MISS MIMOSA 32                                D01866 7 38307ECC2                             
SPOYTV   021001150551      000010DISCOVERY KIDS/DK WEB                                                                                                                                          
COMYTV   021001150601      000030HASBRO/CORPORATE FALL                                                                                                                                          
COMYTV   021001150631      000030KRAFT/FALL KIDS :30'S                                                                                                                                          
PROYTV   021001150701      000030YTV PROMO CONTRACT                                                                                                                                             
PRCYTV   021001150731      000030YTV PROMO CONTRACT                                                                                                                                             
COMYTV   021001151337      000030MATTEL/FALL CORPORATE                                                                                                                                          
COMYTV   021001151407      000030DISCOVERY KIDS/DK WEB                                                                                                                                          
COMYTV   021001151437      000030BUENA HV/BEAUTY&BEAST 30 SECND                                                                                                                                 
COMYTV   021001151507      000030IRWIN/IRWIN BOYS CORPORATE                                                                                                                                     
COMYTV   021001152020      000030MATTEL CANADA INC.                                                                                                                                             
COMYTV   021001152050      000030GENERAL MILLS CANADA INC.                                                                                                                                      
PRCYTV   021001152120      000030YTV PROMO CONTRACT                                                                                                                                             
PRCYTV   021001152150      000030YTV PROMO CONTRACT                                                                                                                                             
INTYTV   021001152749153001000212TECH ART                                          EP 43                                                                1 311120                                
ID YTV   021001152948      000012STATION ID                                                                                                                                                     
PGRYTV   021001153001155731002730POKEMON                                           SPRING FEVER  EPS 187                                                7 38307ECC                              
COMYTV   021001153204      000030PEPSICO/FRITO-LAY/PLANET LUNCH                                                                                                                                 
COMYTV   021001153234      000030HASBRO/CORPORATE FALL                                                                                                                                          
PROYTV   021001153304      000030YTV PROMO CONTRACT                                                                                                                                             
PRCYTV   021001153334      000030YTV PROMO CONTRACT                                                                                                                                             
COMYTV   021001154438      000015HASBRO/CORPORATE FALL                                                                                                                                          
COMYTV   021001154453      000030MATTEL/FALL CORPORATE                                                                                                                                          
COMYTV   021001154523      000030KRAFT/FALL KIDS :30'S                                                                                                                                          
COMYTV   021001154553      000030HASBRO/CORPORATE FALL                                                                                                                                          
COMYTV   021001154623      000015HASBRO/CORPORATE FALL                                                                                                                                          
COMYTV   021001155454      000015DANONE/PETITE DANONE                                                                                                                                           
COMYTV   021001155509      000015HASBRO/CORPORATE FALL                                                                                                                                          
COMYTV   021001155524      000030GENERAL MILLS/TRADITIONAL                                                                                                                                      
PRCYTV   021001155554      000030YTV PROMO CONTRACT                                                                                                                                             
PRCYTV   021001155624      000030YTV PROMO CONTRACT                                                                                                                                             
INTYTV   021001155731160000000229PROGRAM JOCKEY                                    PROGRAM JOCKEY                                                       1 213120                                
ID YTV   021001155948      000012STATION ID                                                                                                                                                     
PGRYTV   021001160000162740002740BEYBLADE                                          A STAR IS BORN  EPS 18                                        D02016 7 38307ECC2                             
COMYTV   021001160548      000030KELLOGG/KIDS FALL                                                                                                                                              
COMYTV   021001160618      000030MEGABLOCK/DRAGONS                                                                                                                                              
PROYTV   021001160648      000030YTV PROMO CONTRACT                                                                                                                                             
PRCYTV   021001160718      000030YTV PROMO CONTRACT                                                                                                                                             
COMYTV   021001161238      000030IRWIN/IRWIN BOYS CORPORATE                                                                                                                                     
COMYTV   021001161308      000030MATTEL/FALL CORPORATE                                                                                                                                          
COMYTV   021001161338      000030HASBRO/CORPORATE FALL                                                                                                                                          
COMYTV   021001161408      000030IRWIN/OLDER GIRL LINES                                                                                                                                         
COMYTV   021001162026      000030HASBRO/CORPORATE-PT2                                                                                                                                           
COMYTV   021001162056      000015DREAMWORKS/TUXEDO ADD ON                                                                                                                                       
COMYTV   021001162111      000015HASBRO/CORPORATE FALL                                                                                                                                          
PRCYTV   021001162126      000030YTV PROMO CONTRACT                                                                                                                                             
PRCYTV   021001162156      000015YTV PROMO CONTRACT                                                                                                                                             
INTYTV   021001162740163005000225PROGRAM JOCKEY                                    PROGRAM JOCKEY                                                       1 213120                                
ID YTV   021001162948      000012STATION ID                                                                                                                                                     
SPOYTV   021001163000      000005L'OREAL CANADA/KIDS                                                                                                                                            
PGRYTV   021001163005165722002717JACKIE CHAN ADVENTURES                            THE POWER WITHIN EP2                                                 2 38307ECC                              
COMYTV   021001163226      000015YTV CO-MKTG/CDN INV&SAVING/BON                                                                                                                                 
COMYTV   021001163241      000030KRAFT/FALL KIDS :30'S                                                                                                                                          
COMYTV   021001163311      000015L'OREAL CANADA/KIDS                                                                                                                                            
PRCYTV   021001163326      000030YTV PROMO CONTRACT                                                                                                                                             
PRCYTV   021001163356      000015YTV PROMO CONTRACT                                                                                                                                             
COMYTV   021001164033      000030MATTEL/FALL CORPORATE                                                                                                                                          
COMYTV   021001164103      000030LEGO/LEGO 4-8                                                                                                                                                  
COMYTV   021001164133      000030GENERAL MILLS/TRADITIONAL                                                                                                                                      
COMYTV   021001164203      000030MATTEL/FALL CORPORATE                                                                                                                                          
COMYTV   021001164810      000030KRAFT CANADA INC.                                                                                                                                              
COMYTV   021001164840      000030MATTEL CANADA INC.                                                                                                                                             
PROYTV   021001164910      000030YTV PROMO CONTRACT                                                                                                                                             
PRCYTV   021001164940      000030YTV PROMO CONTRACT                                                                                                                                             
INTYTV   021001165722170005000243PROGRAM JOCKEY                                    PROGRAM JOCKEY                                                       1 213120                                
ID YTV   021001165948      000012STATION ID                                                                                                                                                     
SPOYTV   021001170000      000005L'OREAL CANADA/KIDS                                                                                                                                            
PGRYTV   021001170005172828002823DEXTER'S LABORATORY                               CHATTER/QUACKOR/MOMDARK EPS 54                                       2 38307ECC                              
COMYTV   021001170041      000030KRAFT/FALL KIDS :30'S                                                                                                                                          
COMYTV   021001170111      000030HASBRO/CORPORATE FALL                                                                                                                                          
PROYTV   021001170141      000030YTV PROMO CONTRACT                                                                                                                                             
PROYTV   021001170211      000015YTV PROMO CONTRACT                                                                                                                                             
COMYTV   021001171126      000030MATTEL/FALL CORPORATE                                                                                                                                          
COMYTV   021001171156      000015DANONE/PETITE DANONE                                                                                                                                           
COMYTV   021001171211      000030HASBRO/CORPORATE-PT2                                                                                                                                           
COMYTV   021001171241      000015L'OREAL CANADA/KIDS                                                                                                                                            
COMYTV   021001171256      000030IRWIN/OLDER GIRL LINES                                                                                                                                         
COMYTV   021001172550      000030IRWIN/OLDER GIRL LINES                                                                                                                                         
COMYTV   021001172620      000030GENERAL MILLS/BARTER                                                                                                                                           
PRCYTV   021001172650      000030YTV PROMO CONTRACT                                                                                                                                             
INTYTV   021001172828173000000132PROGRAM JOCKEY                                    PROGRAM JOCKEY                                                       1 213120                                
ID YTV   021001172948      000012STATION ID                                                                                                                                                     
PGRYTV   021001173000175828002828ROCKET POWER                                      LESS THAN FULL/SHARKED  EPS 46                                       2 18307ECC                              
COMYTV   021001173052      000030FTC TOYS/PENNY RACER                                                                                                                                           
COMYTV   021001173122      000030KRAFT/FALL KIDS :30'S                                                                                                                                          
COMYTV   021001174303      000015HASBRO/CORPORATE FALL                                                                                                                                          
COMYTV   021001174318      000030GENERAL MILLS/TRADITIONAL                                                                                                                                      
COMYTV   021001174348      000030MATTEL/FALL CORPORATE                                                                                                                                          
COMYTV   021001174418      000030MCDONALDS/HAPPY MEAL                                                                                                                                           
COMYTV   021001174448      000015HASBRO/CORPORATE FALL                                                                                                                                          
COMYTV   021001175613      000030IRWIN/OLDER GIRL LINES                                                                                                                                         
COMYTV   021001175643      000015DANONE                                                                                                                                                         
COMYTV   021001175658      000015HASBRO/CORPORATE FALL                                                                                                                                          
INTYTV   021001175828180000000132PROGRAM JOCKEY                                    PROGRAM JOCKEY                                                       1 213120                                
ID YTV   021001175948      000012STATION ID                                                                                                                                                     
PGRYTV   021001180000183100003100SPONGEBOB SQUAREPANTS                             SECRET BOX/BAND GEEKS EPS 35                                         2 38307ECC                              
SPOYTV   021001180049      000010YTV CO-MKTG/MATTEL: HE MAN                                                                                                                                     
COMYTV   021001180059      000030MATTEL/FALL CORPORATE                                                                                                                                          
COMYTV   021001180129      000030HWY/CPA-ADULT PACKAGE#5                                                                                                                                        
COMYTV   021001180159      000030MATTEL/NATIONAL WOMEN                                                                                                                                          
COMYTV   021001180229      000030HWY/ADULT BARTER#3                                                                                                                                             
COMYTV   021001181440      000030MATTEL/FALL CORPORATE                                                                                                                                          
COMYTV   021001181510      000030IRWIN/IRWIN BOYS CORPORATE                                                                                                                                     
COMYTV   021001181540      000030DISCOVERY KIDS/DK WEB                                                                                                                                          
COMYTV   021001181610      000030IRWIN/OLDER GIRL LINES                                                                                                                                         
COMYTV   021001182802      000030MATTEL/FALL CORPORATE                                                                                                                                          
COMYTV   021001182832      000030GENERAL MILLS/PIZZA POPS-FALL                                                                                                                                  
COMYTV   021001182902      000030HWY/KIDS CPA                                                                                                                                                   
COMYTV   021001182932      000030NESTLE/ICE CREAM SUNDAE                                                                                                                                        
ID YTV   021001183047      000012STATION ID                                                                                                                                                     
PGRYTV   021001183100190002002902TWO OF A KIND                                     BREAKING THEM UP IS HARD EP5                                         2 38307BCC                              
SPOYTV   021001183213      000010LONDON DRUGS/CLEARASIL                                                                                                                                         
COMYTV   021001183223      000030GEN MILLS/NESQUIK CEREAL - NQ                                                                                                                                  
COMYTV   021001183253      000015YTV/ROYAL CDN MINT/FALL-JULILE                                                                                                                                 
COMYTV   021001183308      000030MATTEL/LITTLE PEOPLE-WOMEN                                                                                                                                     
COMYTV   021001183338      000015PARAMOUNT/GREASE                                                                                                                                               
COMYTV   021001183353      000030MATTEL/NATIONAL WOMEN                                                                                                                                          
COMYTV   021001184113      000015DANONE                                                                                                                                                         
COMYTV   021001184128      000030ALLIANCE/VIRGINIA'S RUN                                                                                                                                        
COMYTV   021001184158      000030K CLARK/PULL-UPS                                                                                                                                               
COMYTV   021001184228      000030UNIVERSAL VIDEO/BIG FAT LIAR                                                                                                                                   
COMYTV   021001184258      000015LONDON DRUGS/CLEARASIL                                                                                                                                         
PRCYTV   021001184313      000030YTV PROMO CONTRACT                                                                                                                                             
PRCYTV   021001184343      000015YTV PROMO CONTRACT                                                                                                                                             
COMYTV   021001185646      000030GENERAL MILLS/FXF-NON ANIMATED                                                                                                                                 
COMYTV   021001185716      000015J&J/CLEAN & CLEAR                                                                                                                                              
COMYTV   021001185731      000030DISNEY VACATIONS/CRUISE LINES                                                                                                                                  
COMYTV   021001185801      000015GILLETTE/SOFT&DRY                                                                                                                                              
COMYTV   021001185816      000030KRAFT/FALL KIDS :30'S                                                                                                                                          
ID YTV   021001185948      000012STATION ID                                                                                                                                                     
PGRYTV   021001190002193020003018I LOVE MUMMY                                      SCIENCE FAIR  EPS 4                               TUTTUTYTV   A68161 1 25307BCC                              
SPOYTV   021001190521      000010KRAFT/LIFE CC/BB FALL 1OF2                                                                                                                                     
COMYTV   021001190531      000030HASBRO/CORPORATE FALL                                                                                                                                          
COMYTV   021001190601      000030KRAFT/FALL KIDS :30'S                                                                                                                                          
COMYTV   021001190631      000030UNIVERSAL VIDEO/BIG FAT LIAR                                                                                                                                   
COMYTV   021001190701      000030HWY/CPA-ADULT PACKAGE#3                                                                                                                                        
COMYTV   021001191728      000100P&G/CORPORATE BASE BUY                                                                                                                                         
COMYTV   021001191828      000030GENERAL MILLS/PIZZA POPS-FALL                                                                                                                                  
COMYTV   021001191858      000015PARAMOUNT/GREASE                                                                                                                                               
COMYTV   021001191913      000015L'OREAL CANADA/KIDS SHAMPOO                                                                                                                                    
COMYTV   021001192709      000030KELLOGG/TEEN                                                                                                                                                   
COMYTV   021001192739      000030ALLIANCE/VIRGINIA'S RUN                                                                                                                                        
COMYTV   021001192809      000030BURGER KING                                                                                                                                                    
COMYTV   021001192839      000030GENERAL MILLS/FXF-NON ANIMATED                                                                                                                                 
ID YTV   021001193008      000012STATION ID                                                                                                                                                     
PGRYTV   021001193020200001002941YU-GI-OH                                          SCARS OF DEFEAT EP 16                                                7 38307ECC                              
SPOYTV   021001193750      000010GENERAL MILLS/PIZZA POPS-FALL                                                                                                                                  
COMYTV   021001193800      000015DREAMWORKS/TUXEDO ADD ON                                                                                                                                       
COMYTV   021001193815      000030HWY/CPA-ADULT PACKAGE#1                                                                                                                                        
COMYTV   021001193845      000030GEN MILLS/CTC NON ANIMATED                                                                                                                                     
COMYTV   021001193915      000030AOL/AOL                                                                                                                                                        
COMYTV   021001193945      000015JOHNSON & JOHNSON INC.                                                                                                                                         
PRCYTV   021001194000      000030YTV PROMO CONTRACT                                                                                                                                             
COMYTV   021001194423      000030GENERAL MILLS/TRADITIONAL                                                                                                                                      
COMYTV   021001194453      000100P&G/CORP BASE BUY/PRE-EMPTIBLE                                                                                                                                 
COMYTV   021001194553      000030UNIVERSAL VIDEO/BIG FAT LIAR                                                                                                                                   
PRCYTV   021001194623      000030YTV PROMO CONTRACT                                                                                                                                             
PRCYTV   021001194653      000030YTV PROMO CONTRACT                                                                                                                                             
COMYTV   021001195104      000015NIVEA CREAM/CLEANSERS                                                                                                                                          
COMYTV   021001195119      000030GENERAL MILLS/PIZZA POPS-FALL                                                                                                                                  
COMYTV   021001195149      000030BOY SCOUTS OF CANADA                                                                                                                                           
COMYTV   021001195219      000030HASBRO/CORPORATE-PT2                                                                                                                                           
COMYTV   021001195249      000015PARAMOUNT/GREASE                                                                                                                                               
PRCYTV   021001195304      000030YTV PROMO CONTRACT                                                                                                                                             
PRCYTV   021001195334      000015YTV PROMO CONTRACT                                                                                                                                             
ID YTV   021001195949      000012STATION ID                                                                                                                                                     
PGRYTV   021001200001203000002959DRAGON BALL Z                                     UNLIKELY FRIENDSHIP  EPS 237                                  D02590 7 28307ECC2                             
SPOYTV   021001200107      000010KRAFT/LIFE CC/BB FALL 1OF2                                                                                                                                     
COMYTV   021001200117      000015DREAMWORKS/TUXEDO ADD ON                                                                                                                                       
COMYTV   021001200132      000030PEPSICO/FRITO-LAY/PLANET LUNCH                                                                                                                                 
COMYTV   021001200202      000030HASBRO/CORPORATE-PT2                                                                                                                                           
COMYTV   021001200232      000030HWY/ADULT BARTER#1                                                                                                                                             
COMYTV   021001200302      000015L'OREAL CANADA                                                                                                                                                 
PRCYTV   021001200317      000030YTV PROMO CONTRACT                                                                                                                                             
PRCYTV   021001200347      000030YTV PROMO CONTRACT                                                                                                                                             
COMYTV   021001201344      000030GENERAL MILLS/PIZZA POPS-FALL                                                                                                                                  
COMYTV   021001201414      000030DISNEY VACATIONS/CRUISE LINES                                                                                                                                  
COMYTV   021001201444      000030KELLOGG/TEEN                                                                                                                                                   
COMYTV   021001201514      000030BURGER KING                                                                                                                                                    
COMYTV   021001202549      000030BUENA VISTA/TUCKE EVERLASTING                                                                                                                                  
COMYTV   021001202619      000015LONDON DRUGS/CLEARASIL                                                                                                                                         
COMYTV   021001202634      000030HASBRO/CORPORATE FALL                                                                                                                                          
COMYTV   021001202704      000030HWY/ADULT BARTER#2                                                                                                                                             
COMYTV   021001202734      000015DANONE                                                                                                                                                         
PRCYTV   021001202749      000030YTV PROMO CONTRACT                                                                                                                                             
PROYTV   021001202819      000030YTV PROMO CONTRACT                                                                                                                                             
ID YTV   021001202948      000012STATION ID                                                                                                                                                     
PGRYTV   021001203000210004003004REBOOT                                            EPS 17--BAD BOB                                   ALLIANYTV   P21683 1 35307ECC                              
SPOYTV   021001203816      000010DISCOVERY KIDS/DK WEB                                                                                                                                          
COMYTV   021001203826      000015LONDON DRUGS/CLEARASIL                                                                                                                                         
COMYTV   021001203841      000030KELLOGG/KIDS FALL                                                                                                                                              
COMYTV   021001203911      000030IRWIN/OLDER GIRL LINES                                                                                                                                         
COMYTV   021001203941      000030UNIVERSAL VIDEO/BIG FAT LIAR                                                                                                                                   
COMYTV   021001204011      000015HASBRO/CORPORATE FALL                                                                                                                                          
COMYTV   021001204458      000015DANONE                                                                                                                                                         
COMYTV   021001204513      000030MATTEL/FALL CORPORATE                                                                                                                                          
COMYTV   021001204543      000030HWY/CPA-ADULT PACKAGE#7                                                                                                                                        
COMYTV   021001204613      000030MATTEL/LITTLE PEOPLE-WOMEN                                                                                                                                     
COMYTV   021001204643      000015HASBRO/CORPORATE FALL                                                                                                                                          
COMYTV   021001205108      000015HASBRO/CORPORATE FALL                                                                                                                                          
COMYTV   021001205123      000030GENERAL MILLS/TRADITIONAL                                                                                                                                      
COMYTV   021001205153      000015HASBRO/CORPORATE FALL                                                                                                                                          
COMYTV   021001205208      000030IRWIN/OLDER GIRL LINES                                                                                                                                         
COMYTV   021001205238      000030BUENA VISTA/TUCKE EVERLASTING                                                                                                                                  
PRCYTV   021001205308      000015YTV PROMO CONTRACT                                                                                                                                             
ID YTV   021001205951      000012STATION ID                                                                                                                                                     
PGRYTV   021001210004213005003001ZACK FILES                                        THE BOTTOM LINE EP21                              ZACKPRYTV   A43749 1 35307ACC                              
SPOYTV   021001210937      000010NESTLE/ICE CREAM SUNDAE                                                                                                                                        
COMYTV   021001210947      000030NESTLE/ICE CREAM SUNDAE                                                                                                                                        
COMYTV   021001211017      000030SHAW @ HOME                                                                                                                                                    
COMYTV   021001211047      000030HWY/CPA-ADULT PACKAGE#5                                                                                                                                        
COMYTV   021001211117      000030SUBWAY/CORPORATE                                                                                                                                               
COMYTV   021001211757      000030KELLOGG/TEEN                                                                                                                                                   
COMYTV   021001211827      000030AOL/AOL                                                                                                                                                        
COMYTV   021001211857      000030UNIVERSAL VIDEO/BIG FAT LIAR                                                                                                                                   
COMYTV   021001211927      000030BURGER KING                                                                                                                                                    
COMYTV   021001212521      000015HEINZ/HOT BITS                                                                                                                                                 
COMYTV   021001212536      000030GEN MOTORS/FA                                                                                                                                                  
COMYTV   021001212606      000015L'OREAL CANADA                                                                                                                                                 
COMYTV   021001212621      000030HWY/ADULT BARTER#2                                                                                                                                             
COMYTV   021001212651      000030BUENA VISTA/TUCKE EVERLASTING                                                                                                                                  
PRCYTV   021001212721      000030YTV PROMO CONTRACT                                                                                                                                             
ID YTV   021001212951      000012STATION ID                                                                                                                                                     
PGRYTV   021001213005220015003010RADIO ACTIVE ( III)(#53-78)                       NO TROUBLE ATOLL EP75                             TELEACYTV   C16978 1 35307BCC                              
COMYTV   021001213846      000015HEINZ/HOT BITS                                                                                                                                                 
COMYTV   021001213901      000100P&G/CORPORATE BASE BUY                                                                                                                                         
COMYTV   021001214001      000030PROCTER & GAMBLE INC.                                                                                                                                          
COMYTV   021001214031      000015HEINZ                                                                                                                                                          
COMYTV   021001214721      000030BURGER KING                                                                                                                                                    
COMYTV   021001214751      000030KRAFT/CRISPERS                                                                                                                                                 
COMYTV   021001214821      000030DISNEY VACATIONS/CRUISE LINES                                                                                                                                  
COMYTV   021001214851      000030HWY/ADULT BARTER#1                                                                                                                                             
COMYTV   021001215628      000030NESTLE/ICE CREAM SUNDAE                                                                                                                                        
COMYTV   021001215658      000030ALLIANCE/BARBIE AS RAPUNZEL                                                                                                                                    
COMYTV   021001215728      000015DANONE                                                                                                                                                         
COMYTV   021001215743      000030GENERAL MILLS CANADA INC.                                                                                                                                      
COMYTV   021001215813      000015BUENA VISTA/TUCK EVERLASTING                                                                                                                                   
ID YTV   021001215955      000012STATION ID                                                                                                                                                     
SPOYTV   021001220007      000005K CLARK/HUGGIES ULTRA                                                                                                                                          
PGRYTV   021001220015223004002949BREAKER HIGH (#1-44)                              KISS OF THE SHY-ER WOMAN                          SHAVIC      SR0291 1 36307ACC                              
COMYTV   021001220223      000030DISNEY CONSUMER PRODUCTS                                                                                                                                       
COMYTV   021001220253      000030K CLARK/HUGGIES ULTRA                                                                                                                                          
COMYTV   021001220323      000030HWY/CPA-ADULT PACKAGE#1                                                                                                                                        
COMYTV   021001220353      000030KRAFT/CRISPERS                                                                                                                                                 
PRCYTV   021001220423      000030YTV PROMO CONTRACT                                                                                                                                             
COMYTV   021001221304      000030KELLOGG/TEEN                                                                                                                                                   
COMYTV   021001221334      000030HWY/CPA-ADULT PACKAGE#2                                                                                                                                        
COMYTV   021001221404      000030K CLARK/KOTEX                                                                                                                                                  
COMYTV   021001221434      000030HIGHWAY ENTERTAINMENT                                                                                                                                          
PRCYTV   021001221504      000030YTV PROMO CONTRACT                                                                                                                                             
PRCYTV   021001221534      000030YTV PROMO CONTRACT                                                                                                                                             
COMYTV   021001222517      000015DANONE                                                                                                                                                         
COMYTV   021001222532      000030K CLARK/HUGGIES SUPREME                                                                                                                                        
COMYTV   021001222602      000030BUENA VISTA/TUCKE EVERLASTING                                                                                                                                  
COMYTV   021001222632      000030GENERAL MILLS/PIZZA POPS-FALL                                                                                                                                  
COMYTV   021001222702      000015NIVEA CREAM/NIVEA SOFT                                                                                                                                         
PRCYTV   021001222717      000030YTV PROMO CONTRACT                                                                                                                                             
PRCYTV   021001222747      000030YTV PROMO CONTRACT                                                                                                                                             
ID YTV   021001222948      000012STATION ID                                                                                                                                                     
PGRYTV   021001223004230000002956BIG WOLF ON CAMPUS                                TIME AND AGAIN EPS 17                             347689      A29769 1 35307BCC                              
COMYTV   021001223905      000015J&J/CLEAN & CLEAR                                                                                                                                              
COMYTV   021001223920      000030NESTLE/ICE CREAM SUNDAE                                                                                                                                        
COMYTV   021001223950      000030BURGER KING                                                                                                                                                    
COMYTV   021001224020      000030KRAFT/CRISPERS                                                                                                                                                 
COMYTV   021001224050      000015PARAMOUNT/GREASE                                                                                                                                               
PRCYTV   021001224105      000015YTV PROMO CONTRACT                                                                                                                                             
COMYTV   021001224900      000100P&G/CORP BASE BUY/PRE-EMPTIBLE                                                                                                                                 
COMYTV   021001225000      000030UNIVERSAL VIDEO/BIG FAT LIAR                                                                                                                                   
COMYTV   021001225030      000030W NETWORK/PROMOTIONAL SPOTS                                                                                                                                    
PRCYTV   021001225100      000030YTV PROMO CONTRACT                                                                                                                                             
COMYTV   021001225607      000100P&G/CORP BASE BUY/PRE-EMPTIBLE                                                                                                                                 
COMYTV   021001225707      000030DISNEY VACATIONS/CRUISE LINES                                                                                                                                  
COMYTV   021001225737      000030K CLARK/PULL-UPS                                                                                                                                               
PRCYTV   021001225807      000030YTV PROMO CONTRACT                                                                                                                                             
ID YTV   021001225948      000012STATION ID                                                                                                                                                     
PGRYTV   021001230000233500003500MY FAMILY                                         THE AGE OF ROMANCE  EPS11                                            3 38807BCC                              
COMYTV   021001230820      000030MATTEL/LITTLE PEOPLE-WOMEN                                                                                                                                     
COMYTV   021001230850      000030HWY/ADULT BARTER#1                                                                                                                                             
COMYTV   021001230920      000030ALLIANCE/VIRGINIA'S RUN                                                                                                                                        
COMYTV   021001230950      000015L'OREAL CANADA                                                                                                                                                 
COMYTV   021001231729      000015GILLETTE/SOFT&DRY                                                                                                                                              
COMYTV   021001231744      000030HWY/CPA-ADULT PACKAGE#7                                                                                                                                        
COMYTV   021001231814      000030BUENA VISTA/TUCKE EVERLASTING                                                                                                                                  
COMYTV   021001231844      000030GENERAL MILLS CANADA INC.                                                                                                                                      
COMYTV   021001231914      000015GEN MOTORS/VIBE                                                                                                                                                
COMYTV   021001232811      000030UNIVERSAL VIDEO/BIG FAT LIAR                                                                                                                                   
COMYTV   021001232841      000030SUBWAY/CORPORATE                                                                                                                                               
COMYTV   021001232911      000030AOL                                                                                                                                                            
COMYTV   021001232941      000030MATTEL CANADA INC.                                                                                                                                             
ID YTV   021001233448      000012STATION ID                                                                                                                                                     
PGRYTV   0210012335000010000035002 POINT 4 CHILDREN                                WOMEN ON THE EDGE OF BREAKDOWN                                       3 28807BCC                              
COMYTV   021001234306      000030KELLOGG/TEEN                                                                                                                                                   
COMYTV   021001234336      000030HWY/CPA-ADULT PACKAGE#6                                                                                                                                        
COMYTV   021001235152      000030KELLOGG/TEEN                                                                                                                                                   
COMYTV   021001235222      000030HWY/CPA-ADULT PACKAGE#3                                                                                                                                        
COMYTV   021001235252      000030AOL/AOL                                                                                                                                                        
COMYTV   021001235957      000030HWY/CPA-ADULT PACKAGE#4                                                                                                                                        
COMYTV   021001000027      000030HWY/CPA-ADULT PACKAGE#6                                                                                                                                        
COMYTV   021001000748      000100P&G/CORP BASE BUY/PRE-EMPTIBLE                                                                                                                                 
COMYTV   021001000848      000030MATTEL/LITTLE PEOPLE-WOMEN                                                                                                                                     
COMYTV   021001000918      000030GENERAL MILLS/PIZZA POPS-FALL                                                                                                                                  
ID YTV   021001000948      000012STATION ID                                                                                                                                                     
PGRYTV   021001001000004247003247ARE YOU BEING SERVED?                             THE OLD ORDER CHANGES                                                3 38807BCC                              
COMYTV   021001001619      000030SUBWAY/CORPORATE                                                                                                                                               
COMYTV   021001001649      000030HWY/CPA-ADULT PACKAGE#6                                                                                                                                        
COMYTV   021001001719      000030NESTLE/ICE CREAM SUNDAE                                                                                                                                        
COMYTV   021001001749      000030MATTEL/LITTLE PEOPLE-WOMEN                                                                                                                                     
COMYTV   021001002154      000030HWY/CPA-ADULT PACKAGE#7                                                                                                                                        
COMYTV   021001002224      000030MATTEL/LITTLE PEOPLE-WOMEN                                                                                                                                     
COMYTV   021001002254      000030AOL/AOL                                                                                                                                                        
COMYTV   021001002324      000030MATTEL/NATIONAL WOMEN                                                                                                                                          
COMYTV   021001002354      000015NIVEA CREAM/CLEANSERS                                                                                                                                          
COMYTV   021001002409      000015HEINZ/HOT BITS                                                                                                                                                 
COMYTV   021001003136      000100P&G/CORPORATE BASE BUY                                                                                                                                         
COMYTV   021001003236      000030BUENA VISTA/TUCKE EVERLASTING                                                                                                                                  
COMYTV   021001003306      000030SUBWAY/CORPORATE                                                                                                                                               
COMYTV   021001003336      000030HWY/CPA-ADULT PACKAGE#7                                                                                                                                        
INTYTV   021001004247004359000112HERITAGE MINUTE                                   ROCKET RICHARD EP47                                                  1 358120CC                              
PGRYTV   021001004359012255003856KEEPING UP APPEARANCES                            EPS 32                                                               3 38807BCC                              
