PGRYTV   040201060000062603002603UH OH!                                            EPS 109                                                              1 311100CC                              
PRCYTV   040201060310      000030YTV PROMO CONTRACT                                                                                                                                             
PRCYTV   040201060340      000030YTV PROMO CONTRACT                                                                                                                                             
PRCYTV   040201061233      000030YTV PROMO CONTRACT                                                                                                                                             
PRCYTV   040201061801      000030YTV PROMO CONTRACT                                                                                                                                             
PRCYTV   040201061831      000030YTV PROMO CONTRACT                                                                                                                                             
INTYTV   040201062603063000000357CHIP 'N' ORBIT                                    EPISODE 24                                                           1 311120CC                              
ID YTV   040201062948      000012STATION ID                                                                                                                                                     
PGRYTV   040201063000065607002607SEVEN LITTLE MONSTERS                             A MONSTER'S BEST FRIEND   (PS)                                       1 32107ECC                              
INTYTV   040201065607065848000241NELVANA INTERSTITIALS                             IT'S A WONDER-FOUR LIFE                                              1 321120                                
PRCYTV   040201065748      000030YTV PROMO CONTRACT                                                                                                                                             
PRCYTV   040201065818      000030YTV PROMO CONTRACT                                                                                                                                             
INTYTV   040201065848070000000112HOOTA & SNOZ                                      EPS 14                                                               7 381120                                
ID YTV   040201065948      000012STATION ID                                                                                                                                                     
PGRYTV   040201070000070106000106DEXTER'S LABORATORY                               SCHOOL GIRL/FATHER KNOWS/CHESS                                       2 38307ECC                              
COMYTV   040201070036      000030MCDONALDS/HAPPY MEAL-LOW DEMND                                                                                                                                 
PSAYTV   040201070106070136000030PSA/ADOPT A TIGER                                                                                                      1 000130                                
PGRYTV   040201070136070904000728DEXTER'S LABORATORY                               SCHOOL GIRL/FATHER KNOWS/CHESS                                       2 38307ECC                              
PRCYTV   040201070136      000015YTV PROMO CONTRACT                                                                                                                                             
PSAYTV   040201070904071104000200PSA/CCA/STORYTIME(RACOONS2)                                                                                            1 000130                                
PGRYTV   040201071104072730001626DEXTER'S LABORATORY                               SCHOOL GIRL/FATHER KNOWS/CHESS                                       2 38307ECC                              
COMYTV   040201071827      000030KELLOGG/SCOOBY DOO                                                                                                                                             
COMYTV   040201071857      000030I TOYS                                                                                                                                                         
PRCYTV   040201071927      000030YTV PROMO CONTRACT                                                                                                                                             
INTYTV   040201072730072848000118JIMMY NEUTRON                                     EPS 7                                                                2 383120                                
INTYTV   040201072848073000000112HOOTA & SNOZ                                      EPS 15                                                               7 383120                                
ID YTV   040201072948      000012STATION ID                                                                                                                                                     
PGRYTV   040201073000074007001007WOODY WOODPECKER (NEW)                            BAVARIANNOYING/MAGICIAN EP22                                         2 38307ECC                              
COMYTV   040201073037      000030DISC.KIDS/ENDURANCE SEASON 2                                                                                                                                   
COMYTV   040201073107      000030MCDONALDS/HAPPY MEAL-LOW DEMND                                                                                                                                 
PRCYTV   040201073137      000030YTV PROMO CONTRACT                                                                                                                                             
PRCYTV   040201073207      000030YTV PROMO CONTRACT                                                                                                                                             
COMYTV   040201073937      000030GEN MILLS/PERIOD 3 TRADITIONAL                                                                                                                                 
PSAYTV   040201074007074107000100HINTERLAND WHO/MONARCH BUTTERF                                                                                         1 000130                                
COMYTV   040201074107      000030MCCAINS                                                                                                                                                        
PGRYTV   040201074107074828000721WOODY WOODPECKER (NEW)                            BAVARIANNOYING/MAGICIAN EP22                                         2 38307ECC                              
PSAYTV   040201074828074858000030CONCERNED CHILDREN/WORDS HURT                                                                                          1 000130                                
PGRYTV   040201074858075747000849WOODY WOODPECKER (NEW)                            BAVARIANNOYING/MAGICIAN EP22                                         2 38307ECC                              
COMYTV   040201074858      000030MATTEL CANADA INC.                                                                                                                                             
PRCYTV   040201074928      000030YTV PROMO CONTRACT                                                                                                                                             
PRCYTV   040201074958      000030YTV PROMO CONTRACT                                                                                                                                             
INTYTV   040201075747075847000100HOOTA & SNOZ                                      EPS 16                                                               7 383120                                
INTYTV   040201075847080000000113STICKIN' AROUND                                   THE AMAZING RUBBERGUY                                                1 323120CC                              
ID YTV   040201075948      000012STATION ID                                                                                                                                                     
PGRYTV   040201080000081519001519STUART LITTLE                                     EPS 1 THE MEATLOAF BANDIT                                            2 38307ECC                              
SPOYTV   040201080139      000010KELLOGG/CORPORATE KIDS                                                                                                                                         
COMYTV   040201080149      000030KELLOGG/FROOT LOOPS                                                                                                                                            
COMYTV   040201080219      000030MCDONALDS/HAPPY MEAL-LOW DEMND                                                                                                                                 
PRCYTV   040201080249      000030YTV PROMO CONTRACT                                                                                                                                             
COMYTV   040201081419      000030GEN MILLS/PERIOD 3 TRADITIONAL                                                                                                                                 
COMYTV   040201081449      000030I TOYS                                                                                                                                                         
PSAYTV   040201081519081619000100PSA/CCA/DON'T PUT IT IN MOUTH                                                                                          1 000130                                
PGRYTV   040201081619082523000904STUART LITTLE                                     EPS 1 THE MEATLOAF BANDIT                                            2 38307ECC                              
PSAYTV   040201082523082553000030PSA/CONCERN CHILDREN/ICE CREAM                                                                                         1 000130                                
PGRYTV   040201082553082828000235STUART LITTLE                                     EPS 1 THE MEATLOAF BANDIT                                            2 38307ECC                              
COMYTV   040201082553      000030KRAFT/KID P1 :30'S                                                                                                                                             
PRCYTV   040201082623      000030YTV PROMO CONTRACT                                                                                                                                             
PRCYTV   040201082653      000030YTV PROMO CONTRACT                                                                                                                                             
INTYTV   040201082828083000000132JIMMY NEUTRON                                     EPS 1                                                                2 383120                                
ID YTV   040201082948      000012STATION ID                                                                                                                                                     
PGRYTV   040201083000085733002733CHALK ZONE                                        PUTTIN' ON THE DOG     EPS 9                                         2 38307ECC                              
COMYTV   040201083051      000030KELLOGG/RICE KRISPIE SQUARE BA                                                                                                                                 
COMYTV   040201083121      000030MCDONALDS/HAPPY MEAL-LOW DEMND                                                                                                                                 
PRCYTV   040201083151      000030YTV PROMO CONTRACT                                                                                                                                             
PRCYTV   040201083221      000015YTV PROMO CONTRACT                                                                                                                                             
COMYTV   040201084349      000030GEN MILLS/PERIOD 3 TRADITIONAL                                                                                                                                 
COMYTV   040201084419      000030DISCOVERY KIDS                                                                                                                                                 
COMYTV   040201084449      000030MATTEL CANADA INC.                                                                                                                                             
COMYTV   040201084519      000030MCCAINS                                                                                                                                                        
COMYTV   040201085703      000030BVHV/LION KING 1.5(:30'S)                                                                                                                                      
PSAYTV   040201085733085803000030PSA/THINK FAST/KICKFLIP-CDN                                                                                            1 000130                                
PGRYTV   040201085803090000000157CHALK ZONE                                        PUTTIN' ON THE DOG     EPS 9                                         2 38307ECC                              
PRCYTV   040201085803      000030YTV PROMO CONTRACT                                                                                                                                             
PROYTV   040201085833      000030YTV PROMO CONTRACT                                                                                                                                             
ID YTV   040201085948      000012STATION ID                                                                                                                                                     
PGRYTV   040201090000091455001455HEY ARNOLD                                        OLGA COMES HOME/SALLY'S COMET                                        2 38307ECC                              
COMYTV   040201090239      000030KELLOGG/RICE KRISPIE SQUARE BA                                                                                                                                 
COMYTV   040201090309      000030MCDONALDS/HAPPY MEAL-LOW DEMND                                                                                                                                 
PRCYTV   040201090339      000030YTV PROMO CONTRACT                                                                                                                                             
PRCYTV   040201090409      000015YTV PROMO CONTRACT                                                                                                                                             
COMYTV   040201091355      000030MATTEL/KIDS 2004 CORPORATE WK                                                                                                                                  
COMYTV   040201091425      000030GEN.MILLS/PERIOD 3 TRADITIONAL                                                                                                                                 
PSAYTV   040201091455091525000030PSA/CONCERN CHILDREN/BLOWN AWA                                                                                         1 000130                                
PGRYTV   040201091525092220000655HEY ARNOLD                                        OLGA COMES HOME/SALLY'S COMET                                        2 38307ECC                              
COMYTV   040201091525      000030KRAFT CANADA INC.                                                                                                                                              
PSAYTV   040201092220092320000100PSA/CCA/STORYTIME(RACOONS1)                                                                                            1 000130                                
PGRYTV   040201092320093000000640HEY ARNOLD                                        OLGA COMES HOME/SALLY'S COMET                                        2 38307ECC                              
PRCYTV   040201092320      000030YTV PROMO CONTRACT                                                                                                                                             
PROYTV   040201092350      000015YTV PROMO CONTRACT                                                                                                                                             
PROYTV   040201092405      000015YTV PROMO CONTRACT                                                                                                                                             
ID YTV   040201092948      000012STATION ID                                                                                                                                                     
PGRYTV   040201093000093121000121JIMMY NEUTRON                                     WHEN PANTS ATTACK  EPS1                                              2 38307ECC                              
SPOYTV   040201093041      000010KELLOGG/CORPORATE KIDS                                                                                                                                         
COMYTV   040201093051      000030MCDONALDS/HAPPY MEAL-LOW DEMND                                                                                                                                 
PSAYTV   040201093121093151000030HINTERLAND WHO'S/COMMON LOON                                                                                           1 000130                                
PGRYTV   040201093151095733002542JIMMY NEUTRON                                     WHEN PANTS ATTACK  EPS1                                              2 38307ECC                              
PRCYTV   040201093151      000030YTV PROMO CONTRACT                                                                                                                                             
PRCYTV   040201093221      000030YTV PROMO CONTRACT                                                                                                                                             
PRCYTV   040201093251      000030YTV PROMO CONTRACT                                                                                                                                             
COMYTV   040201094432      000015BVHV/ALICE IN WONDERLAND                                                                                                                                       
COMYTV   040201094447      000030GEN MILLS/PERIOD 3 TRADITIONAL                                                                                                                                 
COMYTV   040201094517      000030KRAFT CANADA INC.                                                                                                                                              
COMYTV   040201094547      000030MATTEL/KIDS 2004 CORPORATE WK                                                                                                                                  
COMYTV   040201094617      000015YTV CREATIVE MEDIA                                                                                                                                             
COMYTV   040201095703      000030MATTEL CANADA INC.                                                                                                                                             
PSAYTV   040201095733095803000030CCA/WE ARE GIRLS                                                                                                       1 000130                                
PGRYTV   040201095803100000000157JIMMY NEUTRON                                     WHEN PANTS ATTACK  EPS1                                              2 38307ECC                              
PRCYTV   040201095803      000030YTV PROMO CONTRACT                                                                                                                                             
PROYTV   040201095833      000030YTV PROMO CONTRACT                                                                                                                                             
ID YTV   040201095948      000012STATION ID                                                                                                                                                     
PGRYTV   040201100000103000003000SPONGEBOB SQUAREPANTS                             HALLMONITOR/JELLYFISH EP7                                            2 38307ECC                              
COMYTV   040201100049      000030MCDONALDS/HAPPY MEAL-LOW DEMND                                                                                                                                 
COMYTV   040201100119      000030GEN.MILLS/PERIOD 3 TRADITIONAL                                                                                                                                 
PRCYTV   040201100149      000015YTV PROMO CONTRACT                                                                                                                                             
PRCYTV   040201100204      000030YTV PROMO CONTRACT                                                                                                                                             
COMYTV   040201100710      00001520TH CENTURY/CATCH THAT KID                                                                                                                                    
COMYTV   040201100725      000030MATTEL/KIDS 2004 CORPORATE WK                                                                                                                                  
COMYTV   040201100755      000030I TOYS/TOP IT                                                                                                                                                  
COMYTV   040201100825      000015YTV CREATIVE MEDIA                                                                                                                                             
COMYTV   040201100840      000030I TOYS/TOP IT                                                                                                                                                  
COMYTV   040201101601      000030BVHV/LION KING 1.5(:30'S)                                                                                                                                      
COMYTV   040201101631      000030KELLOGG/RICE KRISPIE SQUARE BA                                                                                                                                 
PRCYTV   040201101701      000030YTV PROMO CONTRACT                                                                                                                                             
PROYTV   040201101731      000030YTV PROMO CONTRACT                                                                                                                                             
ID YTV   040201102948      000012STATION ID                                                                                                                                                     
PGRYTV   040201103000104518001518FAIRLY ODD PARENTS                                KUNG TIMMY/WHICH WITCH  EPS 35                                       2 38307ECC                              
COMYTV   040201103051      000015BVHV/ALICE IN WONDERLAND                                                                                                                                       
COMYTV   040201103106      000030MCDONALDS/HAPPY MEAL-LOW DEMND                                                                                                                                 
COMYTV   040201103136      000015YTV/KRAFT-JOIN THE JUSTICE LEA                                                                                                                                 
PRCYTV   040201103151      000015YTV PROMO CONTRACT                                                                                                                                             
COMYTV   040201104333      00001520TH CENTURY/CATCH THAT KID                                                                                                                                    
COMYTV   040201104348      000030MATTEL/KIDS 2004 CORPORATE WK                                                                                                                                  
COMYTV   040201104418      000030GEN.MILLS/PERIOD 3 TRADITIONAL                                                                                                                                 
COMYTV   040201104448      000030KELLOGG/FROOT LOOPS                                                                                                                                            
PSAYTV   040201104518104533000015PSA/MULTIPLE SCLEROSIS/SHAVE                                                                                           1 000130                                
PGRYTV   040201104533110000001427FAIRLY ODD PARENTS                                KUNG TIMMY/WHICH WITCH  EPS 35                                       2 38307ECC                              
COMYTV   040201105700      000030KELLOGG/SCOOBY DOO                                                                                                                                             
COMYTV   040201105730      000030I TOYS                                                                                                                                                         
PRCYTV   040201105800      000030YTV PROMO CONTRACT                                                                                                                                             
PRCYTV   040201105830      000030YTV PROMO CONTRACT                                                                                                                                             
ID YTV   040201105948      000012STATION ID                                                                                                                                                     
PGRYTV   040201110000111930001930ALL GROWN UP                                      RIVER RATS              EPS 7                                        2 38307ECC                              
COMYTV   040201111120      00001520TH CENTURY/CATCH THAT KID                                                                                                                                    
COMYTV   040201111135      000030MCDONALDS/HAPPY MEAL-LOW DEMND                                                                                                                                 
COMYTV   040201111205      000015YTV CREATIVE MEDIA                                                                                                                                             
PRCYTV   040201111220      000030YTV PROMO CONTRACT                                                                                                                                             
PRCYTV   040201111250      000030YTV PROMO CONTRACT                                                                                                                                             
COMYTV   040201111830      000030BVHV/ALICE IN WONDERLAND                                                                                                                                       
COMYTV   040201111900      000030KELLOGG/FROOT LOOPS                                                                                                                                            
PSAYTV   040201111930112000000030PSA/CONCERN CHILDREN/BLOWN AWA                                                                                         1 000130                                
PGRYTV   040201112000112748000748ALL GROWN UP                                      RIVER RATS              EPS 7                                        2 38307ECC                              
COMYTV   040201112000      000030GEN.MILLS/PERIOD 3 TRADITIONAL                                                                                                                                 
COMYTV   040201112703      000015BVHV/LION KING 1.5(:15'S)                                                                                                                                      
COMYTV   040201112718      000030KELLOGG/SCOOBY DOO                                                                                                                                             
PSAYTV   040201112748112803000015GREENPEACE/CLEAN ENERGY NOW                                                                                            1 000130                                
PGRYTV   040201112803113000000157ALL GROWN UP                                      RIVER RATS              EPS 7                                        2 38307ECC                              
PRCYTV   040201112803      000030YTV PROMO CONTRACT                                                                                                                                             
PROYTV   040201112833      000030YTV PROMO CONTRACT                                                                                                                                             
ID YTV   040201112948      000012STATION ID                                                                                                                                                     
PGRYTV   040201113000114722001722JACOB TWO TWO                                     JTT & COLOSSAL CANDY CHALLENGE                    NELVAN             1 32307ECC                              
COMYTV   040201113817      000030MCDONALDS/HAPPY MEAL-LOW DEMND                                                                                                                                 
COMYTV   040201113847      000030I TOYS                                                                                                                                                         
PRCYTV   040201113917      000030YTV PROMO CONTRACT                                                                                                                                             
PRCYTV   040201113947      000015YTV PROMO CONTRACT                                                                                                                                             
COMYTV   040201114652      000030KELLOGG/FROOT LOOPS                                                                                                                                            
PSAYTV   040201114722114822000100HINTERLAND WHO/POLAR BEAR                                                                                              1 000130                                
PGRYTV   040201114822115633000811JACOB TWO TWO                                     JTT & COLOSSAL CANDY CHALLENGE                    NELVAN             1 32307ECC                              
COMYTV   040201114822      000030MCCAINS                                                                                                                                                        
COMYTV   040201115618      000015BVHV/ALICE IN WONDERLAND                                                                                                                                       
PSAYTV   040201115633115648000015PSA/MULTIPLE SCLEROSIS/SHAVE                                                                                           1 000130                                
PGRYTV   040201115648120000000312JACOB TWO TWO                                     JTT & COLOSSAL CANDY CHALLENGE                    NELVAN             1 32307ECC                              
COMYTV   040201115648      000030KELLOGG CANADA INC.                                                                                                                                            
PRCYTV   040201115718      000030YTV PROMO CONTRACT                                                                                                                                             
PRCYTV   040201115748      000030YTV PROMO CONTRACT                                                                                                                                             
ID YTV   040201115948      000012STATION ID                                                                                                                                                     
PGRYTV   040201120000121107001107YVON OF THE YUKON                                 CHEESES OF MONTREAL     EPS 36                    YVON  YTV   A77138 1 35307ECC                              
COMYTV   040201121037      000030DISCOVERY KIDS                                                                                                                                                 
PSAYTV   040201121107121207000100PSA/CCA/DON'T PUT IT IN MOUTH                                                                                          1 000130                                
PGRYTV   040201121207122042000835YVON OF THE YUKON                                 CHEESES OF MONTREAL     EPS 36                    YVON  YTV   A77138 1 35307ECC                              
COMYTV   040201121207      000030MATTEL CANADA INC.                                                                                                                                             
COMYTV   040201121912      000030SONY ENT/FIFTY FIRST DATES                                                                                                                                     
COMYTV   040201121942      000030MCCAINS                                                                                                                                                        
COMYTV   040201122012      000030KRAFT CANADA INC.                                                                                                                                              
PSAYTV   040201122042122112000030PSA/LITERACY-ED/LITERACY DECAD                                                                                         1 000130                                
PGRYTV   040201122112122751000639YVON OF THE YUKON                                 CHEESES OF MONTREAL     EPS 36                    YVON  YTV   A77138 1 35307ECC                              
COMYTV   040201122721      000030BVP/CONFESSIONS TEENAGE DRAMA                                                                                                                                  
PSAYTV   040201122751122851000100HINTERLAND WHO/POLAR BEAR                                                                                              1 000130                                
PGRYTV   040201122851123005000114YVON OF THE YUKON                                 CHEESES OF MONTREAL     EPS 36                    YVON  YTV   A77138 1 35307ECC                              
COMYTV   040201122851      000030KRAFT CANADA INC.                                                                                                                                              
ID YTV   040201122951      000012STATION ID                                                                                                                                                     
PGRYTV   040201123005125751002746GIRLSTUFF/BOYSTUFF                                TICKETS/FACE POWDER  EPS 2                        DECODEYTV   A74606 1 35307ECC                              
COMYTV   040201123054      000015BVHV/ALICE IN WONDERLAND                                                                                                                                       
COMYTV   040201123109      000030CANADIAN TIRE                                                                                                                                                  
COMYTV   040201123139      000030HIGHWAY ENTERTAINMENT                                                                                                                                          
COMYTV   040201123209      000030MAPLE LEAF FOOD INC.                                                                                                                                           
COMYTV   040201123239      000015YTV CREATIVE MEDIA                                                                                                                                             
COMYTV   040201124400      00001520TH CENTURY/CATCH THAT KID                                                                                                                                    
COMYTV   040201124415      000030J.M. SCHNEIDER                                                                                                                                                 
COMYTV   040201124445      000030EXPEDIA.CA                                                                                                                                                     
COMYTV   040201124515      000030CLOROX                                                                                                                                                         
COMYTV   040201124545      000015LA-Z-BOY CANADA LTD.                                                                                                                                           
COMYTV   040201125721      000030MCDONALDS/HAPPY MEAL-LOW DEMND                                                                                                                                 
PSAYTV   040201125751125851000100HINTERLAND WHO/MONARCH BUTTERF                                                                                         1 000130                                
PGRYTV   040201125851130009000118GIRLSTUFF/BOYSTUFF                                TICKETS/FACE POWDER  EPS 2                        DECODEYTV   A74606 1 35307ECC                              
COMYTV   040201125851      000030NESTLE CANADA INC.                                                                                                                                             
ID YTV   040201125954      000012STATION ID                                                                                                                                                     
PGRYTV   040201130009131457001448MARTIN MYSTERY                                    CURSE OF THE DEEP        EPS 4                    MYSTERYTV   A85370 1 35307ECC                              
COMYTV   040201130617      000030GEN MILLS/PERIOD 3 TRADITIONAL                                                                                                                                 
COMYTV   040201130647      000030YOPLAIT                                                                                                                                                        
COMYTV   040201130717      000030GENERAL MOTORS OF CANADA LTD.                                                                                                                                  
COMYTV   040201130747      000030PEPSICO                                                                                                                                                        
COMYTV   040201131442      000015J&J/CLEAN&CLEAR(03NABS AUCTION                                                                                                                                 
PSAYTV   040201131457131527000030D SUZUKI/NATURE CHALLENGE                                                                                              1 000130                                
PGRYTV   040201131527132309000742MARTIN MYSTERY                                    CURSE OF THE DEEP        EPS 4                    MYSTERYTV   A85370 1 35307ECC                              
COMYTV   040201131527      000030JOHNSON & JOHNSON INC.                                                                                                                                         
COMYTV   040201131557      000030MOTT'S CANADA INC.                                                                                                                                             
COMYTV   040201131627      000015GLAXO/SMITHKLINE BEECHAM                                                                                                                                       
COMYTV   040201132139      000030DISC.KIDS/ENDURANCE SEASON 2                                                                                                                                   
COMYTV   040201132209      000030CANADIAN TIRE                                                                                                                                                  
COMYTV   040201132239      000030MCCAINS                                                                                                                                                        
PSAYTV   040201132309132339000030ABC LEARNING/MUNSCH GENERIC                                                                                            1 000130                                
PGRYTV   040201132339133000000621MARTIN MYSTERY                                    CURSE OF THE DEEP        EPS 4                    MYSTERYTV   A85370 1 35307ECC                              
ID YTV   040201132948      000012STATION ID                                                                                                                                                     
PGRYTV   040201133000134937001937THE BOY                                           POKEBOY                EPS 1                                  A58634 1 35307ECC                              
COMYTV   040201133923      000030KELLOGG/FROOT LOOPS                                                                                                                                            
COMYTV   040201133953      000030CLOROX                                                                                                                                                         
COMYTV   040201134023      000030J.M. SCHNEIDER                                                                                                                                                 
COMYTV   040201134053      000030KRAFT CANADA INC.                                                                                                                                              
COMYTV   040201134807      000030I TOYS/TOP IT                                                                                                                                                  
COMYTV   040201134837      000030MCCAINS                                                                                                                                                        
COMYTV   040201134907      000030KELLOGG CANADA INC.                                                                                                                                            
PSAYTV   040201134937135007000030PSA/WAR AMPS/MATCHING MOTHERS                                                                                          1 000130                                
PGRYTV   040201135007140003000956THE BOY                                           POKEBOY                EPS 1                                  A58634 1 35307ECC                              
COMYTV   040201135725      000030KRAFT/KID P1 :30'S                                                                                                                                             
COMYTV   040201135755      000030GLAXO/SMITHKLINE BEECHAM                                                                                                                                       
COMYTV   040201135825      000030MAPLE LEAF FOOD INC.                                                                                                                                           
COMYTV   040201135855      000030L'OREAL CANADA                                                                                                                                                 
ID YTV   040201135951      000012STATION ID                                                                                                                                                     
PGRYTV   040201140003142702002659MOVILLE MYSTERIES                                 SWARM ENOUGH FOR YOU?    EPS 6                    NELVANYTV          1 32307ECC                              
COMYTV   040201140751      000030KRAFT/KID P1 :30'S                                                                                                                                             
COMYTV   040201140821      000030SO GOOD                                                                                                                                                        
COMYTV   040201140851      000030WYETH CONSUMER HEALTHCARE INC.                                                                                                                                 
COMYTV   040201140921      000030SOBEY'S                                                                                                                                                        
COMYTV   040201141655      000030YOPLAIT                                                                                                                                                        
COMYTV   040201141725      000030GENERAL MOTORS OF CANADA LTD.                                                                                                                                  
COMYTV   040201141755      000030MAPLE LEAF FOOD INC.                                                                                                                                           
COMYTV   040201141825      000030KIMBERLY-CLARK OF CANADA LTD.                                                                                                                                  
PRCYTV   040201141855      000015YTV PROMO CONTRACT                                                                                                                                             
COMYTV   040201142602      000030W NETWORK/UNIVERSAL/W CD                                                                                                                                       
COMYTV   040201142632      000030I TOYS                                                                                                                                                         
PSAYTV   040201142702142802000100PSA/CCA/STORYTIME(RACOONS1)                                                                                            1 000130                                
PGRYTV   040201142802143000000158MOVILLE MYSTERIES                                 SWARM ENOUGH FOR YOU?    EPS 6                    NELVANYTV          1 32307ECC                              
ID YTV   040201142948      000012STATION ID                                                                                                                                                     
PGRYTV   040201143000143703000703FREAKY STORIES                                    AND NOW THE NEWS EP30                             BIGTIMYTV   A42888 1 35307ECC                              
COMYTV   040201143548      000015J&J/CLEAN&CLEAR(03NABS AUCTION                                                                                                                                 
COMYTV   040201143603      000030KELLOGG CANADA INC.                                                                                                                                            
COMYTV   040201143633      000030HIGHWAY ENTERTAINMENT                                                                                                                                          
PSAYTV   040201143703143733000030PSA/CONCERN CHILDREN/ICE CREAM                                                                                         1 000130                                
PGRYTV   040201143733144433000700FREAKY STORIES                                    AND NOW THE NEWS EP30                             BIGTIMYTV   A42888 1 35307ECC                              
COMYTV   040201143733      000015L'OREAL CANADA                                                                                                                                                 
COMYTV   040201144333      000030GEN MILLS/PERIOD 3 TRADITIONAL                                                                                                                                 
COMYTV   040201144403      000030MATTEL CANADA INC.                                                                                                                                             
PSAYTV   040201144433144503000030ABC LEARNING-KIDS GENERIC                                                                                              1 000130                                
PGRYTV   040201144503145139000636FREAKY STORIES                                    AND NOW THE NEWS EP30                             BIGTIMYTV   A42888 1 35307ECC                              
COMYTV   040201144503      000030MCCAINS                                                                                                                                                        
COMYTV   040201145109      000030KELLOGG/RICE KRISPIE SQUARE BA                                                                                                                                 
PSAYTV   040201145139145209000030PSA/CONCERN CHILDREN/THE CHASE                                                                                         1 000130                                
PGRYTV   040201145209145958000749FREAKY STORIES                                    AND NOW THE NEWS EP30                             BIGTIMYTV   A42888 1 35307ECC                              
COMYTV   040201145209      000030MOTT'S CANADA INC.                                                                                                                                             
COMYTV   040201145239      000030MAPLE LEAF FOOD INC.                                                                                                                                           
PGRYTV   040201145958150619000621MYSTERY HUNTERS                                   AURORA BOREALIS/VAMPIRES EPS 4                    APARTMYTV   C20142 1 35305BCC                              
COMYTV   040201150549      000030PEPSICO                                                                                                                                                        
PSAYTV   040201150619150719000100PSA/CCA/DON'T PUT IT IN MOUTH                                                                                          1 000130                                
PGRYTV   040201150719153029002310MYSTERY HUNTERS                                   AURORA BOREALIS/VAMPIRES EPS 4                    APARTMYTV   C20142 1 35305BCC                              
COMYTV   040201150719      000030SUBWAY SUBS                                                                                                                                                    
COMYTV   040201151614      000030MATTEL/KIDS 2004 CORPORATE WK                                                                                                                                  
COMYTV   040201151644      000030HIGHWAY ENTERTAINMENT                                                                                                                                          
COMYTV   040201151714      000030SUBWAY SUBS                                                                                                                                                    
COMYTV   040201151744      000030SOBEY'S                                                                                                                                                        
COMYTV   040201152746      000030KELLOGG CANADA INC.                                                                                                                                            
COMYTV   040201152816      000030EXPEDIA.CA                                                                                                                                                     
COMYTV   040201152846      000030CLOROX                                                                                                                                                         
COMYTV   040201152916      000030GLAXO/SMITHKLINE BEECHAM                                                                                                                                       
PGRYTV   040201153029153239000210TIMEBLAZERS                                       MOTHER OF ALL INVENTIONS EP 4                     TIMETRYTV   C20884 1 35307ACC                              
COMYTV   040201153154      000015J&J/CLEAN&CLEAR(03NABS AUCTION                                                                                                                                 
COMYTV   040201153209      000030MCCAINS                                                                                                                                                        
PSAYTV   040201153239153309000030PSA/LITERACY-EDUCATION/CHILDRE                                                                                         1 000130                                
COMYTV   040201153309      000030NOVARTIS                                                                                                                                                       
COMYTV   040201153339      000015YTV/KRAFT-JOIN THE JUSTICE LEA                                                                                                                                 
PGRYTV   040201153309160031002722TIMEBLAZERS                                       MOTHER OF ALL INVENTIONS EP 4                     TIMETRYTV   C20884 1 35307ACC                              
COMYTV   040201154434      000030GEN MILLS/PERIOD 3 TRADITIONAL                                                                                                                                 
COMYTV   040201154504      000030MCCAINS                                                                                                                                                        
COMYTV   040201154534      000030SO GOOD                                                                                                                                                        
COMYTV   040201154604      000030HIGHWAY ENTERTAINMENT                                                                                                                                          
COMYTV   040201155734      000030KRAFT/KID P1 :30'S                                                                                                                                             
COMYTV   040201155804      000030KELLOGG/FROOT LOOPS                                                                                                                                            
COMYTV   040201155834      000030MCDONALDS/HAPPY MEAL-LOW DEMND                                                                                                                                 
COMYTV   040201155904      000030KIMBERLY-CLARK OF CANADA LTD.                                                                                                                                  
ID YTV   040201160019      000012STATION ID                                                                                                                                                     
PGRYTV   040201160031175446015415MAN CALLED FLINTSTONE                             THE MAN CALLED FLINTSTONE                                            2 38307E                                
COMYTV   040201161147      000030MOTT'S/FRUITSATIONS                                                                                                                                            
COMYTV   040201161217      000030SOBEY'S/                                                                                                                                                       
COMYTV   040201161247      000100P&G/CORPORATE-PRE-EMPTIBLE                                                                                                                                     
COMYTV   040201161347      000030GEN MILLS/PERIOD 3 TRADITIONAL                                                                                                                                 
COMYTV   040201161417      000030SO GOOD/CORPORATE                                                                                                                                              
COMYTV   040201162418      000030SO GOOD/CORPORATE                                                                                                                                              
COMYTV   040201162448      000030GLAXO/SMITH/BEECH/SENSODYNE                                                                                                                                    
COMYTV   040201162518      000100WALT DISNEY/RESORTS-DRTV                                                                                                                                       
COMYTV   040201162618      000030KRAFT/KID P1 :30'S                                                                                                                                             
PRCYTV   040201162648      000030YTV PROMO/OAP NON-CANADIAN                                                                                                                                     
COMYTV   040201164206      000030BVHV/LION KING 1.5(:30'S)                                                                                                                                      
COMYTV   040201164236      000015J&J/CLEAN & CLEAR                                                                                                                                              
COMYTV   040201164251      000100P&G/CORPORATE-PRE-EMPTIBLE                                                                                                                                     
COMYTV   040201164351      000100PRIMUS CANADA                                                                                                                                                  
COMYTV   040201164451      000015YTV CREATIVE MEDIA                                                                                                                                             
COMYTV   040201165911      00001520TH CENTURY/CATCH THAT KID                                                                                                                                    
COMYTV   040201165926      000030GEN MILLS/HAMBURGER HELPER                                                                                                                                     
COMYTV   040201165956      000030MATTEL/KIDS 2004 CORPORATE WK                                                                                                                                  
COMYTV   040201170026      000100P&G/CORPORATE BASE 52 WEEK                                                                                                                                     
COMYTV   040201170126      000030L'OREAL/GARNIER-FRUCTIS HARD                                                                                                                                   
COMYTV   040201170156      000015SUBWAY SUBS                                                                                                                                                    
COMYTV   040201171124      000030KELLOGG/FROOT LOOPS                                                                                                                                            
COMYTV   040201171154      000100PRIMUS CANADA                                                                                                                                                  
COMYTV   040201171254      000100WALT DISNEY/RESORTS-DRTV                                                                                                                                       
COMYTV   040201171354      000030K CLARK/HUGGIES :30'S ALONE                                                                                                                                    
COMYTV   040201172444      000030GEN MOTORS/VARIOUS                                                                                                                                             
COMYTV   040201172514      000030CLOROX/GLAD WASTE :30'S                                                                                                                                        
COMYTV   040201172544      000100P&G/CORPORATE-PRE-EMPTIBLE                                                                                                                                     
COMYTV   040201172644      000030GEN MILLS/PERIOD 3 TRADITIONAL                                                                                                                                 
COMYTV   040201172714      000030YOPLAIT/TUBES                                                                                                                                                  
COMYTV   040201173750      000015BVP/THE MIRACLE                                                                                                                                                
COMYTV   040201173805      000030HWY/ADULT CASH LOW DEMAND                                                                                                                                      
COMYTV   040201173835      000100WALT DISNEY/RESORTS-DRTV                                                                                                                                       
COMYTV   040201173935      000030PARMALAT/PARMALAT MILK                                                                                                                                         
COMYTV   040201174005      000015L'OREAL/MAYBELLINE-WONDER FINI                                                                                                                                 
COMYTV   040201174020      000030I TOYS                                                                                                                                                         
COMYTV   040201174814      00003020TH CENTURY/CATCH THAT KID                                                                                                                                    
COMYTV   040201174844      000030MCDONALDS/CHICKEN NUGGET-WHITE                                                                                                                                 
COMYTV   040201174914      000100P&G/CORPORATE-PRE-EMPTIBLE                                                                                                                                     
COMYTV   040201175014      000030CDN TIRE/T-FAL INGENIO COOKSET                                                                                                                                 
COMYTV   040201175044      000030SHAW                                                                                                                                                           
PGRYTV   040201175446180000000514FREAKY STORIES                                    LAST CAB FARE EP61                                BIGTIMYTV   A23763 1 35307ECC                              
ID YTV   040201175948      000012STATION ID                                                                                                                                                     
PGRYTV   040201180000183001003001JACOB TWO TWO                                     JTT & COLOSSAL CANDY CHALLENGE                                       1 32307ECC                              
COMYTV   040201180817      000030SONY ENT/FIFTY FIRST DATES                                                                                                                                     
COMYTV   040201180847      000030L'OREAL/GARNIER-FRUCTIS HARD                                                                                                                                   
COMYTV   040201180917      000030SCHNEIDER/CORP-3022*CO*05                                                                                                                                      
COMYTV   040201180947      000030K CLARK/HUGGIES :30'S ALONE                                                                                                                                    
COMYTV   040201181657      000015BVP/CONFESSIONS TEENAGE QUEEN                                                                                                                                  
COMYTV   040201181712      000030GLAXO/SMITH/BEECH/SENSODYNE                                                                                                                                    
COMYTV   040201181742      000030YOPLAIT/TUBES                                                                                                                                                  
COMYTV   040201181812      000030GEN MILLS/HAMBURGER HELPER                                                                                                                                     
COMYTV   040201181842      000015KIMBERLY-CLARK OF CANADA LTD.                                                                                                                                  
COMYTV   040201182617      000030K CLARK/BABY WIPES/HUGGIES SPL                                                                                                                                 
COMYTV   040201182647      000100SYLVAN LEARNING/Q1                                                                                                                                             
COMYTV   040201182747      000030CLOROX/GLAD WASTE :30'S                                                                                                                                        
ID YTV   040201182947      000012STATION ID                                                                                                                                                     
PGRYTV   040201183001190003003002MENTAL BLOCK                                      THE SEMI-NAKED TRUTH     EPS 8                    ZONE 3YTV   C20867 1 35307ACC                              
COMYTV   040201183318      000200AT HOME TRAINING                                                                                                                                               
COMYTV   040201184631      000030KELLOGG/SCOOBY DOO                                                                                                                                             
COMYTV   040201184701      000100SYLVAN LEARNING/Q1                                                                                                                                             
COMYTV   040201184801      000030PARMALAT/PARMALAT MILK                                                                                                                                         
COMYTV   040201185456      000100PRIMUS CANADA                                                                                                                                                  
COMYTV   040201185556      000100WALT DISNEY/RESORTS-DRTV                                                                                                                                       
ID YTV   040201185950      000012STATION ID                                                                                                                                                     
PGRYTV   040201190003195957005954YTV'S HIT LIST                                    EPS 22                                                               1 21308CCC                              
COMYTV   040201191154      000030KELLOGG/RICE KRISPIE SQUARE BA                                                                                                                                 
COMYTV   040201191224      000100WALT DISNEY/RESORTS-DRTV                                                                                                                                       
COMYTV   040201191324      000030YOPLAIT/TUBES                                                                                                                                                  
COMYTV   040201192242      000015BVHV/ALICE IN WONDERLAND                                                                                                                                       
COMYTV   040201192257      000200AT HOME TRAINING                                                                                                                                               
COMYTV   040201192457      000015L'OREAL/MAYBELLINE-WONDER FINI                                                                                                                                 
COMYTV   040201193323      000100P&G/CORPORATE-PRE-EMPTIBLE                                                                                                                                     
COMYTV   040201193423      000100SYLVAN LEARNING/Q1                                                                                                                                             
COMYTV   040201193523      000030MCDONALDS/CHICKEN NUGGET-WHITE                                                                                                                                 
COMYTV   040201194407      000100SYLVAN LEARNING/Q1                                                                                                                                             
COMYTV   040201194507      000030GEN MILLS/PERIOD 3 TRADITIONAL                                                                                                                                 
COMYTV   040201194537      000100PRIMUS CANADA                                                                                                                                                  
COMYTV   040201195242      000100P&G/CORPORATE-PRE-EMPTIBLE                                                                                                                                     
COMYTV   040201195342      000030KRAFT/KID P1 :30'S                                                                                                                                             
COMYTV   040201195412      000100WALT DISNEY/RESORTS-DRTV                                                                                                                                       
ID YTV   040201195944      000012STATION ID                                                                                                                                                     
PGRYTV   040201195957203001003004GIRLSTUFF/BOYSTUFF                                TICKETS/FACE POWDER  EPS 2                        DECODEYTV   A74606 1 35307ECC                              
COMYTV   040201200047      000030BVHV/ALICE IN WONDERLAND                                                                                                                                       
COMYTV   040201200117      000100SYLVAN LEARNING/Q1                                                                                                                                             
COMYTV   040201200217      000030MATTEL/KIDS 2004 CORPORATE WK                                                                                                                                  
COMYTV   040201201353      000030KRAFT/KID P1 :30'S                                                                                                                                             
COMYTV   040201201423      000100SYLVAN LEARNING/Q1                                                                                                                                             
COMYTV   040201201523      000030YOPLAIT/TUBES                                                                                                                                                  
COMYTV   040201202714      000030KRAFT/KID P1 :30'S                                                                                                                                             
COMYTV   040201202744      000100SYLVAN LEARNING/Q1                                                                                                                                             
COMYTV   040201202844      000030W NETWORK/UNIVERSAL/W CD                                                                                                                                       
ID YTV   040201202947      000012STATION ID                                                                                                                                                     
PGRYTV   040201203001210005003004GIRLZ TV                                          EPS 37                                            MILLENYTV   C22244 1 253110CC                              
COMYTV   040201203604      000015J&J/CLEAN&CLEAR(03NABS AUCTION                                                                                                                                 
COMYTV   040201203619      000100WALT DISNEY/RESORTS-DRTV                                                                                                                                       
COMYTV   040201203719      000030MCDONALDS/CHICKEN NUGGET-WHITE                                                                                                                                 
COMYTV   040201203749      000015YTV/KRAFT-JOIN THE JUSTICE LEA                                                                                                                                 
COMYTV   040201204147      000015BVHV/ALICE IN WONDERLAND                                                                                                                                       
COMYTV   040201204202      000015J&J/CLEAN & CLEAR                                                                                                                                              
COMYTV   040201204217      000100P&G/CORPORATE-PRE-EMPTIBLE                                                                                                                                     
COMYTV   040201204317      000030SOBEY'S/                                                                                                                                                       
COMYTV   040201205014      000015L'OREAL/MAYBELLINE-WONDER FINI                                                                                                                                 
COMYTV   040201205029      000100SYLVAN LEARNING/Q1                                                                                                                                             
COMYTV   040201205129      000030HWY/ADULT BARTER LOW DEMAND                                                                                                                                    
COMYTV   040201205159      000015GLAXO/SMITHKLINE BEECHAM                                                                                                                                       
SPOYTV   040201210000      000005K CLARK/HUGGIES :30'S ALONE                                                                                                                                    
PGRYTV   040201210005213000002955ROAD SCHOLARS                                     WYOMING  EPS 11                                   ELECTRYTV   C20087 1 35302BCC                              
COMYTV   040201210552      00001520TH CENTURY/CATCH THAT KID                                                                                                                                    
COMYTV   040201210607      000030PINNACLE FOODS/CT02 SWANSON DI                                                                                                                                 
COMYTV   040201210637      000030YOPLAIT/TUBES                                                                                                                                                  
COMYTV   040201210707      000030SOBEY'S/                                                                                                                                                       
COMYTV   040201210737      000015J&J/CLEAN & CLEAR                                                                                                                                              
COMYTV   040201211439      000030SEVILLE FILMS/GINGER SNAPS 2                                                                                                                                   
COMYTV   040201211509      000030K CLARK/BABY WIPES/HUGGIES SPL                                                                                                                                 
COMYTV   040201211539      000100PRIMUS CANADA                                                                                                                                                  
COMYTV   040201212245      000030MATTEL/KIDS 2004 CORPORATE WK                                                                                                                                  
COMYTV   040201212315      000030SUBWAY/SUBWAY SUBS                                                                                                                                             
COMYTV   040201212345      000030HWY/ADULT CASH LOW DEMAND                                                                                                                                      
COMYTV   040201212415      000030ALLIANCE/ACADEMY AWARDS NOMINE                                                                                                                                 
PRCYTV   040201212445      000015YTV PROMO CONTRACT                                                                                                                                             
PGRYTV   040201213000220031003031MYSTERY HUNTERS                                   BEST OF MH INVESTIGATIONS                         APARTMYTV   C20142 1 35305BCC                              
COMYTV   040201213812      000030MAPLE LEAF FOODS/SPEC HIGHLIGH                                                                                                                                 
COMYTV   040201213842      000100PRIMUS CANADA                                                                                                                                                  
COMYTV   040201213942      000030BUCKLEY'S/COUGH SYRUP                                                                                                                                          
COMYTV   040201214837      000030SEVILLE FILMS/GINGER SNAPS 2                                                                                                                                   
COMYTV   040201214907      000030SO GOOD/CORPORATE                                                                                                                                              
COMYTV   040201214937      000030PEPSICO/INSTANT QUAKER OATS                                                                                                                                    
COMYTV   040201215007      000015K CLARK/KOTEX                                                                                                                                                  
COMYTV   040201215022      00001520TH CENTURY/CATCH THAT KID                                                                                                                                    
COMYTV   040201215749      000030PINNACLE FOODS/CT02 SWANSON DI                                                                                                                                 
COMYTV   040201215819      000100PRIMUS CANADA                                                                                                                                                  
COMYTV   040201215919      000030K CLARK/HUGGIES :30'S ALONE                                                                                                                                    
PGRYTV   040201220031223034003003TIMEBLAZERS                                       GOLD!    EPS 10                                   TIMETRYTV   C20884 1 35307ACC3                             
COMYTV   040201220157      000030WYETH CONSUMER HEALTHCARE                                                                                                                                      
COMYTV   040201220227      000030CLOROX/GLAD WASTE :30'S                                                                                                                                        
COMYTV   040201220257      000030NOVARTIS/NEO CITRAN CT19                                                                                                                                       
COMYTV   040201220327      000030CDN TIRE/T-FAL INGENIO COOKSET                                                                                                                                 
COMYTV   040201221432      000015K CLARK/KOTEX                                                                                                                                                  
COMYTV   040201221447      000100PRIMUS CANADA                                                                                                                                                  
COMYTV   040201221547      000015J&J/CLEAN & CLEAR                                                                                                                                              
COMYTV   040201221602      000030NOVARTIS/NEO CITRAN CT19                                                                                                                                       
COMYTV   040201222737      000100P&G/CORPORATE BASE 52 WEEK                                                                                                                                     
COMYTV   040201222837      000100PRIMUS CANADA                                                                                                                                                  
ID YTV   040201223022      000012STATION ID                                                                                                                                                     
PGRYTV   0402012230342300380030042030CE                                            THE DEFECTOR  EPS 16                              MINDS YTV   C20363 1 35307ACC3                             
COMYTV   040201223327      000030HWY/ADULT BARTER LOW DEMAND                                                                                                                                    
COMYTV   040201223357      000100SYLVAN LEARNING/Q1                                                                                                                                             
COMYTV   040201223457      000030PINNACLE FOODS/CT02 SWANSON DI                                                                                                                                 
COMYTV   040201224533      000030K CLARK/HUGGIES :30'S ALONE                                                                                                                                    
COMYTV   040201224603      000100P&G/CORPORATE BASE 52 WEEK                                                                                                                                     
COMYTV   040201224703      000030W NETWORK/UNIVERSAL/W CD                                                                                                                                       
COMYTV   040201225640      000030HWY/ADULT CASH LOW DEMAND                                                                                                                                      
COMYTV   040201225710      000030MOTT'S/FRUITSATIONS                                                                                                                                            
COMYTV   040201225740      000030SCHNEIDER/CORP-3022*CO*05                                                                                                                                      
COMYTV   040201225810      000030HWY/ADULT BARTER LOW DEMAND                                                                                                                                    
ID YTV   040201230025      000012STATION ID                                                                                                                                                     
PGRYTV   040201230038233000002922BREAKER HIGH (#1-44)                              SOME YOU WIN, SOME YOU LOSE                       SHAVIC      SR0291 1 36307ACC                              
COMYTV   040201230258      000030PINNACLE FOODS/CT02 SWANSON DI                                                                                                                                 
COMYTV   040201230328      000030GLAXO/SMITH/BEECH/SENSODYNE                                                                                                                                    
COMYTV   040201230358      000030YOPLAIT/TUBES                                                                                                                                                  
COMYTV   040201230428      000030MCDONALDS/CHICKEN NUGGET-WHITE                                                                                                                                 
COMYTV   040201231219      00003020TH CENTURY/CATCH THAT KID                                                                                                                                    
COMYTV   040201231249      000100PRIMUS CANADA                                                                                                                                                  
COMYTV   040201231349      000030PEPSICO/INSTANT QUAKER OATS                                                                                                                                    
PRCYTV   040201231419      000030YTV PROMO CONTRACT                                                                                                                                             
PRCYTV   040201231449      000030YTV PROMO CONTRACT                                                                                                                                             
COMYTV   040201232536      000030MAPLE LEAF FOODS/SPEC HIGHLIGH                                                                                                                                 
COMYTV   040201232606      000030NOVARTIS/NEO CITRAN CT19                                                                                                                                       
COMYTV   040201232636      000030PEPSICO/TROPICANA PURE PREMIUM                                                                                                                                 
COMYTV   040201232706      000030MCCAINS/CORPORATE                                                                                                                                              
PRCYTV   040201232736      000030YTV PROMO CONTRACT                                                                                                                                             
PRCYTV   040201232806      000030YTV PROMO CONTRACT                                                                                                                                             
ID YTV   040201232948      000012STATION ID                                                                                                                                                     
PGRYTV   040201233000000003003003READY OR NOT (II)(#14-15, 17-22, 24, 26-39)       CRATER FACE            EPS 33                     INSIGH      C11403 1 35307ACC                              
COMYTV   040201233308      000030MAPLE LEAF FOODS/SPEC HIGHLIGH                                                                                                                                 
COMYTV   040201233338      000030K CLARK/HUGGIES :30'S ALONE                                                                                                                                    
COMYTV   040201233408      000030PEPSICO/TROPICANA PURE PREMIUM                                                                                                                                 
COMYTV   040201233438      000030MCCAINS/CORPORATE                                                                                                                                              
COMYTV   040201234416      000030MCCAINS/CORPORATE                                                                                                                                              
COMYTV   040201234446      000100P&G/CORPORATE-PRE-EMPTIBLE                                                                                                                                     
COMYTV   040201234546      000030YOPLAIT/TUBES                                                                                                                                                  
COMYTV   040201235330      000030SHAW                                                                                                                                                           
COMYTV   040201235400      000030NOVARTIS/TRIAMINIC CT18                                                                                                                                        
COMYTV   040201235430      000030MCCAINS/CORPORATE                                                                                                                                              
COMYTV   040201235500      000030MCDONALDS/CHICKEN NUGGET-WHITE                                                                                                                                 
ID YTV   040201235951      000012STATION ID                                                                                                                                                     
PGRYTV   040201000003003641003638ARE YOU BEING SERVED?                             NIGHT CLUB                                                           3 38807BCC                              
COMYTV   040201000937      000030SO GOOD/CORPORATE                                                                                                                                              
COMYTV   040201001007      000100P&G/CORPORATE BASE 52 WEEK                                                                                                                                     
COMYTV   040201001107      000030MOTT'S/FRUITSATIONS                                                                                                                                            
COMYTV   040201001652      000015L'OREAL/GARNIER-FRUCTIS HARD                                                                                                                                   
COMYTV   040201001707      000100P&G/CORPORATE BASE 52 WEEK                                                                                                                                     
COMYTV   040201001807      000030SOBEY'S/                                                                                                                                                       
COMYTV   040201001837      000030GEN MOTORS/VARIOUS                                                                                                                                             
COMYTV   040201001907      000015GLAX/SKB/AQUAFRESH X CLEAN3073                                                                                                                                 
COMYTV   040201002807      000030W NETWORK/UNIVERSAL/W CD                                                                                                                                       
COMYTV   040201002837      000030MAPLE LEAF FOODS/SPEC HIGHLIGH                                                                                                                                 
COMYTV   040201002907      000030KRAFT/CHEEZ WHIZ                                                                                                                                               
COMYTV   040201002937      000030SO GOOD/CORPORATE                                                                                                                                              
COMYTV   040201003007      000030MCDONALDS/CHICKEN NUGGET-WHITE                                                                                                                                 
INTYTV   040201003641003753000112HERITAGE MINUTE                                   JACQUES PLANTE EP57                                                  1 358120CC                              
PGRYTV   040201003753011455003702KEEPING UP APPEARANCES                            EPS 8                                                                3 38807BCC                              
COMYTV   040201004346      000030NOVARTIS/TRIAMINIC CT18                                                                                                                                        
COMYTV   040201004416      000030SO GOOD/CORPORATE                                                                                                                                              
COMYTV   040201004446      000030GENERAL MILLS/READY TO BAKE                                                                                                                                    
COMYTV   040201004516      000030GLAXO/SMITH/BEECH/SENSODYNE                                                                                                                                    
COMYTV   040201005227      000030HWY/ADULT CASH LOW DEMAND                                                                                                                                      
COMYTV   040201005257      000100P&G/CORPORATE BASE 52 WEEK                                                                                                                                     
COMYTV   040201005357      000030MCDONALDS/CHICKEN NUGGET-WHITE                                                                                                                                 
COMYTV   040201005427      000030SHAW                                                                                                                                                           
COMYTV   040201010215      000015L'OREAL/GARNIER-FRUCTIS HARD                                                                                                                                   
COMYTV   040201010230      000030GENERAL MILLS/READY TO BAKE                                                                                                                                    
COMYTV   040201010300      000030W NETWORK/UNIVERSAL/W CD                                                                                                                                       
COMYTV   040201010330      000100P&G/CORPORATE-PRE-EMPTIBLE                                                                                                                                     
