PGRYTV   040301060000062603002603UH OH!                                            EPS 218                                                              1 311110CC                              
PRCYTV   040301060308      000030YTV PROMO CONTRACT                                                                                                                                             
PRCYTV   040301061024      000030YTV PROMO CONTRACT                                                                                                                                             
PRCYTV   040301061054      000030YTV PROMO CONTRACT                                                                                                                                             
PRCYTV   040301061752      000030YTV PROMO CONTRACT                                                                                                                                             
PRCYTV   040301061822      000030YTV PROMO CONTRACT                                                                                                                                             
INTYTV   040301062603063000000357CHIP 'N' ORBIT                                    EPISODE 13                                                           1 311120CC                              
ID YTV   040301062948      000012STATION ID                                                                                                                                                     
PGRYTV   040301063000065539002539STICKIN' AROUND                                   MAN NAMED GYM/PIZZA CAROL EP29                    NELVANYTV   A26964 1 32107ECC                              
PRCYTV   040301063112      000030YTV PROMO CONTRACT                                                                                                                                             
PRCYTV   040301064228      000030YTV PROMO CONTRACT                                                                                                                                             
PRCYTV   040301065333      000030YTV PROMO CONTRACT                                                                                                                                             
INTYTV   040301065539065843000304NANALAN'                                          APPLE EP36                                                           1 351120                                
INTYTV   040301065843070000000117DINGA                                             EPS 20                                                               7 381120                                
ID YTV   040301065948      000012STATION ID                                                                                                                                                     
PGRYTV   040301070000072602002602GEORGE SHRINKS                                    TO THE CENTRE OF THE GARDEN 15                    NELVAN             1 32107E                                
INTYTV   040301072602072857000255NELVANA INTERSTITIALS                             HIGH NOON                                                            1 321120                                
PRCYTV   040301072757      000030YTV PROMO CONTRACT                                                                                                                                             
PRCYTV   040301072827      000030YTV PROMO CONTRACT                                                                                                                                             
INTYTV   040301072857073010000113DINGA                                             EPS 21                                                               7 381120                                
ID YTV   040301072958      000012STATION ID                                                                                                                                                     
PGRYTV   040301073010075800002750WOODY WOODPECKER (NEW)                            LAP/FAMILY BUZZARD/GETTIN EP27                                       2 38307ECC                              
SPOYTV   040301073046      000010BINNEY&SMITH/CRAYOLA                                                                                                                                           
COMYTV   040301073056      000015PARAMOUNT/SCHOOL OF ROCK                                                                                                                                       
COMYTV   040301073111      000030MATTEL/BONUS CONTRACT                                                                                                                                          
COMYTV   040301073141      000015WARNER HOME/LOONEY TUNES-PRE S                                                                                                                                 
PRCYTV   040301073156      000030YTV PROMO CONTRACT                                                                                                                                             
PRCYTV   040301073226      000030YTV PROMO CONTRACT                                                                                                                                             
COMYTV   040301073947      000030BANDAI/POWER RANGERS                                                                                                                                           
COMYTV   040301074017      000030HASBRO/VARIOUS PRE FALL                                                                                                                                        
COMYTV   040301074047      000030MATTEL/BONUS CONTRACT                                                                                                                                          
COMYTV   040301074117      000030KELLOGG CANADA INC.                                                                                                                                            
COMYTV   040301074838      000030GEN.MILLS/PERIOD 3 TRADITIONAL                                                                                                                                 
COMYTV   040301074908      000030MCDONALDS/HAPPY MEAL MID DEMND                                                                                                                                 
PRCYTV   040301074938      000030YTV PROMO CONTRACT                                                                                                                                             
PROYTV   040301075008      000030YTV PROMO CONTRACT                                                                                                                                             
INTYTV   040301075800075900000100HOOTA & SNOZ                                      EPS 7                                                                7 383120                                
INTYTV   040301075900080012000112STICKIN' AROUND                                   THE MUCUS TOUCH                                                      1 323120CC                              
ID YTV   040301075957      000012STATION ID                                                                                                                                                     
PGRYTV   040301080012083000002948RUGRATS                                           BEAUTY CONTEST/BASEBALL   EPS5                                       2 38307ECC                              
SPOYTV   040301080513      000010BINNEY&SMITH/CRAYOLA                                                                                                                                           
COMYTV   040301080523      000015MGM/GOOD BOY DVD                                                                                                                                               
COMYTV   040301080538      000030HASBRO/VARIOUS PRE FALL                                                                                                                                        
COMYTV   040301080608      000015KRAFT CANADA INC.                                                                                                                                              
PRCYTV   040301080623      000030YTV PROMO CONTRACT                                                                                                                                             
COMYTV   040301081327      000015PARAMOUNT/SCHOOL OF ROCK                                                                                                                                       
COMYTV   040301081342      000030MATTEL/KIDS CORP SPRING04/#3                                                                                                                                   
COMYTV   040301081412      000030HASBRO CANADA INC.                                                                                                                                             
COMYTV   040301081442      000030GENERAL MILLS CANADA INC.                                                                                                                                      
COMYTV   040301081512      000015HASBRO/VARIOUS PRE FALL                                                                                                                                        
PRCYTV   040301081527      000030YTV PROMO CONTRACT                                                                                                                                             
PRCYTV   040301081557      000030YTV PROMO CONTRACT                                                                                                                                             
COMYTV   040301082150      000015MGA ENT/LIL BRATZ                                                                                                                                              
COMYTV   040301082205      000030KRAFT CANADA INC.                                                                                                                                              
COMYTV   040301082235      000015SPIN MSTR TOYS/MIGHTY BEANZ 15                                                                                                                                 
PROYTV   040301082250      000030YTV PROMO CONTRACT                                                                                                                                             
PRCYTV   040301082320      000030YTV PROMO CONTRACT                                                                                                                                             
ID YTV   040301082948      000012STATION ID                                                                                                                                                     
PGRYTV   040301083000085332002332MONA THE VAMPIRE                                  TOON TOWN/GHOST EPS 43.                           CINAR YTV   A65554 1 35107ECC                              
PGRYTV   040301085332090014000642ELLIOT MOOSE                                      DRAGONHORSE EP13                                  NELVAN      A25737 1 32107GCC                              
ID YTV   040301090002      000012STATION ID                                                                                                                                                     
PGRYTV   040301090014092432002418RUPERT                                            EPS 64-RUPERT & THE DRAGON FES                    NELVANYTV   A03981 1 32107ECC                              
SPOYTV   040301092422      000010MCDONALDS/HAPPY MEAL MID DEMND                                                                                                                                 
INTYTV   040301092432092650000218NELVANA INTERSTITIALS                             GONE BUT NOT FORGOTTEN                                               1 321120                                
PRCYTV   040301092549      000030YTV PROMO CONTRACT                                                                                                                                             
PRCYTV   040301092619      000030YTV PROMO CONTRACT                                                                                                                                             
INTYTV   040301092650092750000100STICKIN' AROUND                                   POOL PARTY                                                           1 321120CC                              
INTYTV   040301092750093003000213NELVANA INTERSTITIALS                             YOU ARE WHAT YOU EAT                                                 1 321120                                
PRCYTV   040301092849      000030YTV PROMO CONTRACT                                                                                                                                             
PRCYTV   040301092919      000030YTV PROMO CONTRACT                                                                                                                                             
ID YTV   040301092949      000012STATION ID                                                                                                                                                     
PGRYTV   040301093003095247002244CARE BEARS                                        PHANTOM/UNDER THE BIG TOP                         NELVAN      C07540 1 32107E                                
SPOYTV   040301095135      000010MCDONALDS/HAPPY MEAL MID DEMND                                                                                                                                 
PRCYTV   040301095145      000030YTV PROMO CONTRACT                                                                                                                                             
PRCYTV   040301095215      000030YTV PROMO CONTRACT                                                                                                                                             
INTYTV   040301095247095648000401NANALAN'                                          PICNIC EP37                                                          1 351120                                
PRCYTV   040301095545      000030YTV PROMO CONTRACT                                                                                                                                             
PRCYTV   040301095615      000030YTV PROMO CONTRACT                                                                                                                                             
INTYTV   040301095648100000000312NANALAN'                                          BIRTHDAY EP38                                                        1 351120                                
ID YTV   040301095945      000012STATION ID                                                                                                                                                     
PGRYTV   040301100000102747002747SEVEN LITTLE MONSTERS                             GOOD MORNING  EP 1                                NELVAN             1 32107ECC                              
PRCYTV   040301100527      000030YTV PROMO CONTRACT                                                                                                                                             
PRCYTV   040301101340      000030YTV PROMO CONTRACT                                                                                                                                             
PRCYTV   040301102152      000030YTV PROMO CONTRACT                                                                                                                                             
PGRYTV   040301102747103014000227EVERYDAY HEROES                                   ZOOTEK  EP 8                                                         1 311120                                
PGRYTV   040301103014105317002303MONSTER BY MISTAKE                                CAMPSITE CREEPER EP7.                             MONSTEYTV   A21771 1 35107E                                
PGRYTV   040301105317105959000642ELLIOT MOOSE                                      SOCKSNESS MONSTER EP14                            NELVAN      A25736 1 32107GCC                              
ID YTV   040301105945      000012STATION ID                                                                                                                                                     
PGRYTV   040301105959112525002526STICKIN' AROUND                                   HOLD IT/JOURNEY EP15                              NELVANYTV   A10441 1 32107ECC                              
SPOYTV   040301110103      000010MCDONALDS/HAPPY MEAL MID DEMND                                                                                                                                 
PRCYTV   040301110113      000030YTV PROMO CONTRACT                                                                                                                                             
PRCYTV   040301111212      000030YTV PROMO CONTRACT                                                                                                                                             
PRCYTV   040301112317      000030YTV PROMO CONTRACT                                                                                                                                             
INTYTV   040301112525112658000133NELVANA INTERSTITIALS                             ALL'S QUIET ON MONSTER FRONT                                         1 321120                                
INTYTV   040301112658113006000308NELVANA INTERSTITIALS                             THE WHOLE TOOTH                                                      1 321120                                
PRCYTV   040301112851      000030YTV PROMO CONTRACT                                                                                                                                             
PRCYTV   040301112921      000030YTV PROMO CONTRACT                                                                                                                                             
ID YTV   040301112951      000012STATION ID                                                                                                                                                     
PGRYTV   040301113006115217002211FLYING RHINO JUNIOR HIGH                          PREHISTERICAL            EPS 1                    NELVAN             1 32107ECC                              
SPOYTV   040301115204      000010MCDONALDS/HAPPY MEAL MID DEMND                                                                                                                                 
INTYTV   040301115217115603000346NANALAN'                                          NEW FRIEND EP39                                                      1 351120                                
PRCYTV   040301115514      000030YTV PROMO CONTRACT                                                                                                                                             
PRCYTV   040301115544      000015YTV PROMO CONTRACT                                                                                                                                             
INTYTV   040301115603115956000353CHIP 'N' ORBIT                                    EPISODE 14                                                           1 311120CC                              
ID YTV   040301115944      000012STATION ID                                                                                                                                                     
PGRYTV   040301115956123000003004SPONGEBOB SQUAREPANTS                             APR - FOOLS/SPATULA E19                                              2 38307ECC                              
COMYTV   040301120045      000030MCDONALDS/HAPPY MEAL-LOW DEMND                                                                                                                                 
COMYTV   040301120115      000030MATTEL/BONUS CONTRACT                                                                                                                                          
PRCYTV   040301120145      000030YTV PROMO CONTRACT                                                                                                                                             
PRCYTV   040301120215      000015YTV PROMO CONTRACT                                                                                                                                             
COMYTV   040301121341      000030ALLIANCE/SPY KIDS 3 DVD                                                                                                                                        
COMYTV   040301121411      000030HASBRO/VARIOUS PRE FALL                                                                                                                                        
COMYTV   040301121441      000030GENERAL MILLS CANADA INC.                                                                                                                                      
COMYTV   040301121511      000030YTV CREATIVE MEDIA                                                                                                                                             
COMYTV   040301122703      000030KELLOGG/FROSTED FLAKES                                                                                                                                         
COMYTV   040301122733      000030MATTEL/BONUS CONTRACT                                                                                                                                          
PROYTV   040301122803      000030YTV PROMO CONTRACT                                                                                                                                             
PROYTV   040301122833      000030YTV PROMO CONTRACT                                                                                                                                             
ID YTV   040301122948      000012STATION ID                                                                                                                                                     
PGRYTV   040301123000125423002423HAMTARO                                           THE MILKY WAY   EPS 83/105                                    D02043 7 38307ECC2                             
COMYTV   040301123114      000030MCDONALDS/HAPPY MEAL MID DEMND                                                                                                                                 
COMYTV   040301123144      000030GEN.MILLS/PERIOD 3 TRADITIONAL                                                                                                                                 
COMYTV   040301123809      000015KRAFT/KID P1 :15'S                                                                                                                                             
COMYTV   040301123824      000030HASBRO/VARIOUS PRE FALL                                                                                                                                        
COMYTV   040301123854      000015BINNEY&SMITH/CRAYOLA SPRING                                                                                                                                    
COMYTV   040301123909      000030YTV CREATIVE MEDIA                                                                                                                                             
COMYTV   040301124600      000015HASBRO/VARIOUS PRE FALL                                                                                                                                        
COMYTV   040301124615      000015BVHV/WTP-SPRINGTIME WITH ROO15                                                                                                                                 
COMYTV   040301124630      000030MATTEL/KIDS CORP SPRING04/#3                                                                                                                                   
PRCYTV   040301124700      000030YTV PROMO CONTRACT                                                                                                                                             
PGRYTV   040301125423125958000535PINGU                                             PINGU HELPS W/INCUBATING  EP 2                                       3 18107E                                
ID YTV   040301125946      000012STATION ID                                                                                                                                                     
PGRYTV   040301125958132344002346CARE BEARS SERIES                                 THE GREAT RACE  EPS 3                             NELVAN      C06927 1 32107E                                
PRCYTV   040301132328      000015YTV PROMO CONTRACT                                                                                                                                             
INTYTV   040301132344132656000312NANALAN'                                          CLOUDS EP40                                                          1 351120                                
INTYTV   040301132656132956000300NANALAN'                                          WORM EP41                                                            1 351120                                
ID YTV   040301132944      000012STATION ID                                                                                                                                                     
PGRYTV   040301132956135608002612GEORGE SHRINKS                                    TO THE CENTRE OF THE GARDEN 15                    NELVAN             1 32107E                                
SPOYTV   040301135558      000010MCDONALDS/HAPPY MEAL MID DEMND                                                                                                                                 
INTYTV   040301135608135848000240NELVANA INTERSTITIALS                             MONSTER TRASH                                                        1 321120                                
PRCYTV   040301135732      000030YTV PROMO CONTRACT                                                                                                                                             
PRCYTV   040301135802      000015YTV PROMO CONTRACT                                                                                                                                             
PRCYTV   040301135817      000030YTV PROMO CONTRACT                                                                                                                                             
INTYTV   040301135848140001000113DINGA                                             EPS 22                                                               7 381120                                
PGRYTV   040301140001142333002332MONA THE VAMPIRE                                  DR. VOODOO/DANCING GHOULIE 11.                    FANCYCYTV   A18421 1 35107ECC                              
INTYTV   040301142333142848000515CHIP 'N' ORBIT                                    EPISODE 15                                                           1 311120CC                              
PRCYTV   040301142716      000030YTV PROMO CONTRACT                                                                                                                                             
PRCYTV   040301142746      000030YTV PROMO CONTRACT                                                                                                                                             
PRCYTV   040301142816      000030YTV PROMO CONTRACT                                                                                                                                             
INTYTV   040301142848142958000110STICKIN' AROUND                                   BUTTNOCCHIO                                                          1 321120CC                              
PGRYTV   040301142958145413002415D'MYNA LEAGUES                                    SHOWDOWN (PS)         EPS 15                      D'MYNAYTV   A54165 1 35307ECC                              
PRCYTV   040301145243      000030YTV PROMO CONTRACT                                                                                                                                             
PRCYTV   040301145313      000030YTV PROMO CONTRACT                                                                                                                                             
PROYTV   040301145343      000030YTV PROMO CONTRACT                                                                                                                                             
INTYTV   040301145413145759000346CHIP 'N' ORBIT                                    EPISODE 16                                                           1 311120CC                              
PGRYTV   040301145759150003000204EVERYDAY HEROES                                   COMPOST WORM  EP 9                                                   1 311120                                
PGRYTV   040301150003152848002845WILD THORNBERRYS                                  KUALITY & KUANTITY EP27                                              2 38307ECC                              
COMYTV   040301150851      000030YTV/KELLOGG/FROOT LOOPS CEREAL                                                                                                                                 
COMYTV   040301150921      000030MATTEL/BONUS CONTRACT                                                                                                                                          
PRCYTV   040301150951      000015YTV PROMO CONTRACT                                                                                                                                             
COMYTV   040301151700      000030MCDONALDS/HAPPY MEAL MID DEMND                                                                                                                                 
COMYTV   040301151730      000030KELLOGG/FROSTED FLAKES                                                                                                                                         
COMYTV   040301151800      000030HASBRO/VARIOUS PRE FALL                                                                                                                                        
COMYTV   040301151830      000030GEN.MILLS/PERIOD 3 TRADITIONAL                                                                                                                                 
COMYTV   040301152633      000015BANDAI/KNIGHTS OF THE ZODIAC                                                                                                                                   
COMYTV   040301152648      000030DISCOVERY KIDS/MARCH BREAK FRE                                                                                                                                 
COMYTV   040301152718      000015WARNER HOME/LOONEY TUNES-PRE S                                                                                                                                 
PROYTV   040301152733      000015YTV PROMO CONTRACT                                                                                                                                             
PROYTV   040301152748      000015YTV PROMO CONTRACT                                                                                                                                             
INTYTV   040301152848153000000112ANIME MINUTES                                     EPS 30                                                               1 313120                                
PGRYTV   040301153000155527002527JACKIE CHAN ADVENTURES                            THE POWER WITHIN EP2                                                 2 38307ECC                              
COMYTV   040301153221      000030MATTEL/BONUS CONTRACT                                                                                                                                          
COMYTV   040301153251      000015BINNEY&SMITH/CRAYOLA SPRING                                                                                                                                    
COMYTV   040301153306      000015HASBRO/VARIOUS PRE FALL                                                                                                                                        
PRCYTV   040301153321      000030YTV PROMO CONTRACT                                                                                                                                             
COMYTV   040301154003      000015CAMPBELLS/GOLDFISH                                                                                                                                             
COMYTV   040301154018      000015MGM/GOOD BOY DVD                                                                                                                                               
COMYTV   040301154033      000030MATTEL/KIDS CORP SPRING04/#3                                                                                                                                   
COMYTV   040301154103      000030GENERAL MILLS CANADA INC.                                                                                                                                      
COMYTV   040301154133      000030HASBRO/VARIOUS PRE FALL                                                                                                                                        
COMYTV   040301154740      000030KRAFT/KID P1 :30'S                                                                                                                                             
COMYTV   040301154810      000030YTV/HASBRO/BEYBLADE RIP INTO                                                                                                                                   
PROYTV   040301154840      000030YTV PROMO CONTRACT                                                                                                                                             
PRCYTV   040301154910      000030YTV PROMO CONTRACT                                                                                                                                             
INTYTV   040301155527160002000435PROGRAM JOCKEY                                    PROGRAM JOCKEY                                                       1 213120                                
ID YTV   040301155948      000012STATION ID                                                                                                                                                     
PGRYTV   040301160002162735002733FAIRLY ODD PARENTS                                KUNG TIMMY/WHICH WITCH  EPS 35                                       2 38307ECC                              
SPOYTV   040301160051      000010KELLOGG/CORPORATE KIDS                                                                                                                                         
COMYTV   040301160101      000030BVHV/WTP-SPRINGTIME WITH ROO30                                                                                                                                 
COMYTV   040301160131      000030KRAFT/KID P1 :30'S                                                                                                                                             
COMYTV   040301161329      000015BINNEY&SMITH/CRAYOLA SPRING                                                                                                                                    
COMYTV   040301161344      000015BANDAI/KNIGHTS OF THE ZODIAC                                                                                                                                   
COMYTV   040301161359      000030GEN.MILLS/PERIOD 3 KIDS TRADNL                                                                                                                                 
COMYTV   040301161429      000015WARNER HOME/LOONEY TUNES-PRE S                                                                                                                                 
COMYTV   040301161444      000030MATTEL/KIDS CORP SPRING04/#3                                                                                                                                   
COMYTV   040301162631      000015MGM/GOOD BOY DVD                                                                                                                                               
COMYTV   040301162646      000030KRAFT/KID P1 :30'S                                                                                                                                             
COMYTV   040301162716      000015PARAMOUNT/SCHOOL OF ROCK                                                                                                                                       
INTYTV   040301162735163000000225PROGRAM JOCKEY                                    PROGRAM JOCKEY                                                       1 213120                                
ID YTV   040301162948      000012STATION ID                                                                                                                                                     
PGRYTV   040301163000165756002756SPONGEBOB SQUAREPANTS                             SNAIL RACE/MID-LIFE  EPS 55                                          2 38307ECC                              
SPOYTV   040301163049      000010BINNEY&SMITH/CRAYOLA                                                                                                                                           
COMYTV   040301163059      000030BVHV/WTP-SPRINGTIME WITH ROO30                                                                                                                                 
PROYTV   040301163129      000030YTV PROMO/OAP NON-CANADIAN                                                                                                                                     
COMYTV   040301164324      000015KRAFT/KID P1 :15'S                                                                                                                                             
COMYTV   040301164339      000015BINNEY&SMITH/CRAYOLA SPRING                                                                                                                                    
COMYTV   040301164354      000030GEN.MILLS/PERIOD 3 KIDS ISO'S                                                                                                                                  
COMYTV   040301164424      000015WARNER HOME/LOONEY TUNES-PRE S                                                                                                                                 
COMYTV   040301164439      000030KELLOGG/POP TARTS                                                                                                                                              
COMYTV   040301165649      000030MATTEL/KIDS CORP SPRING04/#3                                                                                                                                   
COMYTV   040301165719      000030YTV/KELLOGG/FROOT LOOPS CEREAL                                                                                                                                 
INTYTV   040301165756170000000204PROGRAM JOCKEY                                    PROGRAM JOCKEY                                                       1 213120                                
PGRYTV   040301170000172636002636YU-GI-OH                                          A VIRTUAL NIGHTMARE     EP 98                                        7 38307ECC                              
SPOYTV   040301170557      000010BANDAI/KNIGHTS OF THE ZODIAC                                                                                                                                   
COMYTV   040301170607      000015BINNEY&SMITH/CRAYOLA SPRING                                                                                                                                    
COMYTV   040301170622      000015SPIN MSTR TOYS/MIGHTY BEANZ 15                                                                                                                                 
COMYTV   040301170637      000030GEN.MILLS/PERIOD 3 TRADITIONAL                                                                                                                                 
COMYTV   040301171321      000030MCDONALDS/HAPPY MEAL MID DEMND                                                                                                                                 
COMYTV   040301171351      000030HASBRO/VARIOUS PRE FALL                                                                                                                                        
COMYTV   040301171421      000030ROGERS WIRE/MAX OUT WINTER                                                                                                                                     
COMYTV   040301171451      000030HASBRO/VARIOUS PRE FALL                                                                                                                                        
COMYTV   040301172034      000015MGM/GOOD BOY DVD                                                                                                                                               
COMYTV   040301172049      000030MCDONALDS/HAPPY MEAL MID DEMND                                                                                                                                 
COMYTV   040301172119      000015WARNER HOME/LOONEY TUNES-PRE S                                                                                                                                 
PROYTV   040301172134      000030YTV PROMO CONTRACT                                                                                                                                             
INTYTV   040301172636173000000324PROGRAM JOCKEY                                    PROGRAM JOCKEY                                                       1 213120                                
PGRYTV   040301173000175643002643BEYBLADE                                          ADIOS BLADBREAKERS  EPS12                                     D02016 7 38307ECC2                             
COMYTV   040301173556      000030KRAFT/KID P1 :30'S                                                                                                                                             
COMYTV   040301173626      000030BANDAI/POWER RANGERS                                                                                                                                           
PRCYTV   040301173656      000030YTV PROMO CONTRACT                                                                                                                                             
COMYTV   040301174218      000030HASBRO/VARIOUS PRE FALL                                                                                                                                        
COMYTV   040301174248      000030GEN.MILLS/PERIOD 3 TRADITIONAL                                                                                                                                 
COMYTV   040301174318      000030MATTEL/BONUS CONTRACT                                                                                                                                          
COMYTV   040301174348      000030KELLOGG/FROOT LOOPS                                                                                                                                            
COMYTV   040301174927      000015CAMPBELLS/GOLDFISH                                                                                                                                             
COMYTV   040301174942      000015KRAFT/KID P1 :15'S                                                                                                                                             
COMYTV   040301174957      000030MGA ENT/BRATZ                                                                                                                                                  
PROYTV   040301175027      000030YTV PROMO CONTRACT                                                                                                                                             
PRCYTV   040301175057      000030YTV PROMO CONTRACT                                                                                                                                             
INTYTV   040301175643180000000317PROGRAM JOCKEY                                    PROGRAM JOCKEY                                                       1 213120                                
ID YTV   040301175948      000012STATION ID                                                                                                                                                     
PGRYTV   040301180000183037003037SPONGEBOB SQUAREPANTS                             APR - FOOLS/SPATULA E19                                              2 38307ECC                              
SPOYTV   040301180049      000010OETKER LTD/FRUIT FILLED MUFFNS                                                                                                                                 
COMYTV   040301180059      000015BINNEY&SMITH/CRAYOLA SPRING                                                                                                                                    
COMYTV   040301180114      000030MGM/CODY BANKS 2                                                                                                                                               
COMYTV   040301180144      000030GEN.MILLS/PERIOD 3 KIDS ISO'S                                                                                                                                  
COMYTV   040301180214      000030MATTEL/KIDS CORP SPRING04/#3                                                                                                                                   
COMYTV   040301180244      000015CAMPBELLS/GOLDFISH                                                                                                                                             
COMYTV   040301181406      000015WARNER HOME/LOONEY TUNES-PRE S                                                                                                                                 
COMYTV   040301181421      000015KRAFT/KID P1 :15'S                                                                                                                                             
COMYTV   040301181436      000030ADIDAS/ADIDAS IMAGE CAMPAIGN                                                                                                                                   
COMYTV   040301181506      000030ALLIANCE/SPY KIDS 3 DVD                                                                                                                                        
COMYTV   040301181536      000030MATTEL/KIDS CORP SPRING04/#3                                                                                                                                   
SPOYTV   040301182728      000010KRAFT/KOOK AID JAMMERS                                                                                                                                         
COMYTV   040301182738      000015MGM/GOOD BOY DVD                                                                                                                                               
COMYTV   040301182753      000030SHAW                                                                                                                                                           
COMYTV   040301182823      000030KRAFT/KID P1 :30'S                                                                                                                                             
COMYTV   040301182853      000015BVHV/WTP-SPRINGTIME WITH ROO15                                                                                                                                 
COMYTV   040301182908      000030ROGERS WIRE/MAX OUT WINTER                                                                                                                                     
ID YTV   040301183023      000012STATION ID                                                                                                                                                     
PGRYTV   040301183037190010002933JUSTICE LEAGUE                                    PT2 - METAMORPHOSIS  EPS 23                                          2 38307ECC                              
SPOYTV   040301183245      000010OETKER LTD/FRUIT FILLED MUFFNS                                                                                                                                 
COMYTV   040301183255      000030MGA ENT/BRATZ                                                                                                                                                  
COMYTV   040301183325      000030NESTLE/SMARTIES                                                                                                                                                
COMYTV   040301183355      000030MGM/CODY BANKS 2                                                                                                                                               
COMYTV   040301183425      000030DELL/DELL PART 2                                                                                                                                               
COMYTV   040301184335      000030KRAFT/KID P1 :30'S                                                                                                                                             
COMYTV   040301184405      000100BELL CANADA/SYMPATICO DR                                                                                                                                       
COMYTV   040301184505      000030KELLOGG/FROSTED FLAKES                                                                                                                                         
PRCYTV   040301184535      000030YTV PROMO CONTRACT                                                                                                                                             
SPOYTV   040301185648      000010KRAFT/KOOK AID JAMMERS                                                                                                                                         
COMYTV   040301185658      000030PRISZM BRANDS/TACO BELL                                                                                                                                        
COMYTV   040301185728      000030KRAFT/HEAVY-UP WOMEN                                                                                                                                           
COMYTV   040301185758      000030KRAFT/HEAVY-UP ADULT                                                                                                                                           
COMYTV   040301185828      000030GEN.MILLS/PIZZA POPS                                                                                                                                           
PRCYTV   040301185858      000030YTV PROMO CONTRACT                                                                                                                                             
ID YTV   040301185958      000012STATION ID                                                                                                                                                     
PGRYTV   040301190010193009002959TEEN TITANS                                       CAR TROUBLE             EP 13                                        2 38307ECC                              
SPOYTV   040301190349      000010BINNEY&SMITH/CRAYOLA                                                                                                                                           
COMYTV   040301190359      000030KRAFT/HEAVY-UP WOMEN                                                                                                                                           
COMYTV   040301190429      000030ADIDAS/ADIDAS IMAGE CAMPAIGN                                                                                                                                   
COMYTV   040301190459      000030HASBRO/VARIOUS PRE FALL                                                                                                                                        
COMYTV   040301190529      000015WARNER HOME/LOONEY TUNES-PRE S                                                                                                                                 
COMYTV   040301190544      000015HWY/ADULT BARTER LOW DEMAND                                                                                                                                    
PRCYTV   040301190559      000030YTV PROMO CONTRACT                                                                                                                                             
COMYTV   040301191657      000015MGA ENT/LIL BRATZ                                                                                                                                              
COMYTV   040301191712      000015MGM/CODY BANKS 2                                                                                                                                               
COMYTV   040301191727      000030HASBRO/VARIOUS PRE FALL                                                                                                                                        
COMYTV   040301191757      000030MATTEL/WOMEN VARIOUS 15PTS/WK                                                                                                                                  
PRCYTV   040301191827      000030YTV PROMO/OAP NON-CANADIAN                                                                                                                                     
PRCYTV   040301191857      000030YTV PROMO CONTRACT                                                                                                                                             
COMYTV   040301192626      000030YTV/HASBRO/BEYBLADE RIP INTO                                                                                                                                   
COMYTV   040301192656      000030MICROCELL/FIDO CT02                                                                                                                                            
COMYTV   040301192726      000030ROGERS WIRE/MAX OUT WINTER                                                                                                                                     
COMYTV   040301192756      000030HASBRO/VARIOUS PRE FALL                                                                                                                                        
PRCYTV   040301192826      000030YTV PROMO CONTRACT                                                                                                                                             
PRCYTV   040301192856      000030YTV PROMO CONTRACT                                                                                                                                             
ID YTV   040301192956      000012STATION ID                                                                                                                                                     
PGRYTV   040301193009200013003004YVON OF THE YUKON                                 PULL YOUR GOALIE  EPS 22                          YVON  YTV   A52383 1 35307ECC                              
COMYTV   040301193928      000015MGM/CODY BANKS 2                                                                                                                                               
COMYTV   040301193943      000015HWY/ADULT CASH LOW DEMAND                                                                                                                                      
COMYTV   040301193958      000030L'OREAL/SKY HIGH CURVES                                                                                                                                        
COMYTV   040301194028      000030PEPSICO/TROPICANA PURE PREMIUM                                                                                                                                 
COMYTV   040301194058      000030GEN.MILLS/PERIOD 3 KIDS TRADNL                                                                                                                                 
COMYTV   040301194839      000030YTV/KELLOGG/FROOT LOOPS CEREAL                                                                                                                                 
COMYTV   040301194909      000030MATTEL/BONUS CONTRACT                                                                                                                                          
COMYTV   040301194939      000015HASBRO/VARIOUS PRE FALL                                                                                                                                        
COMYTV   040301194954      000015WARNER HOME/LOONEY TUNES-PRE S                                                                                                                                 
COMYTV   040301195009      000030PLAYTEX/TAMPONS                                                                                                                                                
COMYTV   040301195731      000030KRAFT/KID P1 :30'S                                                                                                                                             
COMYTV   040301195801      000100P&G/CORPORATE-PRE-EMPTIBLE                                                                                                                                     
COMYTV   040301195901      000030HWY/ADULT CASH LOW DEMAND                                                                                                                                      
ID YTV   040301200001      000012STATION ID                                                                                                                                                     
PGRYTV   040301200013203015003002DRAGON BALL                                       WATCH OUT, LAUNCH!    EPS 49                                  D02587 7 38307ECC2                             
SPOYTV   040301200119      000010OETKER LTD/FRUIT FILLED MUFFNS                                                                                                                                 
COMYTV   040301200129      000030KRAFT/KID P1 :30'S                                                                                                                                             
COMYTV   040301200159      000030KRAFT/KID P1 :30'S                                                                                                                                             
COMYTV   040301200229      000030ADIDAS/ADIDAS IMAGE CAMPAIGN                                                                                                                                   
COMYTV   040301200259      000030GEN.MILLS/PERIOD 3 TRADITIONAL                                                                                                                                 
PRCYTV   040301200329      000030YTV PROMO CONTRACT                                                                                                                                             
PRCYTV   040301200359      000015YTV PROMO CONTRACT                                                                                                                                             
COMYTV   040301201234      000030ALLIANCE/SPY KIDS 3 DVD                                                                                                                                        
COMYTV   040301201304      000030ADIDAS/ADIDAS IMAGE CAMPAIGN                                                                                                                                   
COMYTV   040301201334      000030GEN.MILLS/PERIOD 3 TRADITIONAL                                                                                                                                 
COMYTV   040301201404      000030GEN MOTORS/VARIOUS                                                                                                                                             
PROYTV   040301201434      000030YTV PROMO CONTRACT                                                                                                                                             
PRCYTV   040301201504      000030YTV PROMO CONTRACT                                                                                                                                             
COMYTV   040301202556      000030MATTEL/WOMEN VARIOUS 15PTS/WK                                                                                                                                  
COMYTV   040301202626      000030GEN.MILLS/PERIOD 3 TRADITIONAL                                                                                                                                 
COMYTV   040301202656      000015MGM/GOOD BOY DVD                                                                                                                                               
COMYTV   040301202711      000015SPIN MSTR TOYS/MIGHTY BEANZ 15                                                                                                                                 
COMYTV   040301202726      000030KELLOGG/FROSTED FLAKES                                                                                                                                         
PRCYTV   040301202756      000030YTV PROMO CONTRACT                                                                                                                                             
PRCYTV   040301202826      000030YTV PROMO CONTRACT                                                                                                                                             
ID YTV   040301202956      000012STATION ID                                                                                                                                                     
SPOYTV   040301203008      000005MATTEL/WOMEN VARIOUS 15PTS/WK                                                                                                                                  
PGRYTV   040301203015210013002958DRAGON BALL Z                                     SUICIDAL COURSE EP98                                                 7 38307ECC                              
COMYTV   040301203119      000030MICROCELL/FIDO CT02                                                                                                                                            
COMYTV   040301203149      000015J&J/CLEAN & CLEAR                                                                                                                                              
COMYTV   040301203204      000015BINNEY&SMITH/CRAYOLA SPRING                                                                                                                                    
COMYTV   040301203219      000100BELL CANADA/SYMPATICO DR                                                                                                                                       
PRCYTV   040301203319      000030YTV PROMO CONTRACT                                                                                                                                             
COMYTV   040301204401      000030KRAFT/HEAVY-UP ADULT                                                                                                                                           
COMYTV   040301204431      000030DISCOVERY KIDS/MARCH BREAK FRE                                                                                                                                 
COMYTV   040301204501      000030DELL/DELL PART 2                                                                                                                                               
COMYTV   040301204531      000030MATTEL/KIDS CORP SPRING04/#3                                                                                                                                   
PRCYTV   040301204601      000030YTV PROMO CONTRACT                                                                                                                                             
COMYTV   040301205631      000030KELLOGG/POP TARTS                                                                                                                                              
COMYTV   040301205701      000030MATTEL/WOMEN VARIOUS 15PTS/WK                                                                                                                                  
COMYTV   040301205731      000030KRAFT/HEAVY-UP WOMEN                                                                                                                                           
COMYTV   040301205801      000030GEN.MILLS/PIZZA POPS                                                                                                                                           
PRCYTV   040301205831      000030YTV PROMO CONTRACT                                                                                                                                             
PRCYTV   040301205901      000030YTV PROMO CONTRACT                                                                                                                                             
ID YTV   040301205958      000012STATION ID                                                                                                                                                     
SPOYTV   040301210010      000005K CLARK/HUGGIES ALONE 22 WKS                                                                                                                                   
PGRYTV   040301210013213014003001GOOSEBUMPS (II)(#202-206, 209, 212, 213, 215,     HOW TO KILL A MONSTER  EPS 31                     PROTOCYTV   C12678 1 35307ACC                              
SPOYTV   040301210445      000010OETKER LTD/FRUIT FILLED MUFFNS                                                                                                                                 
COMYTV   040301210455      000030PLAYTEX/TAMPONS                                                                                                                                                
COMYTV   040301210525      000100PRIMUS CANADA                                                                                                                                                  
COMYTV   040301210625      000015CLOROX/GLAD WASTE :15'S                                                                                                                                        
COMYTV   040301210640      000015HWY/ADULT CASH LOW DEMAND                                                                                                                                      
COMYTV   040301211427      000030KRAFT/HEAVY-UP ADULT                                                                                                                                           
COMYTV   040301211457      000015K CLARK/KOTEX                                                                                                                                                  
COMYTV   040301211512      000100BELL CANADA/SYMPATICO DR                                                                                                                                       
COMYTV   040301211612      000015HWY/ADULT CASH LOW DEMAND                                                                                                                                      
PRCYTV   040301211627      000030YTV PROMO CONTRACT                                                                                                                                             
COMYTV   040301212442      000030PINNACLE FOODS/CT02 SWANSON DI                                                                                                                                 
COMYTV   040301212512      000030K CLARK/HUGGIES :30'S ALONE                                                                                                                                    
COMYTV   040301212542      000030SCHNEIDER/CORP-3022*CO*05                                                                                                                                      
COMYTV   040301212612      000030MICROCELL/FIDO CT02                                                                                                                                            
PRCYTV   040301212642      000030YTV PROMO CONTRACT                                                                                                                                             
ID YTV   040301212957      000012STATION ID                                                                                                                                                     
SPOYTV   040301213009      000005K CLARK/BABY WIPES 15'S                                                                                                                                        
PGRYTV   040301213014220026003012RADIO ACTIVE (II)(#27-52)                         RETURN TO SENDER EP51                             TELEACYTV   C15323 1 35307BCC                              
SPOYTV   040301213731      000010OETKER LTD/FRUIT FILLED MUFFNS                                                                                                                                 
COMYTV   040301213741      000030GEN MILLS/HAMBURGER HELPER                                                                                                                                     
COMYTV   040301213811      000100SYLVAN LEARNING/SPRING CORP                                                                                                                                    
COMYTV   040301213911      000030PEPSICO/STIX 30'S                                                                                                                                              
COMYTV   040301214645      000030PEPSICO/TROPICANA PURE PREMIUM                                                                                                                                 
COMYTV   040301214715      000100BELL CANADA/SYMPATICO DR                                                                                                                                       
COMYTV   040301214815      000030GEN.MILLS/PIZZA POPS                                                                                                                                           
COMYTV   040301215603      000030KRAFT/HEAVY-UP WOMEN                                                                                                                                           
COMYTV   040301215633      000030DELL/DELL PART 2                                                                                                                                               
COMYTV   040301215703      000030HWY/ADULT CASH LOW DEMAND                                                                                                                                      
COMYTV   040301215733      000030SCHNEIDER/HOT STUFFS                                                                                                                                           
ID YTV   040301220009      000012STATION ID                                                                                                                                                     
SPOYTV   040301220021      000005K CLARK/HUGGIES :30'S ALONE                                                                                                                                    
PGRYTV   040301220026223040003014READY OR NOT (II)(#14-15, 17-22, 24, 26-39)       UNDER ONE ROOF        EPS 30                      INSIGH      C11403 1 35307ACC                              
SPOYTV   040301220337      000010OETKER LTD/FRUIT FILLED MUFFNS                                                                                                                                 
COMYTV   040301220347      000100PRIMUS CANADA                                                                                                                                                  
COMYTV   040301220447      000015J&J/CLEAN & CLEAR                                                                                                                                              
COMYTV   040301220502      000030K CLARK/HUGGIES :30'S ALONE                                                                                                                                    
COMYTV   040301220532      000015HWY/ADULT CASH LOW DEMAND                                                                                                                                      
COMYTV   040301221225      000030PEPSICO/STIX 30'S                                                                                                                                              
COMYTV   040301221255      000030GEN MOTORS/VARIOUS                                                                                                                                             
COMYTV   040301221325      000030KRAFT/HEAVY-UP ADULT                                                                                                                                           
COMYTV   040301221355      000030ROGERS WIRE/MAX OUT WINTER                                                                                                                                     
COMYTV   040301222315      000015PLAYTEX/TAMPONS :15'S                                                                                                                                          
COMYTV   040301222330      000015K CLARK/KOTEX                                                                                                                                                  
COMYTV   040301222345      000030MICROCELL/FIDO CT02                                                                                                                                            
COMYTV   040301222415      000030GENERAL MILLS/BASE CRESCENTS                                                                                                                                   
COMYTV   040301222445      000030GLAXO/SMITH/BEECH/SENSODYNE                                                                                                                                    
ID YTV   040301223027      000012STATION ID                                                                                                                                                     
PGRYTV   040301223040230007002927BIG WOLF ON CAMPUS                                ROB ZOMBIE EP38                                   TELESC      A45078 1 35307BCC                              
SPOYTV   040301223618      000010OETKER LTD/FRUIT FILLED MUFFNS                                                                                                                                 
COMYTV   040301223628      000030J&J/CHILDREN'S MOTRIN                                                                                                                                          
COMYTV   040301223658      000030MAPLE LEAF FOODS/SPEC HIGHLIGH                                                                                                                                 
COMYTV   040301223728      000100SYLVAN LEARNING/SPRING CORP                                                                                                                                    
COMYTV   040301224927      000030GENERAL MILLS/BASE CRESCENTS                                                                                                                                   
COMYTV   040301224957      000015K CLARK/KOTEX                                                                                                                                                  
COMYTV   040301225012      000030MICROCELL/FIDO CT02                                                                                                                                            
COMYTV   040301225042      000030COUNTRY 95.3/COUNTRY 95.3                                                                                                                                      
COMYTV   040301225112      000015HWY/ADULT CASH LOW DEMAND                                                                                                                                      
PRCYTV   040301225127      000030YTV PROMO CONTRACT                                                                                                                                             
COMYTV   040301225542      000030UNILEVER/LIPTON SIDEKICKS                                                                                                                                      
COMYTV   040301225612      000100SYLVAN LEARNING/SPRING CORP                                                                                                                                    
COMYTV   040301225712      000030PEPSICO/TROPICANA PURE PREMIUM                                                                                                                                 
PRCYTV   040301225742      000030YTV PROMO CONTRACT                                                                                                                                             
ID YTV   040301225955      000012STATION ID                                                                                                                                                     
PGRYTV   040301230007232958002951ADDAMS FAMILY: THE SERIES (#1-65)                 WEDNESDAY'S CRUSH EP34                            AFS         C15097 1 35307BCC                              
SPOYTV   040301230552      000010OETKER LTD/FRUIT FILLED MUFFNS                                                                                                                                 
COMYTV   040301230602      000015HWY/ADULT BARTER LOW DEMAND                                                                                                                                    
COMYTV   040301230617      000015J&J/CLEAN & CLEAR                                                                                                                                              
COMYTV   040301230632      000100PRIMUS CANADA                                                                                                                                                  
COMYTV   040301230732      000015K CLARK/BABY WIPES 15'S                                                                                                                                        
COMYTV   040301230747      000015K CLARK/KOTEX                                                                                                                                                  
COMYTV   040301231530      000030MATTEL/BONUS CONTRACT                                                                                                                                          
COMYTV   040301231600      000100P&G/CORPORATE-PRE-EMPTIBLE                                                                                                                                     
COMYTV   040301231700      000030W NETWORK/UNIVERSAL/W CD                                                                                                                                       
PRCYTV   040301231730      000030YTV PROMO CONTRACT                                                                                                                                             
COMYTV   040301232541      000030MAPLE LEAF FOODS/SPEC HIGHLIGH                                                                                                                                 
COMYTV   040301232611      000100PRIMUS CANADA                                                                                                                                                  
COMYTV   040301232711      000030SCHNEIDER/HOT STUFFS                                                                                                                                           
PRCYTV   040301232741      000030YTV PROMO CONTRACT                                                                                                                                             
ID YTV   040301232948      000012STATION ID                                                                                                                                                     
PGRYTV   0403012329580006520036542 POINT 4 CHILDREN                                HAL - THE LADY VANISHES                                              3 38807BCC                              
SPOYTV   040301234031      000010OETKER LTD/FRUIT FILLED MUFFNS                                                                                                                                 
COMYTV   040301234041      000030EXPEDIA.CA/Q1 TV-8572-TV-24                                                                                                                                    
COMYTV   040301234111      000015K CLARK/KOTEX                                                                                                                                                  
COMYTV   040301234126      000030WHIRLPOOL/CONTINUITY1692*WH*27                                                                                                                                 
COMYTV   040301234156      000015CLOROX/GLAD WASTE :15'S                                                                                                                                        
COMYTV   040301234211      000030GLAXO/SMITH/BEECH/SENSODYNE                                                                                                                                    
COMYTV   040301235006      000030MAPLE LEAF FOODS/SPEC HIGHLIGH                                                                                                                                 
COMYTV   040301235036      000030KRAFT/HEAVY-UP WOMEN                                                                                                                                           
COMYTV   040301235106      000100SYLVAN LEARNING/SPRING CORP                                                                                                                                    
COMYTV   040301235833      000030PINNACLE FOODS/CT02 SWANSON DI                                                                                                                                 
COMYTV   040301235903      000015K CLARK/BABY WIPES 15'S                                                                                                                                        
COMYTV   040301235918      000030W NETWORK/UNIVERSAL/W CD                                                                                                                                       
COMYTV   040301235948      000030MATTEL/WOMEN VARIOUS 15PTS/WK                                                                                                                                  
COMYTV   040301000018      000015K CLARK/KOTEX                                                                                                                                                  
COMYTV   040301000442      000030SCHNEIDER/CORP-3022*CO*05                                                                                                                                      
COMYTV   040301000512      000030MAPLE LEAF FOODS/SPEC HIGHLIGH                                                                                                                                 
COMYTV   040301000542      000100P&G/CORPORATE-PRE-EMPTIBLE                                                                                                                                     
PGRYTV   040301000652003951003259ARE YOU BEING SERVED?                             THE CLOCK                                                            3 38807BCC                              
SPOYTV   040301001739      000010OETKER LTD/FRUIT FILLED MUFFNS                                                                                                                                 
COMYTV   040301001749      000030SCHNEIDER/HOT STUFFS                                                                                                                                           
COMYTV   040301001819      000030KRAFT/HEAVY-UP WOMEN                                                                                                                                           
COMYTV   040301001849      000030MATTEL/WOMEN VARIOUS 15PTS/WK                                                                                                                                  
COMYTV   040301001919      000030PINNACLE FOODS/CT02 SWANSON DI                                                                                                                                 
COMYTV   040301002617      000030J&J/CHILDREN'S MOTRIN                                                                                                                                          
COMYTV   040301002647      000015CLOROX/GLAD WASTE :15'S                                                                                                                                        
COMYTV   040301002702      000030PEPSICO/TROPICANA PURE PREMIUM                                                                                                                                 
COMYTV   040301002732      000015HWY/ADULT BARTER LOW DEMAND                                                                                                                                    
COMYTV   040301002747      000030GEN MILLS/HAMBURGER HELPER                                                                                                                                     
COMYTV   040301002817      000030NESTLE/SMARTIES                                                                                                                                                
COMYTV   040301003315      000030KRAFT/HEAVY-UP WOMEN                                                                                                                                           
COMYTV   040301003345      000030PEPSICO/STIX-:30'S                                                                                                                                             
COMYTV   040301003415      000030MATTEL/WOMEN VARIOUS 15PTS/WK                                                                                                                                  
COMYTV   040301003445      000030MAPLE LEAF FOODS/SPEC HIGHLIGH                                                                                                                                 
COMYTV   040301003515      000030KRAFT/HEAVY-UP WOMEN                                                                                                                                           
INTYTV   040301003951004103000112HERITAGE MINUTE                                   PAULINE VANIER EP47                                                  1 358120CC                              
PGRYTV   040301004103011736003633KEEPING UP APPEARANCES                            EPS 29                                                               3 38807BCC                              
SPOYTV   040301004735      000010OETKER LTD/FRUIT FILLED MUFFNS                                                                                                                                 
COMYTV   040301004745      000030GEN MILLS/HAMBURGER HELPER                                                                                                                                     
COMYTV   040301004815      000030KRAFT/HEAVY-UP ADULT                                                                                                                                           
COMYTV   040301004845      000030MATTEL/WOMEN VARIOUS 15PTS/WK                                                                                                                                  
COMYTV   040301004915      000030NESTLE/SMARTIES                                                                                                                                                
COMYTV   040301005320      000030GENERAL MILLS/BASE CRESCENTS                                                                                                                                   
COMYTV   040301005350      000030SCHNEIDER/CORP-3022*CO*05                                                                                                                                      
COMYTV   040301005420      000030GEN MOTORS/VARIOUS                                                                                                                                             
COMYTV   040301005450      000030MATTEL/WOMEN VARIOUS 15PTS/WK                                                                                                                                  
COMYTV   040301005520      000030HWY/ADULT CASH LOW DEMAND                                                                                                                                      
COMYTV   040301010410      000030SCHNEIDER/HOT STUFFS                                                                                                                                           
COMYTV   040301010440      000030EXPEDIA.CA/Q1 TV-8572-TV-24                                                                                                                                    
COMYTV   040301010510      000030MICROCELL/FIDO CT02                                                                                                                                            
COMYTV   040301010540      000030KRAFT/HEAVY-UP ADULT                                                                                                                                           
COMYTV   040301010610      000030GLAXO/SMITH/BEECH/SENSODYNE                                                                                                                                    
PGRYTV   0403010117360153240035482 POINT 4 CHILDREN                                HAL - THE LADY VANISHES                                              3 38807BCC                              
SPOYTV   040301012807      000010OETKER LTD/FRUIT FILLED MUFFNS                                                                                                                                 
COMYTV   040301012817      000030WHIRLPOOL/CONTINUITY1692*WH*27                                                                                                                                 
COMYTV   040301012847      000030MAPLE LEAF FOODS/SPEC HIGHLIGH                                                                                                                                 
COMYTV   040301012917      000030BMG MUSIC/VARIOUS TEEN ARTITST                                                                                                                                 
COMYTV   040301012947      000030J&J/CHILDREN'S MOTRIN                                                                                                                                          
COMYTV   040301013742      000030L'OREAL/SKY HIGH CURVES                                                                                                                                        
COMYTV   040301013812      000100P&G/CORPORATE-PRE-EMPTIBLE                                                                                                                                     
COMYTV   040301013912      000030MAPLE LEAF FOODS/SPEC HIGHLIGH                                                                                                                                 
COMYTV   040301013942      000030MATTEL/WOMEN VARIOUS 15PTS/WK                                                                                                                                  
COMYTV   040301014639      000030MAPLE LEAF FOODS/SPEC HIGHLIGH                                                                                                                                 
COMYTV   040301014709      000100P&G/CORPORATE-PRE-EMPTIBLE                                                                                                                                     
COMYTV   040301014809      000030MATTEL/WOMEN VARIOUS 15PTS/WK                                                                                                                                  
COMYTV   040301014839      000030KRAFT/HEAVY-UP WOMEN                                                                                                                                           
PGRYTV   040301015324022312002948ADDAMS FAMILY: THE SERIES (#1-65)                 WEDNESDAY'S CRUSH EP34                            AFS         C15097 1 35307BCC                              
SPOYTV   040301015909      000010OETKER LTD/FRUIT FILLED MUFFNS                                                                                                                                 
COMYTV   040301015919      000030MGM/CODY BANKS 2                                                                                                                                               
COMYTV   040301015949      000030KRAFT/HEAVY-UP WOMEN                                                                                                                                           
COMYTV   040301020019      000030MATTEL/WOMEN VARIOUS 15PTS/WK                                                                                                                                  
COMYTV   040301020049      000030HWY/ADULT CASH LOW DEMAND                                                                                                                                      
COMYTV   040301020842      000030MICROCELL/FIDO CT02                                                                                                                                            
COMYTV   040301020912      000030KRAFT/HEAVY-UP WOMEN                                                                                                                                           
COMYTV   040301020942      000015CLOROX/GLAD WASTE :15'S                                                                                                                                        
COMYTV   040301020957      000015HWY/ADULT CASH LOW DEMAND                                                                                                                                      
COMYTV   040301021012      000030GEN MOTORS/VARIOUS                                                                                                                                             
COMYTV   040301021042      000030PRISZM BRANDS/TACO BELL                                                                                                                                        
COMYTV   040301021853      000030KRAFT/HEAVY-UP WOMEN                                                                                                                                           
COMYTV   040301021923      000030PEPSICO/TROPICANA PURE PREMIUM                                                                                                                                 
