PGRYTV   000501060000062225002225INCREDIBLE STORY STUDIO (III)(#27-39)             MISSION IMPOSSIBLE EPS 38.                        INCRE3YTV   C16327 1 25307ACC3                             
PGRYTV   000501062225062325000100HERITAGE MINUTES (II)(#1-11)                      EMILY MURPHY EP36                                 CRB         C09639 1 35807ACC                              
PGRYTV   000501062325063140000815UNICEF:RIGHTS OF THE CHILD                        LAW & PROTECTION EP 2                                                1 313020CC                              
PGRYTV   000501063140063241000101PARLIAMINUTES                                     PARLIAMENT BUILDINGS-ENGLISH                                         1 313130CC                              
PGRYTV   000501063241063343000102PARLIAMINUTES                                     PARLIAMENT BUILDINGS-FRENCH                                          1 313130    FRE                         
PGRYTV   000501063343065816002433YAA!TO THE M@X                                    MUSIC BIZ EP19.                                   SDA   YTV   A28660 1 258110CC                              
ID YTV   000501065704      000012STATION ID                                                                                                                                                     
PRCYTV   000501065716      000030YTV PROMO CONTRACT                                                                                                                                             
PRCYTV   000501065746      000030YTV PROMO CONTRACT                                                                                                                                             
PGRYTV   000501065816070001000145ALEX                                              EPS 99                                                               7 381130                                
PGRYTV   000501070001071444001443PANDA BEAR DAYCARE                                IMAGINATION EP25                                  FAUX  YTV   C16769 1 35107ACC3                             
ID YTV   000501071431      000012STATION ID                                                                                                                                                     
PGRYTV   000501071444072956001512RUFFUS THE DOG                                    KING MIDAS EP25                                   FAUX  YTV   C16770 1 35107ACC3                             
ID YTV   000501072914      000012STATION ID                                                                                                                                                     
PRCYTV   000501072926      000030YTV PROMO CONTRACT                                                                                                                                             
PGRYTV   000501072956075154002158ANATOLE                                           NIGHT OF LIGHTS EP10.                             NELVANYTV   A25675 1 35107ECC                              
PGRYTV   000501075154075643000449FUZZPAWS INTERSTITIALS                            MIA'S TRIPPIN' OUT EP28                                       A18138 1 31107B                                
PGRYTV   000501075643080000000317NANALAN' (I)(#1-31)                               CATERPILLER EP6                                   GROGS YTV   C16346 1 35107G  3                             
ID YTV   000501075943      000012STATION ID                                                                                                                                                     
SPOYTV   000501075955      000005KELLOGG/VARIOUS KIDS                                                                                                                                           
PGRYTV   000501080000082958002958THE FLINTSTONES                                   MONSTER FRED EP116                                                   2 38307ECC                              
COMYTV   000501080150      000030MATTEL/VARIOUS                                                                                                                                                 
COMYTV   000501080220      000030YTV PROMO/OLD EL PASO KITS                                                                                                                                     
PRCYTV   000501080250      000015YTV PROMO CONTRACT                                                                                                                                             
COMYTV   000501081116      000030MATTEL/VARIOUS                                                                                                                                                 
COMYTV   000501081146      000030BUENA VISTA PI/DIN 28/DINOSAUR                                                                                                                                 
PSAYTV   000501081216      000030KIDS HELP FOUNDATION                                                                                                                                           
COMYTV   000501081246      000030KELLOGG/VARIOUS KIDS                                                                                                                                           
COMYTV   000501082010      000030HOSTESS/FL/HFL PLANET LUNCH/SP                                                                                                                                 
COMYTV   000501082040      000015DREAMWORKS VIDEO/GALAXY QUEST                                                                                                                                  
COMYTV   000501082055      000015TOPP'S/PUSH POPS                                                                                                                                               
SPOYTV   000501082941      000005KELLOGG/VARIOUS KIDS                                                                                                                                           
ID YTV   000501082946      000012STATION ID                                                                                                                                                     
PGRYTV   000501082958085352002354COUNTRY MOUSE & CITY MOUSE                        ADVENTURE ON THE ORIENT EP8                       WIC         CXXXXX 1 35107ECC                              
PGRYTV   000501085352090013000621WILDLIFE                                          CLIFF/LEOPARD EPS 3                                                  7 38107E                                
ID YTV   000501085911      000012STATION ID                                                                                                                                                     
PRCYTV   000501085923      000030YTV PROMO CONTRACT                                                                                                                                             
PRCYTV   000501085953      000015YTV PROMO CONTRACT                                                                                                                                             
SPOYTV   000501090008      000005TOPP'S/PUSH POPS                                                                                                                                               
PGRYTV   000501090013092228002215BANANAS IN PYJAMAS                                EPS 5                                                                7 38105BCC                              
PGRYTV   000501092228092740000512JELLABIES                                         BAA EP62                                                             3 38107E                                
ID YTV   000501092728      000012STATION ID                                                                                                                                                     
PGRYTV   000501092740093011000231PLASTINOTS                                        EPS 6                                                                7 38107E                                
SPOYTV   000501093006      000005TOPP'S/PUSH POPS                                                                                                                                               
PGRYTV   000501093011095550002539BIG COMFY COUCH (I)(#1-13)                        FUNNY FACES                                       RADIC       C10187 1 35107GCC                              
PGRYTV   000501095550100008000418MY SPECIAL BOOK                                   CARS EPS 81                                                          1 31105BCC                              
ID YTV   000501095939      000012STATION ID                                                                                                                                                     
PRCYTV   000501095951      000015YTV PROMO CONTRACT                                                                                                                                             
PGRYTV   000501100008102506002458KITTY CATS                                        CHARLIE'S TEDDY-BONE/AN APPLE                     PRISMA      C08907 1 35107ACC                              
PGRYTV   000501102506102839000333NANALAN' (I)(#1-31)                               FEED THE SQUIRREL EP7                             GROGS YTV   C16346 1 35107G  3                             
ID YTV   000501102807      000012STATION ID                                                                                                                                                     
PRCYTV   000501102819      000015YTV PROMO CONTRACT                                                                                                                                             
SPOYTV   000501102834      000005TOPP'S/BOTTLE POPS                                                                                                                                             
PGRYTV   000501102839105318002439ADVENTURES OF DUDLEY THE DRAGON (V)(#52-65)       THE GREAT DRAGONBERRY WAR EP60                    DRAGONYTV   C13890 1 35107GCC                              
PGRYTV   000501105318105601000243BIG SISTER,LITTLE BROTHER                         THE FART EPS 8                                                       3 38107E                                
PGRYTV   000501105601110013000412JUDY & DAVID'S BOOM BOX                           HATE TO CLEAN EPS 14                                                 1 31105B                                
ID YTV   000501110001      000012STATION ID                                                                                                                                                     
PGRYTV   000501110013111455001442PANDA BEAR DAYCARE                                IMAGINATION EP25                                  FAUX  YTV   C16769 1 35107ACC3                             
ID YTV   000501111443      000012STATION ID                                                                                                                                                     
PGRYTV   000501111455113008001513RUFFUS THE DOG                                    KING MIDAS EP25                                   FAUX  YTV   C16770 1 35107ACC3                             
ID YTV   000501112926      000012STATION ID                                                                                                                                                     
PRCYTV   000501112938      000030YTV PROMO CONTRACT                                                                                                                                             
PGRYTV   000501113008115417002409RUPERT                                            EPS 47-RUPERT AND THE MYSTERY                     NELVANYTV   P21123 1 35107ECC                              
PGRYTV   000501115417115930000513JELLABIES                                         RUBBISH EPS 70                                                       3 28107E                                
ID YTV   000501115918      000012STATION ID                                                                                                                                                     
PGRYTV   000501115930122556002626BATMAN                                            SHADOW OF THE BAT PT2 EP62                                           2 38307ECC                              
COMYTV   000501120040      000030GENERAL MILLS/TRADITIONAL                                                                                                                                      
COMYTV   000501120110      000030MATTEL CANADA INC.                                                                                                                                             
COMYTV   000501120911      000030DREAMWORKS VIDEO/GALAXY QUEST                                                                                                                                  
COMYTV   000501120941      000030MATTEL/VARIOUS                                                                                                                                                 
COMYTV   000501121011      000030KRAFT/KIDS-WINTER/SPRING PKG                                                                                                                                   
COMYTV   000501121041      000030MCDONALD'S RESTAURANTS CANADA                                                                                                                                  
COMYTV   000501121741      000030PILLSBURY/OLD EL PASO                                                                                                                                          
COMYTV   000501121811      000030HASBRO CANADA INC.                                                                                                                                             
PGRYTV   000501122556123109000513FREAKY STORIES INTERSTITIALS                      PIG STORY                                         BIGTIMYTV   A12036 1 35307ECC                              
ID YTV   000501123056      000012STATION ID                                                                                                                                                     
PGRYTV   000501123109125630002521PINKY,ELMYRA AND THE BRAIN                        PARTY NITE/THE MASK EP78                                             2 38307ECC                              
COMYTV   000501124138      000030SCHNEIDER/LUNCHMATES                                                                                                                                           
COMYTV   000501124208      000030KRAFT/KIDS-WINTER/SPRING PKG                                                                                                                                   
COMYTV   000501124737      000030YTV PROMO/OLD EL PASO KITS                                                                                                                                     
COMYTV   000501124807      000030HASBRO/SUMMER VARIOUS                                                                                                                                          
PSAYTV   000501124837      000100CONCERNED CHILDREN'S ADVERTISE                                                                                                                                 
COMYTV   000501125500      000030MCDONALDS/CORP/HAPPY MEAL                                                                                                                                      
COMYTV   000501125530      000030MATTEL/VARIOUS                                                                                                                                                 
PGRYTV   000501125630130031000401MY SPECIAL BOOK                                   IMPOSSIBLE ST. EPS 82                                                1 31105BCC                              
ID YTV   000501130019      000012STATION ID                                                                                                                                                     
PGRYTV   000501130031130351000320PLONSTERS                                         EPS 45                                                               7 38107E                                
PGRYTV   000501130351131646001255CRAYON BOX                                        THE GOLDEN RULE EP17                                                 2 38107ECC                              
ID YTV   000501131634      000012STATION ID                                                                                                                                                     
PGRYTV   000501131646132656001010DAWDLE THE DONKEY                                 DAWDLE THE RAINBOW DONKEY EP8                                        3 38107ECC                              
PGRYTV   000501132656133220000524TOOTHBRUSH FAMILY                                 LOST & FOUND EP65                                                    7 18107E                                
ID YTV   000501133208      000012STATION ID                                                                                                                                                     
PGRYTV   000501133220135608002348COUNTRY MOUSE & CITY MOUSE                        ADVENTURE ON THE ORIENT EP8                       WIC         CXXXXX 1 35107ECC                              
PGRYTV   000501135608140109000501FUZZPAWS INTERSTITIALS                            BIRDHOUSE ARCHIE BUILT EP29                                   A18139 1 31107B                                
ID YTV   000501140057      000012STATION ID                                                                                                                                                     
PGRYTV   000501140109140627000518MAISY                                             PARADE EPS 24                                                        3 38107E                                
PGRYTV   000501140627141158000531WILDLIFE                                          CLIFF/LEOPARD EPS 3                                                  7 38107E                                
ID YTV   000501141146      000012STATION ID                                                                                                                                                     
PGRYTV   000501141158142045000847MOPATOPS SHOP                                     ROBBERS EP98                                                         3 28107G                                
PGRYTV   000501142045142545000500JELLABIES                                         MAGIC EP57                                                           3 38107E                                
PGRYTV   000501142545142858000313NANALAN' (I)(#1-31)                               LOLLIPOP EP8                                      GROGS YTV   C16346 1 35107G  3                             
ID YTV   000501142846      000012STATION ID                                                                                                                                                     
PGRYTV   000501142858142923000025THE GOMS                                          EPS 21                                                               7 381130                                
SPOYTV   000501142913      000010MCDONALDS/CORP/HAPPY MEAL                                                                                                                                      
PGRYTV   000501142923145126002203FORGOTTEN TOYS                                    FORGOTTEN AGAIN/TOYS THAT EP1                                        3 38107E                                
PGRYTV   000501145126145638000512TOOTHBRUSH FAMILY                                 FIRE BRIGADE EP40                                                    7 38107E                                
PGRYTV   000501145638145935000257BIG SISTER,LITTLE BROTHER                         THE VACUUM CLEANER EPS 9                                             3 38107E                                
ID YTV   000501145923      000012STATION ID                                                                                                                                                     
PGRYTV   000501145935153000003025MAGIC SCHOOL BUS                                  BUS FOR LUNCH EP10                                                   2 38307E                                
COMYTV   000501150656      000030BUENA VISTA PI/DIN 28/DINOSAUR                                                                                                                                 
COMYTV   000501150726      000030BANDAI/VAIOUS                                                                                                                                                  
COMYTV   000501151438      000030MATTEL/VARIOUS                                                                                                                                                 
COMYTV   000501151508      000015DREAMWORKS VIDEO/GALAXY QUEST                                                                                                                                  
COMYTV   000501151523      000030PILLSBURY/OLD EL PASO                                                                                                                                          
COMYTV   000501151553      000030HASBRO/SUMMER VARIOUS                                                                                                                                          
COMYTV   000501151623      000015TOPP'S                                                                                                                                                         
COMYTV   000501152527      000030KRAFT/KIDS-WINTER/SPRING PKG                                                                                                                                   
COMYTV   000501152557      000030HASBRO/SUMMER VARIOUS                                                                                                                                          
ID YTV   000501152948      000012STATION ID                                                                                                                                                     
PGRYTV   000501153000155750002750UH OH!                                            EPS 123                                                              1 313100CC                              
COMYTV   000501153331      000030MCDONALD'S RESTAURANTS CANADA                                                                                                                                  
COMYTV   000501153401      000030PROCTER & GAMBLE INC.                                                                                                                                          
COMYTV   000501154128      000030YTV PROMO/OLD EL PASO KITS                                                                                                                                     
COMYTV   000501154158      000030MATTEL CANADA INC.                                                                                                                                             
PSAYTV   000501154228      000100CONCERNED CHILDREN'S ADVERTISE                                                                                                                                 
PRCYTV   000501154328      000030YTV PROMO CONTRACT                                                                                                                                             
COMYTV   000501154923      000030KRAFT/KIDS-WINTER/SPRING PKG                                                                                                                                   
PROYTV   000501154953      000030YTV MARKETING/OAP                                                                                                                                              
PRCYTV   000501155023      000030YTV PROMO CONTRACT                                                                                                                                             
PGRYTV   000501155750160000000210PROGRAM JOCKEY                                    PROGRAM JOCKEY                                                       1 213130                                
ID YTV   000501155948      000012STATION ID                                                                                                                                                     
PGRYTV   000501160000162606002606MONSTER RANCHER (#1-26)                           RUINS' SECRET EP10                                            D01648 7 38307E  2                             
COMYTV   000501160105      000030HASBRO CANADA INC.                                                                                                                                             
COMYTV   000501160135      000030KELLOGG CANADA INC.                                                                                                                                            
COMYTV   000501160847      000030YTV PROMO/OLD EL PASO KITS                                                                                                                                     
COMYTV   000501160917      000030KRAFT/KIDS-WINTER/SPRING PKG                                                                                                                                   
COMYTV   000501160947      000030HASBRO CANADA INC.                                                                                                                                             
COMYTV   000501161017      000030DANONE                                                                                                                                                         
PRCYTV   000501161047      000030YTV PROMO CONTRACT                                                                                                                                             
COMYTV   000501161917      000030HASBRO/SUMMER VARIOUS                                                                                                                                          
COMYTV   000501161947      000030CHRISTIE BROWN SNACKING CO.,                                                                                                                                   
PRCYTV   000501162017      000030YTV PROMO CONTRACT                                                                                                                                             
PGRYTV   000501162606163005000359PROGRAM JOCKEY                                    PROGRAM JOCKEY                                                       1 213130                                
ID YTV   000501162948      000012STATION ID                                                                                                                                                     
SPOYTV   000501163000      000005GENERAL MILLS/TRADITIONAL                                                                                                                                      
PGRYTV   000501163005165529002524DIGIMON                                           ARRIVAL OF SKULL EP16                                                7 38307ECC                              
COMYTV   000501163304      000030KRAFT/KIDS-WINTER/SPRING PKG                                                                                                                                   
COMYTV   000501163334      000015DREAMWORKS VIDEO/GALAXY QUEST                                                                                                                                  
PROYTV   000501163349      000015YTV MKTG/CD COMPILATION-HU                                                                                                                                     
COMYTV   000501164147      000030YTV PROMO/OLD EL PASO KITS                                                                                                                                     
COMYTV   000501164217      000030PROCTER & GAMBLE INC.                                                                                                                                          
PSAYTV   000501164247      000100CONCERNED CHILDREN'S ADVERTISE                                                                                                                                 
PRCYTV   000501164347      000030YTV PROMO CONTRACT                                                                                                                                             
COMYTV   000501165232      000030YTV PROMO/HOSTESS FRITO LAY                                                                                                                                    
COMYTV   000501165302      000030HASBRO CANADA INC.                                                                                                                                             
PRCYTV   000501165332      000030YTV PROMO CONTRACT                                                                                                                                             
PGRYTV   000501165529170010000441PROGRAM JOCKEY                                    PROGRAM JOCKEY                                                       1 213130                                
ID YTV   000501165953      000012STATION ID                                                                                                                                                     
SPOYTV   000501170005      000005KRAFT/POKEMON SPONSORSHIP PKG                                                                                                                                  
PGRYTV   000501170010172702002652POKEMON                                           ULTIMATE TEST EP38                                                   7 38307ECC                              
COMYTV   000501170119      000030KRAFT/POKEMON SPONSORSHIP PKG                                                                                                                                  
COMYTV   000501170149      000030MATTEL/VARIOUS                                                                                                                                                 
COMYTV   000501171212      000030PILLSBURY/OLD EL PASO                                                                                                                                          
COMYTV   000501171242      000030DREAMWORKS VIDEO/GALAXY QUEST                                                                                                                                  
COMYTV   000501171312      000030HASBRO/SUMMER VARIOUS                                                                                                                                          
COMYTV   000501171342      000030GENERAL MILLS/TRADITIONAL                                                                                                                                      
COMYTV   000501172423      000100SPRINT ON LINE                                                                                                                                                 
PRCYTV   000501172523      000030YTV PROMO CONTRACT                                                                                                                                             
PGRYTV   000501172702173003000301PROGRAM JOCKEY                                    PROGRAM JOCKEY                                                       1 213130                                
ID YTV   000501172951      000012STATION ID                                                                                                                                                     
PGRYTV   000501173003175722002719DRAGONBALL Z                                      CALL FOR RESTORATION EP97                                            7 28307ECC                              
COMYTV   000501173108      000030P&G/SUNNY DELIGHT                                                                                                                                              
COMYTV   000501173138      000030KRAFT/KIDS-WINTER/SPRING PKG                                                                                                                                   
COMYTV   000501174259      000030YTV PROMO/OLD EL PASO KITS                                                                                                                                     
COMYTV   000501174329      000015DREAMWORKS VIDEO/GALAXY QUEST                                                                                                                                  
PROYTV   000501174344      000015YTV MKTG/CD COMPILATION-HU                                                                                                                                     
PSAYTV   000501174359      000100COVENANT HOUSE                                                                                                                                                 
PRCYTV   000501174459      000015YTV PROMO CONTRACT                                                                                                                                             
COMYTV   000501175507      000030KRAFT/KIDS-WINTER/SPRING PKG                                                                                                                                   
COMYTV   000501175537      000030SHAW @ HOME/VARIOUS                                                                                                                                            
PRCYTV   000501175607      000030YTV PROMO CONTRACT                                                                                                                                             
PGRYTV   000501175722180010000248PROGRAM JOCKEY                                    PROGRAM JOCKEY                                                       1 213130                                
ID YTV   000501175948      000012STATION ID                                                                                                                                                     
SPOYTV   000501180000      000010PILLSBURY/OLD EL PASO                                                                                                                                          
PGRYTV   000501180010183010003000ADDAMS FAMILY: THE SERIES (#1-65)                 COUSIN ITT VISITS THE EP12                        AFS         C15097 1 35307ACC                              
SPOYTV   000501180704      000005YOUTH EMPLOYMENT STRATEGY/YAA                                                                                                                                  
COMYTV   000501180709      000030YOUTH EMPLOYMENT STRATEGY/YAA                                                                                                                                  
COMYTV   000501180739      000030KRAFT/WOMEN PERIOD 1                                                                                                                                           
COMYTV   000501180809      000030HIGHWAY/ADULT BART.6                                                                                                                                           
COMYTV   000501180839      000030BURGER KING/A18-49                                                                                                                                             
COMYTV   000501181437      000030SCHNEIDER/LUNCHMATES                                                                                                                                           
COMYTV   000501181507      000100P&G/BASE                                                                                                                                                       
COMYTV   000501181607      000030KRAFT/KIDS-WINTER/SPRING PKG                                                                                                                                   
PRCYTV   000501181637      000030YTV PROMO CONTRACT                                                                                                                                             
COMYTV   000501182507      000030UNIVERSAL MUSIC/AQUA-SOUL DECI                                                                                                                                 
COMYTV   000501182537      000030KRAFT/KIDS-WINTER/SPRING PKG                                                                                                                                   
COMYTV   000501182607      000030ROYAL BANK/RBC INSURANCE                                                                                                                                       
COMYTV   000501182637      000030BURGER KING/A18-49                                                                                                                                             
PRCYTV   000501182707      000030YTV PROMO CONTRACT                                                                                                                                             
ID YTV   000501182948      000012STATION ID                                                                                                                                                     
SPOYTV   000501183000      000010PILLSBURY/OLD EL PASO                                                                                                                                          
PGRYTV   000501183010190022003012MONA THE VAMPIRE                                  LIVING MANNEQUIN/DREADED EP5                      FANCYCYTV   A18415 1 35307ECC                              
COMYTV   000501183116      000030BUENA VISTA PI/DIN 28/DINOSAUR                                                                                                                                 
COMYTV   000501183146      000030HASBRO/SUMMER VARIOUS                                                                                                                                          
COMYTV   000501183216      000100AMERICAN EXPRESS/SMALL BUS SER                                                                                                                                 
COMYTV   000501184423      000015DREAMWORKS VIDEO/GALAXY QUEST                                                                                                                                  
COMYTV   000501184438      000030MATTEL/VARIOUS                                                                                                                                                 
COMYTV   000501184508      000030SCHNEIDER/LUNCHMATES                                                                                                                                           
COMYTV   000501184538      000015TOPP'S/BOTTLE POPS                                                                                                                                             
COMYTV   000501184553      000030HASBRO/SUMMER VARIOUS                                                                                                                                          
COMYTV   000501185730      000030PILLSBURY/OLD EL PASO                                                                                                                                          
COMYTV   000501185800      000030MATTEL/VARIOUS                                                                                                                                                 
COMYTV   000501185830      000030HOSTESS/FL/HFL PLANET LUNCH/SP                                                                                                                                 
COMYTV   000501185900      000030KIMBERLY-CLARK OF CANADA LTD.                                                                                                                                  
ID YTV   000501190000      000012STATION ID                                                                                                                                                     
SPOYTV   000501190012      000010DREAMWORKS VIDEO/GALAXY QUEST                                                                                                                                  
PGRYTV   000501190022193030003008FREAKY STORIES                                    PIRATES/CHOC-ROACHES EP26                         BIGTIMYTV   A23773 1 35307ECC                              
SPOYTV   000501190609      000005A E C L/YAA                                                                                                                                                    
COMYTV   000501190614      000030A E C L/YAA                                                                                                                                                    
COMYTV   000501190644      000030J&J/B0-FOCAL/ACUVUE 2                                                                                                                                          
COMYTV   000501190714      000030RALSTON/CAT CHOW                                                                                                                                               
COMYTV   000501190744      000030KRAFT/WOMEN PERIOD 1                                                                                                                                           
COMYTV   000501191347      000030KRAFT/KOOLAID                                                                                                                                                  
COMYTV   000501191417      000030MATTEL/VARIOUS                                                                                                                                                 
COMYTV   000501191447      000030ALIMENTS ULTIMA/YOPLAIT TUBES                                                                                                                                  
COMYTV   000501191517      000030KELLOGG CANADA INC.                                                                                                                                            
COMYTV   000501192101      000030POLAROID/POCKETCAM                                                                                                                                             
COMYTV   000501192131      000015DISNEY CONS PRD/IMAGE CAMPAIGN                                                                                                                                 
COMYTV   000501192146      000030K CLARK/HUGGIES/LITTLE SWIMMER                                                                                                                                 
COMYTV   000501192216      000030SC JOHNSON/ZIPLOC SLIDELOC                                                                                                                                     
COMYTV   000501192246      000015KRAFT/WOMEN :15'S PERIOD 1                                                                                                                                     
ID YTV   000501193013      000012STATION ID                                                                                                                                                     
SPOYTV   000501193025      000005ROYAL CANADIAN MINT                                                                                                                                            
PGRYTV   000501193030200001002931INCREDIBLE STORY STUDIO (III)(#27-39)             FAMILY FOIBLES EP37                               INCRE3YTV   C16327 1 35307ACC3                             
COMYTV   000501193106      000030ROYAL BANK/RBC INSURANCE                                                                                                                                       
COMYTV   000501193136      000030BURGER KING/A18-49                                                                                                                                             
COMYTV   000501193206      000030KRAFT/WOMEN PERIOD 1                                                                                                                                           
COMYTV   000501193236      000030HIGHWAY/ADULT BART.3                                                                                                                                           
COMYTV   000501194314      000030HOSTESS/FL/HFL PLANET LUNCH/SP                                                                                                                                 
COMYTV   000501194344      000100P&G/BASE                                                                                                                                                       
COMYTV   000501194444      000030DANONE/LEO                                                                                                                                                     
COMYTV   000501195641      000030HIGHWAY/ADULT BART.6                                                                                                                                           
COMYTV   000501195711      000030NINTENDO/KR                                                                                                                                                    
COMYTV   000501195741      000030KRAFT/WOMEN PERIOD 1                                                                                                                                           
COMYTV   000501195811      000030HIGHWAY/ADULT PT BAR                                                                                                                                           
PRCYTV   000501195841      000030YTV PROMO CONTRACT                                                                                                                                             
SPOYTV   000501195944      000005ROYAL CANADIAN MINT                                                                                                                                            
ID YTV   000501195949      000012STATION ID                                                                                                                                                     
PGRYTV   000501200001203010003009ADVENTURES OF SHIRLEY HOLMES                      CASE OF THE DRAGON'S EP52                         SHIRIVYTV   C16641 1 35307ACC3                             
COMYTV   000501200220      000030GENERAL MILLS/HONEY NUT                                                                                                                                        
COMYTV   000501200250      000030SCOTT PAPER/NEW PRODUCT LAUNCH                                                                                                                                 
COMYTV   000501200320      000030SC JOHNSON/ZIPLOC SLIDELOC                                                                                                                                     
COMYTV   000501200350      000030HIGHWAY/ADULT BART.3                                                                                                                                           
COMYTV   000501201304      000030ROYAL BANK/RBC INSURANCE                                                                                                                                       
COMYTV   000501201334      000030K CLARK/HUGGIES/LITTLE SWIMMER                                                                                                                                 
COMYTV   000501201404      000030HIGHWAY/ADULT PT BAR                                                                                                                                           
COMYTV   000501201434      000030HIGHWAY/ADLT CPA HU4                                                                                                                                           
COMYTV   000501202135      000030HALLMARK/VARIOUS                                                                                                                                               
COMYTV   000501202205      000030KRAFT/WOMEN PERIOD 1                                                                                                                                           
COMYTV   000501202235      000030HIGHWAY/ADULT BART.6                                                                                                                                           
COMYTV   000501202305      000030DAIRY FARMERS/BUTTER                                                                                                                                           
ID YTV   000501202953      000012STATION ID                                                                                                                                                     
SPOYTV   000501203005      000005ROYAL BANK/RBC INSURANCE                                                                                                                                       
PGRYTV   000501203010210005002955BOY MEETS WORLD                                   LIFE LESSONS EP63                                                    2 38307BCC                              
COMYTV   000501203221      000030UNIVERSAL MUSIC/AQUA-SOUL DECI                                                                                                                                 
COMYTV   000501203251      000030BURGER KING/A18-49                                                                                                                                             
COMYTV   000501203321      000100P&G/BASE                                                                                                                                                       
COMYTV   000501204011      000100P&G/BASE                                                                                                                                                       
COMYTV   000501204111      000030HASBRO/ROLLER COASTER TYCOON                                                                                                                                   
COMYTV   000501204141      000015COSMAIR/MAYBELLINE                                                                                                                                             
COMYTV   000501204156      000015VAN MELLE/MENTOS                                                                                                                                               
PRCYTV   000501204211      000030YTV PROMO CONTRACT                                                                                                                                             
COMYTV   000501205632      000030DANONE/LEO                                                                                                                                                     
COMYTV   000501205702      000015COSMAIR/MAYBELLINE                                                                                                                                             
COMYTV   000501205717      000030HALLMARK/VARIOUS                                                                                                                                               
COMYTV   000501205747      000030SCOTT PAPER/NEW PRODUCT LAUNCH                                                                                                                                 
COMYTV   000501205817      000015VAN MELLE/MENTOS                                                                                                                                               
PRCYTV   000501205832      000030YTV PROMO CONTRACT                                                                                                                                             
ID YTV   000501205953      000012STATION ID                                                                                                                                                     
PGRYTV   000501210005213005003000STUDENT BODIES                                    THE T-SHIRT EP50                                  STUDEN      A25804 1 35307ACC                              
COMYTV   000501210323      000100P&G/BASE                                                                                                                                                       
COMYTV   000501210423      000015COSMAIR/MAYBELLINE                                                                                                                                             
COMYTV   000501210438      000030HIGHWAY/TEEN CPA HU1                                                                                                                                           
COMYTV   000501210508      000015AOL/VARIOUS                                                                                                                                                    
COMYTV   000501211337      000030BURGER KING/A18-49                                                                                                                                             
COMYTV   000501211407      000030ACTIVISION                                                                                                                                                     
COMYTV   000501211437      000030HIGHWAY/ADULT BART.2                                                                                                                                           
COMYTV   000501211507      000030HIGHWAY/ADULT BART.6                                                                                                                                           
COMYTV   000501212157      000015COSMAIR/MAYBELLINE                                                                                                                                             
COMYTV   000501212212      000030HIGHWAY/ADULT PT BAR                                                                                                                                           
COMYTV   000501212242      000030HIGHWAY/ADULT BART.4                                                                                                                                           
COMYTV   000501212312      000015AOL/VARIOUS                                                                                                                                                    
COMYTV   000501212327      000030COCA-COLA/52 WEEKER: COKE                                                                                                                                      
PRCYTV   000501212357      000030YTV PROMO CONTRACT                                                                                                                                             
ID YTV   000501212953      000012STATION ID                                                                                                                                                     
PGRYTV   000501213005220010003005ROSWELL CONSPIRACIES                              THE BAIT PT1 EP1                                                     4 38307ECC                              
COMYTV   000501213056      000030HALLMARK/VARIOUS                                                                                                                                               
COMYTV   000501213126      000030DAIRY FARMERS/BUTTER                                                                                                                                           
COMYTV   000501213156      000015KRAFT/WOMEN :15'S PERIOD 1                                                                                                                                     
COMYTV   000501213211      000030ALIMENTS ULTIMA/YOPLAIT TUBES                                                                                                                                  
PROYTV   000501213241      000015YTV MKTG/CD COMPILATION-HU                                                                                                                                     
PRCYTV   000501213256      000030YTV PROMO CONTRACT                                                                                                                                             
COMYTV   000501214117      000030DURACELL/CORPORATE/VARIOUS                                                                                                                                     
COMYTV   000501214147      000030DANONE/LEO                                                                                                                                                     
COMYTV   000501214217      000030UNIVERSAL MUSIC/AQUA-SOUL DECI                                                                                                                                 
COMYTV   000501214247      000030KRAFT/WOMEN PERIOD 1                                                                                                                                           
PRCYTV   000501214317      000030YTV PROMO CONTRACT                                                                                                                                             
PRCYTV   000501214347      000030YTV PROMO CONTRACT                                                                                                                                             
COMYTV   000501214909      000030ACTIVISION                                                                                                                                                     
COMYTV   000501214939      000030HIGHWAY/ADULT BART.1                                                                                                                                           
COMYTV   000501215009      000030HIGHWAY ENT/AD H.U. #1                                                                                                                                         
COMYTV   000501215039      000030HIGHWAY/ADULT BART.5                                                                                                                                           
PRCYTV   000501215109      000030YTV PROMO CONTRACT                                                                                                                                             
PRCYTV   000501215139      000030YTV PROMO CONTRACT                                                                                                                                             
ID YTV   000501215953      000012STATION ID                                                                                                                                                     
SPOYTV   000501220005      000005RALSTON/CAT CHOW                                                                                                                                               
PGRYTV   000501220010223015003005LASSIE (NEW)                                      CHAIN LETTER EP32                                 CINAR YTV   CXXXXX 1 35807ACC                              
COMYTV   000501220846      000030DURACELL/CORPORATE/VARIOUS                                                                                                                                     
COMYTV   000501220916      000030DAIRY FARMERS/CHEESE                                                                                                                                           
COMYTV   000501220946      000030HIGHWAY/ADLT CPA HU4                                                                                                                                           
COMYTV   000501221016      000030KRAFT/WOMEN PERIOD 1                                                                                                                                           
COMYTV   000501221817      000030RALSTON/CAT CHOW                                                                                                                                               
COMYTV   000501221847      000030HIGHWAY/ADULT CPA 1                                                                                                                                            
COMYTV   000501221917      000030SCOTT PAPER/NEW PRODUCT LAUNCH                                                                                                                                 
COMYTV   000501221947      000030K CLARK/PULL UPS/KOTEX                                                                                                                                         
COMYTV   000501222718      000030ARTEL/VARIOUS                                                                                                                                                  
COMYTV   000501222748      000030K CLARK/HUGGIES/LITTLE SWIMMER                                                                                                                                 
COMYTV   000501222818      000030DAIRY FARMERS/CHEESE                                                                                                                                           
COMYTV   000501222848      000030UNIVERSAL MUSIC/AQUA-SOUL DECI                                                                                                                                 
SPOYTV   000501222958      000005RALSTON/CAT CHOW                                                                                                                                               
ID YTV   000501223003      000012STATION ID                                                                                                                                                     
PGRYTV   000501223015230014002959FREAKY STORIES                                    PIRATES/CHOC-ROACHES EP26                         BIGTIMYTV   A23773 1 35307ECC                              
COMYTV   000501223602      000030HIGHWAY/ADLT CPA HU2                                                                                                                                           
COMYTV   000501223632      000030BURGER KING/A18-49                                                                                                                                             
COMYTV   000501223702      000030HIGHWAY/ADULT BART.1                                                                                                                                           
COMYTV   000501223732      000030HIGHWAY/ADLT CPA HU4                                                                                                                                           
COMYTV   000501224336      000030HIGHWAY/ADULT BART.3                                                                                                                                           
COMYTV   000501224406      000030KRAFT/WOMEN PERIOD 1                                                                                                                                           
COMYTV   000501224436      000030HIGHWAY/ADLT CPA HU3                                                                                                                                           
COMYTV   000501224506      000030HIGHWAY/ADULT BART.5                                                                                                                                           
COMYTV   000501225051      000030ROYAL BANK/RBC INSURANCE                                                                                                                                       
COMYTV   000501225121      000030DANONE/LEO                                                                                                                                                     
COMYTV   000501225151      000030KODAK/PICTURE CD                                                                                                                                               
COMYTV   000501225221      000030HIGHWAY/ADULT BART.2                                                                                                                                           
ID YTV   000501230002      000012STATION ID                                                                                                                                                     
PGRYTV   000501230014233005002951ADDAMS FAMILY: THE SERIES (#1-65)                 HORSEPLAY EP46                                    AFS         C15097 1 35307ACC                              
COMYTV   000501230741      000100P&G/BASE                                                                                                                                                       
COMYTV   000501230841      000030K CLARK/HUGGIES/LITTLE SWIMMER                                                                                                                                 
COMYTV   000501230911      000015NIVEA CREME/FIRMING LOTION                                                                                                                                     
COMYTV   000501230926      000015AOL/VARIOUS                                                                                                                                                    
COMYTV   000501231548      000030DAIRY FARMERS/BUTTER                                                                                                                                           
COMYTV   000501231618      000030CHRISTIE/BITS & BITES                                                                                                                                          
COMYTV   000501231648      000030HIGHWAY/ADULT CPA 1                                                                                                                                            
COMYTV   000501231718      000030COCA-COLA/52 WEEKER: COKE                                                                                                                                      
PRCYTV   000501231748      000030YTV PROMO CONTRACT                                                                                                                                             
COMYTV   000501232527      000030ALIMENTS ULTIMA/YOPLAIT TUBES                                                                                                                                  
COMYTV   000501232557      000030SUBARU/VARIOUS                                                                                                                                                 
COMYTV   000501232627      000030HIGHWAY/ADULT CPA 2                                                                                                                                            
COMYTV   000501232657      000030HIGHWAY/ADULT BART.5                                                                                                                                           
PRCYTV   000501232727      000030YTV PROMO CONTRACT                                                                                                                                             
ID YTV   000501232948      000012STATION ID                                                                                                                                                     
SPOYTV   000501233000      000005CHRISTIE/BITS & BITES                                                                                                                                          
PGRYTV   000501233005000019003014BEASTIES (#1-26)                                  SPIDER'S GAME EP18                                ALLIANYTV   C13141 1 35307ECC                              
COMYTV   000501233819      000100P&G/BASE                                                                                                                                                       
COMYTV   000501233919      000030HIGHWAY/ADULT CPA 1                                                                                                                                            
COMYTV   000501233949      000030HIGHWAY/ADULT BART.3                                                                                                                                           
COMYTV   000501234616      000030HIGHWAY/ADULT BART.3                                                                                                                                           
COMYTV   000501234646      000030HIGHWAY/ADULT PT BAR                                                                                                                                           
COMYTV   000501234716      000100P&G/PRE-EMPTIBLE                                                                                                                                               
COMYTV   000501235405      000030HIGHWAY/ADLT CPA HU3                                                                                                                                           
COMYTV   000501235435      000030HIGHWAY/ADULT CPA 2                                                                                                                                            
COMYTV   000501235505      000030HIGHWAY/ADULT CPA 1                                                                                                                                            
COMYTV   000501235535      000030HIGHWAY/ADULT BART.6                                                                                                                                           
PRCYTV   000501235605      000030YTV PROMO CONTRACT                                                                                                                                             
ID YTV   000501235952      000012STATION ID                                                                                                                                                     
SPOYTV   000501000004      000010UNILEVER/SUNLIGHT LAUNDRY                                                                                                                                      
SPOYTV   000501000014      000005ROYAL BANK/RBC INSURANCE                                                                                                                                       
PGRYTV   000501000019003212003153ARE YOU BEING SERVED?                             COLD STORE EP 15                                                     3 38807BCC                              
COMYTV   000501000912      000100P&G/BASE                                                                                                                                                       
COMYTV   000501001012      000030HIGHWAY/ADLT CPA HU2                                                                                                                                           
COMYTV   000501001042      000030COCA-COLA/52 WEEKER: COKE                                                                                                                                      
COMYTV   000501001722      000100P&G/PRE-EMPTIBLE                                                                                                                                               
COMYTV   000501001822      000030ROYAL BANK/RBC INSURANCE                                                                                                                                       
COMYTV   000501001852      000030K CLARK/PULL UPS/KOTEX                                                                                                                                         
COMYTV   000501002312      000030COCA-COLA/52 WEEKER: COKE                                                                                                                                      
COMYTV   000501002342      000030BURGER KING/A18-49                                                                                                                                             
COMYTV   000501002412      000030SONY ENT/I DREAMED OF AFRICA                                                                                                                                   
COMYTV   000501002442      000030HIGHWAY/ADULT PT BAR                                                                                                                                           
ID YTV   000501003200      000012STATION ID                                                                                                                                                     
PGRYTV   000501003212010752003540KEEPING UP APPEARANCES                            EPS 18                                                               3 38807BCC                              
COMYTV   000501004120      000030HIGHWAY/ADULT BART.6                                                                                                                                           
COMYTV   000501004150      000030KRAFT/WOMEN PERIOD 1                                                                                                                                           
COMYTV   000501004220      000030CHRISTIE/BITS & BITES                                                                                                                                          
COMYTV   000501004250      000030K CLARK/PULL UPS/KOTEX                                                                                                                                         
COMYTV   000501004936      000030HIGHWAY/ADLT CPA HU4                                                                                                                                           
COMYTV   000501005006      000030COCA-COLA/52 WEEKER: COKE                                                                                                                                      
COMYTV   000501005036      000015KRAFT/WOMEN :15'S PERIOD 1                                                                                                                                     
COMYTV   000501005051      000015COSMAIR/MAYBELLINE                                                                                                                                             
COMYTV   000501005106      000030DAIRY FARMERS/CHEESE                                                                                                                                           
COMYTV   000501005630      000030BURGER KING/A18-49                                                                                                                                             
COMYTV   000501005700      000030KRAFT/WOMEN PERIOD 1                                                                                                                                           
COMYTV   000501005730      000015COSMAIR/MAYBELLINE                                                                                                                                             
COMYTV   000501005745      000030HIGHWAY/ADULT BART.1                                                                                                                                           
COMYTV   000501005815      000015AOL                                                                                                                                                            
ID YTV   000501010740      000012STATION ID                                                                                                                                                     
PGRYTV   000501010752013704002912YES MINISTER                                      NATIONAL EDUCATION SERVICE                                           3 38807BCC                              
COMYTV   000501011602      000030SC JOHNSON/ZIPLOC SLIDELOC                                                                                                                                     
COMYTV   000501011632      000030HIGHWAY/ADULT BART.6                                                                                                                                           
COMYTV   000501011702      000100AMERICAN EXPRESS/SMALL BUS SER                                                                                                                                 
COMYTV   000501012152      000100P&G/PRE-EMPTIBLE                                                                                                                                               
COMYTV   000501012252      000030J&J/B0-FOCAL/ACUVUE 2                                                                                                                                          
COMYTV   000501012322      000030HIGHWAY/ADULT BART.3                                                                                                                                           
COMYTV   000501013001      000030SC JOHNSON/ZIPLOC SLIDELOC                                                                                                                                     
COMYTV   000501013031      000030KRAFT/WOMEN PERIOD 1                                                                                                                                           
COMYTV   000501013101      000030HIGHWAY/ADULT BART.5                                                                                                                                           
COMYTV   000501013131      000030HIGHWAY/ADULT BART.6                                                                                                                                           
ID YTV   000501013651      000013STATION ID                                                                                                                                                     
PGRYTV   000501013704020720003016GAMESPOT INT'L                                    EPS 1                                                                2 38805B                                
PSAYTV   000501014346      000030JUVENILE DIABETES FOUNDATION                                                                                                                                   
COMYTV   000501014416      000030PROCTER & GAMBLE INC.                                                                                                                                          
COMYTV   000501014446      000030HIGHWAY/ADLT CPA HU3                                                                                                                                           
COMYTV   000501014516      000030ROYAL BANK/RBC INSURANCE                                                                                                                                       
COMYTV   000501015021      000030HIGHWAY/ADULT CPA 1                                                                                                                                            
COMYTV   000501015051      000030BURGER KING/A18-49                                                                                                                                             
COMYTV   000501015121      000030HALLMARK/VARIOUS                                                                                                                                               
COMYTV   000501015151      000030KRAFT/WOMEN PERIOD 1                                                                                                                                           
COMYTV   000501015747      000030KODAK/PICTURE CD                                                                                                                                               
COMYTV   000501015817      000030KRAFT/WOMEN PERIOD 1                                                                                                                                           
COMYTV   000501015847      000030HIGHWAY/ADULT BART.4                                                                                                                                           
COMYTV   000501015917      000030HIGHWAY/ADLT CPA HU4                                                                                                                                           
ID YTV   000501020703      000012STATION ID                                                                                                                                                     
SPOYTV   000501020715      000005KODAK/PICTURE CD                                                                                                                                               
PGRYTV   000501020720023620002900INTERNET TONIGHT                                  EPS 38                                                               2 38805B                                
COMYTV   000501021319      000030DURACELL/CORPORATE/VARIOUS                                                                                                                                     
COMYTV   000501021349      000030HIGHWAY/ADLT CPA HU4                                                                                                                                           
COMYTV   000501021419      000030HIGHWAY/ADULT BART.3                                                                                                                                           
COMYTV   000501021449      000030ALIMENTS ULTIMA/YOPLAIT TUBES                                                                                                                                  
COMYTV   000501022031      000030HIGHWAY ENT/AD H.U. #1                                                                                                                                         
COMYTV   000501022101      000030KRAFT/WOMEN PERIOD 1                                                                                                                                           
COMYTV   000501022131      000100AMERICAN EXPRESS/SMALL BUS SER                                                                                                                                 
COMYTV   000501022958      000100P&G/BASE                                                                                                                                                       
COMYTV   000501023058      000030ROYAL BANK/RBC INSURANCE                                                                                                                                       
COMYTV   000501023128      000030HIGHWAY ENT/AD H.U. #1                                                                                                                                         
ID YTV   000501023608      000012STATION ID                                                                                                                                                     
PGRYTV   000501023620030636003016ANTI-GRAVITY ROOM                                 EPS 28                                                               1 373110CC                              
COMYTV   000501024313      000030DAIRY FARMERS/CHEESE                                                                                                                                           
COMYTV   000501024343      000030HIGHWAY/ADLT CPA HU4                                                                                                                                           
COMYTV   000501024413      000100SPRINT ON LINE                                                                                                                                                 
COMYTV   000501025025      000030DAIRY FARMERS/BUTTER                                                                                                                                           
COMYTV   000501025055      000030HIGHWAY/ADULT BART.1                                                                                                                                           
COMYTV   000501025125      000100P&G/BASE                                                                                                                                                       
COMYTV   000501025711      000100P&G/BASE                                                                                                                                                       
COMYTV   000501025811      000030BURGER KING/SPRING CAMPAIGN                                                                                                                                    
COMYTV   000501025841      000030HIGHWAY/ADULT BART.2                                                                                                                                           
ID YTV   000501030624      000012STATION ID                                                                                                                                                     
PGRYTV   000501030636033547002911ROCKY & BULLWINKLE                                EPS 129                                                              2 38307E                                
COMYTV   000501031203      000100P&G/PRE-EMPTIBLE                                                                                                                                               
COMYTV   000501031303      000030SC JOHNSON/ZIPLOC SLIDELOC                                                                                                                                     
PSAYTV   000501031333      000030MOTHER AGAINST DRUNK DRIVING                                                                                                                                   
COMYTV   000501031947      000030HALLMARK/VARIOUS                                                                                                                                               
COMYTV   000501032017      000015COSMAIR/MAYBELLINE                                                                                                                                             
COMYTV   000501032032      000015AOL                                                                                                                                                            
COMYTV   000501032047      000100AMERICAN EXPRESS CANADA INC.                                                                                                                                   
COMYTV   000501032823      000030KRAFT/WOMEN PERIOD 1                                                                                                                                           
COMYTV   000501032853      000030KIMBERLY-CLARK OF CANADA LTD.                                                                                                                                  
COMYTV   000501032923      000100P&G/BASE                                                                                                                                                       
ID YTV   000501033535      000012STATION ID                                                                                                                                                     
PGRYTV   000501033547040505002918WOODY WOODPECKER & FRIENDS                        EPS 117                                                              2 38307ECC                              
COMYTV   000501033651      000030HIGHWAY/ADLT CPA HU2                                                                                                                                           
COMYTV   000501033721      000030DURACELL/CORPORATE/VARIOUS                                                                                                                                     
COMYTV   000501033751      000030KRAFT CANADA INC.                                                                                                                                              
COMYTV   000501033821      000030HIGHWAY ENTERTAINMENT                                                                                                                                          
COMYTV   000501034526      000100P&G/BASE                                                                                                                                                       
COMYTV   000501034626      000030HIGHWAY/ADULT PT BAR                                                                                                                                           
COMYTV   000501034656      000015COSMAIR/MAYBELLINE                                                                                                                                             
COMYTV   000501034711      000015AOL                                                                                                                                                            
COMYTV   000501035352      000100P&G/PRE-EMPTIBLE                                                                                                                                               
COMYTV   000501035452      000030KRAFT/WOMEN PERIOD 1                                                                                                                                           
COMYTV   000501035522      000030BURGER KING/SPRING CAMPAIGN                                                                                                                                    
ID YTV   000501040453      000012STATION ID                                                                                                                                                     
PGRYTV   000501040505043319002814PETER PAN                                         VANITY THY NAME IS MERMAID                                           3 38307ECC                              
COMYTV   000501041001      000100SPRINT ON LINE                                                                                                                                                 
COMYTV   000501041101      000030HIGHWAY/ADULT CPA 2                                                                                                                                            
COMYTV   000501041131      000030CHRISTIE BROWN SNACKING CO.,                                                                                                                                   
COMYTV   000501041807      000100P&G/PRE-EMPTIBLE                                                                                                                                               
COMYTV   000501041907      000030SUBARU/VARIOUS                                                                                                                                                 
COMYTV   000501041937      000030HIGHWAY ENTERTAINMENT                                                                                                                                          
COMYTV   000501042553      000030KRAFT/WOMEN PERIOD 1                                                                                                                                           
COMYTV   000501042623      000030HIGHWAY/ADULT BART.6                                                                                                                                           
COMYTV   000501042653      000030HIGHWAY/ADULT BART.5                                                                                                                                           
COMYTV   000501042723      000030HIGHWAY/ADULT BART.3                                                                                                                                           
ID YTV   000501043307      000012STATION ID                                                                                                                                                     
PGRYTV   000501043319050020002701DIGIMON                                           ARRIVAL OF SKULL EP16                                                7 38307ECC                              
COMYTV   000501043618      000100P&G/BASE                                                                                                                                                       
COMYTV   000501043718      000030DAIRY FARMERS/CHEESE                                                                                                                                           
COMYTV   000501043748      000030HASBRO CANADA INC.                                                                                                                                             
COMYTV   000501044602      000030SHAW @ HOME/VARIOUS                                                                                                                                            
COMYTV   000501044632      000030DURACELL/CORPORATE/VARIOUS                                                                                                                                     
COMYTV   000501044702      000030CHRISTIE/BITS & BITES                                                                                                                                          
COMYTV   000501044732      000030KELLOGG CANADA INC.                                                                                                                                            
COMYTV   000501045616      000030KRAFT/WOMEN PERIOD 1                                                                                                                                           
COMYTV   000501045646      000100P&G/PRE-EMPTIBLE                                                                                                                                               
COMYTV   000501045746      000030MATTEL CANADA INC.                                                                                                                                             
ID YTV   000501050008      000012STATION ID                                                                                                                                                     
PGRYTV   000501050020052927002907DRAGONBALL Z                                      CALL FOR RESTORATION EP97                                            7 38307ECC                              
COMYTV   000501050126      000100P&G/BASE                                                                                                                                                       
COMYTV   000501050226      000030ROYAL BANK/RBC INSURANCE                                                                                                                                       
COMYTV   000501050256      000030HIGHWAY/ADLT CPA HU4                                                                                                                                           
COMYTV   000501051416      000100P&G/BASE                                                                                                                                                       
COMYTV   000501051516      000030DAIRY FARMERS/CHEESE                                                                                                                                           
COMYTV   000501051546      000015KRAFT/WOMEN :15'S PERIOD 1                                                                                                                                     
COMYTV   000501051601      000015COSMAIR                                                                                                                                                        
COMYTV   000501052610      000015NIVEA CREME/FIRMING LOTION                                                                                                                                     
COMYTV   000501052625      000015AOL/VARIOUS                                                                                                                                                    
COMYTV   000501052640      000030HASBRO CANADA INC.                                                                                                                                             
