PGRYTV   010601060000062434002434ONCE UPON A HAMSTER (I)(#1-26)                    POPCORN                                           HAMMY YTV   C11449 1 35107ACC                              
PRCYTV   010601062419      000015YTV PROMO CONTRACT                                                                                                                                             
PGRYTV   010601062434063004000530MAISY                                             DOG EPS 28                                                           3 38107E                                
ID YTV   010601062952      000012STATION ID                                                                                                                                                     
PGRYTV   010601063004065449002445TURTLE ISLAND                                     CROCCINO'S RESORT EPS 12                                      A35502 1 35107ECC                              
PRCYTV   010601065334      000030YTV PROMO CONTRACT                                                                                                                                             
PRCYTV   010601065404      000030YTV PROMO CONTRACT                                                                                                                                             
PRCYTV   010601065434      000015YTV PROMO CONTRACT                                                                                                                                             
PGRYTV   010601065449070001000512SPOT, ADVENTURES OF                               SPOT GOES TO A PARTY EP20                                            3 38107E                                
ID YTV   010601065949      000012STATION ID                                                                                                                                                     
PGRYTV   010601070001071444001443PANDA BEAR DAYCARE (II)(#1-13)                    PONY TAILS EP20                                   FAUX  YTV   C16769 1 35107ACC                              
ID YTV   010601071431      000012STATION ID                                                                                                                                                     
PGRYTV   010601071444073002001518RUFFUS THE DOG (II)(#1-13)                        PIED PIPER OF HAMLIN EP20                         FAUX  YTV   C16770 1 35107ACC                              
ID YTV   010601072913      000012STATION ID                                                                                                                                                     
PRCYTV   010601072925      000030YTV PROMO CONTRACT                                                                                                                                             
PGRYTV   010601073002075347002345ANTHONY ANT                                       THE PICNIC/RACE AGAINST EP7.                      HIT   YTV   A17792 1 35107ECC                              
PRCYTV   010601075316      000030YTV PROMO CONTRACT                                                                                                                                             
INTYTV   010601075347075846000459SPIDER                                            JUST A SPIDER  EP2                                                   3 381120CC                              
INTYTV   010601075846080000000114MILLENIUM MINUTE                                  COLLETT BOURGONJE                                                    1 371120CC                              
ID YTV   010601075947      000012STATION ID                                                                                                                                                     
PGRYTV   010601080000082430002430KLEO THE MISFIT UNICORN                           THE JESTER AND THE KING EP7                       STANFI      A03938 1 35107ECC                              
PRCYTV   010601082353      000030YTV PROMO CONTRACT                                                                                                                                             
PGRYTV   010601082430083000000530MAISY                                             SWING EPS 29                                                         3 38107E                                
ID YTV   010601082947      000012STATION ID                                                                                                                                                     
PGRYTV   010601083000085252002252GEORGE & MARTHA                                   COLD/CAMP OUT EPS 14.                             NELVAN             1 32107ECC                              
PGRYTV   010601085252090005000713ELLIOT MOOSE                                      SLOW AND STEADY EP29                              NELVAN      A25743 1 35107GCC                              
ID YTV   010601085921      000012STATION ID                                                                                                                                                     
PRCYTV   010601085933      000030YTV PROMO CONTRACT                                                                                                                                             
PGRYTV   010601090005092418002413RUPERT                                            EPS 52-RUPERT'S CHRISTMAS ADV                     NELVANYTV   P21128 1 35107ECC                              
PGRYTV   010601092418092958000540PABLO THE LITTLE RED FOX                          PUMPKIN'S BIG VOICE EPS 35                                           3 38107ECC                              
ID YTV   010601092924      000012STATION ID                                                                                                                                                     
PRCYTV   010601092936      000015YTV PROMO CONTRACT                                                                                                                                             
PGRYTV   010601092958094513001515ST. BEAR'S DOLLS HOSPITAL                         T.E. PHONES HOMES EP36                            MARIONYTV   A18010 1 35107GCC                              
PRCYTV   010601094427      000030YTV PROMO CONTRACT                                                                                                                                             
PRCYTV   010601094457      000015YTV PROMO CONTRACT                                                                                                                                             
PGRYTV   010601094513100001001448BEEZOO'S ATTIC (I)(1996, #1-39)                   MELODY LOSES HER VOICE EP25                       MEDIA       C13447 1 35107ACC                              
ID YTV   010601095947      000012STATION ID                                                                                                                                                     
PGRYTV   010601100001102501002500PACHA ET LES CHATS (IV)                           A LITTLE HELP/MISTER EP 124                       PRISMA      C10987 1 15107A                                
PGRYTV   010601102501103001000500FUZZPAWS                                          MAGIC PORRIDGE POT EP88                                              1 31107BCC                              
ID YTV   010601102948      000012STATION ID                                                                                                                                                     
PGRYTV   010601103001105319002318BABAR SERIES                                      THE RHINO WAR EPS 21                              NELVAN      C07575 1 32107ECC                              
INTYTV   010601105319105650000331NANALAN'                                          TUBE EP15                                                            1 351120                                
PRCYTV   010601105619      000030YTV PROMO CONTRACT                                                                                                                                             
INTYTV   010601105650110003000313PLONSTERS                                         EPS 1                                                                7 381120                                
ID YTV   010601105950      000012STATION ID                                                                                                                                                     
PGRYTV   010601110003111445001442PANDA BEAR DAYCARE (II)(#1-13)                    PONY TAILS EP20                                   FAUX  YTV   C16769 1 35107ACC                              
ID YTV   010601111432      000012STATION ID                                                                                                                                                     
PGRYTV   010601111445112958001513RUFFUS THE DOG (II)(#1-13)                        PIED PIPER OF HAMLIN EP20                         FAUX  YTV   C16770 1 35107ACC                              
ID YTV   010601112914      000012STATION ID                                                                                                                                                     
PRCYTV   010601112926      000030YTV PROMO CONTRACT                                                                                                                                             
PGRYTV   010601112958115449002451ANTHONY ANT                                       THE PICNIC/RACE AGAINST EP7.                      HIT   YTV   A17792 1 35107ECC                              
PRCYTV   010601115311      000030YTV PROMO CONTRACT                                                                                                                                             
PRCYTV   010601115341      000030YTV PROMO CONTRACT                                                                                                                                             
PRCYTV   010601115411      000030YTV PROMO CONTRACT                                                                                                                                             
PGRYTV   010601115449120005000516SPIDER                                            IN MY TENT  EP3                                                      3 38107ECC                              
ID YTV   010601115946      000012STATION ID                                                                                                                                                     
SPOYTV   010601115958      000005KELLOGG/VARIOUS KIDS                                                                                                                                           
PGRYTV   010601120005123006003001SAILOR MOON                                       CRYSTAL CLEAR AGAIN EP84                                      D01864 7 38307ECC2                             
COMYTV   010601120201      000030MCDONALDS/HAPPY MEAL                                                                                                                                           
COMYTV   010601120231      000030GENERAL MILLS/TRADITIONAL CHIL                                                                                                                                 
PROYTV   010601120301      000030YTV PROMO CONTRACT                                                                                                                                             
PROYTV   010601120331      000030YTV PROMO CONTRACT                                                                                                                                             
PROYTV   010601120401      000030YTV PROMO CONTRACT                                                                                                                                             
COMYTV   010601121339      000030KIDS :30'S PERIOD 2/KRAFT                                                                                                                                      
COMYTV   010601121409      000030THE PSYKOBLAST TOUR/CO-MARKETI                                                                                                                                 
COMYTV   010601121439      000030HASBRO/VARIOUS - SPRING                                                                                                                                        
COMYTV   010601121509      000030KELLOGG/VARIOUS KIDS                                                                                                                                           
PRCYTV   010601121539      000030YTV PROMO CONTRACT                                                                                                                                             
COMYTV   010601122644      000030KELLOGG/VARIOUS KIDS                                                                                                                                           
COMYTV   010601122714      000030ATLANTIS ATL 104/BUENA VISTA P                                                                                                                                 
PRCYTV   010601122744      000030YTV PROMO CONTRACT                                                                                                                                             
PRCYTV   010601122814      000030YTV PROMO CONTRACT                                                                                                                                             
PRCYTV   010601122844      000030YTV PROMO CONTRACT                                                                                                                                             
ID YTV   010601122951      000012STATION ID                                                                                                                                                     
PGRYTV   010601123006125850002844UH OH!                                            EPS 147                                                              1 313100CC                              
COMYTV   010601123330      000030GENERAL MILLS/TRADITIONAL CHIL                                                                                                                                 
COMYTV   010601123400      000030DREAMWORKS/SHREK-HOLDOVER 2                                                                                                                                    
PRCYTV   010601123430      000030YTV PROMO CONTRACT                                                                                                                                             
COMYTV   010601124153      000030YTV COMKTG/KELLOGG/DISNEY/ATLA                                                                                                                                 
COMYTV   010601124223      000030MCDONALDS/HAPPY MEAL                                                                                                                                           
PROYTV   010601124253      000030YTV PROMO/ON-AIR PROMOTION                                                                                                                                     
COMYTV   010601124323      000030KELLOGG/VARIOUS KIDS                                                                                                                                           
PROYTV   010601124353      000030YTV PROMO CONTRACT                                                                                                                                             
COMYTV   010601125035      000030KIDS :30'S PERIOD 2/KRAFT                                                                                                                                      
COMYTV   010601125105      000030HASBRO/VARIOUS - SPRING                                                                                                                                        
PROYTV   010601125135      000030YTV PROMO CONTRACT                                                                                                                                             
INTYTV   010601125850130002000112STICKIN' AROUND                                   JUMBO FRANK                                                          1 351120CC                              
ID YTV   010601125947      000012STATION ID                                                                                                                                                     
PGRYTV   010601130002132503002501KITTY CATS (III)                                  IMPORTANT VISIT/WET BLANKET                       PRISMA      C10316 1 35107A                                
PGRYTV   010601132503133003000500FUZZPAWS                                          TOO MUCH OF A GOOD SING EP89                                         1 31107BCC                              
ID YTV   010601132948      000012STATION ID                                                                                                                                                     
PGRYTV   010601133003135316002313BABAR SERIES                                      THE RHINO WAR EPS 21                              NELVAN      C07575 1 32107ECC                              
INTYTV   010601135316135551000235ARTIFACTS                                         FLUTES EP13                                                          1 351120                                
PRCYTV   010601135513      000030YTV PROMO CONTRACT                                                                                                                                             
INTYTV   010601135551140004000413JUDY & DAVID'S BOOM BOX                           APPLE JUICE EPS 13                                                   1 311120                                
ID YTV   010601135949      000012STATION ID                                                                                                                                                     
PGRYTV   010601140004141519001515ST. BEAR'S DOLLS HOSPITAL                         T.E. PHONES HOMES EP36                            MARIONYTV   A18010 1 35107GCC                              
PRCYTV   010601141431      000030YTV PROMO CONTRACT                                                                                                                                             
PRCYTV   010601141501      000015YTV PROMO CONTRACT                                                                                                                                             
PGRYTV   010601141519143012001453BEEZOO'S ATTIC (I)(1996, #1-39)                   MELODY LOSES HER VOICE EP25                       MEDIA       C13447 1 35107ACC                              
ID YTV   010601142951      000012STATION ID                                                                                                                                                     
SPOYTV   010601143003      000005TOPP'S/PUSH POP                                                                                                                                                
PGRYTV   010601143012145204002152ANATOLE                                           SEWER RATS EP2.                                   NELVANYTV   A25667 1 35107ECC                              
PRCYTV   010601145145      000015YTV PROMO CONTRACT                                                                                                                                             
INTYTV   010601145204145549000345CHIP 'N' ORBIT                                    EPISODE 17                                                           1 311120CC                              
INTYTV   010601145549150004000415MAMEMO                                            ALL BY MYSELF                                                        7 381120                                
ID YTV   010601145948      000012STATION ID                                                                                                                                                     
PGRYTV   010601150004153000002956STICKIN' AROUND                                   HOLD IT/JOURNEY EP15                              NELVANYTV   A10441 1 35307ECC                              
COMYTV   010601150106      000030KIDS :30'S PERIOD 2/KRAFT                                                                                                                                      
COMYTV   010601150136      000030WENDY'S/KIDS MEALS                                                                                                                                             
PROYTV   010601150206      000030YTV PROMO CONTRACT                                                                                                                                             
PROYTV   010601150236      000015YTV PROMO CONTRACT                                                                                                                                             
COMYTV   010601151326      000030KRAFT/REVISED :15'S TO :30'S                                                                                                                                   
COMYTV   010601151356      000030HASBRO/VARIOUS - SPRING                                                                                                                                        
COMYTV   010601151426      000030KELLOGG/VARIOUS KIDS                                                                                                                                           
COMYTV   010601151456      000030YTV COMKTG/KELLOGG/DISNEY/ATLA                                                                                                                                 
PROYTV   010601151526      000030YTV PROMO CONTRACT                                                                                                                                             
COMYTV   010601152636      000030ATLANTIS ATL 104/BUENA VISTA P                                                                                                                                 
COMYTV   010601152706      000030GENERAL MILLS/BARTER                                                                                                                                           
PRCYTV   010601152736      000030YTV PROMO CONTRACT                                                                                                                                             
ID YTV   010601152948      000012STATION ID                                                                                                                                                     
PGRYTV   010601153000155846002846UH OH!                                            EPS 155                                                              1 313100CC                              
COMYTV   010601153321      000030KRAFT/REVISED :15'S TO :30'S                                                                                                                                   
COMYTV   010601153351      000030HASBRO/VARIOUS - SPRING                                                                                                                                        
COMYTV   010601154053      000030THE PSYKOBLAST TOUR/CO-MARKETI                                                                                                                                 
COMYTV   010601154123      000030WENDY'S/KIDS MEALS                                                                                                                                             
COMYTV   010601154153      000030HASBRO/VARIOUS - SPRING                                                                                                                                        
COMYTV   010601154223      000030WESTON BAKER/WONDER HOTS/HAMS                                                                                                                                  
PROYTV   010601154253      000030YTV PROMO CONTRACT                                                                                                                                             
COMYTV   010601154922      000030NESTLE/NESQUIK-BARTER                                                                                                                                          
COMYTV   010601154952      000030DREAMWORKS/SHREK-HOLDOVER 2                                                                                                                                    
PRCYTV   010601155022      000030YTV PROMO CONTRACT                                                                                                                                             
INTYTV   010601155846160002000116PROGRAM JOCKEY                                    PROGRAM JOCKEY                                                       1 213120                                
ID YTV   010601155948      000012STATION ID                                                                                                                                                     
PGRYTV   010601160002162756002754RUGRATS                                           SUPERHERO CHUCKIE/THE DOG                                            2 38307ECC                              
SPOYTV   010601160801      000010THE WONDER BRAND                                                                                                                                               
COMYTV   010601160811      000030WESTON BAKER/WONDER HOTS/HAMS                                                                                                                                  
COMYTV   010601160841      000030MATTEL/SUMMPER PTF                                                                                                                                             
COMYTV   010601161317      000030KIDS :30'S PERIOD 2/KRAFT                                                                                                                                      
COMYTV   010601161347      000030WENDY'S/KIDS MEALS                                                                                                                                             
COMYTV   010601161417      000030NINTENDO/MI:MARIO PARTY 3                                                                                                                                      
COMYTV   010601161447      000030GENERAL MILLS/TRADITIONAL CHIL                                                                                                                                 
COMYTV   010601162052      000015TOPP'S/PUSH POP                                                                                                                                                
COMYTV   010601162107      000015DREAMWORKS/SHREK-HOLDOVER 2                                                                                                                                    
COMYTV   010601162122      000030KIDS :30'S PERIOD 2/KRAFT                                                                                                                                      
PROYTV   010601162152      000015YTV PROMO CONTRACT                                                                                                                                             
INTYTV   010601162756163005000209PROGRAM JOCKEY                                    PROGRAM JOCKEY                                                       1 213120                                
ID YTV   010601162948      000012STATION ID                                                                                                                                                     
PGRYTV   010601163005165743002738HEY ARNOLD                                        GAME/FISHING TRIP EP82                                               2 38307ECC                              
COMYTV   010601163053      000030KIDS :30'S PERIOD 2/KRAFT                                                                                                                                      
COMYTV   010601163123      000030YTV EVENT/HASBRO WOW SUPERSOAK                                                                                                                                 
COMYTV   010601164300      000030HASBRO/VARIOUS - SPRING                                                                                                                                        
COMYTV   010601164330      000030GENERAL MILLS/BARTER                                                                                                                                           
COMYTV   010601164400      000030YTV COMKTG/KELLOGG/DISNEY/ATLA                                                                                                                                 
COMYTV   010601164430      000030KELLOGG/VARIOUS KIDS                                                                                                                                           
COMYTV   010601165011      000030HIGHWAY ENT/AD CPA HU 2                                                                                                                                        
COMYTV   010601165041      000030HASBRO/VARIOUS - SPRING                                                                                                                                        
PROYTV   010601165111      000030YTV PROMO CONTRACT                                                                                                                                             
INTYTV   010601165743170004000221PROGRAM JOCKEY                                    PROGRAM JOCKEY                                                       1 213120                                
ID YTV   010601165948      000012STATION ID                                                                                                                                                     
SPOYTV   010601170000      000005KELLOGG/VARIOUS KIDS                                                                                                                                           
PGRYTV   010601170004172724002720POKEMON                                           CHIKORITA RESCUE EP125                                               7 38307ECC                              
COMYTV   010601170113      000015TOPP'S/TRIPLE POWER PUSH POP                                                                                                                                   
COMYTV   010601170128      000015ATLANTIS ATL 104/BUENA VISTA P                                                                                                                                 
COMYTV   010601170143      000030MATTEL/SUMMPER PTF                                                                                                                                             
COMYTV   010601171218      000030HIGHWAY ENT./OETKER                                                                                                                                            
COMYTV   010601171248      000030YTV EVENT/L'OREAL KIDS WOW'01                                                                                                                                  
COMYTV   010601171318      000030GENERAL MILLS/BARTER                                                                                                                                           
COMYTV   010601171348      000030HASBRO/VARIOUS - SPRING                                                                                                                                        
PROYTV   010601171418      000030YTV PROMO CONTRACT                                                                                                                                             
COMYTV   010601172518      000030NESTLE/NESQUIK                                                                                                                                                 
COMYTV   010601172548      000030YTV COMKTG/KELLOGG/DISNEY/ATLA                                                                                                                                 
INTYTV   010601172724172959000235PROGRAM JOCKEY                                    PROGRAM JOCKEY                                                       1 213120                                
ID YTV   010601172948      000012STATION ID                                                                                                                                                     
PGRYTV   010601172959175620002621DIGIMON                                           SPIRIT NEEDLE EP79                                                   7 38307ECC                              
SPOYTV   010601173637      000010QUAKER/GATORADE                                                                                                                                                
COMYTV   010601173647      000030QUAKER/GATORADE                                                                                                                                                
COMYTV   010601173717      000030ATLANTIS ATL 104/BUENA VISTA P                                                                                                                                 
PROYTV   010601173747      000030YTV PROMO CONTRACT                                                                                                                                             
COMYTV   010601174333      000030GENERAL MILLS/TRADITIONAL CHIL                                                                                                                                 
COMYTV   010601174403      000015SONY ENT/ANIMAL                                                                                                                                                
COMYTV   010601174418      000015TOPP'S/PUSH POP                                                                                                                                                
COMYTV   010601174433      000030HASBRO/VARIOUS - SPRING                                                                                                                                        
COMYTV   010601174503      000030KELLOGG/VARIOUS KIDS                                                                                                                                           
PROYTV   010601174533      000030YTV PROMO CONTRACT                                                                                                                                             
COMYTV   010601175327      000030DREAMWORKS/EVOLUTION                                                                                                                                           
COMYTV   010601175357      000030KIDS :30'S PERIOD 2/KRAFT                                                                                                                                      
PROYTV   010601175427      000015YTV PROMO CONTRACT                                                                                                                                             
INTYTV   010601175620180005000345PROGRAM JOCKEY                                    PROGRAM JOCKEY                                                       1 213120                                
ID YTV   010601175948      000012STATION ID                                                                                                                                                     
SPOYTV   010601180000      000005CARA OPS./SWISS CHALET                                                                                                                                         
PGRYTV   010601180005181443001438GENERATION O!                                     LOOK ALIKE EP8                                                       2 38307ECC                              
SPOYTV   010601180111      000010KRAFT/IBID CLOSED CAPTIONING                                                                                                                                   
COMYTV   010601180121      000030GENERAL MILLS/TRADITIONAL CHIL                                                                                                                                 
COMYTV   010601180151      000030ACTIVISION/MATT HOFFMAN PROBMX                                                                                                                                 
COMYTV   010601180221      000015YTV CO-MKTG/BFPM2-HEAVY-UP                                                                                                                                     
COMYTV   010601180236      000030KELLOGG/VARIOUS KIDS                                                                                                                                           
COMYTV   010601180306      000015J&J/CLEAN & CLEAR                                                                                                                                              
PRCYTV   010601180321      000030YTV PROMO CONTRACT                                                                                                                                             
PRCYTV   010601180351      000015YTV PROMO CONTRACT                                                                                                                                             
COMYTV   010601181313      000030ATLANTIS ATL 104/BUENA VISTA P                                                                                                                                 
COMYTV   010601181343      000030KIDS :30'S PERIOD 2/KRAFT                                                                                                                                      
COMYTV   010601181413      000030MAZDA/MVP                                                                                                                                                      
PSAYTV   010601181443181513000030NATIONAL KIDS DAY/2001                                                                                                 1 000130                                
PGRYTV   010601181513183000001447GENERATION O!                                     LOOK ALIKE EP8                                                       2 38307ECC                              
PRCYTV   010601181513      000030YTV PROMO CONTRACT                                                                                                                                             
PRCYTV   010601181543      000015YTV PROMO CONTRACT                                                                                                                                             
COMYTV   010601182455      000030NESTLE/NESQUIK                                                                                                                                                 
COMYTV   010601182525      000030DREAMWORKS/EVOLUTION                                                                                                                                           
COMYTV   010601182555      000030KIDS :30'S PERIOD 2/KRAFT                                                                                                                                      
COMYTV   010601182625      000030THE PSYKOBLAST TOUR/CO-MARKETI                                                                                                                                 
PRCYTV   010601182655      000030YTV PROMO CONTRACT                                                                                                                                             
PRCYTV   010601182725      000015YTV PROMO CONTRACT                                                                                                                                             
SPOYTV   010601182943      000005CARA OPS./SWISS CHALET                                                                                                                                         
ID YTV   010601182948      000012STATION ID                                                                                                                                                     
PGRYTV   010601183000200000013000YTV'S HIT LIST                                    EPS 10-37                                                            1 21308CCC                              
COMYTV   010601183545      000030NINTENDO/MI:MARIO PARTY 3                                                                                                                                      
COMYTV   010601183615      000030HIGHWAY ENT/AD CPA HU 2                                                                                                                                        
COMYTV   010601183645      000030BMG MUSIC/DIDO                                                                                                                                                 
COMYTV   010601183715      000030KELLOGG/VARIOUS KIDS                                                                                                                                           
PRCYTV   010601183745      000030YTV PROMO CONTRACT                                                                                                                                             
COMYTV   010601184721      000030ROGERS VIDEO                                                                                                                                                   
COMYTV   010601184751      000030KELLOGG/RICE KRISPIES                                                                                                                                          
COMYTV   010601184821      000030K CLARK/HUGGIES                                                                                                                                                
COMYTV   010601184851      000030QUAKER/GATORADE                                                                                                                                                
COMYTV   010601190111      000030KRAFT WOMEN:JELLO RRTE-ADD ON                                                                                                                                  
COMYTV   010601190141      000030ATLANTIS ATL 104/BUENA VISTA P                                                                                                                                 
COMYTV   010601190211      000030P&G/PRINGLES                                                                                                                                                   
COMYTV   010601190241      000015J&J/CLEAN & CLEAR                                                                                                                                              
COMYTV   010601190256      000015SONY MUSIC/JESSICA SIMPSON                                                                                                                                     
PRCYTV   010601190311      000015YTV PROMO CONTRACT                                                                                                                                             
COMYTV   010601190929      000030THE PSYKOBLAST TOUR/CO-MARKETI                                                                                                                                 
COMYTV   010601190959      000030KIDS :30'S PERIOD 2/KRAFT                                                                                                                                      
COMYTV   010601191029      000100NINTENDO/BA ADVANCE PRE-LAUNCH                                                                                                                                 
COMYTV   010601192024      000030KELLOGG/RICE KRISPIES                                                                                                                                          
COMYTV   010601192054      000015J&J/CLEAN & CLEAR                                                                                                                                              
COMYTV   010601192109      000015SONY MUSIC/JESSICA SIMPSON                                                                                                                                     
COMYTV   010601192124      000030HIGHWAY ENT/AD CPA HU 4                                                                                                                                        
COMYTV   010601192154      000030HIGHWAY ENT/ADULTS CPA 2                                                                                                                                       
COMYTV   010601192819      000030NINTENDO/ZELDA                                                                                                                                                 
COMYTV   010601192849      000030WENDY'S/KIDS MEALS                                                                                                                                             
COMYTV   010601192919      000030GILLETTE/VENUS                                                                                                                                                 
COMYTV   010601192949      000030MOTT'S/WELCHES GRAPE                                                                                                                                           
COMYTV   010601193548      00001520TH CENTURY/MOULIN ROUGE                                                                                                                                      
COMYTV   010601193603      000030YTV COMKTG/KELLOGG/DISNEY/ATLA                                                                                                                                 
COMYTV   010601193633      000015J&J/CLEAN & CLEAR                                                                                                                                              
COMYTV   010601193648      000030NABISCO/CORN NUTS                                                                                                                                              
COMYTV   010601193718      000030KIDS :30'S PERIOD 2/KRAFT                                                                                                                                      
COMYTV   010601194309      000030GENERAL MILLS/TRADITIONAL CHIL                                                                                                                                 
COMYTV   010601194339      000030RECKITT BENKISER/NEET                                                                                                                                          
COMYTV   010601194409      000030SCOTT PAPER/SCOTT TOWELS                                                                                                                                       
COMYTV   010601194439      000030KELLOGG/VARIOUS KIDS                                                                                                                                           
COMYTV   010601195219      000030NABISCO/CORN NUTS                                                                                                                                              
COMYTV   010601195249      000030DAIRY FARMERS/VARIOUS                                                                                                                                          
COMYTV   010601195319      000030ROGERS AT&T/PROJECT FOUNTAIN                                                                                                                                   
COMYTV   010601195349      000030THE PSYKOBLAST TOUR/CO-MARKETI                                                                                                                                 
ID YTV   010601195948      000012STATION ID                                                                                                                                                     
PGRYTV   010601200000203001003001MAKING THE BAND                                   EPS 24                                                               2 383110CC                              
COMYTV   010601200623      000015SONY MUSIC/JESSICA SIMPSON                                                                                                                                     
COMYTV   010601200638      000030ROGERS AT&T/PROJECT FOUNTAIN                                                                                                                                   
COMYTV   010601200708      00001520TH CENTURY/MOULIN ROUGE                                                                                                                                      
COMYTV   010601200723      000030P&G/OLAY DAILY FACIAL CLEANSER                                                                                                                                 
COMYTV   010601200753      000030RECKITT BENKISER/NEET                                                                                                                                          
PRCYTV   010601200823      000030YTV PROMO CONTRACT                                                                                                                                             
PRCYTV   010601200853      000015YTV PROMO CONTRACT                                                                                                                                             
COMYTV   010601201928      000030O-TOWN TOUR/HOUSE OF BLUES                                                                                                                                     
COMYTV   010601201958      000030NABISCO/CORN NUTS                                                                                                                                              
COMYTV   010601202028      000030L'OREAL CANADA/MAYBELLINE                                                                                                                                      
COMYTV   010601202058      000030BMG MUSIC/DIDO                                                                                                                                                 
PRCYTV   010601202128      000030YTV PROMO CONTRACT                                                                                                                                             
PRCYTV   010601202158      000015YTV PROMO CONTRACT                                                                                                                                             
COMYTV   010601202634      000015SONY MUSIC/JESSICA SIMPSON                                                                                                                                     
COMYTV   010601202649      00003020TH CENTURY/MOULIN ROUGE                                                                                                                                      
COMYTV   010601202719      000030LIPTON/BRISK ICED TEA                                                                                                                                          
COMYTV   010601202749      000030P&G/PRINGLES                                                                                                                                                   
COMYTV   010601202819      000015SONY ENT/ANIMAL                                                                                                                                                
PRCYTV   010601202834      000030YTV PROMO CONTRACT                                                                                                                                             
PRCYTV   010601202904      000015YTV PROMO CONTRACT                                                                                                                                             
ID YTV   010601202948      000012STATION ID                                                                                                                                                     
PGRYTV   010601203001210000002959ALL ACCESS SPECIAL                                SEVEN CITIES, 10 DAYS PT2                                            1 31308ACC                              
COMYTV   010601203718      000015YTV CO-MKTG/BFPM2-HEAVY-UP                                                                                                                                     
COMYTV   010601203733      000015J&J/CLEAN & CLEAR                                                                                                                                              
COMYTV   010601203748      000030P&G/PRINGLES                                                                                                                                                   
COMYTV   010601203818      000030KRAFT/REVISED :15'S TO :30'S                                                                                                                                   
COMYTV   010601203848      000030SCHERING PLOUGH/CCB                                                                                                                                            
PRCYTV   010601203918      000015YTV PROMO CONTRACT                                                                                                                                             
COMYTV   010601204705      000030QUAKER/GATORADE                                                                                                                                                
COMYTV   010601204735      000030GENERAL MILLS/TRADITIONAL CHIL                                                                                                                                 
COMYTV   010601204805      000015YTV CO-MKTG/BFPM2-HEAVY-UP                                                                                                                                     
COMYTV   010601204820      000015J&J/NEUTROGENA ACNE                                                                                                                                            
COMYTV   010601204835      000030MATTEL/SUMMER 2001 CORPORATE                                                                                                                                   
PRCYTV   010601204905      000030YTV PROMO CONTRACT                                                                                                                                             
COMYTV   010601205334      000030NABISCO/CORN NUTS                                                                                                                                              
COMYTV   010601205404      000015THE WONDER BRAND                                                                                                                                               
COMYTV   010601205419      000015INTL HOME FOODS/PAM                                                                                                                                            
COMYTV   010601205434      000030KELLOGG/VARIOUS KIDS                                                                                                                                           
COMYTV   010601205504      000030NESTLE/NESQUIK-BARTER                                                                                                                                          
ID YTV   010601205948      000012STATION ID                                                                                                                                                     
PGRYTV   010601210000213011003011CRUSH                                             LUKE/MATT EPS 37                                                     2 383100CC                              
COMYTV   010601210738      000030HIGHWAY ENT/AD CPA HU 3                                                                                                                                        
COMYTV   010601210808      000030RECKITT BENKISER/NEET                                                                                                                                          
COMYTV   010601210838      000030P&G/PRINGLES                                                                                                                                                   
COMYTV   010601210908      000015SONY MUSIC/JESSICA SIMPSON                                                                                                                                     
COMYTV   010601210923      000015TRICON/KFC:15'S                                                                                                                                                
COMYTV   010601211340      000030NABISCO/CORN NUTS                                                                                                                                              
COMYTV   010601211410      000030COCA-COLA/COCA-COLA                                                                                                                                            
COMYTV   010601211440      000030HIGHWAY ENT/AD CPA HU 1                                                                                                                                        
COMYTV   010601211510      000030THE PSYKOBLAST TOUR/CO-MARKETI                                                                                                                                 
PRCYTV   010601211540      000030YTV PROMO CONTRACT                                                                                                                                             
COMYTV   010601212347      00001520TH CENTURY/MOULIN ROUGE                                                                                                                                      
COMYTV   010601212402      000030P&G/PRINGLES                                                                                                                                                   
COMYTV   010601212432      000030NABISCO/MELTING MOMENTS                                                                                                                                        
COMYTV   010601212502      000015SONY MUSIC/JESSICA SIMPSON                                                                                                                                     
COMYTV   010601212517      000030COCA-COLA/SPRITE                                                                                                                                               
PRCYTV   010601212547      000030YTV PROMO CONTRACT                                                                                                                                             
ID YTV   010601212948      000012STATION ID                                                                                                                                                     
SPOYTV   010601213006      000005PEPSI/CHART ATTACK SPONSORSHIP                                                                                                                                 
PGRYTV   010601213011223012010001CHART ATTACK!                                     EPS 36                                                               1 21308CCC                              
COMYTV   010601213839      000015SONY MUSIC/JESSICA SIMPSON                                                                                                                                     
COMYTV   010601213854      000015GREYHOUND/CANADA/CORPORATE                                                                                                                                     
COMYTV   010601213909      000030PEPSI:CHART ATTACK SPONSORSHIP                                                                                                                                 
COMYTV   010601213939      000030HIGHWAY ENT/AD CPA HU 4                                                                                                                                        
COMYTV   010601214009      000030NABISCO/CORN NUTS                                                                                                                                              
COMYTV   010601214932      000030PEPSI:CHART ATTACK SPONSORSHIP                                                                                                                                 
COMYTV   010601215002      000030HIGHWAY ENT/AD CPA HU 3                                                                                                                                        
COMYTV   010601215032      00003020TH CENTURY/MOULIN ROUGE                                                                                                                                      
COMYTV   010601215102      000030HOSTESS/F-L/DORITOS                                                                                                                                            
COMYTV   010601215132      000030NESTLE/PREMIUM PACKAGED ICE CR                                                                                                                                 
COMYTV   010601215859      000030PEPSICO                                                                                                                                                        
COMYTV   010601215929      000100P&G/BASE WINTER/SPRING/SUMMER                                                                                                                                  
COMYTV   010601220029      000030THE PSYKOBLAST TOUR/CO-MARKETI                                                                                                                                 
COMYTV   010601220059      000030HIGHWAY ENT.PT BARTER                                                                                                                                          
COMYTV   010601221026      000030PEPSI:CHART ATTACK SPONSORSHIP                                                                                                                                 
COMYTV   010601221056      000030DREAMWORKS/EVOLUTION                                                                                                                                           
COMYTV   010601221126      000030HIGHWAY ENT/ADULTS CPA 2                                                                                                                                       
COMYTV   010601221156      000100P&G/BASE WINTER/SPRING/SUMMER                                                                                                                                  
COMYTV   010601222225      000030HOSTESS/F-L/DORITOS                                                                                                                                            
COMYTV   010601222255      000030K CLARK/KOTEX                                                                                                                                                  
COMYTV   010601222325      000015TRICON/KFC:15'S                                                                                                                                                
COMYTV   010601222340      000015SONY MUSIC/JESSICA SIMPSON                                                                                                                                     
COMYTV   010601222355      000030ROGERS AT&T/PROJECT FOUNTAIN                                                                                                                                   
COMYTV   010601222425      000030SCHERING PLOUGH/CCB                                                                                                                                            
SPOYTV   010601222954      000005PEPSI/CHART ATTACK SPONSORSHIP                                                                                                                                 
ID YTV   010601222959      000012STATION ID                                                                                                                                                     
PGRYTV   010601223012230000002948BIG WOLF ON CAMPUS                                IMAGINARY FRIEND EP30                             TELESCYTV   A45070 1 35307BCC                              
COMYTV   010601223916      000030HIGHWAY ENT/ADULTS CPA 1                                                                                                                                       
COMYTV   010601223946      000030MOTT'S/WELCHES GRAPE                                                                                                                                           
COMYTV   010601224016      000030HIGHWAY ENT.PT BARTER                                                                                                                                          
COMYTV   010601224046      000030NABISCO/MELTING MOMENTS                                                                                                                                        
PRCYTV   010601224123      000030YTV PROMO CONTRACT                                                                                                                                             
COMYTV   010601224734      000030K CLARK/PULL UPS                                                                                                                                               
COMYTV   010601224804      000015GREYHOUND/CANADA/CORPORATE                                                                                                                                     
COMYTV   010601224819      000015INTL HOME FOODS/PAM                                                                                                                                            
COMYTV   010601224834      000030SHOPPERS DRUG MART/SDM BRAND                                                                                                                                   
COMYTV   010601224904      000030QUAKER/GATORADE                                                                                                                                                
PRCYTV   010601224934      000030YTV PROMO CONTRACT                                                                                                                                             
COMYTV   010601225547      000030HIGHWAY ENT/AD CPA HU 2                                                                                                                                        
COMYTV   010601225617      000030PEPSICO/TOSTITOS-B                                                                                                                                             
COMYTV   010601225647      000030HIGHWAY ENT/WM CPA HU                                                                                                                                          
COMYTV   010601225717      000030HIGHWAY ENT/ADULTS CPA 2                                                                                                                                       
PRCYTV   010601225747      000030YTV PROMO CONTRACT                                                                                                                                             
ID YTV   010601225948      000012STATION ID                                                                                                                                                     
PGRYTV   010601230000233001003001STUDENT BODIES                                    DEAD MEN DON'T WEAR PLAID EP54                    STUDEN      A50792 1 35307ACC                              
COMYTV   010601230231      000030HIGHWAY ENT/AD CPA HU 4                                                                                                                                        
COMYTV   010601230301      000030HIGHWAY ENT/AD CPA HU 1                                                                                                                                        
COMYTV   010601230331      000030K CLARK/PULL UPS                                                                                                                                               
COMYTV   010601230401      000030COCA-COLA/COCA-COLA                                                                                                                                            
COMYTV   010601231223      000030MAZDA/MVP                                                                                                                                                      
COMYTV   010601231253      000030NINTENDO/BA ADVANCE PRE-LAUNCH                                                                                                                                 
COMYTV   010601231323      000030K CLARK/HUGGIES                                                                                                                                                
COMYTV   010601231353      000030PEPSICO/MOUNTAIN DEW                                                                                                                                           
COMYTV   010601232521      000030COCA-COLA/SPRITE                                                                                                                                               
COMYTV   010601232551      000030AOL/ON-LINE                                                                                                                                                    
COMYTV   010601232621      000030HIGHWAY ENT/ADULTS CPA 1                                                                                                                                       
COMYTV   010601232651      000030HIGHWAY ENT/AD CPA HU 4                                                                                                                                        
PRCYTV   010601232721      000030YTV PROMO CONTRACT                                                                                                                                             
ID YTV   010601232948      000012STATION ID                                                                                                                                                     
PGRYTV   010601233001000030003029GAMERZ                                            EP 34                                                                1 31305BCC                              
COMYTV   010601233508      000030HIGHWAY ENT/BARTER 5                                                                                                                                           
COMYTV   010601233538      000100P&G/BASE WINTER/SPRING/SUMMER                                                                                                                                  
COMYTV   010601233638      000030HIGHWAY ENT/ADULTS CPA 2                                                                                                                                       
COMYTV   010601234318      000100P&G/BASE WINTER/SPRING/SUMMER                                                                                                                                  
COMYTV   010601234418      000030CARPET&ROOM DEODORIZER/CHURCH&                                                                                                                                 
COMYTV   010601234448      000030PARMALAT/ASTRO YOGURT                                                                                                                                          
PRCYTV   010601234518      000015YTV PROMO CONTRACT                                                                                                                                             
COMYTV   010601235230      000100P&G/BASE WINTER/SPRING/SUMMER                                                                                                                                  
COMYTV   010601235330      000030CARPET&ROOM DEODORIZER/CHURCH&                                                                                                                                 
COMYTV   010601235400      000030HIGHWAY ENT/BARTER 3                                                                                                                                           
PRCYTV   010601235430      000030YTV PROMO CONTRACT                                                                                                                                             
ID YTV   010601235948      000012STATION ID                                                                                                                                                     
PGRYTV   010601000030003022002952DARIA                                             PSYCHO THERAPY EP47                                                  2 38307ECC                              
SPOYTV   010601000748      000010SCOTT PAPER/SCOTT TOWELS                                                                                                                                       
COMYTV   010601000758      000030SCOTT PAPER/SCOTT TOWELS                                                                                                                                       
COMYTV   010601000828      000030SCHERING PLOUGH/CCB                                                                                                                                            
COMYTV   010601000858      000100P&G/BASE WINTER/SPRING/SUMMER                                                                                                                                  
COMYTV   010601001503      000030CARPET&ROOM DEODORIZER/CHURCH&                                                                                                                                 
COMYTV   010601001533      000030NABISCO/CORN NUTS                                                                                                                                              
COMYTV   010601001603      000030PARMALAT/ASTRO YOGURT                                                                                                                                          
COMYTV   010601001633      000030HIGHWAY ENT/BARTER 3                                                                                                                                           
COMYTV   010601002245      000030HIGHWAY ENT/ADULTS CPA 2                                                                                                                                       
COMYTV   010601002315      000030SCHERING PLOUGH/CCB                                                                                                                                            
COMYTV   010601002345      000030MOTT'S/WELCHES GRAPE                                                                                                                                           
COMYTV   010601002415      000030CHRYSLER/BRAND                                                                                                                                                 
COMYTV   010601002445      000030HIGHWAY ENT/BARTER 5                                                                                                                                           
ID YTV   010601003004      000012STATION ID                                                                                                                                                     
PGRYTV   010601003022010004002942DOWNTOWN                                          JERSEY EP12                                                          2 38307ECC                              
COMYTV   010601003059      000030ROGERS VIDEO                                                                                                                                                   
COMYTV   010601003129      000030CHRYSLER/BRAND                                                                                                                                                 
COMYTV   010601003159      000030NESTLE/PREMIUM PACKAGED ICE CR                                                                                                                                 
COMYTV   010601003229      000030HIGHWAY ENT/BARTER 5                                                                                                                                           
COMYTV   010601004008      000030NABISCO/CORN NUTS                                                                                                                                              
COMYTV   010601004038      000030MOTT'S/WELCHES GRAPE                                                                                                                                           
COMYTV   010601004108      000030CARPET&ROOM DEODORIZER/CHURCH&                                                                                                                                 
COMYTV   010601004138      000030HIGHWAY ENT/ADULTS CPA 1                                                                                                                                       
COMYTV   010601004912      000100P&G/BASE WINTER/SPRING/SUMMER                                                                                                                                  
COMYTV   010601005012      000030CARPET&ROOM DEODORIZER/CHURCH&                                                                                                                                 
COMYTV   010601005042      000030GEN MOTORS/VARIOUS FALL COMPEN                                                                                                                                 
COMYTV   010601005112      000030HIGHWAY ENT/BARTER 4                                                                                                                                           
ID YTV   010601005948      000012STATION ID                                                                                                                                                     
SPOYTV   010601010000      000005ROYAL BANK/LIFE INSURANCE                                                                                                                                      
PGRYTV   010601010004012942002938YES MINISTER                                      RIGHT TO KNOW                                                        3 38807BCC                              
COMYTV   010601010819      000030HIGHWAY ENT/AD CPA HU 4                                                                                                                                        
COMYTV   010601010849      000030ROYAL BANK/LIFE INSURANCE                                                                                                                                      
COMYTV   010601010919      000030ROGERS VIDEO                                                                                                                                                   
COMYTV   010601010949      000030HIGHWAY ENT/BARTER 6                                                                                                                                           
COMYTV   010601011449      000030CARPET&ROOM DEODORIZER/CHURCH&                                                                                                                                 
COMYTV   010601011519      000030HIGHWAY ENT/WM CPA HU                                                                                                                                          
COMYTV   010601011549      000030HIGHWAY ENT/ADULTS CPA 1                                                                                                                                       
COMYTV   010601011619      000030P&G/OLAY DAILY FACIAL CLEANSER                                                                                                                                 
COMYTV   010601012426      000100P&G/BASE WINTER/SPRING/SUMMER                                                                                                                                  
COMYTV   010601012526      000030MOTT'S/WELCHES GRAPE                                                                                                                                           
COMYTV   010601012556      000030RECKITT BENKISER/NEET                                                                                                                                          
COMYTV   010601012626      000030HIGHWAY ENT/BARTER 6                                                                                                                                           
SPOYTV   010601012925      000005ROYAL BANK/LIFE INSURANCE                                                                                                                                      
ID YTV   010601012930      000012STATION ID                                                                                                                                                     
PGRYTV   010601012942015918002936ROCKY & BULLWINKLE                                EPS 131                                                              2 38307E                                
COMYTV   010601013513      000030CARPET&ROOM DEODORIZER/CHURCH&                                                                                                                                 
COMYTV   010601013543      000030K CLARK/HUGGIES                                                                                                                                                
COMYTV   010601013613      000030GEN MOTORS/VARIOUS FALL COMPEN                                                                                                                                 
COMYTV   010601013643      000030NESTLE/PREMIUM PACKAGED ICE CR                                                                                                                                 
COMYTV   010601014252      000030PEPSICO/TOSTITOS-B                                                                                                                                             
COMYTV   010601014322      000030HIGHWAY ENT/AD CPA HU 1                                                                                                                                        
COMYTV   010601014352      000030HIGHWAY ENT/BARTER 6                                                                                                                                           
COMYTV   010601014422      000015INTL HOME FOODS/PAM                                                                                                                                            
COMYTV   010601014437      000015TRICON/KFC:15'S                                                                                                                                                
COMYTV   010601015131      000030HIGHWAY ENT.PT BARTER                                                                                                                                          
COMYTV   010601015201      000030MAZDA/MVP                                                                                                                                                      
COMYTV   010601015231      000030PEPSICO/TOSTITOS-B                                                                                                                                             
COMYTV   010601015301      000030PARMALAT/ASTRO YOGURT                                                                                                                                          
COMYTV   010601015331      000030HIGHWAY ENT/BARTER 4                                                                                                                                           
ID YTV   010601015908      000012STATION ID                                                                                                                                                     
PGRYTV   010601015918020213000255HEY ARNOLD                                        GAME/FISHING TRIP EP82                                               2 38307ECC                              
COMYTV   010601020013      000100P&G/BASE WINTER/SPRING/SUMMER                                                                                                                                  
COMYTV   010601020113      000030NESTLE/PREMIUM PACKAGED ICE CR                                                                                                                                 
COMYTV   010601020143      000030HIGHWAY ENT/WM CPA HU                                                                                                                                          
PSAYTV   010601020213020312000059CDN CANCER SOC/CHANGING FACES                                                                                          1 000130                                
PGRYTV   010601020312023057002745HEY ARNOLD                                        GAME/FISHING TRIP EP82                                               2 38307ECC                              
COMYTV   010601021420      000030CARPET&ROOM DEODORIZER/CHURCH&                                                                                                                                 
COMYTV   010601021450      000015INTL HOME FOODS/PAM                                                                                                                                            
COMYTV   010601021505      000030WOMEN:30'S P2/KRAFT                                                                                                                                            
COMYTV   010601021535      000015WOMEN:15'S P2/KRAFT                                                                                                                                            
COMYTV   010601021550      000030HIGHWAY ENT/BARTER 6                                                                                                                                           
COMYTV   010601022131      000030HIGHWAY ENT/BARTER 6                                                                                                                                           
COMYTV   010601022201      000030KODAK/ADVANTIX                                                                                                                                                 
COMYTV   010601022231      000030NESTLE/PREMIUM PACKAGED ICE CR                                                                                                                                 
COMYTV   010601022301      000030AOL/ON-LINE                                                                                                                                                    
COMYTV   010601022331      000030NABISCO/MELTING MOMENTS                                                                                                                                        
ID YTV   010601023045      000012STATION ID                                                                                                                                                     
PGRYTV   010601023057025919002822OGGY & THE COCKROACHES                            EPS 21                                                               3 38307E                                
COMYTV   010601023952      000030HIGHWAY ENT/BARTER 4                                                                                                                                           
COMYTV   010601024022      000030CARPET&ROOM DEODORIZER/CHURCH&                                                                                                                                 
COMYTV   010601024052      000030HIGHWAY ENT/BARTER 5                                                                                                                                           
COMYTV   010601024122      000030HIGHWAY ENT/BARTER 6                                                                                                                                           
COMYTV   010601024713      000100P&G/BASE WINTER/SPRING/SUMMER                                                                                                                                  
COMYTV   010601024813      000030RECKITT BENKISER/NEET                                                                                                                                          
COMYTV   010601024843      000030AOL/ON-LINE                                                                                                                                                    
COMYTV   010601025241      000030MAZDA/MVP                                                                                                                                                      
COMYTV   010601025311      000030QUAKER/GATORADE                                                                                                                                                
COMYTV   010601025341      000030PARMALAT/ASTRO YOGURT                                                                                                                                          
COMYTV   010601025411      000100P&G/BASE WINTER/SPRING/SUMMER                                                                                                                                  
ID YTV   010601025909      000012STATION ID                                                                                                                                                     
PGRYTV   010601025919030228000309THREE FRIENDS & JERRY                             COUNTRY COUSIN EPS 12.                                               7 38807ECC                              
COMYTV   010601030028      000030SCHERING PLOUGH/CCB                                                                                                                                            
COMYTV   010601030058      000030HIGHWAY ENT/BARTER 4                                                                                                                                           
COMYTV   010601030128      000030ROGERS VIDEO                                                                                                                                                   
COMYTV   010601030158      000030HIGHWAY ENT/ADULTS CPA 1                                                                                                                                       
PSAYTV   010601030228030426000158MOTHER/EARTH DAY CANADA                                                                                                1 000130                                
PGRYTV   010601030426033155002729THREE FRIENDS & JERRY                             COUNTRY COUSIN EPS 12.                                               7 38807ECC                              
COMYTV   010601031141      000100P&G/BASE WINTER/SPRING/SUMMER                                                                                                                                  
COMYTV   010601031241      000030PEPSICO/TOSTITOS-B                                                                                                                                             
COMYTV   010601031311      000030QUAKER/GATORADE                                                                                                                                                
COMYTV   010601032116      000100P&G/BASE WINTER/SPRING/SUMMER                                                                                                                                  
COMYTV   010601032216      000030AOL/ON-LINE                                                                                                                                                    
COMYTV   010601032246      000030HIGHWAY ENT/BARTER 4                                                                                                                                           
ID YTV   010601033143      000012STATION ID                                                                                                                                                     
PGRYTV   010601033155040047002852BATMAN (ANIMATED)                                 VENDETTA EP21                                                        2 38307E                                
COMYTV   010601033302      000030NABISCO/MELTING MOMENTS                                                                                                                                        
COMYTV   010601033332      000030CARPET&ROOM DEODORIZER/CHURCH&                                                                                                                                 
COMYTV   010601033402      000030MOTT'S/WELCHES GRAPE                                                                                                                                           
COMYTV   010601033432      000030HIGHWAY ENT/BARTER 6                                                                                                                                           
COMYTV   010601034146      000030HIGHWAY ENT/BARTER 2                                                                                                                                           
COMYTV   010601034216      000030GEN MOTORS/VARIOUS FALL COMPEN                                                                                                                                 
COMYTV   010601034246      000030PEPSICO/TOSTITOS-B                                                                                                                                             
COMYTV   010601034316      000030GILLETTE/VENUS                                                                                                                                                 
COMYTV   010601035034      000030MOTT'S/WELCHES GRAPE                                                                                                                                           
COMYTV   010601035104      000030MAZDA/MVP                                                                                                                                                      
COMYTV   010601035134      000030AOL/ON-LINE                                                                                                                                                    
COMYTV   010601035204      000030HIGHWAY ENT/BARTER 4                                                                                                                                           
ID YTV   010601040035      000012STATION ID                                                                                                                                                     
PGRYTV   010601040047040518000431STUDENT BODIES                                    DEAD MEN DON'T WEAR PLAID EP54                    STUDEN      A50792 1 35307ACC                              
COMYTV   010601040318      000030PEPSICO/TOSTITOS-B                                                                                                                                             
COMYTV   010601040348      000030SHAW @ HOME                                                                                                                                                    
COMYTV   010601040418      000030CHRYSLER/BRAND                                                                                                                                                 
COMYTV   010601040448      000030HIGHWAY ENT/WM CPA HU                                                                                                                                          
PSAYTV   010601040518040618000100WAR AMPS/SPOT DANGER/ASTAR                                                                                             1 000130                                
