PGRYTV   020801060000062735002735ADVENTURES OF DUDLEY THE DRAGON (I)(#1-12)        DUDLEY GETS A TUMMY ACHE                          DRAGON      C10894 1 35107GCC                              
INTYTV   020801062735063025000250LITTLE BIG KID                                    YOUR SHOES ARE EP68                                                  1 311120                                
PRCYTV   020801062735      000015YTV PROMO CONTRACT                                                                                                                                             
ID YTV   020801063013      000012STATION ID                                                                                                                                                     
PGRYTV   020801063025065444002419RUPERT                                            EPS 1-RUPERT AND PING PONG                        NELVANYTV   P11511 1 35107ECC                              
PGRYTV   020801065444070000000516FUZZPAWS                                          JACK SPRAT EP45                                                      1 31107G                                
PRCYTV   020801065933      000015YTV PROMO CONTRACT                                                                                                                                             
ID YTV   020801065948      000012STATION ID                                                                                                                                                     
PGRYTV   020801070000072303002303MONSTER BY MISTAKE                                HOME ALONE EP8.                                   MONSTEYTV   A21772 1 35107ECC                              
PGRYTV   020801072303073002000659ANIMAL STORIES                                    KEITH THE CATERPILLER EPS 35                                         3 38107E                                
PRCYTV   020801072805      000030YTV PROMO CONTRACT                                                                                                                                             
PRCYTV   020801072835      000030YTV PROMO CONTRACT                                                                                                                                             
PRCYTV   020801072905      000030YTV PROMO CONTRACT                                                                                                                                             
PRCYTV   020801072935      000015YTV PROMO CONTRACT                                                                                                                                             
ID YTV   020801072950      000012STATION ID                                                                                                                                                     
PGRYTV   020801073002075550002548MONA THE VAMPIRE                                  DR.VOODOO/DANCE OF EP11                           FANCYCYTV   A18421 1 35307ECC                              
PRCYTV   020801073108      000030YTV PROMO CONTRACT                                                                                                                                             
PRCYTV   020801074245      000030YTV PROMO CONTRACT                                                                                                                                             
PRCYTV   020801074315      000030YTV PROMO CONTRACT                                                                                                                                             
PRCYTV   020801075452      000030YTV PROMO CONTRACT                                                                                                                                             
INTYTV   020801075550075751000201TECH ART                                          EP 48                                                                1 311120                                
INTYTV   020801075751075851000100STICKIN' AROUND                                   TEMPER, TEMPER                                                       1 353120CC                              
INTYTV   020801075851080003000112HOOTA & SNOZ                                      EPS 22                                                               7 383120                                
ID YTV   020801075952      000012STATION ID                                                                                                                                                     
PGRYTV   020801080003082507002504SAILOR MOON (#1-65)                               MOLLY'S FOLLY                                                 D01277 7 38307ECC2                             
PRCYTV   020801080201      000030YTV PROMO CONTRACT                                                                                                                                             
PRCYTV   020801080231      000030YTV PROMO CONTRACT                                                                                                                                             
PRCYTV   020801081232      000030YTV PROMO CONTRACT                                                                                                                                             
PRCYTV   020801081302      000030YTV PROMO CONTRACT                                                                                                                                             
PRCYTV   020801081841      000030YTV PROMO CONTRACT                                                                                                                                             
PRCYTV   020801081911      000030YTV PROMO CONTRACT                                                                                                                                             
INTYTV   020801082507082646000139JIMMY NEUTRON                                     EPS 6                                                                2 383120                                
INTYTV   020801082646082959000313NANALAN'                                          PUPPET EP47                                                          1 351120                                
ID YTV   020801082949      000012STATION ID                                                                                                                                                     
PGRYTV   020801082959085410002411LITTLE BEAR                                       MONSTER/PARADE/FISHERMANEPS 51                    NELVAN             1 32107E                                
PGRYTV   020801085410090002000552JUDY & DAVID'S BOOM BOX                           FISH HISTORY EP9                                                     1 31105B                                
PRCYTV   020801085813      000030YTV PROMO CONTRACT                                                                                                                                             
PRCYTV   020801085843      000030YTV PROMO CONTRACT                                                                                                                                             
PRCYTV   020801085913      000030YTV PROMO CONTRACT                                                                                                                                             
ID YTV   020801085943      000012STATION ID                                                                                                                                                     
PGRYTV   020801090002092415002413RUPERT                                            EPS 30-RUPERT AND THE BELL                        NELVANYTV   P17297 1 35107ECC                              
PGRYTV   020801092415093001000546FUZZPAWS                                          FROG PRINCE EP46                                                     1 31107G                                
PRCYTV   020801092904      000030YTV PROMO CONTRACT                                                                                                                                             
PRCYTV   020801092934      000015YTV PROMO CONTRACT                                                                                                                                             
ID YTV   020801092949      000012STATION ID                                                                                                                                                     
PGRYTV   020801093001095315002314BABAR SERIES                                      KING TUTTLE'S VOTE EPS 17                         NELVAN      C07575 1 32107ECC                              
INTYTV   020801095315095615000300NANALAN'                                          BENT FLOWER EP48                                                     1 351120                                
INTYTV   020801095615100012000357CHIP 'N' ORBIT                                    EPS 52                                                               1 311120CC                              
ID YTV   020801100000      000012STATION ID                                                                                                                                                     
PGRYTV   0208011000121026240026127 LITTLE MONSTERS                                 ADVENTURES OF SUPER THREE EP26                    NELVAN             1 32107ECC                              
INTYTV   020801102624102644000020TWISTEERIA INTERSTITIALS                          SUSHI SHARKS EP6                                                     1 311120                                
PSAYTV   020801102644102932000248ARTISTS VS RACISM/HOOTIE&BLOWF                                                                                         1 000130                                
PRCYTV   020801102830      000030YTV PROMO CONTRACT                                                                                                                                             
ID YTV   020801102917      000012STATION ID                                                                                                                                                     
PGRYTV   020801102932105319002347COUNTRY MOUSE & CITY MOUSE                        OUTBACK DOWN UNDER EP17                           CINAR       A73796 1 35107ECC                              
PGRYTV   020801105319105942000623ANIMAL STORIES                                    MAURICE THE MAGPIE EPS 36                                            3 38107E                                
PRCYTV   020801105820      000030YTV PROMO CONTRACT                                                                                                                                             
PRCYTV   020801105850      000030YTV PROMO CONTRACT                                                                                                                                             
ID YTV   020801105920      000012STATION ID                                                                                                                                                     
SPOYTV   020801105932      000010MCDONALDS/HAPPY MEAL                                                                                                                                           
PGRYTV   020801105942112245002303MONSTER BY MISTAKE                                GWYNETH EP13.                                     MONSTEYTV   A21777 1 35107ECC                              
PGRYTV   020801112245112848000603LISA                                              THE PAINTER  EPS 34                                                  3 38107E                                
PSAYTV   020801112848112918000030PARKS CANADA/BACK CTY BOOT                                                                                             1 000130                                
PGRYTV   020801112918112928000010LISA                                              THE PAINTER  EPS 34                                                  3 38107E                                
ID YTV   020801112918      000012STATION ID                                                                                                                                                     
PGRYTV   020801112928115410002442UH OH!                                            EPS 204                                                              1 313100CC                              
PRCYTV   020801113237      000030YTV PROMO CONTRACT                                                                                                                                             
PRCYTV   020801114013      000015YTV PROMO CONTRACT                                                                                                                                             
PRCYTV   020801114556      000030YTV PROMO CONTRACT                                                                                                                                             
INTYTV   020801115410115529000119JIMMY NEUTRON                                     EPS 7                                                                2 383120                                
INTYTV   020801115529115729000200TECH ART                                          EP 49                                                                1 311120                                
INTYTV   020801115729115926000157HOOTA & SNOZ                                      EPS 23                                                               7 383120                                
PRCYTV   020801115829      000030YTV PROMO CONTRACT                                                                                                                                             
PRCYTV   020801115859      000015YTV PROMO CONTRACT                                                                                                                                             
ID YTV   020801115914      000012STATION ID                                                                                                                                                     
PGRYTV   020801115926122452002526RUGRATS                                           ALL'S WELL/BIG BABIES EPS 108                                        2 38307ECC                              
PRCYTV   020801120018      000030YTV PROMO CONTRACT                                                                                                                                             
PRCYTV   020801121200      000015YTV PROMO CONTRACT                                                                                                                                             
PRCYTV   020801122339      000030YTV PROMO CONTRACT                                                                                                                                             
INTYTV   020801122452122612000120JIMMY NEUTRON                                     EPS 1                                                                2 383120                                
INTYTV   020801122612122926000314TECH ART                                          EP 50                                                                1 311120                                
PRCYTV   020801122814      000030YTV PROMO CONTRACT                                                                                                                                             
PRCYTV   020801122844      000030YTV PROMO CONTRACT                                                                                                                                             
ID YTV   020801122914      000012STATION ID                                                                                                                                                     
PGRYTV   0208011229261255310026057 LITTLE MONSTERS                                 RUNAWAY MOM EP 22                                 NELVAN             1 32107ECC                              
PGRYTV   020801125531130055000524ANIMAL STORIES                                    EDDIE THE CATFISH EPS 37                                             3 38107E                                
ID YTV   020801130035      000012STATION ID                                                                                                                                                     
SPOYTV   020801130047      000010MCDONALDS/HAPPY MEAL                                                                                                                                           
PGRYTV   020801130055131310001215ANGELINA BALLERINA                                RAG DOLL BALLERINA EP20                                              3 38107ECC                              
PGRYTV   020801131310132530001220ANGELINA BALLERINA                                ANGELINA AND GRANDMA EP21                                            3 38107ECC                              
INTYTV   020801132530132928000358CHIP 'N' ORBIT                                    EPS 53                                                               1 311120CC                              
ID YTV   020801132918      000012STATION ID                                                                                                                                                     
PGRYTV   020801132928135340002412LITTLE BEAR                                       YOU BE ME/THROAT/PUDDLE EPS 41                    NELVAN             1 32107E                                
PGRYTV   020801135340135930000550JUDY & DAVID'S BOOM BOX                           ALL TOGETHER NOW EP10                                                1 31105B                                
PRCYTV   020801135743      000030YTV PROMO CONTRACT                                                                                                                                             
PRCYTV   020801135813      000030YTV PROMO CONTRACT                                                                                                                                             
PRCYTV   020801135843      000030YTV PROMO CONTRACT                                                                                                                                             
ID YTV   020801135913      000012STATION ID                                                                                                                                                     
PGRYTV   020801135930142242002312BABAR                                             MANGO MADNESS EPS 65                              NELVAN             1 32107ECC                              
INTYTV   020801142242142542000300NANALAN'                                          CARROT EP49                                                          1 351120                                
INTYTV   020801142542142939000357CHIP 'N' ORBIT                                    EPS 54                                                               1 311120CC                              
ID YTV   020801142927      000012STATION ID                                                                                                                                                     
PGRYTV   020801142939145350002411RUPERT                                            EPS 18-RUPERT AND THE TIGER'S                     NELVANYTV   P12968 1 35107ECC                              
PGRYTV   020801145350145932000542FUZZPAWS                                          THREE LITTLE PIGS EP47                                               1 31107G                                
PRCYTV   020801145839      000030YTV PROMO CONTRACT                                                                                                                                             
ID YTV   020801145909      000012STATION ID                                                                                                                                                     
PGRYTV   020801145932152748002816SAILOR MOON (#1-65)                               MOLLY'S FOLLY                                                 D01277 7 38307ECC2                             
COMYTV   020801150129      000030WENDY'S/KIDS MEALS SUMMER RENE                                                                                                                                 
COMYTV   020801150159      000030KRAFT/KRAFT KIDS SUMMER MOVIE                                                                                                                                  
PROYTV   020801150229      000030YTV PROMO CONTRACT                                                                                                                                             
COMYTV   020801151236      000030KRAFT/KIDS SUMMER :30'S                                                                                                                                        
COMYTV   020801151306      000015PEPSICO/GATORADE                                                                                                                                               
COMYTV   020801151321      000030MCDONALDS/CORPORATE HAPPY MEAL                                                                                                                                 
COMYTV   020801151351      000015TOPP'S/RING POPS&TWISTED RING                                                                                                                                  
COMYTV   020801151406      000030KELLOGG/KIDS 52 WEEK                                                                                                                                           
PROYTV   020801151436      000030YTV PROMO CONTRACT                                                                                                                                             
COMYTV   020801152020      000030MATTEL/FASHION DIVA                                                                                                                                            
COMYTV   020801152050      000030KRAFT/KIDS SUMMER :30'S                                                                                                                                        
PROYTV   020801152120      000030YTV PROMO CONTRACT                                                                                                                                             
PRCYTV   020801152150      000030YTV PROMO CONTRACT                                                                                                                                             
INTYTV   020801152748153000000212TECH ART                                          EP 51                                                                1 311120                                
ID YTV   020801152948      000012STATION ID                                                                                                                                                     
PGRYTV   020801153000155713002713MONSTER RANCHER (#1-26)                           IN THE BEGINNING EP1                                          D01648 7 38307E  2                             
COMYTV   020801153106      000030KRAFT/KIDS SUMMER :30'S                                                                                                                                        
COMYTV   020801153136      000030MATTEL/SUMMER                                                                                                                                                  
PROYTV   020801153206      000030YTV PROMO CONTRACT                                                                                                                                             
COMYTV   020801154058      000030GENERAL MILLS/TRADITIONAL CHIL                                                                                                                                 
COMYTV   020801154128      000015PEPSICO/GATORADE                                                                                                                                               
COMYTV   020801154143      000030MCDONALDS/CORPORATE HAPPY MEAL                                                                                                                                 
COMYTV   020801154213      000015LAURENTION/COLOUR PENCILS-MARK                                                                                                                                 
COMYTV   020801154228      000030YTV CO/KELLOGG'S FROSTED FLAKE                                                                                                                                 
PRCYTV   020801154258      000030YTV PROMO CONTRACT                                                                                                                                             
PRCYTV   020801154328      000030YTV PROMO CONTRACT                                                                                                                                             
COMYTV   020801154856      000015TOPP'S/RING POPS&TWISTED RING                                                                                                                                  
COMYTV   020801154911      000030KRAFT/KIDS SUMMER :30'S                                                                                                                                        
COMYTV   020801154941      000015KRAFT/KRAFT KIDS SUMMER :15'S                                                                                                                                  
PRCYTV   020801154956      000030YTV PROMO CONTRACT                                                                                                                                             
INTYTV   020801155713160000000247PROGRAM JOCKEY                                    PROGRAM JOCKEY                                                       1 213120                                
ID YTV   020801155948      000012STATION ID                                                                                                                                                     
PGRYTV   020801160000162654002654MEDABOT                                           THE MEDAFORCE WITHIN  EPS46                                   D01866 7 38307ECC2                             
SPOYTV   020801160529      000010HASBRO-BEYBLADE-W.O.W. SPONSOR                                                                                                                                 
COMYTV   020801160539      000030KELLOGG/COMPENSATION                                                                                                                                           
COMYTV   020801160609      000030WARNER BROS/PLUTO NASH                                                                                                                                         
PROYTV   020801160639      000030YTV PROMO CONTRACT                                                                                                                                             
COMYTV   020801161143      000015BVP/TARZAN AND JANE                                                                                                                                            
COMYTV   020801161158      000030MCDONALDS/CORPORATE HAPPY MEAL                                                                                                                                 
COMYTV   020801161228      000030ALLIANCE/SPY KIDS 2                                                                                                                                            
COMYTV   020801161258      000030KRAFT/KIDS SUMMER :30'S                                                                                                                                        
COMYTV   020801161328      000015SONY ENT/MASTER OF DISGUISE                                                                                                                                    
PRCYTV   020801161343      000030YTV PROMO CONTRACT                                                                                                                                             
COMYTV   020801161950      000015KRAFT/KRAFT KIDS SUMMER :15'S                                                                                                                                  
COMYTV   020801162005      000030MATTEL/FASHION DIVA                                                                                                                                            
COMYTV   020801162035      000015LAURENTION/COLOUR PENCILS-MARK                                                                                                                                 
PROYTV   020801162050      000030YTV PROMO CONTRACT                                                                                                                                             
INTYTV   020801162654163005000311PROGRAM JOCKEY                                    PROGRAM JOCKEY                                                       1 213120                                
ID YTV   020801162948      000012STATION ID                                                                                                                                                     
SPOYTV   020801163000      000005L'OREAL CANADA/KIDS                                                                                                                                            
PGRYTV   020801163005165717002712HEY ARNOLD                                        RANSOM/MS PERFECT EP29                                               2 38307ECC                              
COMYTV   020801163328      000030KRAFT/KIDS SUMMER :30'S                                                                                                                                        
COMYTV   020801163358      000030WELCHES GRAPE JUICE                                                                                                                                            
COMYTV   020801164304      000015BVP/TARZAN AND JANE                                                                                                                                            
COMYTV   020801164319      000030KRAFT/KIDS SUMMER :30'S                                                                                                                                        
COMYTV   020801164349      000030MCDONALDS/CORPORATE HAPPY MEAL                                                                                                                                 
COMYTV   020801164419      000030ALLIANCE/SPY KIDS 2                                                                                                                                            
COMYTV   020801164449      000015L'OREAL CANADA/KIDS                                                                                                                                            
COMYTV   020801165116      000015LAURENTION/COLOUR PENCILS-MARK                                                                                                                                 
COMYTV   020801165131      000030MATTEL/FASHION DIVA                                                                                                                                            
COMYTV   020801165201      000015TOPP'S/PUSH POPS                                                                                                                                               
INTYTV   020801165717170006000249PROGRAM JOCKEY                                    PROGRAM JOCKEY                                                       1 213120                                
ID YTV   020801165948      000012STATION ID                                                                                                                                                     
SPOYTV   020801170000      000005L'OREAL CANADA/KIDS                                                                                                                                            
PGRYTV   020801170006172758002752POWERPUFF GIRLS                                   BEST RAINY DAY/DESSERTS EP23                                         2 38307ECC                              
COMYTV   020801170114      000015SONY ENT/MASTER OF DISGUISE                                                                                                                                    
COMYTV   020801170129      000015TOPP'S/RING POPS&TWISTED RING                                                                                                                                  
COMYTV   020801170144      000030WENDY'S/KIDS MEALS SUMMER RENE                                                                                                                                 
COMYTV   020801171257      000030KRAFT/KIDS SUMMER :30'S                                                                                                                                        
COMYTV   020801171327      000015L'OREAL CANADA/KIDS                                                                                                                                            
COMYTV   020801171342      000030ALLIANCE/SPY KIDS 2                                                                                                                                            
COMYTV   020801171412      000015LEGO/GALIDOR BB+                                                                                                                                               
COMYTV   020801171427      000030KRAFT/KIDS SUMMER :30'S                                                                                                                                        
PROYTV   020801171457      000030YTV PROMO CONTRACT                                                                                                                                             
COMYTV   020801172626      000030MATTEL/FASHION DIVA                                                                                                                                            
COMYTV   020801172656      000030KRAFT/KRAFT KIDS SUMMER MOVIE                                                                                                                                  
PRCYTV   020801172726      000030YTV PROMO CONTRACT                                                                                                                                             
INTYTV   020801172758173000000202PROGRAM JOCKEY                                    PROGRAM JOCKEY                                                       1 213120                                
ID YTV   020801172948      000012STATION ID                                                                                                                                                     
PGRYTV   020801173000175633002633MEN IN BLACK                                      THE BAD DOG SYNDROME  EPS 38                                         2 18307ECC                              
SPOYTV   020801173239      000010MINUTE MAID/BIBO-W.O.W. SPONS                                                                                                                                  
COMYTV   020801173249      000015SONY ENT/MASTER OF DISGUISE                                                                                                                                    
COMYTV   020801173304      000030KELLOGG/KIDS 52 WEEK                                                                                                                                           
COMYTV   020801173334      000015BVHV/TOM THUMBELINA                                                                                                                                            
PROYTV   020801173349      000030YTV PROMO CONTRACT                                                                                                                                             
COMYTV   020801174136      000015PEPSICO/GATORADE                                                                                                                                               
COMYTV   020801174151      000030ALLIANCE/SPY KIDS 2                                                                                                                                            
COMYTV   020801174221      000030KRAFT/KIDS SUMMER :30'S                                                                                                                                        
COMYTV   020801174251      000015LAURENTION/COLOUR PENCILS-MARK                                                                                                                                 
COMYTV   020801174306      000030SONY ENT/STUART LITTLE 2                                                                                                                                       
PRCYTV   020801174336      000015YTV PROMO CONTRACT                                                                                                                                             
COMYTV   020801174745      000030SONY ENT/MASTER OF DISGUISE                                                                                                                                    
COMYTV   020801174815      000030KRAFT/KRAFT KIDS SUMMER MOVIE                                                                                                                                  
PROYTV   020801174845      000030YTV PROMO CONTRACT                                                                                                                                             
INTYTV   020801175633180000000327PROGRAM JOCKEY                                    PROGRAM JOCKEY                                                       1 213120                                
ID YTV   020801175948      000012STATION ID                                                                                                                                                     
PGRYTV   020801180000183000003000JACKIE CHAN ADVENTURES                            PT1 - DEMON WORLD EPS 25                                             2 38307ECC                              
SPOYTV   020801180742      000010POPULAR RECORDS/BOSSON                                                                                                                                         
COMYTV   020801180752      000030UNILEVER/CASH REPLACEMENTS                                                                                                                                     
COMYTV   020801180822      000030HWY/CASH LINE EXTENSIONS                                                                                                                                       
COMYTV   020801180852      000030MATTEL/SUMMER                                                                                                                                                  
COMYTV   020801180922      000030NESTLE/DRUMSTICK                                                                                                                                               
PRCYTV   020801180952      000030YTV PROMO CONTRACT                                                                                                                                             
COMYTV   020801181856      000030HWY/BARTER LINE EXTENSIONS                                                                                                                                     
COMYTV   020801181926      000030WELCHES GRAPE JUICE                                                                                                                                            
COMYTV   020801181956      000030K CLARK/PULL UPS                                                                                                                                               
COMYTV   020801182026      000030ALLIANCE/AUSTIN POWERS HOLD#1                                                                                                                                  
PRCYTV   020801182056      000030YTV PROMO CONTRACT                                                                                                                                             
COMYTV   020801182542      000015PEPSICO/GATORADE                                                                                                                                               
COMYTV   020801182557      000030HWY/ADULT BARTER #1                                                                                                                                            
COMYTV   020801182627      000030HWY/ADULT BARTER #5                                                                                                                                            
COMYTV   020801182657      000030HWY/ADULT BARTER #2                                                                                                                                            
COMYTV   020801182727      000015SONY ENT/MASTER OF DISGUISE                                                                                                                                    
PRCYTV   020801182742      000030YTV PROMO CONTRACT                                                                                                                                             
PRCYTV   020801182812      000030YTV PROMO CONTRACT                                                                                                                                             
ID YTV   020801182948      000012STATION ID                                                                                                                                                     
PGRYTV   020801183000190000003000YU-GI-OH                                          EVIL SPIRIT OF THE RING EP 13                                        7 38307ECC                              
COMYTV   020801183520      000030HWY/ADULT BARTER #5                                                                                                                                            
COMYTV   020801183550      000030HWY/ADULT BARTER #3                                                                                                                                            
COMYTV   020801183620      000030EFFEM/STARBURST                                                                                                                                                
COMYTV   020801183650      000030ALLIANCE/AUSTIN POWERS HOLD#1                                                                                                                                  
PRCYTV   020801183720      000030YTV PROMO CONTRACT                                                                                                                                             
COMYTV   020801184343      000015KRAFT/KRAFT KIDS SUMMER :15'S                                                                                                                                  
COMYTV   020801184358      000030KRAFT/WOMEN SUMMER :30'S                                                                                                                                       
COMYTV   020801184428      000100P&G/BASE BUY                                                                                                                                                   
COMYTV   020801184528      000015COCA-COLA/BARQ'S                                                                                                                                               
PRCYTV   020801184543      000030YTV PROMO CONTRACT                                                                                                                                             
PRCYTV   020801184613      000015YTV PROMO CONTRACT                                                                                                                                             
COMYTV   020801185125      000030HWY/SONY PLAYSTATION                                                                                                                                           
COMYTV   020801185155      000015J&J/NEUTROGENA ACNE WASH                                                                                                                                       
COMYTV   020801185210      000030HWY/ADULT BARTER #4                                                                                                                                            
COMYTV   020801185240      000030PEPSICO                                                                                                                                                        
COMYTV   020801185310      000015SONY ENT/STUART LITTLE 2                                                                                                                                       
PROYTV   020801185325      000030YTV PROMO CONTRACT                                                                                                                                             
ID YTV   020801185948      000012STATION ID                                                                                                                                                     
PGRYTV   020801190000193007003007SPONGEBOB SQUAREPANTS                             JELLY FISHING/PLANKTON EP3                                           2 38307ECC                              
COMYTV   020801190049      000015PEPSICO/GATORADE                                                                                                                                               
COMYTV   020801190104      000030HWY/BARTER LINE EXTENSIONS                                                                                                                                     
COMYTV   020801190134      000030KRAFT/KIDS SUMMER :30'S                                                                                                                                        
COMYTV   020801190204      000015LAURENTION/COLOUR PENCILS-MARK                                                                                                                                 
COMYTV   020801190219      000030KRAFT/WOMEN SUMMER :30'S                                                                                                                                       
COMYTV   020801190745      000030HWY/CASH LINE EXTENSIONS                                                                                                                                       
COMYTV   020801190815      000030KRAFT/KIDS SUMMER :30'S                                                                                                                                        
COMYTV   020801190845      000030WARNER BROS/PLUTO NASH                                                                                                                                         
COMYTV   020801190915      000030WENDY'S/KIDS MEALS SUMMER RENE                                                                                                                                 
COMYTV   020801191607      000015PEPSICO/GATORADE                                                                                                                                               
COMYTV   020801191622      000030KRAFT/WOMEN SUMMER :30'S                                                                                                                                       
COMYTV   020801191652      000030UNILEVER/CASH REPLACEMENTS                                                                                                                                     
COMYTV   020801191722      000030KELLOGG/COMPENSATION                                                                                                                                           
COMYTV   020801191752      000015LEGO/GALIDOR BB+                                                                                                                                               
ID YTV   020801192955      000012STATION ID                                                                                                                                                     
PGRYTV   020801193007200028003021YVON OF THE YUKON                                 AN OFFICER AND A FRENCHMAN EP5                    YVON  YTV   A34353 1 35307ECC                              
SPOYTV   020801194023      000010DISC KIDS/SPIKE EVENT/GEN.AWAR                                                                                                                                 
COMYTV   020801194033      000030MINUTE MAID/FRUITOPIA                                                                                                                                          
COMYTV   020801194103      000100P&G/BASE BUY                                                                                                                                                   
COMYTV   020801194203      000030HWY/ADULT BARTER #1                                                                                                                                            
COMYTV   020801194853      000030KELLOGG/KIDS 52 WEEK                                                                                                                                           
COMYTV   020801194923      000100P&G/BASE BUY                                                                                                                                                   
COMYTV   020801195023      000030AOL/AOL BARTER                                                                                                                                                 
COMYTV   020801195739      000030KRAFT/KIDS SUMMER :30'S                                                                                                                                        
COMYTV   020801195809      000030WELCHES GRAPE JUICE                                                                                                                                            
COMYTV   020801195839      000030HWY/ADULT BARTER #5                                                                                                                                            
COMYTV   020801195909      000030HWY/ADULT BARTER #1                                                                                                                                            
ID YTV   020801200011      000012STATION ID                                                                                                                                                     
SPOYTV   020801200023      000005WALMART/CORPORATE                                                                                                                                              
PGRYTV   020801200028203000002932DRAGON BALL Z                                     NO MORE RULES EPS 164                                         D01860 7 38307ECC2                             
SPOYTV   020801200134      000010DISC KIDS/SPIKE EVENT/GEN.AWAR                                                                                                                                 
COMYTV   020801200144      000030KELLOGG/TEENS                                                                                                                                                  
COMYTV   020801200214      000015SONY ENT/MASTER OF DISGUISE                                                                                                                                    
COMYTV   020801200229      000030GENERAL MILLS/NESQUIK                                                                                                                                          
COMYTV   020801200259      000015SONY ENT/STUART LITTLE 2                                                                                                                                       
COMYTV   020801200314      000030HWY/ADULT BARTER #1                                                                                                                                            
PRCYTV   020801200344      000030YTV PROMO CONTRACT                                                                                                                                             
COMYTV   020801201437      000030ALLIANCE/AUSTIN POWERS HOLD#1                                                                                                                                  
COMYTV   020801201507      000030NESTLE/DRUMSTICK                                                                                                                                               
COMYTV   020801201537      000030HILLROY/BACK TO SCHOOL                                                                                                                                         
COMYTV   020801201607      000030KRAFT/WOMEN SUMMER :30'S                                                                                                                                       
PRCYTV   020801201637      000030YTV PROMO CONTRACT                                                                                                                                             
COMYTV   020801202620      000030KRAFT/KIDS SUMMER :30'S                                                                                                                                        
COMYTV   020801202650      000030HWY/SONY PLAYSTATION                                                                                                                                           
COMYTV   020801202720      000030WALMART/CORPORATE                                                                                                                                              
COMYTV   020801202750      000030GENERAL MILLS/TRADITIONAL CHIL                                                                                                                                 
PRCYTV   020801202820      000030YTV PROMO CONTRACT                                                                                                                                             
SPOYTV   020801202943      000005WALMART/CORPORATE                                                                                                                                              
ID YTV   020801202948      000012STATION ID                                                                                                                                                     
PGRYTV   020801203000210001003001DRAGON BALL Z                                     THE FIGHT IS OVER EP165                                       D01860 7 38307ECC2                             
COMYTV   020801203106      000030ALLIANCE/AUSTIN POWERS HOLD#1                                                                                                                                  
COMYTV   020801203136      000030EFFEM/STARBURST                                                                                                                                                
COMYTV   020801203206      000100P&G/BASE BUY                                                                                                                                                   
PRCYTV   020801203306      000030YTV PROMO CONTRACT                                                                                                                                             
COMYTV   020801204338      000030HWY/SONY PLAYSTATION                                                                                                                                           
COMYTV   020801204408      000030MINUTE MAID/FRUITOPIA                                                                                                                                          
COMYTV   020801204438      000030AOL/AOL BARTER                                                                                                                                                 
COMYTV   020801204508      000030KRAFT/KIDS SUMMER :30'S                                                                                                                                        
PRCYTV   020801204538      000030YTV PROMO CONTRACT                                                                                                                                             
COMYTV   020801205554      000015J&J/NEUTROGENA ACNE WASH                                                                                                                                       
COMYTV   020801205609      000030AOL/AOL BARTER                                                                                                                                                 
COMYTV   020801205639      000030KRAFT/WOMEN SUMMER :30'S                                                                                                                                       
COMYTV   020801205709      000030MATTEL/SUMMER                                                                                                                                                  
COMYTV   020801205739      000015GILLETTE/SOFT & DRY                                                                                                                                            
PRCYTV   020801205754      000030YTV PROMO CONTRACT                                                                                                                                             
PRCYTV   020801205824      000030YTV PROMO CONTRACT                                                                                                                                             
ID YTV   020801205949      000012STATION ID                                                                                                                                                     
PGRYTV   020801210001213305003304THUNDERBIRDS                                      PT2 - DANGER AT OCEAN DEEP                                           3 38307GCC                              
COMYTV   020801210134      000030HWY/SONY PLAYSTATION                                                                                                                                           
COMYTV   020801210204      000030K CLARK/HUGGIES :30 ULTRA                                                                                                                                      
COMYTV   020801210234      000030EFFEM/STARBURST                                                                                                                                                
COMYTV   020801210304      000030KRAFT/NABISCO CORN NUTS-TEEN                                                                                                                                   
COMYTV   020801211211      000030HWY/ADULT BARTER #1                                                                                                                                            
COMYTV   020801211241      000030KELLOGG/TEENS                                                                                                                                                  
COMYTV   020801211311      000030PEPSICO                                                                                                                                                        
COMYTV   020801211341      000030HWY/ADULT BARTER #5                                                                                                                                            
COMYTV   020801212934      000030KRAFT/WOMEN SUMMER :30'S                                                                                                                                       
COMYTV   020801213004      000030HILLROY/BACK TO SCHOOL                                                                                                                                         
COMYTV   020801213034      000030AOL/AOL BARTER                                                                                                                                                 
COMYTV   020801213104      000030ALLIANCE/AUSTIN POWERS HOLD#1                                                                                                                                  
ID YTV   020801213253      000012STATION ID                                                                                                                                                     
PGRYTV   020801213305220231002926ZACK FILES                                        ATTACK OF THE ZACK-UMM  EPS 40                    DECODEYTV   A64291 1 35307ACC                              
COMYTV   020801214229      000030HWY/ADULT BARTER #5                                                                                                                                            
COMYTV   020801214259      000100P&G/BASE BUY                                                                                                                                                   
COMYTV   020801214359      000030K CLARK/PULL UPS                                                                                                                                               
COMYTV   020801215020      000030ALLIANCE/AUSTIN POWERS HOLD#1                                                                                                                                  
COMYTV   020801215050      000030KRAFT/WOMEN SUMMER :30'S                                                                                                                                       
COMYTV   020801215120      000030COCA-COLA/COKE                                                                                                                                                 
COMYTV   020801215150      000030KELLOGG/TEENS                                                                                                                                                  
COMYTV   020801215807      000030COCA-COLA/MELLOW YELLOW                                                                                                                                        
COMYTV   020801215837      000030AOL/AOL BARTER                                                                                                                                                 
COMYTV   020801215907      000030HWY/PLAYTOY BARTER                                                                                                                                             
COMYTV   020801215937      000030WELCHES GRAPE JUICE                                                                                                                                            
ID YTV   020801220219      000012STATION ID                                                                                                                                                     
PGRYTV   020801220231223229002958RADIO ACTIVE (II)(#27-52)                         PRINCE & THE PIMPLE EP41                          TELEACYTV   C15323 1 35307BCC                              
COMYTV   020801220952      000030HWY/ADULT BARTER #2                                                                                                                                            
COMYTV   020801221022      000015ARM&HAMMER/BAKING SODA                                                                                                                                         
COMYTV   020801221037      000030WELCHES GRAPE JUICE                                                                                                                                            
COMYTV   020801221107      000015COCA-COLA/BARQ'S                                                                                                                                               
COMYTV   020801221122      000030ALLIANCE/AUSTIN POWERS HOLD#1                                                                                                                                  
COMYTV   020801221854      000030HWY/ADULT BARTER #1                                                                                                                                            
COMYTV   020801221924      000015J&J/CLEAN & CLEAR                                                                                                                                              
COMYTV   020801221939      000030HWY/ADULT BARTER #3                                                                                                                                            
COMYTV   020801222009      000015COCA-COLA/BARQ'S                                                                                                                                               
COMYTV   020801222024      000030HWY/ADULT BARTER #5                                                                                                                                            
COMYTV   020801222747      000015J&J/NEUTROGENA ACNE WASH                                                                                                                                       
COMYTV   020801222802      000030HWY/ADULT BARTER #5                                                                                                                                            
COMYTV   020801222832      000030HWY/ADULT BARTER #4                                                                                                                                            
COMYTV   020801222902      000030COCA-COLA/COKE                                                                                                                                                 
COMYTV   020801222932      000015PLAYTEX :15'S                                                                                                                                                  
ID YTV   020801223217      000012STATION ID                                                                                                                                                     
PGRYTV   020801223229230000002731BREAKER HIGH (#1-44)                              RADIO DAZE                                        SHAVIC      SR0291 1 36307ACC                              
COMYTV   020801223440      000030HWY/ADULT BARTER #1                                                                                                                                            
COMYTV   020801223510      000100P&G/BASE BUY                                                                                                                                                   
COMYTV   020801223610      000030ALLIANCE/AUSTIN POWERS HOLD#1                                                                                                                                  
COMYTV   020801224512      000015J&J/CLEAN & CLEAR                                                                                                                                              
COMYTV   020801224527      000030KELLOGG/TEENS                                                                                                                                                  
COMYTV   020801224557      000030AOL/AOL BARTER                                                                                                                                                 
COMYTV   020801224627      000030KRAFT/NABISCO CORN NUTS-TEEN                                                                                                                                   
COMYTV   020801224657      000015ARM&HAMMER/BAKING SODA                                                                                                                                         
COMYTV   020801225509      000030PEPSICO                                                                                                                                                        
COMYTV   020801225539      000030AOL/AOL BARTER                                                                                                                                                 
COMYTV   020801225609      000030K CLARK/KOTEX                                                                                                                                                  
COMYTV   020801225639      000030KELLOGG/TEENS                                                                                                                                                  
PRCYTV   020801225709      000015YTV PROMO CONTRACT                                                                                                                                             
ID YTV   020801225948      000012STATION ID                                                                                                                                                     
PGRYTV   020801230000233000003000STUDENT BODIES                                    MAG'S BIRTHDAY EP11                               STUDEN      A22506 1 35307ACC                              
COMYTV   020801230332      000030COCA-COLA/COKE                                                                                                                                                 
COMYTV   020801230402      000030KELLOGG/TEENS                                                                                                                                                  
COMYTV   020801230432      000030HWY/ADULT BARTER #1                                                                                                                                            
COMYTV   020801230502      000030YTV CO/KELLOGG'S FROSTED FLAKE                                                                                                                                 
COMYTV   020801231401      000030KRAFT/WOMEN SUMMER :30'S                                                                                                                                       
COMYTV   020801231431      000030WALMART/CORPORATE                                                                                                                                              
COMYTV   020801231501      000030ALLIANCE/AUSTIN POWERS HOLD#1                                                                                                                                  
COMYTV   020801231531      000030KRAFT/WOMEN SUMMER :30'S                                                                                                                                       
COMYTV   020801232212      000030KRAFT/WOMEN SUMMER :30'S                                                                                                                                       
COMYTV   020801232242      000030WALMART/CORPORATE                                                                                                                                              
COMYTV   020801232312      000030COCA-COLA/COKE                                                                                                                                                 
COMYTV   020801232342      000030K CLARK/KOTEX                                                                                                                                                  
PRCYTV   020801232412      000030YTV PROMO CONTRACT                                                                                                                                             
ID YTV   020801232948      000012STATION ID                                                                                                                                                     
PGRYTV   020801233000000005003005BIG TEETH, BAD BREATH                             FOX COMES TO STAY  EPS 12                         SEXTANYTV   A61227 1 35307GCC                              
COMYTV   020801234015      000030HWY/PLAYTOY BARTER                                                                                                                                             
COMYTV   020801234045      000030AOL/AOL BARTER                                                                                                                                                 
COMYTV   020801234115      000030HWY/ADULT BARTER #5                                                                                                                                            
COMYTV   020801234145      000030K CLARK/PULL UPS                                                                                                                                               
COMYTV   020801235233      000030COCA-COLA/COKE                                                                                                                                                 
COMYTV   020801235303      000030AOL/AOL BARTER                                                                                                                                                 
COMYTV   020801235333      000030HILLROY/BACK TO SCHOOL                                                                                                                                         
COMYTV   020801235403      000030WELCHES GRAPE JUICE                                                                                                                                            
PRCYTV   020801235433      000030YTV PROMO CONTRACT                                                                                                                                             
COMYTV   020801235657      000015BVHV/TOM THUMBELINA                                                                                                                                            
COMYTV   020801235712      000030KELLOGG/TEENS                                                                                                                                                  
COMYTV   020801235742      000030AOL/AOL BARTER                                                                                                                                                 
COMYTV   020801235812      000030HWY/ADULT BARTER #3                                                                                                                                            
COMYTV   020801235842      000015ARM&HAMMER/BAKING SODA                                                                                                                                         
ID YTV   020801235948      000012STATION ID                                                                                                                                                     
SPOYTV   020801000000      000005HERSHEY/SIDE KICKS-EMPIRE HOUR                                                                                                                                 
PGRYTV   020801000005003740003735ARE YOU BEING SERVED?                             THE HOLD UP                                                          3 38807BCC                              
SPOYTV   020801001104      000010HERSHEY/SIDE KICKS-EMPIRE HOUR                                                                                                                                 
COMYTV   020801001114      000030KRAFT/WOMEN SUMMER :30'S                                                                                                                                       
COMYTV   020801001144      000030HWY/ADULT BARTER #3                                                                                                                                            
COMYTV   020801001214      000030HWY/BARTER LINE EXTENSIONS                                                                                                                                     
COMYTV   020801001244      000030AOL/AOL BARTER                                                                                                                                                 
COMYTV   020801001802      000030P&G/PRINGLES                                                                                                                                                   
COMYTV   020801001832      000030SUBWAY/CORPORATE                                                                                                                                               
COMYTV   020801001902      000030UNILEVER/CASH REPLACEMENTS                                                                                                                                     
COMYTV   020801001932      000030KRAFT/WOMEN SUMMER :30'S                                                                                                                                       
COMYTV   020801003119      000030HERSHEY/SIDE KICKS-EMPIRE HOUR                                                                                                                                 
COMYTV   020801003149      000030WELCHES GRAPE JUICE                                                                                                                                            
COMYTV   020801003219      000030WALMART/CORPORATE                                                                                                                                              
COMYTV   020801003249      000030NESTLE/DRUMSTICK                                                                                                                                               
COMYTV   020801003319      000030HWY/CASH LINE EXTENSIONS                                                                                                                                       
SPOYTV   020801003717      000005HERSHEY/SIDE KICKS-EMPIRE HOUR                                                                                                                                 
ID YTV   020801003722      000012STATION ID                                                                                                                                                     
SPOYTV   020801003734      000005HERSHEY/SIDE KICKS-EMPIRE HOUR                                                                                                                                 
PGRYTV   020801003740011355003615KEEPING UP APPEARANCES                            EPS 29                                                               3 38807BCC                              
SPOYTV   020801004411      000010HERSHEY/SIDE KICKS-EMPIRE HOUR                                                                                                                                 
COMYTV   020801004421      000030HWY/BARTER LINE EXTENSIONS                                                                                                                                     
COMYTV   020801004451      000030NESTLE/DRUMSTICK                                                                                                                                               
COMYTV   020801004521      000030UNILEVER/CASH REPLACEMENTS                                                                                                                                     
COMYTV   020801004551      000030HWY/ADULT BARTER #5                                                                                                                                            
COMYTV   020801004621      000015ARM&HAMMER/BAKING SODA                                                                                                                                         
COMYTV   020801005011      000030HERSHEY/SIDE KICKS-EMPIRE HOUR                                                                                                                                 
COMYTV   020801005041      000100P&G/BASE BUY                                                                                                                                                   
COMYTV   020801005141      000030KRAFT/WOMEN SUMMER :30'S                                                                                                                                       
COMYTV   020801010031      000030KRAFT/WOMEN SUMMER :30'S                                                                                                                                       
COMYTV   020801010101      000030WELCHES GRAPE JUICE                                                                                                                                            
COMYTV   020801010131      000015ARM&HAMMER/BAKING SODA                                                                                                                                         
COMYTV   020801010146      000030HWY/CASH LINE EXTENSIONS                                                                                                                                       
COMYTV   020801010216      000030SUBWAY/CORPORATE                                                                                                                                               
SPOYTV   020801011333      000005HERSHEY/SIDE KICKS-EMPIRE HOUR                                                                                                                                 
ID YTV   020801011338      000012STATION ID                                                                                                                                                     
SPOYTV   020801011350      000005HERSHEY/SIDE KICKS-EMPIRE HOUR                                                                                                                                 
PGRYTV   020801011355014500003105YES MINISTER                                      THE KEY                                                              3 38807BCC                              
SPOYTV   020801012538      000010HERSHEY/SIDE KICKS-EMPIRE HOUR                                                                                                                                 
COMYTV   020801012548      000030PEPSICO                                                                                                                                                        
COMYTV   020801012618      000030HERSHEY/SIDE KICKS-EMPIRE HOUR                                                                                                                                 
COMYTV   020801012648      000030HWY/ADULT BARTER #4                                                                                                                                            
COMYTV   020801012718      000030KRAFT/WOMEN SUMMER :30'S                                                                                                                                       
COMYTV   020801013204      000030PEPSICO                                                                                                                                                        
COMYTV   020801013234      000100P&G/BASE BUY                                                                                                                                                   
COMYTV   020801013334      000030AOL/AOL BARTER                                                                                                                                                 
COMYTV   020801013640      000030WALMART/CORPORATE                                                                                                                                              
COMYTV   020801013710      000030EFFEM/STARBURST                                                                                                                                                
COMYTV   020801013740      000100P&G/BASE BUY                                                                                                                                                   
COMYTV   020801013840      000030WELCHES GRAPE JUICE                                                                                                                                            
SPOYTV   020801014443      000005HERSHEY/SIDE KICKS-EMPIRE HOUR                                                                                                                                 
ID YTV   020801014448      000012STATION ID                                                                                                                                                     
PGRYTV   020801014500021446002946ROCKY & BULLWINKLE                                EPS 102                                                              2 38307E                                
COMYTV   020801015029      000030KRAFT/WOMEN SUMMER :30'S                                                                                                                                       
COMYTV   020801015059      000030WALMART/CORPORATE                                                                                                                                              
COMYTV   020801015129      000030NESTLE/DRUMSTICK                                                                                                                                               
COMYTV   020801015159      000030AOL/AOL BARTER                                                                                                                                                 
COMYTV   020801015808      000030HWY/PLAYTOY BARTER                                                                                                                                             
COMYTV   020801015838      000100P&G/BASE BUY                                                                                                                                                   
COMYTV   020801015938      000030AOL/AOL BARTER                                                                                                                                                 
COMYTV   020801020648      000100P&G/BASE BUY                                                                                                                                                   
COMYTV   020801020748      000030AOL/AOL BARTER                                                                                                                                                 
COMYTV   020801020818      000030HWY/ADULT BARTER #3                                                                                                                                            
COMYTV   020801020848      000030HWY/ADULT BARTER #1                                                                                                                                            
ID YTV   020801021434      000012STATION ID                                                                                                                                                     
PGRYTV   020801021446024516003030MONSTER BY MISTAKE                                SOAP BOX DERBY EP18                               MONSTEYTV   A30284 1 35307ECC                              
COMYTV   020801022307      000030KRAFT/WOMEN SUMMER :30'S                                                                                                                                       
COMYTV   020801022337      000030WALMART/CORPORATE                                                                                                                                              
COMYTV   020801022407      000030KRAFT/WOMEN SUMMER :30'S                                                                                                                                       
COMYTV   020801022437      000030AOL/AOL BARTER                                                                                                                                                 
COMYTV   020801023259      000030COCA-COLA/COKE                                                                                                                                                 
COMYTV   020801023329      000030WALMART/CORPORATE                                                                                                                                              
COMYTV   020801023359      000030HWY/ADULT BARTER #5                                                                                                                                            
COMYTV   020801023429      000030AOL/AOL BARTER                                                                                                                                                 
COMYTV   020801024139      000030KRAFT/WOMEN SUMMER :30'S                                                                                                                                       
COMYTV   020801024209      000030HWY/ADULT BARTER #1                                                                                                                                            
COMYTV   020801024239      000030HWY/PLAYTOY BARTER                                                                                                                                             
COMYTV   020801024309      000030AOL/AOL BARTER                                                                                                                                                 
COMYTV   020801024339      000030COCA-COLA/COKE                                                                                                                                                 
ID YTV   020801024504      000012STATION ID                                                                                                                                                     
PGRYTV   020801024516031602003046RUGRATS                                           ALL'S WELL/BIG BABIES EPS 108                                        2 38307ECC                              
COMYTV   020801024608      000030HWY/ADULT BARTER #5                                                                                                                                            
COMYTV   020801024638      000030HWY/ADULT BARTER #5                                                                                                                                            
COMYTV   020801024708      000100P&G/BASE BUY                                                                                                                                                   
COMYTV   020801025920      000030HWY/ADULT BARTER #2                                                                                                                                            
COMYTV   020801025950      000030HWY/ADULT BARTER #5                                                                                                                                            
COMYTV   020801030020      000030KRAFT/WOMEN SUMMER :30'S                                                                                                                                       
COMYTV   020801030050      000030KRAFT/WOMEN SUMMER :30'S                                                                                                                                       
COMYTV   020801031232      000030HWY/ADULT BARTER #5                                                                                                                                            
COMYTV   020801031302      000030HWY/ADULT BARTER #3                                                                                                                                            
COMYTV   020801031332      000030KRAFT/WOMEN SUMMER :30'S                                                                                                                                       
COMYTV   020801031402      000030WALMART/CORPORATE                                                                                                                                              
COMYTV   020801031432      000030AOL/AOL BARTER                                                                                                                                                 
ID YTV   020801031550      000012STATION ID                                                                                                                                                     
PGRYTV   020801031602034417002815GUNDAM WING                                       GLASS KINGDOM EP31                                                   7 38307ECC                              
SPOYTV   020801032438      000010LIPTON/BRISK LEMONADE                                                                                                                                          
COMYTV   020801032448      000030HWY/ADULT BARTER #5                                                                                                                                            
COMYTV   020801032518      000030AOL/AOL BARTER                                                                                                                                                 
COMYTV   020801032548      000030KRAFT/WOMEN SUMMER :30'S                                                                                                                                       
COMYTV   020801033017      000015J&J/CLEAN & CLEAR                                                                                                                                              
COMYTV   020801033032      000030AOL/AOL BARTER                                                                                                                                                 
COMYTV   020801033102      000015J&J/NEUTROGENA ACNE WASH                                                                                                                                       
COMYTV   020801033703      000030AOL/AOL BARTER                                                                                                                                                 
COMYTV   020801033733      000100P&G/BASE BUY                                                                                                                                                   
ID YTV   020801034405      000012STATION ID                                                                                                                                                     
PGRYTV   020801034417041002002545BATMAN (ANIMATED)                                 PROPHESY OF DOOM EP22                                                2 38307E                                
COMYTV   020801034524      000030COCA-COLA/COKE                                                                                                                                                 
COMYTV   020801034554      000030AOL/AOL BARTER                                                                                                                                                 
COMYTV   020801035354      000015J&J/CLEAN & CLEAR                                                                                                                                              
COMYTV   020801035409      000030COCA-COLA/MELLOW YELLOW                                                                                                                                        
COMYTV   020801035439      000015J&J/NEUTROGENA ACNE WASH                                                                                                                                       
COMYTV   020801040055      000030COCA-COLA/MELLOW YELLOW                                                                                                                                        
COMYTV   020801040125      000030HWY/ADULT BARTER #5                                                                                                                                            
ID YTV   020801040950      000012STATION ID                                                                                                                                                     
PGRYTV   020801041002043443002441JACKIE CHAN ADVENTURES                            PT1 - DEMON WORLD EPS 25                                             2 38307ECC                              
