PGRYTV   020101060000062314002314BABAR                                             ALEXANDER THE GREAT EPS 40                        NELVAN      C09928 1 32107ECC                              
INTYTV   020101062314062613000259NANALAN'                                          MONA LISA EPS 60                                                     1 351120                                
INTYTV   020101062613063010000357CHIP 'N' ORBIT                                    EPS 65                                                               1 311120CC                              
ID YTV   020101062958      000012STATION ID                                                                                                                                                     
PGRYTV   020101063010065454002444RUPERT                                            EPS 38-RUPERT & THE CLOCK                         NELVANYTV   P17305 1 35107ECC                              
PRCYTV   020101065418      000030YTV PROMO CONTRACT                                                                                                                                             
PGRYTV   020101065454070000000506FUZZPAWS                                          THE SONG TREE EP21                                                   1 311120                                
ID YTV   020101065942      000012STATION ID                                                                                                                                                     
PGRYTV   020101070000072303002303MONSTER BY MISTAKE                                CAMPSITE CREEPER EP7.                             MONSTEYTV   A21771 1 35107E                                
PGRYTV   020101072303072950000647ELLIOT MOOSE                                      SHABU GAMU EP22                                   NELVAN      A25741 1 35107GCC                              
ID YTV   020101072933      000012STATION ID                                                                                                                                                     
PGRYTV   020101072950075600002610CATDOG                                            SEND IN THE/FISHING FOR EP21                                         2 38107ECC                              
PRCYTV   020101073044      000030YTV PROMO CONTRACT                                                                                                                                             
PROYTV   020101073114      000030YTV PROMO CONTRACT                                                                                                                                             
PRCYTV   020101074205      000030YTV PROMO CONTRACT                                                                                                                                             
PRCYTV   020101075409      000030YTV PROMO CONTRACT                                                                                                                                             
PRCYTV   020101075439      000030YTV PROMO CONTRACT                                                                                                                                             
INTYTV   020101075600075700000100STICKIN' AROUND                                   DO THE RUSSELL                                                       1 351120CC                              
INTYTV   020101075700080000000300JIMMY NEUTRON                                     EPS 4                                                                2 381120                                
PRCYTV   020101075838      000030YTV PROMO CONTRACT                                                                                                                                             
PROYTV   020101075908      000030YTV PROMO CONTRACT                                                                                                                                             
ID YTV   020101075938      000012STATION ID                                                                                                                                                     
PGRYTV   020101080000082606002606RUGRATS                                           WHAT'S YOUR LINE/TWO EP107                                           2 38107ECC                              
PRCYTV   020101080052      000030YTV PROMO CONTRACT                                                                                                                                             
PRCYTV   020101081234      000030YTV PROMO CONTRACT                                                                                                                                             
PRCYTV   020101081304      000030YTV PROMO CONTRACT                                                                                                                                             
PRCYTV   020101082452      000030YTV PROMO CONTRACT                                                                                                                                             
INTYTV   020101082606083003000357CHIP 'N' ORBIT                                    EPS 66                                                               1 211120CC                              
ID YTV   020101082951      000012STATION ID                                                                                                                                                     
PGRYTV   020101083003085411002408LITTLE BEAR                                       WIND/GOBLIN STORY/NOT EP11                        NELVAN      A00055 1 35107E                                
PGRYTV   020101085411090010000559JUDY & DAVID'S BOOM BOX                           TWISTY FREEZE EPS 12                                                 1 311120                                
ID YTV   020101085812      000012STATION ID                                                                                                                                                     
PROYTV   020101085824      000030YTV PROMO CONTRACT                                                                                                                                             
PRCYTV   020101085854      000030YTV PROMO CONTRACT                                                                                                                                             
PRCYTV   020101085924      000030YTV PROMO CONTRACT                                                                                                                                             
SPOYTV   020101090000      000010MCDONALDS/HAPPY MEAL                                                                                                                                           
PGRYTV   020101090010092422002412RUPERT                                            EPS 1-RUPERT AND PING PONG                        NELVANYTV   P11511 1 35107ECC                              
PGRYTV   020101092422093000000538FUZZPAWS                                          DON'T WORRY, BE HAPPY EP22                                           1 311120                                
ID YTV   020101092911      000012STATION ID                                                                                                                                                     
PRCYTV   020101092923      000030YTV PROMO CONTRACT                                                                                                                                             
PGRYTV   020101093000095312002312BABAR SERIES                                      BABAR'S FIRST STEP EP1                            NELVAN      C07575 1 32107ECC                              
INTYTV   020101095312095613000301NANALAN'                                          SAVE THE FISH EPS 61                                                 1 351120                                
INTYTV   020101095613100010000357CHIP 'N' ORBIT                                    EPS 67                                                               1 211120CC                              
ID YTV   020101095957      000012STATION ID                                                                                                                                                     
PGRYTV   020101100010102214002204ANATOLE                                           ANATOLE'S PARISIAN ADV EP1.                       NELVANYTV   A25666 1 35107ECC                              
PGRYTV   020101102214102857000643ELLIOT MOOSE                                      PLAYGROUND PUZZLE EP16                            NELVAN      A25739 1 35107GCC                              
ID YTV   020101102844      000012STATION ID                                                                                                                                                     
PGRYTV   020101102857105344002447FUZZPAWS                                          RULES RULE!. EP6                                              A18142 1 31107GCC                              
PRCYTV   020101105329      000015YTV PROMO CONTRACT                                                                                                                                             
PGRYTV   020101105344105745000401MAMEMO                                            EPS 29                                                               7 381120                                
INTYTV   020101105745105957000212LITTLE BIG KID                                    LET'S GO FISHIN EP52                                                 1 31105A                                
ID YTV   020101105945      000012STATION ID                                                                                                                                                     
PGRYTV   020101105957112348002351ELLIOT MOOSE                                      MUSCLE/GHOSTDRAGON/HAT EP22.                      NELVAN      A25754 1 35107GCC                              
PRCYTV   020101112218      000030YTV PROMO CONTRACT                                                                                                                                             
PRCYTV   020101112248      000030YTV PROMO CONTRACT                                                                                                                                             
PRCYTV   020101112318      000030YTV PROMO CONTRACT                                                                                                                                             
PGRYTV   020101112348113000000612LISA                                              PAINT THE BATHROOM EPS 4                                             3 38107E                                
ID YTV   020101112948      000012STATION ID                                                                                                                                                     
PGRYTV   020101113000115303002303MONSTER BY MISTAKE                                BILLY CAVES IN EP16.                              MONSTEYTV   A30282 1 35107ECC                              
PGRYTV   020101115303120006000703ELLIOT MOOSE                                      MYSERY OF THE MISSING EP23                        NELVAN      A25745 1 35107GCC                              
ID YTV   020101115933      000012STATION ID                                                                                                                                                     
PRCYTV   020101115945      000015YTV PROMO CONTRACT                                                                                                                                             
SPOYTV   020101120000      000005GEN MILLS/GUSHERS/UH OH SPONS                                                                                                                                  
PGRYTV   020101120006122600002554UH OH!                                            EPS 131                                                              1 311100CC                              
PRCYTV   020101120312      000030YTV PROMO CONTRACT                                                                                                                                             
PRCYTV   020101120342      000015YTV PROMO CONTRACT                                                                                                                                             
PRCYTV   020101121112      000030YTV PROMO CONTRACT                                                                                                                                             
PRCYTV   020101121743      000030YTV PROMO CONTRACT                                                                                                                                             
PRCYTV   020101121813      000030YTV PROMO CONTRACT                                                                                                                                             
SPOYTV   020101122555      000005GEN MILLS/GUSHERS/UH OH SPONS                                                                                                                                  
INTYTV   020101122600122648000048JIMMY NEUTRON                                     EPS 5                                                                2 381120                                
INTYTV   020101122648123000000312NANALAN'                                          LIGHTNING EPS 62                                                     1 351120                                
ID YTV   020101122948      000012STATION ID                                                                                                                                                     
PGRYTV   020101123000125548002548MONA THE VAMPIRE                                  MUMMY'S TOMB/FREAKY SNOWMAN                       FANCYCYTV   A18420 1 35107ECC                              
PRCYTV   020101123106      000030YTV PROMO CONTRACT                                                                                                                                             
PRCYTV   020101124243      000030YTV PROMO CONTRACT                                                                                                                                             
PRCYTV   020101124313      000030YTV PROMO CONTRACT                                                                                                                                             
PRCYTV   020101125450      000030YTV PROMO CONTRACT                                                                                                                                             
INTYTV   020101125548130012000424MAMEMO                                            EPS 30                                                               7 381120                                
ID YTV   020101125951      000012STATION ID                                                                                                                                                     
SPOYTV   020101130003      000010MCDONALDS/HAPPY MEAL                                                                                                                                           
PGRYTV   020101130012150006015954SOCCER DOG                                        SOCCER DOG                                                           2 38307CCC                              
COMYTV   020101131029      000030MCDONALDS/CORPORATE HAPPY MEAL                                                                                                                                 
COMYTV   020101131059      000030HASBRO CANADA INC.                                                                                                                                             
COMYTV   020101131129      000030GENERAL MILLS CANADA INC.                                                                                                                                      
COMYTV   020101131159      000030MATTEL CANADA INC.                                                                                                                                             
COMYTV   020101132610      000030MATTEL CANADA INC.                                                                                                                                             
COMYTV   020101132640      000030LEGO CANADA INC.                                                                                                                                               
COMYTV   020101132710      000030L'OREAL CANADA                                                                                                                                                 
COMYTV   020101132740      000030HASBRO CANADA INC.                                                                                                                                             
COMYTV   020101133853      000030MATTEL CANADA INC.                                                                                                                                             
COMYTV   020101133923      000030KELLOGG CANADA INC.                                                                                                                                            
COMYTV   020101133953      000030PILLSBURY CANADA INC.                                                                                                                                          
COMYTV   020101134023      000030LEGO CANADA INC.                                                                                                                                               
COMYTV   020101135138      000030HASBRO CANADA INC.                                                                                                                                             
COMYTV   020101135208      000030MATTEL CANADA INC.                                                                                                                                             
COMYTV   020101135238      000030KELLOGG CANADA INC.                                                                                                                                            
COMYTV   020101135308      000030LEGO CANADA INC.                                                                                                                                               
PROYTV   020101135338      000030YTV PROMO CONTRACT                                                                                                                                             
PROYTV   020101135408      000030YTV PROMO CONTRACT                                                                                                                                             
COMYTV   020101140109      000030HASBRO CANADA INC.                                                                                                                                             
COMYTV   020101140139      000030PILLSBURY CANADA INC.                                                                                                                                          
COMYTV   020101140209      000030MATTEL CANADA INC.                                                                                                                                             
COMYTV   020101140239      000030OCEAN SPRAY INTERNATIONAL INC.                                                                                                                                 
PRCYTV   020101140309      000030YTV PROMO CONTRACT                                                                                                                                             
PRCYTV   020101140339      000030YTV PROMO CONTRACT                                                                                                                                             
COMYTV   020101141259      000030HASBRO CANADA INC.                                                                                                                                             
COMYTV   020101141329      000030GENERAL MILLS CANADA INC.                                                                                                                                      
COMYTV   020101141359      000030MATTEL CANADA INC.                                                                                                                                             
COMYTV   020101141429      000030PILLSBURY CANADA INC.                                                                                                                                          
PROYTV   020101141459      000030YTV PROMO CONTRACT                                                                                                                                             
PRCYTV   020101141529      000030YTV PROMO CONTRACT                                                                                                                                             
COMYTV   020101142725      000030HASBRO CANADA INC.                                                                                                                                             
COMYTV   020101142755      000030GENERAL MILLS/CORPORATE BARTER                                                                                                                                 
COMYTV   020101142825      000030MATTEL CANADA INC.                                                                                                                                             
COMYTV   020101142855      000030L'OREAL CANADA                                                                                                                                                 
PROYTV   020101142925      000030YTV PROMO CONTRACT                                                                                                                                             
PRCYTV   020101142955      000015YTV PROMO CONTRACT                                                                                                                                             
COMYTV   020101144234      000030HASBRO CANADA INC.                                                                                                                                             
COMYTV   020101144304      000030PILLSBURY CANADA INC.                                                                                                                                          
COMYTV   020101144334      000030LEGO CANADA INC.                                                                                                                                               
COMYTV   020101144404      000030OCEAN SPRAY INTERNATIONAL INC.                                                                                                                                 
PROYTV   020101144434      000030YTV PROMO CONTRACT                                                                                                                                             
PROYTV   020101144504      000030YTV PROMO CONTRACT                                                                                                                                             
ID YTV   020101145953      000012STATION ID                                                                                                                                                     
PGRYTV   020101150006152709002703ANGRY BEAVERS                                     PASS IT ON/REUNION EP33                                              2 38307ECC                              
COMYTV   020101150059      000030HOSTESS/F-L/PLANET LUNCH                                                                                                                                       
COMYTV   020101150129      000030LEGO CANADA INC.                                                                                                                                               
COMYTV   020101151644      000030OCEAN SPRAY INTERNATIONAL INC.                                                                                                                                 
COMYTV   020101151714      000030MATTEL CANADA INC.                                                                                                                                             
COMYTV   020101151744      000030GENERAL MILLS/CORPORATE BARTER                                                                                                                                 
COMYTV   020101151814      000030MATTEL CANADA INC.                                                                                                                                             
COMYTV   020101152624      000015MON 164 MONSTERS INC. - WK 9                                                                                                                                   
COMYTV   020101152639      000030KELLOGG CANADA INC.                                                                                                                                            
PSAYTV   020101152709152724000015WAR AMPS/WINNER'S CIRCLE                                                                                               1 000130                                
PGRYTV   020101152724152809000045ANGRY BEAVERS                                     PASS IT ON/REUNION EP33                                              2 38307ECC                              
INTYTV   020101152809153000000151JIMMY NEUTRON                                     EPS 6                                                                2 383120                                
ID YTV   020101152948      000012STATION ID                                                                                                                                                     
PGRYTV   020101153000155712002712DEXTER'S LABORATORY                               INFLATA DEE DEE/CAN'T NAP/                                           2 38307ECC                              
COMYTV   020101153726      000030MCDONALDS/CORPORATE HAPPY MEAL                                                                                                                                 
COMYTV   020101153756      000030SD 165/SNOW DOGS                                                                                                                                               
PRCYTV   020101153826      000030YTV PROMO CONTRACT                                                                                                                                             
COMYTV   020101154552      000030DISC KIDS/SPIKE EVENT/GEN.AWAR                                                                                                                                 
COMYTV   020101154622      000030HOSTESS/F-L/PLANET LUNCH                                                                                                                                       
COMYTV   020101154652      000030MATTEL CANADA INC.                                                                                                                                             
COMYTV   020101154722      000030GENERAL MILLS/TRADITIONAL                                                                                                                                      
PRCYTV   020101154752      000030YTV PROMO CONTRACT                                                                                                                                             
COMYTV   020101155258      000030MCDONALDS/CORPORATE HAPPY MEAL                                                                                                                                 
COMYTV   020101155328      000030LEGO CANADA INC.                                                                                                                                               
PRCYTV   020101155358      000015YTV PROMO CONTRACT                                                                                                                                             
INTYTV   020101155712155959000247PROGRAM JOCKEY                                    PROGRAM JOCKEY                                                       1 213120                                
ID YTV   020101155948      000012STATION ID                                                                                                                                                     
PGRYTV   020101155959162747002748POWERPUFF GIRLS                                   MAJOR COMPETITION/MR.MOJO EP7                                        2 38307ECC                              
COMYTV   020101160110      000030DISC KIDS/SPIKE EVENT/GEN.AWAR                                                                                                                                 
COMYTV   020101160140      000030HOSTESS/F-L/PLANET LUNCH                                                                                                                                       
PRCYTV   020101160210      000030YTV PROMO CONTRACT                                                                                                                                             
COMYTV   020101161318      000030GENERAL MILLS CANADA INC.                                                                                                                                      
COMYTV   020101161348      000030MATTEL CANADA INC.                                                                                                                                             
COMYTV   020101161418      000030KELLOGG CANADA INC.                                                                                                                                            
COMYTV   020101161448      000030HASBRO CANADA INC.                                                                                                                                             
PRCYTV   020101161518      000030YTV PROMO CONTRACT                                                                                                                                             
COMYTV   020101162605      000030MATTEL CANADA INC.                                                                                                                                             
COMYTV   020101162635      000030PILLSBURY CANADA INC.                                                                                                                                          
PROYTV   020101162705      000030YTV PROMO CONTRACT                                                                                                                                             
INTYTV   020101162747163000000213PROGRAM JOCKEY                                    PROGRAM JOCKEY                                                       1 213120                                
ID YTV   020101162948      000012STATION ID                                                                                                                                                     
PGRYTV   020101163000165735002735HEY ARNOLD                                        HELGA'S SHOW/THE FLOOD EP58                                          2 38307ECC                              
COMYTV   020101163533      000030MATTEL CANADA INC.                                                                                                                                             
COMYTV   020101163603      000030GENERAL MILLS CANADA INC.                                                                                                                                      
COMYTV   020101164310      000030GENERAL MILLS/CORPORATE BARTER                                                                                                                                 
COMYTV   020101164340      000030HASBRO CANADA INC.                                                                                                                                             
COMYTV   020101164410      000030OCEAN SPRAY INTERNATIONAL INC.                                                                                                                                 
COMYTV   020101164440      000030MATTEL CANADA INC.                                                                                                                                             
COMYTV   020101165005      000030MATTEL CANADA INC.                                                                                                                                             
COMYTV   020101165035      000030L'OREAL CANADA                                                                                                                                                 
INTYTV   020101165735170000000225PROGRAM JOCKEY                                    PROGRAM JOCKEY                                                       1 213120                                
ID YTV   020101165948      000012STATION ID                                                                                                                                                     
PGRYTV   020101170000172703002703POKEMON                                           UNDERGROUND ROUND UP EP113                                           7 38307ECC                              
SPOYTV   020101170024      000010LEGO/BOYS 4-8                                                                                                                                                  
COMYTV   020101170034      000030HOSTESS/F-L/PLANET LUNCH                                                                                                                                       
COMYTV   020101170104      000030MATTEL CANADA INC.                                                                                                                                             
COMYTV   020101171122      000030HOSTESS/F-L/PLANET LUNCH FALL                                                                                                                                  
COMYTV   020101171152      000030HASBRO/ HIT CLIPS/SHARED                                                                                                                                       
COMYTV   020101171222      000030MATTEL CANADA INC.                                                                                                                                             
COMYTV   020101171252      000030OCEAN SPRAY INTERNATIONAL INC.                                                                                                                                 
PROYTV   020101171322      000015YTV PROMO CONTRACT                                                                                                                                             
COMYTV   020101172433      000030PILLSBURY CANADA INC.                                                                                                                                          
COMYTV   020101172503      000030KELLOGG CANADA INC.                                                                                                                                            
INTYTV   020101172703173000000257PROGRAM JOCKEY                                    PROGRAM JOCKEY                                                       1 213120                                
ID YTV   020101172948      000012STATION ID                                                                                                                                                     
PGRYTV   020101173000175610002610DIGIMON                                           KYOTO DRAGON EP91                                                    7 38307ECC                              
COMYTV   020101173543      000030GENERAL MILLS/CORPORATE BARTER                                                                                                                                 
COMYTV   020101173613      000030MATTEL CANADA INC.                                                                                                                                             
PRCYTV   020101173643      000030YTV PROMO CONTRACT                                                                                                                                             
COMYTV   020101174239      000030DISC KIDS/SPIKE EVENT/GEN.AWAR                                                                                                                                 
COMYTV   020101174309      000030MATTEL CANADA INC.                                                                                                                                             
COMYTV   020101174339      000030GENERAL MILLS CANADA INC.                                                                                                                                      
COMYTV   020101174409      000030HASBRO CANADA INC.                                                                                                                                             
COMYTV   020101175316      000030MATTEL CANADA INC.                                                                                                                                             
COMYTV   020101175346      000030L'OREAL CANADA                                                                                                                                                 
PROYTV   020101175416      000030YTV PROMO CONTRACT                                                                                                                                             
INTYTV   020101175610180005000355PROGRAM JOCKEY                                    PROGRAM JOCKEY                                                       1 213120                                
ID YTV   020101175948      000012STATION ID                                                                                                                                                     
SPOYTV   020101180000      000005K CLARK/KOTEX                                                                                                                                                  
PGRYTV   020101180005180358000353SO LITTLE TIME                                    SIBLINGS IN THE CITY  EPS 3                                          2 38307ACC                              
COMYTV   020101180213      000030K CLARK/HUGGIES:SUPREME                                                                                                                                        
COMYTV   020101180243      00001520TH CENTURY/JOE SOMEBODY-HO                                                                                                                                   
COMYTV   020101180258      000030MATTEL CANADA INC.                                                                                                                                             
COMYTV   020101180328      000030KELLOGG CANADA INC.                                                                                                                                            
PSAYTV   020101180358180413000015ARTISTS VS RACISM/HOOTIE&BLOWF                                                                                         1 000130                                
PGRYTV   020101180413182951002538SO LITTLE TIME                                    SIBLINGS IN THE CITY  EPS 3                                          2 38307ACC                              
PRCYTV   020101180413      000030YTV PROMO CONTRACT                                                                                                                                             
COMYTV   020101181010      000030BUCKLEY'S                                                                                                                                                      
COMYTV   020101181040      000030K CLARK/KOTEX                                                                                                                                                  
COMYTV   020101181110      000100AMERICAN EXPRESS CANADA INC.                                                                                                                                   
PRCYTV   020101181210      000030YTV PROMO CONTRACT                                                                                                                                             
PRCYTV   020101181240      000015YTV PROMO CONTRACT                                                                                                                                             
COMYTV   020101181849      000030K CLARK/PULL UPS                                                                                                                                               
COMYTV   020101181919      000030BUCKLEY'S                                                                                                                                                      
COMYTV   020101181949      000030DISCOVERY KIDS                                                                                                                                                 
COMYTV   020101182019      000030HIGHWAY ENTERTAINMENT                                                                                                                                          
PRCYTV   020101182049      000030YTV PROMO CONTRACT                                                                                                                                             
SPOYTV   020101182934      000005K CLARK/PULL UPS                                                                                                                                               
ID YTV   020101182939      000012STATION ID                                                                                                                                                     
PGRYTV   020101182951183420000429CAITLIN'S WAY                                     TRUANT EP44                                       RIVIERYTV   CXXXXX 1 35307ACC                              
COMYTV   020101183235      000030HWY/ADULT CPA#1                                                                                                                                                
COMYTV   020101183305      000100AMERICAN EXPRESS CANADA INC.                                                                                                                                   
COMYTV   020101183405      000015SUBWAY SUBS                                                                                                                                                    
PSAYTV   020101183420183435000015WAR AMPS/SPOT DANGER/ASTAR                                                                                             1 000130                                
PGRYTV   020101183435185954002519CAITLIN'S WAY                                     TRUANT EP44                                       RIVIERYTV   CXXXXX 1 35307ACC                              
COMYTV   020101184343      000030HIGHWAY ENTERTAINMENT                                                                                                                                          
COMYTV   020101184413      000030SONY ENTERTAINMENT/THEATRICAL                                                                                                                                  
COMYTV   020101184443      000030GLAXOSMITHKLINE                                                                                                                                                
COMYTV   020101184513      000030MCDONALD'S RESTAURANTS CANADA                                                                                                                                  
COMYTV   020101185658      000030PILLSBURY CANADA INC.                                                                                                                                          
COMYTV   020101185728      000100AMEX/AIRMILES                                                                                                                                                  
COMYTV   020101185828      000030GENERAL MILLS CANADA INC.                                                                                                                                      
ID YTV   020101185942      000012STATION ID                                                                                                                                                     
PGRYTV   020101185954193000003006TWO OF A KIND                                     KEVIN BURKE'S DAY OFF EP20                                           2 38307BCC                              
COMYTV   020101190219      000030K CLARK/PULL UPS                                                                                                                                               
COMYTV   020101190249      000100AMERICAN EXPRESS CANADA INC.                                                                                                                                   
COMYTV   020101190349      000030L'OREAL CANADA                                                                                                                                                 
PRCYTV   020101190419      000030YTV PROMO CONTRACT                                                                                                                                             
PRCYTV   020101190449      000015YTV PROMO CONTRACT                                                                                                                                             
COMYTV   020101191656      000030K CLARK/HUGGIES:30 ULTRA                                                                                                                                       
COMYTV   020101191726      000030MATTEL CANADA INC.                                                                                                                                             
COMYTV   020101191756      000030GLAXOSMITHKLINE                                                                                                                                                
COMYTV   020101191826      000030HASBRO CANADA INC.                                                                                                                                             
PRCYTV   020101191856      000030YTV PROMO CONTRACT                                                                                                                                             
COMYTV   020101192558      000030GENERAL MILLS/TRADITIONAL                                                                                                                                      
COMYTV   020101192628      000030SONY ENTERTAINMENT/THEATRICAL                                                                                                                                  
COMYTV   020101192658      000100AMERICAN EXPRESS CANADA INC.                                                                                                                                   
PRCYTV   020101192758      000015YTV PROMO CONTRACT                                                                                                                                             
PRCYTV   020101192813      000030YTV PROMO CONTRACT                                                                                                                                             
ID YTV   020101192948      000012STATION ID                                                                                                                                                     
PGRYTV   020101193000195958002958SADDLE CLUB                                       JUMPING TO CONCLUSION EP12                        PROTOCYTV   A43916 1 35307ACC                              
COMYTV   020101193134      000030SD 165/SNOW DOGS                                                                                                                                               
COMYTV   020101193204      000030MATTEL CANADA INC.                                                                                                                                             
COMYTV   020101193234      000030KELLOGG CANADA INC.                                                                                                                                            
COMYTV   020101193304      000030LEGO CANADA INC.                                                                                                                                               
COMYTV   020101194344      000030MATTEL CANADA INC.                                                                                                                                             
COMYTV   020101194414      000030PILLSBURY CANADA INC.                                                                                                                                          
COMYTV   020101194444      000030OCEAN SPRAY INTERNATIONAL INC.                                                                                                                                 
COMYTV   020101194514      000030L'OREAL CANADA                                                                                                                                                 
COMYTV   020101195630      000100AMERICAN EXPRESS CANADA INC.                                                                                                                                   
COMYTV   020101195730      000030KELLOGG CANADA INC.                                                                                                                                            
COMYTV   020101195800      000030LEGO CANADA INC.                                                                                                                                               
ID YTV   020101195945      000012STATION ID                                                                                                                                                     
PGRYTV   020101195958200248000250DRAGON BALL Z                                     THE UNLEASHING EPS 170                                        D01860 7 38307ECC2                             
COMYTV   020101200103      000030KOCH/RUDOLPH                                                                                                                                                   
COMYTV   020101200133      000030GENERAL MILLS/NQ                                                                                                                                               
COMYTV   020101200203      00001520TH CENTURY/JOE SOMEBODY-HO                                                                                                                                   
COMYTV   020101200218      000030HIGHWAY ENTERTAINMENT                                                                                                                                          
PSAYTV   020101200248200303000015WAR AMPS/WINNER'S CIRCLE                                                                                               1 000130                                
PGRYTV   020101200303203000002657DRAGON BALL Z                                     THE UNLEASHING EPS 170                                        D01860 7 38307ECC2                             
PRCYTV   020101200303      000030YTV PROMO CONTRACT                                                                                                                                             
COMYTV   020101201407      00003020TH CENTURY/KUNG POW                                                                                                                                          
COMYTV   020101201437      000030GLAXOSMITHKLINE/OXY                                                                                                                                            
COMYTV   020101201507      000100AMERICAN EXPRESS CANADA INC.                                                                                                                                   
PRCYTV   020101201607      000030YTV PROMO CONTRACT                                                                                                                                             
PRCYTV   020101201637      000015YTV PROMO CONTRACT                                                                                                                                             
COMYTV   020101202554      000030GENERAL MILLS/NQ                                                                                                                                               
COMYTV   020101202624      000030HASBRO CANADA INC.                                                                                                                                             
COMYTV   020101202654      000030DISC KIDS/SPIKE EVENT/GEN.AWAR                                                                                                                                 
COMYTV   020101202724      000030MATTEL CANADA INC.                                                                                                                                             
PRCYTV   020101202754      000030YTV PROMO CONTRACT                                                                                                                                             
PRCYTV   020101202824      000030YTV PROMO CONTRACT                                                                                                                                             
ID YTV   020101202948      000012STATION ID                                                                                                                                                     
PGRYTV   020101203000210001003001FREAKY STORIES                                    MAMA'S BOY EP31                                   BIGTIMYTV   A42889 1 35307ECC                              
COMYTV   020101203548      000015MON 164 MONSTERS INC. - WK 9                                                                                                                                   
COMYTV   020101203603      000015HWY/ADULT CPA HU#1                                                                                                                                             
COMYTV   020101203618      000030HASBRO CANADA INC.                                                                                                                                             
COMYTV   020101203648      000030BUCKLEY'S                                                                                                                                                      
COMYTV   020101203718      000030MCDONALD'S RESTAURANTS CANADA                                                                                                                                  
COMYTV   020101204316      000030GENERAL MILLS/CORPORATE BARTER                                                                                                                                 
COMYTV   020101204346      000030SONY ENTERTAINMENT/THEATRICAL                                                                                                                                  
COMYTV   020101204416      000030DISCOVERY KIDS                                                                                                                                                 
COMYTV   020101204446      000030MATTEL CANADA INC.                                                                                                                                             
COMYTV   020101205034      000030GENERAL MILLS/NQ                                                                                                                                               
COMYTV   020101205104      000030GLAXOSMITHKLINE/OXY                                                                                                                                            
COMYTV   020101205134      000100AMERICAN EXPRESS CANADA INC.                                                                                                                                   
ID YTV   020101205949      000012STATION ID                                                                                                                                                     
PGRYTV   020101210001213001003000ADDAMS FAMILY: THE SERIES (#1-65)                 FEUD IN THE ADDAMS FAMILY EP58                    AFS         C15097 1 35307BCC                              
COMYTV   020101210734      000015MON 164 MONSTERS INC. - WK 9                                                                                                                                   
COMYTV   020101210749      000015HWY/ADULT CPA HU#1                                                                                                                                             
COMYTV   020101210804      000030PILLSBURY CANADA INC.                                                                                                                                          
COMYTV   020101210834      000030HASBRO CANADA INC.                                                                                                                                             
COMYTV   020101210904      000030KELLOGG CANADA INC.                                                                                                                                            
PRCYTV   020101210934      000015YTV PROMO CONTRACT                                                                                                                                             
COMYTV   020101211515      000030HWY/ADULT CPA HU#2                                                                                                                                             
COMYTV   020101211545      000030GENERAL MILLS CANADA INC.                                                                                                                                      
COMYTV   020101211615      000030HIGHWAY ENTERTAINMENT                                                                                                                                          
COMYTV   020101211645      000030LEGO CANADA INC.                                                                                                                                               
PRCYTV   020101211715      000030YTV PROMO CONTRACT                                                                                                                                             
COMYTV   020101212549      000100AMERICAN EXPRESS CANADA INC.                                                                                                                                   
COMYTV   020101212649      000030BUCKLEY'S                                                                                                                                                      
COMYTV   020101212719      000030DISCOVERY KIDS                                                                                                                                                 
PRCYTV   020101212749      000030YTV PROMO CONTRACT                                                                                                                                             
ID YTV   020101212949      000012STATION ID                                                                                                                                                     
PGRYTV   020101213001220006003005BREAKER HIGH (#1-44)                              SILENCE OF THE LAMBOEGHINIS                       SHAVIC      SR0291 1 36307ACC                              
COMYTV   020101213209      000030K CLARK/PULL UPS                                                                                                                                               
COMYTV   020101213239      000030GLAXOSMITHKLINE                                                                                                                                                
COMYTV   020101213309      000030MCDONALD'S RESTAURANTS CANADA                                                                                                                                  
COMYTV   020101213339      000030BUENA VISTA PICTURES MARKETING                                                                                                                                 
PRCYTV   020101213409      000030YTV PROMO CONTRACT                                                                                                                                             
PROYTV   020101213439      000030YTV PROMO CONTRACT                                                                                                                                             
COMYTV   020101214232      000030HWY/ADULT BARTER #1                                                                                                                                            
COMYTV   020101214302      000100AMERICAN EXPRESS CANADA INC.                                                                                                                                   
COMYTV   020101214402      000030SONY ENTERTAINMENT/THEATRICAL                                                                                                                                  
PRCYTV   020101214432      000030YTV PROMO CONTRACT                                                                                                                                             
PROYTV   020101214502      000015YTV PROMO CONTRACT                                                                                                                                             
COMYTV   020101215420      000100P&G/BASE BUY                                                                                                                                                   
COMYTV   020101215520      000030HWY/WOMEN CPA                                                                                                                                                  
COMYTV   020101215550      000030OCEAN SPRAY INTERNATIONAL INC.                                                                                                                                 
PROYTV   020101215620      000030YTV PROMO CONTRACT                                                                                                                                             
PRCYTV   020101215650      000030YTV PROMO CONTRACT                                                                                                                                             
ID YTV   020101215954      000012STATION ID                                                                                                                                                     
PGRYTV   020101220006223009003003RADIO ACTIVE (#1-26)                              THE RADIO ACTIVISTS EP18                          TELEACYTV   C14677 1 35307BCC                              
COMYTV   020101221001      000100P&G/BASE BUY                                                                                                                                                   
COMYTV   020101221101      000030HWY/ADULT BARTER #1                                                                                                                                            
COMYTV   020101221131      000030HASBRO CANADA INC.                                                                                                                                             
COMYTV   020101221842      000030HWY/ADULT CPA#1                                                                                                                                                
COMYTV   020101221912      000030CANADIAN BLOOD SERVI                                                                                                                                           
COMYTV   020101221942      000030LEGO CANADA INC.                                                                                                                                               
COMYTV   020101222012      000030MATTEL CANADA INC.                                                                                                                                             
COMYTV   020101222632      000030HWY/ADULT CPA HU#2                                                                                                                                             
COMYTV   020101222702      000030HWY/ADULT BARTER #1                                                                                                                                            
COMYTV   020101222732      000030SONY ENT/MOTHMAN PROPHECIES                                                                                                                                    
COMYTV   020101222802      000030GLAXOSMITHKLINE                                                                                                                                                
ID YTV   020101222957      000012STATION ID                                                                                                                                                     
PGRYTV   020101223009225455002446STUDENT BODIES                                    CYRANO DE CODY EP13                               STUDEN      A22508 1 35307ACC                              
COMYTV   020101223406      000030HWY/WOMEN CPA HU                                                                                                                                               
COMYTV   020101223436      000100AMERICAN EXPRESS CANADA INC.                                                                                                                                   
COMYTV   020101223536      000030HWY/ADULT CPA#1                                                                                                                                                
COMYTV   020101224346      000030HWY/WOMEN CPA HU                                                                                                                                               
COMYTV   020101224416      000030K CLARK/HUGGIES:30 ULTRA                                                                                                                                       
COMYTV   020101224446      000030HWY/WOMEN CPA                                                                                                                                                  
COMYTV   020101224516      000015SUBWAY SUBS                                                                                                                                                    
COMYTV   020101224531      00001520TH CENTURY/JOE SOMEBODY-HO                                                                                                                                   
COMYTV   020101225310      000015HWY/ADULT CPA HU#1                                                                                                                                             
COMYTV   020101225325      000100AMERICAN EXPRESS CANADA INC.                                                                                                                                   
COMYTV   020101225425      000030PILLSBURY CANADA INC.                                                                                                                                          
PSAYTV   020101225455225510000015ARTISTS VS RACISM/HOOTIE&BLOWF                                                                                         1 000130                                
PGRYTV   020101225510230011000501STUDENT BODIES                                    CYRANO DE CODY EP13                               STUDEN      A22508 1 35307ACC                              
PRCYTV   020101225510      000030YTV PROMO CONTRACT                                                                                                                                             
ID YTV   020101225957      000012STATION ID                                                                                                                                                     
PGRYTV   020101230011232631002620BIG WOLF ON CAMPUS                                HELLO NASTY EP23                                  TELESCYTV   A45063 1 35307BCC                              
COMYTV   020101230653      000030HWY/WOMEN CPA                                                                                                                                                  
COMYTV   020101230723      000030BUCKLEY'S                                                                                                                                                      
COMYTV   020101230753      000030SONY ENTERTAINMENT/THEATRICAL                                                                                                                                  
COMYTV   020101230823      000030MATTEL CANADA INC.                                                                                                                                             
PRCYTV   020101230853      000015YTV PROMO CONTRACT                                                                                                                                             
PRCYTV   020101230908      000030YTV PROMO CONTRACT                                                                                                                                             
COMYTV   020101231831      000030K CLARK/PULL UPS                                                                                                                                               
COMYTV   020101231901      000015HWY/ADULT CPA HU#1                                                                                                                                             
COMYTV   020101231916      000015SUBWAY SUBS                                                                                                                                                    
COMYTV   020101231931      000030LEGO CANADA INC.                                                                                                                                               
COMYTV   020101232001      000030GENERAL MILLS CANADA INC.                                                                                                                                      
PRCYTV   020101232031      000030YTV PROMO CONTRACT                                                                                                                                             
COMYTV   020101232501      000030HWY/ADULT CPA HU#2                                                                                                                                             
COMYTV   020101232531      000100AMERICAN EXPRESS CANADA INC.                                                                                                                                   
PSAYTV   020101232631232701000030PSA/CANADIANBROADCAST STANDARD                                                                                         1 000130                                
PGRYTV   020101232701233009000308BIG WOLF ON CAMPUS                                HELLO NASTY EP23                                  TELESCYTV   A45063 1 35307BCC                              
PRCYTV   020101232701      000030YTV PROMO CONTRACT                                                                                                                                             
ID YTV   020101232954      000012STATION ID                                                                                                                                                     
PGRYTV   020101233009233856000847BIG MEG LITTLE MEG                                LUCKY CHARM BAD PENNY EP3                                            3 38307ACC                              
COMYTV   020101233711      000030HWY/WOMEN CPA                                                                                                                                                  
COMYTV   020101233741      000015HWY/ADULT CPA HU#1                                                                                                                                             
COMYTV   020101233756      000030HWY/ADULT BARTER #1                                                                                                                                            
COMYTV   020101233826      000030HASBRO CANADA INC.                                                                                                                                             
PSAYTV   020101233856233915000019ARTISTS VS RACISM/HOOTIE&BLOWF                                                                                         1 000130                                
PGRYTV   020101233915000013002058BIG MEG LITTLE MEG                                LUCKY CHARM BAD PENNY EP3                                            3 38307ACC                              
COMYTV   020101234403      000100P&G/BASE BUY                                                                                                                                                   
COMYTV   020101234503      000030SONY ENT/MOTHMAN PROPHECIES                                                                                                                                    
COMYTV   020101234533      000030MATTEL CANADA INC.                                                                                                                                             
COMYTV   020101235300      000030HWY/ADULT CPA#1                                                                                                                                                
COMYTV   020101235330      000030MATTEL CANADA INC.                                                                                                                                             
COMYTV   020101235400      000100AMERICAN EXPRESS CANADA INC.                                                                                                                                   
ID YTV   020101235958      000012STATION ID                                                                                                                                                     
PGRYTV   020101000013003706003653ARE YOU BEING SERVED?                             GAMBLING FEVER                                                       3 38807BCC                              
COMYTV   020101000858      000030HWY/WOMEN CPA HU                                                                                                                                               
COMYTV   020101000928      000015HWY/ADULT CPA HU#1                                                                                                                                             
COMYTV   020101000943      000015SUBWAY/CORPORATE :15'S                                                                                                                                         
COMYTV   020101000958      000030MATTEL CANADA INC.                                                                                                                                             
COMYTV   020101001028      000030KELLOGG CANADA INC.                                                                                                                                            
COMYTV   020101002056      000100P&G/BASE BUY                                                                                                                                                   
COMYTV   020101002156      000030SUBWAY/CORPORATE :30'S                                                                                                                                         
COMYTV   020101002226      000030BUCKLEY'S                                                                                                                                                      
COMYTV   020101002759      000100P&G/BASE BUY                                                                                                                                                   
COMYTV   020101002859      000015SUBWAY/CORPORATE :15'S                                                                                                                                         
COMYTV   020101002914      000015HWY/ADULT CPA HU#1                                                                                                                                             
COMYTV   020101002929      000030LEGO CANADA INC.                                                                                                                                               
COMYTV   020101002959      000030L'OREAL CANADA                                                                                                                                                 
ID YTV   020101003652      000012STATION ID                                                                                                                                                     
PGRYTV   020101003706011312003606KEEPING UP APPEARANCES                            EPS 37                                                               3 38807BCC                              
COMYTV   020101004907      000030HWY/ADULT CPA#1                                                                                                                                                
COMYTV   020101004937      00001520TH CENTURY/JOE SOMEBODY-HO                                                                                                                                   
COMYTV   020101004952      000015HWY/ADULT CPA HU#1                                                                                                                                             
COMYTV   020101005007      000100AMEX/AIRMILES                                                                                                                                                  
COMYTV   020101005720      000030HWY/WOMEN CPA HU                                                                                                                                               
COMYTV   020101005750      000030BUCKLEY'S                                                                                                                                                      
COMYTV   020101005820      000030SUBWAY/CORPORATE :30'S                                                                                                                                         
COMYTV   020101005850      000030GLAXOSMITHKLINE                                                                                                                                                
COMYTV   020101010556      000030HWY/ADULT CPA HU#2                                                                                                                                             
COMYTV   020101010626      000100AMEX/AIRMILES                                                                                                                                                  
COMYTV   020101010726      000030BUCKLEY'S                                                                                                                                                      
COMYTV   020101010756      000030DISCOVERY KIDS                                                                                                                                                 
ID YTV   020101011301      000012STATION ID                                                                                                                                                     
PGRYTV   020101011312014328003016YES MINISTER                                      ONE OF US?                                                           3 38807BCC                              
COMYTV   020101011715      000030SUBWAY/CORPORATE :30'S                                                                                                                                         
COMYTV   020101011745      000100AMERICAN EXPRESS CANADA INC.                                                                                                                                   
COMYTV   020101011845      000030HWY/ADULT BARTER #1                                                                                                                                            
COMYTV   020101012517      000030MCDONALD'S RESTAURANTS CANADA                                                                                                                                  
COMYTV   020101012547      000030SONY ENTERTAINMENT/THEATRICAL                                                                                                                                  
COMYTV   020101012617      000030PILLSBURY CANADA INC.                                                                                                                                          
COMYTV   020101012647      000030GENERAL MILLS CANADA INC.                                                                                                                                      
COMYTV   020101013517      000030HWY/WOMEN CPA                                                                                                                                                  
COMYTV   020101013547      000030MATTEL CANADA INC.                                                                                                                                             
COMYTV   020101013617      000100P&G/BASE BUY                                                                                                                                                   
COMYTV   020101013717      000030LEGO CANADA INC.                                                                                                                                               
ID YTV   020101014316      000012STATION ID                                                                                                                                                     
PGRYTV   020101014328021258002930ROCKY & BULLWINKLE                                EPS 139                                                              2 38307E                                
COMYTV   020101014856      000100AMERICAN EXPRESS CANADA INC.                                                                                                                                   
COMYTV   020101014956      000030GENERAL MILLS CANADA INC.                                                                                                                                      
COMYTV   020101015026      000030HASBRO CANADA INC.                                                                                                                                             
COMYTV   020101015649      000030SONY ENTERTAINMENT/THEATRICAL                                                                                                                                  
COMYTV   020101015719      000030MCDONALD'S RESTAURANTS CANADA                                                                                                                                  
COMYTV   020101015749      000030L'OREAL CANADA                                                                                                                                                 
COMYTV   020101015819      000030PILLSBURY CANADA INC.                                                                                                                                          
COMYTV   020101020510      000100P&G/BASE BUY                                                                                                                                                   
COMYTV   020101020610      000100AMERICAN EXPRESS CANADA INC.                                                                                                                                   
COMYTV   020101020710      000030HASBRO CANADA INC.                                                                                                                                             
ID YTV   020101021246      000012STATION ID                                                                                                                                                     
PGRYTV   020101021258024258003000MONSTER BY MISTAKE                                CAMPSITE CREEPER EP7                              MONSTEYTV   A21771 1 35307ECC                              
COMYTV   020101022059      000030CANADIAN BLOOD SERVI                                                                                                                                           
COMYTV   020101022129      000030HWY/ADULT CPA HU#2                                                                                                                                             
COMYTV   020101022159      000030HASBRO CANADA INC.                                                                                                                                             
COMYTV   020101022229      000030L'OREAL CANADA                                                                                                                                                 
COMYTV   020101023042      000100P&G/BASE BUY                                                                                                                                                   
COMYTV   020101023142      000030MATTEL CANADA INC.                                                                                                                                             
COMYTV   020101023212      000030KELLOGG CANADA INC.                                                                                                                                            
COMYTV   020101023952      000100P&G/BASE BUY                                                                                                                                                   
COMYTV   020101024052      000100AMERICAN EXPRESS CANADA INC.                                                                                                                                   
ID YTV   020101024246      000012STATION ID                                                                                                                                                     
PGRYTV   020101024258031043002745RUGRATS                                           WHAT'S YOUR LINE/TWO EP107                                           2 38307ECC                              
COMYTV   020101024350      000030BUCKLEY'S                                                                                                                                                      
COMYTV   020101024420      000030DISCOVERY KIDS                                                                                                                                                 
COMYTV   020101025602      000100P&G/BASE BUY                                                                                                                                                   
COMYTV   020101030814      000015SUBWAY/CORPORATE :15'S                                                                                                                                         
COMYTV   020101030829      000015HWY/ADULT CPA HU#1                                                                                                                                             
COMYTV   020101030844      000030BUENA VISTA PICTURES MARKETING                                                                                                                                 
COMYTV   020101030914      000030MATTEL CANADA INC.                                                                                                                                             
ID YTV   020101031031      000012STATION ID                                                                                                                                                     
PGRYTV   020101031043033846002803GUNDAM WING                                       LONELY BATTFIELD EP33                                                7 38307ECC                              
COMYTV   020101031719      000030NETWORK PROMOTION                                                                                                                                              
COMYTV   020101031749      000030HWY/ADULT CPA#1                                                                                                                                                
COMYTV   020101031819      000100AMERICAN EXPRESS CANADA INC.                                                                                                                                   
COMYTV   020101032514      000030GLAXOSMITHKLINE                                                                                                                                                
COMYTV   020101032544      000030PILLSBURY CANADA INC.                                                                                                                                          
COMYTV   020101033150      000030NETWORK PROMOTION                                                                                                                                              
COMYTV   020101033220      000030KELLOGG CANADA INC.                                                                                                                                            
ID YTV   020101033834      000012STATION ID                                                                                                                                                     
PGRYTV   020101033846040730002844CATDOG                                            SEND IN THE/FISHING FOR EP21                                         2 38307ECC                              
COMYTV   020101033940      000100AMERICAN EXPRESS CANADA INC.                                                                                                                                   
COMYTV   020101034040      000030MCDONALD'S RESTAURANTS CANADA                                                                                                                                  
COMYTV   020101034110      000030MATTEL CANADA INC.                                                                                                                                             
COMYTV   020101035201      000030MATTEL CANADA INC.                                                                                                                                             
COMYTV   020101035231      000030OCEAN SPRAY INTERNATIONAL INC.                                                                                                                                 
COMYTV   020101040430      000030HWY/WOMEN CPA                                                                                                                                                  
COMYTV   020101040500      000100AMERICAN EXPRESS CANADA INC.                                                                                                                                   
COMYTV   020101040600      000030GENERAL MILLS CANADA INC.                                                                                                                                      
ID YTV   020101040718      000012STATION ID                                                                                                                                                     
PGRYTV   020101040730043526002756HEY ARNOLD                                        HELGA'S SHOW/THE FLOOD EP58                                          2 38307ECC                              
COMYTV   020101041303      000030LEGO CANADA INC.                                                                                                                                               
COMYTV   020101041333      000030PILLSBURY CANADA INC.                                                                                                                                          
COMYTV   020101042030      000100AMEX/AIRMILES                                                                                                                                                  
COMYTV   020101042130      000030OCEAN SPRAY INTERNATIONAL INC.                                                                                                                                 
COMYTV   020101042200      00001520TH CENTURY FOX                                                                                                                                               
COMYTV   020101042658      000100P&G/BASE BUY                                                                                                                                                   
ID YTV   020101043514      000012STATION ID                                                                                                                                                     
PGRYTV   020101043526050359002833UH OH!                                            EPS 131                                                              1 313100CC                              
COMYTV   020101043833      000100P&G/BASE BUY                                                                                                                                                   
COMYTV   020101043933      000030GENERAL MILLS CANADA INC.                                                                                                                                      
COMYTV   020101044003      000030HIGHWAY ENTERTAINMENT                                                                                                                                          
COMYTV   020101044740      000030MCDONALD'S RESTAURANTS CANADA                                                                                                                                  
COMYTV   020101044810      000030MATTEL CANADA INC.                                                                                                                                             
COMYTV   020101045429      000100P&G/BASE BUY                                                                                                                                                   
COMYTV   020101045529      000030HWY/ADULT BARTER #1                                                                                                                                            
COMYTV   020101045559      000030SONY ENTERTAINMENT/THEATRICAL                                                                                                                                  
ID YTV   020101050347      000012STATION ID                                                                                                                                                     
PGRYTV   020101050359053034002635DIGIMON                                           KYOTO DRAGON EP91                                                    7 38307ECC                              
COMYTV   020101050942      000030BUCKLEY'S                                                                                                                                                      
COMYTV   020101051012      000015HWY/ADULT CPA HU#1                                                                                                                                             
COMYTV   020101051027      000100AMERICAN EXPRESS CANADA INC.                                                                                                                                   
COMYTV   020101051127      000015SUBWAY SUBS                                                                                                                                                    
