PGRYTV   040101060000062603002603UH OH!                                            EPS 224                                                              1 311110CC                              
PRCYTV   040101060312      000030YTV PROMO CONTRACT                                                                                                                                             
PRCYTV   040101060342      000030YTV PROMO CONTRACT                                                                                                                                             
PRCYTV   040101061049      000030YTV PROMO CONTRACT                                                                                                                                             
PRCYTV   040101061710      000030YTV PROMO CONTRACT                                                                                                                                             
PRCYTV   040101061740      000030YTV PROMO CONTRACT                                                                                                                                             
INTYTV   040101062603063000000357CHIP 'N' ORBIT                                    EPS 58                                                               1 311120CC                              
ID YTV   040101062948      000012STATION ID                                                                                                                                                     
PGRYTV   040101063000065548002548STICKIN' AROUND                                   WHAT'S/DODDLERS EP24                              NELVANYTV   A10450 1 32107ECC                              
PRCYTV   040101063106      000015YTV PROMO CONTRACT                                                                                                                                             
PRCYTV   040101063121      000030YTV PROMO CONTRACT                                                                                                                                             
PRCYTV   040101064228      000030YTV PROMO CONTRACT                                                                                                                                             
PRCYTV   040101065333      000030YTV PROMO CONTRACT                                                                                                                                             
INTYTV   040101065548065848000300NANALAN'                                          RUSSELL'S ITCH EP16                                                  1 351120                                
INTYTV   040101065848070000000112DINGA                                             EPS 17                                                               7 381120                                
ID YTV   040101065948      000012STATION ID                                                                                                                                                     
PGRYTV   040101070000072147002147HAMTARO                                           NIN-HAM THE NINJA   EPS 88                                    D02043 7 38107E  2                             
PRCYTV   040101070114      000030YTV PROMO CONTRACT                                                                                                                                             
PRCYTV   040101070742      000015YTV PROMO CONTRACT                                                                                                                                             
PRCYTV   040101071402      000030YTV PROMO CONTRACT                                                                                                                                             
PGRYTV   040101072147072847000700ELLIOT MOOSE                                      SCAREDY CAT EP42                                  NELVAN      A25753 1 32107GCC                              
PRCYTV   040101072818      000030YTV PROMO CONTRACT                                                                                                                                             
INTYTV   040101072847073000000113STICKIN' AROUND                                   CASA BLANK STARE                                                     1 321120CC                              
ID YTV   040101072948      000012STATION ID                                                                                                                                                     
PGRYTV   040101073000075326002326WOODY WOODPECKER (NEW)                            WILD/FASHION/MOUNTAIN  EPS 49                                        2 38107ECC                              
PRCYTV   040101073037      000030YTV PROMO CONTRACT                                                                                                                                             
PRCYTV   040101073808      000030YTV PROMO CONTRACT                                                                                                                                             
PRCYTV   040101074537      000030YTV PROMO CONTRACT                                                                                                                                             
INTYTV   040101075326075711000345CHIP 'N' ORBIT                                    EPS 59                                                               1 311120CC                              
INTYTV   040101075711080008000257BIG SISTER, LITTLE BROTHER                        THE MEANIES EPS 15                                                   3 381120                                
ID YTV   040101075956      000012STATION ID                                                                                                                                                     
PGRYTV   040101080008082547002539RUGRATS                                           CRADLE/MOVING AWAY                                                   2 38107ECC                              
PRCYTV   040101080536      000015YTV PROMO CONTRACT                                                                                                                                             
PRCYTV   040101081233      000015YTV PROMO CONTRACT                                                                                                                                             
PRCYTV   040101081905      000030YTV PROMO CONTRACT                                                                                                                                             
PRCYTV   040101081935      000030YTV PROMO CONTRACT                                                                                                                                             
INTYTV   040101082547082848000301NANALAN'                                          RUSSELL'S DINNER EP17                                                1 351120                                
INTYTV   040101082848083000000112STICKIN' AROUND                                   JUMBO FRANK                                                          1 321120CC                              
ID YTV   040101082948      000012STATION ID                                                                                                                                                     
PGRYTV   040101083000085332002332MONA THE VAMPIRE                                  FORTUNE COOKIE/PIXIES EP19.                       FANCYCYTV   A18429 1 35107ECC                              
PGRYTV   040101085332090014000642ELLIOT MOOSE                                      RED RIDING SOCKS EP43                             NELVAN      A25752 1 32107GCC                              
ID YTV   040101090002      000012STATION ID                                                                                                                                                     
PGRYTV   040101090014092428002414RUPERT                                            EPS 20-RUPERT AND UNCLE GRIZZL                    NELVANYTV   P12970 1 32107ECC                              
INTYTV   040101092428092600000132NELVANA INTERSTITIALS                             MY FAIR ONE                                                          1 321120                                
INTYTV   040101092600092700000100STICKIN' AROUND                                   BYE BYE BABY BIRDIE                                                  1 321120CC                              
INTYTV   040101092700093000000300NELVANA INTERSTITIALS                             VOYAGE TO THE BOTTOM                                                 1 321120                                
PRCYTV   040101092848      000030YTV PROMO CONTRACT                                                                                                                                             
PRCYTV   040101092918      000030YTV PROMO CONTRACT                                                                                                                                             
ID YTV   040101092948      000012STATION ID                                                                                                                                                     
PGRYTV   040101093000095240002240CARE BEARS                                        COOKING CORNER/FACTS & FABLES                     NELVAN      C07540 1 32107E                                
PRCYTV   040101095132      000030YTV PROMO CONTRACT                                                                                                                                             
PRCYTV   040101095202      000030YTV PROMO CONTRACT                                                                                                                                             
INTYTV   040101095240095648000408NANALAN'                                          RUSSELL'S BALLOON EP18                                               1 351120                                
PRCYTV   040101095540      000030YTV PROMO CONTRACT                                                                                                                                             
PRCYTV   040101095610      000030YTV PROMO CONTRACT                                                                                                                                             
INTYTV   040101095648100000000312NANALAN'                                          SNAKE EP19                                                           1 351120                                
ID YTV   040101095948      000012STATION ID                                                                                                                                                     
PGRYTV   040101100000102405002405D'MYNA LEAGUES                                    SKIN DEEP (PS)         EPS 17                     D'MYNAYTV   A54167 1 35107ECC                              
PRCYTV   040101102245      000015YTV PROMO CONTRACT                                                                                                                                             
PRCYTV   040101102300      000030YTV PROMO CONTRACT                                                                                                                                             
PRCYTV   040101102330      000030YTV PROMO CONTRACT                                                                                                                                             
INTYTV   040101102405102750000345CHIP 'N' ORBIT                                    EPS 60                                                               1 311120CC                              
PGRYTV   040101102750103000000210EVERYDAY HEROES                                   TREE  EP 6                                                           1 311120                                
ID YTV   040101102948      000012STATION ID                                                                                                                                                     
PGRYTV   040101103000105318002318MONSTER BY MISTAKE                                MONSTER A GO GO EP11.                             MONSTEYTV   A21775 1 35107ECC                              
PRCYTV   040101105303      000015YTV PROMO CONTRACT                                                                                                                                             
PGRYTV   040101105318110001000643ELLIOT MOOSE                                      FLOWER-SPOTTED DRAGON EP44                        NELVAN      A25754 1 32107GCC                              
ID YTV   040101105948      000012STATION ID                                                                                                                                                     
PGRYTV   040101110001112526002525STICKIN' AROUND                                   SLIME A BEAN/VOICE OF EP33                        NELVANYTV   A26968 1 32107ECC                              
PRCYTV   040101110106      000030YTV PROMO CONTRACT                                                                                                                                             
PRCYTV   040101110136      000015YTV PROMO CONTRACT                                                                                                                                             
PRCYTV   040101111225      000030YTV PROMO CONTRACT                                                                                                                                             
PRCYTV   040101112330      000030YTV PROMO CONTRACT                                                                                                                                             
INTYTV   040101112526112730000204NELVANA INTERSTITIALS                             HIGH NOON                                                            1 321120                                
INTYTV   040101112730113000000230NELVANA INTERSTITIALS                             GONE BUT NOT FORGOTTEN                                               1 321120                                
PRCYTV   040101112848      000030YTV PROMO CONTRACT                                                                                                                                             
PRCYTV   040101112918      000030YTV PROMO CONTRACT                                                                                                                                             
ID YTV   040101112948      000012STATION ID                                                                                                                                                     
PGRYTV   040101113000115158002158FLYING RHINO JUNIOR HIGH                          COMIC BOOK CHAOS         EPS 8                    NELVAN             1 32107ECC                              
INTYTV   040101115158115603000405NANALAN'                                          HULA, HULA EP20                                                      1 351120                                
PRCYTV   040101115458      000030YTV PROMO CONTRACT                                                                                                                                             
PRCYTV   040101115528      000030YTV PROMO CONTRACT                                                                                                                                             
INTYTV   040101115603120000000357CHIP 'N' ORBIT                                    EPS 61                                                               1 311120CC                              
ID YTV   040101115948      000012STATION ID                                                                                                                                                     
PGRYTV   040101120000122602002602SPONGEBOB SQUAREPANTS                             S.B.129/KARATE CHOPPERS EP14                                         2 38107ECC                              
PRCYTV   040101120049      000030YTV PROMO CONTRACT                                                                                                                                             
PRCYTV   040101121256      000015YTV PROMO CONTRACT                                                                                                                                             
PRCYTV   040101121311      000030YTV PROMO CONTRACT                                                                                                                                             
PRCYTV   040101122448      000030YTV PROMO CONTRACT                                                                                                                                             
INTYTV   040101122602122852000250CHIP 'N' ORBIT                                    EPS 62                                                               1 311120CC                              
PGRYTV   040101122852130000003108MARTIN MYSTERY                                    CURSE OF THE DEEP        EPS 4                    MYSTERYTV   A85370 1 35107ECC                              
ID YTV   040101122948      000012STATION ID                                                                                                                                                     
PRCYTV   040101123611      000030YTV PROMO CONTRACT                                                                                                                                             
PRCYTV   040101123641      000030YTV PROMO CONTRACT                                                                                                                                             
PRCYTV   040101123711      000030YTV PROMO CONTRACT                                                                                                                                             
PRCYTV   040101123741      000030YTV PROMO CONTRACT                                                                                                                                             
PRCYTV   040101124436      000030YTV PROMO CONTRACT                                                                                                                                             
PRCYTV   040101124506      000030YTV PROMO CONTRACT                                                                                                                                             
PRCYTV   040101124536      000030YTV PROMO CONTRACT                                                                                                                                             
PRCYTV   040101124606      000030YTV PROMO CONTRACT                                                                                                                                             
PRCYTV   040101125133      000030YTV PROMO CONTRACT                                                                                                                                             
PRCYTV   040101125203      000030YTV PROMO CONTRACT                                                                                                                                             
PRCYTV   040101125233      000030YTV PROMO CONTRACT                                                                                                                                             
PRCYTV   040101125303      000030YTV PROMO CONTRACT                                                                                                                                             
ID YTV   040101125948      000012STATION ID                                                                                                                                                     
PGRYTV   040101130000142018012018RUGRATS THE MOVIE                                 THE RUGRATS MOVIE PS VERSION                                         2 38107ECC                              
PRCYTV   040101141955      000015YTV PROMO CONTRACT                                                                                                                                             
PGRYTV   040101142018143000000942ANIMANIACS                                        SODA JERK - FILLER        EP86                                       2 38307ECC                              
ID YTV   040101142948      000012STATION ID                                                                                                                                                     
PGRYTV   040101143000145747002747THE BOY                                           POKEBOY                EPS 1                      TOONCAYTV   A58634 1 25107ECC                              
PRCYTV   040101143923      000030YTV PROMO CONTRACT                                                                                                                                             
PRCYTV   040101143953      000030YTV PROMO CONTRACT                                                                                                                                             
PRCYTV   040101144023      000030YTV PROMO CONTRACT                                                                                                                                             
PRCYTV   040101144053      000030YTV PROMO CONTRACT                                                                                                                                             
PRCYTV   040101144819      000015YTV PROMO CONTRACT                                                                                                                                             
PRCYTV   040101144834      000030YTV PROMO CONTRACT                                                                                                                                             
PRCYTV   040101144904      000030YTV PROMO CONTRACT                                                                                                                                             
PRCYTV   040101145652      000030YTV PROMO CONTRACT                                                                                                                                             
INTYTV   040101145747145847000100ANIME MINUTES                                     EPS 23                                                               1 323120                                
INTYTV   040101145847150000000113ANIME MINUTES                                     EPS 24                                                               1 313120CC                              
ID YTV   040101145948      000012STATION ID                                                                                                                                                     
PGRYTV   040101150000152848002848FAIRLY ODD PARENTS                                SECRET ORIGIN OF DENZEL C EP34                                       2 38307ECC                              
SPOYTV   040101150051      000010YTV CREATIVE/SUPASTAR PROMOTIO                                                                                                                                 
COMYTV   040101150101      000030MATTEL/BONUS                                                                                                                                                   
COMYTV   040101150131      000030LEGO/BONUS                                                                                                                                                     
COMYTV   040101151331      000015KRAFT/KIDS BONUS                                                                                                                                               
COMYTV   040101151346      000030PARMALAT/CHEESESTRINGS                                                                                                                                         
COMYTV   040101151416      000030I TOYS                                                                                                                                                         
COMYTV   040101151446      000015HASBRO CANADA INC.                                                                                                                                             
COMYTV   040101151501      000030GENERAL MILLS CANADA INC.                                                                                                                                      
COMYTV   040101152700      000030LEGO CANADA INC.                                                                                                                                               
COMYTV   040101152730      000030MATTEL CANADA INC.                                                                                                                                             
INTYTV   040101152848153000000112ANIME MINUTES                                     EPS 24                                                               1 313120                                
PGRYTV   040101153000155736002736MY LIFE AS A TEENAGE ROBOT                        IT CAME FROM NEXT DOOR/PEST                                          2 28307ECC                              
COMYTV   040101153041      000030BVP/TEACHERS PET                                                                                                                                               
COMYTV   040101153111      000030BOWLING PROPRIETORS ASSOC OF C                                                                                                                                 
PRCYTV   040101153141      000030YTV PROMO CONTRACT                                                                                                                                             
COMYTV   040101154325      000015KRAFT/KIDS BONUS                                                                                                                                               
COMYTV   040101154340      000030MATTEL/BONUS                                                                                                                                                   
COMYTV   040101154410      000030CAMPBELLS/GOLDFISH                                                                                                                                             
COMYTV   040101154440      000030HASBRO CANADA INC.                                                                                                                                             
COMYTV   040101154510      000015LEGO CANADA INC.                                                                                                                                               
COMYTV   040101155631      000030YOUTH BOWLING COUNCIL                                                                                                                                          
COMYTV   040101155701      000030HASBRO CANADA INC.                                                                                                                                             
INTYTV   040101155736155959000223PROGRAM JOCKEY                                    PROGRAM JOCKEY                                                       1 213120                                
ID YTV   040101155948      000012STATION ID                                                                                                                                                     
PGRYTV   040101155959162754002755JIMMY NEUTRON                                     EGGPIRE STRIKES BACK-PT1  EP16                                       2 38307ECC                              
COMYTV   040101160041      000030MCDONALD'S RESTAURANTS CANADA                                                                                                                                  
COMYTV   040101160111      000030GENERAL MILLS CANADA INC.                                                                                                                                      
PRCYTV   040101160141      000030YTV PROMO CONTRACT                                                                                                                                             
PRCYTV   040101160211      000015YTV PROMO CONTRACT                                                                                                                                             
COMYTV   040101161301      000015KRAFT/KIDS BONUS                                                                                                                                               
COMYTV   040101161316      000030CAMPBELLS/GOLDFISH                                                                                                                                             
COMYTV   040101161346      000030MATTEL CANADA INC.                                                                                                                                             
COMYTV   040101161416      000030PARMALAT                                                                                                                                                       
COMYTV   040101161446      000015HASBRO CANADA INC.                                                                                                                                             
COMYTV   040101162619      000015LEGO/BONUS                                                                                                                                                     
COMYTV   040101162634      000030MATTEL/BONUS                                                                                                                                                   
COMYTV   040101162704      000015ATARI                                                                                                                                                          
PRCYTV   040101162719      000015YTV PROMO CONTRACT                                                                                                                                             
PRCYTV   040101162734      000015YTV PROMO CONTRACT                                                                                                                                             
INTYTV   040101162754163000000206PROGRAM JOCKEY                                    PROGRAM JOCKEY                                                       1 213120                                
ID YTV   040101162948      000012STATION ID                                                                                                                                                     
PGRYTV   040101163000165844002844JIMMY NEUTRON                                     EGGPIRE STRIKES BACK PT2  EP17                                       2 38307ECC                              
COMYTV   040101163041      000030MATTEL CANADA INC.                                                                                                                                             
COMYTV   040101163111      000030I TOYS                                                                                                                                                         
COMYTV   040101164343      000015KRAFT/KIDS BONUS                                                                                                                                               
COMYTV   040101164358      000030MATTEL CANADA INC.                                                                                                                                             
COMYTV   040101164428      000030HASBRO CANADA INC.                                                                                                                                             
COMYTV   040101164458      000030KELLOGG/RICE KRISPIE SQUARE BA                                                                                                                                 
COMYTV   040101164528      000015HASBRO CANADA INC.                                                                                                                                             
COMYTV   040101165640      000030MATTEL/BONUS                                                                                                                                                   
COMYTV   040101165710      000030CAMPBELLS/GOLDFISH                                                                                                                                             
INTYTV   040101165844170007000123PROGRAM JOCKEY                                    PROGRAM JOCKEY                                                       1 213120                                
ID YTV   040101165948      000012STATION ID                                                                                                                                                     
PGRYTV   040101170007172815002808JIMMY NEUTRON                                     PROF CALAMITOUS/JOURNEY  EPS12                                       2 38307ECC                              
COMYTV   040101170041      000030ALLIANCE/ELF BONUS                                                                                                                                             
COMYTV   040101170111      000030BOWLING PROPRIETORS ASSOC OF C                                                                                                                                 
COMYTV   040101171357      000030BVP/TEACHERS PET                                                                                                                                               
COMYTV   040101171427      000030MATTEL CANADA INC.                                                                                                                                             
COMYTV   040101171457      000030GENERAL MILLS CANADA INC.                                                                                                                                      
COMYTV   040101171527      000030MATTEL CANADA INC.                                                                                                                                             
COMYTV   040101172707      000030HASBRO/VARIOUS FALL BONUS                                                                                                                                      
COMYTV   040101172737      000030MATTEL CANADA INC.                                                                                                                                             
INTYTV   040101172815173001000146PROGRAM JOCKEY                                    PROGRAM JOCKEY                                                       1 213120                                
ID YTV   040101172948      000012STATION ID                                                                                                                                                     
PGRYTV   040101173001175738002737JIMMY NEUTRON                                     SLEEPLESS IN RETROVILLE/ULTRA                                        2 38307ECC                              
COMYTV   040101173041      000030PARMALAT/CHEESESTRINGS                                                                                                                                         
COMYTV   040101173111      000030MCDONALD'S RESTAURANTS CANADA                                                                                                                                  
COMYTV   040101174245      000030HASBRO/VARIOUS FALL BONUS                                                                                                                                      
COMYTV   040101174315      000030I TOYS                                                                                                                                                         
COMYTV   040101174345      000030HASBRO CANADA INC.                                                                                                                                             
COMYTV   040101174415      000030BOWLING PROPRIETORS ASSOC OF C                                                                                                                                 
COMYTV   040101175609      000030CAMPBELLS/GOLDFISH                                                                                                                                             
COMYTV   040101175639      000030GENERAL MILLS CANADA INC.                                                                                                                                      
PROYTV   040101175709      000015YTV PROMO CONTRACT                                                                                                                                             
INTYTV   040101175738175958000220PROGRAM JOCKEY                                    PROGRAM JOCKEY                                                       1 213120                                
PGRYTV   040101175958183038003040SPONGEBOB SQUAREPANTS                             S.B.129/KARATE CHOPPERS EP14                                         2 38307ECC                              
SPOYTV   040101180047      000010YTV CREA ME/CONAGRA/SQUEEZN'GO                                                                                                                                 
COMYTV   040101180057      00001520TH CENTURY/CHPR BY TH DOZWK2                                                                                                                                 
COMYTV   040101180112      000030HASBRO/VARIOUS FALL BONUS                                                                                                                                      
COMYTV   040101180142      000030KRAFT CANADA INC.                                                                                                                                              
COMYTV   040101180212      000030ZELLERS INC.                                                                                                                                                   
COMYTV   040101180242      000015HASBRO CANADA INC.                                                                                                                                             
COMYTV   040101181434      000015MGM/UPTOWN GIRLS DVD                                                                                                                                           
COMYTV   040101181449      000030PARMALAT                                                                                                                                                       
COMYTV   040101181519      000030ZELLERS INC.                                                                                                                                                   
COMYTV   040101181549      000030KIMBERLY-CLARK OF CANADA LTD.                                                                                                                                  
COMYTV   040101181619      000015LEGO/BONUS                                                                                                                                                     
COMYTV   040101182741      000030WYETH CONSUMER HEALTHCARE                                                                                                                                      
COMYTV   040101182811      000030CAMPBELLS/GOLDFISH                                                                                                                                             
COMYTV   040101182841      000030MATTEL CANADA INC.                                                                                                                                             
COMYTV   040101182911      000030BUCKLEY'S                                                                                                                                                      
ID YTV   040101183026      000012STATION ID                                                                                                                                                     
PGRYTV   040101183038190042003004ZIXX LEVEL ONE                                    PHUNKEE ZEE          EPS 1                        PHUNKEYTV   C21727 1 25107ACC                              
COMYTV   040101183329      000015MGM/UPTOWN GIRLS DVD                                                                                                                                           
COMYTV   040101183344      000030K CLARK/HUGGIES :30'S ALONE                                                                                                                                    
COMYTV   040101183414      000030LOBLAW'S                                                                                                                                                       
COMYTV   040101183444      000030KRAFT CANADA INC.                                                                                                                                              
COMYTV   040101183514      000015HASBRO CANADA INC.                                                                                                                                             
COMYTV   040101184509      00001520TH CENTURY/CHPR BY TH DOZWK2                                                                                                                                 
COMYTV   040101184524      000030KELLOGG CANADA INC.                                                                                                                                            
COMYTV   040101184554      000030ZELLERS INC.                                                                                                                                                   
COMYTV   040101184624      000015KRAFT CANADA INC.                                                                                                                                              
COMYTV   040101184639      000030BVP/TEACHERS PET                                                                                                                                               
COMYTV   040101185702      000030ALLIANCE/ELF HOLDOVER #10                                                                                                                                      
COMYTV   040101185732      000015ATARI/DRAGONBALL Z                                                                                                                                             
COMYTV   040101185747      000030LOBLAW'S/PRESIDENTS CHOICE                                                                                                                                     
COMYTV   040101185817      000030MATTEL CANADA INC.                                                                                                                                             
COMYTV   040101185847      000015KRAFT/KIDS BONUS                                                                                                                                               
PGRYTV   040101190042193027002945MARTIN MYSTERY                                    CURSE OF THE DEEP        EPS 4                    MYSTERYTV   A85370 1 35307ECC                              
SPOYTV   040101190653      000010YTV CREATIVE/SUPASTAR PROMOTIO                                                                                                                                 
COMYTV   040101190703      000015MGM/UPTOWN GIRLS DVD                                                                                                                                           
COMYTV   040101190718      000100WALT DISNEY/RESORTS-DRTV                                                                                                                                       
COMYTV   040101190818      000030KELLOGG CANADA INC.                                                                                                                                            
COMYTV   040101190848      000015HASBRO CANADA INC.                                                                                                                                             
COMYTV   040101191518      000015BVHV/DISAPPEARING CLASSICS :15                                                                                                                                 
COMYTV   040101191533      000030MATTEL CANADA INC.                                                                                                                                             
COMYTV   040101191603      000030BUCKLEY'S                                                                                                                                                      
COMYTV   040101191633      000030KRAFT CANADA INC.                                                                                                                                              
COMYTV   040101191703      000015LEGO CANADA INC.                                                                                                                                               
COMYTV   040101192205      000030MATTEL/BONUS                                                                                                                                                   
COMYTV   040101192235      000030BOWLING PROPRIETORS ASSOC OF C                                                                                                                                 
COMYTV   040101192305      000030MCDONALD'S RESTAURANTS CANADA                                                                                                                                  
COMYTV   040101192335      000030MATTEL CANADA INC.                                                                                                                                             
ID YTV   040101193014      000012STATION ID                                                                                                                                                     
PGRYTV   040101193027200032003005YVON OF THE YUKON                                 CHEESES OF MONTREAL     EPS 36                    YVON  YTV   A77138 1 35307ECC                              
COMYTV   040101194103      000030BVP/TEACHERS PET                                                                                                                                               
COMYTV   040101194133      000100WALT DISNEY/RESORTS-DRTV                                                                                                                                       
COMYTV   040101194233      000030CAMPBELL SOUP CO. LTD.                                                                                                                                         
COMYTV   040101194938      000030PARMALAT                                                                                                                                                       
COMYTV   040101195008      000030LOBLAW'S                                                                                                                                                       
COMYTV   040101195038      000030GENERAL MILLS CANADA INC.                                                                                                                                      
COMYTV   040101195108      000030MATTEL CANADA INC.                                                                                                                                             
COMYTV   040101195747      000015MGM/UPTOWN GIRLS DVD                                                                                                                                           
COMYTV   040101195802      000030MATTEL/BONUS                                                                                                                                                   
COMYTV   040101195832      000030LEGO CANADA INC.                                                                                                                                               
COMYTV   040101195902      000030MATTEL CANADA INC.                                                                                                                                             
COMYTV   040101195932      000015ATARI/DRAGONBALL Z                                                                                                                                             
ID YTV   040101200017      000012STATION ID                                                                                                                                                     
PGRYTV   040101200032202929002857DRAGON BALL                                       ELIMINATION ROUND      EPS 20                                 D02587 7 38307ECC2                             
COMYTV   040101200135      000030BUCKLEY'S                                                                                                                                                      
COMYTV   040101200205      000030ZELLERS INC.                                                                                                                                                   
COMYTV   040101200235      000030LOBLAW'S                                                                                                                                                       
COMYTV   040101200305      000030KRAFT CANADA INC.                                                                                                                                              
PRCYTV   040101200335      000015YTV PROMO CONTRACT                                                                                                                                             
PRCYTV   040101200350      000015YTV PROMO CONTRACT                                                                                                                                             
COMYTV   040101201301      000030HASBRO CANADA INC.                                                                                                                                             
COMYTV   040101201331      000100WALT DISNEY/RESORTS-DRTV                                                                                                                                       
COMYTV   040101201431      000030HASBRO CANADA INC.                                                                                                                                             
COMYTV   040101202516      00001520TH CENTURY/CHPR BY TH DOZWK2                                                                                                                                 
COMYTV   040101202531      000030MCDONALD'S RESTAURANTS CANADA                                                                                                                                  
COMYTV   040101202601      000030MATTEL CANADA INC.                                                                                                                                             
COMYTV   040101202631      000030CAMPBELL SOUP CO. LTD.                                                                                                                                         
COMYTV   040101202701      000015KRAFT CANADA INC.                                                                                                                                              
PRCYTV   040101202716      000030YTV PROMO CONTRACT                                                                                                                                             
PRCYTV   040101202746      000030YTV PROMO CONTRACT                                                                                                                                             
ID YTV   040101202916      000012STATION ID                                                                                                                                                     
PGRYTV   040101202929205933003004DRAGON BALL Z                                     FIGHTING POWER: ONE EP64                                             7 38307ECC                              
COMYTV   040101203034      000030MATTEL CANADA INC.                                                                                                                                             
COMYTV   040101203104      000030BUCKLEY'S                                                                                                                                                      
COMYTV   040101203134      000030MATTEL CANADA INC.                                                                                                                                             
COMYTV   040101203204      000030BOWLING PROPRIETORS ASSOC OF C                                                                                                                                 
PRCYTV   040101203234      000030YTV PROMO CONTRACT                                                                                                                                             
COMYTV   040101204338      000015MGM/UPTOWN GIRLS DVD                                                                                                                                           
COMYTV   040101204353      000030HASBRO CANADA INC.                                                                                                                                             
COMYTV   040101204423      000030I TOYS                                                                                                                                                         
COMYTV   040101204453      000030ZELLERS INC.                                                                                                                                                   
COMYTV   040101204523      000015HASBRO CANADA INC.                                                                                                                                             
PRCYTV   040101204538      000030YTV PROMO CONTRACT                                                                                                                                             
COMYTV   040101205201      000030K CLARK/BABY WIPES/HUGGIES SPL                                                                                                                                 
COMYTV   040101205231      000030GENERAL MILLS CANADA INC.                                                                                                                                      
COMYTV   040101205301      000030WYETH CONSUMER HEALTHCARE INC.                                                                                                                                 
COMYTV   040101205331      000030MATTEL CANADA INC.                                                                                                                                             
PRCYTV   040101205401      000015YTV PROMO CONTRACT                                                                                                                                             
PRCYTV   040101205416      000030YTV PROMO CONTRACT                                                                                                                                             
PRCYTV   040101205446      000015YTV PROMO CONTRACT                                                                                                                                             
ID YTV   040101205916      000012STATION ID                                                                                                                                                     
SPOYTV   040101205928      000005K CLARK/KOTEX                                                                                                                                                  
PGRYTV   040101205933212933003000GOOSEBUMPS (IV)(1998-99, #401-408)                PT2-DEEP TROUBLE EP72                             PROTOCYTV   SR0294 1 36307ACC                              
SPOYTV   040101210317      000010MAPLE LEAF FOODS/SPEC HIGHLIGH                                                                                                                                 
COMYTV   040101210327      000030KRAFT/AD/WOMEN BONUS                                                                                                                                           
COMYTV   040101210357      000100P&G/CORPORATE-PRE-EMPTIBLE                                                                                                                                     
COMYTV   040101210457      000030HASBRO CANADA INC.                                                                                                                                             
PRCYTV   040101210527      000015YTV PROMO CONTRACT                                                                                                                                             
PRCYTV   040101210542      000030YTV PROMO CONTRACT                                                                                                                                             
COMYTV   040101211325      000030MCDONALDS/CHICKEN NUGGET-WHITE                                                                                                                                 
COMYTV   040101211355      000100PRIMUS CANADA                                                                                                                                                  
COMYTV   040101211455      000030K CLARK/HUGGIES :30'S ALONE                                                                                                                                    
COMYTV   040101212418      000030K CLARK/BABY WIPES/HUGGIES SPL                                                                                                                                 
COMYTV   040101212448      000100WALT DISNEY/RESORTS-DRTV                                                                                                                                       
COMYTV   040101212548      000015KRAFT CANADA INC.                                                                                                                                              
COMYTV   040101212603      000015K CLARK/KOTEX                                                                                                                                                  
SPOYTV   040101212911      000005K CLARK/HUGGIES :30'S ALONE                                                                                                                                    
ID YTV   040101212916      000012STATION ID                                                                                                                                                     
SPOYTV   040101212928      000005K CLARK/KOTEX                                                                                                                                                  
PGRYTV   040101212933220012003039RADIO ACTIVE ( III)(#53-78)                       THE RATINGS WAR EP70                              TELEACYTV   C16978 1 35307BCC                              
COMYTV   040101213836      000100PRIMUS CANADA                                                                                                                                                  
COMYTV   040101213936      000030K CLARK/BABY WIPES/HUGGIES SPL                                                                                                                                 
COMYTV   040101214006      000030HASBRO CANADA INC.                                                                                                                                             
PROYTV   040101214036      000030YTV PROMO CONTRACT                                                                                                                                             
COMYTV   040101214659      000015K CLARK/KOTEX                                                                                                                                                  
COMYTV   040101214714      000030CLOROX/GLAD WASTE :30'S                                                                                                                                        
COMYTV   040101214744      000030MAPLE LEAF FOODS/SPEC HIGHLIGH                                                                                                                                 
COMYTV   040101214814      000030I TOYS                                                                                                                                                         
COMYTV   040101214844      000015HASBRO CANADA INC.                                                                                                                                             
COMYTV   040101215607      000015K CLARK/KOTEX                                                                                                                                                  
COMYTV   040101215622      000100PRIMUS CANADA                                                                                                                                                  
COMYTV   040101215722      000030CAMPBELL SOUP CO. LTD.                                                                                                                                         
COMYTV   040101215752      000015ATARI                                                                                                                                                          
ID YTV   040101215955      000012STATION ID                                                                                                                                                     
SPOYTV   040101220007      000005K CLARK/KOTEX                                                                                                                                                  
PGRYTV   040101220012223037003025READY OR NOT (IV)(#53-65)                         SECOND GENERATION       EPS 62                    INSIGH      C13223 1 15307ACC                              
SPOYTV   040101220307      000010MAPLE LEAF FOODS/SPEC HIGHLIGH                                                                                                                                 
COMYTV   040101220317      000015K CLARK/KOTEX                                                                                                                                                  
COMYTV   040101220332      000030CLOROX/TILEX                                                                                                                                                   
COMYTV   040101220402      000030GENERAL MILLS/BASE CRESCENTS                                                                                                                                   
COMYTV   040101220432      000030K CLARK/BABY WIPES/HUGGIES SPL                                                                                                                                 
COMYTV   040101220502      000015KRAFT CANADA INC.                                                                                                                                              
COMYTV   040101221555      000030GEN MILLS/HAMBURGER HELPER                                                                                                                                     
COMYTV   040101221625      000015K CLARK/KOTEX                                                                                                                                                  
COMYTV   040101221640      000030HASBRO CANADA INC.                                                                                                                                             
COMYTV   040101221710      000030I TOYS                                                                                                                                                         
COMYTV   040101221740      000015HASBRO CANADA INC.                                                                                                                                             
COMYTV   040101222511      00001520TH CENTURY/CHPR BY TH DOZWK2                                                                                                                                 
COMYTV   040101222526      000100WALT DISNEY/RESORTS-DRTV                                                                                                                                       
COMYTV   040101222626      000030CLOROX/TILEX                                                                                                                                                   
COMYTV   040101222656      000015K CLARK/KOTEX                                                                                                                                                  
SPOYTV   040101223013      000005K CLARK/KOTEX                                                                                                                                                  
ID YTV   040101223018      000012STATION ID                                                                                                                                                     
SPOYTV   040101223030      000005K CLARK/BABY WIPES/HUGGIES SPL                                                                                                                                 
PGRYTV   040101223037230007002930BIG WOLF ON CAMPUS                                THE EXOR-SIS                                      347689      A29756 1 35307BCC                              
COMYTV   040101223649      000015K CLARK/KOTEX                                                                                                                                                  
COMYTV   040101223704      000100WALT DISNEY/RESORTS-DRTV                                                                                                                                       
COMYTV   040101223804      000030K CLARK/HUGGIES :30'S ALONE                                                                                                                                    
COMYTV   040101223834      000015KRAFT CANADA INC.                                                                                                                                              
COMYTV   040101224634      000015KRAFT/AD/WOMEN BONUS                                                                                                                                           
COMYTV   040101224649      000030KELLOGG CANADA INC.                                                                                                                                            
COMYTV   040101224719      000030MATTEL CANADA INC.                                                                                                                                             
COMYTV   040101224749      000030MATTEL CANADA INC.                                                                                                                                             
COMYTV   040101224819      000015K CLARK/KOTEX                                                                                                                                                  
PRCYTV   040101224834      000015YTV PROMO CONTRACT                                                                                                                                             
COMYTV   040101225556      000030ALLIANCE/LOTR HOLDOVER 1                                                                                                                                       
COMYTV   040101225626      000100P&G/CORPORATE BASE 52 WEEK                                                                                                                                     
COMYTV   040101225726      000015K CLARK/KOTEX                                                                                                                                                  
COMYTV   040101225741      000015LEGO CANADA INC.                                                                                                                                               
PRCYTV   040101225756      000030YTV PROMO CONTRACT                                                                                                                                             
ID YTV   040101225946      000012STATION ID                                                                                                                                                     
SPOYTV   040101225958      000005K CLARK/HUGGIES :30'S ALONE                                                                                                                                    
PGRYTV   040101230007232900002853ADDAMS FAMILY: THE SERIES (#1-65)                 KEEPING UP WITH JONESES EP64                      AFS         C15097 1 35307BCC                              
SPOYTV   040101231000      000010MAPLE LEAF FOODS/SPEC HIGHLIGH                                                                                                                                 
COMYTV   040101231010      000015MGM/UPTOWN GIRLS DVD                                                                                                                                           
COMYTV   040101231025      000100PRIMUS CANADA                                                                                                                                                  
COMYTV   040101231125      000030K CLARK/HUGGIES :30'S ALONE                                                                                                                                    
COMYTV   040101231155      000015HASBRO CANADA INC.                                                                                                                                             
COMYTV   040101231855      000030ALLIANCE/LOTR HOLDOVER 1                                                                                                                                       
COMYTV   040101231925      000015GLAXO/SMITH/BEECH/CONTACT3073                                                                                                                                  
COMYTV   040101231940      000030K CLARK/HUGGIES :30'S ALONE                                                                                                                                    
COMYTV   040101232010      000030KRAFT/HEAVY-UP ADULT                                                                                                                                           
COMYTV   040101232040      000015K CLARK/KOTEX                                                                                                                                                  
COMYTV   040101232533      000015K CLARK/KOTEX                                                                                                                                                  
COMYTV   040101232548      000030MAPLE LEAF FOODS/SPEC HIGHLIGH                                                                                                                                 
COMYTV   040101232618      000030LOBLAW'S                                                                                                                                                       
COMYTV   040101232648      000030I TOYS                                                                                                                                                         
COMYTV   040101232718      000015KRAFT CANADA INC.                                                                                                                                              
ID YTV   040101232848      000012STATION ID                                                                                                                                                     
PGRYTV   040101232900000609003709MY FAMILY                                         RETURN OF THE PRODIGAL PRAT 38                                       3 38307BCC                              
COMYTV   040101233530      000015MGM/UPTOWN GIRLS DVD                                                                                                                                           
COMYTV   040101233545      000015GLAXO/SMITH/BEECH/CONTACT3073                                                                                                                                  
COMYTV   040101233600      000030K CLARK/BABY WIPES/HUGGIES SPL                                                                                                                                 
COMYTV   040101233630      000030KRAFT CANADA INC.                                                                                                                                              
COMYTV   040101233700      000015K CLARK/KOTEX                                                                                                                                                  
COMYTV   040101233715      000015KRAFT CANADA INC.                                                                                                                                              
COMYTV   040101234702      000030ALLIANCE/LOTR HOLDOVER 1                                                                                                                                       
COMYTV   040101234732      000030EXPEDIA.CA/Q1 TV-8572-TV-24                                                                                                                                    
COMYTV   040101234802      000030WYETH CONSUMER HEALTHCARE                                                                                                                                      
COMYTV   040101234832      000030PARMALAT                                                                                                                                                       
COMYTV   040101235804      00001520TH CENTURY/CHPR BY TH DOZWK2                                                                                                                                 
COMYTV   040101235819      000100P&G/CORPORATE BASE 52 WEEK                                                                                                                                     
COMYTV   040101235919      000030GENERAL MILLS CANADA INC.                                                                                                                                      
COMYTV   040101235949      000015K CLARK/KOTEX                                                                                                                                                  
SPOYTV   040101000347      000010MAPLE LEAF FOODS/SPEC HIGHLIGH                                                                                                                                 
COMYTV   040101000357      000015ATARI                                                                                                                                                          
COMYTV   040101000412      000030GLAXO/SMITH/BEECH/SENSODYNE                                                                                                                                    
COMYTV   040101000442      000100P&G/CORPORATE BASE 52 WEEK                                                                                                                                     
COMYTV   040101000542      000015K CLARK/KOTEX                                                                                                                                                  
PGRYTV   040101000609003852003243ARE YOU BEING SERVED?                             THE HERO                                                             3 38807BCC                              
COMYTV   040101001231      000015BVHV/DISAPPEARING CLASSICS :15                                                                                                                                 
COMYTV   040101001246      000030CLOROX/GLAD WASTE :30'S                                                                                                                                        
COMYTV   040101001316      000100P&G/CORPORATE BASE 52 WEEK                                                                                                                                     
COMYTV   040101001416      000015GLAXO/SMITH/BEECH/CONTACT3073                                                                                                                                  
COMYTV   040101001833      000100P&G/CORPORATE-PRE-EMPTIBLE                                                                                                                                     
COMYTV   040101001933      000030WYETH CONSUMER HEALTHCARE                                                                                                                                      
COMYTV   040101002003      000030GEN MILLS/HAMBURGER HELPER                                                                                                                                     
COMYTV   040101002033      000030CLOROX/TILEX                                                                                                                                                   
COMYTV   040101002653      00001520TH CENTURY/CHPR BY TH DOZWK2                                                                                                                                 
COMYTV   040101002708      000100P&G/CORPORATE BASE 52 WEEK                                                                                                                                     
COMYTV   040101002808      000100PRIMUS CANADA                                                                                                                                                  
COMYTV   040101002908      000015GLAXO/SMITH/BEECH/CONTACT3073                                                                                                                                  
INTYTV   040101003852004002000110HERITAGE MINUTE                                   MARCONI EP29                                                         1 358120CC                              
PGRYTV   040101004002011639003637KEEPING UP APPEARANCES                            EPS 27                                                               3 38807BCC                              
COMYTV   040101004753      00001520TH CENTURY/CHPR BY TH DOZWK2                                                                                                                                 
COMYTV   040101004808      000030KRAFT/HEAVY-UP ADULT                                                                                                                                           
COMYTV   040101004838      000100P&G/CORPORATE BASE 52 WEEK                                                                                                                                     
COMYTV   040101004938      000015KRAFT CANADA INC.                                                                                                                                              
COMYTV   040101005556      000100P&G/CORPORATE BASE 52 WEEK                                                                                                                                     
COMYTV   040101005656      000030MAPLE LEAF FOODS/SPEC HIGHLIGH                                                                                                                                 
COMYTV   040101005726      000100PRIMUS CANADA                                                                                                                                                  
COMYTV   040101010827      000030BUCKLEY'S/COUGH SYRUP                                                                                                                                          
COMYTV   040101010857      000030GEN MILLS/HAMBURGER HELPER                                                                                                                                     
COMYTV   040101010927      000100P&G/CORPORATE-PRE-EMPTIBLE                                                                                                                                     
COMYTV   040101011027      000030CLOROX/GLAD WASTE :30'S                                                                                                                                        
PGRYTV   040101011639015242003603MY FAMILY                                         RETURN OF THE PRODIGAL PRAT 38                                       3 38307BCC                              
SPOYTV   040101012309      000010MAPLE LEAF FOODS/SPEC HIGHLIGH                                                                                                                                 
COMYTV   040101012319      000100P&G/CORPORATE BASE 52 WEEK                                                                                                                                     
COMYTV   040101012419      000030GENERAL MILLS/BASE CRESCENTS                                                                                                                                   
COMYTV   040101012449      000030MAPLE LEAF FOODS/SPEC HIGHLIGH                                                                                                                                 
COMYTV   040101013451      000030WYETH CONSUMER HEALTHCARE                                                                                                                                      
COMYTV   040101013521      000100P&G/CORPORATE-PRE-EMPTIBLE                                                                                                                                     
COMYTV   040101013621      000030KRAFT/AD/WOMEN BONUS                                                                                                                                           
COMYTV   040101013651      000030KELLOGG CANADA INC.                                                                                                                                            
COMYTV   040101014623      000100P&G/CORPORATE BASE 52 WEEK                                                                                                                                     
COMYTV   040101014723      000030MAPLE LEAF FOODS/SPEC HIGHLIGH                                                                                                                                 
COMYTV   040101014753      000100PRIMUS CANADA                                                                                                                                                  
PGRYTV   040101015242022221002939ADDAMS FAMILY: THE SERIES (#1-65)                 KEEPING UP WITH JONESES EP64                      AFS         C15097 1 35307BCC                              
COMYTV   040101020239      00001520TH CENTURY/CHPR BY TH DOZWK2                                                                                                                                 
COMYTV   040101020254      000030BUCKLEY'S/COUGH SYRUP                                                                                                                                          
COMYTV   040101020324      000100P&G/CORPORATE BASE 52 WEEK                                                                                                                                     
COMYTV   040101020424      000015LEGO CANADA INC.                                                                                                                                               
COMYTV   040101021116      000030ALLIANCE/LOTR HOLDOVER 1                                                                                                                                       
COMYTV   040101021146      000030MAPLE LEAF FOODS/SPEC HIGHLIGH                                                                                                                                 
COMYTV   040101021216      000015HASBRO CANADA INC.                                                                                                                                             
COMYTV   040101021231      000100P&G/CORPORATE-PRE-EMPTIBLE                                                                                                                                     
COMYTV   040101021331      000015KRAFT/AD/WOMEN BONUS                                                                                                                                           
COMYTV   040101021824      000100PRIMUS CANADA                                                                                                                                                  
COMYTV   040101021924      000100P&G/CORPORATE-PRE-EMPTIBLE                                                                                                                                     
COMYTV   040101022024      000030LEGO CANADA INC.                                                                                                                                               
PGRYTV   040101022221022721000500FREAKY STORIES                                    ALLIGATOR IN THE SEWER EP63                       BIGTIMYTV   A23763 1 35307ECC                              
PGRYTV   040101022721023233000512FREAKY STORIES                                    DO UNTO OTHERS EP64                               BIGTIMYTV   A23763 1 35307ECC                              
PGRYTV   040101023233030337003104RADIO ACTIVE ( III)(#53-78)                       THE RATINGS WAR EP70                              TELEACYTV   C16978 1 35307BCC                              
COMYTV   040101024136      00001520TH CENTURY/CHPR BY TH DOZWK2                                                                                                                                 
COMYTV   040101024151      000100P&G/CORPORATE BASE 52 WEEK                                                                                                                                     
COMYTV   040101024251      000015HASBRO CANADA INC.                                                                                                                                             
COMYTV   040101024306      000030I TOYS                                                                                                                                                         
COMYTV   040101024929      000200AT HOME TRAINING                                                                                                                                               
COMYTV   040101025129      000030SHAW                                                                                                                                                           
COMYTV   040101025907      000030MAPLE LEAF FOODS/SPEC HIGHLIGH                                                                                                                                 
COMYTV   040101025937      000100P&G/CORPORATE BASE 52 WEEK                                                                                                                                     
COMYTV   040101030037      000100PRIMUS CANADA                                                                                                                                                  
PGRYTV   040101030337033340003003SYSTEM CRASH                                      THEM'S GOOD EATS  EPS 34                                             1 31307FCC                              
COMYTV   040101031055      000100P&G/CORPORATE BASE 52 WEEK                                                                                                                                     
COMYTV   040101031155      000100PRIMUS CANADA                                                                                                                                                  
COMYTV   040101031845      000015BVHV/DISAPPEARING CLASSICS :15                                                                                                                                 
COMYTV   040101031900      000100P&G/CORPORATE BASE 52 WEEK                                                                                                                                     
COMYTV   040101032000      000030MATTEL CANADA INC.                                                                                                                                             
COMYTV   040101032030      000030BOWLING PROPRIETORS ASSOC OF C                                                                                                                                 
COMYTV   040101032100      000015KRAFT/AD/WOMEN BONUS                                                                                                                                           
COMYTV   040101032607      000100PRIMUS CANADA                                                                                                                                                  
COMYTV   040101032707      000100P&G/CORPORATE BASE 52 WEEK                                                                                                                                     
COMYTV   040101032807      000030MATTEL CANADA INC.                                                                                                                                             
PGRYTV   040101033340040032002652DRAGON BALL                                       ELIMINATION ROUND      EPS 20                                        7 38307ECC                              
COMYTV   040101033446      000030MAPLE LEAF FOODS/SPEC HIGHLIGH                                                                                                                                 
COMYTV   040101033516      000100P&G/CORPORATE-PRE-EMPTIBLE                                                                                                                                     
COMYTV   040101033616      000030LOBLAW'S                                                                                                                                                       
COMYTV   040101034535      000100P&G/CORPORATE BASE 52 WEEK                                                                                                                                     
COMYTV   040101034635      000030MCDONALDS/CHICKEN NUGGET-WHITE                                                                                                                                 
COMYTV   040101035720      000030ALLIANCE/LOTR HOLDOVER 1                                                                                                                                       
COMYTV   040101035750      000100P&G/CORPORATE BASE 52 WEEK                                                                                                                                     
COMYTV   040101035850      000030KRAFT/AD/WOMEN BONUS                                                                                                                                           
PGRYTV   040101040032042918002846DRAGON BALL Z                                     FIGHTING POWER: ONE EP64                                             7 38307ECC                              
COMYTV   040101040138      000030MAPLE LEAF FOODS/SPEC HIGHLIGH                                                                                                                                 
COMYTV   040101040208      000100P&G/CORPORATE BASE 52 WEEK                                                                                                                                     
COMYTV   040101040308      000015KRAFT CANADA INC.                                                                                                                                              
COMYTV   040101041358      000030CLOROX/TILEX                                                                                                                                                   
COMYTV   040101041428      000100P&G/CORPORATE BASE 52 WEEK                                                                                                                                     
COMYTV   040101041528      000030MCDONALD'S RESTAURANTS CANADA                                                                                                                                  
COMYTV   040101041558      000030WYETH CONSUMER HEALTHCARE INC.                                                                                                                                 
COMYTV   040101042221      000030ALLIANCE/LOTR HOLDOVER 1                                                                                                                                       
COMYTV   040101042251      000100PRIMUS CANADA                                                                                                                                                  
COMYTV   040101042351      000100P&G/CORPORATE BASE 52 WEEK                                                                                                                                     
PGRYTV   040101042918045953003035UH OH!                                            EPS 224                                                              1 313110CC                              
COMYTV   040101043230      000100P&G/CORPORATE BASE 52 WEEK                                                                                                                                     
COMYTV   040101043330      000030MAPLE LEAF FOODS/SPEC HIGHLIGH                                                                                                                                 
COMYTV   040101043400      000030EXPEDIA.CA/Q1 TV-8572-TV-24                                                                                                                                    
COMYTV   040101044057      000030CLOROX/TILEX                                                                                                                                                   
COMYTV   040101044127      000100P&G/CORPORATE BASE 52 WEEK                                                                                                                                     
COMYTV   040101044227      000030GENERAL MILLS CANADA INC.                                                                                                                                      
COMYTV   040101044257      000030MATTEL CANADA INC.                                                                                                                                             
COMYTV   040101044918      000030MAPLE LEAF FOODS/SPEC HIGHLIGH                                                                                                                                 
COMYTV   040101044948      000100P&G/CORPORATE-PRE-EMPTIBLE                                                                                                                                     
COMYTV   040101045048      000030CLOROX/TILEX                                                                                                                                                   
COMYTV   040101045118      000030BUCKLEY'S                                                                                                                                                      
PGRYTV   040101045953053023003030POKEMON                                           BAD TO THE BONE EP72                                                 7 38307ECC                              
COMYTV   040101050100      000030SHAW                                                                                                                                                           
COMYTV   040101050130      000100P&G/CORPORATE-PRE-EMPTIBLE                                                                                                                                     
