PGRYTV   020201060000062311002311BABAR                                             A CHILD IN THE SNOW EPS 62                        NELVAN      C09929 1 32107ECC                              
INTYTV   020201062311062612000301NANALAN'                                          TUBE EP15                                                            1 351120                                
INTYTV   020201062612063009000357CHIP 'N' ORBIT                                    EPISODE 16                                                           1 311120CC                              
ID YTV   020201062956      000012STATION ID                                                                                                                                                     
PGRYTV   020201063009065500002451RUPERT                                            EPS 63-RUPERT & THE CHALK DRAW                    NELVANYTV   A03980 1 35107ECC                              
PRCYTV   020201065417      000030YTV PROMO CONTRACT                                                                                                                                             
PGRYTV   020201065500070000000500FUZZPAWS                                          BIRDHOUSE ARCHIE BUILT EP29                                          1 31107G                                
ID YTV   020201065948      000012STATION ID                                                                                                                                                     
PGRYTV   020201070000072700002700STICKIN' AROUND                                   WHAT'S/DODDLERS EP24                              NELVANYTV   A10450 1 35107ECC                              
PRCYTV   020201070106      000030YTV PROMO CONTRACT                                                                                                                                             
PRCYTV   020201070136      000030YTV PROMO CONTRACT                                                                                                                                             
PRCYTV   020201071235      000030YTV PROMO CONTRACT                                                                                                                                             
PRCYTV   020201071305      000030YTV PROMO CONTRACT                                                                                                                                             
PRCYTV   020201071335      000015YTV PROMO CONTRACT                                                                                                                                             
PRCYTV   020201072425      000030YTV PROMO CONTRACT                                                                                                                                             
PRCYTV   020201072455      000030YTV PROMO CONTRACT                                                                                                                                             
INTYTV   020201072700073000000300BIG SISTER,LITTLE BROTHER                         IMAGINATION DAY EPS 18                                               3 381120                                
ID YTV   020201072948      000012STATION ID                                                                                                                                                     
PGRYTV   020201073000075609002609CATDOG                                            SEATED/RYE EPS 45                                                    2 38107ECC                              
PRCYTV   020201073054      000015YTV PROMO CONTRACT                                                                                                                                             
PRCYTV   020201073109      000015YTV PROMO CONTRACT                                                                                                                                             
PRCYTV   020201074231      000030YTV PROMO CONTRACT                                                                                                                                             
PRCYTV   020201074301      000030YTV PROMO CONTRACT                                                                                                                                             
PRCYTV   020201075449      000030YTV PROMO CONTRACT                                                                                                                                             
INTYTV   020201075609075709000100STICKIN' AROUND                                   DOIN' THE MONSTER TRASH                                              1 351120CC                              
INTYTV   020201075709080000000251JIMMY NEUTRON                                     EPS 4                                                                2 381120                                
PRCYTV   020201075848      000015YTV PROMO CONTRACT                                                                                                                                             
PRCYTV   020201075903      000030YTV PROMO CONTRACT                                                                                                                                             
PRCYTV   020201075933      000015YTV PROMO CONTRACT                                                                                                                                             
ID YTV   020201075948      000012STATION ID                                                                                                                                                     
PGRYTV   020201080000082558002558RUGRATS                                           BAD SHOES/WASH STORY EP132                                           2 38107ECC                              
PRCYTV   020201080051      000030YTV PROMO CONTRACT                                                                                                                                             
PRCYTV   020201081233      000030YTV PROMO CONTRACT                                                                                                                                             
PRCYTV   020201081303      000030YTV PROMO CONTRACT                                                                                                                                             
PRCYTV   020201082445      000030YTV PROMO CONTRACT                                                                                                                                             
INTYTV   020201082558082955000357CHIP 'N' ORBIT                                    EPISODE 17                                                           1 311120CC                              
ID YTV   020201082945      000012STATION ID                                                                                                                                                     
PGRYTV   020201082955085548002553LITTLE BEAR                                       LUCY/PUDDING/COVERS  EPS 34                       NELVAN      A04970 1 35107E                                
PRCYTV   020201085402      000030YTV PROMO CONTRACT                                                                                                                                             
PRCYTV   020201085432      000030YTV PROMO CONTRACT                                                                                                                                             
PRCYTV   020201085502      000030YTV PROMO CONTRACT                                                                                                                                             
INTYTV   020201085548090000000412JUDY & DAVID'S BOOM BOX                           DAVID TABERNACLE CHOIR EP27                                          1 311120                                
ID YTV   020201085948      000012STATION ID                                                                                                                                                     
PGRYTV   020201090000092500002500RUPERT                                            EPS 24-RUPERT AND THE LAMP                        NELVANYTV   P12974 1 35107ECC                              
PRCYTV   020201092403      000030YTV PROMO CONTRACT                                                                                                                                             
PRCYTV   020201092433      000015YTV PROMO CONTRACT                                                                                                                                             
PGRYTV   020201092500093000000500FUZZPAWS                                          WHITEWASH EP30                                                       1 31107G                                
ID YTV   020201092948      000012STATION ID                                                                                                                                                     
PGRYTV   020201093000095314002314BABAR SERIES                                      MONKEY BUSINESS EPS 23                            NELVAN      C07575 1 32107ECC                              
INTYTV   020201095314095614000300NANALAN'                                          RUSSELL'S ITCH EP16                                                  1 351120                                
INTYTV   020201095614100011000357CHIP 'N' ORBIT                                    EPISODE 18                                                           1 311120CC                              
ID YTV   020201095959      000012STATION ID                                                                                                                                                     
PGRYTV   020201100011102306002255GEORGE & MARTHA                                   COSTUMED DUO/TEMPER EP25.                         NELVANYTV          1 32107ECC                              
PGRYTV   020201102306103000000654ELLIOT MOOSE                                      A TAIL OR TWO EP58                                NELVAN      A25734 1 35107GCC                              
ID YTV   020201102936      000012STATION ID                                                                                                                                                     
PGRYTV   020201103000104513001513PANDA BEAR DAYCARE (I)(#1-13)                     SHARING EP11                                      RADIC YTV   C14904 1 35107ACC                              
ID YTV   020201104430      000012STATION ID                                                                                                                                                     
PRCYTV   020201104442      000030YTV PROMO CONTRACT                                                                                                                                             
PGRYTV   020201104513110003001450RUFFUS THE DOG (I)(#1-13)                         SINBAD EP11                                       RADIC YTV   C14905 1 35107ACC                              
ID YTV   020201105942      000012STATION ID                                                                                                                                                     
PGRYTV   020201110003112348002345ANTHONY ANT                                       100 EASY PIECES/RAIDERS EP8.                      HIT   YTV   A17793 1 35107ECC                              
PRCYTV   020201112318      000030YTV PROMO CONTRACT                                                                                                                                             
PGRYTV   020201112348113000000612LISA                                              THE BROKEN VASE  EPS 27                                              3 38107E                                
ID YTV   020201112948      000012STATION ID                                                                                                                                                     
PGRYTV   020201113000115701002701STICKIN' AROUND                                   DISAPPEARING ACT/AND THE WIENE                    NELVANYTV   A08086 1 35107ECC                              
PRCYTV   020201113112      000015YTV PROMO CONTRACT                                                                                                                                             
PRCYTV   020201113127      000015YTV PROMO CONTRACT                                                                                                                                             
PRCYTV   020201114250      000030YTV PROMO CONTRACT                                                                                                                                             
PRCYTV   020201114320      000015YTV PROMO CONTRACT                                                                                                                                             
PRCYTV   020201115449      000030YTV PROMO CONTRACT                                                                                                                                             
INTYTV   020201115701120000000259BIG SISTER,LITTLE BROTHER                         THE LIFE JACKET EP 19                                                3 381120                                
ID YTV   020201115948      000012STATION ID                                                                                                                                                     
PGRYTV   020201120000122605002605UH OH!                                            EPS 112                                                              1 311100CC                              
PRCYTV   020201120311      000030YTV PROMO CONTRACT                                                                                                                                             
PRCYTV   020201120341      000030YTV PROMO CONTRACT                                                                                                                                             
PRCYTV   020201121148      000030YTV PROMO CONTRACT                                                                                                                                             
PRCYTV   020201121218      000015YTV PROMO CONTRACT                                                                                                                                             
PRCYTV   020201121757      000030YTV PROMO CONTRACT                                                                                                                                             
PRCYTV   020201121827      000030YTV PROMO CONTRACT                                                                                                                                             
INTYTV   020201122605122655000050JIMMY NEUTRON                                     EPS 5                                                                2 381120                                
INTYTV   020201122655123005000310NANALAN'                                          RUSSELL'S DINNER EP17                                                1 351120                                
ID YTV   020201122953      000012STATION ID                                                                                                                                                     
PGRYTV   020201123005125546002541MONA THE VAMPIRE                                  FLU-TOPIA/CHAIN LETTER EPS 36                     CINAR YTV   A68345 1 35107ECC                              
PRCYTV   020201123111      000030YTV PROMO CONTRACT                                                                                                                                             
PRCYTV   020201124248      000015YTV PROMO CONTRACT                                                                                                                                             
PRCYTV   020201124303      000030YTV PROMO CONTRACT                                                                                                                                             
PRCYTV   020201125447      000030YTV PROMO CONTRACT                                                                                                                                             
INTYTV   020201125546130010000424MAMEMO                                            TWO BROTHERS AND A SISTER                                            7 381120                                
ID YTV   020201125948      000012STATION ID                                                                                                                                                     
SPOYTV   020201130000      000010MCDONALDS/HAPPY MEAL                                                                                                                                           
PGRYTV   020201130010132320002310GEORGE & MARTHA                                   COSTUMED DUO/TEMPER EP25.                         NELVANYTV          1 32107ECC                              
PRCYTV   020201132259      000015YTV PROMO CONTRACT                                                                                                                                             
PGRYTV   020201132320133002000642ELLIOT MOOSE                                      RIDE SHARE EP59                                   NELVAN      A25736 1 35107GCC                              
ID YTV   020201132950      000012STATION ID                                                                                                                                                     
PGRYTV   020201133002135542002540LITTLE BEAR                                       LUCY/PUDDING/COVERS  EPS 34                       NELVAN      A04970 1 35107E                                
PRCYTV   020201135407      000030YTV PROMO CONTRACT                                                                                                                                             
PRCYTV   020201135437      000030YTV PROMO CONTRACT                                                                                                                                             
PRCYTV   020201135507      000030YTV PROMO CONTRACT                                                                                                                                             
INTYTV   020201135542135954000412JUDY & DAVID'S BOOM BOX                           BIG OLD CAR EP28                                                     1 311120                                
ID YTV   020201135943      000012STATION ID                                                                                                                                                     
PGRYTV   020201135954142306002312BABAR                                             A CHILD IN THE SNOW EPS 62                        NELVAN      C09929 1 32107ECC                              
INTYTV   020201142306142606000300NANALAN'                                          RUSSELL'S BALLOON EP18                                               1 351120                                
INTYTV   020201142606143003000357CHIP 'N' ORBIT                                    EPISODE 19                                                           1 311120CC                              
ID YTV   020201142951      000012STATION ID                                                                                                                                                     
PGRYTV   020201143003145503002500RUPERT                                            EPS 63-RUPERT & THE CHALK DRAW                    NELVANYTV   A03980 1 35107ECC                              
PRCYTV   020201145412      000030YTV PROMO CONTRACT                                                                                                                                             
PRCYTV   020201145442      000015YTV PROMO CONTRACT                                                                                                                                             
PGRYTV   020201145503150003000500FUZZPAWS                                          STUCK ON YOU EP31                                                    1 31107G                                
ID YTV   020201145951      000012STATION ID                                                                                                                                                     
PGRYTV   020201150003151519001516ANGRY BEAVERS                                     SPOOTFUL LIFE/U.N.C.L.E EPS 57                                       2 38307ECC                              
COMYTV   020201150057      000030MCDONALDS/CORPORATE HAPPY MEAL                                                                                                                                 
COMYTV   020201150127      000030UNIVERSAL FILMS/BIG FAT LIAR                                                                                                                                   
PRCYTV   020201150157      000030YTV PROMO CONTRACT                                                                                                                                             
COMYTV   020201151334      000030KELLOGG/KIDS 52 WEEK                                                                                                                                           
COMYTV   020201151404      000015L'OREAL CANADA/KIDS                                                                                                                                            
COMYTV   020201151419      000030PN 176/PETER PAN RETURN TO NEV                                                                                                                                 
COMYTV   020201151449      000030GENERAL MILLS/CORPORATE BARTER                                                                                                                                 
PSAYTV   020201151519151534000015WAR AMPS/SPOT DANGER/ASTAR                                                                                             1 000130                                
PGRYTV   020201151534152738001204ANGRY BEAVERS                                     SPOOTFUL LIFE/U.N.C.L.E EPS 57                                       2 38307ECC                              
COMYTV   020201152653      000015ATL 49, ATLANTIS/BVHV                                                                                                                                          
COMYTV   020201152708      000030YTV/FRITO-LAY/PLANET LUNCH                                                                                                                                     
PSAYTV   020201152738152753000015ARTISTS VS RACISM/HOOTIE&BLOWF                                                                                         1 000130                                
PGRYTV   020201152753152848000055ANGRY BEAVERS                                     SPOOTFUL LIFE/U.N.C.L.E EPS 57                                       2 38307ECC                              
INTYTV   020201152848153000000112STICKIN' AROUND                                   THE GOOD, THE BAD, AND THE                                           1 353120CC                              
ID YTV   020201152948      000012STATION ID                                                                                                                                                     
PGRYTV   020201153000153813000813DEXTER'S LABORATORY                               PICTURE/NOW THAT'S/DETENTION                                         2 38307ECC                              
COMYTV   020201153728      000030GENERAL MILLS/CORPORATE BARTER                                                                                                                                 
COMYTV   020201153758      000015SD 183 SNOW DOGS-WK 3 KIDS                                                                                                                                     
PSAYTV   020201153813153828000015WAR AMPS/WINNER'S CIRCLE                                                                                               1 000130                                
PGRYTV   020201153828155711001843DEXTER'S LABORATORY                               PICTURE/NOW THAT'S/DETENTION                                         2 38307ECC                              
PRCYTV   020201153828      000015YTV PROMO CONTRACT                                                                                                                                             
COMYTV   020201154540      000030MCDONALDS/CORPORATE HAPPY MEAL                                                                                                                                 
COMYTV   020201154610      000030MATTEL/SPRING                                                                                                                                                  
COMYTV   020201154640      000030PN 176/PETER PAN RETURN TO NEV                                                                                                                                 
COMYTV   020201154710      000030GENERAL MILLS/DUNKAROOS                                                                                                                                        
PRCYTV   020201154740      000030YTV PROMO CONTRACT                                                                                                                                             
COMYTV   020201155058      000030ATL 49, ATLANTIS/BVHV                                                                                                                                          
COMYTV   020201155128      000030KELLOGG/KIDS 52 WEEK                                                                                                                                           
PRCYTV   020201155158      000030YTV PROMO CONTRACT                                                                                                                                             
INTYTV   020201155711155956000245PROGRAM JOCKEY                                    PROGRAM JOCKEY                                                       1 213120                                
ID YTV   020201155948      000012STATION ID                                                                                                                                                     
PGRYTV   020201155956161504001508POWERPUFF GIRLS                                   JEWEL AISLE/SUPER ZEROES EP32                                        2 38307ECC                              
COMYTV   020201160109      000030KELLOGG/KIDS 52 WEEK                                                                                                                                           
COMYTV   020201160139      000030DISC KIDS/SPIKE EVENT/GEN.AWAR                                                                                                                                 
PRCYTV   020201160209      000030YTV PROMO CONTRACT                                                                                                                                             
COMYTV   020201161404      000015SD 183 SNOW DOGS-WK 3 KIDS                                                                                                                                     
COMYTV   020201161419      000030KRAFT/KIDS-WINTER/SPRING :30'S                                                                                                                                 
COMYTV   020201161449      000015KIMBERLY-CLARK OF CANADA LTD.                                                                                                                                  
PSAYTV   020201161504161604000100ABC/CAN YOU READ YELLOW PAGES                                                                                          1 000130                                
PGRYTV   020201161604162822001218POWERPUFF GIRLS                                   JEWEL AISLE/SUPER ZEROES EP32                                        2 38307ECC                              
COMYTV   020201162722      000030KELLOGG CANADA INC.                                                                                                                                            
COMYTV   020201162752      000030MATTEL CANADA INC.                                                                                                                                             
INTYTV   020201162822162949000127PROGRAM JOCKEY                                    PROGRAM JOCKEY                                                       1 213120                                
ID YTV   020201162936      000012STATION ID                                                                                                                                                     
PGRYTV   020201162949165724002735HEY ARNOLD                                        6TH GRADE GIRLS/BASEBALL                                             2 38307ECC                              
COMYTV   020201163504      000015ATL 49, ATLANTIS/BVHV                                                                                                                                          
COMYTV   020201163519      000030YTV/FRITO-LAY/PLANET LUNCH                                                                                                                                     
COMYTV   020201163549      000015L'OREAL CANADA/KIDS                                                                                                                                            
COMYTV   020201164246      000015UNIVERSAL FILMS/BIG FAT LIAR                                                                                                                                   
COMYTV   020201164302      000030LEGO CANADA INC.                                                                                                                                               
COMYTV   020201164332      000030GENERAL MILLS CANADA INC.                                                                                                                                      
PRCYTV   020201164402      000030YTV PROMO CONTRACT                                                                                                                                             
COMYTV   020201164845      000030KELLOGG/KIDS 52 WEEK                                                                                                                                           
COMYTV   020201164915      000030PN 176/PETER PAN RETURN TO NEV                                                                                                                                 
PROYTV   020201164945      000030YTV PROMO CONTRACT                                                                                                                                             
INTYTV   020201165724170000000236PROGRAM JOCKEY                                    PROGRAM JOCKEY                                                       1 213120                                
ID YTV   020201165948      000012STATION ID                                                                                                                                                     
PGRYTV   020201170000172714002714POKEMON                                           FOUL WEATHER FRIENDS EP136                                           7 38307ECC                              
COMYTV   020201170108      000030HOSTESS/F-L/PLANET LUNCH REVIS                                                                                                                                 
COMYTV   020201170138      000030HIGHWAY ENTERTAINMENT                                                                                                                                          
COMYTV   020201171157      000030GENERAL MILLS/TRADITIONAL CHIL                                                                                                                                 
COMYTV   020201171227      000015SD 183 SNOW DOGS-WK 3 KIDS                                                                                                                                     
COMYTV   020201171242      000015KIMBERLY-CLARK OF CANADA LTD.                                                                                                                                  
COMYTV   020201171257      000030GENERAL MILLS CANADA INC.                                                                                                                                      
COMYTV   020201171327      000030HIGHWAY ENTERTAINMENT                                                                                                                                          
PROYTV   020201171357      000030YTV PROMO CONTRACT                                                                                                                                             
COMYTV   020201172511      000030KELLOGG/KIDS 52 WEEK                                                                                                                                           
COMYTV   020201172541      000030HIGHWAY ENTERTAINMENT                                                                                                                                          
INTYTV   020201172714172955000241PROGRAM JOCKEY                                    PROGRAM JOCKEY                                                       1 213120                                
ID YTV   020201172948      000012STATION ID                                                                                                                                                     
PGRYTV   020201172955174339001344DIGIMON                                           THE ICEMAN COMETH  EPS 114                                           7 38307ECC                              
COMYTV   020201173336      000030MATTEL CANADA INC.                                                                                                                                             
COMYTV   020201173406      000030HOSTESS/FRITO-LAY                                                                                                                                              
PROYTV   020201173436      000030YTV PROMO CONTRACT                                                                                                                                             
COMYTV   020201174203      000030GENERAL MILLS/TRADITIONAL CHIL                                                                                                                                 
COMYTV   020201174233      000030LEGO CANADA INC.                                                                                                                                               
COMYTV   020201174303      000030HIGHWAY ENTERTAINMENT                                                                                                                                          
PSAYTV   020201174339174403000024ARTISTS VS RACISM/BARENAKED LA                                                                                         1 000130                                
PGRYTV   020201174403175646001243DIGIMON                                           THE ICEMAN COMETH  EPS 114                                           7 38307ECC                              
PRCYTV   020201174403      000030YTV PROMO CONTRACT                                                                                                                                             
COMYTV   020201174948      000030GENERAL MILLS/CORPORATE BARTER                                                                                                                                 
COMYTV   020201175018      000030HIGHWAY ENTERTAINMENT                                                                                                                                          
PRCYTV   020201175048      000030YTV PROMO CONTRACT                                                                                                                                             
INTYTV   020201175646180000000314PROGRAM JOCKEY                                    PROGRAM JOCKEY                                                       1 213120                                
ID YTV   020201175948      000012STATION ID                                                                                                                                                     
PGRYTV   020201180000183005003005SAILOR MOON                                       REFLECTIONS OF REALITY EP149                                  D01865 7 38307ECC2                             
COMYTV   020201180238      000030GENERAL MILLS/TRADITIONAL CHIL                                                                                                                                 
COMYTV   020201180308      000030ALLIANCE/SLACKERS                                                                                                                                              
COMYTV   020201180338      000100PRIMUS CANADA/PER INQUIRY                                                                                                                                      
PRCYTV   020201180438      000030YTV PROMO CONTRACT                                                                                                                                             
COMYTV   020201181219      000030EFFEM/UNCLE BEN'S RICE+PASTA M                                                                                                                                 
COMYTV   020201181249      000030AOL/CORPORATE                                                                                                                                                  
COMYTV   020201181319      000030HWY/PLAYTOY BARTER                                                                                                                                             
COMYTV   020201181349      000030ANTI SMOKING/TOBACCO                                                                                                                                           
PRCYTV   020201181419      000030YTV PROMO CONTRACT                                                                                                                                             
COMYTV   020201182626      000030BUCKLEY'S                                                                                                                                                      
COMYTV   020201182656      000030PILLSBURY/RGB WOMEN                                                                                                                                            
COMYTV   020201182726      000100AMEX/AIRMILES                                                                                                                                                  
PRCYTV   020201182826      000030YTV PROMO CONTRACT                                                                                                                                             
ID YTV   020201182948      000012STATION ID                                                                                                                                                     
SPOYTV   020201183000      000005K CLARK/KOTEX                                                                                                                                                  
PGRYTV   020201183005190000002955GENERATION O!                                     OUR HOUSE EP3                                                        2 38307ECC                              
COMYTV   020201183111      000030GENERAL MILLS/TRADITIONAL CHIL                                                                                                                                 
COMYTV   020201183141      000015J&J/NEUTROGENA HAND CREAM                                                                                                                                      
COMYTV   020201183156      000030KELLOGG/KIDS 52 WEEK                                                                                                                                           
COMYTV   020201183226      000015SD 183 SNOW DOGS-WK 3 KIDS                                                                                                                                     
COMYTV   020201183241      000030KRAFT/KIDS-WINTER/SPRING :30'S                                                                                                                                 
PRCYTV   020201183311      000030YTV PROMO CONTRACT                                                                                                                                             
COMYTV   020201184240      000015ATL 49, ATLANTIS/BVHV                                                                                                                                          
COMYTV   020201184255      000015HWY/ADULT BARTER #3                                                                                                                                            
COMYTV   020201184310      000030VAN MELLE/MENTOS                                                                                                                                               
COMYTV   020201184340      000030ANTI SMOKING/TOBACCO                                                                                                                                           
COMYTV   020201184410      000030GENERAL MILLS/NESQUIK                                                                                                                                          
PRCYTV   020201184440      000030YTV PROMO CONTRACT                                                                                                                                             
COMYTV   020201185446      000030ALLIANCE/SLACKERS                                                                                                                                              
COMYTV   020201185516      000100AMERICAN EXPRESS CANADA INC.                                                                                                                                   
COMYTV   020201185616      000030GENERAL MILLS CANADA INC.                                                                                                                                      
PRCYTV   020201185646      000030YTV PROMO CONTRACT                                                                                                                                             
ID YTV   020201185948      000012STATION ID                                                                                                                                                     
PGRYTV   020201190000194828004828YTV'S HIT LIST                                    EPS 11-21                                                            1 21308CCC                              
COMYTV   020201190931      000030EFFEM/UNCLE BEN'S RICE+PASTA M                                                                                                                                 
COMYTV   020201191001      000030HWY/WOMEN CPA HU                                                                                                                                               
COMYTV   020201191031      000030HWY/ADULT BARTER #4                                                                                                                                            
COMYTV   020201191101      000030LEGO CANADA INC.                                                                                                                                               
PRCYTV   020201191131      000030YTV PROMO CONTRACT                                                                                                                                             
COMYTV   020201192003      000030GENERAL MILLS/CORPORATE BARTER                                                                                                                                 
COMYTV   020201192033      000100PRIMUS CANADA/PER INQUIRY                                                                                                                                      
COMYTV   020201192133      000030UNIVERSAL FILMS/BIG FAT LIAR                                                                                                                                   
COMYTV   020201192801      000030K CLARK/KOTEX                                                                                                                                                  
COMYTV   020201192831      000030HWY/ADULT BARTER #2                                                                                                                                            
COMYTV   020201192901      000030HWY/ADULT BARTER #1                                                                                                                                            
COMYTV   020201192931      000030HOSTESS/F-L/PLANET LUNCH REVIS                                                                                                                                 
COMYTV   020201193626      000030UNIVERSAL FILMS/BIG FAT LIAR                                                                                                                                   
COMYTV   020201193656      000030KELLOGG/NABS                                                                                                                                                   
COMYTV   020201193726      000100AMEX/AIRMILES                                                                                                                                                  
COMYTV   020201194658      000030DISC KIDS/SPIKE EVENT/GEN.AWAR                                                                                                                                 
COMYTV   020201194728      000030ALLIANCE/SLACKERS                                                                                                                                              
COMYTV   020201194758      000030HWY/ADULT CPA HU#1                                                                                                                                             
PSAYTV   020201194828194858000030PSA/CANADIANBROADCAST STANDARD                                                                                         1 000130                                
PGRYTV   020201194858202950004052YTV'S HIT LIST                                    EPS 11-21                                                            1 21308CCC                              
COMYTV   020201195401      000030WRIGLEY/JUICY FRUIT                                                                                                                                            
COMYTV   020201195431      000100AMEX/AIRMILES                                                                                                                                                  
COMYTV   020201195531      000030PN 176/PETER PAN RETURN TO NEV                                                                                                                                 
COMYTV   020201200035      000015UNIVERSAL FILMS/BIG FAT LIAR                                                                                                                                   
COMYTV   020201200050      000030VAN MELLE/MENTOS                                                                                                                                               
COMYTV   020201200120      000030K CLARK/HUGGIES:SUPREME                                                                                                                                        
COMYTV   020201200150      000030KABOOM/MAGGIE+FEROCIOUS BEAST                                                                                                                                  
COMYTV   020201200220      000015JOHNSON & JOHNSON INC.                                                                                                                                         
COMYTV   020201200738      000100AMERICAN EXPRESS CANADA INC.                                                                                                                                   
COMYTV   020201200838      000030HIGHWAY ENTERTAINMENT                                                                                                                                          
COMYTV   020201200908      000030PILLSBURY CANADA INC.                                                                                                                                          
COMYTV   020201201839      000030HIGHWAY ENTERTAINMENT                                                                                                                                          
COMYTV   020201201909      000030PERFETTI VAN MELLE CANADA, INC                                                                                                                                 
COMYTV   020201201939      000030KRAFT CANADA INC.                                                                                                                                              
COMYTV   020201202009      000030HIGHWAY ENTERTAINMENT                                                                                                                                          
ID YTV   020201202941      000012STATION ID                                                                                                                                                     
PGRYTV   020201202950210001003011BIG WOLF ON CAMPUS                                DANCES WITHOUT WOLVES EPS 56                      TELESC      C21967 1 25307BCC                              
COMYTV   020201203848      000015J&J/CLEAN & CLEAR                                                                                                                                              
COMYTV   020201203903      000015HWY/ADULT BARTER #3                                                                                                                                            
COMYTV   020201203918      000100AMERICAN EXPRESS CANADA INC.                                                                                                                                   
COMYTV   020201204018      000030HIGHWAY ENTERTAINMENT                                                                                                                                          
PRCYTV   020201204048      000030YTV PROMO CONTRACT                                                                                                                                             
PRCYTV   020201204118      000015YTV PROMO CONTRACT                                                                                                                                             
COMYTV   020201204847      000030KRAFT/:30'S WINTER/SPRING                                                                                                                                      
COMYTV   020201204917      000030MATTEL/SPRING                                                                                                                                                  
COMYTV   020201204947      000030HWY/ADULT BARTER #4                                                                                                                                            
COMYTV   020201205017      000015HWY/ADULT CPA HU#3                                                                                                                                             
COMYTV   020201205032      000015HWY/ADULT BARTER #3                                                                                                                                            
PRCYTV   020201205047      000030YTV PROMO CONTRACT                                                                                                                                             
COMYTV   020201205531      000015HWY/ADULT CPA HU#3                                                                                                                                             
COMYTV   020201205546      000015HWY/ADULT BARTER #3                                                                                                                                            
COMYTV   020201205601      000030HIGHWAY ENTERTAINMENT                                                                                                                                          
COMYTV   020201205631      000030HWY/ADULT CPA#1                                                                                                                                                
COMYTV   020201205701      000030HWY/ADULT BARTER #4                                                                                                                                            
PRCYTV   020201205731      000030YTV PROMO CONTRACT                                                                                                                                             
PRCYTV   020201205801      000030YTV PROMO CONTRACT                                                                                                                                             
ID YTV   020201205945      000012STATION ID                                                                                                                                                     
SPOYTV   020201205957      000005K CLARK/PULL UPS                                                                                                                                               
PGRYTV   020201210001212957002956VAMPIRE HIGH                                      FEEDING FRENZY EPS 7                              LAFETEYTV   C18377 1 35307ACC                              
COMYTV   020201210848      000030HIGHWAY ENTERTAINMENT                                                                                                                                          
COMYTV   020201210918      000030HWY/ADULT CPA#2                                                                                                                                                
COMYTV   020201210948      000015HWY/ADULT CPA HU#2                                                                                                                                             
COMYTV   020201211003      000030MGM/ROLLERBALL                                                                                                                                                 
COMYTV   020201211033      000015KIMBERLY-CLARK OF CANADA LTD.                                                                                                                                  
PRCYTV   020201211048      000030YTV PROMO CONTRACT                                                                                                                                             
PRCYTV   020201211118      000015YTV PROMO CONTRACT                                                                                                                                             
COMYTV   020201212000      000030KELLOGG/RICE KRISPIES CO-VIEW                                                                                                                                  
COMYTV   020201212030      000030GLAXOSMITHKLINE/AQUAFRESH PAST                                                                                                                                 
COMYTV   020201212100      000015UNIVERSAL FILMS/BIG FAT LIAR                                                                                                                                   
COMYTV   020201212115      000015HWY/ADULT CPA HU#2                                                                                                                                             
COMYTV   020201212130      000030K CLARK/PULL UPS                                                                                                                                               
COMYTV   020201212517      000100AMEX/AIRMILES                                                                                                                                                  
COMYTV   020201212617      000030SO GOOD/CORPORATE                                                                                                                                              
COMYTV   020201212647      000030HIGHWAY ENTERTAINMENT                                                                                                                                          
ID YTV   020201212942      000012STATION ID                                                                                                                                                     
PGRYTV   020201212957215952002955DARIA                                             ART BURN  EPS 59                                                     2 38307ECC                              
SPOYTV   020201213052      000010WRIGLEY/JUICY FRUIT                                                                                                                                            
COMYTV   020201213102      000030SCHNEIDER/HOT STUFF                                                                                                                                            
COMYTV   020201213132      000030K CLARK/KOTEX                                                                                                                                                  
COMYTV   020201213202      000030AOL/CORPORATE                                                                                                                                                  
COMYTV   020201213232      000030ARM&HAMMER DENTAL CARE GUM-TOO                                                                                                                                 
PRCYTV   020201213302      000030YTV PROMO CONTRACT                                                                                                                                             
PRCYTV   020201213332      000015YTV PROMO CONTRACT                                                                                                                                             
COMYTV   020201213956      000030KELLOGG/TEEN                                                                                                                                                   
COMYTV   020201214026      000030SO GOOD/CORPORATE                                                                                                                                              
COMYTV   020201214056      000030ITALPASTA/PASTA                                                                                                                                                
COMYTV   020201214126      000030AOL/CORPORATE                                                                                                                                                  
PRCYTV   020201214156      000030YTV PROMO CONTRACT                                                                                                                                             
COMYTV   020201214942      000030ROGERS AT&T/ICQ/TEXT MESSAGING                                                                                                                                 
COMYTV   020201215012      000030QUAKER/CRISPY MINIS - :30'S                                                                                                                                    
COMYTV   020201215042      000030HWY/WOMEN CPA HU                                                                                                                                               
COMYTV   020201215112      000030KRAFT/:30'S WINTER/SPRING                                                                                                                                      
PRCYTV   020201215142      000030YTV PROMO CONTRACT                                                                                                                                             
ID YTV   020201215942      000012STATION ID                                                                                                                                                     
PGRYTV   020201215952230000010008CHART ATTACK!                                     EPS 2-20                                                             1 21308CCC                              
COMYTV   020201220837      000030WEST 49                                                                                                                                                        
COMYTV   020201220907      000030K CLARK/HUGGIES:30 ULTRA                                                                                                                                       
COMYTV   020201220937      000100P&G/BASE BUY                                                                                                                                                   
COMYTV   020201221857      000015HWY/ADULT CPA HU#3                                                                                                                                             
COMYTV   020201221912      000030ROGERS AT&T/ICQ/TEXT MESSAGING                                                                                                                                 
COMYTV   020201221942      000030KELLOGG/TEEN                                                                                                                                                   
COMYTV   020201222012      000030K CLARK/PULL UPS                                                                                                                                               
COMYTV   020201222042      000030KRAFT/:30'S WINTER/SPRING                                                                                                                                      
COMYTV   020201222112      000015HWY/ADULT BARTER #3                                                                                                                                            
COMYTV   020201222839      000030KELLOGG/TEEN                                                                                                                                                   
COMYTV   020201222909      000100P&G/BASE BUY                                                                                                                                                   
COMYTV   020201223009      000030PILLSBURY/RGB WOMEN                                                                                                                                            
COMYTV   020201223039      000030CANADIAN BLOOD SERVI                                                                                                                                           
COMYTV   020201223833      000030KELLOGG/TEEN                                                                                                                                                   
COMYTV   020201223903      000030ARM&HAMMER DENTAL CARE GUM-TOO                                                                                                                                 
COMYTV   020201223933      000030PILLSBURY/RGB WOMEN                                                                                                                                            
COMYTV   020201224003      000015J&J/NEUTROGENA HAND CREAM                                                                                                                                      
COMYTV   020201224018      000030HWY/ADULT CPA HU#1                                                                                                                                             
COMYTV   020201224048      000015K CLARK/KLEENEX                                                                                                                                                
COMYTV   020201225222      000030PILLSBURY/RGB WOMEN                                                                                                                                            
COMYTV   020201225252      000015HWY/ADULT CPA HU#2                                                                                                                                             
COMYTV   020201225307      000030ARM&HAMMER DENTAL CARE GUM-TOO                                                                                                                                 
COMYTV   020201225337      000030KELLOGG/RICE KRISPIES CO-VIEW                                                                                                                                  
COMYTV   020201225407      000030AOL/CORPORATE                                                                                                                                                  
COMYTV   020201225437      000015HWY/ADULT CPA HU#3                                                                                                                                             
ID YTV   020201225946      000012STATION ID                                                                                                                                                     
PGRYTV   020201230000232956002956BIG WOLF ON CAMPUS                                ROB ZOMBIE EP38                                   TELESC      A45078 1 35307BCC                              
COMYTV   020201230539      000030KRAFT/:30'S WINTER/SPRING                                                                                                                                      
COMYTV   020201230609      000030MAYTAG/LAUNDRY                                                                                                                                                 
COMYTV   020201230639      000030HWY/WOMEN CPA HU                                                                                                                                               
COMYTV   020201230709      000030KELLOGG/NABS                                                                                                                                                   
PRCYTV   020201230739      000015YTV PROMO CONTRACT                                                                                                                                             
PRCYTV   020201230754      000015YTV PROMO CONTRACT                                                                                                                                             
PRCYTV   020201230809      000015YTV PROMO CONTRACT                                                                                                                                             
COMYTV   020201231917      000100P&G/BASE BUY                                                                                                                                                   
COMYTV   020201232017      000030KELLOGG/TEEN                                                                                                                                                   
COMYTV   020201232047      000030GLAXOSMITHKLINE/AQUAFRESH PAST                                                                                                                                 
PRCYTV   020201232117      000030YTV PROMO CONTRACT                                                                                                                                             
COMYTV   020201232532      000100P&G/BASE BUY                                                                                                                                                   
COMYTV   020201232632      000030KRAFT/:30'S WINTER/SPRING                                                                                                                                      
COMYTV   020201232702      000030SO GOOD/CORPORATE                                                                                                                                              
PRCYTV   020201232732      000030YTV PROMO CONTRACT                                                                                                                                             
ID YTV   020201232945      000012STATION ID                                                                                                                                                     
PGRYTV   020201232956235957003001STUDENT BODIES                                    GROUNDED EP25                                     STUDEN      A22520 1 35307ACC                              
COMYTV   020201233316      000030GLAXOSMITHKLINE/AQUAFRESH PAST                                                                                                                                 
COMYTV   020201233346      000030KRAFT/:30'S WINTER/SPRING                                                                                                                                      
COMYTV   020201233416      000030HWY/WOMEN CPA HU                                                                                                                                               
COMYTV   020201233446      000030HWY/HOME HARDWARE BARTER PKGS                                                                                                                                  
COMYTV   020201234044      000015J&J/NEUTROGENA HAND CREAM                                                                                                                                      
COMYTV   020201234059      000030AOL/CORPORATE                                                                                                                                                  
COMYTV   020201234129      000015K CLARK/KLEENEX                                                                                                                                                
COMYTV   020201234144      000030ARM&HAMMER DENTAL CARE GUM-TOO                                                                                                                                 
COMYTV   020201234214      000030HWY/HOME HARDWARE BARTER PKGS                                                                                                                                  
COMYTV   020201235250      000030KRAFT/:30'S WINTER/SPRING                                                                                                                                      
COMYTV   020201235320      000030ROGERS AT&T/ICQ/TEXT MESSAGING                                                                                                                                 
COMYTV   020201235350      000030HWY/ADULT CPA#1                                                                                                                                                
COMYTV   020201235420      000030HWY/HOME HARDWARE BARTER PKGS                                                                                                                                  
PRCYTV   020201235450      000030YTV PROMO CONTRACT                                                                                                                                             
ID YTV   020201235945      000012STATION ID                                                                                                                                                     
PGRYTV   020201235957003010003013HOME MOVIES                                       DAD EPS 20                                                           2 38307ECC                              
COMYTV   020201000614      000030HWY/HOME HARDWARE BARTER PKGS                                                                                                                                  
COMYTV   020201000644      000030QUAKER/CRISPY MINIS - :30'S                                                                                                                                    
COMYTV   020201000714      000030GLAXOSMITHKLINE/AQUAFRESH PAST                                                                                                                                 
COMYTV   020201000744      000030HWY/ADULT CPA HU#1                                                                                                                                             
COMYTV   020201001222      000030SCHNEIDER/HOT STUFF                                                                                                                                            
COMYTV   020201001252      000030AOL/CORPORATE                                                                                                                                                  
COMYTV   020201001322      000030HWY/HOME HARDWARE BARTER PKGS                                                                                                                                  
COMYTV   020201001352      000015HWY/ADULT BARTER #3                                                                                                                                            
COMYTV   020201001407      000015HWY/ADULT CPA HU#3                                                                                                                                             
COMYTV   020201002052      000030SO GOOD/CORPORATE                                                                                                                                              
COMYTV   020201002122      000030ROGERS AT&T/ICQ/TEXT MESSAGING                                                                                                                                 
COMYTV   020201002152      000030SCHNEIDER/HOT STUFF                                                                                                                                            
COMYTV   020201002222      000030AOL/CORPORATE                                                                                                                                                  
COMYTV   020201002252      000030ITALPASTA/PASTA                                                                                                                                                
ID YTV   020201002953      000012STATION ID                                                                                                                                                     
PGRYTV   020201003010005839002829DARIA                                             ART BURN  EPS 59                                                     2 38307ECC                              
COMYTV   020201003103      000100P&G/BASE BUY                                                                                                                                                   
COMYTV   020201003203      000030PILLSBURY/RGB WOMEN                                                                                                                                            
COMYTV   020201003233      000030AOL/CORPORATE                                                                                                                                                  
COMYTV   020201003912      000030HWY/WOMEN CPA HU                                                                                                                                               
COMYTV   020201003942      000030KRAFT/:30'S WINTER/SPRING                                                                                                                                      
COMYTV   020201004012      000030ARM&HAMMER DENTAL CARE GUM-TOO                                                                                                                                 
COMYTV   020201004042      000030HWY/ADULT CPA HU#1                                                                                                                                             
COMYTV   020201004828      000030KRAFT/:30'S WINTER/SPRING                                                                                                                                      
COMYTV   020201004858      000030ROGERS AT&T/ICQ/TEXT MESSAGING                                                                                                                                 
COMYTV   020201004928      000030MGM/ROLLERBALL                                                                                                                                                 
COMYTV   020201004958      000015HWY/ADULT CPA HU#3                                                                                                                                             
COMYTV   020201005013      000030HWY/ADULT CPA#2                                                                                                                                                
COMYTV   020201005043      000015HWY/ADULT CPA HU#2                                                                                                                                             
ID YTV   020201005828      000012STATION ID                                                                                                                                                     
PGRYTV   020201005839012709002830DOWNTOWN                                          TESTING EP9                                                          2 38307ECC                              
COMYTV   020201005915      000100P&G/BASE BUY                                                                                                                                                   
COMYTV   020201010015      000030HWY/ADULT CPA#1                                                                                                                                                
COMYTV   020201010045      000015K CLARK/KLEENEX                                                                                                                                                
COMYTV   020201010100      000015HWY/ADULT CPA HU#3                                                                                                                                             
COMYTV   020201010701      000030SCHNEIDER/HOT STUFF                                                                                                                                            
COMYTV   020201010731      000030BUCKLEY'S                                                                                                                                                      
COMYTV   020201010801      000015HWY/ADULT BARTER #3                                                                                                                                            
COMYTV   020201010816      000030HWY/ADULT BARTER #1                                                                                                                                            
COMYTV   020201010846      000015HWY/ADULT CPA HU#2                                                                                                                                             
COMYTV   020201011645      000100P&G/BASE BUY                                                                                                                                                   
COMYTV   020201011745      000030ROGERS AT&T/ICQ/TEXT MESSAGING                                                                                                                                 
COMYTV   020201011815      000030AOL/CORPORATE                                                                                                                                                  
COMYTV   020201011845      000030HWY/ADULT CPA#2                                                                                                                                                
ID YTV   020201012658      000012STATION ID                                                                                                                                                     
PGRYTV   020201012709015839003130KABLAM                                            EPS 47                                                               2 28307ECC                              
COMYTV   020201013730      000030ITALPASTA/PASTA                                                                                                                                                
COMYTV   020201013800      000015HWY/ADULT BARTER #3                                                                                                                                            
COMYTV   020201013815      000030SCHNEIDER/HOT STUFF                                                                                                                                            
COMYTV   020201013845      000015J&J/NEUTROGENA HAND CREAM                                                                                                                                      
COMYTV   020201013900      000030HWY/PLAYTOY BARTER                                                                                                                                             
COMYTV   020201014343      000015HWY/ADULT CPA HU#2                                                                                                                                             
COMYTV   020201014358      000015K CLARK/KLEENEX                                                                                                                                                
COMYTV   020201014413      000030HWY/WOMEN CPA HU                                                                                                                                               
COMYTV   020201014443      000030AOL/CORPORATE                                                                                                                                                  
COMYTV   020201014513      000030HWY/ADULT BARTER #4                                                                                                                                            
COMYTV   020201015137      000100P&G/BASE BUY                                                                                                                                                   
COMYTV   020201015237      000030CON AGRA/POGO                                                                                                                                                  
COMYTV   020201015307      000030MGM/ROLLERBALL                                                                                                                                                 
COMYTV   020201015337      000030HWY/ADULT CPA#1                                                                                                                                                
ID YTV   020201015826      000012STATION ID                                                                                                                                                     
PGRYTV   020201015839022908003029STICKIN' AROUND                                   WHAT'S/DODDLERS EP24                              NELVANYTV   A10450 1 35307ECC                              
COMYTV   020201015944      000100P&G/BASE BUY                                                                                                                                                   
COMYTV   020201020044      000030AOL/CORPORATE                                                                                                                                                  
COMYTV   020201020114      000030ARM&HAMMER DENTAL CARE GUM-TOO                                                                                                                                 
COMYTV   020201021213      000100P&G/BASE BUY                                                                                                                                                   
COMYTV   020201021313      000030HWY/PLAYTOY BARTER                                                                                                                                             
COMYTV   020201021343      000030HWY/ADULT BARTER #1                                                                                                                                            
COMYTV   020201022448      000030PILLSBURY/RGB WOMEN                                                                                                                                            
COMYTV   020201022518      000030AOL/CORPORATE                                                                                                                                                  
COMYTV   020201022548      000015HWY/ADULT CPA HU#2                                                                                                                                             
COMYTV   020201022603      000030MGM/ROLLERBALL                                                                                                                                                 
COMYTV   020201022633      000015HWY/ADULT CPA HU#3                                                                                                                                             
COMYTV   020201022648      000030HWY/ADULT BARTER #1                                                                                                                                            
ID YTV   020201022854      000012STATION ID                                                                                                                                                     
PGRYTV   020201022908025952003044RUGRATS                                           BAD SHOES/WASH STORY EP132                                           2 38307ECC                              
COMYTV   020201022957      000030HWY/WOMEN CPA HU                                                                                                                                               
COMYTV   020201023027      000030KRAFT/:30'S WINTER/SPRING                                                                                                                                      
COMYTV   020201023057      000030ARM&HAMMER DENTAL CARE GUM-TOO                                                                                                                                 
COMYTV   020201023127      000030AOL/CORPORATE                                                                                                                                                  
COMYTV   020201024309      000030HWY/ADULT CPA HU#1                                                                                                                                             
COMYTV   020201024339      000100P&G/BASE BUY                                                                                                                                                   
COMYTV   020201024439      000030EFFEM/UNCLE BEN'S RICE+PASTA M                                                                                                                                 
COMYTV   020201025621      000030BUCKLEY'S                                                                                                                                                      
COMYTV   020201025651      000030AOL/CORPORATE                                                                                                                                                  
COMYTV   020201025721      000030TETLEY TEA/BLUE&HERBAL :30'S                                                                                                                                   
COMYTV   020201025751      000030ARM&HAMMER DENTAL CARE GUM-TOO                                                                                                                                 
COMYTV   020201025821      000030UNIVERSAL FILMS/BIG FAT LIAR                                                                                                                                   
ID YTV   020201025940      000012STATION ID                                                                                                                                                     
PGRYTV   020201025952031650001658GUNDAM WING                                       SCENARIO FOR BLOODSHED EP7                                           7 38307ECC                              
COMYTV   020201030519      000100P&G/BASE BUY                                                                                                                                                   
COMYTV   020201030619      000030PILLSBURY/RGB WOMEN                                                                                                                                            
COMYTV   020201030649      000030AOL/CORPORATE                                                                                                                                                  
COMYTV   020201031450      000030ARM&HAMMER DENTAL CARE GUM-TOO                                                                                                                                 
COMYTV   020201031520      000030AOL/CORPORATE                                                                                                                                                  
COMYTV   020201031550      000015J&J/NEUTROGENA HAND CREAM                                                                                                                                      
COMYTV   020201031605      000015HWY/ADULT CPA HU#2                                                                                                                                             
COMYTV   020201031620      000030HWY/WOMEN CPA HU                                                                                                                                               
PSAYTV   020201031650031720000030ARTISTS VS RACISM/LIVE                                                                                                 1 000130                                
PGRYTV   020201031720033029001309GUNDAM WING                                       SCENARIO FOR BLOODSHED EP7                                           7 38307ECC                              
COMYTV   020201032308      000030HWY/ADULT CPA#2                                                                                                                                                
COMYTV   020201032338      000030EFFEM/UNCLE BEN'S RICE+PASTA M                                                                                                                                 
COMYTV   020201032408      000030ARM&HAMMER DENTAL CARE GUM-TOO                                                                                                                                 
COMYTV   020201032438      000030AOL/CORPORATE                                                                                                                                                  
ID YTV   020201033017      000012STATION ID                                                                                                                                                     
PGRYTV   020201033029040040003011CATDOG                                            SEATED/RYE EPS 45                                                    2 38307ECC                              
COMYTV   020201033123      000100P&G/BASE BUY                                                                                                                                                   
COMYTV   020201033223      000030GLAXOSMITHKLINE/AQUAFRESH PAST                                                                                                                                 
COMYTV   020201033253      000030AOL/CORPORATE                                                                                                                                                  
COMYTV   020201034430      000030KRAFT/:30'S WINTER/SPRING                                                                                                                                      
COMYTV   020201034500      000030ARM&HAMMER DENTAL CARE GUM-TOO                                                                                                                                 
COMYTV   020201034530      000030QUAKER/CRISPY MINIS - :30'S                                                                                                                                    
COMYTV   020201034600      000030ROGERS AT&T/ICQ/TEXT MESSAGING                                                                                                                                 
COMYTV   020201035737      000030SCHNEIDER/HOT STUFF                                                                                                                                            
COMYTV   020201035807      000030GLAXOSMITHKLINE/AQUAFRESH PAST                                                                                                                                 
COMYTV   020201035837      000030AOL/CORPORATE                                                                                                                                                  
COMYTV   020201035907      000030KABOOM/MAGGIE+FEROCIOUS BEAST                                                                                                                                  
ID YTV   020201040028      000012STATION ID                                                                                                                                                     
PGRYTV   020201040040043120003040HEY ARNOLD                                        6TH GRADE GIRLS/BASEBALL                                             2 38307ECC                              
COMYTV   020201040556      000100P&G/BASE BUY                                                                                                                                                   
COMYTV   020201040656      000030AOL/CORPORATE                                                                                                                                                  
COMYTV   020201040726      000030GLAXOSMITHKLINE/AQUAFRESH PAST                                                                                                                                 
COMYTV   020201041439      000030HWY/ADULT CPA#1                                                                                                                                                
COMYTV   020201041509      000030AOL/CORPORATE                                                                                                                                                  
COMYTV   020201041539      000030KRAFT/:30'S WINTER/SPRING                                                                                                                                      
COMYTV   020201041609      000030HWY/ADULT BARTER #1                                                                                                                                            
COMYTV   020201042047      000015HWY/ADULT CPA HU#2                                                                                                                                             
COMYTV   020201042102      000030HWY/ADULT CPA#2                                                                                                                                                
COMYTV   020201042132      000030EFFEM/UNCLE BEN'S RICE+PASTA M                                                                                                                                 
COMYTV   020201042202      000015K CLARK/KLEENEX                                                                                                                                                
