PGRYTV   040601060000062601002601UH OH!                                            EPS 99                                                               1 311100CC                              
PRCYTV   040601060315      000030YTV PROMO CONTRACT                                                                                                                                             
PRCYTV   040601060345      000030YTV PROMO CONTRACT                                                                                                                                             
PRCYTV   040601061144      000030YTV PROMO CONTRACT                                                                                                                                             
PRCYTV   040601061214      000015YTV PROMO CONTRACT                                                                                                                                             
PRCYTV   040601061729      000030YTV PROMO CONTRACT                                                                                                                                             
PRCYTV   040601061759      000030YTV PROMO CONTRACT                                                                                                                                             
INTYTV   040601062601062958000357CHIP 'N' ORBIT                                    EPS 59                                                               1 311120CC                              
ID YTV   040601062947      000012STATION ID                                                                                                                                                     
PGRYTV   040601062958065525002527STICKIN' AROUND                                   MOUSE/TEXAS EP21                                  NELVANYTV   A10447 1 32107ECC                              
PRCYTV   040601063105      000030YTV PROMO CONTRACT                                                                                                                                             
PRCYTV   040601064214      000030YTV PROMO CONTRACT                                                                                                                                             
PRCYTV   040601065319      000030YTV PROMO CONTRACT                                                                                                                                             
INTYTV   040601065525065825000300NANALAN'                                          SNEEZE EP24                                                          1 351120                                
INTYTV   040601065825070000000135RALF THE RECORD RAT                               EPS 89                                                               1 351120                                
PGRYTV   040601070000072602002602GEORGE SHRINKS                                    CLOSE ENCOUNTERS  EP 3                            NELVAN             1 32107ECC                              
INTYTV   040601072602072825000223NELVANA INTERSTITIALS                             MAY THE BUNNY RISE TO MEET YOU                                       1 321120                                
PRCYTV   040601072745      000030YTV PROMO CONTRACT                                                                                                                                             
INTYTV   040601072825073000000135RALF THE RECORD RAT                               EPS 90                                                               1 351120                                
PGRYTV   040601073000075158002158FLYING RHINO JUNIOR HIGH                          IT'S GREEK TO ME        EPS 16                    NELVAN             1 32107ECC                              
PGRYTV   040601075158075829000631SNAILYMPICS                                       MAX AGAINST GUMMY          EP1                                B25274 1 25107E                                
PRCYTV   040601075813      000015YTV PROMO CONTRACT                                                                                                                                             
INTYTV   040601075829080004000135RALF THE RECORD RAT                               EPS 91                                                               1 351120                                
PGRYTV   040601080004082603002559JACOB TWO TWO                                     JTT & THE FANTASTIC FOUNTAIN                                         1 22107ECC                              
PRCYTV   040601080925      000030YTV PROMO CONTRACT                                                                                                                                             
PRCYTV   040601081600      000030YTV PROMO CONTRACT                                                                                                                                             
PRCYTV   040601082333      000030YTV PROMO CONTRACT                                                                                                                                             
PRCYTV   040601082403      000030YTV PROMO CONTRACT                                                                                                                                             
INTYTV   040601082603082703000100STICKIN' AROUND                                   HIT THE SHOWERS                                                      1 321120CC                              
INTYTV   040601082703082957000254COLOR QUEST                                       COLOUR QUEST - EP 3                                                  1 211120                                
ID YTV   040601082945      000012STATION ID                                                                                                                                                     
PGRYTV   040601082957085328002331MONA THE VAMPIRE                                  TOYS ARE US/HAIR SCARE EPS 46.                    CINAR YTV   A65557 1 35107E                                
PGRYTV   040601085328090011000643ELLIOT MOOSE                                      CASE OF MISSING EP41                              NELVAN      A25758 1 32107GCC                              
ID YTV   040601085958      000012STATION ID                                                                                                                                                     
PGRYTV   040601090011092419002408RUPERT                                            EPS 66-RUPERT & THE JOLLY ROGE                    NELVANYTV   A03983 1 32107ECC                              
INTYTV   040601092419092646000227NELVANA INTERSTITIALS                             SMILE TRAIL                                                          1 321120                                
PRCYTV   040601092603      000030YTV PROMO CONTRACT                                                                                                                                             
INTYTV   040601092646092746000100STICKIN' AROUND                                   MY DOG ATE MY PROJECT                                                1 321120CC                              
INTYTV   040601092746092958000212NELVANA INTERSTITIALS                             DOWN TOWN ON THE FARM                                                1 321120                                
ID YTV   040601092945      000012STATION ID                                                                                                                                                     
PGRYTV   040601092958095401002403CARE BEARS SERIES                                 BIG STAR ROUND UP  EPS 6                          NELVAN      C06927 1 32107E                                
INTYTV   040601095401095701000300NANALAN'                                          DINNER GUEST EP25                                                    1 351120                                
INTYTV   040601095701100013000312NANALAN'                                          FEEDING THE BIRDS EP26                                               1 351120                                
ID YTV   040601100000      000012STATION ID                                                                                                                                                     
PGRYTV   040601100013102603002550SEVEN LITTLE MONSTERS                             ALL'S QUIET ON...  EP 27 (PS)                                        1 32107ECC                              
PRCYTV   040601102442      000030YTV PROMO CONTRACT                                                                                                                                             
PRCYTV   040601102512      000030YTV PROMO CONTRACT                                                                                                                                             
PRCYTV   040601102542      000015YTV PROMO CONTRACT                                                                                                                                             
INTYTV   040601102603103000000357CHIP 'N' ORBIT                                    EPS 60                                                               1 311120CC                              
ID YTV   040601102945      000012STATION ID                                                                                                                                                     
PGRYTV   040601103000105318002318MONSTER BY MISTAKE                                THE BIG DIG EP17.                                 MONSTEYTV   A30283 1 35107ECC                              
PRCYTV   040601105300      000015YTV PROMO CONTRACT                                                                                                                                             
PGRYTV   040601105318110001000643ELLIOT MOOSE                                      SCAREDY CAT EP42                                  NELVAN      A25753 1 32107GCC                              
ID YTV   040601105945      000012STATION ID                                                                                                                                                     
PGRYTV   040601110001112648002647STICKIN' AROUND                                   JUMBO FRANK/OWED TO A TREE                        NELVANYTV   A08092 1 32107ECC                              
PRCYTV   040601110109      000030YTV PROMO CONTRACT                                                                                                                                             
PRCYTV   040601111258      000030YTV PROMO CONTRACT                                                                                                                                             
PRCYTV   040601112436      000030YTV PROMO CONTRACT                                                                                                                                             
INTYTV   040601112648113000000312NELVANA INTERSTITIALS                             SMILE TRAILS                                                         1 321120                                
PRCYTV   040601112845      000030YTV PROMO CONTRACT                                                                                                                                             
PRCYTV   040601112915      000030YTV PROMO CONTRACT                                                                                                                                             
ID YTV   040601112945      000012STATION ID                                                                                                                                                     
PGRYTV   040601113000115158002158FLYING RHINO JUNIOR HIGH                          IT'S GREEK TO ME        EPS 16                    NELVAN             1 32107ECC                              
INTYTV   040601115158115603000405NANALAN'                                          FROG EP28                                                            1 351120                                
PRCYTV   040601115455      000030YTV PROMO CONTRACT                                                                                                                                             
PRCYTV   040601115525      000030YTV PROMO CONTRACT                                                                                                                                             
INTYTV   040601115603120000000357CHIP 'N' ORBIT                                    EPS 61                                                               1 311120CC                              
ID YTV   040601115945      000012STATION ID                                                                                                                                                     
PGRYTV   040601120000122623002623SPONGEBOB SQUAREPANTS                             PRE-HIBERNATION/CRIME  EPS 27                                        2 38107ECC                              
PRCYTV   040601120046      000030YTV PROMO CONTRACT                                                                                                                                             
PRCYTV   040601120116      000015YTV PROMO CONTRACT                                                                                                                                             
PRCYTV   040601121242      000030YTV PROMO CONTRACT                                                                                                                                             
PRCYTV   040601122435      000030YTV PROMO CONTRACT                                                                                                                                             
PRCYTV   040601122505      000030YTV PROMO CONTRACT                                                                                                                                             
INTYTV   040601122623122848000225COLOR QUEST                                       COLOUR QUEST - EP 4                                                  1 211120                                
INTYTV   040601122848123000000112STICKIN' AROUND                                   DISCIPLINARY ACTION                                                  1 321120CC                              
ID YTV   040601122945      000012STATION ID                                                                                                                                                     
PGRYTV   040601123000125145002145HAMTARO                                           THE VERY BEST PRESENT   EP 100                                D02043 7 38107ECC2                             
PRCYTV   040601123111      000030YTV PROMO CONTRACT                                                                                                                                             
PRCYTV   040601123711      000030YTV PROMO CONTRACT                                                                                                                                             
PRCYTV   040601124320      000030YTV PROMO CONTRACT                                                                                                                                             
PGRYTV   040601125145125737000552PINGU                                             PINGU & THE TOY           EP68                                       3 18107E                                
PRCYTV   040601125706      000030YTV PROMO CONTRACT                                                                                                                                             
INTYTV   040601125737130005000228EVERYDAY HEROES                                   HELI PILOT  EP 5                                                     1 311120                                
ID YTV   040601125951      000012STATION ID                                                                                                                                                     
PGRYTV   040601130005132236002231CARE BEARS                                        HEARTS AT SEA  EPS 21                             NELVAN      C07540 1 32107E                                
PRCYTV   040601132139      000030YTV PROMO CONTRACT                                                                                                                                             
PRCYTV   040601132209      000030YTV PROMO CONTRACT                                                                                                                                             
PGRYTV   040601132236133004000728SNAILYMPICS                                       BLUM, THE BLUE SNAIL       EP2                                B25275 1 25107E                                
PRCYTV   040601132854      000030YTV PROMO CONTRACT                                                                                                                                             
PRCYTV   040601132924      000030YTV PROMO CONTRACT                                                                                                                                             
ID YTV   040601132954      000012STATION ID                                                                                                                                                     
PGRYTV   040601133004135606002602GEORGE SHRINKS                                    CLOSE ENCOUNTERS  EP 3                            NELVAN             1 32107ECC                              
INTYTV   040601135606135815000209NELVANA INTERSTITIALS                             THE TOOTH                                                            1 321120                                
INTYTV   040601135815135950000135RALF THE RECORD RAT                               EPS 92                                                               1 351120                                
ID YTV   040601135940      000012STATION ID                                                                                                                                                     
PGRYTV   040601135950142321002331MONA THE VAMPIRE                                  THE WASHBURNS/SWAMP THING E12.                    FANCYCYTV   A18422 1 35107ECC                              
INTYTV   040601142321142848000527CHIP 'N' ORBIT                                    EPS 62                                                               1 311120CC                              
PRCYTV   040601142708      000030YTV PROMO CONTRACT                                                                                                                                             
PRCYTV   040601142738      000030YTV PROMO CONTRACT                                                                                                                                             
PRCYTV   040601142808      000030YTV PROMO CONTRACT                                                                                                                                             
INTYTV   040601142848143000000112STICKIN' AROUND                                   IF IT AIN'T FIXED, BREAK IT                                          1 321120CC                              
PGRYTV   040601143000145346002346D'MYNA LEAGUES                                    ON THE ROAD  (PS)      EPS 20                     D'MYNAYTV   A40236 1 35107ECC                              
PRCYTV   040601145245      000030YTV PROMO CONTRACT                                                                                                                                             
PRCYTV   040601145315      000030YTV PROMO CONTRACT                                                                                                                                             
INTYTV   040601145346145731000345CHIP 'N' ORBIT                                    EPS 63                                                               1 311120CC                              
INTYTV   040601145731145941000210EVERYDAY HEROES                                   TREE  EP 6                                                           1 311120                                
PGRYTV   040601145941151442001501CRAMP TWINS                                       DATE DUPE/AGENT X    EPS 2                                           4 28307ECC                              
SPOYTV   040601150046      000010YTV/BFPM 5                                                                                                                                                     
COMYTV   040601150056      000030MCDONALDS/HAPPY MEAL                                                                                                                                           
COMYTV   040601150126      000015HASBRO/PRE-FALL                                                                                                                                                
COMYTV   040601150141      000015YTV/DARE FOODS ULT.COOKIES WEB                                                                                                                                 
PRCYTV   040601150156      000030YTV PROMO CONTRACT                                                                                                                                             
COMYTV   040601151312      000030KRAFT/P2 KIDS 30'S                                                                                                                                             
COMYTV   040601151342      000030MATTEL/SUMMER CORP JUNE ONLY30                                                                                                                                 
COMYTV   040601151412      000030YTV/DAIRY QEEN/MISTY PROMO                                                                                                                                     
PSAYTV   040601151442151512000030PSA/ADOPT A TIGER                                                                                                      1 000130                                
PGRYTV   040601151512152848001336CRAMP TWINS                                       DATE DUPE/AGENT X    EPS 2                                           4 28307ECC                              
COMYTV   040601152548      000030HASBRO/PRE-FALL                                                                                                                                                
COMYTV   040601152618      000030KRAFT/P2 KIDS 30'S                                                                                                                                             
PROYTV   040601152648      000030YTV PROMO CONTRACT                                                                                                                                             
PROYTV   040601152718      000030YTV PROMO CONTRACT                                                                                                                                             
INTYTV   040601152848153000000112ANIME MINUTES                                     EPS 25                                                               1 313120                                
PGRYTV   040601153000155738002738JACOB TWO TWO                                     JTT & THE FANTASTIC FOUNTAIN                                         1 32307ECC                              
SPOYTV   040601153922      000010BANDAI/VIDEO GAMES SUMMER 2004                                                                                                                                 
COMYTV   040601153932      000015WB/HARRY POTTER111/PRISONER:15                                                                                                                                 
COMYTV   040601153947      000030KRAFT/P2 KIDS 30'S                                                                                                                                             
COMYTV   040601154017      000015YTV/BFPM 5                                                                                                                                                     
COMYTV   040601154631      000030SPIN MASTER TOYS INC.                                                                                                                                          
COMYTV   040601154701      000030KELLOGG/CEREAL&MILK BAR                                                                                                                                        
COMYTV   040601154731      000030YTV/20TH CENT-GARFIELD MOVIE                                                                                                                                   
COMYTV   040601154801      000030KRAFT/P2 KIDS 30'S                                                                                                                                             
COMYTV   040601155534      000030KELLOGG/FROSTED FLAKES                                                                                                                                         
COMYTV   040601155604      000030DISC KIDS/ANIMAL EVENT                                                                                                                                         
PRCYTV   040601155634      000015YTV PROMO CONTRACT                                                                                                                                             
INTYTV   040601155738160000000222PROGRAM JOCKEY                                    PROGRAM JOCKEY                                                       1 213120                                
PGRYTV   040601160000161459001459BEYBLADE                                          CYBER DRAGOON TAKES CONTROL                                   D02193 7 38307ECC2                             
COMYTV   040601160545      000015WB/HARRY POTTER111/PRISONER:15                                                                                                                                 
COMYTV   040601160600      000015YTV/DARE FOODS ULT.COOKIES WEB                                                                                                                                 
COMYTV   040601160615      000030MATTEL CANADA INC.                                                                                                                                             
PRCYTV   040601160645      000030YTV PROMO CONTRACT                                                                                                                                             
COMYTV   040601161329      000030KELLOGG/FROSTED FLAKES                                                                                                                                         
COMYTV   040601161359      000030SPIN MASTER TOYS INC.                                                                                                                                          
COMYTV   040601161429      000030KRAFT/P2 KIDS 30'S                                                                                                                                             
PSAYTV   040601161459161529000030PSA/CONCERN CHILDREN/ICE CREAM                                                                                         1 000130                                
PGRYTV   040601161529162643001114BEYBLADE                                          CYBER DRAGOON TAKES CONTROL                                   D02193 7 38307ECC2                             
COMYTV   040601162038      000030MATTEL/SUMMER CORP JUNE ONLY30                                                                                                                                 
COMYTV   040601162108      000030KELLOGG/FROOT LOOPS                                                                                                                                            
PROYTV   040601162138      000030YTV PROMO CONTRACT                                                                                                                                             
PRCYTV   040601162208      000030YTV PROMO CONTRACT                                                                                                                                             
INTYTV   040601162643163000000317PROGRAM JOCKEY                                    PROGRAM JOCKEY                                                       1 213120                                
PGRYTV   040601163000165628002628YU-GI-OH                                          BROTHERS IN ARMS - PT 3  EP116                                       7 38307ECC                              
SPOYTV   040601163553      000010KELLOGG/CORPORATE KIDS                                                                                                                                         
COMYTV   040601163603      000030EFFEM/SKITTLES :30 TEEN 20PTS                                                                                                                                  
COMYTV   040601163633      000030MATTEL CANADA INC.                                                                                                                                             
COMYTV   040601164234      000015WB/HARRY POTTER111/PRISONER:15                                                                                                                                 
COMYTV   040601164249      000030KELLOGG/FROSTED FLAKES                                                                                                                                         
COMYTV   040601164319      000015YTV/BFPM 5                                                                                                                                                     
COMYTV   040601164334      000030KRAFT/P2 KIDS 30'S                                                                                                                                             
COMYTV   040601164404      000030HASBRO CANADA INC.                                                                                                                                             
COMYTV   040601165101      000030SPIN MASTER/TMNT                                                                                                                                               
COMYTV   040601165131      000030KRAFT/P2 KIDS 30'S                                                                                                                                             
PROYTV   040601165201      000030YTV PROMO CONTRACT                                                                                                                                             
PROYTV   040601165231      000015YTV PROMO CONTRACT                                                                                                                                             
INTYTV   040601165628170000000332PROGRAM JOCKEY                                    PROGRAM JOCKEY                                                       1 213120                                
PGRYTV   040601170000171511001511FAIRLY ODD PARENTS                                ACTION PACKED/SMARTYPANTS                                            2 38307ECC                              
SPOYTV   040601170051      000010BANDAI/VIDEO GAMES SUMMER 2004                                                                                                                                 
COMYTV   040601170101      000030KRAFT/P2 KIDS 30'S                                                                                                                                             
COMYTV   040601170131      000030MATTEL/SUMMER CORP JUNE ONLY30                                                                                                                                 
COMYTV   040601171341      000030MCDONALDS/HAPPY MEAL                                                                                                                                           
COMYTV   040601171411      000030HASBRO/PRE-FALL                                                                                                                                                
COMYTV   040601171441      000030YTV/DAIRY QEEN/MISTY PROMO                                                                                                                                     
PSAYTV   040601171511171541000030KIDS HELP/DINNER                                                                                                       1 000130                                
PGRYTV   040601171541172753001212FAIRLY ODD PARENTS                                ACTION PACKED/SMARTYPANTS                                            2 38307ECC                              
COMYTV   040601172650      000030KELLOGG/CEREAL&MILK BAR                                                                                                                                        
COMYTV   040601172720      000030YTV/20TH CENT-GARFIELD MOVIE                                                                                                                                   
INTYTV   040601172753173000000207PROGRAM JOCKEY                                    PROGRAM JOCKEY                                                       1 213120                                
PGRYTV   040601173000174239001239MARTIN MYSTERY                                    CREEPING SLIME        EPS 3                       MYSTERYTV   A85369 1 35307ECC                              
COMYTV   040601173531      000030KRAFT/P2 KIDS 30'S                                                                                                                                             
COMYTV   040601173601      000030MATTEL CANADA INC.                                                                                                                                             
COMYTV   040601174109      000030BVP/AROUND THE WRLD IN 80DAYS                                                                                                                                  
COMYTV   040601174139      000030KELLOGG/CEREAL&MILK BAR                                                                                                                                        
COMYTV   040601174209      000015HASBRO/PRE-FALL                                                                                                                                                
COMYTV   040601174224      000015YTV/KRAFT TRY SOMETHING NEW                                                                                                                                    
PSAYTV   040601174239174309000030PSA/THINK FAST/KICKFLIP-CDN                                                                                            1 000130                                
PGRYTV   040601174309175648001339MARTIN MYSTERY                                    CREEPING SLIME        EPS 3                       MYSTERYTV   A85369 1 35307ECC                              
COMYTV   040601174937      000030HASBRO/PRE-FALL                                                                                                                                                
COMYTV   040601175007      000030KRAFT/P2 KIDS 30'S                                                                                                                                             
PROYTV   040601175037      000030YTV PROMO CONTRACT                                                                                                                                             
INTYTV   040601175648180000000312PROGRAM JOCKEY                                    PROGRAM JOCKEY                                                       1 213120                                
ID YTV   040601175948      000012STATION ID                                                                                                                                                     
PGRYTV   040601180000181536001536SPONGEBOB SQUAREPANTS                             PRE-HIBERNATION/CRIME  EPS 27                                        2 38307ECC                              
SPOYTV   040601180049      000010YTV CREA ME/CONAGRA/SQUEEZN'GO                                                                                                                                 
COMYTV   040601180059      000015HEINZ/KETCHUP SUMMER 04 15'S                                                                                                                                   
COMYTV   040601180114      000015DAYS INN/SCHREK PROMOTION                                                                                                                                      
COMYTV   040601180129      000030KELLOGG/FROSTED FLAKES                                                                                                                                         
COMYTV   040601180159      000100DIRECT ENERGY/DIRECT RESPONSE                                                                                                                                  
COMYTV   040601181406      000030MR.LUBE/3272*TV*06                                                                                                                                             
COMYTV   040601181436      000030KRAFT/P2 KIDS 30'S                                                                                                                                             
COMYTV   040601181506      000030VISA/DISNEY PROMOTION                                                                                                                                          
PSAYTV   040601181536181606000030KIDS HELP/BEDTIME                                                                                                      1 000130                                
PGRYTV   040601181606183026001420SPONGEBOB SQUAREPANTS                             PRE-HIBERNATION/CRIME  EPS 27                                        2 38307ECC                              
COMYTV   040601182729      000015BOOTS HEALTH/CLEARASIL-SUMMER                                                                                                                                  
COMYTV   040601182744      000030KRAFT/WM VARIOUS SUMMER 04                                                                                                                                     
COMYTV   040601182814      000030SC JOHNSON/SKINTAMATE                                                                                                                                          
COMYTV   040601182844      000030HASBRO/PRE-FALL                                                                                                                                                
COMYTV   040601182914      000015J&J/CLEAN AND CLEAR                                                                                                                                            
PGRYTV   040601183026185930002904ALL GROWN UP                                      THE OLD & THE RESTLESS   EPS 9                                       2 38307ECC                              
COMYTV   040601184027      00001520TH CENT VIDEO/CATCH THAT KID                                                                                                                                 
COMYTV   040601184042      000015J&J/ACNE WASH                                                                                                                                                  
COMYTV   040601184057      000030KRAFT/P2 KIDS 30'S                                                                                                                                             
COMYTV   040601184127      000030HWY/ADULT CASH HIGH DEM SPRING                                                                                                                                 
COMYTV   040601184157      000030P&G/CORPORATE-PRE-EMPTIBLE                                                                                                                                     
COMYTV   040601184828      000015WB/HARRY POTTER111/PRISONER:15                                                                                                                                 
COMYTV   040601184843      000030KRAFT/P2 KIDS 30'S                                                                                                                                             
COMYTV   040601184913      000015HASBRO/PRE-FALL                                                                                                                                                
COMYTV   040601184928      000030HWY/ADULT CASH HIGH DEM SPRING                                                                                                                                 
COMYTV   040601184958      000030NESTLE CANADA INC.                                                                                                                                             
COMYTV   040601185730      000030CHRYSLER/DODGE CARAVAN                                                                                                                                         
COMYTV   040601185800      000030YTV/20TH CENT-GARFIELD MOVIE                                                                                                                                   
COMYTV   040601185830      000030SC JOHNSON/CORPORATE                                                                                                                                           
COMYTV   040601185900      000030KRAFT CANADA INC.                                                                                                                                              
INTYTV   040601185930190030000100HIT LIST FILLER SEGMENTS                          RUBEN STUDDARD                                                       1 213120                                
PGRYTV   040601190030190127000057ALL GROWN UP                                      THE OLD & THE RESTLESS   EPS 9                                       2 38307ECC                              
PROYTV   040601190030      000015YTV SQUEEZE PROMO CONTRACT                                                                                                                                     
PGRYTV   040601190127193112002945MARTIN MYSTERY                                    CURSE OF THE DEEP        EPS 4                    MYSTERYTV   A85370 1 35307ECC                              
SPOYTV   040601190738      000010YTV/BFPM 5                                                                                                                                                     
COMYTV   040601190748      000030HASBRO/PRE-FALL                                                                                                                                                
COMYTV   040601190818      000015YTV/DARE FOODS ULT.COOKIES WEB                                                                                                                                 
COMYTV   040601190833      000015J&J/CLEAN AND CLEAR                                                                                                                                            
COMYTV   040601190848      000100DIRECT ENERGY/DIRECT RESPONSE                                                                                                                                  
COMYTV   040601191603      000015J&J/ACNE WASH                                                                                                                                                  
COMYTV   040601191618      000030YTV/20TH CENT-GARFIELD MOVIE                                                                                                                                   
SPOYTV   040601191648      000010PEPSICO/FRIDGE X-PRESS                                                                                                                                         
COMYTV   040601191658      000030SC JOHNSON/CORPORATE                                                                                                                                           
COMYTV   040601191728      000030HWY/ADULT BARTER HIGH DEM SPR                                                                                                                                  
COMYTV   040601192250      00003020TH CENT VIDEO/CATCH THAT KID                                                                                                                                 
COMYTV   040601192320      000015K CLARK/KOTEX REVISED SCHEDULE                                                                                                                                 
COMYTV   040601192335      000015YTV/BFPM 5                                                                                                                                                     
COMYTV   040601192350      000030P&G/CORPORATE-PRE-EMPTIBLE                                                                                                                                     
COMYTV   040601192420      000030MR. LUBE                                                                                                                                                       
ID YTV   040601193059      000012STATION ID                                                                                                                                                     
PGRYTV   040601193112195103001951YVON OF THE YUKON                                 NIGHT OF THE YVON      EPS 27                     YVON  YTV   A77129 1 35307ECC                              
COMYTV   040601194101      000030HWY/ADULT BARTER HIGH DEM SPR                                                                                                                                  
COMYTV   040601194131      000030MATTEL/SUMMER CORP JUNE ONLY30                                                                                                                                 
COMYTV   040601194201      000030YTV/DAIRY QEEN/MISTY PROMO                                                                                                                                     
COMYTV   040601194231      000030DISC KIDS/ANIMAL EVENT                                                                                                                                         
COMYTV   040601194933      000030VISA/DISNEY PROMOTION                                                                                                                                          
COMYTV   040601195003      000030SC JOHNSON/CORPORATE                                                                                                                                           
COMYTV   040601195033      000030YTV/HASBRO - WOW SPONSORSHIP                                                                                                                                   
PSAYTV   040601195103195133000030PSA/CONCERN CHILDREN/BLOWN AWA                                                                                         1 000130                                
PGRYTV   040601195133200116000943YVON OF THE YUKON                                 NIGHT OF THE YVON      EPS 27                     YVON  YTV   A77129 1 35307ECC                              
COMYTV   040601195832      000015DAYS INN/SCHREK PROMOTION                                                                                                                                      
COMYTV   040601195847      000030HASBRO/PRE-FALL                                                                                                                                                
COMYTV   040601195917      000015HEINZ/KETCHUP SUMMER 04 15'S                                                                                                                                   
COMYTV   040601195932      000030YTV/HASBRO/PLAYSKOOL(ZELLERS)                                                                                                                                  
COMYTV   040601200002      000030GENERAL MILLS CANADA INC.                                                                                                                                      
ID YTV   040601200102      000012STATION ID                                                                                                                                                     
PGRYTV   040601200116201657001541DRAGON BALL                                       KAME HOUSE - DISCOVERED!  EP47                                D02587 7 38307ECC2                             
COMYTV   040601200220      000030NESTLE/KIT KAT CHUNKY                                                                                                                                          
COMYTV   040601200250      000030SC JOHNSON/SKINTAMATE                                                                                                                                          
COMYTV   040601200320      000100BELL CANADA/SYMPATICO DR                                                                                                                                       
PRCYTV   040601200420      000030YTV PROMO CONTRACT                                                                                                                                             
PRCYTV   040601200450      000015YTV PROMO CONTRACT                                                                                                                                             
PRCYTV   040601200505      000015YTV PROMO CONTRACT                                                                                                                                             
COMYTV   040601201557      00001520TH CENT VIDEO/CATCH THAT KID                                                                                                                                 
COMYTV   040601201612      000015J&J/CLEAN AND CLEAR                                                                                                                                            
COMYTV   040601201627      000030KRAFT/P2 KIDS 30'S                                                                                                                                             
PSAYTV   040601201657201757000100HINTERLAND WHO/MONARCH BUTTERF                                                                                         1 000130                                
PGRYTV   040601201757203000001203DRAGON BALL                                       KAME HOUSE - DISCOVERED!  EP47                                D02587 7 38307ECC2                             
PRCYTV   040601201757      000030YTV PROMO CONTRACT                                                                                                                                             
PRCYTV   040601201827      000030YTV PROMO CONTRACT                                                                                                                                             
COMYTV   040601202518      000030GEN MILLS/BERRY BURST CHEERIOS                                                                                                                                 
COMYTV   040601202548      000030HWY/ADULT CASH HIGH DEM SPRING                                                                                                                                 
COMYTV   040601202618      000030PEPSICO/PEPSI BRANDS                                                                                                                                           
COMYTV   040601202648      000030P&G/CORPORATE BASE 52 WEEK                                                                                                                                     
PRCYTV   040601202718      000030YTV PROMO CONTRACT                                                                                                                                             
PRCYTV   040601202748      000030YTV PROMO CONTRACT                                                                                                                                             
PRCYTV   040601202818      000030YTV PROMO CONTRACT                                                                                                                                             
PGRYTV   040601203000210005003005DRAGON BALL Z                                     WHAT IS THE TOURNAMENT? EP151                                 D01860 7 38307ECC2                             
COMYTV   040601203106      000030DREAMWORKS/SHREK 2                                                                                                                                             
COMYTV   040601203136      000015BOOTS HEALTH/CLEARASIL-SUMMER                                                                                                                                  
COMYTV   040601203151      000030NINTENDO/CORPORATE/TBD HVY UP                                                                                                                                  
COMYTV   040601203221      000015J&J/BAND-AID LIQUID                                                                                                                                            
COMYTV   040601203236      000030KRAFT/P2 KIDS 30'S                                                                                                                                             
PRCYTV   040601203306      000030YTV PROMO CONTRACT                                                                                                                                             
COMYTV   040601204312      000015UNIVERSAL FILMS/THE CHRONICLES                                                                                                                                 
COMYTV   040601204327      000030HWY/ADULT CASH HIGH DEM SPRING                                                                                                                                 
COMYTV   040601204357      000030KRAFT/P2 KIDS 30'S                                                                                                                                             
COMYTV   040601204427      000015J&J/ACNE WASH                                                                                                                                                  
COMYTV   040601204442      000030NESTLE CANADA INC.                                                                                                                                             
PRCYTV   040601204512      000030YTV PROMO CONTRACT                                                                                                                                             
COMYTV   040601205555      00001520TH CENT VIDEO/CATCH THAT KID                                                                                                                                 
COMYTV   040601205610      000030HWY/ADULT CASH HIGH DEM SPRING                                                                                                                                 
COMYTV   040601205640      000030YTV/HASBRO/PLAYSKOOL(ZELLERS)                                                                                                                                  
COMYTV   040601205710      000015NIVEA CREAM/ELASTOPLAST SPRAY                                                                                                                                  
COMYTV   040601205725      000030P&G/CORPORATE-PRE-EMPTIBLE                                                                                                                                     
PRCYTV   040601205755      000030YTV PROMO CONTRACT                                                                                                                                             
PRCYTV   040601205825      000030YTV PROMO CONTRACT                                                                                                                                             
SPOYTV   040601210000      000005K CLARK/HUGGIES ALONE 22 WKS                                                                                                                                   
PGRYTV   040601210005213050003045MYSTERY HUNTERS                                   PRISON INN/GHOST SEEING DOGS                      APARTMYTV   C20142 1 35305BCC                              
SPOYTV   040601210734      000010PEPSICO/LIPTON BRISK TEEN BB                                                                                                                                   
COMYTV   040601210744      000030K CLARK/HUGGIES :30 SUMMER REN                                                                                                                                 
COMYTV   040601210814      000015BOOTS HEALTH/CLEARASIL-SUMMER                                                                                                                                  
COMYTV   040601210829      000015DAYS INN/SCHREK PROMOTION                                                                                                                                      
COMYTV   040601210844      000030SC JOHNSON/SKINTAMATE                                                                                                                                          
COMYTV   040601210914      000030HWY/ADULT BARTER HIGH DEM SPR                                                                                                                                  
COMYTV   040601211621      000015UNIVERSAL FILMS/THE CHRONICLES                                                                                                                                 
COMYTV   040601211636      000030SC JOHNSON/SKINTAMATE                                                                                                                                          
COMYTV   040601211706      000015J&J/CLEAN AND CLEAR                                                                                                                                            
COMYTV   040601211721      000030VISA/DISNEY PROMOTION                                                                                                                                          
COMYTV   040601211751      000030K CLARK/HUGGIES ALONE 22 WKS                                                                                                                                   
COMYTV   040601212803      00003020TH CENT VIDEO/CATCH THAT KID                                                                                                                                 
COMYTV   040601212833      000030HWY/ADULT BARTER HIGH DEM SPR                                                                                                                                  
COMYTV   040601212903      000015GILLETTE/VENUS 246 - SUMMER                                                                                                                                    
COMYTV   040601212918      000015YTV/BFPM 5                                                                                                                                                     
COMYTV   040601212933      000030COCA-COLA/SPRITE                                                                                                                                               
SPOYTV   040601213045      000005K CLARK/KOTEX REVISED SCHEDULE                                                                                                                                 
PGRYTV   040601213050220109003019TIMEBLAZERS                                       PLANES, TRAINS & STAGE... EP2                     TIMETRYTV   C20884 1 35307ACC3                             
SPOYTV   040601213216      000010MAPLE LEAF FOODS/SPEC HIGHLIGH                                                                                                                                 
COMYTV   040601213226      000030ALLIANCE/LOTR -RTRN OF KNG DVD                                                                                                                                 
COMYTV   040601213256      000030RADIENT TECH/ZT01 SEA & SKI                                                                                                                                    
COMYTV   040601213326      000030KRAFT/WM VARIOUS SUMMER 04                                                                                                                                     
COMYTV   040601213356      000030P&G/CORPORATE BASE 52 WEEK                                                                                                                                     
COMYTV   040601214414      000015UNIVERSAL FILMS/THE CHRONICLES                                                                                                                                 
COMYTV   040601214429      000030BEST WESTERN/CORPORATE                                                                                                                                         
COMYTV   040601214459      000030MAPLE LEAF FOODS/SPEC HIGHLIGH                                                                                                                                 
COMYTV   040601214529      000015K CLARK/KOTEX REVISED SCHEDULE                                                                                                                                 
COMYTV   040601214544      000030SOBEY'S/                                                                                                                                                       
COMYTV   040601215807      00003020TH CENT VIDEO/CATCH THAT KID                                                                                                                                 
COMYTV   040601215837      000030GEN MILLS/BERRY BURST CHEERIOS                                                                                                                                 
COMYTV   040601215907      000030YTV/HASBRO/PLAYSKOOL(ZELLERS)                                                                                                                                  
COMYTV   040601215937      000030COCA-COLA/SPRITE                                                                                                                                               
SPOYTV   040601220104      000005K CLARK/KOTEX REVISED SCHEDULE                                                                                                                                 
PGRYTV   040601220109223127003018FRIES WITH THAT                                   ROBYN THE BOSS            EP 4                    9124  YTV   C21848 1 35307BCC3                             
SPOYTV   040601220947      000010BOOTS HEALTH/CLEARASIL-SUMMER                                                                                                                                  
COMYTV   040601220957      000030ALLIANCE/LOTR -RTRN OF KNG DVD                                                                                                                                 
COMYTV   040601221027      000015K CLARK/KOTEX REVISED SCHEDULE                                                                                                                                 
COMYTV   040601221042      000100CDN TIRE/BACKYARD-4091-04-02                                                                                                                                   
COMYTV   040601221142      000015J&J/ACNE WASH                                                                                                                                                  
COMYTV   040601222020      000015UNIVERSAL FILMS/THE CHRONICLES                                                                                                                                 
COMYTV   040601222035      000030SUBWAY/SUBWAY SUBS                                                                                                                                             
COMYTV   040601222105      000030BEST WESTERN/CORPORATE                                                                                                                                         
COMYTV   040601222135      000015J&J/ACNE WASH                                                                                                                                                  
COMYTV   040601222150      000030HWY/ADULT CASH HIGH DEM SPRING                                                                                                                                 
COMYTV   040601222726      000030RADIENT TECH/ZT01 SEA & SKI                                                                                                                                    
COMYTV   040601222756      000030PEPSICO/PEPSI BRANDS                                                                                                                                           
COMYTV   040601222826      000015BOOTS HEALTH/CLEARASIL-SUMMER                                                                                                                                  
COMYTV   040601222841      000030HWY/ADULT CASH HIGH DEM SPRING                                                                                                                                 
COMYTV   040601222911      000015J&J/BAND-AID LIQUID                                                                                                                                            
SPOYTV   040601223122      000005K CLARK/BABY WIPES 15'S                                                                                                                                        
PGRYTV   040601223127230147003020MENTAL BLOCK                                      PIXIE, R.I.P.     EPS 2                           ZONE 3YTV   C20867 1 35307ACC3                             
SPOYTV   040601223449      000010MAPLE LEAF FOODS/SPEC HIGHLIGH                                                                                                                                 
COMYTV   040601223459      00003020TH CENT VIDEO/CATCH THAT KID                                                                                                                                 
COMYTV   040601223529      000015K CLARK/KOTEX REVISED SCHEDULE                                                                                                                                 
COMYTV   040601223544      000015BOOTS HEALTH/CLEARASIL-SUMMER                                                                                                                                  
COMYTV   040601223559      000030MAPLE LEAF FOODS/SPEC HIGHLIGH                                                                                                                                 
COMYTV   040601223629      000030CDN TIRE/DOLPHINO POOLS                                                                                                                                        
COMYTV   040601224557      000015UNIVERSAL FILMS/THE CHRONICLES                                                                                                                                 
COMYTV   040601224612      000030ROGERS WIRE/SUMMER OF FRIENDS                                                                                                                                  
COMYTV   040601224642      000030HWY/ADULT CASH HIGH DEM SPRING                                                                                                                                 
COMYTV   040601224712      000015KRAFT/PEAK FREANS HEAVY UP15'S                                                                                                                                 
COMYTV   040601224727      000030YTV/HASBRO/PLAYSKOOL(ZELLERS)                                                                                                                                  
COMYTV   040601225549      000030ALLIANCE/LOTR -RTRN OF KNG DVD                                                                                                                                 
COMYTV   040601225619      000030K CLARK/HUGGIES ALONE 22 WKS                                                                                                                                   
COMYTV   040601225649      000030RADIENT TECH/ZT01 SEA & SKI                                                                                                                                    
COMYTV   040601225719      000030HWY/ADULT BARTER HIGH DEM SPR                                                                                                                                  
ID YTV   040601230129      000012STATION ID                                                                                                                                                     
SPOYTV   040601230141      000005K CLARK/HUGGIES :30 SUMMER REN                                                                                                                                 
PGRYTV   040601230147233043002856ADDAMS FAMILY: THE SERIES (#1-65)                 FESTER GOES ON A DIET EP23                        AFS         C15097 1 35307BCC                              
SPOYTV   040601230930      000010PEPSICO/LIPTON BRISK TEEN BB                                                                                                                                   
COMYTV   040601230940      000030BEST WESTERN/CORPORATE                                                                                                                                         
COMYTV   040601231010      000015HEINZ/KETCHUP SUMMER 04 15'S                                                                                                                                   
COMYTV   040601231025      000015BOOTS HEALTH/CLEARASIL-SUMMER                                                                                                                                  
COMYTV   040601231040      000030HWY/ADULT CASH HIGH DEM SPRING                                                                                                                                 
COMYTV   040601231110      000030HWY/ADULT CASH HIGH DEM SPRING                                                                                                                                 
COMYTV   040601231738      00003020TH CENT VIDEO/CATCH THAT KID                                                                                                                                 
COMYTV   040601231808      000015K CLARK/KOTEX REVISED SCHEDULE                                                                                                                                 
COMYTV   040601231823      000015DAYS INN/SCHREK PROMOTION                                                                                                                                      
COMYTV   040601231838      000100CDN TIRE/POWER BOX 2                                                                                                                                           
COMYTV   040601232643      000015K CLARK/KOTEX REVISED SCHEDULE                                                                                                                                 
COMYTV   040601232658      000030GEN MOTORS/VARIOUS                                                                                                                                             
COMYTV   040601232728      000015KRAFT/PEAK FREANS HEAVY UP15'S                                                                                                                                 
COMYTV   040601232743      000030RADIENT TECH/ZT01 SEA & SKI                                                                                                                                    
COMYTV   040601232813      000030P&G/CORPORATE BASE 52 WEEK                                                                                                                                     
ID YTV   040601233024      000012STATION ID                                                                                                                                                     
SPOYTV   040601233036      000005K CLARK/HUGGIES :30 SUMMER REN                                                                                                                                 
PGRYTV   040601233043000843003800MY FAMILY                                         ONE FLEW OUT OF CUCKOO'S NEST                                        3 38807BCC                              
SPOYTV   040601233950      000010CHRYSLER/DODGE CARAVAN                                                                                                                                         
COMYTV   040601234000      000030ATARI/TRANSFORMERS                                                                                                                                             
COMYTV   040601234030      000015J&J/BAND-AID LIQUID                                                                                                                                            
COMYTV   040601234045      000030MAPLE LEAF FOODS/SPEC HIGHLIGH                                                                                                                                 
COMYTV   040601234115      000030YTV/HASBRO/PLAYSKOOL(ZELLERS)                                                                                                                                  
SPOYTV   040601234145      000010PEPSICO/FRIDGE X-PRESS                                                                                                                                         
COMYTV   040601235020      000030RADIENT TECH/ZT01 SEA & SKI                                                                                                                                    
COMYTV   040601235050      000015DAYS INN/SCHREK PROMOTION                                                                                                                                      
COMYTV   040601235105      000015NIVEA CREAM/ELASTOPLAST SPRAY                                                                                                                                  
COMYTV   040601235120      000030MCDONALDS/HAPPY MEAL                                                                                                                                           
COMYTV   040601235150      000030DELL/DELL DIRECT RESPONSE                                                                                                                                      
COMYTV   040601235750      000030MR.LUBE/3272*TV*06                                                                                                                                             
COMYTV   040601235820      000015K CLARK/KOTEX REVISED SCHEDULE                                                                                                                                 
COMYTV   040601235835      000015YTV/BFPM 5                                                                                                                                                     
COMYTV   040601235850      000100CDN TIRE/PRESSURE WASHER                                                                                                                                       
COMYTV   040601000606      000030CHRYSLER/DODGE CARAVAN                                                                                                                                         
SPOYTV   040601000636      000010PEPSICO/FRIDGE X-PRESS                                                                                                                                         
COMYTV   040601000646      000030P&G/CORPORATE BASE 52 WEEK                                                                                                                                     
COMYTV   040601000716      000030YTV/HASBRO/PLAYSKOOL(ZELLERS)                                                                                                                                  
COMYTV   040601000746      000015HEINZ/KETCHUP SUMMER 04 15'S                                                                                                                                   
COMYTV   040601000801      000030P&G/CORPORATE-PRE-EMPTIBLE                                                                                                                                     
PGRYTV   040601000843004616003733ARE YOU BEING SERVED?                             EPS 9                                                                3 38807BCC                              
SPOYTV   040601001843      000010SCHNEIDER/CORPORATE-3022-CO06                                                                                                                                  
COMYTV   040601001853      000015DAYS INN/SCHREK PROMOTION                                                                                                                                      
COMYTV   040601001908      000030RADIENT TECH/ZT01 SEA & SKI                                                                                                                                    
COMYTV   040601001938      000030CHRYSLER/DODGE CARAVAN                                                                                                                                         
COMYTV   040601002008      000015HEINZ/KETCHUP SUMMER 04 15'S                                                                                                                                   
COMYTV   040601002023      000030YTV/HASBRO/PLAYSKOOL(ZELLERS)                                                                                                                                  
COMYTV   040601002053      000030P&G/CORPORATE-PRE-EMPTIBLE                                                                                                                                     
COMYTV   040601003036      000030GEN MOTORS/VARIOUS                                                                                                                                             
COMYTV   040601003106      000015NIVEA CREAM/ELASTOPLAST SPRAY                                                                                                                                  
COMYTV   040601003121      000030VISA/DISNEY PROMOTION                                                                                                                                          
SPOYTV   040601003151      000010PEPSICO/FRIDGE X-PRESS                                                                                                                                         
COMYTV   040601003201      000030BEST WESTERN/CORPORATE                                                                                                                                         
COMYTV   040601003231      000030P&G/CORPORATE-PRE-EMPTIBLE                                                                                                                                     
SPOYTV   040601004030      000010MAPLE LEAF FOODS/SPEC HIGHLIGH                                                                                                                                 
COMYTV   040601004040      000030ATARI/TRANSFORMERS                                                                                                                                             
COMYTV   040601004110      000015J&J/BAND-AID LIQUID                                                                                                                                            
COMYTV   040601004125      000015SCOTT PAPER/SCOTTIES                                                                                                                                           
COMYTV   040601004140      000030P&G/CORPORATE BASE 52 WEEK                                                                                                                                     
COMYTV   040601004210      000100BELL CANADA/SYMPATICO DR                                                                                                                                       
PGRYTV   040601004616012409003753KEEPING UP APPEARANCES                            EPS 15                                                               3 38807BCC                              
SPOYTV   040601005237      000010PEPSICO/LIPTON BRISK TEEN BB                                                                                                                                   
COMYTV   040601005247      000030ROGERS WIRE/SUMMER OF FRIENDS                                                                                                                                  
COMYTV   040601005317      000030ATARI/TRANSFORMERS                                                                                                                                             
COMYTV   040601005347      000030BEST WESTERN/CORPORATE                                                                                                                                         
COMYTV   040601005417      000030MR.LUBE/3272*TV*06                                                                                                                                             
COMYTV   040601005447      000030P&G/CORPORATE-PRE-EMPTIBLE                                                                                                                                     
COMYTV   040601010156      000030BEST WESTERN/CORPORATE                                                                                                                                         
COMYTV   040601010226      000015HEINZ/KETCHUP SUMMER 04 15'S                                                                                                                                   
COMYTV   040601010241      000030CHRYSLER/DODGE CARAVAN                                                                                                                                         
COMYTV   040601010311      000015J&J/ACNE WASH                                                                                                                                                  
COMYTV   040601010326      000030CDN TIRE/DOLPHINO POOLS                                                                                                                                        
COMYTV   040601010356      000030P&G/CORPORATE-PRE-EMPTIBLE                                                                                                                                     
SPOYTV   040601011404      000010MAPLE LEAF FOODS/SPEC HIGHLIGH                                                                                                                                 
COMYTV   040601011414      000100CDN TIRE/PRESSURE WASHER                                                                                                                                       
COMYTV   040601011514      000030KRAFT/WM VARIOUS SUMMER 04                                                                                                                                     
COMYTV   040601011544      000015L'OREAL/FENRIA WOMEN                                                                                                                                           
SPOYTV   040601011559      000010PEPSICO/FRIDGE X-PRESS                                                                                                                                         
COMYTV   040601011609      000030P&G/CORPORATE-PRE-EMPTIBLE                                                                                                                                     
PGRYTV   040601012409020125003716MY FAMILY                                         ONE FLEW OUT OF CUCKOO'S NEST                                        3 38807BCC                              
SPOYTV   040601013318      000010MAPLE LEAF FOODS/SPEC HIGHLIGH                                                                                                                                 
COMYTV   040601013328      000030ROGERS WIRE/SUMMER OF FRIENDS                                                                                                                                  
COMYTV   040601013358      000030KRAFT/WM VARIOUS SUMMER 04                                                                                                                                     
COMYTV   040601013428      000100CDN TIRE/BACKYARD-4091-04-02                                                                                                                                   
COMYTV   040601013528      000030P&G/CORPORATE-PRE-EMPTIBLE                                                                                                                                     
COMYTV   040601014423      000030MAPLE LEAF FOODS/SPEC HIGHLIGH                                                                                                                                 
COMYTV   040601014453      000030P&G/CORPORATE BASE 52 WEEK                                                                                                                                     
COMYTV   040601014523      000030SOBEY'S/                                                                                                                                                       
COMYTV   040601014553      000030CDN TIRE/DOLPHINO POOLS                                                                                                                                        
COMYTV   040601014623      000030P&G/CORPORATE-PRE-EMPTIBLE                                                                                                                                     
SPOYTV   040601015223      000010PEPSICO/LIPTON BRISK TEEN BB                                                                                                                                   
COMYTV   040601015233      000030RADIENT TECH/ZT01 SEA & SKI                                                                                                                                    
COMYTV   040601015303      000030SOBEY'S/                                                                                                                                                       
COMYTV   040601015333      000030P&G/CORPORATE BASE 52 WEEK                                                                                                                                     
COMYTV   040601015403      000030MAPLE LEAF FOODS/SPEC HIGHLIGH                                                                                                                                 
COMYTV   040601015433      000030P&G/CORPORATE-PRE-EMPTIBLE                                                                                                                                     
PGRYTV   040601020125023155003030ADDAMS FAMILY: THE SERIES (#1-65)                 FESTER GOES ON A DIET EP23                        AFS         C15097 1 35307BCC                              
SPOYTV   040601020909      000010PEPSICO/LIPTON BRISK TEEN BB                                                                                                                                   
COMYTV   040601020919      000015DAYS INN/SCHREK PROMOTION                                                                                                                                      
COMYTV   040601020934      000030P&G/CORPORATE BASE 52 WEEK                                                                                                                                     
COMYTV   040601021004      000030KRAFT/WM VARIOUS SUMMER 04                                                                                                                                     
COMYTV   040601021034      000015NIVEA CREAM/ELASTOPLAST SPRAY                                                                                                                                  
COMYTV   040601021049      000030HWY/ADULT CASH HIGH DEM SPRING                                                                                                                                 
COMYTV   040601021119      000030P&G/CORPORATE-PRE-EMPTIBLE                                                                                                                                     
COMYTV   040601021747      000030HWY/ADULT CASH HIGH DEM SPRING                                                                                                                                 
COMYTV   040601021817      000015J&J/BAND-AID LIQUID                                                                                                                                            
COMYTV   040601021832      000030P&G/CORPORATE BASE 52 WEEK                                                                                                                                     
COMYTV   040601021902      000015KRAFT/PEAK FREANS HEAVY UP15'S                                                                                                                                 
COMYTV   040601021917      000030RADIENT TECH/ZT01 SEA & SKI                                                                                                                                    
COMYTV   040601021947      000030P&G/CORPORATE-PRE-EMPTIBLE                                                                                                                                     
SPOYTV   040601022722      000010MAPLE LEAF FOODS/SPEC HIGHLIGH                                                                                                                                 
COMYTV   040601022732      000015HEINZ/KETCHUP SUMMER 04 15'S                                                                                                                                   
COMYTV   040601022747      000015J&J/CLEAN AND CLEAR                                                                                                                                            
COMYTV   040601022802      000030BEST WESTERN/CORPORATE                                                                                                                                         
COMYTV   040601022832      000030RADIENT TECH/ZT01 SEA & SKI                                                                                                                                    
COMYTV   040601022902      000030HWY/ADULT BARTER HIGH DEM SPR                                                                                                                                  
COMYTV   040601022932      000030P&G/CORPORATE-PRE-EMPTIBLE                                                                                                                                     
PGRYTV   040601023155030343003148RADIO ACTIVE (#1-26)                              ETHAN WITHOUT A CAUSE EP26                        TELEACYTV   C14677 1 35307BCC                              
SPOYTV   040601024149      000010PEPSICO/LIPTON BRISK TEEN BB                                                                                                                                   
COMYTV   040601024159      000030KRAFT/WM VARIOUS SUMMER 04                                                                                                                                     
COMYTV   040601024229      000030HWY/ADULT CASH HIGH DEM SPRING                                                                                                                                 
COMYTV   040601024259      000030RADIENT TECH/ZT01 SEA & SKI                                                                                                                                    
COMYTV   040601024329      000030YTV/HASBRO/PLAYSKOOL(ZELLERS)                                                                                                                                  
COMYTV   040601024359      000030P&G/CORPORATE BASE 52 WEEK                                                                                                                                     
COMYTV   040601025216      000030WHIRLPOOL/CONTINUITY1692*WH*29                                                                                                                                 
COMYTV   040601025246      000015J&J/BAND-AID LIQUID                                                                                                                                            
COMYTV   040601025301      000030YTV/HASBRO/PLAYSKOOL(ZELLERS)                                                                                                                                  
SPOYTV   040601025331      000010PEPSICO/FRIDGE X-PRESS                                                                                                                                         
COMYTV   040601025341      000030HWY/ADULT BARTER HIGH DEM SPR                                                                                                                                  
COMYTV   040601025411      000030P&G/CORPORATE-PRE-EMPTIBLE                                                                                                                                     
SPOYTV   040601025916      000010MAPLE LEAF FOODS/SPEC HIGHLIGH                                                                                                                                 
COMYTV   040601025926      000030RADIENT TECH/ZT01 SEA & SKI                                                                                                                                    
COMYTV   040601025956      000030HWY/ADULT CASH HIGH DEM SPRING                                                                                                                                 
COMYTV   040601030026      000030HEINZ/KETCHUP SUMMER 04 :30                                                                                                                                    
COMYTV   040601030056      000030YTV/HASBRO/PLAYSKOOL(ZELLERS)                                                                                                                                  
COMYTV   040601030126      000030P&G/CORPORATE BASE 52 WEEK                                                                                                                                     
PGRYTV   040601030343033320002937SYSTEM CRASH                                      CELEBRITY EP12                                                A18373 1 31307FCC                              
SPOYTV   040601031012      000010PEPSICO/LIPTON BRISK TEEN BB                                                                                                                                   
COMYTV   040601031022      000015UNIVERSAL FILMS/THE CHRONICLES                                                                                                                                 
COMYTV   040601031037      000015NIVEA CREAM/ELASTOPLAST SPRAY                                                                                                                                  
COMYTV   040601031052      000100CDN TIRE/PRESSURE WASHER                                                                                                                                       
COMYTV   040601031152      000030P&G/CORPORATE-PRE-EMPTIBLE                                                                                                                                     
COMYTV   040601031633      000030CDN TIRE/DOLPHINO POOLS                                                                                                                                        
COMYTV   040601031703      000030HWY/ADULT CASH HIGH DEM SPRING                                                                                                                                 
COMYTV   040601031733      000030P&G/CORPORATE-PRE-EMPTIBLE                                                                                                                                     
COMYTV   040601031803      000100BELL CANADA/SYMPATICO DR                                                                                                                                       
