PGRYTV   020601060000062701002701STICKIN' AROUND                                   MISSION/SATURDAY FEVER EP34                       NELVANYTV   A26969 1 35107ECC                              
PRCYTV   020601060106      000030YTV PROMO CONTRACT                                                                                                                                             
PRCYTV   020601060136      000030YTV PROMO CONTRACT                                                                                                                                             
PRCYTV   020601061235      000030YTV PROMO CONTRACT                                                                                                                                             
PRCYTV   020601061305      000030YTV PROMO CONTRACT                                                                                                                                             
PRCYTV   020601061335      000015YTV PROMO CONTRACT                                                                                                                                             
PRCYTV   020601062425      000030YTV PROMO CONTRACT                                                                                                                                             
PRCYTV   020601062455      000030YTV PROMO CONTRACT                                                                                                                                             
INTYTV   020601062701062959000258BIG SISTER,LITTLE BROTHER                         THE RASPBERRIES  EPS 1                                               3 381120                                
ID YTV   020601062947      000012STATION ID                                                                                                                                                     
PGRYTV   020601062959065412002413LEGEND OF WHITE FANG                              EPS 26.                                                       P12872 1 35107ACC                              
PRCYTV   020601065347      000030YTV PROMO CONTRACT                                                                                                                                             
INTYTV   020601065412065513000101HOOTA & SNOZ                                      EPS 16                                                               7 381120                                
INTYTV   020601065513065613000100STICKIN' AROUND                                   BUTTNOCCHIO                                                          1 351120CC                              
INTYTV   020601065613065859000246JIMMY NEUTRON                                     EPS 6                                                                2 381120                                
PRCYTV   020601065756      000030YTV PROMO CONTRACT                                                                                                                                             
PRCYTV   020601065826      000015YTV PROMO CONTRACT                                                                                                                                             
ID YTV   020601065841      000012STATION ID                                                                                                                                                     
INTYTV   020601065859070000000101PROGRAM JOCKEY                                    PROGRAM JOCKEY                                                       1 213120                                
PGRYTV   020601070000070642000642BEASTIES (#1-26)                                  CALL OF THE WILD EP19                             ALLIANYTV   C13141 1 35307ECC                              
INTYTV   020601070642070702000020PROGRAM JOCKEY                                    PROGRAM JOCKEY                                                       1 213120                                
PGRYTV   020601070702071354000652BEASTIES (#1-26)                                  CALL OF THE WILD EP19                             ALLIANYTV   C13141 1 35307ECC                              
SPOYTV   020601070708      000010DISC KIDS/SPIKE EVENT/GEN.AWAR                                                                                                                                 
COMYTV   020601070718      000030MATTEL/SUMMER                                                                                                                                                  
COMYTV   020601070748      000030MINUTE MAID/BIBO-W.O.W. SPONS                                                                                                                                  
INTYTV   020601071354071414000020PROGRAM JOCKEY                                    PROGRAM JOCKEY                                                       1 213120                                
PGRYTV   020601071414072335000921BEASTIES (#1-26)                                  CALL OF THE WILD EP19                             ALLIANYTV   C13141 1 35307ECC                              
COMYTV   020601071420      000030GENERAL MILLS/TRADITIONAL CHIL                                                                                                                                 
COMYTV   020601071450      000015HASBRO/CORPORATE PREFALL                                                                                                                                       
COMYTV   020601071505      000030MCDONALDS/CORPORATE HAPPY MEAL                                                                                                                                 
COMYTV   020601071535      000015TRENDMASTERS/STORM                                                                                                                                             
COMYTV   020601071550      000030KRAFT/KIDS SUMMER :30'S                                                                                                                                        
INTYTV   020601072335072355000020PROGRAM JOCKEY                                    PROGRAM JOCKEY                                                       1 213120                                
PGRYTV   020601072355072850000455BEASTIES (#1-26)                                  CALL OF THE WILD EP19                             ALLIANYTV   C13141 1 35307ECC                              
COMYTV   020601072400      000030KELLOGG/KIDS 52 WEEK                                                                                                                                           
COMYTV   020601072430      000030HASBRO-BEYBLADE-W.O.W. SPONSOR                                                                                                                                 
PRCYTV   020601072500      000030YTV PROMO CONTRACT                                                                                                                                             
INTYTV   020601072850073003000113PROGRAM JOCKEY                                    PROGRAM JOCKEY                                                       1 213120                                
ID YTV   020601072949      000012STATION ID                                                                                                                                                     
PGRYTV   020601073003073531000528ACTION MAN                                        GREMLIN IN THE GEARS EP5                          MAINFRYTV   A50098 1 35307ECC                              
INTYTV   020601073531073551000020PROGRAM JOCKEY                                    PROGRAM JOCKEY                                                       1 213120                                
PGRYTV   020601073551074410000819ACTION MAN                                        GREMLIN IN THE GEARS EP5                          MAINFRYTV   A50098 1 35307ECC                              
SPOYTV   020601073555      000010HASBRO/BILLBOARDS                                                                                                                                              
COMYTV   020601073605      000030GENERAL MILLS/TRADITIONAL CHIL                                                                                                                                 
COMYTV   020601073635      000030DAIRY QUEEN/KIDS                                                                                                                                               
PRCYTV   020601073705      000015YTV PROMO CONTRACT                                                                                                                                             
INTYTV   020601074410074430000020PROGRAM JOCKEY                                    PROGRAM JOCKEY                                                       1 213120                                
PGRYTV   020601074430075531001101ACTION MAN                                        GREMLIN IN THE GEARS EP5                          MAINFRYTV   A50098 1 35307ECC                              
COMYTV   020601074433      000030MCDONALDS/CORPORATE HAPPY MEAL                                                                                                                                 
COMYTV   020601074503      000015WARNER HOME VIDEO/HARRY POTTER                                                                                                                                 
COMYTV   020601074518      000030KRAFT/KIDS SUMMER :30'S                                                                                                                                        
COMYTV   020601074548      000015DANONE/PETITE DANONE                                                                                                                                           
COMYTV   020601074603      000030KRAFT/KIDS SUMMER :30'S                                                                                                                                        
INTYTV   020601075531075551000020PROGRAM JOCKEY                                    PROGRAM JOCKEY                                                       1 213120                                
PGRYTV   020601075551075819000228ACTION MAN                                        GREMLIN IN THE GEARS EP5                          MAINFRYTV   A50098 1 35307ECC                              
COMYTV   020601075553      000030KELLOGG/KIDS 52 WEEK                                                                                                                                           
COMYTV   020601075623      000030HASBRO/CORPORATE PREFALL                                                                                                                                       
PROYTV   020601075653      000030YTV PROMO CONTRACT                                                                                                                                             
PROYTV   020601075723      000015YTV PROMO CONTRACT                                                                                                                                             
INTYTV   020601075819080002000143PROGRAM JOCKEY                                    PROGRAM JOCKEY                                                       1 213120                                
ID YTV   020601075948      000012STATION ID                                                                                                                                                     
PGRYTV   020601080002080616000614TRANSFORMERS:ROBOTS IN DISGUIS                    EP 39                                                                7 28307ECC                              
INTYTV   020601080616080636000020PROGRAM JOCKEY                                    PROGRAM JOCKEY                                                       1 213120                                
PGRYTV   020601080636081524000848TRANSFORMERS:ROBOTS IN DISGUIS                    EP 39                                                                7 28307ECC                              
COMYTV   020601080640      000030SUN-RYPE/FRUIT TO GO                                                                                                                                           
COMYTV   020601080710      000030DAIRY QUEEN/KIDS                                                                                                                                               
PROYTV   020601080740      000030YTV PROMO CONTRACT                                                                                                                                             
PRCYTV   020601080810      000030YTV PROMO CONTRACT                                                                                                                                             
INTYTV   020601081524081544000020PROGRAM JOCKEY                                    PROGRAM JOCKEY                                                       1 213120                                
PGRYTV   020601081544082356000812TRANSFORMERS:ROBOTS IN DISGUIS                    EP 39                                                                7 28307ECC                              
COMYTV   020601081548      000015HASBRO/CORPORATE PREFALL                                                                                                                                       
COMYTV   020601081603      000030MCDONALDS/CORPORATE HAPPY MEAL                                                                                                                                 
COMYTV   020601081633      000030GRAND TOYS/SPIDERMAN WEB BLAST                                                                                                                                 
COMYTV   020601081703      000030KELLOGG/KIDS 52 WEEK                                                                                                                                           
COMYTV   020601081733      000015HASBRO/CORPORATE PREFALL                                                                                                                                       
PRCYTV   020601081748      000030YTV PROMO CONTRACT                                                                                                                                             
INTYTV   020601082356082416000020PROGRAM JOCKEY                                    PROGRAM JOCKEY                                                       1 213120                                
PGRYTV   020601082416082917000501TRANSFORMERS:ROBOTS IN DISGUIS                    EP 39                                                                7 28307ECC                              
COMYTV   020601082424      000030KELLOGG/KIDS 52 WEEK                                                                                                                                           
COMYTV   020601082454      000030HASBRO/CORPORATE BARTER                                                                                                                                        
PRCYTV   020601082524      000030YTV PROMO CONTRACT                                                                                                                                             
PRCYTV   020601082554      000030YTV PROMO CONTRACT                                                                                                                                             
INTYTV   020601082917083000000043PROGRAM JOCKEY                                    PROGRAM JOCKEY                                                       1 213120                                
ID YTV   020601082948      000012STATION ID                                                                                                                                                     
PGRYTV   020601083000083552000552MEDABOT                                           BRIDGE OVER TROUBLED EPS 39TS                                 D01866 7 28307ECC2                             
INTYTV   020601083552083612000020PROGRAM JOCKEY                                    PROGRAM JOCKEY                                                       1 213120                                
PGRYTV   020601083612084256000644MEDABOT                                           BRIDGE OVER TROUBLED EPS 39TS                                 D01866 7 28307ECC2                             
SPOYTV   020601083618      000010NESTLE/KITKAT CHUNKY CHART ATT                                                                                                                                 
COMYTV   020601083628      000030KELLOGG/MICKEYS MAGIC CEREAL                                                                                                                                   
COMYTV   020601083658      000015TRENDMASTERS/STORM                                                                                                                                             
COMYTV   020601083713      000015THE WONDER BRAND                                                                                                                                               
PRCYTV   020601083728      000030YTV PROMO CONTRACT                                                                                                                                             
PROYTV   020601083758      000030YTV PROMO CONTRACT                                                                                                                                             
INTYTV   020601084256084316000020PROGRAM JOCKEY                                    PROGRAM JOCKEY                                                       1 213120                                
PGRYTV   020601084316085203000847MEDABOT                                           BRIDGE OVER TROUBLED EPS 39TS                                 D01866 7 28307ECC2                             
COMYTV   020601084321      000015SPIN MASTER TOYS/CATCH BUBBLE                                                                                                                                  
COMYTV   020601084336      000030SUN-RYPE/FRUIT TO GO                                                                                                                                           
COMYTV   020601084406      000030GRAND TOYS/SPIDERMAN WEB BLAST                                                                                                                                 
COMYTV   020601084436      000030MCDONALDS/CORPORATE HAPPY MEAL                                                                                                                                 
COMYTV   020601084506      000015HASBRO/CORPORATE PREFALL                                                                                                                                       
PRCYTV   020601084521      000030YTV PROMO CONTRACT                                                                                                                                             
INTYTV   020601085203085223000020PROGRAM JOCKEY                                    PROGRAM JOCKEY                                                       1 213120                                
PGRYTV   020601085223085917000654MEDABOT                                           BRIDGE OVER TROUBLED EPS 39TS                                 D01866 7 28307ECC2                             
COMYTV   020601085227      000030WENDY'S/KIDS MEALS                                                                                                                                             
COMYTV   020601085257      000015DREAMWORKS/SPIRIT CIMARRON HU                                                                                                                                  
COMYTV   020601085312      000015DANONE/PETITE DANONE                                                                                                                                           
PROYTV   020601085327      000030YTV PROMO CONTRACT                                                                                                                                             
PRCYTV   020601085357      000015YTV PROMO CONTRACT                                                                                                                                             
INTYTV   020601085917090000000043PROGRAM JOCKEY                                    PROGRAM JOCKEY                                                       1 213120                                
ID YTV   020601085948      000012STATION ID                                                                                                                                                     
PGRYTV   020601090000090100000100BEYBLADE                                          THE BLADE RIDER EPS 1                                         D02016 7 28307ECC2                             
INTYTV   020601090100090120000020PROGRAM JOCKEY                                    PROGRAM JOCKEY                                                       1 213120                                
PGRYTV   020601090120090708000548BEYBLADE                                          THE BLADE RIDER EPS 1                                         D02016 7 28307ECC2                             
COMYTV   020601090126      000030GENERAL MILLS/TRADITIONAL CHIL                                                                                                                                 
COMYTV   020601090156      000030DAIRY QUEEN/KIDS                                                                                                                                               
INTYTV   020601090708090728000020PROGRAM JOCKEY                                    PROGRAM JOCKEY                                                       1 213120                                
PGRYTV   020601090728092033001305BEYBLADE                                          THE BLADE RIDER EPS 1                                         D02016 7 28307ECC2                             
COMYTV   020601090733      000015HASBRO/CORPORATE PREFALL                                                                                                                                       
COMYTV   020601090748      000030KELLOGG/KIDS 52 WEEK                                                                                                                                           
COMYTV   020601090818      000030MATTEL/SUMMER                                                                                                                                                  
COMYTV   020601090848      000030MCDONALDS/CORPORATE HAPPY MEAL                                                                                                                                 
COMYTV   020601090918      000015HASBRO/CORPORATE PREFALL                                                                                                                                       
PRCYTV   020601090933      000030YTV PROMO CONTRACT                                                                                                                                             
PRCYTV   020601091003      000030YTV PROMO CONTRACT                                                                                                                                             
INTYTV   020601092033092053000020PROGRAM JOCKEY                                    PROGRAM JOCKEY                                                       1 213120                                
PGRYTV   020601092053092848000755BEYBLADE                                          THE BLADE RIDER EPS 1                                         D02016 7 28307ECC2                             
COMYTV   020601092059      000030BVP/LILO & STITCH                                                                                                                                              
COMYTV   020601092129      000030KRAFT/KIDS SUMMER :30'S                                                                                                                                        
PRCYTV   020601092159      000030YTV PROMO CONTRACT                                                                                                                                             
PROYTV   020601092229      000030YTV PROMO CONTRACT                                                                                                                                             
INTYTV   020601092848093000000112PROGRAM JOCKEY                                    PROGRAM JOCKEY                                                       1 213120                                
ID YTV   020601092948      000012STATION ID                                                                                                                                                     
PGRYTV   020601093000093159000159THE MUMMY                                         THE PUZZLE   EPS 12                                                  2 38307ECC                              
INTYTV   020601093159093219000020PROGRAM JOCKEY                                    PROGRAM JOCKEY                                                       1 213120                                
PGRYTV   020601093219094758001539THE MUMMY                                         THE PUZZLE   EPS 12                                                  2 38307ECC                              
COMYTV   020601093225      000030RALSTON/ENERGIZER/STAR WARS PR                                                                                                                                 
COMYTV   020601093255      000030SUN-RYPE/FRUIT TO GO                                                                                                                                           
PROYTV   020601093325      000030YTV PROMO CONTRACT                                                                                                                                             
PROYTV   020601093355      000030YTV PROMO CONTRACT                                                                                                                                             
INTYTV   020601094758094818000020PROGRAM JOCKEY                                    PROGRAM JOCKEY                                                       1 213120                                
PGRYTV   020601094818095537000719THE MUMMY                                         THE PUZZLE   EPS 12                                                  2 38307ECC                              
COMYTV   020601094823      000030KELLOGG/KIDS 52 WEEK                                                                                                                                           
COMYTV   020601094853      000015TOPP'S/PUSH POPS                                                                                                                                               
COMYTV   020601094908      000030MCDONALDS/CORPORATE HAPPY MEAL                                                                                                                                 
COMYTV   020601094938      000015HASBRO/CORPORATE PREFALL                                                                                                                                       
COMYTV   020601094953      000030KELLOGG/KIDS 52 WEEK                                                                                                                                           
INTYTV   020601095537095557000020PROGRAM JOCKEY                                    PROGRAM JOCKEY                                                       1 213120                                
PGRYTV   020601095557095817000220THE MUMMY                                         THE PUZZLE   EPS 12                                                  2 38307ECC                              
COMYTV   020601095602      000030GENERAL MILLS/TRADITIONAL CHIL                                                                                                                                 
COMYTV   020601095632      000015DREAMWORKS/SPIRIT CIMARRON HU                                                                                                                                  
COMYTV   020601095647      000015WESTON BAKERIES/WONDER BINGO P                                                                                                                                 
PRCYTV   020601095702      000015YTV PROMO CONTRACT                                                                                                                                             
PRCYTV   020601095732      000015YTV PROMO CONTRACT                                                                                                                                             
INTYTV   020601095817095959000142PROGRAM JOCKEY                                    PROGRAM JOCKEY                                                       1 213120                                
ID YTV   020601095947      000012STATION ID                                                                                                                                                     
PGRYTV   020601095959100634000635BATMAN BEYOND                                     WHERE'S TERRY? EPS 40                                                2 18307ECC                              
INTYTV   020601100634100654000020PROGRAM JOCKEY                                    PROGRAM JOCKEY                                                       1 213120                                
PGRYTV   020601100654101605000911BATMAN BEYOND                                     WHERE'S TERRY? EPS 40                                                2 38307ECC                              
COMYTV   020601100704      000030WARNER BROS/SCOOBY DOO FLT 2                                                                                                                                   
COMYTV   020601100734      000030GENERAL MILLS/TRADITIONAL CHIL                                                                                                                                 
PROYTV   020601100804      000030YTV PROMO CONTRACT                                                                                                                                             
PRCYTV   020601100834      000030YTV PROMO CONTRACT                                                                                                                                             
INTYTV   020601101605101625000020PROGRAM JOCKEY                                    PROGRAM JOCKEY                                                       1 213120                                
PGRYTV   020601101625102552000927BATMAN BEYOND                                     WHERE'S TERRY? EPS 40                                                2 38307ECC                              
COMYTV   020601101631      000030MCDONALDS/CORPORATE HAPPY MEAL                                                                                                                                 
COMYTV   020601101701      000015HASBRO/CORPORATE PREFALL                                                                                                                                       
COMYTV   020601101716      000030KELLOGG/KIDS 52 WEEK                                                                                                                                           
COMYTV   020601101746      000030GRAND TOYS/SPIDERMAN WEB BLAST                                                                                                                                 
COMYTV   020601101816      000015DANONE/PETITE DANONE                                                                                                                                           
PROYTV   020601101831      000030YTV PROMO CONTRACT                                                                                                                                             
INTYTV   020601102552102612000020PROGRAM JOCKEY                                    PROGRAM JOCKEY                                                       1 213120                                
PGRYTV   020601102612102848000236BATMAN BEYOND                                     WHERE'S TERRY? EPS 40                                                2 38307ECC                              
COMYTV   020601102618      000015HASBRO/CORPORATE PREFALL                                                                                                                                       
COMYTV   020601102633      000030KELLOGG/MICKEYS MAGIC CEREAL                                                                                                                                   
COMYTV   020601102703      000015WARNER HOME V/HARRY POTTER HU                                                                                                                                  
PRCYTV   020601102718      000030YTV PROMO CONTRACT                                                                                                                                             
PROYTV   020601102748      000030YTV PROMO CONTRACT                                                                                                                                             
INTYTV   020601102848103000000112PROGRAM JOCKEY                                    PROGRAM JOCKEY                                                       1 213120                                
ID YTV   020601102948      000012STATION ID                                                                                                                                                     
PGRYTV   020601103000103250000250MEN IN BLACK                                      GOODBYE SYNDROME EPS 1                                               2 38307ECC                              
INTYTV   020601103250103310000020PROGRAM JOCKEY                                    PROGRAM JOCKEY                                                       1 213120                                
PGRYTV   020601103310104147000837MEN IN BLACK                                      GOODBYE SYNDROME EPS 1                                               2 38307ECC                              
COMYTV   020601103316      000015DANONE/PETITE DANONE                                                                                                                                           
COMYTV   020601103331      000015DREAMWORKS/SPIRIT CIMARRON HU                                                                                                                                  
COMYTV   020601103346      000030KRAFT/KIDS SUMMER :30'S                                                                                                                                        
PRCYTV   020601103416      000030YTV PROMO CONTRACT                                                                                                                                             
PRCYTV   020601103446      000015YTV PROMO CONTRACT                                                                                                                                             
INTYTV   020601104147104207000020PROGRAM JOCKEY                                    PROGRAM JOCKEY                                                       1 213120                                
PGRYTV   020601104207105010000803MEN IN BLACK                                      GOODBYE SYNDROME EPS 1                                               2 38307ECC                              
COMYTV   020601104213      000030KELLOGG/KIDS 52 WEEK                                                                                                                                           
COMYTV   020601104243      000015YTV CO-MKTG/DRMWKS SPIRIT STAL                                                                                                                                 
COMYTV   020601104258      000030MCDONALDS/CORPORATE HAPPY MEAL                                                                                                                                 
COMYTV   020601104328      000015HASBRO/CORPORATE PREFALL                                                                                                                                       
COMYTV   020601104343      000030GENERAL MILLS/TRADITIONAL CHIL                                                                                                                                 
INTYTV   020601105010105030000020PROGRAM JOCKEY                                    PROGRAM JOCKEY                                                       1 213120                                
PGRYTV   020601105030105847000817MEN IN BLACK                                      GOODBYE SYNDROME EPS 1                                               2 38307ECC                              
COMYTV   020601105036      00001520TH CENTURY/STAR WARS-WEEK 3                                                                                                                                  
COMYTV   020601105051      000030KELLOGG/MICKEYS MAGIC CEREAL                                                                                                                                   
COMYTV   020601105121      000015HASBRO/CORPORATE PREFALL                                                                                                                                       
PRCYTV   020601105136      000030YTV PROMO CONTRACT                                                                                                                                             
PRCYTV   020601105206      000015YTV PROMO CONTRACT                                                                                                                                             
INTYTV   020601105847110000000113PROGRAM JOCKEY                                    PROGRAM JOCKEY                                                       1 213120                                
ID YTV   020601105948      000012STATION ID                                                                                                                                                     
PGRYTV   020601110000110233000233JACKIE CHAN ADVENTURES                            THE MASK OF EL TORO FUERTE EP3                                       2 38307ECC                              
INTYTV   020601110233110253000020PROGRAM JOCKEY                                    PROGRAM JOCKEY                                                       1 213120                                
PGRYTV   020601110253110929000636JACKIE CHAN ADVENTURES                            THE MASK OF EL TORO FUERTE EP3                                       2 38307ECC                              
COMYTV   020601110259      000030KRAFT/KIDS SUMMER :30'S                                                                                                                                        
COMYTV   020601110329      000030WENDY'S/KIDS MEALS                                                                                                                                             
PRCYTV   020601110359      000030YTV PROMO CONTRACT                                                                                                                                             
INTYTV   020601110929110949000020PROGRAM JOCKEY                                    PROGRAM JOCKEY                                                       1 213120                                
PGRYTV   020601110949111920000931JACKIE CHAN ADVENTURES                            THE MASK OF EL TORO FUERTE EP3                                       2 38307ECC                              
COMYTV   020601110954      000030KELLOGG/KIDS 52 WEEK                                                                                                                                           
COMYTV   020601111024      000030GENERAL MILLS/TRADITIONAL CHIL                                                                                                                                 
COMYTV   020601111054      000030MCDONALDS/CORPORATE HAPPY MEAL                                                                                                                                 
COMYTV   020601111124      000030KELLOGG/KIDS 52 WEEK                                                                                                                                           
PRCYTV   020601111154      000030YTV PROMO CONTRACT                                                                                                                                             
INTYTV   020601111920111940000020PROGRAM JOCKEY                                    PROGRAM JOCKEY                                                       1 213120                                
PGRYTV   020601111940112807000827JACKIE CHAN ADVENTURES                            THE MASK OF EL TORO FUERTE EP3                                       2 38307ECC                              
COMYTV   020601111944      000015DREAMWORKS/SPIRIT CIMARRON HU                                                                                                                                  
COMYTV   020601111959      000030KELLOGG/KIDS 52 WEEK                                                                                                                                           
COMYTV   020601112029      000015HASBRO/CORPORATE PREFALL                                                                                                                                       
PROYTV   020601112044      000015YTV PROMO CONTRACT                                                                                                                                             
PRCYTV   020601112114      000015YTV PROMO CONTRACT                                                                                                                                             
INTYTV   020601112807113009000202PROGRAM JOCKEY                                    PROGRAM JOCKEY                                                       1 213120                                
ID YTV   020601112957      000012STATION ID                                                                                                                                                     
PGRYTV   020601113009113306000257X-MEN: EVOLUTION                                  SHADOWED PAST EPS 10                                                 2 38307ECC                              
INTYTV   020601113306113326000020PROGRAM JOCKEY                                    PROGRAM JOCKEY                                                       1 213120                                
PGRYTV   020601113326113832000506X-MEN: EVOLUTION                                  SHADOWED PAST EPS 10                                                 2 38307ECC                              
COMYTV   020601113332      000030WENDY'S/KIDS MEALS                                                                                                                                             
COMYTV   020601113402      000030KRAFT/KIDS SUMMER :30'S                                                                                                                                        
PRCYTV   020601113432      000030YTV PROMO CONTRACT                                                                                                                                             
PROYTV   020601113502      000030YTV PROMO CONTRACT                                                                                                                                             
INTYTV   020601113832113852000020PROGRAM JOCKEY                                    PROGRAM JOCKEY                                                       1 213120                                
PGRYTV   020601113852114752000900X-MEN: EVOLUTION                                  SHADOWED PAST EPS 10                                                 2 38307ECC                              
COMYTV   020601113858      000030KELLOGG/MICKEYS MAGIC CEREAL                                                                                                                                   
COMYTV   020601113928      000030MCDONALDS/CORPORATE HAPPY MEAL                                                                                                                                 
COMYTV   020601113958      000030MATTEL/SUMMER                                                                                                                                                  
COMYTV   020601114028      000030KRAFT/KIDS SUMMER :30'S                                                                                                                                        
PRCYTV   020601114058      000030YTV PROMO CONTRACT                                                                                                                                             
PRCYTV   020601114128      000015YTV PROMO CONTRACT                                                                                                                                             
INTYTV   020601114752114812000020PROGRAM JOCKEY                                    PROGRAM JOCKEY                                                       1 213120                                
PGRYTV   020601114812115917001105X-MEN: EVOLUTION                                  SHADOWED PAST EPS 10                                                 2 38307ECC                              
COMYTV   020601114817      000015HASBRO/CORPORATE PREFALL                                                                                                                                       
COMYTV   020601114832      000030DAIRY QUEEN/KIDS                                                                                                                                               
COMYTV   020601114902      000015TRENDMASTERS/STORM                                                                                                                                             
PRCYTV   020601114917      000030YTV PROMO CONTRACT                                                                                                                                             
INTYTV   020601115917120000000043PROGRAM JOCKEY                                    PROGRAM JOCKEY                                                       1 213120                                
ID YTV   020601115946      000012STATION ID                                                                                                                                                     
PGRYTV   020601120000123020003020HEY ARNOLD                                        EATING CONTEST/RHONDAS EP37                                          2 38307ECC                              
SPOYTV   020601120542      000010THE WONDER BRAND                                                                                                                                               
COMYTV   020601120552      000030GENERAL MILLS/TRADITIONAL CHIL                                                                                                                                 
COMYTV   020601120622      000015YTV CO-MKTG/DRMWKS SPIRIT STAL                                                                                                                                 
COMYTV   020601120637      000030MCDONALDS/CORPORATE HAPPY MEAL                                                                                                                                 
COMYTV   020601120707      000015WARNER HOME VIDEO/HARRY POTTER                                                                                                                                 
COMYTV   020601120722      000030GENERAL MILLS/TRADITIONAL CHIL                                                                                                                                 
COMYTV   020601121408      000015WESTON BAKERIES/WONDER BINGO P                                                                                                                                 
COMYTV   020601121423      000030HASBRO/CORPORATE PREFALL                                                                                                                                       
COMYTV   020601121453      000030KELLOGG/KIDS 52 WEEK                                                                                                                                           
COMYTV   020601121523      000015L'OREAL CANADA/KIDS                                                                                                                                            
COMYTV   020601121538      000030DAIRY QUEEN/KIDS                                                                                                                                               
COMYTV   020601121951      000015HASBRO/CORPORATE PREFALL                                                                                                                                       
COMYTV   020601122006      000030KELLOGG/MICKEYS MAGIC CEREAL                                                                                                                                   
COMYTV   020601122036      000015DREAMWORKS/SPIRIT CIMARRON HU                                                                                                                                  
COMYTV   020601122051      000030KRAFT/KIDS SUMMER :30'S                                                                                                                                        
COMYTV   020601122121      000030GRAND TOYS/SPIDERMAN WEB BLAST                                                                                                                                 
ID YTV   020601123000      000012STATION ID                                                                                                                                                     
SPOYTV   020601123012      000005GENERAL MILLS/TRADITIONAL CHIL                                                                                                                                 
PGRYTV   020601123020130043003023ROCKET POWER                                      SURFERS/CINEMA EPS 7                                                 2 38307ECC                              
SPOYTV   020601123109      000010HASBRO-BEYBLADE-W.O.W. SPONSOR                                                                                                                                 
COMYTV   020601123119      000015HASBRO/CORPORATE PREFALL                                                                                                                                       
COMYTV   020601123134      000030KELLOGG/KIDS 52 WEEK                                                                                                                                           
COMYTV   020601123204      000030HASBRO/CORPORATE PREFALL                                                                                                                                       
COMYTV   020601123234      000030MCDONALDS/CORPORATE HAPPY MEAL                                                                                                                                 
COMYTV   020601123304      000015WARNER HOME VIDEO/HARRY POTTER                                                                                                                                 
COMYTV   020601124430      000015THE WONDER BRAND                                                                                                                                               
COMYTV   020601124445      000030DAIRY QUEEN/KIDS                                                                                                                                               
COMYTV   020601124515      000030PARAMOUNT/HEY ARNOLD                                                                                                                                           
COMYTV   020601124545      000030KELLOGG/KIDS 52 WEEK                                                                                                                                           
COMYTV   020601124615      000015DANONE/PETITE DANONE                                                                                                                                           
COMYTV   020601125742      000015DREAMWORKS/SPIRIT CIMARRON HU                                                                                                                                  
COMYTV   020601125757      000030KELLOGG/KIDS 52 WEEK                                                                                                                                           
COMYTV   020601125827      000030WENDY'S/KIDS MEALS                                                                                                                                             
COMYTV   020601125857      000015WESTON BAKERIES/WONDER BINGO P                                                                                                                                 
COMYTV   020601125912      000030GRAND TOYS/SPIDERMAN WEB BLAST                                                                                                                                 
ID YTV   020601130027      000012STATION ID                                                                                                                                                     
PGRYTV   020601130043133057003014VIDEO & ARCADE TOP TEN                            EPS 28                                            SIX   YTV   C19341 1 253100CC                              
SPOYTV   020601130937      000010DISC KIDS/SPIKE EVENT/GEN.AWAR                                                                                                                                 
COMYTV   020601130947      000030AOL/AOL BARTER                                                                                                                                                 
COMYTV   020601131017      000030MAYTAG/LAUNDRY                                                                                                                                                 
COMYTV   020601131047      000030HASBRO/CORPORATE BARTER                                                                                                                                        
COMYTV   020601131117      000030HWY/ADULT BARTER #6                                                                                                                                            
COMYTV   020601132126      000030YTV CO-MK/KRAFT/KOOL-AID MAGIC                                                                                                                                 
COMYTV   020601132156      000030NESTLE/NESTLE SUNDAE                                                                                                                                           
COMYTV   020601132226      000030MATTEL/DK RENEGOTIATION                                                                                                                                        
COMYTV   020601132256      000030KELLOGG/COMPENSATION                                                                                                                                           
COMYTV   020601132601      000030K CLARK/PULL UPS                                                                                                                                               
COMYTV   020601132631      000030HWY/ADULT BARTER #3                                                                                                                                            
COMYTV   020601132701      000030HWY/ADULT CPA#2                                                                                                                                                
COMYTV   020601132731      000030KELLOGG/KIDS 52 WEEK                                                                                                                                           
ID YTV   020601133036      000012STATION ID                                                                                                                                                     
SPOYTV   020601133048      000005POPULAR RECORDS/BOSSON                                                                                                                                         
PGRYTV   020601133057150133013036YTV'S HIT LIST                                    EPS 11-38                                                            1 31308CCC                              
SPOYTV   020601134141      000010POPULAR RECORDS/BOSSON                                                                                                                                         
COMYTV   020601134151      000030POPULAR RECORDS/BOSSON                                                                                                                                         
COMYTV   020601134221      000030NESTLE/NESTLE SUNDAE                                                                                                                                           
COMYTV   020601134251      000015HASBRO/CORPORATE PREFALL                                                                                                                                       
COMYTV   020601134306      000030K CLARK/HUGGIES :30 ULTRA                                                                                                                                      
COMYTV   020601134336      000015L'OREAL CANADA/KIDS                                                                                                                                            
COMYTV   020601135248      000015HASBRO/CORPORATE PREFALL                                                                                                                                       
COMYTV   020601135303      000030HWY/ADULT BARTER #1                                                                                                                                            
COMYTV   020601135333      000030KRAFT/KIDS SUMMER :30'S                                                                                                                                        
COMYTV   020601135403      000015HWY/WOMEN CPA HU                                                                                                                                               
COMYTV   020601135418      000030KELLOGG/KIDS 52 WEEK                                                                                                                                           
COMYTV   020601135951      000030POPULAR RECORDS/BOSSON                                                                                                                                         
COMYTV   020601140021      000030K CLARK/PULL UPS                                                                                                                                               
COMYTV   020601140051      000030GENERAL MILLS/TRADITIONAL CHIL                                                                                                                                 
COMYTV   020601140121      000030HASBRO/CORPORATE BARTER                                                                                                                                        
SPOYTV   020601140759      000010POPULAR RECORDS/BOSSON                                                                                                                                         
COMYTV   020601140809      000015JOHNSON & JOHNSON INC.                                                                                                                                         
COMYTV   020601140824      000030GENERAL MILLS/TRADITIONAL CHIL                                                                                                                                 
COMYTV   020601140854      000030HWY/ADULT CPA HU#2                                                                                                                                             
COMYTV   020601140924      000030NESTLE/NESTLE SUNDAE                                                                                                                                           
COMYTV   020601140954      000015YTV CO-MKTG/DRMWKS SPIRIT STAL                                                                                                                                 
COMYTV   020601142153      000030WARNER BROS/SCOOBY DOO FLT 2                                                                                                                                   
COMYTV   020601142223      000030HWY/ADULT BARTER #3                                                                                                                                            
COMYTV   020601142253      000030HWY/PLAYTOY BARTER                                                                                                                                             
COMYTV   020601142323      000030KELLOGG/KIDS 52 WEEK                                                                                                                                           
COMYTV   020601143014      000030PARAMOUNT/HEY ARNOLD                                                                                                                                           
COMYTV   020601143044      000030KELLOGG/MICKEYS MAGIC CEREAL                                                                                                                                   
COMYTV   020601143114      000100P&G/CORPORATE HEAVY UP                                                                                                                                         
SPOYTV   020601144304      000010POPULAR RECORDS/BOSSON                                                                                                                                         
COMYTV   020601144314      000015WARNER HOME VIDEO/HARRY POTTER                                                                                                                                 
COMYTV   020601144329      000030HASBRO/CORPORATE BARTER                                                                                                                                        
COMYTV   020601144359      000015THE WONDER BRAND                                                                                                                                               
COMYTV   020601144414      000030MATTEL/DK RENEGOTIATION                                                                                                                                        
COMYTV   020601144444      000030YTV CO-MK/KRAFT/KOOL-AID MAGIC                                                                                                                                 
COMYTV   020601145006      000030POPULAR RECORDS/BOSSON                                                                                                                                         
COMYTV   020601145036      000030HASBRO-BEYBLADE-W.O.W. SPONSOR                                                                                                                                 
COMYTV   020601145106      000030KELLOGG/KIDS 52 WEEK                                                                                                                                           
COMYTV   020601145136      000030MATTEL/DK RENEGOTIATION                                                                                                                                        
COMYTV   020601145440      000015DANONE/PETITE DANONE                                                                                                                                           
COMYTV   020601145455      000030L'OREAL CANADA/FRUCTIS-STYLING                                                                                                                                 
COMYTV   020601145525      000030KELLOGG/COMPENSATION                                                                                                                                           
COMYTV   020601145555      000015WARNER HOME VIDEO/HARRY POTTER                                                                                                                                 
COMYTV   020601145610      000030NESTLE/NESTLE SUNDAE                                                                                                                                           
PRCYTV   020601145856      000030YTV PROMO CONTRACT                                                                                                                                             
SPOYTV   020601150116      000005POPULAR RECORDS/BOSSON                                                                                                                                         
ID YTV   020601150121      000012STATION ID                                                                                                                                                     
PGRYTV   020601150133152958002825BEYBLADE                                          THE BLADE RIDER EPS 1                                         D02016 7 38307ECC2                             
SPOYTV   020601150239      000010HASBRO-BEYBLADE-W.O.W. SPONSOR                                                                                                                                 
COMYTV   020601150249      000015TRENDMASTERS/STORM                                                                                                                                             
COMYTV   020601150304      000030BVP/LILO & STITCH                                                                                                                                              
COMYTV   020601150334      000030KELLOGG/MICKEYS MAGIC CEREAL                                                                                                                                   
COMYTV   020601150404      000030HASBRO/CORPORATE PREFALL                                                                                                                                       
COMYTV   020601150434      000015THE WONDER BRAND                                                                                                                                               
COMYTV   020601150936      000030GENERAL MILLS/TRADITIONAL CHIL                                                                                                                                 
COMYTV   020601151006      000030HASBRO/CORPORATE BARTER                                                                                                                                        
COMYTV   020601151036      000015DANONE/PETITE DANONE                                                                                                                                           
COMYTV   020601151051      000015DREAMWORKS/SPIRIT CIMARRON HU                                                                                                                                  
COMYTV   020601151106      000030KRAFT/KIDS SUMMER :30'S                                                                                                                                        
PRCYTV   020601151136      000015YTV PROMO CONTRACT                                                                                                                                             
COMYTV   020601152157      000015WARNER HOME VIDEO/HARRY POTTER                                                                                                                                 
COMYTV   020601152212      000030GRAND TOYS/SPIDERMAN WEB BLAST                                                                                                                                 
COMYTV   020601152242      000030GENERAL MILLS/TRADITIONAL CHIL                                                                                                                                 
COMYTV   020601152312      000015HASBRO/CORPORATE PREFALL                                                                                                                                       
COMYTV   020601152327      000030WARNER BROS/SCOOBY DOO FLT 2                                                                                                                                   
ID YTV   020601152946      000012STATION ID                                                                                                                                                     
PGRYTV   020601152958160005003007POKEMON                                           MOVING PICTURES!   EPS 186                                           7 38307ECC                              
SPOYTV   020601153130      000010MINUTE MAID/BIBO-W.O.W. SPONS                                                                                                                                  
COMYTV   020601153140      000015WESTON BAKERIES/WONDER BINGO P                                                                                                                                 
COMYTV   020601153155      000030PARAMOUNT/HEY ARNOLD                                                                                                                                           
COMYTV   020601153225      000030KELLOGG/KIDS 52 WEEK                                                                                                                                           
COMYTV   020601153255      000015YTV CO-MKTG/DRMWKS SPIRIT STAL                                                                                                                                 
COMYTV   020601153310      000030HASBRO-BEYBLADE-W.O.W. SPONSOR                                                                                                                                 
PRCYTV   020601153340      000030YTV PROMO CONTRACT                                                                                                                                             
COMYTV   020601154347      000030DAIRY QUEEN/KIDS                                                                                                                                               
COMYTV   020601154417      000030KELLOGG/KIDS 52 WEEK                                                                                                                                           
COMYTV   020601154447      000015DREAMWORKS/SPIRIT CIMARRON HU                                                                                                                                  
COMYTV   020601154502      000030GENERAL MILLS/TRADITIONAL CHIL                                                                                                                                 
COMYTV   020601154532      000015DANONE/PETITE DANONE                                                                                                                                           
PRCYTV   020601154547      000030YTV PROMO CONTRACT                                                                                                                                             
PRCYTV   020601154617      000015YTV PROMO CONTRACT                                                                                                                                             
COMYTV   020601155333      000030KELLOGG/KIDS 52 WEEK                                                                                                                                           
COMYTV   020601155403      000030WARNER BROS/SCOOBY DOO FLT 2                                                                                                                                   
COMYTV   020601155433      000030YTV CO-MK/KRAFT/KOOL-AID MAGIC                                                                                                                                 
COMYTV   020601155503      000030KRAFT/KIDS SUMMER :30'S                                                                                                                                        
PRCYTV   020601155533      000030YTV PROMO CONTRACT                                                                                                                                             
ID YTV   020601155948      000012STATION ID                                                                                                                                                     
SPOYTV   020601160000      000005WENDY'S/KIDS MEALS                                                                                                                                             
PGRYTV   020601160005163001002956SAILOR MOON                                       DARK LEGEND EP156                                                    7 38307ECC                              
SPOYTV   020601160243      000010MINUTE MAID/BIBO-W.O.W. SPONS                                                                                                                                  
COMYTV   020601160253      000015DREAMWORKS/SPIRIT CIMARRON HU                                                                                                                                  
COMYTV   020601160308      000030MCDONALDS/CORPORATE HAPPY MEAL                                                                                                                                 
COMYTV   020601160338      000030GRAND TOYS/SPIDERMAN WEB BLAST                                                                                                                                 
COMYTV   020601160408      000015WARNER HOME VIDEO/HARRY POTTER                                                                                                                                 
COMYTV   020601160423      000030KELLOGG/KIDS 52 WEEK                                                                                                                                           
PRCYTV   020601160453      000030YTV PROMO CONTRACT                                                                                                                                             
COMYTV   020601161354      000030THQ INC./BRITNEY SPEARS                                                                                                                                        
COMYTV   020601161424      000030KELLOGG/KIDS 52 WEEK                                                                                                                                           
COMYTV   020601161454      000030HASBRO/CORPORATE PREFALL                                                                                                                                       
COMYTV   020601161524      000030KRAFT/KIDS SUMMER :30'S                                                                                                                                        
PRCYTV   020601161554      000015YTV PROMO CONTRACT                                                                                                                                             
COMYTV   020601162626      000015HASBRO/CORPORATE PREFALL                                                                                                                                       
COMYTV   020601162641      000030GENERAL MILLS/TRADITIONAL CHIL                                                                                                                                 
COMYTV   020601162711      000030BIG TIME TOYS                                                                                                                                                  
COMYTV   020601162741      000030WENDY'S/KIDS MEALS                                                                                                                                             
COMYTV   020601162811      000015HASBRO/CORPORATE PREFALL                                                                                                                                       
PRCYTV   020601162826      000030YTV PROMO CONTRACT                                                                                                                                             
ID YTV   020601162948      000012STATION ID                                                                                                                                                     
PGRYTV   020601163001170002003001ULTIMATE BOOK OF SPELLS                           ONCE IN A BLUE MOON  EPS 9                                           4 38307ECC                              
COMYTV   020601163749      000030HWY/ADULT CPA#2                                                                                                                                                
COMYTV   020601163819      000030NESTLE/NESTLE SUNDAE                                                                                                                                           
COMYTV   020601163849      000030HWY/ADULT CPA HU#3                                                                                                                                             
COMYTV   020601163919      000030KELLOGG/KIDS 52 WEEK                                                                                                                                           
PRCYTV   020601163949      000030YTV PROMO CONTRACT                                                                                                                                             
PRCYTV   020601164019      000015YTV PROMO CONTRACT                                                                                                                                             
COMYTV   020601164714      000030KRAFT/KIDS SUMMER :30'S                                                                                                                                        
COMYTV   020601164744      000030HWY/ADULT BARTER #1                                                                                                                                            
COMYTV   020601164814      000030HWY/ADULT BARTER #4                                                                                                                                            
COMYTV   020601164844      000030YTV CO-MK/KRAFT/KOOL-AID MAGIC                                                                                                                                 
COMYTV   020601165628      000015WARNER HOME VIDEO/HARRY POTTER                                                                                                                                 
COMYTV   020601165643      000030HWY/ADULT BARTER #5                                                                                                                                            
COMYTV   020601165713      000030THQ INC./BRITNEY SPEARS                                                                                                                                        
COMYTV   020601165743      000030HWY/ADULT CPA HU#3                                                                                                                                             
COMYTV   020601165813      000015DANONE/PETITE DANONE                                                                                                                                           
PRCYTV   020601165828      000030YTV PROMO CONTRACT                                                                                                                                             
PRCYTV   020601165858      000015YTV PROMO CONTRACT                                                                                                                                             
ID YTV   020601165948      000012STATION ID                                                                                                                                                     
PGRYTV   020601170002173000002958GRIZZLY TALES FOR GRUESOME KID                    CAT BURGLAR/MR. PEELER EP9                                           3 38307ECC                              
COMYTV   020601170524      000030NESTLE/NESTLE SUNDAE                                                                                                                                           
COMYTV   020601170554      000100P&G/CORPORATE HEAVY UP                                                                                                                                         
COMYTV   020601170654      000030GENERAL MILLS/CORPORATE BARTER                                                                                                                                 
PRCYTV   020601170724      000030YTV PROMO CONTRACT                                                                                                                                             
PRCYTV   020601170754      000030YTV PROMO CONTRACT                                                                                                                                             
COMYTV   020601171328      000030GENERAL MILLS/TRADITIONAL CHIL                                                                                                                                 
COMYTV   020601171358      000030MATTEL/DK RENEGOTIATION                                                                                                                                        
COMYTV   020601171428      000030NESTLE/NESTLE SUNDAE                                                                                                                                           
COMYTV   020601171458      000030KELLOGG/KIDS 52 WEEK                                                                                                                                           
PRCYTV   020601171528      000030YTV PROMO CONTRACT                                                                                                                                             
PRCYTV   020601171558      000030YTV PROMO CONTRACT                                                                                                                                             
COMYTV   020601172240      000015JOHNSON & JOHNSON INC.                                                                                                                                         
COMYTV   020601172255      000030MINUTE MAID/BIBO-W.O.W. SPONS                                                                                                                                  
COMYTV   020601172325      000030WARNER BROS/SCOOBY DOO FLT 2                                                                                                                                   
COMYTV   020601172355      000030THQ INC./BRITNEY SPEARS                                                                                                                                        
COMYTV   020601172425      000015DANONE/PETITE DANONE                                                                                                                                           
PRCYTV   020601172440      000030YTV PROMO CONTRACT                                                                                                                                             
PRCYTV   020601172510      000030YTV PROMO CONTRACT                                                                                                                                             
ID YTV   020601172948      000012STATION ID                                                                                                                                                     
PGRYTV   020601173000180000003000FREAKY STORIES                                    STOLEN/VANISHING/FRONT EP17                       BIGTIMYTV   A23764 1 35307ECC                              
COMYTV   020601173549      000015J&J/BABY CLOTHS                                                                                                                                                
COMYTV   020601173604      000030MATTEL/SUMMER                                                                                                                                                  
COMYTV   020601173634      000030KRAFT/KIDS SUMMER :30'S                                                                                                                                        
COMYTV   020601173704      000030NESTLE/NESTLE SUNDAE                                                                                                                                           
COMYTV   020601173734      000015HASBRO/CORPORATE PREFALL                                                                                                                                       
COMYTV   020601174318      000030AOL/CORPORATE                                                                                                                                                  
COMYTV   020601174348      000030YTV CO-MK/KRAFT/KOOL-AID MAGIC                                                                                                                                 
COMYTV   020601174418      000030HWY/ADULT BARTER #6                                                                                                                                            
COMYTV   020601174448      000030KELLOGG/KIDS 52 WEEK                                                                                                                                           
COMYTV   020601175042      000030HWY/PLAYTOY BARTER                                                                                                                                             
COMYTV   020601175112      000030WARNER BROS/SCOOBY DOO FLT 2                                                                                                                                   
COMYTV   020601175142      000030KELLOGG/COMPENSATION                                                                                                                                           
COMYTV   020601175212      000030HWY/ADULT CPA#1                                                                                                                                                
ID YTV   020601175948      000012STATION ID                                                                                                                                                     
PGRYTV   020601180000183000003000GALIDOR                                           DUST TILL DAWN EP 5                               CINEGRYTV   A70346 1 35307ECC                              
COMYTV   020601180729      000030KELLOGG/KIDS 52 WEEK                                                                                                                                           
COMYTV   020601180759      000030HASBRO/CORPORATE BARTER                                                                                                                                        
COMYTV   020601180829      000030AOL/AOL BARTER                                                                                                                                                 
COMYTV   020601180859      000030HWY/ADULT BARTER #4                                                                                                                                            
COMYTV   020601182306      000030WARNER BROS/JUWANAMAN-:30'S                                                                                                                                    
COMYTV   020601182336      000030GRAND TOYS/SPIDERMAN WEB BLAST                                                                                                                                 
COMYTV   020601182406      000030KRAFT/NABISCO CRISPERS                                                                                                                                         
COMYTV   020601182436      000030YTV CO-MK/KRAFT/KOOL-AID MAGIC                                                                                                                                 
PRCYTV   020601182506      000030YTV PROMO CONTRACT                                                                                                                                             
COMYTV   020601182712      000015DREAMWORKS/SPIRIT CIMARRON HU                                                                                                                                  
COMYTV   020601182727      000100P&G/CORPORATE HEAVY UP                                                                                                                                         
COMYTV   020601182827      000030NESTLE/NESTLE SUNDAE                                                                                                                                           
COMYTV   020601182857      000015YTV CO-MKTG/DRMWKS SPIRIT STAL                                                                                                                                 
ID YTV   020601182948      000012STATION ID                                                                                                                                                     
PGRYTV   0206011830001900090030092030 CE                                           LORD HELPS THOSE...   EPS 5                       MINDS YTV   C19374 1 35307ACC                              
COMYTV   020601183305      000015L'OREAL CANADA/KIDS                                                                                                                                            
COMYTV   020601183320      000030NESTLE/NESTLE SUNDAE                                                                                                                                           
COMYTV   020601183350      000030K CLARK/KOTEX                                                                                                                                                  
COMYTV   020601183420      000030KELLOGG/KIDS 52 WEEK                                                                                                                                           
COMYTV   020601183450      000015WARNER HOME VIDEO/HARRY POTTER                                                                                                                                 
COMYTV   020601184414      000030GENERAL MILLS/TRADITIONAL CHIL                                                                                                                                 
COMYTV   020601184444      000100P&G/BASE BUY                                                                                                                                                   
COMYTV   020601184544      000030KELLOGG/KIDS 52 WEEK                                                                                                                                           
COMYTV   020601185549      000030GENERAL MILLS/TRADITIONAL CHIL                                                                                                                                 
COMYTV   020601185619      000030KRAFT/KIDS SUMMER :30'S                                                                                                                                        
COMYTV   020601185649      000030HASBRO/CORPORATE PREFALL                                                                                                                                       
COMYTV   020601185719      000030DANONE/PETITE DANONE - ADULT                                                                                                                                   
ID YTV   020601185952      000012STATION ID                                                                                                                                                     
SPOYTV   020601190004      000005COCA-COLA/BARQ'S                                                                                                                                               
PGRYTV   020601190009195519005510DEAD LAST                                         GASTRIC DISTRESS  EPS 6                                              2 38307ACC                              
SPOYTV   020601190230      000010NESTLE/KITKAT CHUNKY CHART ATT                                                                                                                                 
COMYTV   020601190240      000015WARNER HOME V/HARRY POTTER HU                                                                                                                                  
COMYTV   020601190255      000030HASBRO/CORPORATE BARTER                                                                                                                                        
COMYTV   020601190325      000015J&J/CLEAN & CLEAR                                                                                                                                              
COMYTV   020601190340      000030L'OREAL CANADA/FRUCTIS-STYLING                                                                                                                                 
COMYTV   020601190410      000030KELLOGG/KIDS 52 WEEK                                                                                                                                           
COMYTV   020601191605      000015DANONE/PETITE DANONE                                                                                                                                           
COMYTV   020601191620      000030WENDY'S/KIDS MEALS                                                                                                                                             
COMYTV   020601191650      000030K CLARK/KOTEX                                                                                                                                                  
COMYTV   020601191720      000030GENERAL MILLS/TRADITIONAL CHIL                                                                                                                                 
COMYTV   020601191750      000015COCA-COLA/BARQ'S                                                                                                                                               
COMYTV   020601192724      000100P&G/CORPORATE HEAVY UP                                                                                                                                         
COMYTV   020601192824      000030HWY/ADULT CPA HU#1                                                                                                                                             
COMYTV   020601192854      000015DREAMWORKS/SPIRIT CIMARRON HU                                                                                                                                  
COMYTV   020601192909      000015J&J/BABY CLOTHS                                                                                                                                                
COMYTV   020601193520      000015L'OREAL CANADA/KIDS                                                                                                                                            
COMYTV   020601193535      000030NESTLE/NESTLE SUNDAE                                                                                                                                           
COMYTV   020601193605      000030K CLARK/PULL UPS                                                                                                                                               
COMYTV   020601193635      000030KRAFT/KIDS SUMMER :30'S                                                                                                                                        
COMYTV   020601193705      000015DANONE/PETITE DANONE                                                                                                                                           
COMYTV   020601194112      000015THE WONDER BRAND                                                                                                                                               
