PGRYTV   030301060000062503002503MONA THE VAMPIRE                                  FROSTY/VAMP PACK  EPS 41                          CINAR YTV   A65552 1 35107ECC                              
PRCYTV   030301060106      000030YTV PROMO CONTRACT                                                                                                                                             
PRCYTV   030301061242      000030YTV PROMO CONTRACT                                                                                                                                             
PRCYTV   030301062419      000015YTV PROMO CONTRACT                                                                                                                                             
INTYTV   030301062503062848000345CHIP 'N' ORBIT                                    EPISODE 34                                                           1 311120CC                              
INTYTV   030301062848063000000112STICKIN' AROUND                                   HIT THE SHOWERS                                                      1 351120CC                              
ID YTV   030301062949      000012STATION ID                                                                                                                                                     
PGRYTV   030301063000065453002453MONSTER BY MISTAKE                                MONSTER A GO GO EP11                              MONSTEYTV   A21775 1 35107ECC                              
PRCYTV   030301063810      000015YTV PROMO CONTRACT                                                                                                                                             
PRCYTV   030301064551      000030YTV PROMO CONTRACT                                                                                                                                             
PRCYTV   030301065341      000015YTV PROMO CONTRACT                                                                                                                                             
INTYTV   030301065453065753000300NANALAN'                                          FEEDING THE BIRDS EP26                                               1 351120                                
INTYTV   030301065753065929000136NELVANA INTERSTITIALS                             MONSTER TRASH                                                        1 321120                                
ID YTV   030301065918      000012STATION ID                                                                                                                                                     
INTYTV   030301065929070030000101PROGRAM JOCKEY                                    PROGRAM JOCKEY                                                       1 213120                                
PGRYTV   030301070030071018000948REBOOT                                            ENZO, THE SMART                                   ALLIANYTV   P14551 1 35307ECC                              
INTYTV   030301071018071038000020PROGRAM JOCKEY                                    PROGRAM JOCKEY                                                       1 213120                                
PGRYTV   030301071038071712000634REBOOT                                            ENZO, THE SMART                                   ALLIANYTV   P14551 1 35307ECC                              
COMYTV   030301071044      000030KELLOGG/HUNNY B'S                                                                                                                                              
COMYTV   030301071114      000030MATTEL/SPRING VARIOUS                                                                                                                                          
PRCYTV   030301071150      000015YTV PROMO CONTRACT                                                                                                                                             
INTYTV   030301071712071732000020PROGRAM JOCKEY                                    PROGRAM JOCKEY                                                       1 213120                                
PGRYTV   030301071732072551000819REBOOT                                            ENZO, THE SMART                                   ALLIANYTV   P14551 1 35307ECC                              
COMYTV   030301071739      000015HASBRO/KIDS                                                                                                                                                    
COMYTV   030301071754      000030TOPP'S/BABY BOTTLE/PUSH POP                                                                                                                                    
COMYTV   030301071824      000030GENERAL MILLS/BARTER                                                                                                                                           
COMYTV   030301071854      000030BVHV/INSPECTOR GADGET 2                                                                                                                                        
COMYTV   030301071924      000015HASBRO/KIDS                                                                                                                                                    
INTYTV   030301072551072611000020PROGRAM JOCKEY                                    PROGRAM JOCKEY                                                       1 213120                                
PGRYTV   030301072611072917000306REBOOT                                            ENZO, THE SMART                                   ALLIANYTV   P14551 1 35307ECC                              
COMYTV   030301072618      000030KELLOGG/FROSTED FLAKES                                                                                                                                         
COMYTV   030301072648      000030YTV MARKETING/BFPM4                                                                                                                                            
INTYTV   030301072917073000000043PROGRAM JOCKEY                                    PROGRAM JOCKEY                                                       1 213120                                
ID YTV   030301072948      000012STATION ID                                                                                                                                                     
PGRYTV   030301073000073532000532BEYBLADE                                          MY WAY OR THE HIGHWAY  EPS 25                                 D02016 7 38307ECC2                             
INTYTV   030301073532073552000020PROGRAM JOCKEY                                    PROGRAM JOCKEY                                                       1 213120                                
PGRYTV   030301073552074301000709BEYBLADE                                          MY WAY OR THE HIGHWAY  EPS 25                                 D02016 7 38307ECC2                             
COMYTV   030301073558      000030GENERAL MILLS/VARIOUS                                                                                                                                          
COMYTV   030301073628      000015BVHV/INSPECTOR GADGET 2                                                                                                                                        
COMYTV   030301073643      000015HASBRO/KIDS                                                                                                                                                    
PRCYTV   030301073707      000030YTV PROMO CONTRACT                                                                                                                                             
INTYTV   030301074301074321000020PROGRAM JOCKEY                                    PROGRAM JOCKEY                                                       1 213120                                
PGRYTV   030301074321075103000742BEYBLADE                                          MY WAY OR THE HIGHWAY  EPS 25                                 D02016 7 38307ECC2                             
COMYTV   030301074326      000030KRAFT/KIDS P1 :30'S                                                                                                                                            
COMYTV   030301074356      000030CAMPBELLS/PF GOLDFISH TEST                                                                                                                                     
COMYTV   030301074426      000030MCDONALDS/HAPPY MEAL                                                                                                                                           
COMYTV   030301074456      000030KRAFT/KIDS P1 :30'S                                                                                                                                            
INTYTV   030301075103075123000020PROGRAM JOCKEY                                    PROGRAM JOCKEY                                                       1 213120                                
PGRYTV   030301075123075818000655BEYBLADE                                          MY WAY OR THE HIGHWAY  EPS 25                                 D02016 7 38307ECC2                             
COMYTV   030301075129      000030GENERAL MILLS/BARTER                                                                                                                                           
COMYTV   030301075159      000030BANDAI/POWER RANGERS                                                                                                                                           
PROYTV   030301075229      000030YTV PROMO CONTRACT                                                                                                                                             
PROYTV   030301075259      000030YTV PROMO CONTRACT                                                                                                                                             
INTYTV   030301075818080000000142PROGRAM JOCKEY                                    PROGRAM JOCKEY                                                       1 213120                                
ID YTV   030301075948      000012STATION ID                                                                                                                                                     
PGRYTV   030301080000080842000842BEAST MACHINES                                    REVELATIONS PT2 EP60                              TRANSFYTV   A33505 1 35307ECC                              
INTYTV   030301080842080902000020PROGRAM JOCKEY                                    PROGRAM JOCKEY                                                       1 213120                                
PGRYTV   030301080902081804000902BEAST MACHINES                                    REVELATIONS PT2 EP60                              TRANSFYTV   A33505 1 35307ECC                              
COMYTV   030301080908      000030BVP/BELLE'S MAGICAL WORLD                                                                                                                                      
COMYTV   030301080938      000030HASBRO/SKIBO BARTER                                                                                                                                            
PRCYTV   030301081008      000030YTV PROMO CONTRACT                                                                                                                                             
PRCYTV   030301081038      000015YTV PROMO CONTRACT                                                                                                                                             
INTYTV   030301081804081824000020PROGRAM JOCKEY                                    PROGRAM JOCKEY                                                       1 213120                                
PGRYTV   030301081824082546000722BEAST MACHINES                                    REVELATIONS PT2 EP60                              TRANSFYTV   A33505 1 35307ECC                              
COMYTV   030301081830      000030BVHV/INSPECTOR GADGET 2                                                                                                                                        
COMYTV   030301081900      000030GENERAL MILLS/VARIOUS                                                                                                                                          
COMYTV   030301081930      000030TOPP'S/BABY BOTTLE/PUSH POP                                                                                                                                    
COMYTV   030301082000      000030GENERAL MILLS/VARIOUS                                                                                                                                          
INTYTV   030301082546082606000020PROGRAM JOCKEY                                    PROGRAM JOCKEY                                                       1 213120                                
PGRYTV   030301082606082848000242BEAST MACHINES                                    REVELATIONS PT2 EP60                              TRANSFYTV   A33505 1 35307ECC                              
COMYTV   030301082612      000030MCDONALDS/HAPPY MEAL                                                                                                                                           
COMYTV   030301082642      000030YTV MARKETING/BFPM4                                                                                                                                            
PRCYTV   030301082712      000030YTV PROMO CONTRACT                                                                                                                                             
PROYTV   030301082742      000030YTV PROMO CONTRACT                                                                                                                                             
INTYTV   030301082848083006000118PROGRAM JOCKEY                                    PROGRAM JOCKEY                                                       1 213120                                
ID YTV   030301082948      000012STATION ID                                                                                                                                                     
SPOYTV   030301083000      000005KELLOGG/VARIOUS-BILLBOARD CAMP                                                                                                                                 
PGRYTV   030301083006083118000112TRANSFORMERS ARMADA                               RUIN  EPS 11                                                         2 28307ECC                              
INTYTV   030301083118083138000020PROGRAM JOCKEY                                    PROGRAM JOCKEY                                                       1 213120                                
PGRYTV   030301083138084203001025TRANSFORMERS ARMADA                               RUIN  EPS 11                                                         2 28307ECC                              
COMYTV   030301083143      000030MATTEL/SPRING VARIOUS                                                                                                                                          
COMYTV   030301083213      000030MGM/AGENT CODY BANKS                                                                                                                                           
PRCYTV   030301083243      000030YTV PROMO CONTRACT                                                                                                                                             
PRCYTV   030301083313      000030YTV PROMO CONTRACT                                                                                                                                             
INTYTV   030301084203084223000020PROGRAM JOCKEY                                    PROGRAM JOCKEY                                                       1 213120                                
PGRYTV   030301084223085549001326TRANSFORMERS ARMADA                               RUIN  EPS 11                                                         2 28307ECC                              
COMYTV   030301084229      000030BANDAI/POWER RANGERS                                                                                                                                           
COMYTV   030301084259      000015BVHV/INSPECTOR GADGET 2                                                                                                                                        
COMYTV   030301084314      000015HASBRO/KIDS                                                                                                                                                    
COMYTV   030301084329      000030GENERAL MILLS/BARTER                                                                                                                                           
COMYTV   030301084359      000030TOPP'S/BABY BOTTLE/PUSH POP                                                                                                                                    
INTYTV   030301085549085609000020PROGRAM JOCKEY                                    PROGRAM JOCKEY                                                       1 213120                                
PGRYTV   030301085609085918000309TRANSFORMERS ARMADA                               RUIN  EPS 11                                                         2 38307ECC                              
COMYTV   030301085615      000030MATTEL/SPRING VARIOUS                                                                                                                                          
COMYTV   030301085645      000030GENERAL MILLS/BARTER                                                                                                                                           
PRCYTV   030301085715      000030YTV PROMO CONTRACT                                                                                                                                             
PRCYTV   030301085745      000030YTV PROMO CONTRACT                                                                                                                                             
INTYTV   030301085918090000000042PROGRAM JOCKEY                                    PROGRAM JOCKEY                                                       1 213120                                
ID YTV   030301085948      000012STATION ID                                                                                                                                                     
PGRYTV   030301090000090131000131JACKIE CHAN ADVENTURES                            MONKEY A GO-GO  EPS 55                                               2 38307ECC                              
INTYTV   030301090131090151000020PROGRAM JOCKEY                                    PROGRAM JOCKEY                                                       1 213120                                
PGRYTV   030301090151090957000806JACKIE CHAN ADVENTURES                            MONKEY A GO-GO  EPS 55                                               2 38307ECC                              
SPOYTV   030301090157      000010BVHV/INSPECTOR GADGET 2                                                                                                                                        
COMYTV   030301090207      000030CAMPBELLS/PF GOLDFISH TEST                                                                                                                                     
COMYTV   030301090237      000030KELLOGG/FROSTED FLAKES                                                                                                                                         
PRCYTV   030301090312      000030YTV PROMO CONTRACT                                                                                                                                             
PRCYTV   030301090342      000015YTV PROMO CONTRACT                                                                                                                                             
INTYTV   030301090957091017000020PROGRAM JOCKEY                                    PROGRAM JOCKEY                                                       1 213120                                
PGRYTV   030301091017091853000836JACKIE CHAN ADVENTURES                            MONKEY A GO-GO  EPS 55                                               2 38307ECC                              
COMYTV   030301091024      000015KRAFT/KIDS P1 :15'S                                                                                                                                            
COMYTV   030301091039      000015TOPP'S/RING POP                                                                                                                                                
COMYTV   030301091054      000030MGM/AGENT CODY BANKS                                                                                                                                           
COMYTV   030301091124      000030BANDAI/POWER RANGERS                                                                                                                                           
COMYTV   030301091154      000030MCDONALDS/HAPPY MEAL                                                                                                                                           
PROYTV   030301091224      000030YTV PROMO CONTRACT                                                                                                                                             
INTYTV   030301091853091913000020PROGRAM JOCKEY                                    PROGRAM JOCKEY                                                       1 213120                                
PGRYTV   030301091913092811000858JACKIE CHAN ADVENTURES                            MONKEY A GO-GO  EPS 55                                               2 38307ECC                              
COMYTV   030301091920      000030BVHV/INSPECTOR GADGET 2                                                                                                                                        
COMYTV   030301091950      000030KRAFT/KOOL AID JAMMERS :30                                                                                                                                     
PROYTV   030301092020      000030YTV PROMO CONTRACT                                                                                                                                             
PRCYTV   030301092050      000030YTV PROMO CONTRACT                                                                                                                                             
INTYTV   030301092811092954000143PROGRAM JOCKEY                                    PROGRAM JOCKEY                                                       1 213120                                
ID YTV   030301092942      000012STATION ID                                                                                                                                                     
PGRYTV   030301092954093229000235THE MUMMY                                         THE DARK MEDJAI  EPS 16                                              2 38307ECC                              
INTYTV   030301093229093249000020PROGRAM JOCKEY                                    PROGRAM JOCKEY                                                       1 213120                                
PGRYTV   030301093249094012000723THE MUMMY                                         THE DARK MEDJAI  EPS 16                                              2 38307ECC                              
COMYTV   030301093255      000030KRAFT/KIDS P1 :30'S                                                                                                                                            
COMYTV   030301093325      000030TOPP'S/BABY BOTTLE/PUSH POP                                                                                                                                    
PRCYTV   030301093355      000030YTV PROMO CONTRACT                                                                                                                                             
PRCYTV   030301093425      000015YTV PROMO CONTRACT                                                                                                                                             
INTYTV   030301094012094032000020PROGRAM JOCKEY                                    PROGRAM JOCKEY                                                       1 213120                                
PGRYTV   030301094032094901000829THE MUMMY                                         THE DARK MEDJAI  EPS 16                                              2 38307ECC                              
COMYTV   030301094039      000015BVHV/INSPECTOR GADGET 2                                                                                                                                        
COMYTV   030301094054      000030HASBRO/SKIBO BARTER                                                                                                                                            
COMYTV   030301094124      000030GENERAL MILLS/BARTER                                                                                                                                           
COMYTV   030301094154      000030KRAFT/KIDS P1 :30'S                                                                                                                                            
COMYTV   030301094224      000015BVP/JUNGLE BOOK 2-CHASE 3                                                                                                                                      
INTYTV   030301094901094921000020PROGRAM JOCKEY                                    PROGRAM JOCKEY                                                       1 213120                                
PGRYTV   030301094921095818000857THE MUMMY                                         THE DARK MEDJAI  EPS 16                                              2 38307ECC                              
COMYTV   030301094927      000030MCDONALDS/HAPPY MEAL                                                                                                                                           
COMYTV   030301094957      000030SCHNEIDER/FUN KITS                                                                                                                                             
PRCYTV   030301095027      000030YTV PROMO CONTRACT                                                                                                                                             
PROYTV   030301095057      000030YTV PROMO CONTRACT                                                                                                                                             
INTYTV   030301095818100000000142PROGRAM JOCKEY                                    PROGRAM JOCKEY                                                       1 213120                                
ID YTV   030301095948      000012STATION ID                                                                                                                                                     
PGRYTV   030301100000100805000805HE-MAN & MASTERS OF UNIVERSE                      UNDERWORLD  EPS 14                                                   2 28307ECC                              
INTYTV   030301100805100825000020PROGRAM JOCKEY                                    PROGRAM JOCKEY                                                       1 213120                                
PGRYTV   030301100825101546000721HE-MAN & MASTERS OF UNIVERSE                      UNDERWORLD  EPS 14                                                   2 28307ECC                              
COMYTV   030301100830      000030MGM/AGENT CODY BANKS                                                                                                                                           
COMYTV   030301100900      000030BANDAI/POWER RANGERS                                                                                                                                           
PRCYTV   030301100930      000015YTV PROMO CONTRACT                                                                                                                                             
INTYTV   030301101546101606000020PROGRAM JOCKEY                                    PROGRAM JOCKEY                                                       1 213120                                
PGRYTV   030301101606102637001031HE-MAN & MASTERS OF UNIVERSE                      UNDERWORLD  EPS 14                                                   2 28307ECC                              
COMYTV   030301101612      000030CAMPBELLS/PF GOLDFISH TEST                                                                                                                                     
COMYTV   030301101642      000030HASBRO/SKIBO BARTER                                                                                                                                            
COMYTV   030301101712      000030GENERAL MILLS/VARIOUS                                                                                                                                          
COMYTV   030301101742      000015BVP/JUNGLE BOOK 2-CHASE 3                                                                                                                                      
COMYTV   030301101757      000015KRAFT CANADA INC.                                                                                                                                              
INTYTV   030301102637102657000020PROGRAM JOCKEY                                    PROGRAM JOCKEY                                                       1 213120                                
PGRYTV   030301102657102848000151HE-MAN & MASTERS OF UNIVERSE                      UNDERWORLD  EPS 14                                                   2 28307ECC                              
COMYTV   030301102703      000030BVHV/INSPECTOR GADGET 2                                                                                                                                        
COMYTV   030301102733      000030YTV CO-MKTG/LUNCH MATE FUN KIT                                                                                                                                 
PROYTV   030301102803      000015YTV PROMO CONTRACT                                                                                                                                             
INTYTV   030301102848103000000112PROGRAM JOCKEY                                    PROGRAM JOCKEY                                                       1 213120                                
ID YTV   030301102948      000012STATION ID                                                                                                                                                     
PGRYTV   030301103000103214000214X-MEN: EVOLUTION                                  THE X-IMPULSE EPS 2                                                  2 38307ECC                              
INTYTV   030301103214103234000020PROGRAM JOCKEY                                    PROGRAM JOCKEY                                                       1 213120                                
PGRYTV   030301103234104042000808X-MEN: EVOLUTION                                  THE X-IMPULSE EPS 2                                                  2 38307ECC                              
COMYTV   030301103240      000030MCDONALDS/HAPPY MEAL                                                                                                                                           
COMYTV   030301103310      000030HASBRO/SKIBO BARTER                                                                                                                                            
PRCYTV   030301103340      000030YTV PROMO CONTRACT                                                                                                                                             
PRCYTV   030301103410      000030YTV PROMO CONTRACT                                                                                                                                             
INTYTV   030301104042104102000020PROGRAM JOCKEY                                    PROGRAM JOCKEY                                                       1 213120                                
PGRYTV   030301104102104921000819X-MEN: EVOLUTION                                  THE X-IMPULSE EPS 2                                                  2 38307ECC                              
COMYTV   030301104107      000030BANDAI/POWER RANGERS                                                                                                                                           
COMYTV   030301104137      000030KRAFT/KOOL AID JAMMERS :30                                                                                                                                     
COMYTV   030301104207      000015TOPP'S/RING POP                                                                                                                                                
COMYTV   030301104222      000030GENERAL MILLS/BARTER                                                                                                                                           
COMYTV   030301104252      000015BVP/JUNGLE BOOK 2-CHASE 3                                                                                                                                      
INTYTV   030301104921104941000020PROGRAM JOCKEY                                    PROGRAM JOCKEY                                                       1 213120                                
PGRYTV   030301104941105815000834X-MEN: EVOLUTION                                  THE X-IMPULSE EPS 2                                                  2 38307ECC                              
COMYTV   030301104945      000030TOPP'S/BABY BOTTLE/PUSH POP                                                                                                                                    
COMYTV   030301105015      000030BVHV/INSPECTOR GADGET 2                                                                                                                                        
PRCYTV   030301105045      000030YTV PROMO CONTRACT                                                                                                                                             
PRCYTV   030301105115      000030YTV PROMO CONTRACT                                                                                                                                             
INTYTV   030301105815105957000142PROGRAM JOCKEY                                    PROGRAM JOCKEY                                                       1 213120                                
ID YTV   030301105942      000012STATION ID                                                                                                                                                     
PGRYTV   030301105957110442000445JUSTICE LEAGUE                                    PT1 - FURY  EPS 14                                                   2 38307ECC                              
INTYTV   030301110442110502000020PROGRAM JOCKEY                                    PROGRAM JOCKEY                                                       1 213120                                
PGRYTV   030301110502111431000929JUSTICE LEAGUE                                    PT1 - FURY  EPS 14                                                   2 38307ECC                              
COMYTV   030301110505      000030GENERAL MILLS/BARTER                                                                                                                                           
COMYTV   030301110535      000030MATTEL/SPRING VARIOUS                                                                                                                                          
PRCYTV   030301110605      000015YTV PROMO CONTRACT                                                                                                                                             
INTYTV   030301111431111451000020PROGRAM JOCKEY                                    PROGRAM JOCKEY                                                       1 213120                                
PGRYTV   030301111451112504001013JUSTICE LEAGUE                                    PT1 - FURY  EPS 14                                                   2 38307ECC                              
COMYTV   030301111453      000030MATTEL/SPRING VARIOUS                                                                                                                                          
COMYTV   030301111523      000030GENERAL MILLS/VARIOUS                                                                                                                                          
COMYTV   030301111553      000030KRAFT/KOOL AID JAMMERS :30                                                                                                                                     
COMYTV   030301111623      000030TOPP'S/BABY BOTTLE/PUSH POP                                                                                                                                    
INTYTV   030301112504112524000020PROGRAM JOCKEY                                    PROGRAM JOCKEY                                                       1 213120                                
PGRYTV   030301112524112800000236JUSTICE LEAGUE                                    PT1 - FURY  EPS 14                                                   2 38307ECC                              
COMYTV   030301112527      000030KELLOGG/HUNNY B'S                                                                                                                                              
COMYTV   030301112557      000030BVHV/INSPECTOR GADGET 2                                                                                                                                        
PRCYTV   030301112627      000030YTV PROMO CONTRACT                                                                                                                                             
PROYTV   030301112657      000030YTV PROMO CONTRACT                                                                                                                                             
INTYTV   030301112800113002000202PROGRAM JOCKEY                                    PROGRAM JOCKEY                                                       1 213120                                
ID YTV   030301112950      000012STATION ID                                                                                                                                                     
PGRYTV   030301113002113119000117SAMURAI JACK                                      JACK VS. THE FIVE  EPS 14                                            2 38307ECC                              
INTYTV   030301113119113139000020PROGRAM JOCKEY                                    PROGRAM JOCKEY                                                       1 213120                                
PGRYTV   030301113139114348001209SAMURAI JACK                                      JACK VS. THE FIVE  EPS 14                                            2 38307ECC                              
COMYTV   030301113144      000030KELLOGG/FROSTED FLAKES                                                                                                                                         
COMYTV   030301113214      000030BANDAI/POWER RANGERS                                                                                                                                           
PRCYTV   030301113244      000030YTV PROMO CONTRACT                                                                                                                                             
PRCYTV   030301113314      000015YTV PROMO CONTRACT                                                                                                                                             
INTYTV   030301114348114408000020PROGRAM JOCKEY                                    PROGRAM JOCKEY                                                       1 213120                                
PGRYTV   030301114408115628001220SAMURAI JACK                                      JACK VS. THE FIVE  EPS 14                                            2 38307ECC                              
COMYTV   030301114412      000015TOPP'S/RING POP                                                                                                                                                
COMYTV   030301114427      000030BVHV/INSPECTOR GADGET 2                                                                                                                                        
COMYTV   030301114457      000015HASBRO/KIDS                                                                                                                                                    
COMYTV   030301114512      000015KRAFT/KIDS P1 :15'S                                                                                                                                            
COMYTV   030301114527      000015HASBRO/KIDS                                                                                                                                                    
COMYTV   030301114542      000030GENERAL MILLS/BARTER                                                                                                                                           
INTYTV   030301115628115648000020PROGRAM JOCKEY                                    PROGRAM JOCKEY                                                       1 213120                                
PGRYTV   030301115648115921000233SAMURAI JACK                                      JACK VS. THE FIVE  EPS 14                                            2 38307ECC                              
COMYTV   030301115652      000015TOPP'S/RING POP                                                                                                                                                
COMYTV   030301115707      000015BVP/BELLE'S MAGICAL WORLD :15S                                                                                                                                 
COMYTV   030301115722      000030YTV CO-MKTG/LUNCH MATE FUN KIT                                                                                                                                 
PROYTV   030301115752      000030YTV PROMO CONTRACT                                                                                                                                             
PROYTV   030301115822      000015YTV PROMO CONTRACT                                                                                                                                             
INTYTV   030301115921120002000041PROGRAM JOCKEY                                    PROGRAM JOCKEY                                                       1 213120                                
ID YTV   030301115947      000012STATION ID                                                                                                                                                     
PGRYTV   030301120002122954002952GALIDOR                                           EURIPIDES, PLEASE EP 2                            CINEGRYTV   A70343 1 35307ECC                              
COMYTV   030301120959      000015HASBRO/KIDS                                                                                                                                                    
COMYTV   030301121014      000030GENERAL MILLS/BARTER                                                                                                                                           
COMYTV   030301121044      000030MATTEL/SPRING VARIOUS                                                                                                                                          
COMYTV   030301121114      000030KRAFT/KOOL AID JAMMERS :30                                                                                                                                     
COMYTV   030301121144      000015HASBRO/KIDS                                                                                                                                                    
COMYTV   030301122306      000030YTV MARKETING/BFPM4                                                                                                                                            
COMYTV   030301122336      000100SYLVAN LEARNING CENTERS                                                                                                                                        
COMYTV   030301122436      000030KELLOGG/HUNNY B'S                                                                                                                                              
COMYTV   030301122633      000030MATTEL/SPRING VARIOUS                                                                                                                                          
COMYTV   030301122703      000030MGM/AGENT CODY BANKS                                                                                                                                           
COMYTV   030301122733      000030GENERAL MILLS/VARIOUS                                                                                                                                          
COMYTV   030301122803      000030NESTLE CANADA INC.                                                                                                                                             
PRCYTV   030301122833      000030YTV PROMO CONTRACT                                                                                                                                             
ID YTV   030301122939      000012STATION ID                                                                                                                                                     
PGRYTV   030301122954125716002722JACQUES COUSTEAU'S OCEAN TALES                    HOUSE UNDER THE SEA EPS 14                        VIVATOYTV   A59280 1 35307ECC                              
COMYTV   030301123730      000030KRAFT/KIDS P1 :30'S                                                                                                                                            
COMYTV   030301123800      000100PRIMUS CANADA                                                                                                                                                  
COMYTV   030301123900      000030GENERAL MILLS/BARTER                                                                                                                                           
COMYTV   030301124623      000030TOPP'S/BABY BOTTLE/PUSH POP                                                                                                                                    
COMYTV   030301124653      000030GENERAL MILLS/VARIOUS                                                                                                                                          
COMYTV   030301124723      000030GENERAL MOTORS OF CANADA LTD.                                                                                                                                  
COMYTV   030301124753      000030KRAFT CANADA INC.                                                                                                                                              
COMYTV   030301125646      000030KELLOGG/FROSTED FLAKES                                                                                                                                         
PSAYTV   030301125716125816000100PSA/WAR AMPS/MAX SAYS PLAYSAFE                                                                                         1 000130                                
PGRYTV   030301125816130024000208JACQUES COUSTEAU'S OCEAN TALES                    HOUSE UNDER THE SEA EPS 14                        VIVATOYTV   A59280 1 35307ECC                              
COMYTV   030301125816      000030MATTEL/SPRING VARIOUS                                                                                                                                          
PRCYTV   030301125846      000030YTV PROMO CONTRACT                                                                                                                                             
PRCYTV   030301125916      000030YTV PROMO CONTRACT                                                                                                                                             
ID YTV   030301130009      000012STATION ID                                                                                                                                                     
PGRYTV   030301130024132623002559VIDEO & ARCADE TOP TEN                            EPS 14                                            SIX   YTV   C20820 1 253100CC                              
COMYTV   030301131031      000030YTV MARKETING/BFPM4                                                                                                                                            
COMYTV   030301131101      000030HASBRO/SKIBO BARTER                                                                                                                                            
COMYTV   030301131131      000030MOVIE CENTRAL                                                                                                                                                  
COMYTV   030301131201      000030HIGHWAY ENTERTAINMENT                                                                                                                                          
COMYTV   030301132119      000030KRAFT/KIDS P1 :30'S                                                                                                                                            
COMYTV   030301132149      000030GENERAL MILLS/VARIOUS                                                                                                                                          
COMYTV   030301132219      000030MATTEL/BONUS CONTRACT                                                                                                                                          
COMYTV   030301132249      000030HIGHWAY ENTERTAINMENT                                                                                                                                          
COMYTV   030301132553      000030YTV CO-MKTG/LUNCH MATE FUN KIT                                                                                                                                 
PSAYTV   030301132623132723000100WAR AMPS/SPOT DANGER/ASTAR                                                                                             1 000130                                
PGRYTV   030301132723133028000305VIDEO & ARCADE TOP TEN                            EPS 14                                            SIX   YTV   C20820 1 353100CC                              
COMYTV   030301132723      000030CAMPBELLS/PF GOLDFISH TEST                                                                                                                                     
ID YTV   030301133009      000012STATION ID                                                                                                                                                     
SPOYTV   030301133021      000005GENERAL MILLS/GUSHERS UH OH                                                                                                                                    
PGRYTV   030301133028140002002934UH OH!                                            EPS 228                                                              1 313110CC                              
COMYTV   030301133335      000030MCDONALDS/HAPPY MEAL                                                                                                                                           
COMYTV   030301133405      000030GENERAL MILLS/BARTER                                                                                                                                           
COMYTV   030301133435      000030HIGHWAY ENTERTAINMENT                                                                                                                                          
COMYTV   030301133505      000015JOHNSON & JOHNSON INC.                                                                                                                                         
COMYTV   030301133520      000015BVP/JUNGLE BOOK 2-CHASE 3                                                                                                                                      
COMYTV   030301134151      000030MATTEL/SPRING VARIOUS                                                                                                                                          
COMYTV   030301134221      000030KRAFT/KIDS P1 :30'S                                                                                                                                            
COMYTV   030301134251      000030SMITHKLINE BEECHAM                                                                                                                                             
COMYTV   030301134321      000030MATTEL/BONUS CONTRACT                                                                                                                                          
COMYTV   030301134944      000015HASBRO/KIDS                                                                                                                                                    
COMYTV   030301134959      000030HIGHWAY ENTERTAINMENT                                                                                                                                          
COMYTV   030301135029      000030MOVIE CENTRAL                                                                                                                                                  
COMYTV   030301135059      000030WRIGLEY CANADA INC.                                                                                                                                            
COMYTV   030301135129      000015HASBRO/KIDS                                                                                                                                                    
ID YTV   030301135948      000012STATION ID                                                                                                                                                     
PGRYTV   030301140002142959002957MEDABOTS                                          BEETLE MANIA  EPS 25                                          D01866 7 38307ECC2                             
COMYTV   030301140602      000030DISCOVERY KIDS/DK WEB                                                                                                                                          
COMYTV   030301140632      000100PRIMUS CANADA                                                                                                                                                  
COMYTV   030301140732      000030GENERAL MILLS/BARTER                                                                                                                                           
PRCYTV   030301140802      000030YTV PROMO CONTRACT                                                                                                                                             
COMYTV   030301141321      000030KELLOGG/HUNNY B'S                                                                                                                                              
COMYTV   030301141351      000030MATTEL/BONUS CONTRACT                                                                                                                                          
COMYTV   030301141421      000030J.M. SCHNEIDER                                                                                                                                                 
COMYTV   030301141451      000030HIGHWAY ENTERTAINMENT                                                                                                                                          
PRCYTV   030301141530      000030YTV PROMO CONTRACT                                                                                                                                             
COMYTV   030301142112      000015HASBRO/KIDS                                                                                                                                                    
COMYTV   030301142127      000030YTV CO-MKTG/LUNCH MATE FUN KIT                                                                                                                                 
COMYTV   030301142157      000030KRAFT/KIDS P1 :30'S                                                                                                                                            
COMYTV   030301142227      000015HASBRO/KIDS                                                                                                                                                    
COMYTV   030301142242      000030SMITHKLINE BEECHAM                                                                                                                                             
PRCYTV   030301142312      000030YTV PROMO CONTRACT                                                                                                                                             
PRCYTV   030301142342      000030YTV PROMO CONTRACT                                                                                                                                             
ID YTV   030301142947      000012STATION ID                                                                                                                                                     
PGRYTV   030301142959143139000140DIGIMON                                           CAN'T KEEP A GRUMBLEMON DOWN                                         7 38307ECC                              
PSAYTV   030301143139143209000030CONCERNED CHILDREN/WALK AWAY                                                                                           1 000130                                
PGRYTV   030301143209150001002752DIGIMON                                           CAN'T KEEP A GRUMBLEMON DOWN                                         7 38307ECC                              
COMYTV   030301143209      000030HASBRO/SKIBO BARTER                                                                                                                                            
COMYTV   030301143239      000030KRAFT CANADA INC.                                                                                                                                              
COMYTV   030301143309      000030WRIGLEY CANADA INC.                                                                                                                                            
PRCYTV   030301143339      000030YTV PROMO CONTRACT                                                                                                                                             
COMYTV   030301144257      000030MGM/AGENT CODY BANKS                                                                                                                                           
COMYTV   030301144327      000030GENERAL MILLS/VARIOUS                                                                                                                                          
COMYTV   030301144357      000030KIMBERLY-CLARK OF CANADA LTD.                                                                                                                                  
COMYTV   030301144427      000030GENERAL MOTORS OF CANADA LTD.                                                                                                                                  
PRCYTV   030301144457      000030YTV PROMO CONTRACT                                                                                                                                             
COMYTV   030301145700      000030SCHNEIDER/FUN KITS                                                                                                                                             
COMYTV   030301145730      000100SYLVAN LEARNING CENTERS                                                                                                                                        
COMYTV   030301145830      000030GENERAL MILLS/BARTER                                                                                                                                           
PRCYTV   030301145900      000015YTV PROMO CONTRACT                                                                                                                                             
ID YTV   030301145949      000012STATION ID                                                                                                                                                     
PGRYTV   030301150001151454001453POWER STONE                                       GIRL TROUBLE EP5                                              D01748 7 38307ECC2                             
COMYTV   030301150213      000030MATTEL/BONUS CONTRACT                                                                                                                                          
COMYTV   030301150243      000030CAMPBELLS/PF GOLDFISH TEST                                                                                                                                     
COMYTV   030301150313      000030HASBRO/SKIBO BARTER                                                                                                                                            
COMYTV   030301150343      000030HIGHWAY ENTERTAINMENT                                                                                                                                          
COMYTV   030301151424      000015TOPP'S/RING POP                                                                                                                                                
COMYTV   030301151439      000015BVHV/INSPECTOR GADGET 2                                                                                                                                        
PSAYTV   030301151454151554000100WAR AMPS/SPOT DANGER/ASTAR                                                                                             1 000130                                
PGRYTV   030301151554153001001407POWER STONE                                       GIRL TROUBLE EP5                                              D01748 7 38307ECC2                             
COMYTV   030301151554      000030J.M. SCHNEIDER                                                                                                                                                 
PRCYTV   030301151624      000030YTV PROMO CONTRACT                                                                                                                                             
COMYTV   030301152642      000030GENERAL MILLS/VARIOUS                                                                                                                                          
COMYTV   030301152712      000030MOVIE CENTRAL                                                                                                                                                  
COMYTV   030301152742      000030MAZDA                                                                                                                                                          
COMYTV   030301152812      000030HIGHWAY ENTERTAINMENT                                                                                                                                          
PRCYTV   030301152842      000030YTV PROMO CONTRACT                                                                                                                                             
ID YTV   030301152949      000012STATION ID                                                                                                                                                     
PGRYTV   030301153001160000002959BEYBLADE                                          MY WAY OR THE HIGHWAY  EPS 25                                 D02016 7 38307ECC2                             
COMYTV   030301153539      000030KRAFT/KIDS P1 :30'S                                                                                                                                            
COMYTV   030301153609      000100PRIMUS CANADA                                                                                                                                                  
COMYTV   030301153709      000030MATTEL/BONUS CONTRACT                                                                                                                                          
PRCYTV   030301153739      000030YTV PROMO CONTRACT                                                                                                                                             
COMYTV   030301154338      000030HASBRO/SKIBO BARTER                                                                                                                                            
COMYTV   030301154408      000015TOPP'S/RING POP                                                                                                                                                
COMYTV   030301154423      000030BVHV/INSPECTOR GADGET 2                                                                                                                                        
COMYTV   030301154453      000015HASBRO/KIDS                                                                                                                                                    
COMYTV   030301154508      000030YTV MARKETING                                                                                                                                                  
PRCYTV   030301154538      000030YTV PROMO CONTRACT                                                                                                                                             
COMYTV   030301155151      000015HASBRO/KIDS                                                                                                                                                    
COMYTV   030301155206      000030KRAFT CANADA INC.                                                                                                                                              
COMYTV   030301155236      000100SYLVAN LEARNING CENTERS                                                                                                                                        
COMYTV   030301155336      000015SCOTT PAPER                                                                                                                                                    
PRCYTV   030301155351      000030YTV PROMO CONTRACT                                                                                                                                             
PRCYTV   030301155421      000030YTV PROMO CONTRACT                                                                                                                                             
ID YTV   030301155949      000012STATION ID                                                                                                                                                     
PGRYTV   030301160000162644002644THE DARK CRYSTAL                                  THE DARK CRYSTAL                                                     2 38307DCC                              
SPOYTV   030301160947      000010DISCOVERY KIDS/DK WEB                                                                                                                                          
COMYTV   030301160957      000030MATTEL/SPRING VARIOUS                                                                                                                                          
COMYTV   030301161027      000030HWY/PLAYTOY BARTER                                                                                                                                             
COMYTV   030301161057      000030WALMART/BABY DEPARTMENT                                                                                                                                        
COMYTV   030301161127      000030SHAW                                                                                                                                                           
COMYTV   030301161157      000030HWY/ADULT BARTER#1                                                                                                                                             
COMYTV   030301161227      000030MATTEL/SPRING VARIOUS                                                                                                                                          
COMYTV   030301162514      000030YTV CO-MKTG/LUNCH MATE FUN KIT                                                                                                                                 
COMYTV   030301162544      000030GEN MOTORS/VARIOUS                                                                                                                                             
COMYTV   030301162614      000030KELLOGG/HUNNY B'S                                                                                                                                              
PSAYTV   030301162644162714000030PSA/CONCERN CHILDREN/ICE CREAM                                                                                         1 000130                                
PGRYTV   030301162714180007013253THE DARK CRYSTAL                                  THE DARK CRYSTAL                                                     2 38307DCC                              
COMYTV   030301162714      000030HERSHEY/OH HENRY!                                                                                                                                              
COMYTV   030301162744      000030CAMPBELLS/PF GOLDFISH TEST                                                                                                                                     
PRCYTV   030301162814      000030YTV PROMO CONTRACT                                                                                                                                             
COMYTV   030301163818      000030HWY/CPA-ADULT PACKAGE#1                                                                                                                                        
COMYTV   030301163848      000030WALMART/BABY DEPARTMENT                                                                                                                                        
COMYTV   030301163918      000030HWY/ADULT BARTER#3                                                                                                                                             
COMYTV   030301163948      000030HERSHEY/MOULDED BARS                                                                                                                                           
COMYTV   030301164018      000030HEALTH CANADA/ANTI-SMOKING                                                                                                                                     
COMYTV   030301164048      000030KRAFT/KIDS P1 :30'S                                                                                                                                            
COMYTV   030301165215      000100P&G/CORP BASE BUY/PRE-EMPTIBLE                                                                                                                                 
COMYTV   030301165315      000030KRAFT/W:30'S                                                                                                                                                   
COMYTV   030301165345      000030COLGATE/TOOTHBRUSH,TOOTHPASTE                                                                                                                                  
COMYTV   030301165415      000030HWY/CPA-ADULT PACKAGE#2                                                                                                                                        
COMYTV   030301165445      000030GENERAL MILLS/VARIOUS                                                                                                                                          
PRCYTV   030301165515      000030YTV PROMO CONTRACT                                                                                                                                             
COMYTV   030301170829      000015HASBRO/KIDS                                                                                                                                                    
COMYTV   030301170844      000030HWY/ADULT BARTER#3                                                                                                                                             
COMYTV   030301170914      000030KRAFT/KIDS P1 :30'S                                                                                                                                            
COMYTV   030301170944      000030MATTEL/BONUS CONTRACT                                                                                                                                          
COMYTV   030301171014      000030GENERAL MILLS/VARIOUS                                                                                                                                          
COMYTV   030301171044      000030HWY/ADULT BARTER#1                                                                                                                                             
COMYTV   030301171114      000015HASBRO/KIDS                                                                                                                                                    
PRCYTV   030301171129      000030YTV PROMO CONTRACT                                                                                                                                             
COMYTV   030301172458      000100P&G/CORP BASE BUY/PRE-EMPTIBLE                                                                                                                                 
COMYTV   030301172558      000030COLGATE/TOOTHBRUSH,TOOTHPASTE                                                                                                                                  
COMYTV   030301172628      000030HWY/ADULT BARTER#4                                                                                                                                             
COMYTV   030301172658      000030GENERAL MILLS/VARIOUS                                                                                                                                          
COMYTV   030301172728      000030HWY/ADULT BARTER#2                                                                                                                                             
COMYTV   030301173405      000100P&G/CORPORATE BASE BUY                                                                                                                                         
COMYTV   030301173505      000015HASBRO/KIDS                                                                                                                                                    
COMYTV   030301173520      000030CAMPBELLS/PF GOLDFISH TEST                                                                                                                                     
COMYTV   030301173550      000030HEALTH CANADA/ANTI-SMOKING                                                                                                                                     
COMYTV   030301173620      000030KRAFT/KIDS P1 :30'S                                                                                                                                            
COMYTV   030301173650      000015J&J/ACNE WASH                                                                                                                                                  
PRCYTV   030301173705      000030YTV PROMO CONTRACT                                                                                                                                             
COMYTV   030301174249      000030YTV CO-MKTG/LUNCH MATE FUN KIT                                                                                                                                 
COMYTV   030301174319      000030COLGATE/TOOTHBRUSH,TOOTHPASTE                                                                                                                                  
COMYTV   030301174349      000030DISCOVERY KIDS/DK WEB                                                                                                                                          
COMYTV   030301174419      000030HERSHEY/MOULDED BARS                                                                                                                                           
COMYTV   030301174449      000030CAMPBELLS/PF GOLDFISH TEST                                                                                                                                     
COMYTV   030301174519      000030KRAFT/KIDS P1 :30'S                                                                                                                                            
ID YTV   030301175952      000012STATION ID                                                                                                                                                     
PGRYTV   030301180007182701002654MOVILLE MYSTERIES                                 BIG TOE, BIG EVIL       EPS 16                    NELVANYTV          1 32307ECC                              
SPOYTV   030301180741      000010EFFEM/M&M 10 SEC CC BB                                                                                                                                         
COMYTV   030301180751      000030GENERAL MILLS/VARIOUS                                                                                                                                          
COMYTV   030301180821      000100WALT DISNEY/DR-MAGICAL PACKAGE                                                                                                                                 
COMYTV   030301180921      000030HASBRO/SKIBO BARTER                                                                                                                                            
COMYTV   030301181810      000030CHURCH & DWIGHT/GRAVOL                                                                                                                                         
COMYTV   030301181840      000030YTV MARKETING/BFPM4                                                                                                                                            
COMYTV   030301181910      000015L'OREAL CANADA                                                                                                                                                 
COMYTV   030301181925      000030SMITHKLINE BEECHAM                                                                                                                                             
COMYTV   030301182531      000030BVHV/INSPECTOR GADGET 2                                                                                                                                        
COMYTV   030301182601      000030GENERAL MILLS/BARTER                                                                                                                                           
COMYTV   030301182631      000030MAZDA                                                                                                                                                          
PSAYTV   030301182701182731000030PSA/WAR CHILD-IF IT HAPPEN+WEB                                                                                         1 000130                                
PGRYTV   030301182731183002000231MOVILLE MYSTERIES                                 BIG TOE, BIG EVIL       EPS 16                    NELVANYTV          1 32307ECC                              
PRCYTV   030301182731      000030YTV PROMO CONTRACT                                                                                                                                             
ID YTV   030301182947      000012STATION ID                                                                                                                                                     
PGRYTV   030301183002185142002140FREAKY STORIES                                    THE MAN/THE BIG/SMELLY EP25                       BIGTIMYTV   A23772 1 35307ECC                              
SPOYTV   030301183553      000010COLGATE/TOOTHBRUSH,TOOTHPASTE                                                                                                                                  
COMYTV   030301183603      000030COLGATE/TOOTHBRUSH,TOOTHPASTE                                                                                                                                  
COMYTV   030301183633      000030GENERAL MILLS/BARTER                                                                                                                                           
COMYTV   030301183703      000030MAZDA                                                                                                                                                          
COMYTV   030301183733      000030NESTLE CANADA INC.                                                                                                                                             
COMYTV   030301184329      000030GEN MOTORS/VARIOUS                                                                                                                                             
COMYTV   030301184359      000030HWY/PLAYTOY BARTER                                                                                                                                             
COMYTV   030301184429      000030CHURCH & DWIGHT/GRAVOL                                                                                                                                         
COMYTV   030301184459      000030HIGHWAY ENTERTAINMENT                                                                                                                                          
COMYTV   030301185042      000030BVP/BELLE'S MAGICAL WORLD                                                                                                                                      
COMYTV   030301185112      000030GENERAL MILLS/VARIOUS                                                                                                                                          
PSAYTV   030301185142185212000030SHEENA/STOP EAT DIS/HANSEL+GRE                                                                                         1 000130                                
COMYTV   030301185212      000030YTV CO-MARKETING                                                                                                                                               
PGRYTV   030301185212190010000758FREAKY STORIES                                    THE MAN/THE BIG/SMELLY EP25                       BIGTIMYTV   A23772 1 35307ECC                              
ID YTV   030301185955      000012STATION ID                                                                                                                                                     
PGRYTV   030301190010191212001202VOYAGE OF THE UNICORN                             PT2 - VOYAGE OF THE UNICORN                                   C17805 1 15307ACC                              
SPOYTV   030301190932      000010EFFEM/M&M 10 SEC CC BB                                                                                                                                         
COMYTV   030301190942      000030YTV MARKETING/BFPM4                                                                                                                                            
COMYTV   030301191012      000100SYLVAN LEARNING CENTERS                                                                                                                                        
COMYTV   030301191112      000030MOVIE CENTRAL                                                                                                                                                  
COMYTV   030301191142      000030GENERAL MOTORS OF CANADA LTD.                                                                                                                                  
PSAYTV   030301191212191242000030PSA/WAR CHILD/MIGHT NOT HAP+PH                                                                                         1 000130                                
PGRYTV   030301191242201640010358VOYAGE OF THE UNICORN                             PT2 - VOYAGE OF THE UNICORN                                   C17805 1 15307ACC                              
PRCYTV   030301191242      000030YTV PROMO CONTRACT                                                                                                                                             
PRCYTV   030301191312      000030YTV PROMO CONTRACT                                                                                                                                             
COMYTV   030301192217      000100PRIMUS CANADA                                                                                                                                                  
COMYTV   030301192317      000030GENERAL MILLS/BARTER                                                                                                                                           
COMYTV   030301192347      000100WALT DISNEY/DR-MAGICAL PACKAGE                                                                                                                                 
COMYTV   030301192447      000030KRAFT/W:30'S                                                                                                                                                   
COMYTV   030301194437      000030SCHNEIDER/FUN KITS                                                                                                                                             
COMYTV   030301194507      000015J&J/ACNE WASH                                                                                                                                                  
COMYTV   030301194522      000030KRAFT/KIDS P1 :30'S                                                                                                                                            
COMYTV   030301194552      000030MATTEL/BONUS CONTRACT                                                                                                                                          
COMYTV   030301194622      000015K CLARK/KOTEX                                                                                                                                                  
COMYTV   030301194637      000030HIGHWAY ENTERTAINMENT                                                                                                                                          
COMYTV   030301194707      000030KRAFT CANADA INC.                                                                                                                                              
COMYTV   030301195820      000015KRAFT/KIDS P1 :15'S                                                                                                                                            
COMYTV   030301195835      000030K CLARK/PULL UPS                                                                                                                                               
COMYTV   030301195905      000015L'OREAL CANADA/LASH EXTENSION                                                                                                                                  
COMYTV   030301195920      000015HASBRO/KIDS                                                                                                                                                    
COMYTV   030301195935      000015JOHNSON & JOHNSON INC.                                                                                                                                         
COMYTV   030301195950      000030WRIGLEY CANADA INC.                                                                                                                                            
COMYTV   030301200020      000030HIGHWAY ENTERTAINMENT                                                                                                                                          
COMYTV   030301200050      000030NESTLE CANADA INC.                                                                                                                                             
PRCYTV   030301200120      000030YTV PROMO CONTRACT                                                                                                                                             
PRCYTV   030301200150      000030YTV PROMO CONTRACT                                                                                                                                             
COMYTV   030301201540      000030HWY/ADULT BARTER#4                                                                                                                                             
COMYTV   030301201610      000030GENERAL MILLS/BARTER                                                                                                                                           
PSAYTV   030301201640201740000100WAR AMPS/SPOT DANGER/ASTAR                                                                                             1 000130                                
PGRYTV   030301201740204427002647VOYAGE OF THE UNICORN                             PT2 - VOYAGE OF THE UNICORN                                   C17805 1 15307ACC                              
COMYTV   030301201740      000030MOVIE CENTRAL                                                                                                                                                  
COMYTV   030301201810      000030HIGHWAY ENTERTAINMENT                                                                                                                                          
COMYTV   030301202610      000030HWY/CPA-ADULT PACKAGE#2                                                                                                                                        
COMYTV   030301202640      000100PRIMUS CANADA                                                                                                                                                  
COMYTV   030301202740      000030HIGHWAY ENTERTAINMENT                                                                                                                                          
COMYTV   030301202810      000030YTV CO-MARKETING                                                                                                                                               
COMYTV   030301202840      000030SMITHKLINE BEECHAM                                                                                                                                             
COMYTV   030301204157      000100WALT DISNEY/DR-MAGICAL PACKAGE                                                                                                                                 
COMYTV   030301204257      000030BVHV/INSPECTOR GADGET 2                                                                                                                                        
COMYTV   030301204327      000100SYLVAN LEARNING CENTERS                                                                                                                                        
PSAYTV   030301204427204457000030PSA/WAR CHILD/IF IT HAPPEN+PHO                                                                                         1 000130                                
PGRYTV   030301204457210006001509VOYAGE OF THE UNICORN                             PT2 - VOYAGE OF THE UNICORN                                   C17805 1 15307ACC                              
PRCYTV   030301204457      000015YTV PROMO CONTRACT                                                                                                                                             
COMYTV   030301205020      000030HWY/ADULT BARTER#2                                                                                                                                             
COMYTV   030301205050      000030MATTEL/BONUS CONTRACT                                                                                                                                          
COMYTV   030301205120      000100PRIMUS CANADA                                                                                                                                                  
COMYTV   030301205220      000030J.M. SCHNEIDER                                                                                                                                                 
COMYTV   030301205250      000030HIGHWAY ENTERTAINMENT                                                                                                                                          
ID YTV   030301205949      000012STATION ID                                                                                                                                                     
PGRYTV   030301210006220006010000BUFFY THE VAMPIRE SLAYER                          STORYTELLER EPS 138                                                  2 28307ACC                              
SPOYTV   030301210412      000010EFFEM/M&M 10 SEC CC BB                                                                                                                                         
COMYTV   030301210422      000015SCOTT PAPER/TOWELS&SCOTTIES                                                                                                                                    
COMYTV   030301210437      000030SMITHKLINE BEECHAM/AQUAFRESH                                                                                                                                   
COMYTV   030301210507      000030KELL/CORN POPS/POP TARTS                                                                                                                                       
COMYTV   030301210537      000030K CLARK/HUGGIES SUPREME                                                                                                                                        
COMYTV   030301210607      000015L'OREAL CANADA                                                                                                                                                 
PRCYTV   030301210622      000030YTV PROMO CONTRACT                                                                                                                                             
PRCYTV   030301210652      000030YTV PROMO CONTRACT                                                                                                                                             
COMYTV   030301211907      000030K CLARK/PULL UPS                                                                                                                                               
COMYTV   030301211937      000030KRAFT/KRAFT DINNER TEEN :30                                                                                                                                    
COMYTV   030301212007      000030CHURCH & DWIGHT/GRAVOL                                                                                                                                         
