PGRYTV   030601060000062502002502MONA THE VAMPIRE                                  GARAGE SALE GENIE/GHOULS EP17                     FANCYCYTV   A18427 1 35107ECC                              
PRCYTV   030601060106      000015YTV PROMO CONTRACT                                                                                                                                             
PRCYTV   030601061227      000015YTV PROMO CONTRACT                                                                                                                                             
PRCYTV   030601062349      000030YTV PROMO CONTRACT                                                                                                                                             
PRCYTV   030601062419      000015YTV PROMO CONTRACT                                                                                                                                             
INTYTV   030601062502062847000345CHIP 'N' ORBIT                                    EPISODE 21                                                           1 311120CC                              
INTYTV   030601062847063001000114STICKIN' AROUND                                   HIT THE SHOWERS                                                      1 321120CC                              
ID YTV   030601062949      000012STATION ID                                                                                                                                                     
PGRYTV   0306010630010658240028237 LITTLE MONSTERS                                 LOSING SAM   EP 14                                NELVAN             1 32107ECC                              
PRCYTV   030601063625      000030YTV PROMO CONTRACT                                                                                                                                             
PRCYTV   030601064137      000030YTV PROMO CONTRACT                                                                                                                                             
PRCYTV   030601064846      000030YTV PROMO CONTRACT                                                                                                                                             
PRCYTV   030601064916      000030YTV PROMO CONTRACT                                                                                                                                             
INTYTV   030601065824070000000136NELVANA INTERSTITIALS                             MONSTER TRASH                                                        1 321120                                
ID YTV   030601065948      000012STATION ID                                                                                                                                                     
PGRYTV   030601070000073000003000MONSTER BY MISTAKE                                TRACY'S JACKET EP15                               MONSTEYTV   A30281 1 35307ECC                              
COMYTV   030601070900      000030MCDONALDS/HAPPY MEAL (SUMMER)                                                                                                                                  
COMYTV   030601070930      000030MATTEL/SUMMER BONUS CONTRACT                                                                                                                                   
PRCYTV   030601071000      000030YTV PROMO CONTRACT                                                                                                                                             
PROYTV   030601071030      000015YTV PROMO CONTRACT                                                                                                                                             
COMYTV   030601071733      000030PARAMOUNT/RUGRATS GO WILD                                                                                                                                      
COMYTV   030601071803      000030YTV CO-MKTG/EFFEM/SKITTLES/STA                                                                                                                                 
COMYTV   030601071833      000030GENERAL MILLS/VARIOUS CORP                                                                                                                                     
COMYTV   030601071903      000030UNILEVER/POPSICLE                                                                                                                                              
COMYTV   030601072656      000030KELLOGG/FROSTED FLAKES                                                                                                                                         
COMYTV   030601072726      000030MINUTE MAID/BIBO                                                                                                                                               
PRCYTV   030601072756      000030YTV PROMO CONTRACT                                                                                                                                             
PRCYTV   030601072826      000030YTV PROMO CONTRACT                                                                                                                                             
PGRYTV   030601073000075848002848HAMTARO                                           FLYING HAM-HAMS  EP 39                                        D02043 7 38307ECC2                             
SPOYTV   030601073114      000010YTV EVENT/NINTENDO W.O.W.                                                                                                                                      
COMYTV   030601073124      000030KELLOGG/FROSTED FLAKES                                                                                                                                         
COMYTV   030601073154      000030MATTEL/SUMMER :30'S                                                                                                                                            
PROYTV   030601073224      000030YTV PROMO CONTRACT                                                                                                                                             
PROYTV   030601073254      000030YTV PROMO CONTRACT                                                                                                                                             
PRCYTV   030601073324      000030YTV PROMO CONTRACT                                                                                                                                             
COMYTV   030601074024      000030GENERAL MILLS/VARIOUS CORP                                                                                                                                     
COMYTV   030601074054      000030HASBRO/PREFALL 2003 PART 2 OF2                                                                                                                                 
COMYTV   030601074124      000030KRAFT/KIDS AOR SPRING 30                                                                                                                                       
COMYTV   030601074154      000030MCDONALDS/HAPPY MEAL (SUMMER)                                                                                                                                  
PRCYTV   030601074224      000030YTV PROMO CONTRACT                                                                                                                                             
PRCYTV   030601074254      000015YTV PROMO CONTRACT                                                                                                                                             
PRCYTV   030601074309      000030YTV PROMO CONTRACT                                                                                                                                             
COMYTV   030601074942      000030GENERAL MILLS/CORP VAR. BARTER                                                                                                                                 
COMYTV   030601075012      000030YTV CO-MKTG/EFFEM/SKITTLES/STA                                                                                                                                 
PRCYTV   030601075042      000030YTV PROMO CONTRACT                                                                                                                                             
PRCYTV   030601075112      000030YTV PROMO CONTRACT                                                                                                                                             
PRCYTV   030601075142      000030YTV PROMO CONTRACT                                                                                                                                             
INTYTV   030601075848080000000112STICKIN' AROUND                                   MY DOG ATE MY PROJECT                                                1 323120CC                              
PGRYTV   030601080000082830002830STUART LITTLE                                     EPS 9 A LITTLE BIT OF COUNTRY                                        2 28307E                                
COMYTV   030601080114      000030MINUTE MAID/BIBO-WOW SPONSORSH                                                                                                                                 
COMYTV   030601080144      000030MCDONALDS/HAPPY MEAL (SUMMER)                                                                                                                                  
PROYTV   030601080214      000030YTV PROMO CONTRACT                                                                                                                                             
PROYTV   030601080244      000015YTV PROMO CONTRACT                                                                                                                                             
COMYTV   030601081428      000030KELLOGG/FROOT LOOPS                                                                                                                                            
COMYTV   030601081458      000030KRAFT/KIDS AOR SPRING 30                                                                                                                                       
COMYTV   030601081528      000030WENDY'S/KIDS CORPORATE                                                                                                                                         
COMYTV   030601081558      000030GENERAL MILLS/VARIOUS CORP                                                                                                                                     
COMYTV   030601082526      000030GENERAL MILLS/VARIOUS CORP                                                                                                                                     
COMYTV   030601082556      000030HASBRO/PREFALL 2003 PART 2 OF2                                                                                                                                 
PRCYTV   030601082626      000030YTV PROMO CONTRACT                                                                                                                                             
PRCYTV   030601082656      000030YTV PROMO CONTRACT                                                                                                                                             
INTYTV   030601082830083000000130NELVANA INTERSTITIALS                             WIZ DUMB                                                             1 323120                                
ID YTV   030601082948      000012STATION ID                                                                                                                                                     
PGRYTV   030601083000084208001208DETENTION                                         RULE THE SCHOOL EP13                                                 2 38307ECC                              
COMYTV   030601083110      000030WENDY'S/KIDS CORPORATE                                                                                                                                         
COMYTV   030601083140      000030DISCOVERY KIDS/DK WEB                                                                                                                                          
PRCYTV   030601083210      000030YTV PROMO CONTRACT                                                                                                                                             
COMYTV   030601084038      000030UNILEVER/POPSICLE                                                                                                                                              
COMYTV   030601084108      000030MCDONALDS/HAPPY MEAL (SUMMER)                                                                                                                                  
COMYTV   030601084138      000030MATTEL/SUMMER BONUS CONTRACT                                                                                                                                   
PSAYTV   030601084208084238000030PSA/CONCERN CHILDREN/ICE CREAM                                                                                         1 000130                                
PGRYTV   030601084238085750001512DETENTION                                         RULE THE SCHOOL EP13                                                 2 38307ECC                              
COMYTV   030601085030      000030SPIN MASTER TOYS/AIR HOGS                                                                                                                                      
COMYTV   030601085100      000030KELLOGG/FROSTED FLAKES                                                                                                                                         
PRCYTV   030601085130      000030YTV PROMO CONTRACT                                                                                                                                             
PRCYTV   030601085200      000030YTV PROMO CONTRACT                                                                                                                                             
PRCYTV   030601085230      000030YTV PROMO CONTRACT                                                                                                                                             
PGRYTV   030601085750090000000210EVERYDAY HEROES                                   TREE  EP 6                                                           1 313120                                
ID YTV   030601085948      000012STATION ID                                                                                                                                                     
PGRYTV   030601090000093005003005HEY ARNOLD                                        BEANED/OLD IRON MAN EP87                                             2 38307ECC                              
SPOYTV   030601090053      000010YTV EVENT/NINTENDO W.O.W.                                                                                                                                      
COMYTV   030601090103      000030PARAMOUNT/RUGRATS GO WILD                                                                                                                                      
COMYTV   030601090133      000030KRAFT/KIDS AOR SPRING 30                                                                                                                                       
PROYTV   030601090203      000030YTV PROMO CONTRACT                                                                                                                                             
PROYTV   030601090233      000015YTV PROMO CONTRACT                                                                                                                                             
COMYTV   030601091355      000030UNILEVER/POPSICLE                                                                                                                                              
COMYTV   030601091425      000030MCDONALDS/HAPPY MEAL (SUMMER)                                                                                                                                  
COMYTV   030601091455      000030GENERAL MILLS/VARIOUS CORP                                                                                                                                     
COMYTV   030601091525      000030MATTEL/SUMMER BONUS CONTRACT                                                                                                                                   
COMYTV   030601092145      000015L'OREAL CANADA/KIDS SHAMPOO                                                                                                                                    
COMYTV   030601092200      000030GENERAL MILLS/VARIOUS CORP                                                                                                                                     
COMYTV   030601092230      000015WONDER BREAD                                                                                                                                                   
PRCYTV   030601092245      000030YTV PROMO CONTRACT                                                                                                                                             
PRCYTV   030601092315      000030YTV PROMO CONTRACT                                                                                                                                             
ID YTV   030601092948      000012STATION ID                                                                                                                                                     
SPOYTV   030601093000      000005L'OREAL CANADA/KIDS SHAMPOO                                                                                                                                    
PGRYTV   030601093005100000002955JIMMY NEUTRON                                     BATTLE OF BANDS/JIMMY ON ICE                                         2 38307ECC                              
SPOYTV   030601093046      000010YTV EVENT/NINTENDO W.O.W.                                                                                                                                      
COMYTV   030601093056      000030KELLOGG/FROOT LOOPS                                                                                                                                            
COMYTV   030601093126      000030PARAMOUNT/RUGRATS GO WILD ADDT                                                                                                                                 
PROYTV   030601093156      000030YTV PROMO CONTRACT                                                                                                                                             
PROYTV   030601093226      000015YTV PROMO CONTRACT                                                                                                                                             
COMYTV   030601094348      000015L'OREAL CANADA/KIDS SHAMPOO                                                                                                                                    
COMYTV   030601094403      000030MATTEL/SUMMER :30'S                                                                                                                                            
COMYTV   030601094433      000030WENDY'S/KIDS CORPORATE                                                                                                                                         
COMYTV   030601094503      000015TOPP'S/PUSH POP                                                                                                                                                
COMYTV   030601094518      000030THQ INC./FINDING NEMO                                                                                                                                          
COMYTV   030601095658      000030GENERAL MILLS/VARIOUS CORP                                                                                                                                     
COMYTV   030601095728      000030MCDONALDS/HAPPY MEAL (SUMMER)                                                                                                                                  
PRCYTV   030601095758      000030YTV PROMO CONTRACT                                                                                                                                             
PRCYTV   030601095828      000030YTV PROMO CONTRACT                                                                                                                                             
SPOYTV   030601095943      000005L'OREAL CANADA/KIDS SHAMPOO                                                                                                                                    
ID YTV   030601095948      000012STATION ID                                                                                                                                                     
PGRYTV   030601100000102958002958SPONGEBOB SQUAREPANTS                             GRAVEYARD/KRUSTY LOVE  EPS 36                                        2 38307ECC                              
COMYTV   030601100049      000030KELLOGG/FROOT LOOPS                                                                                                                                            
COMYTV   030601100119      000015L'OREAL CANADA/KIDS SHAMPOO                                                                                                                                    
COMYTV   030601100134      000015WONDER BREAD                                                                                                                                                   
PRCYTV   030601100149      000015YTV PROMO CONTRACT                                                                                                                                             
COMYTV   030601101325      000030PARAMOUNT/RUGRATS GO WILD                                                                                                                                      
COMYTV   030601101355      000030UNILEVER/POPSICLE                                                                                                                                              
COMYTV   030601101425      000030THQ INC./FINDING NEMO                                                                                                                                          
COMYTV   030601101455      000030MATTEL/SUMMER BONUS CONTRACT                                                                                                                                   
COMYTV   030601102701      000030MINUTE MAID/BIBO                                                                                                                                               
COMYTV   030601102731      000030MCDONALDS/HAPPY MEAL (SUMMER)                                                                                                                                  
PRCYTV   030601102801      000030YTV PROMO CONTRACT                                                                                                                                             
PRCYTV   030601102831      000030YTV PROMO CONTRACT                                                                                                                                             
ID YTV   030601102946      000012STATION ID                                                                                                                                                     
PGRYTV   030601102958110005003007FAIRLY ODD PARENTS                                SPACED OUT/SWITCH GLITCH EP 14                                       2 38307ECC                              
SPOYTV   030601103049      000010HASBRO/PRO JAX/SPONSORSHIP PLU                                                                                                                                 
COMYTV   030601103059      000030UNILEVER/POPSICLE                                                                                                                                              
COMYTV   030601103129      000030GENERAL MILLS/CORP VAR. BARTER                                                                                                                                 
PRCYTV   030601103159      000015YTV PROMO CONTRACT                                                                                                                                             
COMYTV   030601104405      000030MINUTE MAID/BIBO                                                                                                                                               
COMYTV   030601104435      000030HASBRO/PREFALL 2003 PART 2 OF2                                                                                                                                 
COMYTV   030601104505      000030KELLOGG/FROOT LOOPS                                                                                                                                            
COMYTV   030601104535      000030DISCOVERY KIDS/DK WEB                                                                                                                                          
COMYTV   030601105700      000030MATTEL/SUMMER :30'S                                                                                                                                            
COMYTV   030601105730      000030MCDONALDS/HAPPY MEAL (SUMMER)                                                                                                                                  
PRCYTV   030601105800      000030YTV PROMO CONTRACT                                                                                                                                             
PRCYTV   030601105830      000030YTV PROMO CONTRACT                                                                                                                                             
ID YTV   030601105948      000012STATION ID                                                                                                                                                     
SPOYTV   030601110000      000005L'OREAL CANADA/KIDS SHAMPOO                                                                                                                                    
PGRYTV   030601110005112728002723DEXTER'S LABORATORY                               COMIC/DAD/ROBO DEXO  EPS 62                                          2 38307ECC                              
COMYTV   030601110041      000030KRAFT/KIDS AOR SPRING 30                                                                                                                                       
COMYTV   030601110111      000030MATTEL/SUMMER :30'S                                                                                                                                            
COMYTV   030601111022      000030BVHV/JUNGLE BOOK 2                                                                                                                                             
COMYTV   030601111052      000015L'OREAL CANADA/KIDS SHAMPOO                                                                                                                                    
COMYTV   030601111107      000015TOPP'S/PUSH POP                                                                                                                                                
COMYTV   030601111122      000030GENERAL MILLS/VARIOUS CORP                                                                                                                                     
COMYTV   030601111152      000030SPIN MASTER TOYS INC.                                                                                                                                          
COMYTV   030601112445      000030UNILEVER/POPSICLE                                                                                                                                              
COMYTV   030601112515      000030MCDONALDS/HAPPY MEAL (SUMMER)                                                                                                                                  
PRCYTV   030601112545      000030YTV PROMO CONTRACT                                                                                                                                             
PRCYTV   030601112615      000030YTV PROMO CONTRACT                                                                                                                                             
SPOYTV   030601112723      000005L'OREAL CANADA/KIDS SHAMPOO                                                                                                                                    
INTYTV   030601112728112848000120JIMMY NEUTRON                                     EPS 1                                                                2 383120                                
INTYTV   030601112848113000000112HOOTA & SNOZ                                      EPS 3                                                                7 383120                                
ID YTV   030601112948      000012STATION ID                                                                                                                                                     
PGRYTV   030601113000115700002700WOODY WOODPECKER (NEW)                            STUCK/FREEXE/HEALING EPS 35                                          2 38307ECC                              
COMYTV   030601113037      000030WENDY'S/KIDS CORPORATE                                                                                                                                         
COMYTV   030601113107      000030UNILEVER/POPSICLE                                                                                                                                              
PRCYTV   030601113137      000030YTV PROMO CONTRACT                                                                                                                                             
COMYTV   030601113904      000030BVHV/JUNGLE BOOK 2                                                                                                                                             
COMYTV   030601113934      000030HASBRO CANADA/BEYBLADE WOW SPO                                                                                                                                 
COMYTV   030601114004      000015MATTEL/SUMMER :15'S                                                                                                                                            
COMYTV   030601114019      000030GENERAL MILLS/VARIOUS CORP                                                                                                                                     
COMYTV   030601114049      000015HASBRO/SKIBO BARTER                                                                                                                                            
COMYTV   030601114802      000030PARAMOUNT/RUGRATS GO WILD                                                                                                                                      
COMYTV   030601114832      000030MCDONALDS/HAPPY MEAL (SUMMER)                                                                                                                                  
PRCYTV   030601114902      000030YTV PROMO CONTRACT                                                                                                                                             
INTYTV   030601115700120000000300NUCLEAR DONKEY                                    NUCLEAR DONKEY VIDEO                                                 1 311120                                
ID YTV   030601115948      000012STATION ID                                                                                                                                                     
PGRYTV   030601120000121210001210YVON OF THE YUKON                                 TEN LITTLE IDIOTS  EPS 25                         YVON  YTV   A52386 1 35307ECC                              
SPOYTV   030601121030      000010YTV EVENT/NINTENDO W.O.W.                                                                                                                                      
COMYTV   030601121040      000030KRAFT/KIDS AOR SPRING 30                                                                                                                                       
COMYTV   030601121110      000030HASBRO CANADA INC.                                                                                                                                             
COMYTV   030601121140      000030GENERAL MILLS/VARIOUS CORP                                                                                                                                     
PSAYTV   030601121210121240000030CONCERNED CHILDREN/WALK AWAY                                                                                           1 000130                                
PGRYTV   030601121240123013001733YVON OF THE YUKON                                 TEN LITTLE IDIOTS  EPS 25                         YVON  YTV   A52386 1 35307ECC                              
COMYTV   030601121958      000030SKILLS CANADA/LEARNING                                                                                                                                         
COMYTV   030601122028      000030KELLOGG CANADA INC.                                                                                                                                            
COMYTV   030601122058      000030MATTEL/SUMMER :30'S                                                                                                                                            
COMYTV   030601122128      000030MINUTE MAID/BIBO-WOW SPONSORSH                                                                                                                                 
COMYTV   030601122732      000030GENERAL MILLS/VARIOUS CORP                                                                                                                                     
COMYTV   030601122802      000030MATTEL CANADA INC.                                                                                                                                             
COMYTV   030601122832      000030UNILEVER                                                                                                                                                       
COMYTV   030601122902      000030MCDONALDS/HAPPY MEAL (SUMMER)                                                                                                                                  
ID YTV   030601123002      000012STATION ID                                                                                                                                                     
PGRYTV   030601123013124551001538GIRLSTUFF/BOYSTUFF                                CHA CHING/SLAM                                    DECODEYTV   A74619 1 35307ECC                              
SPOYTV   030601123105      000010MINUTE MAID/BIBO-WOW SPONSORSH                                                                                                                                 
COMYTV   030601123115      000030KRAFT/KIDS AOR SPRING 30                                                                                                                                       
COMYTV   030601123145      000030MCDONALD'S RESTAURANTS CANADA                                                                                                                                  
COMYTV   030601123215      000030MATTEL/SUMMER BONUS CONTRACT                                                                                                                                   
COMYTV   030601123245      000030HIGHWAY ENTERTAINMENT                                                                                                                                          
COMYTV   030601124421      000030NESTLE CANADA INC.                                                                                                                                             
COMYTV   030601124451      000030MINUTE MAID/BIBO-WOW SPONSORSH                                                                                                                                 
COMYTV   030601124521      000030DISCOVERY KIDS/DK WEB                                                                                                                                          
PSAYTV   030601124551124621000030PSA/CONCERN CHILDREN/THE CHASE                                                                                         1 000130                                
PGRYTV   030601124621130027001406GIRLSTUFF/BOYSTUFF                                CHA CHING/SLAM                                    DECODEYTV   A74619 1 35307ECC                              
COMYTV   030601125742      000030PARAMOUNT/RUGRATS GO WILD                                                                                                                                      
COMYTV   030601125812      000030MATTEL/SUMMER BONUS CONTRACT                                                                                                                                   
COMYTV   030601125842      000030KELLOGG CANADA INC.                                                                                                                                            
COMYTV   030601125912      000030HASBRO CANADA INC.                                                                                                                                             
ID YTV   030601130015      000012STATION ID                                                                                                                                                     
PGRYTV   030601130027132800002733D'MYNA LEAGUES                                    ON THE ROAD EP2                                   DMYNA YTV   A40236 1 35307ECC                              
COMYTV   030601130941      000030KRAFT/KIDS AOR SPRING 30                                                                                                                                       
COMYTV   030601131011      000030HASBRO CANADA/BEYBLADE WOW SPO                                                                                                                                 
COMYTV   030601131041      000030KRAFT CANADA INC.                                                                                                                                              
COMYTV   030601131111      000030EFFEM FOODS LTD.                                                                                                                                               
COMYTV   030601131911      000030MCDONALDS/HAPPY MEAL (SUMMER)                                                                                                                                  
COMYTV   030601131941      000030MATTEL CANADA INC.                                                                                                                                             
COMYTV   030601132011      000030GENERAL MILLS/BARTER                                                                                                                                           
COMYTV   030601132041      000030MINUTE MAID/BIBO-WOW SPONSORSH                                                                                                                                 
COMYTV   030601132700      000030UNILEVER/POPSICLE                                                                                                                                              
COMYTV   030601132730      000030GENERAL MILLS/VARIOUS CORP                                                                                                                                     
PSAYTV   030601132800132900000100CONCERNED CHILDREN/SMART AS YO                                                                                         1 000130                                
PGRYTV   030601132900132959000059D'MYNA LEAGUES                                    ON THE ROAD EP2                                   DMYNA YTV   A40236 1 35307ECC                              
PRCYTV   030601132900      000015YTV PROMO CONTRACT                                                                                                                                             
ID YTV   030601132948      000012STATION ID                                                                                                                                                     
PGRYTV   030601132959135959003000UH OH!                                            EPS 226                                                              1 313110CC                              
SPOYTV   030601133306      000010MINUTE MAID/BIBO-WOW SPONSORSH                                                                                                                                 
COMYTV   030601133316      000030MINUTE MAID/BIBO                                                                                                                                               
COMYTV   030601133346      000030YTV CO-MKTG/EFFEM/SKITTLES/STA                                                                                                                                 
COMYTV   030601133416      000030MATTEL/SUMMER :30'S                                                                                                                                            
COMYTV   030601133446      000030SPIN MASTER TOYS INC.                                                                                                                                          
COMYTV   030601134122      000030KRAFT/KIDS AOR SPRING 30                                                                                                                                       
COMYTV   030601134152      000030HWY/KIDS CPA                                                                                                                                                   
COMYTV   030601134222      000030MATTEL CANADA INC.                                                                                                                                             
COMYTV   030601134252      000030WENDY'S RESTAURANTS                                                                                                                                            
COMYTV   030601134931      000030MATTEL/SUMMER BONUS CONTRACT                                                                                                                                   
COMYTV   030601135001      000030GENERAL MILLS/VARIOUS CORP                                                                                                                                     
COMYTV   030601135031      000015BMG MUSIC                                                                                                                                                      
COMYTV   030601135046      000015HASBRO CANADA INC.                                                                                                                                             
COMYTV   030601135101      000030MINUTE MAID/BIBO-WOW SPONSORSH                                                                                                                                 
PRCYTV   030601135131      000015YTV PROMO CONTRACT                                                                                                                                             
ID YTV   030601135947      000012STATION ID                                                                                                                                                     
PGRYTV   030601135959142952002953SYSTEM CRASH                                      RELATIVELY SPEAKING EP18                                             1 31307FCC                              
SPOYTV   030601140639      000010MINUTE MAID/BIBO-WOW SPONSORSH                                                                                                                                 
COMYTV   030601140649      000030BIG TIME TOYS/SUPER SWIMMERS                                                                                                                                   
COMYTV   030601140719      000030KRAFT CANADA INC.                                                                                                                                              
COMYTV   030601140749      000030MATTEL CANADA INC.                                                                                                                                             
COMYTV   030601140819      000030GENERAL MILLS/VARIOUS CORP                                                                                                                                     
COMYTV   030601141259      000030UNILEVER/POPSICLE                                                                                                                                              
COMYTV   030601141329      000030SPIN MASTER TOYS/YUMMY BUBBLE                                                                                                                                  
COMYTV   030601141359      000030MINUTE MAID/BIBO-WOW SPONSORSH                                                                                                                                 
COMYTV   030601141429      000030THQ INC.                                                                                                                                                       
PRCYTV   030601141459      000030YTV PROMO CONTRACT                                                                                                                                             
COMYTV   030601142113      000030PARAMOUNT/RUGRATS GO WILD                                                                                                                                      
COMYTV   030601142143      000030GENERAL MILLS/VARIOUS CORP                                                                                                                                     
COMYTV   030601142213      000030YTV EVENT MARKETING                                                                                                                                            
COMYTV   030601142243      000030MCDONALD'S RESTAURANTS CANADA                                                                                                                                  
PRCYTV   030601142313      000015YTV PROMO CONTRACT                                                                                                                                             
ID YTV   030601142940      000012STATION ID                                                                                                                                                     
PGRYTV   030601142952144942001950I LOVE MUMMY                                      BLUE SPOTTED NILE FEVER EPS 21                    TUTTUTYTV   A68178 1 35307BCC                              
SPOYTV   030601143804      000010MINUTE MAID/BIBO-WOW SPONSORSH                                                                                                                                 
COMYTV   030601143814      000030WENDY'S/KIDS CORPORATE                                                                                                                                         
COMYTV   030601143844      000030SPIN MASTER TOYS INC.                                                                                                                                          
COMYTV   030601143914      000030UNILEVER                                                                                                                                                       
COMYTV   030601143944      000030GENERAL MILLS/CORP VAR. BARTER                                                                                                                                 
COMYTV   030601144842      000030KELLOGG/FROSTED FLAKES                                                                                                                                         
COMYTV   030601144912      000030MATTEL/SUMMER :30'S                                                                                                                                            
PSAYTV   030601144942145042000100CONCERNED CHILDREN/HOUSE HIPPO                                                                                         1 000130                                
PGRYTV   030601145042150008000926I LOVE MUMMY                                      BLUE SPOTTED NILE FEVER EPS 21                    TUTTUTYTV   A68178 1 35307BCC                              
COMYTV   030601145624      000030KELLOGG/FROOT LOOPS                                                                                                                                            
COMYTV   030601145654      000015WONDER BREAD                                                                                                                                                   
COMYTV   030601145709      000015MATTEL/SUMMER :15'S                                                                                                                                            
COMYTV   030601145724      000030GENERAL MILLS/VARIOUS CORP                                                                                                                                     
COMYTV   030601145754      000030MINUTE MAID/BIBO-WOW SPONSORSH                                                                                                                                 
ID YTV   030601145956      000012STATION ID                                                                                                                                                     
PGRYTV   030601150008151837001829RADIO ACTIVE ( III)(#53-78)                       LOU ANN'S RETURN EP68                             TELEACYTV   C16978 1 35307BCC                              
COMYTV   030601150627      000030HWY/KIDS CPA                                                                                                                                                   
COMYTV   030601150657      000015HASBRO/PREFALL 2003 PART 2 OF2                                                                                                                                 
COMYTV   030601150712      000015TOPP'S                                                                                                                                                         
COMYTV   030601150727      000030MATTEL CANADA INC.                                                                                                                                             
COMYTV   030601150757      000030KRAFT CANADA INC.                                                                                                                                              
COMYTV   030601151807      000030HASBRO/PREFALL 2003 PART 2 OF2                                                                                                                                 
COMYTV   030601151837      000030CDN VALUE MUS/ANTI DOWNLOADING                                                                                                                                 
PSAYTV   030601151837151907000030CDN VALUE MUS/NEED DRIVE VINES                                                                                         1 000130                                
PGRYTV   030601151907153012001105RADIO ACTIVE ( III)(#53-78)                       LOU ANN'S RETURN EP68                             TELEACYTV   C16978 1 35307BCC                              
COMYTV   030601151907      000030GENERAL MILLS CANADA INC.                                                                                                                                      
COMYTV   030601151937      000030MINUTE MAID/BIBO-WOW SPONSORSH                                                                                                                                 
COMYTV   030601152608      000015BVHV/JUNGLE BOOK 2                                                                                                                                             
COMYTV   030601152623      000015WONDER BREAD                                                                                                                                                   
COMYTV   030601152638      000030KELLOGG CANADA INC.                                                                                                                                            
COMYTV   030601152708      000030HASBRO CANADA INC.                                                                                                                                             
COMYTV   030601152738      000030WENDY'S RESTAURANTS                                                                                                                                            
ID YTV   030601153000      000012STATION ID                                                                                                                                                     
PGRYTV   030601153012160014003002STUDENT BODIES                                    DATE-A-RAMA EP16                                  STUDEN      A22511 1 35307ACC                              
COMYTV   030601153317      000030HWY/KIDS CPA                                                                                                                                                   
COMYTV   030601153347      000030GENERAL MILLS CANADA INC.                                                                                                                                      
COMYTV   030601153417      000030DYNATECH ACTION INC.                                                                                                                                           
COMYTV   030601153447      000030HASBRO/PREFALL 2003 PART 2 OF2                                                                                                                                 
COMYTV   030601154329      000030KELLOGG/FROSTED FLAKES                                                                                                                                         
COMYTV   030601154359      000030MATTEL CANADA INC.                                                                                                                                             
COMYTV   030601154429      000030YTV EVENT MARKETING                                                                                                                                            
COMYTV   030601154459      000030MCDONALDS/HAPPY MEAL (SUMMER)                                                                                                                                  
COMYTV   030601155208      000030BVHV/JUNGLE BOOK 2                                                                                                                                             
COMYTV   030601155238      000030SPIN MASTER TOYS INC.                                                                                                                                          
COMYTV   030601155308      000030PEPSICO                                                                                                                                                        
COMYTV   030601155338      000030EFFEM FOODS LTD.                                                                                                                                               
PRCYTV   030601155408      000030YTV PROMO CONTRACT                                                                                                                                             
ID YTV   030601160000      000012STATION ID                                                                                                                                                     
PGRYTV   030601160014174038014024DURANGO KIDS                                      DURANGO KIDS                                                        A2 28307ECC                              
SPOYTV   030601161106      000010YTV EVENT/NINTENDO W.O.W.                                                                                                                                      
COMYTV   030601161116      000030KRAFT/KIDS AOR SPRING 30                                                                                                                                       
COMYTV   030601161146      000030HASBRO/PREFALL 2003 PART 2 OF2                                                                                                                                 
COMYTV   030601161216      000030KELLOGG CANADA INC.                                                                                                                                            
COMYTV   030601161246      000015MATTEL CANADA INC.                                                                                                                                             
COMYTV   030601161301      000030KRAFT CANADA INC.                                                                                                                                              
COMYTV   030601161331      000030EFFEM/SKITTLES/STARBURST INTER                                                                                                                                 
COMYTV   030601161401      000015J&J/CLEAN & CLEAR                                                                                                                                              
PRCYTV   030601161416      000030YTV PROMO CONTRACT                                                                                                                                             
PRCYTV   030601161446      000030YTV PROMO CONTRACT                                                                                                                                             
COMYTV   030601162601      000030KRAFT/KIDS AOR SPRING 30                                                                                                                                       
COMYTV   030601162631      000030DYNATECH ACTION INC.                                                                                                                                           
COMYTV   030601162701      000030KIMBERLY-CLARK OF CANADA LTD.                                                                                                                                  
COMYTV   030601162731      000030YTV EVENT MARKETING                                                                                                                                            
COMYTV   030601162801      000030MATTEL CANADA INC.                                                                                                                                             
COMYTV   030601162831      000030NESTLE/SMARTIES                                                                                                                                                
COMYTV   030601164101      000030HEINZ/DIANA                                                                                                                                                    
COMYTV   030601164131      000100P&G/CORP BASE BUY/PRE-EMPTIBLE                                                                                                                                 
COMYTV   030601164231      000030GENERAL MILLS CANADA INC.                                                                                                                                      
COMYTV   030601164301      000030BIG TIME TOYS                                                                                                                                                  
COMYTV   030601164331      000030MATTEL/SUMMER BONUS CONTRACT                                                                                                                                   
COMYTV   030601165343      000030HWY/KIDS CPA                                                                                                                                                   
COMYTV   030601165413      000030DISCOVERY KIDS/DK WEB                                                                                                                                          
COMYTV   030601165443      000030YTV EVENT MARKETING                                                                                                                                            
COMYTV   030601165513      000015NIVEA CREAM                                                                                                                                                    
COMYTV   030601165528      000030HASBRO CANADA INC.                                                                                                                                             
COMYTV   030601165558      000030HIGHWAY ENTERTAINMENT                                                                                                                                          
COMYTV   030601165628      000015WONDER BREAD                                                                                                                                                   
PRCYTV   030601165643      000030YTV PROMO CONTRACT                                                                                                                                             
PRCYTV   030601165713      000030YTV PROMO CONTRACT                                                                                                                                             
COMYTV   030601170714      000030GENERAL MILLS/VARIOUS CORP                                                                                                                                     
COMYTV   030601170744      000015J&J/BABY B                                                                                                                                                     
COMYTV   030601170759      000030KELLOGG CANADA INC.                                                                                                                                            
COMYTV   030601170829      000015KIMBERLY-CLARK OF CANADA LTD.                                                                                                                                  
COMYTV   030601170844      000030SPIN MASTER TOYS/YUMMY BUBBLE                                                                                                                                  
COMYTV   030601170914      000030SKILLS CANADA/LEARNING                                                                                                                                         
COMYTV   030601170944      000030GILLETTE/SOFT&DRI 30S/TEENS                                                                                                                                    
PRCYTV   030601171014      000030YTV PROMO CONTRACT                                                                                                                                             
COMYTV   030601172415      000030HWY/KIDS CPA                                                                                                                                                   
COMYTV   030601172445      000100P&G/CORPORATE BASE BUY                                                                                                                                         
COMYTV   030601172545      000030YTV EVENT MARKETING                                                                                                                                            
COMYTV   030601172615      000030HWY/KIDS CPA                                                                                                                                                   
COMYTV   030601172645      000030GENERAL MILLS/VARIOUS CORP                                                                                                                                     
COMYTV   030601173838      000030UNILEVER/POPSICLE                                                                                                                                              
COMYTV   030601173908      000030YTV EVENT MARKETING                                                                                                                                            
COMYTV   030601173938      000015BMG MUSIC                                                                                                                                                      
COMYTV   030601173953      000030PEPSICO                                                                                                                                                        
COMYTV   030601174023      000015L'OREAL CANADA                                                                                                                                                 
PSAYTV   030601174038174108000030CDN VALUE MUS/NEED DRIVE VINES                                                                                         1 000130                                
COMYTV   030601174108      000030MATTEL/SUMMER :30'S                                                                                                                                            
PGRYTV   030601174108180013001905DURANGO KIDS                                      DURANGO KIDS                                                        A2 28307CCC                              
COMYTV   030601174808      000030KRAFT/KIDS AOR SPRING 30                                                                                                                                       
COMYTV   030601174838      000015J&J/BABY B                                                                                                                                                     
COMYTV   030601174853      000030SPIN MASTER TOYS INC.                                                                                                                                          
COMYTV   030601174923      000030YTV EVENT MARKETING                                                                                                                                            
COMYTV   030601174953      000030KIMBERLY-CLARK OF CANADA LTD.                                                                                                                                  
COMYTV   030601175023      000030GENERAL MILLS/VARIOUS CORP                                                                                                                                     
COMYTV   030601175053      000015HASBRO/PREFALL 2003 PART 2 OF2                                                                                                                                 
PRCYTV   030601175108      000030YTV PROMO CONTRACT                                                                                                                                             
PRCYTV   030601175138      000030YTV PROMO CONTRACT                                                                                                                                             
ID YTV   030601175952      000012STATION ID                                                                                                                                                     
SPOYTV   030601180004      000005K CLARK/PULL UPS                                                                                                                                               
PGRYTV   030601180013183013003000WHAT I LIKE ABOUT YOU                             THE OTHER WOMAN  EPS 11                                              2 38307A                                
SPOYTV   030601180322      000010YTV EVENT/NINTENDO W.O.W.                                                                                                                                      
COMYTV   030601180332      000030UNILEVER/POPSICLE                                                                                                                                              
COMYTV   030601180402      000030HERSHEY/REESE                                                                                                                                                  
COMYTV   030601180432      000015K CLARK/HUGGIES:ULTRA                                                                                                                                          
COMYTV   030601180447      000015HWY/PLAYTOY BARTER                                                                                                                                             
COMYTV   030601180502      000030HEINZ                                                                                                                                                          
PRCYTV   030601180532      000030YTV PROMO CONTRACT                                                                                                                                             
PRCYTV   030601180602      000030YTV PROMO CONTRACT                                                                                                                                             
COMYTV   030601181425      000030PARAMOUNT/RUGRATS GO WILD ADDT                                                                                                                                 
COMYTV   030601181455      000030HWY/KIDS CPA                                                                                                                                                   
COMYTV   030601181525      000015KRAFT/SUMMER ADULT 15                                                                                                                                          
COMYTV   030601181540      000015JOHNSON & JOHNSON INC.                                                                                                                                         
COMYTV   030601181555      000030MINUTE MAID/BIBO-WOW SPONSORSH                                                                                                                                 
PRCYTV   030601181625      000030YTV PROMO CONTRACT                                                                                                                                             
COMYTV   030601182646      000015BVHV/JUNGLE BOOK 2                                                                                                                                             
COMYTV   030601182701      000030GENERAL MILLS/VARIOUS CORP                                                                                                                                     
COMYTV   030601182731      000015TOPP'S                                                                                                                                                         
COMYTV   030601182746      000030THQ INC.                                                                                                                                                       
COMYTV   030601182816      000030K CLARK/PULL UPS                                                                                                                                               
PRCYTV   030601182846      000030YTV PROMO CONTRACT                                                                                                                                             
SPOYTV   030601182946      000005K CLARK/PULL UPS                                                                                                                                               
ID YTV   030601182951      000012STATION ID                                                                                                                                                     
PGRYTV   030601183013190000002947BROTHERS GARCIA                                   SPACE RACE  EPS 22                                                   2 38307BCC                              
SPOYTV   030601183238      000010YTV EVENT/NINTENDO W.O.W.                                                                                                                                      
COMYTV   030601183248      000030DYNA TECH SYSTEMS/SLIP N'SLIDE                                                                                                                                 
COMYTV   030601183318      000100P&G/FEBREZE CHALLENGE                                                                                                                                          
COMYTV   030601184445      000030MATTEL/SUMMER BONUS CONTRACT                                                                                                                                   
COMYTV   030601184515      000030KELLOGG CANADA INC.                                                                                                                                            
COMYTV   030601184545      000030HWY/CPA-ADULT PACKAGE#2                                                                                                                                        
COMYTV   030601184615      000030MINUTE MAID/BIBO-WOW SPONSORSH                                                                                                                                 
COMYTV   030601185733      000100PEPSICO/FIZZ ON THE BIZZ SPONS                                                                                                                                 
COMYTV   030601185833      000030SPIN MASTER TOYS INC.                                                                                                                                          
ID YTV   030601185948      000012STATION ID                                                                                                                                                     
PGRYTV   030601190000191457001457GIRLSTUFF/BOYSTUFF                                CHA CHING/SLAM                                    DECODEYTV   A74619 1 35307ECC                              
COMYTV   030601190051      000015HERSHEY/MOULDED BARS                                                                                                                                           
COMYTV   030601190106      000015MATTEL CANADA INC.                                                                                                                                             
COMYTV   030601190121      000030GENERAL MILLS CANADA INC.                                                                                                                                      
COMYTV   030601190151      000030YTV EVENT MARKETING                                                                                                                                            
COMYTV   030601190221      000030EFFEM FOODS LTD.                                                                                                                                               
COMYTV   030601191357      000030HEINZ/DIANA                                                                                                                                                    
COMYTV   030601191427      000030HASBRO/PREFALL 2003 PART 2 OF2                                                                                                                                 
PSAYTV   030601191457191527000030SHEENA/STOP EAT DIS/HANSEL+GRE                                                                                         1 000130                                
PGRYTV   030601191527193003001436GIRLSTUFF/BOYSTUFF                                CHA CHING/SLAM                                    DECODEYTV   A74619 1 35307ECC                              
COMYTV   030601191527      000030KIMBERLY-CLARK OF CANADA LTD.                                                                                                                                  
COMYTV   030601192718      000030BVHV/JUNGLE BOOK 2                                                                                                                                             
COMYTV   030601192748      000030HEINZ/DIANA                                                                                                                                                    
COMYTV   030601192818      000030YTV EVENT MARKETING                                                                                                                                            
COMYTV   030601192848      000030KRAFT CANADA INC.                                                                                                                                              
ID YTV   030601192951      000012STATION ID                                                                                                                                                     
PGRYTV   030601193003200004003001SADDLE CLUB                                       BLIND FAITH  EPS 41                               PROTOCYTV   A04976 1 25307ACC                              
COMYTV   030601193324      000030MINUTE MAID/BIBO                                                                                                                                               
COMYTV   030601193354      000030GENERAL MILLS/CORP VAR. BARTER                                                                                                                                 
COMYTV   030601193424      000100PEPSICO                                                                                                                                                        
COMYTV   030601194447      000030HWY/KIDS CPA                                                                                                                                                   
COMYTV   030601194517      000030GENERAL MILLS/BARTER                                                                                                                                           
COMYTV   030601194547      000030GILLETTE CANADA INC.                                                                                                                                           
COMYTV   030601194617      000030BIG TIME TOYS                                                                                                                                                  
COMYTV   030601195438      000030MINUTE MAID/BIBO-WOW SPONSORSH                                                                                                                                 
COMYTV   030601195508      000030MATTEL CANADA INC.                                                                                                                                             
COMYTV   030601195538      000015NIVEA CREAM                                                                                                                                                    
COMYTV   030601195553      000015BMG MUSIC                                                                                                                                                      
COMYTV   030601195608      000030GENERAL MILLS/VARIOUS CORP                                                                                                                                     
ID YTV   030601195950      000012STATION ID                                                                                                                                                     
PGRYTV   030601200004213000012956YTV'S HIT LIST                                    SEASON FINALE EPS 39                                                 1 31308CCC                              
COMYTV   030601200924      000030UNIVERSAL FILMS/2FAST2FURIOUS                                                                                                                                  
COMYTV   030601200954      000030WENDY'S RESTAURANTS                                                                                                                                            
COMYTV   030601201024      000030THQ INC.                                                                                                                                                       
COMYTV   030601201054      000030HWY/CPA-ADULT PACKAGE#2                                                                                                                                        
COMYTV   030601202146      000030YTV CO-MKTG/EFFEM/SKITTLES/STA                                                                                                                                 
COMYTV   030601202216      000015SUBWAY SUBS                                                                                                                                                    
COMYTV   030601202231      000015STELLA PHARMACEUTICAL CO.LTD.                                                                                                                                  
COMYTV   030601202246      000030SPIN MASTER TOYS INC.                                                                                                                                          
COMYTV   030601202316      000030GENERAL MILLS/BARTER                                                                                                                                           
COMYTV   030601203415      000030KRAFT/SUMMER WOMEN 25-54/30S                                                                                                                                   
COMYTV   030601203445      000030SMITHKLINE BEECHAM                                                                                                                                             
COMYTV   030601203515      000030PEPSICO                                                                                                                                                        
COMYTV   030601203545      000030HWY/ADULT BARTER#3                                                                                                                                             
COMYTV   030601204112      000030KRAFT/SPRING ADULT/30                                                                                                                                          
COMYTV   030601204142      000030MATTEL/SUMMER BONUS CONTRACT                                                                                                                                   
COMYTV   030601204212      000030MINUTE MAID/BIBO-WOW SPONSORSH                                                                                                                                 
COMYTV   030601204242      000030UNIVERSAL FILMS/2FAST2FURIOUS                                                                                                                                  
COMYTV   030601205011      000030KRAFT/KIDS AOR SPRING 30                                                                                                                                       
COMYTV   030601205041      000030MATTEL/SUMMER :30'S                                                                                                                                            
COMYTV   030601205111      000015SCOTT PAPER                                                                                                                                                    
COMYTV   030601205126      000030NESTLE CANADA INC.                                                                                                                                             
COMYTV   030601205156      000015HWY/PLAYTOY BARTER                                                                                                                                             
COMYTV   030601205825      000030NESTLE/SMARTIES                                                                                                                                                
COMYTV   030601205855      000100PEPSICO/FIZZ ON THE BIZZ SPONS                                                                                                                                 
COMYTV   030601205955      000030MINUTE MAID/BIBO-WOW SPONSORSH                                                                                                                                 
COMYTV   030601210916      000015UNIVERSAL FILMS/2FAST2FURIOUS                                                                                                                                  
COMYTV   030601210931      000030SMITHKLINE BEECHAM/OXY                                                                                                                                         
COMYTV   030601211001      000030KRAFT/SUMMER WOMEN 25-54/30S                                                                                                                                   
COMYTV   030601211031      000015J&J/CLEAN & CLEAR                                                                                                                                              
COMYTV   030601211046      000030KRAFT/SPRING ADULT/30                                                                                                                                          
COMYTV   030601211703      000015J&J/CLEAN & CLEAR                                                                                                                                              
COMYTV   030601211718      000030MATTEL/SUMMER :30'S                                                                                                                                            
COMYTV   030601211748      000030MCDONALD'S RESTAURANTS CANADA                                                                                                                                  
COMYTV   030601211818      000030GENERAL MILLS/VARIOUS CORP                                                                                                                                     
COMYTV   030601211848      000015HASBRO/PREFALL 2003 PART 2 OF2                                                                                                                                 
PRCYTV   030601211903      000015YTV PROMO CONTRACT                                                                                                                                             
COMYTV   030601212535      000030HASBRO CANADA/BEYBLADE WOW SPO                                                                                                                                 
COMYTV   030601212605      000015KRAFT/SUMMER ADULT 15                                                                                                                                          
COMYTV   030601212620      000015L'OREAL CANADA                                                                                                                                                 
COMYTV   030601212635      000030KRAFT CANADA INC.                                                                                                                                              
COMYTV   030601212705      000030MATTEL/SUMMER BONUS CONTRACT                                                                                                                                   
PRCYTV   030601212735      000030YTV PROMO CONTRACT                                                                                                                                             
ID YTV   030601212948      000012STATION ID                                                                                                                                                     
PGRYTV   030601213000220006003006GIRLZ TV                                          EPS 7                                             MILLENYTV   C21053 1 353110CC                              
COMYTV   030601213135      000030KELLOGG/FROSTED FLAKES                                                                                                                                         
COMYTV   030601213205      000030EFFEM/SKITTLES/STARBURST INTER                                                                                                                                 
COMYTV   030601213235      000015MATTEL/SUMMER :15'S                                                                                                                                            
COMYTV   030601213250      000015UNIVERSAL FILMS/2FAST2FURIOUS                                                                                                                                  
COMYTV   030601213305      000030HWY/KIDS CPA                                                                                                                                                   
COMYTV   030601213924      000030GENERAL MILLS/VARIOUS CORP                                                                                                                                     
COMYTV   030601213954      000100P&G/CORP BASE BUY/PRE-EMPTIBLE                                                                                                                                 
COMYTV   030601214054      000030SHAW                                                                                                                                                           
COMYTV   030601215342      000030NESTLE/SMARTIES                                                                                                                                                
COMYTV   030601215412      000100P&G/CORPORATE BASE BUY                                                                                                                                         
COMYTV   030601215512      000030UNILEVER/POPSICLE                                                                                                                                              
ID YTV   030601215950      000012STATION ID                                                                                                                                                     
PGRYTV   030601220006223002002956STUDENT BODIES                                    DATE-A-RAMA EP16                                  STUDEN      A22511 1 35307ACC                              
COMYTV   030601220307      000015SCOTT PAPER/TOWELS&SCOTTIES                                                                                                                                    
COMYTV   030601220322      000015KRAFT/SUMMER ADULT 15                                                                                                                                          
COMYTV   030601220337      000030EFFEM FOODS LTD.                                                                                                                                               
COMYTV   030601220407      000030UNIVERSAL FILMS/2FAST2FURIOUS                                                                                                                                  
COMYTV   030601220437      000030COCA-COLA/CLASSIC                                                                                                                                              
COMYTV   030601221319      000015HERSHEY/MOULDED BARS                                                                                                                                           
COMYTV   030601221334      000015STELLA PHARM/NUTRI BAR                                                                                                                                         
COMYTV   030601221349      000030HEINZ                                                                                                                                                          
COMYTV   030601221419      000030HIGHWAY ENTERTAINMENT                                                                                                                                          
COMYTV   030601221449      000030COCA-COLA/CLASSIC                                                                                                                                              
COMYTV   030601222158      000015NIVEA CREAM/SILKY SHIMMER                                                                                                                                      
COMYTV   030601222213      000030GILLETTE CANADA INC.                                                                                                                                           
COMYTV   030601222243      000030HERSHEY/REESE                                                                                                                                                  
COMYTV   030601222313      000030NESTLE/SMARTIES                                                                                                                                                
COMYTV   030601222343      000015HWY/PLAYTOY BARTER                                                                                                                                             
PRCYTV   030601222358      000015YTV PROMO CONTRACT                                                                                                                                             
ID YTV   030601222950      000012STATION ID                                                                                                                                                     
PGRYTV   030601223002225632002630RADIO ACTIVE ( III)(#53-78)                       LOU ANN'S RETURN EP68                             TELEACYTV   C16978 1 35307BCC                              
COMYTV   030601223621      000015UNIVERSAL FILMS/2FAST2FURIOUS                                                                                                                                  
COMYTV   030601223636      000030PEPSICO/MOUNTAIN DEW (TEENS)                                                                                                                                   
COMYTV   030601223706      000100PRIMUS CANADA/PER INQUIRY $15                                                                                                                                  
COMYTV   030601223806      000015BMG MUSIC/GROOVE STATION 9                                                                                                                                     
COMYTV   030601224801      000015K CLARK/KOTEX                                                                                                                                                  
COMYTV   030601224816      000100PRIMUS CANADA/PER INQUIRY $15                                                                                                                                  
COMYTV   030601224916      000015HWY/PLAYTOY BARTER                                                                                                                                             
COMYTV   030601224931      000030HEINZ                                                                                                                                                          
COMYTV   030601225602      000015HERSHEY/MOULDED BARS                                                                                                                                           
COMYTV   030601225617      000015COCA-COLA/SPRITE ICE                                                                                                                                           
