PGRYTV   001101060000062418002418ONCE UPON A HAMSTER (II)(#27-52)                  EPS 29-PACKAGE FROM THE SKY                       HAMMY YTV   C14253 1 35107ACC                              
PGRYTV   001101062418062958000540MAISY                                             PARADE EPS 24                                                        3 38107E                                
ID YTV   001101062936      000012STATION ID                                                                                                                                                     
SPOYTV   001101062948      000010ALLIANCE/VIDEO-THOMAS&MAGIC RR                                                                                                                                 
PGRYTV   001101062958064429001431ST. BEAR'S DOLLS HOSPITAL                         THE LAUGING HYENA EPS 39                          MARIONYTV   A18013 1 15107GCC                              
PGRYTV   001101064429070000001531BEEZOO'S ATTIC (I)(1996, #1-39)                   LAUNDRY DAY EP38                                  MEDIA       C13447 1 35107ACC                              
ID YTV   001101065903      000012STATION ID                                                                                                                                                     
PRCYTV   001101065916      000030YTV PROMO CONTRACT                                                                                                                                             
PRCYTV   001101065946      000015YTV PROMO CONTRACT                                                                                                                                             
PGRYTV   001101070000072355002355KLEO THE MISFIT UNICORN                           BILLY BIGFOOT EP21                                STANFI      A03952 1 35107ECC                              
PGRYTV   001101072355073018000623SPOT, ADVENTURES OF                               SPOT GOES TO A PARTY EP20                                            3 38107E                                
ID YTV   001101072855      000012STATION ID                                                                                                                                                     
PRCYTV   001101072907      000030YTV PROMO CONTRACT                                                                                                                                             
PRCYTV   001101072937      000030YTV PROMO CONTRACT                                                                                                                                             
SPOYTV   001101073007      000010ALLIANCE/VIDEO-THOMAS&MAGIC RR                                                                                                                                 
PGRYTV   001101073018075855002837GEORGE & MARTHA                                   BLABBERMOUTH/LIFE EP21                            NELVANYTV   CXXXXX 1 25307ECC                              
COMYTV   001101073123      000030GENERAL MILLS/VARIOUS                                                                                                                                          
COMYTV   001101073153      000030IRWIN/VARIOUS                                                                                                                                                  
PRCYTV   001101073223      000030YTV PROMO CONTRACT                                                                                                                                             
COMYTV   001101074333      000030MATTEL/VARIOUS                                                                                                                                                 
COMYTV   001101074403      000030KRAFT/VARIOUS                                                                                                                                                  
COMYTV   001101074433      000030IRWIN/VARIOUS                                                                                                                                                  
COMYTV   001101074503      000030NABISCO/VARIOUS                                                                                                                                                
PRCYTV   001101074533      000030YTV PROMO CONTRACT                                                                                                                                             
COMYTV   001101075639      000030KELLOGG/VARIOUS                                                                                                                                                
COMYTV   001101075709      000030HASBRO/VARIOUS                                                                                                                                                 
PRCYTV   001101075739      000030YTV PROMO CONTRACT                                                                                                                                             
PGRYTV   001101075855080015000120MILLENIUM MINUTE                                  COLLETT BOURGONJE                                                    1 373120CC                              
ID YTV   001101075957      000012STATION ID                                                                                                                                                     
SPOYTV   001101080009      000005KELLOGG/VARIOUS - FALL                                                                                                                                         
PGRYTV   001101080015082641002626THE JETSONS                                       RIP-OFF ROSIE EP53                                                   2 38307ECC                              
COMYTV   001101080121      000030GENERAL MILLS/VARIOUS                                                                                                                                          
COMYTV   001101080151      000030KELLOGG/VARIOUS - FALL                                                                                                                                         
COMYTV   001101081104      000030HASBRO/FALL '00 BASE                                                                                                                                           
COMYTV   001101081134      000030IRWIN/FALL KIDS                                                                                                                                                
COMYTV   001101081204      000030MICRO GAMES/MY DREAM BABY                                                                                                                                      
COMYTV   001101081234      000030P&G/SUNNY DELIGHT                                                                                                                                              
COMYTV   001101081841      000030GRAND TOYS/DOLLS                                                                                                                                               
COMYTV   001101081911      000030KRAFT/FALL KIDS :30'S                                                                                                                                          
SPOYTV   001101082624      000005KELLOGG/VARIOUS - FALL                                                                                                                                         
ID YTV   001101082629      000012STATION ID                                                                                                                                                     
PGRYTV   001101082641083005000324PLONSTERS                                         EPS 5                                                                7 38307E                                
PGRYTV   001101083005090013003008STICKIN' AROUND                                   LASSIE GO HOME/HIT THE SHOWERS                    NELVANYTV   A08093 1 35307ECC                              
COMYTV   001101083116      000030IRWIN/FALL KIDS                                                                                                                                                
COMYTV   001101083147      000030HASBRO/FALL '00 BASE                                                                                                                                           
PRCYTV   001101083217      000030YTV PROMO CONTRACT                                                                                                                                             
COMYTV   001101084355      000030QUAKER/CAPN CRUNCH                                                                                                                                             
COMYTV   001101084425      000030MATTEL/VARIOUS                                                                                                                                                 
COMYTV   001101084455      000030HASBRO/FALL '00 BASE                                                                                                                                           
COMYTV   001101084525      000030YTV PROMO/HASBRO ACTION MAN                                                                                                                                    
PRCYTV   001101084555      000015YTV PROMO CONTRACT                                                                                                                                             
COMYTV   001101085718      000030NESTLE/QUIK                                                                                                                                                    
COMYTV   001101085748      000030HASBRO/FALL BASE                                                                                                                                               
ID YTV   001101085955      000012STATION ID                                                                                                                                                     
SPOYTV   001101090007      000005TREEHOUSE MALL TOUR/PLAYDOH                                                                                                                                    
PGRYTV   001101090013092426002413RUPERT                                            EPS 49-RUPERT AND THE SPACE                       NELVANYTV   P21125 1 35107ECC                              
PGRYTV   001101092426092955000529PABLO THE LITTLE RED FOX                          SLEEPY HEAD EP29                                                     3 28107ECC                              
ID YTV   001101092932      000012STATION ID                                                                                                                                                     
SPOYTV   001101092944      000010ALLIANCE/VIDEO-THOMAS&MAGIC RR                                                                                                                                 
PGRYTV   001101092955095227002232BANANAS IN PYJAMAS                                EPS 43                                                               7 38105ACC                              
PGRYTV   001101095227095600000333PLONSTERS                                         EPS 23                                                               7 38107E                                
PGRYTV   001101095600100018000418JUDY & DAVID'S BOOM BOX                           HOLE IN MY SOCK EPS 16                                               1 31105A                                
ID YTV   001101100000      000012STATION ID                                                                                                                                                     
SPOYTV   001101100012      000005TREEHOUSE MALL TOUR/PLAYDOH                                                                                                                                    
PGRYTV   001101100018102407002349COUNTRY MOUSE & CITY MOUSE                        WHITE HOUSE MOUSE EP40                            WIC         CXXXXX 1 35107ECC                              
PGRYTV   001101102407102946000539WILDLIFE                                          EPS 24                                                               7 38107E                                
ID YTV   001101102933      000012STATION ID                                                                                                                                                     
PGRYTV   001101102946104416001430ST. BEAR'S DOLLS HOSPITAL                         THE LAUGING HYENA EPS 39                          MARIONYTV   A18013 1 35107GCC                              
PGRYTV   001101104416110014001558BEEZOO'S ATTIC (I)(1996, #1-39)                   LAUNDRY DAY EP38                                  MEDIA       C13447 1 35107ACC                              
ID YTV   001101105851      000012STATION ID                                                                                                                                                     
PRCYTV   001101105903      000030YTV PROMO CONTRACT                                                                                                                                             
PRCYTV   001101105933      000030YTV PROMO CONTRACT                                                                                                                                             
SPOYTV   001101110003      000010ALLIANCE/VIDEO-THOMAS&MAGIC RR                                                                                                                                 
PGRYTV   001101110014112408002354KLEO THE MISFIT UNICORN                           BILLY BIGFOOT EP21                                STANFI      A03952 1 35107ECC                              
PGRYTV   001101112408113015000607SPOT, ADVENTURES OF                               SPOT'S WINTER SPORTS EP21                                            3 38107E                                
ID YTV   001101112907      000012STATION ID                                                                                                                                                     
PRCYTV   001101112920      000030YTV PROMO CONTRACT                                                                                                                                             
PRCYTV   001101112950      000015YTV PROMO CONTRACT                                                                                                                                             
SPOYTV   001101113005      000010MCDONALDS/HAPPY MEAL:YTV JR.                                                                                                                                   
PGRYTV   001101113015115308002253GEORGE & MARTHA                                   BLABBERMOUTH/LIFE EP21.                           NELVANYTV   CXXXXX 1 35307ECC                              
PGRYTV   001101115308120020000712ELLIOT MOOSE                                      PAISLEY THE GREAT EP45                            NELVAN      A25753 1 15107GCC                              
ID YTV   001101115937      000012STATION ID                                                                                                                                                     
PRCYTV   001101115950      000030YTV PROMO CONTRACT                                                                                                                                             
PGRYTV   001101120020122953002933RUGRATS                                           RAISING DIL/NO NAPS EP94                                             2 38307ECC                              
COMYTV   001101120833      000030WUV LUV'S/AMAZING BABIES                                                                                                                                       
COMYTV   001101120903      000030KRAFT/FALL KIDS :30'S                                                                                                                                          
PRCYTV   001101120933      000030YTV PROMO CONTRACT                                                                                                                                             
COMYTV   001101121351      000030IRWIN/FALL KIDS                                                                                                                                                
COMYTV   001101121421      000030HASBRO/FALL BASE                                                                                                                                               
COMYTV   001101121451      000030MICRO GAMES/HOPSCOTCH HEATHER                                                                                                                                  
COMYTV   001101121522      000030YTV CO-MKTG/1/2 ZZZ'S PROMO                                                                                                                                    
PRCYTV   001101121552      000015YTV PROMO CONTRACT                                                                                                                                             
COMYTV   001101122120      000030MATTEL/VARIOUS                                                                                                                                                 
COMYTV   001101122150      000030MICRO GAMES/ME & MY SHADOW                                                                                                                                     
PRCYTV   001101122221      000030YTV PROMO CONTRACT                                                                                                                                             
ID YTV   001101122940      000012STATION ID                                                                                                                                                     
PGRYTV   001101122953125840002847UH OH!                                            EPS 123                                                              1 313100CC                              
COMYTV   001101123323      000030P&G/SUNNY DELIGHT VIGNETTES                                                                                                                                    
COMYTV   001101123353      000030MICRO GAMES/MY DREAM BABY                                                                                                                                      
PRCYTV   001101123423      000030YTV PROMO CONTRACT                                                                                                                                             
COMYTV   001101124149      000030FLYING COLOURS/NICKELODEON GOO                                                                                                                                 
COMYTV   001101124220      000030HASBRO/FALL BASE                                                                                                                                               
COMYTV   001101124250      000030IRWIN/FALL KIDS                                                                                                                                                
COMYTV   001101124320      000030MCDONALDS/HAPPY MEAL                                                                                                                                           
PRCYTV   001101124350      000030YTV PROMO CONTRACT                                                                                                                                             
COMYTV   001101124944      000030BUENA VISTA PIC/DALMATIONS 102                                                                                                                                 
COMYTV   001101125014      000030HASBRO/FALL '00 BASE                                                                                                                                           
PRCYTV   001101125045      000030YTV PROMO CONTRACT                                                                                                                                             
PGRYTV   001101125840125958000118STICKIN' AROUND                                   BYE BYE BABY BIRDIE                               NELVANYTV   C11130 1 35307ECC                              
ID YTV   001101125940      000012STATION ID                                                                                                                                                     
SPOYTV   001101125952      000005TREEHOUSE MALL TOUR/PLAYDOH                                                                                                                                    
PGRYTV   001101125958130458000500JELLABIES                                         ZEBRA EPS 72                                                         3 38107E                                
PGRYTV   001101130458131029000531MAISY                                             SNEEZES EPS 83                                                       3 28107ECC                              
PGRYTV   001101131029131551000522WILDLIFE                                          EPS 25                                                               7 38107E                                
PGRYTV   001101131551132437000846MOPATOP'S SHOP                                    TEETHING TROUBLES EP9                                                3 38107G                                
PGRYTV   001101132437133025000548PABLO THE LITTLE RED FOX                          SLEEPY HEAD EP29                                                     3 38107ECC                              
ID YTV   001101132942      000012STATION ID                                                                                                                                                     
PRCYTV   001101132954      000030YTV PROMO CONTRACT                                                                                                                                             
PGRYTV   001101133025135409002344COUNTRY MOUSE & CITY MOUSE                        WHITE HOUSE MOUSE EP40                            WIC         CXXXXX 1 35107ECC                              
PGRYTV   001101135409135609000200ARTIFACTS                                         THREADS OF THE LAND EP15                          SOUNDV      C13670 1 35105A                                
PGRYTV   001101135609140058000449PLONSTERS                                         EPS 24                                                               7 38107E                                
ID YTV   001101135940      000012STATION ID                                                                                                                                                     
PRCYTV   001101135952      000030YTV PROMO CONTRACT                                                                                                                                             
PRCYTV   001101140022      000030YTV PROMO CONTRACT                                                                                                                                             
SPOYTV   001101140052      000005TREEHOUSE MALL TOUR/PLAYDOH                                                                                                                                    
PGRYTV   001101140058142953002855BARNEY & HIS FRIENDS                              SHOPPING FOR A SURPRISE!                                             2 38105BCC                              
ID YTV   001101142840      000012STATION ID                                                                                                                                                     
PRCYTV   001101142853      000030YTV PROMO CONTRACT                                                                                                                                             
PRCYTV   001101142923      000030YTV PROMO CONTRACT                                                                                                                                             
PGRYTV   001101142953145354002401THE TWINS                                         EP8.                                              CINAR YTV   CXXXXX 1 35107E                                
PGRYTV   001101145354145940000546FUZZPAWS                                          WALK A KILOMETRE IN MY EP81                                   A29186 1 31107GCC                              
ID YTV   001101145842      000012STATION ID                                                                                                                                                     
PRCYTV   001101145854      000030YTV PROMO CONTRACT                                                                                                                                             
PRCYTV   001101145925      000015YTV PROMO CONTRACT                                                                                                                                             
PGRYTV   001101145940153000003020MAGIC SCHOOL BUS                                  BUS CRACKS A YOLK EP40                                               2 38307E                                
COMYTV   001101150711      000030YTV CO-MKTG/1/2 ZZZ'S PROMO                                                                                                                                    
COMYTV   001101150742      000030HASBRO/FALL '00 BASE                                                                                                                                           
COMYTV   001101151630      000030HASBRO/FALL BASE                                                                                                                                               
COMYTV   001101151700      000030MCDONALDS/HAPPY MEAL                                                                                                                                           
COMYTV   001101151730      000030KRAFT/FALL KIDS :30'S                                                                                                                                          
COMYTV   001101151801      000030MATTEL/VARIOUS                                                                                                                                                 
COMYTV   001101152531      000030IRWIN/FALL KIDS                                                                                                                                                
COMYTV   001101152601      000030KELLOGG/VARIOUS - FALL                                                                                                                                         
ID YTV   001101152947      000012STATION ID                                                                                                                                                     
PGRYTV   001101153000155741002741ANGRY BEAVERS                                     CHOCOLATE/DAG NIGHT  EPS 50                                          2 28307ECC                              
COMYTV   001101153053      000030BANDAI/DIGIMON                                                                                                                                                 
COMYTV   001101153123      000030HASBRO/FALL '00 BASE                                                                                                                                           
COMYTV   001101154259      000030MATTEL/VARIOUS                                                                                                                                                 
COMYTV   001101154329      000030IRWIN/FALL KIDS                                                                                                                                                
COMYTV   001101154359      000030GRAND TOYS/DOLLS                                                                                                                                               
COMYTV   001101154430      000030HASBRO/FALL '00 BASE                                                                                                                                           
COMYTV   001101155605      000030BUENA VISTA PIC/DALMATIONS 102                                                                                                                                 
COMYTV   001101155636      000030HASBRO/FALL BASE                                                                                                                                               
PRCYTV   001101155706      000030YTV PROMO CONTRACT                                                                                                                                             
INTYTV   001101155741160000000219PROGRAM JOCKEY                                    PROGRAM JOCKEY                                                       1 213120                                
ID YTV   001101155948      000012STATION ID                                                                                                                                                     
PGRYTV   001101160000162745002745RUGRATS                                           RAISING DIL/NO NAPS EP94                                             2 38307ECC                              
COMYTV   001101160813      000030KELLOGG/VARIOUS - FALL                                                                                                                                         
COMYTV   001101160843      000030HASBRO/FALL BASE                                                                                                                                               
COMYTV   001101161301      000030MATTEL/VARIOUS                                                                                                                                                 
COMYTV   001101161331      000030NABISCO/PRODUCT SNAK                                                                                                                                           
COMYTV   001101161402      000030HASBRO/FALL '00 BASE                                                                                                                                           
COMYTV   001101161432      000030ALLIANCE/LITTLE VAMPIRE HOLDVR                                                                                                                                 
COMYTV   001101162010      000030YTV PR/NINTENDO/POKEMON GOLD&S                                                                                                                                 
COMYTV   001101162040      000030IRWIN/BONUS SCHEDULE                                                                                                                                           
PRCYTV   001101162110      000030YTV PROMO CONTRACT                                                                                                                                             
INTYTV   001101162745162955000210PROGRAM JOCKEY                                    PROGRAM JOCKEY                                                       1 213120                                
ID YTV   001101162943      000012STATION ID                                                                                                                                                     
PGRYTV   001101162955165737002742HEY ARNOLD                                        COACH WITTENBERG/SCIENCE FAIR                                        2 38307ECC                              
COMYTV   001101163628      000030HASBRO/FALL '00 BASE                                                                                                                                           
COMYTV   001101163658      000030MATTEL/VARIOUS                                                                                                                                                 
COMYTV   001101164254      000030ALLIANCE/VIDEO-THOMAS&MAGIC RR                                                                                                                                 
COMYTV   001101164324      000030YTV PROMO/HASBRO ACTION MAN                                                                                                                                    
COMYTV   001101164354      000030KRAFT/BONUS SCHEDULE                                                                                                                                           
COMYTV   001101164424      000030HASBRO INTERACTIVE/KIDS FALL B                                                                                                                                 
COMYTV   001101165521      000030HASBRO/FALL '00 BASE                                                                                                                                           
COMYTV   001101165551      000030QUAKER/CAPN CRUNCH                                                                                                                                             
PRCYTV   001101165621      000030YTV PROMO CONTRACT                                                                                                                                             
INTYTV   001101165737170000000223PROGRAM JOCKEY                                    PROGRAM JOCKEY                                                       1 213120                                
ID YTV   001101165947      000012STATION ID                                                                                                                                                     
PGRYTV   001101170000170152000152POKEMON                                           FLOWER POWER EP121                                                   7 28307ECC                              
COMYTV   001101170106      000015UNIVERSAL FILMS/GRINCH                                                                                                                                         
COMYTV   001101170122      000030MATTEL/VARIOUS                                                                                                                                                 
PSAYTV   001101170152170207000015PSA                          .                    THE WAR AMPS/ASTAR                                                   1 008130                                
PGRYTV   001101170207172720002513POKEMON                                           FLOWER POWER EP121                                                   7 28307ECC                              
COMYTV   001101171306      000030MATTEL/VARIOUS                                                                                                                                                 
COMYTV   001101171336      000030YTV CO-MKTG/1/2 ZZZ'S PROMO                                                                                                                                    
COMYTV   001101171407      000030HASBRO/FALL '00 BASE                                                                                                                                           
COMYTV   001101171437      000030MICRO GAMES/MY DREAM BABY                                                                                                                                      
PRCYTV   001101171507      000030YTV PROMO CONTRACT                                                                                                                                             
COMYTV   001101172510      000030HASBRO/FALL '00 BASE                                                                                                                                           
COMYTV   001101172540      000030KELLOGG/VARIOUS - FALL                                                                                                                                         
INTYTV   001101172720173004000244PROGRAM JOCKEY                                    PROGRAM JOCKEY                                                       1 213120                                
ID YTV   001101172946      000012STATION ID                                                                                                                                                     
SPOYTV   001101172958      000005HIGHWAY ENT/K'NEX BILLBOARDS                                                                                                                                   
PGRYTV   001101173004175550002546DIGIMON                                           SORA'S CREST OF LOVE EP26                                            7 38307ECC                              
COMYTV   001101173307      000030UNIVERSAL FILMS/GRINCH                                                                                                                                         
COMYTV   001101173337      000030NESTLE/QUIK                                                                                                                                                    
PRCYTV   001101173407      000030YTV PROMO CONTRACT                                                                                                                                             
COMYTV   001101174308      000030HASBRO/FALL '00 BASE                                                                                                                                           
COMYTV   001101174338      000030KRAFT/FALL KIDS :30'S                                                                                                                                          
COMYTV   001101174409      000030MATTEL/VARIOUS                                                                                                                                                 
COMYTV   001101174439      000030ADIDAS/KOBE BASKETBALL SHOES                                                                                                                                   
PRCYTV   001101174509      000030YTV PROMO CONTRACT                                                                                                                                             
COMYTV   001101175307      000030HASBRO/FALL '00 BASE                                                                                                                                           
COMYTV   001101175337      000030KELLOGG/VARIOUS - FALL                                                                                                                                         
PRCYTV   001101175408      000030YTV PROMO CONTRACT                                                                                                                                             
INTYTV   001101175550180000000410PROGRAM JOCKEY                                    PROGRAM JOCKEY                                                       1 213120                                
ID YTV   001101175947      000012STATION ID                                                                                                                                                     
PGRYTV   001101180000183000003000OLSEN TWIN SPECIAL                                CASE OF VOLCANO MYSTERY EP22                                         2 28307ACC                              
COMYTV   001101180819      000030EST D22-70/102 DALMATIONS                                                                                                                                      
COMYTV   001101180849      000030HIGHWAY ENT/ADULTS CPA 1                                                                                                                                       
COMYTV   001101180919      000030YTV PROMO/HASBRO ACTION MAN                                                                                                                                    
COMYTV   001101180949      000030FERRERO/KINDER SURPRISE                                                                                                                                        
COMYTV   001101181713      000030NESTLE/QUIK                                                                                                                                                    
COMYTV   001101181743      000030HWY/UNSKED 2000-20 CENTURY FOX                                                                                                                                 
COMYTV   001101181813      000030MATTEL/VARIOUS                                                                                                                                                 
COMYTV   001101181843      000030K CLARK/HUGGIES/LIL SWIMMERS                                                                                                                                   
PRCYTV   001101181914      000030YTV PROMO CONTRACT                                                                                                                                             
COMYTV   001101182352      000030HIGHWAY ENT/AD CPA HU 1                                                                                                                                        
COMYTV   001101182422      000030DISNEY VACATIONS/FAMILY                                                                                                                                        
COMYTV   001101182452      000030UNIVERSAL FILMS/GRINCH                                                                                                                                         
COMYTV   001101182522      000030KRAFT/FALL KIDS :30'S                                                                                                                                          
PRCYTV   001101182552      000015YTV PROMO CONTRACT                                                                                                                                             
PRCYTV   001101182607      000015YTV PROMO CONTRACT                                                                                                                                             
ID YTV   001101182947      000012STATION ID                                                                                                                                                     
PGRYTV   001101183000190000003000MONSTER BY MISTAKE                                JUNGLELAND EP21                                   MONSTEYTV   A30287 1 25307ECC                              
COMYTV   001101183819      000030MATTEL/VARIOUS                                                                                                                                                 
COMYTV   001101183849      000030HIGHWAY ENT/AD CPA HU 2                                                                                                                                        
COMYTV   001101183919      000030HASBRO/FALL '00 BASE                                                                                                                                           
COMYTV   001101183949      000030FERRERO/KINDER SURPRISE                                                                                                                                        
COMYTV   001101184719      000030NABISCO/PRODUCT SNAK                                                                                                                                           
COMYTV   001101184750      000030KELLOGG/VARIOUS - FALL                                                                                                                                         
COMYTV   001101184820      000030MATTEL/VARIOUS                                                                                                                                                 
COMYTV   001101184850      000030HWY/UNSKED 2000-20 CENTURY FOX                                                                                                                                 
COMYTV   001101185652      000015UNIVERSAL FILMS/GRINCH                                                                                                                                         
COMYTV   001101185708      000030HASBRO/FALL BASE                                                                                                                                               
COMYTV   001101185738      000030HIGHWAY ENT/KIDS HU                                                                                                                                            
COMYTV   001101185808      000030MICRO GAMES/MY DREAM BABY                                                                                                                                      
COMYTV   001101185838      000015GREYHOUND/CANADA/CORPORATE                                                                                                                                     
ID YTV   001101185947      000012STATION ID                                                                                                                                                     
PGRYTV   001101190000193012003012MONA THE VAMPIRE                                  SPITTING IMAGE/FUNHOUSE EP25                      FANCYCYTV   A18435 1 25307ECC                              
SPOYTV   001101190105      000010J&J/CLEAN & CLEAR                                                                                                                                              
COMYTV   001101190115      000030HASBRO/FALL '00 BASE                                                                                                                                           
COMYTV   001101190145      000030K CLARK/PULL UPS/KOTEX                                                                                                                                         
COMYTV   001101190215      000030YTV CO-MKTG/1/2 ZZZ'S PROMO                                                                                                                                    
COMYTV   001101190246      000015J&J/CLEAN & CLEAR                                                                                                                                              
COMYTV   001101190301      000015HIGHWAY ENT/AD CPA HU 3                                                                                                                                        
COMYTV   001101191422      000030NABISCO/PRODUCT SNAK                                                                                                                                           
COMYTV   001101191452      000030MICRO GAMES/HOPSCOTCH HEATHER                                                                                                                                  
COMYTV   001101191522      000030DISNEY VACATIONS/FAMILY                                                                                                                                        
COMYTV   001101191552      000030HWY/UNSKED 2000-20 CENTURY FOX                                                                                                                                 
COMYTV   001101192728      000030GRAND TOY/X-MEN                                                                                                                                                
COMYTV   001101192758      000030HIGHWAY ENT/AD CPA HU 4                                                                                                                                        
COMYTV   001101192828      000015GREYHOUND/CANADA/CORPORATE                                                                                                                                     
COMYTV   001101192844      000015SPIN MASTER TOYS/FLICK TRIX                                                                                                                                    
COMYTV   001101192859      000030CHRYSLER/DODGE CARAVAN                                                                                                                                         
ID YTV   001101192959      000012STATION ID                                                                                                                                                     
PGRYTV   001101193012200000002948I WAS A SIXTH GRADE ALIEN                         ALIEN QUIZ SHOW EP29                              HEVI  YTV   CXXXXX 1 25307BCC                              
COMYTV   001101193208      000030BUENA VISTA PIC/DALMATIONS 102                                                                                                                                 
COMYTV   001101193238      000030GENERAL MILLS/CINNAMON TOAST C                                                                                                                                 
COMYTV   001101193309      000030HIGHWAY ENT/WM CPA HU                                                                                                                                          
COMYTV   001101193339      000030YTV CO-MKTG/1/2 ZZZ'S PROMO                                                                                                                                    
PRCYTV   001101193409      000030YTV PROMO CONTRACT                                                                                                                                             
COMYTV   001101194159      000030NINTENDO/GOLD & SILVER                                                                                                                                         
COMYTV   001101194229      000030IRWIN/FALL KIDS                                                                                                                                                
COMYTV   001101194259      000030FERRERO/KINDER SURPRISE                                                                                                                                        
COMYTV   001101194329      000030HIGHWAY ENT/BARTER 4                                                                                                                                           
PRCYTV   001101194359      000030YTV PROMO CONTRACT                                                                                                                                             
COMYTV   001101195551      000015UNIVERSAL FILMS/GRINCH                                                                                                                                         
COMYTV   001101195606      000030MATTEL/BONUS SCHEDULE                                                                                                                                          
COMYTV   001101195636      000030UNIVERSAL MUSIC/CD BLINK 182                                                                                                                                   
COMYTV   001101195707      000030HIGHWAY ENT/KIDS CPA                                                                                                                                           
COMYTV   001101195737      000015CANADIAN BLOOD SERVI/CORPORATE                                                                                                                                 
PRCYTV   001101195752      000015YTV PROMO CONTRACT                                                                                                                                             
PRCYTV   001101195807      000030YTV PROMO CONTRACT                                                                                                                                             
ID YTV   001101195949      000012STATION ID                                                                                                                                                     
PGRYTV   001101200000203006003006WORST WITCH                                       SECRET SOCIETY EP27                               GALA  YTV   A40391 1 35307ACC                              
COMYTV   001101200900      000030HWY/UNSKED 2000-20 CENTURY FOX                                                                                                                                 
COMYTV   001101200930      000030HASBRO/FALL BASE                                                                                                                                               
COMYTV   001101201000      000100INGLIS/WHIRLPOOL                                                                                                                                               
COMYTV   001101201551      000030HASBRO/FALL '00 BASE                                                                                                                                           
COMYTV   001101201621      000030K CLARK/HUGGIES/LIL SWIMMERS                                                                                                                                   
COMYTV   001101201651      000030UNIVERSAL VIDEO/CASPER                                                                                                                                         
COMYTV   001101201722      000030MATTEL/WOMEN                                                                                                                                                   
COMYTV   001101202700      000030HASBRO/FALL '00 BASE                                                                                                                                           
COMYTV   001101202731      000030K CLARK/PULL UPS/KOTEX                                                                                                                                         
COMYTV   001101202801      000015UNIVERSAL FILMS/GRINCH                                                                                                                                         
COMYTV   001101202816      000030DISNEY VACATIONS/CRUISE LINES                                                                                                                                  
COMYTV   001101202846      000015GREYHOUND/CANADA/CORPORATE                                                                                                                                     
ID YTV   001101202954      000012STATION ID                                                                                                                                                     
PGRYTV   001101203006210038003032FREAKY STORIES                                    ONE IN A MILLION EP34                             BIGTIMYTV   CXXXXX 1 25307ECC                              
COMYTV   001101203628      000030YTV PR/NINTENDO/POKEMON GOLD&S                                                                                                                                 
COMYTV   001101203658      000030HIGHWAY ENT/BARTER 4                                                                                                                                           
COMYTV   001101203728      000030HASBRO/FALL BASE                                                                                                                                               
COMYTV   001101203758      000030LONDON LIFE/FREEDOM 55                                                                                                                                         
COMYTV   001101204356      000015HIGHWAY ENT/AD CPA HU 3                                                                                                                                        
COMYTV   001101204411      000030HASBRO/FALL BASE                                                                                                                                               
COMYTV   001101204441      000015BUENA VISTA/TOY STORY 2-TS2002                                                                                                                                 
COMYTV   001101204456      000030HIGHWAY ENT/BARTER 3                                                                                                                                           
COMYTV   001101204527      000030DISNEY VACATIONS/CRUISE LINES                                                                                                                                  
COMYTV   001101205119      000030HIGHWAY ENT/BARTER 1                                                                                                                                           
COMYTV   001101205149      000030MICRO GAMES/MY DREAM BABY                                                                                                                                      
COMYTV   001101205219      000030HIGHWAY ENT/TEEN CPA                                                                                                                                           
COMYTV   001101205249      000030DISNEY VACATIONS/CRUISE LINES                                                                                                                                  
ID YTV   001101205951      000012STATION ID                                                                                                                                                     
SPOYTV   001101210033      000005CARA OPS./SWISS CHALET                                                                                                                                         
PGRYTV   001101210038213114003036TREASURE                                          FEMININE/TREASURE'S PARTY EP3                     CINAR YTV   CXXXXX 1 35307ECC                              
COMYTV   001101210144      000030W LAMBERT/DENTYNE ICE                                                                                                                                          
COMYTV   001101210214      000030KODAK/ADVANTIX                                                                                                                                                 
COMYTV   001101210244      000015CANADIAN BLOOD SERVI/CORPORATE                                                                                                                                 
COMYTV   001101210259      000030LONDON LIFE/FREEDOM 55                                                                                                                                         
COMYTV   001101210330      000015GREYHOUND/CANADA/CORPORATE                                                                                                                                     
COMYTV   001101211350      000100P&G/BASE FALL                                                                                                                                                  
COMYTV   001101211450      000030COCA-COLA/COKE                                                                                                                                                 
COMYTV   001101211521      000030HIGHWAY ENT/WOMAN CPA                                                                                                                                          
COMYTV   001101212756      000030HIGHWAY ENT/BARTER 2                                                                                                                                           
COMYTV   001101212826      000030MATTEL/WOMEN                                                                                                                                                   
COMYTV   001101212856      000030HIGHWAY ENT/ADULTS CPA 2                                                                                                                                       
COMYTV   001101212927      000030INGLIS/WHIRLPOOL                                                                                                                                               
SPOYTV   001101213057      000005CARA OPS./SWISS CHALET                                                                                                                                         
ID YTV   001101213102      000012STATION ID                                                                                                                                                     
PGRYTV   001101213114220011002857CRUSH                                             IAN/STEPHANIE EP15                                                   2 283100CC                              
COMYTV   001101213759      0000303DO/THUNDER TANKS                                                                                                                                              
COMYTV   001101213829      000030ALLIANCE/LITTLE NICKY/HOT FILE                                                                                                                                 
COMYTV   001101213900      000030SCHNEIDER/MICHELINA'S                                                                                                                                          
COMYTV   001101213930      000030DISNEY VACATIONS/FAMILY                                                                                                                                        
COMYTV   001101214400      000030K CLARK/HUGGIES/LIL SWIMMERS                                                                                                                                   
COMYTV   001101214430      000030LG ELECTRONICS/APPLIANCES                                                                                                                                      
COMYTV   001101214501      000030HIGHWAY ENT/BARTER 2                                                                                                                                           
COMYTV   001101214531      000015SONY ENT/CHARLIE'S ANGELS                                                                                                                                      
COMYTV   001101214546      000015GREYHOUND/CANADA/CORPORATE                                                                                                                                     
COMYTV   001101215323      000030COCA-COLA/COKE                                                                                                                                                 
COMYTV   001101215354      000030UNIVERSAL/CASPERS HAUNTED X-MA                                                                                                                                 
COMYTV   001101215424      000030SCHNEIDER/MICHELINA'S                                                                                                                                          
COMYTV   001101215454      000030HIGHWAY ENT/AD CPA HU 1                                                                                                                                        
ID YTV   001101215952      000012STATION ID                                                                                                                                                     
PGRYTV   001101220011222956002945DOWNTOWN                                          LIMO EP8                                                             2 28307ECC                              
COMYTV   001101220315      000030DIAGEO/BURGER KING                                                                                                                                             
COMYTV   001101220345      000030ENERGIZER/ENERGIZER - BRAND E2                                                                                                                                 
COMYTV   001101220415      000030GEN MOTORS/VENTURE,MONTANA,CAV                                                                                                                                 
COMYTV   001101220445      000030IMPERIAL OIL/BRAND ADVERTISING                                                                                                                                 
PRCYTV   001101220515      000030YTV PROMO CONTRACT                                                                                                                                             
COMYTV   001101220954      000030W LAMBERT/DENTYNE ICE                                                                                                                                          
COMYTV   001101221024      000030SONY ENT/CHARLIE'S ANGELS                                                                                                                                      
COMYTV   001101221054      000030MATTEL/WOMEN                                                                                                                                                   
COMYTV   001101221124      000030HALLMARK/EVERYDAY                                                                                                                                              
PRCYTV   001101221154      000030YTV PROMO CONTRACT                                                                                                                                             
COMYTV   001101221905      000030K CLARK/HUGGIES/LIL SWIMMERS                                                                                                                                   
COMYTV   001101221935      000030HIGHWAY ENT/AD CPA HU 1                                                                                                                                        
COMYTV   001101222005      000030GEN MOTORS/VENTURE,MONTANA,CAV                                                                                                                                 
COMYTV   001101222035      000030HIGHWAY ENT/BARTER 3                                                                                                                                           
PRCYTV   001101222105      000030YTV PROMO CONTRACT                                                                                                                                             
PRCYTV   001101222135      000015YTV PROMO CONTRACT                                                                                                                                             
ID YTV   001101222944      000012STATION ID                                                                                                                                                     
PGRYTV   001101222956230000003004STUDENT BODIES                                    THE PILOT EP1                                     STUDEN      A22496 1 35307ACC                              
COMYTV   001101223259      000030ENERGIZER/ENERGIZER - BRAND E2                                                                                                                                 
COMYTV   001101223329      000030GEN MOTORS/VENTURE,MONTANA,CAV                                                                                                                                 
COMYTV   001101223359      000030W LAMBERT/DENTYNE ICE                                                                                                                                          
COMYTV   001101223430      000030COCA-COLA/COKE                                                                                                                                                 
COMYTV   001101224519      000030HIGHWAY ENT/ADULTS CPA 2                                                                                                                                       
COMYTV   001101224549      000030DIAGEO/BURGER KING                                                                                                                                             
COMYTV   001101224619      000030HIGHWAY ENT/BARTER 2                                                                                                                                           
COMYTV   001101224649      000030HIGHWAY ENT/TEEN CPA                                                                                                                                           
COMYTV   001101225241      000030COCA-COLA/COKE                                                                                                                                                 
COMYTV   001101225311      000030ENERGIZER/ENERGIZER - BRAND E2                                                                                                                                 
COMYTV   001101225341      000030K CLARK/KOTEX/HUGGIES/PULL UPS                                                                                                                                 
COMYTV   001101225412      000030HALLMARK/EVERYDAY                                                                                                                                              
PRCYTV   001101225442      000030YTV PROMO CONTRACT                                                                                                                                             
ID YTV   001101225947      000012STATION ID                                                                                                                                                     
PGRYTV   001101230000233000003000FREAKY STORIES                                    ONE IN A MILLION EP34                             BIGTIMYTV   CXXXXX 1 35307ECC                              
COMYTV   001101230622      000030HIGHWAY ENT/AD CPA HU 2                                                                                                                                        
COMYTV   001101230652      000030TOYOTA/RAV 4                                                                                                                                                   
COMYTV   001101230722      000030IMPERIAL OIL/BRAND ADVERTISING                                                                                                                                 
COMYTV   001101230752      000030COCA-COLA/COKE                                                                                                                                                 
COMYTV   001101231352      000030DIAGEO/BURGER KING                                                                                                                                             
COMYTV   001101231422      000030TETLEY TEA/BLUE                                                                                                                                                
COMYTV   001101231452      000015J&J/CLEAN & CLEAR                                                                                                                                              
COMYTV   001101231508      000015HIGHWAY ENT/AD CPA HU 3                                                                                                                                        
COMYTV   001101231523      000030TREEHOUSE MALL TOUR/PLAYDOH                                                                                                                                    
COMYTV   001101232115      000030HIGHWAY ENT/ADULTS CPA 1                                                                                                                                       
COMYTV   001101232145      000030K CLARK/PULL UPS/KOTEX                                                                                                                                         
COMYTV   001101232216      000030HALLMARK/EVERYDAY                                                                                                                                              
COMYTV   001101232246      000030COCA-COLA/COKE                                                                                                                                                 
ID YTV   001101232947      000012STATION ID                                                                                                                                                     
PGRYTV   001101233000000002003002GUNDAM WING                                       GLASS KINGDOM EP31                                            DXXXXX 7 28307ECC2                             
COMYTV   001101233835      000030NABISCO/PRIMO SOUP                                                                                                                                             
COMYTV   001101233905      000100P&G/BASE FALL                                                                                                                                                  
COMYTV   001101234005      000030HIGHWAY ENT/BARTER 2                                                                                                                                           
COMYTV   001101234434      0000303DO/THUNDER TANKS                                                                                                                                              
COMYTV   001101234504      000030DIAGEO/BURGER KING                                                                                                                                             
COMYTV   001101234534      000030MATTEL/WOMEN                                                                                                                                                   
COMYTV   001101234604      000030HIGHWAY ENT/WM CPA HU                                                                                                                                          
COMYTV   001101235220      000030KODAK/ADVANTIX                                                                                                                                                 
COMYTV   001101235250      000100P&G/BASE FALL                                                                                                                                                  
COMYTV   001101235350      000015HIGHWAY ENT/AD CPA HU 3                                                                                                                                        
COMYTV   001101235406      000015CANADIAN BLOOD SERVI/CORPORATE                                                                                                                                 
ID YTV   001101235950      000012STATION ID                                                                                                                                                     
PGRYTV   001101000002003100003058ARE YOU BEING SERVED?                             ANYTHING YOU CAN DO                                                  3 38807BCC                              
SPOYTV   001101001222      000010DIAGEO/CORP CC BILLBOARDS(OEP)                                                                                                                                 
COMYTV   001101001232      000030SCHNEIDER/MICHELINA'S                                                                                                                                          
COMYTV   001101001303      000030HIGHWAY ENT/AD CPA HU 4                                                                                                                                        
COMYTV   001101001333      000030HIGHWAY ENT/AD CPA HU 2                                                                                                                                        
COMYTV   001101001403      000030FIDELITY INVESTMENTS                                                                                                                                           
COMYTV   001101001932      000030K CLARK/KOTEX/HUGGIES/PULL UPS                                                                                                                                 
COMYTV   001101002002      000030COCA-COLA/COKE                                                                                                                                                 
COMYTV   001101002032      000030IMPERIAL OIL/BRAND ADVERTISING                                                                                                                                 
COMYTV   001101002103      000030LG ELECTRONICS/APPLIANCES                                                                                                                                      
COMYTV   001101002604      000030FIDELITY INVESTMENTS                                                                                                                                           
COMYTV   001101002634      000030GEN MOTORS/VENTURE,MONTANA,CAV                                                                                                                                 
COMYTV   001101002704      000030K CLARK/PULL UPS/KOTEX                                                                                                                                         
COMYTV   001101002735      000030SONY VIDEO/HOME ENTERTAINMENT                                                                                                                                  
ID YTV   001101003047      000012STATION ID                                                                                                                                                     
PGRYTV   001101003100010641003541KEEPING UP APPEARANCES                            EPS 39                                                               3 38807BCC                              
SPOYTV   001101004054      000010DIAGEO/CORP CC BILLBOARDS(OEP)                                                                                                                                 
COMYTV   001101004104      000030COCA-COLA/COKE                                                                                                                                                 
COMYTV   001101004135      000015CANADIAN BLOOD SERVI/CORPORATE                                                                                                                                 
COMYTV   001101004150      000030ALLIANCE/LITTLE NICKY                                                                                                                                          
COMYTV   001101004220      000030HIGHWAY ENT/AD CPA HU 1                                                                                                                                        
COMYTV   001101004250      000015HIGHWAY ENT/AD CPA HU 3                                                                                                                                        
COMYTV   001101004748      000030LG ELECTRONICS/APPLIANCES                                                                                                                                      
COMYTV   001101004819      000030SONY VIDEO/HOME ENTERTAINMENT                                                                                                                                  
COMYTV   001101004849      000030FIDELITY INVESTMENTS                                                                                                                                           
COMYTV   001101004919      000030DISNEY VACATIONS/CRUISE LINES                                                                                                                                  
COMYTV   001101005651      000030SONY/SONY STORE                                                                                                                                                
COMYTV   001101005721      000030HIGHWAY ENT/WOMAN CPA                                                                                                                                          
COMYTV   001101005752      000030K CLARK/PULL UPS/KOTEX                                                                                                                                         
COMYTV   001101005822      000030MATTEL/WOMEN                                                                                                                                                   
ID YTV   001101010628      000012STATION ID                                                                                                                                                     
PGRYTV   001101010641013658003017YES MINISTER                                      THE KEY                                                              3 38807BCC                              
COMYTV   001101011822      000030MCCORMICK'S/CLUB HOUSE                                                                                                                                         
COMYTV   001101011852      000030MAYTAG/IMAGE                                                                                                                                                   
COMYTV   001101011923      000030HIGHWAY ENT/BARTER 4                                                                                                                                           
COMYTV   001101011953      000030HIGHWAY ENT/ADULTS CPA 1                                                                                                                                       
COMYTV   001101012438      000100P&G/BASE FALL                                                                                                                                                  
COMYTV   001101012539      000030HIGHWAY ENT/ADULTS CPA 2                                                                                                                                       
COMYTV   001101012609      000030L'OREAL/MAYBELLINE                                                                                                                                             
COMYTV   001101012915      000030ENERGIZER/ENERGIZER - BRAND E2                                                                                                                                 
COMYTV   001101012945      000015J&J/CLEAN & CLEAR                                                                                                                                              
COMYTV   001101013000      000030HIGHWAY ENT/BARTER 2                                                                                                                                           
COMYTV   001101013030      000015HIGHWAY ENT/AD CPA HU 3                                                                                                                                        
COMYTV   001101013045      000030HIGHWAY ENT/AD CPA HU 1                                                                                                                                        
ID YTV   001101013646      000012STATION ID                                                                                                                                                     
PGRYTV   001101013658020601002903ROCKY & BULLWINKLE                                EPS 71                                                               2 38307E                                
COMYTV   001101014225      000030DISNEY VACATIONS/FAMILY                                                                                                                                        
COMYTV   001101014255      000030HWY/UNSKED 2000-20 CENTURY FOX                                                                                                                                 
COMYTV   001101014325      000030HIGHWAY ENT/BARTER 1                                                                                                                                           
COMYTV   001101014356      000030HIGHWAY ENT/BARTER 3                                                                                                                                           
COMYTV   001101015004      000030HALLMARK/EVERYDAY                                                                                                                                              
COMYTV   001101015034      000030HIGHWAY ENT/WM CPA HU                                                                                                                                          
COMYTV   001101015104      000100P&G/BASE FALL                                                                                                                                                  
COMYTV   001101015854      000030CHRYSLER/DODGE CARAVAN                                                                                                                                         
COMYTV   001101015925      000100P&G/BASE FALL                                                                                                                                                  
COMYTV   001101020025      000030DIAGEO/BURGER KING                                                                                                                                             
ID YTV   001101020549      000012STATION ID                                                                                                                                                     
PGRYTV   001101020601023612003011HEY ARNOLD                                        COACH WITTENBERG/SCIENCE FAIR                                        2 38307ECC                              
COMYTV   001101021234      000030SHAW @ HOME/VARIOUS                                                                                                                                            
COMYTV   001101021304      000100P&G/BASE FALL                                                                                                                                                  
COMYTV   001101021404      000030DIAGEO/BURGER KING                                                                                                                                             
COMYTV   001101022005      000030HIGHWAY ENT/ADULTS CPA 2                                                                                                                                       
COMYTV   001101022035      000030HWY/UNSKED 2000-20 CENTURY FOX                                                                                                                                 
COMYTV   001101022106      000030HIGHWAY ENT/WOMAN CPA                                                                                                                                          
COMYTV   001101022136      000030MAYTAG/IMAGE                                                                                                                                                   
COMYTV   001101023233      000030K CLARK/HUGGIES/LIL SWIMMERS                                                                                                                                   
COMYTV   001101023303      000030TOYOTA/RAV 4                                                                                                                                                   
COMYTV   001101023333      000015HIGHWAY ENT/AD CPA HU 3                                                                                                                                        
COMYTV   001101023348      000015J&J/CLEAN & CLEAR                                                                                                                                              
COMYTV   001101023404      000030L'OREAL/MAYBELLINE                                                                                                                                             
ID YTV   001101023559      000012STATION ID                                                                                                                                                     
PGRYTV   001101023612030336002724ROSWELL CONSPIRACIES                              AREA 51 EP24                                                         4 38307ECC                              
COMYTV   001101023701      000030ENERGIZER/ENERGIZER - BRAND E2                                                                                                                                 
COMYTV   001101023732      000100P&G/PRE-EMPTIBLE FALL                                                                                                                                          
COMYTV   001101023832      000030HIGHWAY ENT/AD CPA HU 4                                                                                                                                        
COMYTV   001101024415      000015GREYHOUND/CANADA/CORPORATE                                                                                                                                     
COMYTV   001101024430      000030HIGHWAY ENT/ADULTS CPA 1                                                                                                                                       
COMYTV   001101024500      000100P&G/BASE FALL                                                                                                                                                  
COMYTV   001101024600      000015HIGHWAY ENT/AD CPA HU 3                                                                                                                                        
COMYTV   001101025451      000030TREEHOUSE MALL TOUR/PLAYDOH                                                                                                                                    
COMYTV   001101025521      000100P&G/BASE FALL                                                                                                                                                  
COMYTV   001101025622      000030DISNEY VACATIONS/CRUISE LINES                                                                                                                                  
ID YTV   001101030323      000012STATION ID                                                                                                                                                     
PGRYTV   001101030336032804002428WALTER MELON                                      E=MELON 2 EPS 52                                                     3 38307ECC                              
COMYTV   001101030441      000100P&G/BASE FALL                                                                                                                                                  
COMYTV   001101030541      000100AMEXAIR MILES                                                                                                                                                  
COMYTV   001101031757      000100P&G/PRE-EMPTIBLE FALL                                                                                                                                          
COMYTV   001101031857      000030HIGHWAY ENT/WM CPA HU                                                                                                                                          
COMYTV   001101031927      000030ALLIANCE/LITTLE VAMPIRE HOLDVR                                                                                                                                 
COMYTV   001101032603      000030MCCORMICK'S/CLUB HOUSE                                                                                                                                         
COMYTV   001101032633      000030SHAW @ HOME/VARIOUS                                                                                                                                            
COMYTV   001101032703      000100AMEXAIR MILES                                                                                                                                                  
PSAYTV   001101032804032903000059COVENANT HOUSE               .                    BUS SHELTER                                                          1 000130                                
PGRYTV   001101032903033527000624WALTER MELON                                      E=MELON 2 EPS 52                                                     3 38307ECC                              
ID YTV   001101033514      000012STATION ID                                                                                                                                                     
PGRYTV   001101033527040255002728BATMAN (ANIMATED)                                 SIGNS OF THE FATHER EP87                                             2 38307E                                
COMYTV   001101033636      000030DISNEY VACATIONS/FAMILY                                                                                                                                        
COMYTV   001101033706      000030HIGHWAY ENT/WOMAN CPA                                                                                                                                          
COMYTV   001101033736      000030ALLIANCE/LITTLE NICKY/HOT FILE                                                                                                                                 
COMYTV   001101033806      000030HASBRO CANADA INC.                                                                                                                                             
COMYTV   001101034500      000030HIGHWAY ENT/BARTER 4                                                                                                                                           
COMYTV   001101034530      000030ENERGIZER/ENERGIZER - BRAND E2                                                                                                                                 
COMYTV   001101034600      000100AMEXAIR MILES                                                                                                                                                  
COMYTV   001101035156      000030SCHNEIDER/MICHELINA'S                                                                                                                                          
COMYTV   001101035226      000030HWY/UNSKED 2000-20 CENTURY FOX                                                                                                                                 
COMYTV   001101035257      000030IRWIN TOY LTD.                                                                                                                                                 
COMYTV   001101035327      000030ALLIANCE/LITTLE VAMPIRE HOLDVR                                                                                                                                 
ID YTV   001101040242      000012STATION ID                                                                                                                                                     
PGRYTV   001101040255043118002823DRAGON BALL Z (ENG. VERS.)                        A COLLISION COURSE EP38                                       D01488 7 38307ECC2                             
COMYTV   001101040940      000030HALLMARK/EVERYDAY                                                                                                                                              
COMYTV   001101041010      000030HIGHWAY ENT/BARTER 3                                                                                                                                           
COMYTV   001101041040      000015CANADIAN BLOOD SERVI/CORPORATE                                                                                                                                 
COMYTV   001101041055      000015J&J/CLEAN & CLEAR                                                                                                                                              
COMYTV   001101041111      000030MATTEL CANADA INC.                                                                                                                                             
COMYTV   001101042024      000030K CLARK/KOTEX/HUGGIES/PULL UPS                                                                                                                                 
COMYTV   001101042055      000030HIGHWAY ENT/BARTER 2                                                                                                                                           
COMYTV   001101042125      000030HASBRO CANADA INC.                                                                                                                                             
