PGRYTV   030401060000062503002503MONA THE VAMPIRE                                  MISERABLE/JURASSIC EP3                            FANCYCYTV   A18413 1 35107ECC                              
PRCYTV   030401060106      000030YTV PROMO CONTRACT                                                                                                                                             
PRCYTV   030401061243      000030YTV PROMO CONTRACT                                                                                                                                             
PRCYTV   030401062419      000015YTV PROMO CONTRACT                                                                                                                                             
INTYTV   030401062503062848000345CHIP 'N' ORBIT                                    EPS 44                                                               1 311120                                
INTYTV   030401062848063000000112STICKIN' AROUND                                   THIS IS A HICCUP!                                                    1 321120CC                              
ID YTV   030401062949      000012STATION ID                                                                                                                                                     
PGRYTV   030401063000065439002439MONSTER BY MISTAKE                                MOVING DAY EP24                                   MONSTEYTV   A30290 1 35107ECC                              
SPOYTV   030401063810      000010MCDONALDS/HAPPY MEAL                                                                                                                                           
PRCYTV   030401063820      000015YTV PROMO CONTRACT                                                                                                                                             
PRCYTV   030401064544      000015YTV PROMO CONTRACT                                                                                                                                             
PRCYTV   030401065331      000015YTV PROMO CONTRACT                                                                                                                                             
PGRYTV   030401065439070121000642ELLIOT MOOSE                                      QUEEN OF THE WAVES EP4                                               1 32107GCC                              
ID YTV   030401070111      000012STATION ID                                                                                                                                                     
PGRYTV   030401070121072411002250SAILOR MOON (#1-65)                               SAILOR V MAKES THE SCENE                                      D01277 7 38107ECC2                             
PRCYTV   030401070321      000015YTV PROMO CONTRACT                                                                                                                                             
PRCYTV   030401071007      000015YTV PROMO CONTRACT                                                                                                                                             
PRCYTV   030401071953      000015YTV PROMO CONTRACT                                                                                                                                             
PGRYTV   030401072411072911000500AT THE FUNNY FARM (#1-40)                         SWAN                                              REDCAP      C14543 1 35105A                                
INTYTV   030401072911073023000112STICKIN' AROUND                                   THE MUCUS TOUCH                                                      1 321120CC                              
ID YTV   030401073014      000012STATION ID                                                                                                                                                     
PGRYTV   030401073023075720002657HAMTARO                                           PASHMINA'S PRESENT  EP 22                                     D02043 7 38307ECC2                             
SPOYTV   030401073140      000010MATTEL/HE-MAN SUPPORT                                                                                                                                          
COMYTV   030401073150      000030MCDONALDS/HAPPY MEAL                                                                                                                                           
COMYTV   030401073220      000030KRAFT/P1 :30'S POST CEREAL PRO                                                                                                                                 
PRCYTV   030401073250      000030YTV PROMO CONTRACT                                                                                                                                             
PROYTV   030401073320      000030YTV PROMO CONTRACT                                                                                                                                             
COMYTV   030401073951      000030MATTEL/SPRING VARIOUS                                                                                                                                          
COMYTV   030401074021      000030MATTEL/SPRING VARIOUS                                                                                                                                          
COMYTV   030401074051      000030MINUTE MAID/BIBO                                                                                                                                               
COMYTV   030401074121      000030SPIN MASTER TOYS/CRAFTS                                                                                                                                        
PRCYTV   030401074151      000030YTV PROMO CONTRACT                                                                                                                                             
COMYTV   030401074848      000015PARAMOUNT/WILD THORNBERRYS                                                                                                                                     
COMYTV   030401074903      000015HASBRO/PREFALL 2003 PART 2 OF2                                                                                                                                 
COMYTV   030401074918      000030MATTEL/SPRING VARIOUS                                                                                                                                          
PRCYTV   030401074948      000030YTV PROMO CONTRACT                                                                                                                                             
PRCYTV   030401075018      000030YTV PROMO CONTRACT                                                                                                                                             
INTYTV   030401075720080032000312NANALAN'                                          CATERPILLER EP6                                                      1 353120                                
ID YTV   030401080022      000012STATION ID                                                                                                                                                     
PGRYTV   030401080032082912002840RUGRATS                                           APR -PLANTING DILL/JOKE'S E116                                       2 38307ECC                              
SPOYTV   030401080126      000010CHEESE STRINGS/BEYBLADE PROMO                                                                                                                                  
COMYTV   030401080136      000030MATTEL/SPRING VARIOUS                                                                                                                                          
COMYTV   030401080206      000030MATTEL/BONUS CONTRACT                                                                                                                                          
PROYTV   030401080236      000015YTV PROMO CONTRACT                                                                                                                                             
COMYTV   030401081403      000030BABY BORN/MAGGIE RAGGIES                                                                                                                                       
COMYTV   030401081433      000015HASBRO/PREFALL 2003 PART 2 OF2                                                                                                                                 
COMYTV   030401081448      000015HASBRO/PREFALL 2003 PART 2 OF2                                                                                                                                 
COMYTV   030401081503      000030MATTEL/SPRING VARIOUS                                                                                                                                          
COMYTV   030401081533      000030KELLOGG/FROSTED FLAKES                                                                                                                                         
COMYTV   030401082715      000030YTV CO-MKTG/CHEESTRINGS CO-MAR                                                                                                                                 
COMYTV   030401082745      000015PARAMOUNT/WILD THORNBERRYS                                                                                                                                     
COMYTV   030401082800      000015HASBRO/PREFALL 2003 PART 2 OF2                                                                                                                                 
PRCYTV   030401082815      000015YTV PROMO CONTRACT                                                                                                                                             
INTYTV   030401082912083041000129NELVANA INTERSTITIALS                             GONE BUT NOT FORGOTTEN                                               1 321120                                
ID YTV   030401083032      000012STATION ID                                                                                                                                                     
PGRYTV   030401083041085531002450UH OH!                                            EPS 222                                                              1 313110CC                              
PRCYTV   030401083400      000030YTV PROMO CONTRACT                                                                                                                                             
PRCYTV   030401084039      000030YTV PROMO CONTRACT                                                                                                                                             
PRCYTV   030401084729      000030YTV PROMO CONTRACT                                                                                                                                             
INTYTV   030401085531085917000346CHIP 'N' ORBIT                                    EPS 45                                                               1 311120                                
INTYTV   030401085917090029000112STICKIN' AROUND                                   POOL PARTY                                                           1 321120CC                              
ID YTV   030401090021      000012STATION ID                                                                                                                                                     
PGRYTV   030401090029092448002419LITTLE BEAR                                       SING SONG/HOUSE/TREE  EPS 29                                         1 32107E                                
SPOYTV   030401092442      000010MCDONALDS/HAPPY MEAL                                                                                                                                           
INTYTV   030401092448092649000201NELVANA INTERSTITIALS                             YOU ARE WHAT YOU EAT                                                 1 321120                                
PRCYTV   030401092552      000030YTV PROMO CONTRACT                                                                                                                                             
PRCYTV   030401092622      000030YTV PROMO CONTRACT                                                                                                                                             
INTYTV   030401092649092749000100STICKIN' AROUND                                   BUTTNOCCHIO                                                          1 321120CC                              
INTYTV   030401092749093034000245NELVANA INTERSTITIALS                             ALL'S QUIET ON MONSTER FRONT                                         1 321120                                
PRCYTV   030401092925      000030YTV PROMO CONTRACT                                                                                                                                             
PRCYTV   030401092955      000030YTV PROMO CONTRACT                                                                                                                                             
ID YTV   030401093025      000012STATION ID                                                                                                                                                     
PGRYTV   030401093034095217002143CARE BEARS                                        TUGS THE BRAVE/COCONUT CRAZY                                         1 12107E                                
SPOYTV   030401095209      000010MCDONALDS/HAPPY MEAL                                                                                                                                           
PGRYTV   030401095217100000000743AT THE FUNNY FARM (#1-40)                         RABBIT                                            REDCAP      C14543 1 35105A                                
PRCYTV   030401095722      000030YTV PROMO CONTRACT                                                                                                                                             
PRCYTV   030401095752      000030YTV PROMO CONTRACT                                                                                                                                             
PRCYTV   030401095822      000030YTV PROMO CONTRACT                                                                                                                                             
PRCYTV   030401095852      000030YTV PROMO CONTRACT                                                                                                                                             
PRCYTV   030401095922      000030YTV PROMO CONTRACT                                                                                                                                             
ID YTV   030401095952      000012STATION ID                                                                                                                                                     
PGRYTV   030401100000102347002347COUNTRY MOUSE & CITY MOUSE                        ARABIAN TAILS EP23                                CINAR       A73802 1 35107ECC                              
PGRYTV   030401102347103029000642ELLIOT MOOSE                                      SIR ELLIOT AND THE DRAGON EP5                                        1 32107GCC                              
ID YTV   030401103021      000012STATION ID                                                                                                                                                     
PGRYTV   030401103029105436002407RUPERT                                            APR - RUPERT AND THE APRIL                                           1 32107ECC                              
INTYTV   030401105436105702000226NELVANA INTERSTITIALS                             THE WHOLE TOOTH                                                      1 321120                                
PRCYTV   030401105634      000030YTV PROMO CONTRACT                                                                                                                                             
INTYTV   030401105702105802000100STICKIN' AROUND                                   CASA BLANK STARE                                                     1 321120CC                              
INTYTV   030401105802110009000207NELVANA INTERSTITIALS                             MONSTER TRASH                                                        1 321120                                
PRCYTV   030401105928      000030YTV PROMO CONTRACT                                                                                                                                             
ID YTV   030401105958      000012STATION ID                                                                                                                                                     
PGRYTV   030401110009112438002429MONSTER BY MISTAKE                                BACK IN TIME EP12                                 MONSTEYTV   A21776 1 35107ECC                              
PRCYTV   030401110810      000015YTV PROMO CONTRACT                                                                                                                                             
PRCYTV   030401111550      000015YTV PROMO CONTRACT                                                                                                                                             
PRCYTV   030401112339      000015YTV PROMO CONTRACT                                                                                                                                             
PGRYTV   030401112438113120000642ELLIOT MOOSE                                      A LION IN SUMMER EP6                                                 1 32107GCC                              
ID YTV   030401113111      000012STATION ID                                                                                                                                                     
PGRYTV   030401113120115634002514STICKIN' AROUND                                   MOUSE/TEXAS EP21                                                     1 32107ECC                              
PRCYTV   030401113229      000030YTV PROMO CONTRACT                                                                                                                                             
PRCYTV   030401114328      000030YTV PROMO CONTRACT                                                                                                                                             
PRCYTV   030401115433      000030YTV PROMO CONTRACT                                                                                                                                             
INTYTV   030401115634115753000119NELVANA INTERSTITIALS                             WIZ DUMB                                                             1 321120                                
INTYTV   030401115753120006000213NELVANA INTERSTITIALS                             CAMP UPPIDY                                                          1 321120                                
ID YTV   030401115958      000012STATION ID                                                                                                                                                     
PGRYTV   030401120006122819002813SAILOR MOON (#66-82)                              SECRET OF LUNA EP68                                           D01486 7 38307ECC2                             
SPOYTV   030401120207      000010DISCOVERY KIDS/DK WEB                                                                                                                                          
COMYTV   030401120217      000030MATTEL/SPRING VARIOUS                                                                                                                                          
COMYTV   030401120247      000015HASBRO/PREFALL 2003 PART 2 OF2                                                                                                                                 
COMYTV   030401120302      000015HASBRO/PREFALL 2003 PART 2 OF2                                                                                                                                 
PROYTV   030401120317      000030YTV PROMO CONTRACT                                                                                                                                             
PROYTV   030401120347      000030YTV PROMO CONTRACT                                                                                                                                             
COMYTV   030401121353      000030BANDAI/POWER RANGERS                                                                                                                                           
COMYTV   030401121423      000030MATTEL/SPRING VARIOUS                                                                                                                                          
COMYTV   030401121453      000015MEGABLOCK/ALIEN AGENCY                                                                                                                                         
COMYTV   030401121508      000030MATTEL/SPRING VARIOUS                                                                                                                                          
COMYTV   030401121538      000015HASBRO/PREFALL 2003 PART 2 OF2                                                                                                                                 
COMYTV   030401122141      000030GENERAL MILLS/VARIOUS                                                                                                                                          
COMYTV   030401122211      000015PARAMOUNT/WILD THORNBERRYS                                                                                                                                     
COMYTV   030401122226      000015HASBRO/PREFALL 2003 PART 2 OF2                                                                                                                                 
PRCYTV   030401122241      000030YTV PROMO CONTRACT                                                                                                                                             
PRCYTV   030401122311      000030YTV PROMO CONTRACT                                                                                                                                             
INTYTV   030401122819123018000159NELVANA INTERSTITIALS                             MISSION IMPROBIBLE                                                   1 323120                                
ID YTV   030401123009      000012STATION ID                                                                                                                                                     
PGRYTV   030401123018125713002655HAMTARO                                           PASHMINA'S PRESENT  EP 22                                     D02043 7 38307ECC2                             
SPOYTV   030401123135      000010MATTEL/HE-MAN SUPPORT                                                                                                                                          
COMYTV   030401123145      000030MATTEL/SPRING VARIOUS                                                                                                                                          
COMYTV   030401123215      000015HASBRO/PREFALL 2003 PART 2 OF2                                                                                                                                 
COMYTV   030401123230      000015HASBRO/PREFALL 2003 PART 2 OF2                                                                                                                                 
PROYTV   030401123245      000030YTV PROMO CONTRACT                                                                                                                                             
PROYTV   030401123315      000030YTV PROMO CONTRACT                                                                                                                                             
COMYTV   030401123946      000030NINTENDO/POKEMON                                                                                                                                               
COMYTV   030401124016      000030HASBRO/PREFALL 2003 PART 2 OF2                                                                                                                                 
COMYTV   030401124046      000015PARAMOUNT/WILD THORNBERRYS                                                                                                                                     
COMYTV   030401124101      000030MATTEL/SPRING VARIOUS                                                                                                                                          
COMYTV   030401124131      000015HASBRO/PREFALL 2003 PART 2 OF2                                                                                                                                 
PRCYTV   030401124146      000030YTV PROMO CONTRACT                                                                                                                                             
COMYTV   030401124843      000030MATTEL/BONUS CONTRACT                                                                                                                                          
COMYTV   030401124913      000030MATTEL/SPRING VARIOUS                                                                                                                                          
PRCYTV   030401124943      000030YTV PROMO CONTRACT                                                                                                                                             
PRCYTV   030401125013      000030YTV PROMO CONTRACT                                                                                                                                             
INTYTV   030401125713130026000313NANALAN'                                          FEED THE SQUIRREL EP7                                                1 351120                                
ID YTV   030401130017      000012STATION ID                                                                                                                                                     
PGRYTV   030401130026132627002601GEORGE SHRINKS                                    SNOWMAN'S LAND  EP 8                              NELVAN             1 32107E                                
INTYTV   030401132627133024000357CHIP 'N' ORBIT                                    EPS 46                                                               1 311120CC                              
ID YTV   030401133015      000012STATION ID                                                                                                                                                     
PGRYTV   030401133024135406002342LEGEND OF WHITE FANG                              THE ICE BOUND BOAT  EPS 8.                                    P10726 1 35107ACC                              
PGRYTV   030401135406135906000500AT THE FUNNY FARM (#1-40)                         ROOSTER                                           REDCAP      C14543 1 35105A                                
INTYTV   030401135906140101000155NELVANA INTERSTITIALS                             MAY THE BUNNY RISE TO MEET YOU                                       1 321120                                
ID YTV   030401140052      000012STATION ID                                                                                                                                                     
PGRYTV   030401140101142519002418MONA THE VAMPIRE                                  MISERABLE/JURASSIC EP3                            FANCYCYTV   A18413 1 35107ECC                              
PRCYTV   030401140210      000030YTV PROMO CONTRACT                                                                                                                                             
PRCYTV   030401141347      000015YTV PROMO CONTRACT                                                                                                                                             
PRCYTV   030401142508      000015YTV PROMO CONTRACT                                                                                                                                             
INTYTV   030401142519142934000415CHIP 'N' ORBIT                                    EPS 47                                                               1 311120                                
INTYTV   030401142934143047000113STICKIN' AROUND                                   JUMBO FRANK                                                          1 321120CC                              
ID YTV   030401143038      000012STATION ID                                                                                                                                                     
PGRYTV   030401143047145425002338SAILOR MOON (#1-65)                               SAILOR V MAKES THE SCENE                                      D01277 7 38107ECC2                             
PRCYTV   030401143248      000030YTV PROMO CONTRACT                                                                                                                                             
PRCYTV   030401143949      000030YTV PROMO CONTRACT                                                                                                                                             
PRCYTV   030401144950      000030YTV PROMO CONTRACT                                                                                                                                             
PGRYTV   030401145425145926000501AT THE FUNNY FARM (#1-40)                         SHEEP                                             REDCAP      C14543 1 35105A                                
INTYTV   030401145926150038000112STICKIN' AROUND                                   BYE BYE BABY BIRDIE                                                  1 321120CC                              
ID YTV   030401150026      000012STATION ID                                                                                                                                                     
PGRYTV   030401150038152748002710MEDABOTS                                          DUDE, WHERE'S MY MA? EP22                                     D01866 7 38307ECC2                             
SPOYTV   030401150616      000010BURGER KING/KIDS - VARIOUS                                                                                                                                     
COMYTV   030401150626      000030KRAFT/P1 :30'S POST CEREAL PRO                                                                                                                                 
COMYTV   030401150656      000015LEGO/BASKETBALL                                                                                                                                                
COMYTV   030401150711      000015HASBRO/PREFALL 2003 PART 2 OF2                                                                                                                                 
PROYTV   030401150726      000030YTV PROMO CONTRACT                                                                                                                                             
PROYTV   030401150756      000030YTV PROMO CONTRACT                                                                                                                                             
COMYTV   030401151326      000030TOPP'S/BABY BOTTLE/RING POP                                                                                                                                    
COMYTV   030401151356      000030MATTEL/SPRING VARIOUS                                                                                                                                          
COMYTV   030401151426      000030MCDONALDS/HAPPY MEAL                                                                                                                                           
COMYTV   030401151456      000030MATTEL/SPRING VARIOUS                                                                                                                                          
COMYTV   030401152106      000030LEGO/HARRY POTTER                                                                                                                                              
COMYTV   030401152136      000030MATTEL/SPRING VARIOUS                                                                                                                                          
INTYTV   030401152748153000000212TECH ART                                          EP 51                                                                1 313120                                
ID YTV   030401152948      000012STATION ID                                                                                                                                                     
PGRYTV   030401153000155702002702MONSTER RANCHER (#1-26)                           MONOL'S STORY EP12                                            D01648 7 38307E  2                             
SPOYTV   030401153106      000010BURGER KING/KIDS - VARIOUS                                                                                                                                     
COMYTV   030401153116      000030MATTEL/SPRING VARIOUS                                                                                                                                          
COMYTV   030401153146      000015PARAMOUNT/WILD THORNBERRYS                                                                                                                                     
COMYTV   030401153201      000015HASBRO/PREFALL 2003 PART 2 OF2                                                                                                                                 
PRCYTV   030401153216      000030YTV PROMO CONTRACT                                                                                                                                             
COMYTV   030401154013      000030MATTEL/SPRING VARIOUS                                                                                                                                          
COMYTV   030401154043      000030KELLOGG/RICE KRISPIES                                                                                                                                          
COMYTV   030401154113      000030KRAFT/KIDS P1 :30'S                                                                                                                                            
COMYTV   030401154143      000030MATTEL/SPRING VARIOUS                                                                                                                                          
PRCYTV   030401154213      000030YTV PROMO CONTRACT                                                                                                                                             
COMYTV   030401154844      000015HASBRO/PREFALL 2003 PART 2 OF2                                                                                                                                 
COMYTV   030401154859      000030MATTEL/SPRING VARIOUS                                                                                                                                          
COMYTV   030401154929      000015HASBRO/PREFALL 2003 PART 2 OF2                                                                                                                                 
PRCYTV   030401154944      000030YTV PROMO CONTRACT                                                                                                                                             
INTYTV   030401155702160005000303PROGRAM JOCKEY                                    PROGRAM JOCKEY                                                       1 213120                                
ID YTV   030401155948      000012STATION ID                                                                                                                                                     
SPOYTV   030401160000      000005KELLOGG/VARIOUS-BILLBOARD CAMP                                                                                                                                 
PGRYTV   030401160005162736002731WILD THORNBERRYS                                  APR - APRIL FOOLS DAY  EPS 63                                        2 38307ECC                              
SPOYTV   030401161000      000010CHEESE STRINGS/BEYBLADE PROMO                                                                                                                                  
COMYTV   030401161010      000030SONY ENT/DADDY DAY CARE-KIDS P                                                                                                                                 
COMYTV   030401161040      000030KRAFT/KIDS P1 :30'S                                                                                                                                            
COMYTV   030401161719      000030KELLOGG/RICE KRISPIES                                                                                                                                          
COMYTV   030401161749      000030MATTEL/SPRING VARIOUS                                                                                                                                          
COMYTV   030401161819      000030MATTEL/SPRING VARIOUS                                                                                                                                          
COMYTV   030401161849      000030LEGO/HARRY POTTER                                                                                                                                              
COMYTV   030401162632      000030MATTEL/SPRING VARIOUS                                                                                                                                          
COMYTV   030401162702      000030MATTEL/SPRING VARIOUS                                                                                                                                          
INTYTV   030401162736163000000224PROGRAM JOCKEY                                    PROGRAM JOCKEY                                                       1 213120                                
ID YTV   030401162948      000012STATION ID                                                                                                                                                     
PGRYTV   030401163000165808002808HEY ARNOLD                                        APR - APRIL FOOLS                                                    2 28307ECC                              
SPOYTV   030401163637      000010MATTEL/HE-MAN SUPPORT                                                                                                                                          
COMYTV   030401163647      000030NINTENDO/POKEMON                                                                                                                                               
COMYTV   030401163717      000015PARAMOUNT/WILD THORNBERRYS                                                                                                                                     
COMYTV   030401163732      000015HASBRO/PREFALL 2003 PART 2 OF2                                                                                                                                 
COMYTV   030401164238      000030HASBRO/PREFALL 2003 PART 2 OF2                                                                                                                                 
COMYTV   030401164308      000030MATTEL/SPRING VARIOUS                                                                                                                                          
COMYTV   030401164338      000030MATTEL/SPRING VARIOUS                                                                                                                                          
COMYTV   030401164408      000030MATTEL/SPRING VARIOUS                                                                                                                                          
COMYTV   030401165650      000030MATTEL/SPRING VARIOUS                                                                                                                                          
COMYTV   030401165720      000030MATTEL/SPRING VARIOUS                                                                                                                                          
PRCYTV   030401165750      000015YTV PROMO CONTRACT                                                                                                                                             
INTYTV   030401165808170000000152PROGRAM JOCKEY                                    PROGRAM JOCKEY                                                       1 213120                                
ID YTV   030401165948      000012STATION ID                                                                                                                                                     
PGRYTV   030401170000172606002606YU-GI-OH                                          LEGENDARY FISHERMAN II EP69                                          7 28307ECC                              
SPOYTV   030401170535      000010BURGER KING/KIDS - VARIOUS                                                                                                                                     
COMYTV   030401170545      000030KRAFT/P1 :30'S POST CEREAL PRO                                                                                                                                 
COMYTV   030401170615      000015HASBRO/PREFALL 2003 PART 2 OF2                                                                                                                                 
COMYTV   030401170630      000015HIGHWAY ENTERTAINMENT                                                                                                                                          
PRCYTV   030401170645      000015YTV PROMO CONTRACT                                                                                                                                             
COMYTV   030401171219      000030KRAFT/P1 :30'S POST CEREAL PRO                                                                                                                                 
COMYTV   030401171249      000030BABY BORN MINI WORLD                                                                                                                                           
COMYTV   030401171319      000015HASBRO/PREFALL 2003 PART 2 OF2                                                                                                                                 
COMYTV   030401171334      000015HASBRO/PREFALL 2003 PART 2 OF2                                                                                                                                 
COMYTV   030401171349      000030YTV CO-MKTG/CHEESTRINGS CO-MAR                                                                                                                                 
COMYTV   030401171801      000030MINUTE MAID/BIBO                                                                                                                                               
COMYTV   030401171831      000030KRAFT/KIDS P1 :30'S                                                                                                                                            
PRCYTV   030401171901      000030YTV PROMO CONTRACT                                                                                                                                             
PRCYTV   030401171931      000015YTV PROMO CONTRACT                                                                                                                                             
INTYTV   030401172606173000000354PROGRAM JOCKEY                                    PROGRAM JOCKEY                                                       1 213120                                
ID YTV   030401172948      000012STATION ID                                                                                                                                                     
PGRYTV   030401173000175805002805FAIRLY ODD PARENTS                                APR-FOOL'S DAY/DEJA VU  EP 18                                        2 28307ECC                              
SPOYTV   030401173051      000010KRAFT/LUNCHABLES SPONSORSHIP                                                                                                                                   
COMYTV   030401173101      000030KRAFT/P1 :30'S POST CEREAL PRO                                                                                                                                 
COMYTV   030401173131      000030MATTEL/SPRING VARIOUS                                                                                                                                          
COMYTV   030401174337      000030MATTEL/SPRING VARIOUS                                                                                                                                          
COMYTV   030401174407      000030MCDONALDS/HAPPY MEAL                                                                                                                                           
COMYTV   030401174437      000030MATTEL/SPRING VARIOUS                                                                                                                                          
COMYTV   030401174507      000015HASBRO/PREFALL 2003 PART 2 OF2                                                                                                                                 
COMYTV   030401174522      000015YTV MARKETING/WHOA SPR                                                                                                                                         
COMYTV   030401175646      000030SONY ENT/DADDY DAY CARE-KIDS P                                                                                                                                 
COMYTV   030401175716      000030MATTEL/SPRING VARIOUS                                                                                                                                          
PRCYTV   030401175746      000015YTV PROMO CONTRACT                                                                                                                                             
INTYTV   030401175805180005000200PROGRAM JOCKEY                                    PROGRAM JOCKEY                                                       1 213120                                
ID YTV   030401175948      000012STATION ID                                                                                                                                                     
SPOYTV   030401180000      000005HERSHEY/MOULDED BARS                                                                                                                                           
PGRYTV   030401180005183035003030SPONGEBOB SQUAREPANTS                             APR - FOOLS/SPATULA E19                                              2 38307ECC                              
SPOYTV   030401180054      000010CHEESE STRINGS/BEYBLADE PROMO                                                                                                                                  
COMYTV   030401180104      000015BVHV/ROGER RABBIT TEENS                                                                                                                                        
COMYTV   030401180119      000030MATTEL/SPRING VARIOUS                                                                                                                                          
COMYTV   030401180149      000030SPIN MASTER TOYS/CRAFTS                                                                                                                                        
COMYTV   030401180219      000015HASBRO/PREFALL 2003 PART 2 OF2                                                                                                                                 
COMYTV   030401180234      000030MINUTE MAID/BIBO                                                                                                                                               
COMYTV   030401181411      000030MATTEL/SPRING VARIOUS                                                                                                                                          
COMYTV   030401181441      000030HWY/SPINMASTER REPLACEMENT(2PK                                                                                                                                 
COMYTV   030401181511      000030MATTEL/SPRING VARIOUS                                                                                                                                          
COMYTV   030401181541      000015LONDON DRUGS/CLEARASIL                                                                                                                                         
COMYTV   030401181556      000015HERSHEY/MOULDED BARS                                                                                                                                           
COMYTV   030401182733      000030YOPLAIT/TUBES                                                                                                                                                  
COMYTV   030401182803      000030MATTEL/SPRING VARIOUS                                                                                                                                          
COMYTV   030401182833      000030HERSHEY/MOULDED BARS                                                                                                                                           
COMYTV   030401182903      000030MINUTE MAID/BIBO                                                                                                                                               
ID YTV   030401183018      000012STATION ID                                                                                                                                                     
SPOYTV   030401183030      000005K CLARK/HUGGIES SUPREME                                                                                                                                        
PGRYTV   030401183035190057003022AS TOLD BY GINGER                                 APR - APRIL FOOLS  EPS 31                                            2 28307ECC                              
SPOYTV   030401183126      000010WRIGLEY/JUICY FRUIT                                                                                                                                            
COMYTV   030401183136      000030BANDAI/STRAWBERRY SHORTCAKE RE                                                                                                                                 
COMYTV   030401183206      000015LONDON DRUGS/CLEARASIL                                                                                                                                         
COMYTV   030401183221      000030K CLARK/HUGGIES ULTRA SHORT                                                                                                                                    
COMYTV   030401183251      000030L'OREAL CANADA/FOREVER LIPS                                                                                                                                    
COMYTV   030401183321      000015GILLETTE/VENUS TEENS :15'S                                                                                                                                     
COMYTV   030401184235      000030K CLARK/HUGGIES SUPREME                                                                                                                                        
COMYTV   030401184305      000015J&J/CLEAN & CLEAR                                                                                                                                              
COMYTV   030401184320      000015HWY/KIDS CPA                                                                                                                                                   
COMYTV   030401184335      000030SONY ENT/DADDY DAY CARE-KIDS P                                                                                                                                 
COMYTV   030401184405      000030WRIGLEY/JUICY FRUIT                                                                                                                                            
COMYTV   030401185016      000030J&J/ACUVUE 2                                                                                                                                                   
COMYTV   030401185046      000030KRAFT/P1 :30'S POST CEREAL PRO                                                                                                                                 
COMYTV   030401185116      000015BVHV/ROGER RABBIT TEENS                                                                                                                                        
COMYTV   030401185131      000030MINUTE MAID/BIBO                                                                                                                                               
COMYTV   030401185201      000015HASBRO/PREFALL 2003 PART 2 OF2                                                                                                                                 
SPOYTV   030401190036      000005K CLARK/HUGGIES SUPREME                                                                                                                                        
ID YTV   030401190041      000012STATION ID                                                                                                                                                     
SPOYTV   030401190053      000005HERSHEY/MOULDED BARS                                                                                                                                           
PGRYTV   030401190057193111003014GIRLSTUFF/BOYSTUFF                                BIRTHDAY PARTY/SAVE ME                            DECODEYTV   A74608 1 35307ECC                              
SPOYTV   030401190149      000010LONDON DRUGS/CLEARASIL                                                                                                                                         
COMYTV   030401190159      000030BANDAI/STRAWBERRY SHORTCAKE RE                                                                                                                                 
COMYTV   030401190229      000030HWY/CPA-ADULT PACKAGE#3                                                                                                                                        
COMYTV   030401190259      000030K CLARK/BABY WIPES                                                                                                                                             
COMYTV   030401190329      000030HWY/KIDS CPA                                                                                                                                                   
COMYTV   030401191505      000030YOPLAIT/TUBES                                                                                                                                                  
COMYTV   030401191535      000030HWY/CPA-ADULT PACKAGE#1                                                                                                                                        
COMYTV   030401191605      000030SPIN MASTER TOYS/REPLACEMENT S                                                                                                                                 
COMYTV   030401191635      000015J&J/CLEAN & CLEAR                                                                                                                                              
COMYTV   030401191650      000015YTV MARKETING/BFPM4                                                                                                                                            
COMYTV   030401192826      000030NINTENDO/POKEMON                                                                                                                                               
COMYTV   030401192856      000030YOPLAIT/TUBES                                                                                                                                                  
COMYTV   030401192926      000030MATTEL/SPRING VARIOUS                                                                                                                                          
COMYTV   030401192956      000030WALMART/BABY DEPARTMENT                                                                                                                                        
ID YTV   030401193058      000012STATION ID                                                                                                                                                     
PGRYTV   030401193111200114003003YU-GI-OH                                          LEGENDARY FISHERMAN I EP68                                           7 38307ECC                              
SPOYTV   030401193730      000010DISCOVERY KIDS/DK WEB                                                                                                                                          
COMYTV   030401193740      000030TOPP'S/BABY BOTTLE/RING POP                                                                                                                                    
COMYTV   030401193810      000015KRAFT/W :15'S                                                                                                                                                  
COMYTV   030401193825      000030HERSHEY/REESE                                                                                                                                                  
COMYTV   030401193855      000015HWY/KIDS CPA                                                                                                                                                   
COMYTV   030401193910      000030KELLOGG/FROSTED FLAKES                                                                                                                                         
PRCYTV   030401193940      000030YTV PROMO CONTRACT                                                                                                                                             
COMYTV   030401194444      000030MATTEL/SPRING VARIOUS                                                                                                                                          
COMYTV   030401194514      000030HERSHEY/MOULDED BARS                                                                                                                                           
COMYTV   030401194544      000030GEN MILLS/PILLSBURY PIZZA POPS                                                                                                                                 
COMYTV   030401194614      000030WALMART/MUSIC/VIDEOS                                                                                                                                           
PRCYTV   030401194644      000030YTV PROMO CONTRACT                                                                                                                                             
COMYTV   030401195409      000030SHAW                                                                                                                                                           
COMYTV   030401195439      000015MEGABLOCK/ALIEN AGENCY                                                                                                                                         
COMYTV   030401195454      000030KRAFT/KIDS P1 :30'S                                                                                                                                            
COMYTV   030401195524      000030HWY/KIDS CPA                                                                                                                                                   
COMYTV   030401195554      000015HERSHEY/MOULDED BARS                                                                                                                                           
PRCYTV   030401195609      000030YTV PROMO CONTRACT                                                                                                                                             
PRCYTV   030401195639      000015YTV PROMO CONTRACT                                                                                                                                             
ID YTV   030401200059      000012STATION ID                                                                                                                                                     
PGRYTV   030401200114203051002937DRAGON BALL Z                                     RIP IN THE UNIVERSE  EPS 255                                  D02590 7 38307ECC2                             
SPOYTV   030401200217      000010EFFEM/M&M'S 10 SEC CC BB                                                                                                                                       
COMYTV   030401200227      000030KRAFT/KIDS P1 :30'S                                                                                                                                            
COMYTV   030401200257      000015HWY/PLAYTOY BARTER                                                                                                                                             
COMYTV   030401200312      000015HWY/KIDS CPA                                                                                                                                                   
COMYTV   030401200327      000030KRAFT/KIDS P1 :30'S                                                                                                                                            
COMYTV   030401200357      000030KRAFT/P1 :30'S POST CEREAL PRO                                                                                                                                 
PRCYTV   030401200427      000030YTV PROMO CONTRACT                                                                                                                                             
COMYTV   030401201452      000030KRAFT/P1 :30'S POST CEREAL PRO                                                                                                                                 
COMYTV   030401201522      000030MATTEL/SPRING VARIOUS                                                                                                                                          
COMYTV   030401201552      000030HASBRO/PREFALL 2003 PART 2 OF2                                                                                                                                 
COMYTV   030401201622      000030HERSHEY/REESE                                                                                                                                                  
PRCYTV   030401201652      000030YTV PROMO CONTRACT                                                                                                                                             
COMYTV   030401202711      000030KRAFT/P1 :30'S POST CEREAL PRO                                                                                                                                 
COMYTV   030401202741      000030MATTEL/SPRING VARIOUS                                                                                                                                          
COMYTV   030401202811      000030TRICON/K.F.C.                                                                                                                                                  
COMYTV   030401202841      000030YTV MARKETING/BFPM4                                                                                                                                            
PRCYTV   030401202911      000030YTV PROMO CONTRACT                                                                                                                                             
PRCYTV   030401202941      000030YTV PROMO CONTRACT                                                                                                                                             
ID YTV   030401203035      000012STATION ID                                                                                                                                                     
PGRYTV   030401203051210057003006REBOOT                                            RACING THE CLOCK                                  ALLIANYTV   P14545 1 35307ECC                              
SPOYTV   030401203523      000010MATTEL/HE-MAN SUPPORT                                                                                                                                          
COMYTV   030401203533      000100P&G/CORPORATE BASE BUY                                                                                                                                         
COMYTV   030401203633      000015BVHV/ROGER RABBIT TEENS                                                                                                                                        
COMYTV   030401203648      000015HASBRO/PREFALL 2003 PART 2 OF2                                                                                                                                 
COMYTV   030401203703      000030WARNER BROS/MALIBU'S MOST WANT                                                                                                                                 
COMYTV   030401204137      000030MATTEL/SPRING VARIOUS                                                                                                                                          
COMYTV   030401204207      000030J&J/ACUVUE 2                                                                                                                                                   
COMYTV   030401204237      000030NINTENDO/ZELDA                                                                                                                                                 
COMYTV   030401204307      000030GENERAL MILLS/BARTER                                                                                                                                           
COMYTV   030401205120      000030HERSHEY/REESE                                                                                                                                                  
COMYTV   030401205150      000030YOPLAIT/TUBES                                                                                                                                                  
COMYTV   030401205220      000030HWY/CPA-ADULT PACKAGE#1                                                                                                                                        
COMYTV   030401205250      000015HASBRO/PREFALL 2003 PART 2 OF2                                                                                                                                 
COMYTV   030401205305      000015HWY/KIDS CPA                                                                                                                                                   
ID YTV   030401210035      000012STATION ID                                                                                                                                                     
SPOYTV   030401210047      000005SCOTT PAPER/TOWELS&SCOTTIES                                                                                                                                    
PGRYTV   030401210057213126003029I LOVE MUMMY                                      FACE IT YOU'RE WRONG  EPS 20                      TUTTUTYTV   A68177 1 35307BCC                              
SPOYTV   030401210827      000010WRIGLEY/JUICY FRUIT                                                                                                                                            
COMYTV   030401210837      000100PRIMUS CANADA/PER INQUIRY $15P                                                                                                                                 
COMYTV   030401210937      000030K CLARK/KOTEX                                                                                                                                                  
COMYTV   030401211007      000030WRIGLEY/JUICY FRUIT                                                                                                                                            
COMYTV   030401211920      000030GEN MILLS/PILLSBURY PIZZA POPS                                                                                                                                 
COMYTV   030401211950      000030HWY/CPA-ADULT PACKAGE#1                                                                                                                                        
COMYTV   030401212020      000030K CLARK/BABY WIPES                                                                                                                                             
COMYTV   030401212050      000030SHAW                                                                                                                                                           
COMYTV   030401212759      000100PRIMUS CANADA/PER INQUIRY $15P                                                                                                                                 
COMYTV   030401212859      000030HWY/ADULT BARTER#1                                                                                                                                             
COMYTV   030401212929      000015J&J/CLEAN & CLEAR                                                                                                                                              
COMYTV   030401212944      000015LONDON DRUGS/CLEARASIL                                                                                                                                         
SPOYTV   030401213100      000005HERSHEY/MOULDED BARS                                                                                                                                           
ID YTV   030401213105      000012STATION ID                                                                                                                                                     
SPOYTV   030401213117      000005K CLARK/KOTEX                                                                                                                                                  
PGRYTV   030401213126220150003024RADIO ACTIVE ( III)(#53-78)                       MEAT VERSUS POTATOES EP72                         TELEACYTV   C16978 1 35307BCC                              
SPOYTV   030401213808      000010EFFEM/M&M'S 10 SEC CC BB                                                                                                                                       
COMYTV   030401213818      000030K CLARK/HUGGIES ULTRA SHORT                                                                                                                                    
COMYTV   030401213848      000100P&G/CORP BASE BUY/PRE-EMPTIBLE                                                                                                                                 
COMYTV   030401213948      000030TRICON/K.F.C.                                                                                                                                                  
COMYTV   030401214804      000030HWY/ADULT BARTER#1                                                                                                                                             
COMYTV   030401214834      000100P&G/CORPORATE NON-PREEMPT H.U.                                                                                                                                 
COMYTV   030401214934      000030STELLA PHARM/NUTRI BAR                                                                                                                                         
COMYTV   030401215756      000030K CLARK/KOTEX                                                                                                                                                  
COMYTV   030401215826      000030WALMART/BABY DEPARTMENT                                                                                                                                        
COMYTV   030401215856      000030NINTENDO/ZELDA                                                                                                                                                 
COMYTV   030401215926      000030GEN MILLS/PILLSBURY PIZZA POPS                                                                                                                                 
SPOYTV   030401220124      000005K CLARK/HUGGIES ULTRA SHORT                                                                                                                                    
ID YTV   030401220129      000012STATION ID                                                                                                                                                     
SPOYTV   030401220141      000005K CLARK/HUGGIES:ULTRA                                                                                                                                          
PGRYTV   030401220150223201003011BREAKER HIGH (#1-44)                              THE DECK FILES                                    SHAVIC      SR0291 1 36307ACC                              
SPOYTV   030401220341      000010EFFEM/M&M 10 SEC CC BB                                                                                                                                         
COMYTV   030401220351      000030K CLARK/KOTEX                                                                                                                                                  
COMYTV   030401220421      000030SHAW                                                                                                                                                           
COMYTV   030401220451      000015WARNER BROS/WHAT A GIRL WANTS                                                                                                                                  
COMYTV   030401220506      000030HERSHEY/REESE                                                                                                                                                  
COMYTV   030401220536      000015LONDON DRUGS                                                                                                                                                   
PRCYTV   030401220551      000030YTV PROMO CONTRACT                                                                                                                                             
COMYTV   030401221325      000030K CLARK/HUGGIES ULTRA SHORT                                                                                                                                    
COMYTV   030401221355      000030HWY/ADULT BARTER#2                                                                                                                                             
COMYTV   030401221425      000100SYLVAN LEARNING/SPRING CAMPAIG                                                                                                                                 
PRCYTV   030401221525      000030YTV PROMO CONTRACT                                                                                                                                             
PRCYTV   030401221555      000030YTV PROMO CONTRACT                                                                                                                                             
COMYTV   030401222612      000030J&J/ACUVUE 2                                                                                                                                                   
COMYTV   030401222642      000030HWY/CPA-ADULT PACKAGE#1                                                                                                                                        
COMYTV   030401222712      000030WALMART/MUSIC/VIDEOS                                                                                                                                           
COMYTV   030401222742      000030COLGATE-PALMOLIVE CANADA INC                                                                                                                                   
PRCYTV   030401222812      000030YTV PROMO CONTRACT                                                                                                                                             
PRCYTV   030401222842      000030YTV PROMO CONTRACT                                                                                                                                             
SPOYTV   030401223134      000005K CLARK/BABY WIPES                                                                                                                                             
ID YTV   030401223139      000012STATION ID                                                                                                                                                     
SPOYTV   030401223151      000005K CLARK/BABY WIPES                                                                                                                                             
PGRYTV   030401223201230139002938BIG WOLF ON CAMPUS                                MERTONATOR  EPS 59                                TELESC      C21967 1 35307BCC                              
SPOYTV   030401223910      000010EFFEM/M&M'S 10 SEC CC BB                                                                                                                                       
COMYTV   030401223920      000030HWY/CPA-ADULT PACKAGE#1                                                                                                                                        
COMYTV   030401223950      000100SYLVAN LEARNING/SPRING CAMPAIG                                                                                                                                 
COMYTV   030401224050      000030TRICON                                                                                                                                                         
PRCYTV   030401224120      000030YTV PROMO CONTRACT                                                                                                                                             
COMYTV   030401224735      000030HWY/ADULT BARTER#2                                                                                                                                             
COMYTV   030401224805      000100SYLVAN LEARNING/SPRING CAMPAIG                                                                                                                                 
COMYTV   030401224905      000030HIGHWAY ENTERTAINMENT                                                                                                                                          
PRCYTV   030401224935      000030YTV PROMO CONTRACT                                                                                                                                             
COMYTV   030401225726      000030HWY/CPA-ADULT PACKAGE#3                                                                                                                                        
COMYTV   030401225756      000030K CLARK/HUGGIES SUPREME                                                                                                                                        
COMYTV   030401225826      000015SCOTT PAPER/TOWELS&SCOTTIES                                                                                                                                    
COMYTV   030401225841      000015YTV MARKETING/BFPM4                                                                                                                                            
COMYTV   030401225856      000030MINUTE MAID/TETRA JUICES-SPONG                                                                                                                                 
PRCYTV   030401225926      000030YTV PROMO CONTRACT                                                                                                                                             
SPOYTV   030401230114      000005K CLARK/KOTEX                                                                                                                                                  
SPOYTV   030401230131      000005HERSHEY/MOULDED BARS                                                                                                                                           
PGRYTV   030401230139233145003006ADDAM'S FAMILY: THE SERIES                        THING'S ROMANCE EP36                              AFS         C15097 1 35307BCC                              
COMYTV   030401230340      000100P&G/CORPORATE NON-PREEMPT H.U.                                                                                                                                 
COMYTV   030401230440      000030KRAFT/W:30'S                                                                                                                                                   
COMYTV   030401230510      000015PEPSICO/FLC CHEETOS                                                                                                                                            
COMYTV   030401230525      000015HERSHEY/MOULDED BARS                                                                                                                                           
PRCYTV   030401230540      000015YTV PROMO CONTRACT                                                                                                                                             
COMYTV   030401231036      000100P&G/CORPORATE BASE BUY                                                                                                                                         
COMYTV   030401231136      000015WARNER BROS/WHAT A GIRL WANTS                                                                                                                                  
COMYTV   030401231151      000015YTV MARKETING/WHOA SPR                                                                                                                                         
COMYTV   030401231206      000030WRIGLEY CANADA INC.                                                                                                                                            
PRCYTV   030401231236      000030YTV PROMO CONTRACT                                                                                                                                             
COMYTV   030401231908      000030K CLARK/KOTEX                                                                                                                                                  
COMYTV   030401231938      000030HERSHEY/MOULDED BARS                                                                                                                                           
COMYTV   030401232008      000015SUBWAY/SUBWAY SUBS                                                                                                                                             
COMYTV   030401232023      000015KRAFT/W :15'S                                                                                                                                                  
COMYTV   030401232038      000030MINUTE MAID                                                                                                                                                    
PRCYTV   030401232108      000030YTV PROMO CONTRACT                                                                                                                                             
SPOYTV   030401233120      000005K CLARK/HUGGIES:ULTRA                                                                                                                                          
SPOYTV   030401233137      000005SCOTT PAPER/TOWELS&SCOTTIES                                                                                                                                    
PGRYTV   0304012331450009560038112 POINT 4 CHILDREN                                YOUNG AT HEART                                                       3 38807BCC                              
COMYTV   030401234029      000030HWY/SPINMASTER REPLACEMENT(2PK                                                                                                                                 
COMYTV   030401234059      000015WARNER BROS/WHAT A GIRL WANTS                                                                                                                                  
COMYTV   030401234114      000030HWY/BARTER PACKAGES                                                                                                                                            
COMYTV   030401234144      000015HWY/PLAYTOY BARTER                                                                                                                                             
COMYTV   030401234159      000030WALMART                                                                                                                                                        
COMYTV   030401235052      000030HWY/CPA-ADULT PACKAGE#2                                                                                                                                        
COMYTV   030401235122      000015KRAFT/RITZ BITZ :15'S                                                                                                                                          
COMYTV   030401235137      000015WARNER BROS/WHAT A GIRL WANTS                                                                                                                                  
COMYTV   030401235152      000100PRIMUS CANADA                                                                                                                                                  
COMYTV   030401000030      000030HWY/CPA-ADULT PACKAGE#1                                                                                                                                        
COMYTV   030401000100      000030K CLARK/KOTEX                                                                                                                                                  
COMYTV   030401000130      000015J&J/CLEAN & CLEAR                                                                                                                                              
COMYTV   030401000145      000015TOPP'S                                                                                                                                                         
COMYTV   030401000200      000030LEGO CANADA INC.                                                                                                                                               
COMYTV   030401000741      000100P&G/CORP BASE BUY/PRE-EMPTIBLE                                                                                                                                 
COMYTV   030401000841      000100PRIMUS CANADA/PER INQUIRY $15P                                                                                                                                 
ID YTV   030401000941      000012STATION ID                                                                                                                                                     
PGRYTV   030401000956004649003653ARE YOU BEING SERVED?                             EPS 12                                                               3 38807BCC                              
COMYTV   030401001452      000100P&G/CORPORATE NON-PREEMPT H.U.                                                                                                                                 
COMYTV   030401001552      000030TRICON/K.F.C.                                                                                                                                                  
COMYTV   030401001622      000015HWY/PLAYTOY BARTER                                                                                                                                             
COMYTV   030401001637      000015JOHNSON & JOHNSON INC.                                                                                                                                         
COMYTV   030401002408      000100P&G/CORPORATE NON-PREEMPT H.U.                                                                                                                                 
COMYTV   030401002508      000030STELLA PHARM/NUTRI BAR                                                                                                                                         
COMYTV   030401002538      000015SUBWAY/SUBWAY SUBS                                                                                                                                             
COMYTV   030401002553      000015WARNER BROS/WHAT A GIRL WANTS                                                                                                                                  
COMYTV   030401002608      000030WALMART/BABY DEPARTMENT                                                                                                                                        
COMYTV   030401003415      000100P&G/CORP BASE BUY/PRE-EMPTIBLE                                                                                                                                 
COMYTV   030401003515      000030HWY/CPA-ADULT PACKAGE#1                                                                                                                                        
COMYTV   030401003545      000030NESTLE/HAAGEN DAZ                                                                                                                                              
COMYTV   030401003615      000030STELLA PHARM/NUTRI BAR                                                                                                                                         
PGRYTV   030401004649012356003707KEEPING UP APPEARANCES                            EPS 34                                                               3 38807BCC                              
SPOYTV   030401005124      000010EFFEM/M&M 10 SEC CC BB                                                                                                                                         
COMYTV   030401005134      000015STELLA PHARM/NUTRI BAR                                                                                                                                         
COMYTV   030401005149      000030NESTLE/HAAGEN DAZ                                                                                                                                              
COMYTV   030401005219      000015HWY/PLAYTOY BARTER                                                                                                                                             
COMYTV   030401005234      000100P&G/CORP BASE BUY/PRE-EMPTIBLE                                                                                                                                 
COMYTV   030401005906      000030L'OREAL CANADA/FOREVER LIPS                                                                                                                                    
COMYTV   030401005936      000015SUBWAY/SUBWAY SUBS                                                                                                                                             
COMYTV   030401005951      000030WALMART/BABY DEPARTMENT                                                                                                                                        
COMYTV   030401010021      000015PEPSICO/FLC CHEETOS                                                                                                                                            
COMYTV   030401010036      000100P&G/CORPORATE NON-PREEMPT H.U.                                                                                                                                 
COMYTV   030401011125      000100P&G/CORPORATE BASE BUY                                                                                                                                         
COMYTV   030401011225      000030HWY/SPINMASTER REPLACEMENT(2PK                                                                                                                                 
COMYTV   030401011255      000030KRAFT/W:30'S                                                                                                                                                   
COMYTV   030401011325      000030HWY/BARTER PACKAGES                                                                                                                                            
COMYTV   030401012113      000100P&G/CORP BASE BUY/PRE-EMPTIBLE                                                                                                                                 
COMYTV   030401012213      000015KRAFT/W :15'S                                                                                                                                                  
COMYTV   030401012228      000030HWY/CPA-ADULT PACKAGE#1                                                                                                                                        
COMYTV   030401012258      000030HWY/BARTER PACKAGES                                                                                                                                            
COMYTV   030401012328      000015SUBWAY/SUBWAY SUBS                                                                                                                                             
PGRYTV   0304010123560201110037152 POINT 4 CHILDREN                                YOUNG AT HEART                                                       3 38807BCC                              
SPOYTV   030401013242      000010EFFEM/M&M'S 10 SEC CC BB                                                                                                                                       
COMYTV   030401013252      000100P&G/CORPORATE BASE BUY                                                                                                                                         
COMYTV   030401013352      000030HWY/CPA-ADULT PACKAGE#3                                                                                                                                        
COMYTV   030401013422      000030HWY/CPA-ADULT PACKAGE#2                                                                                                                                        
COMYTV   030401014315      000030HWY/CPA-ADULT PACKAGE#3                                                                                                                                        
COMYTV   030401014345      000030WALMART/BABY DEPARTMENT                                                                                                                                        
