PGRYTV   040901060000062603002603UH OH!                                            EPS 145                                                              1 311100CC                              
PRCYTV   040901060324      000030YTV PROMO CONTRACT                                                                                                                                             
PRCYTV   040901060354      000030YTV PROMO CONTRACT                                                                                                                                             
PRCYTV   040901061119      000030YTV PROMO CONTRACT                                                                                                                                             
PRCYTV   040901061729      000030YTV PROMO CONTRACT                                                                                                                                             
PRCYTV   040901061759      000030YTV PROMO CONTRACT                                                                                                                                             
INTYTV   040901062603063000000357CHIP 'N' ORBIT                                    EPISODE 1                                                            1 311120CC                              
ID YTV   040901062948      000012STATION ID                                                                                                                                                     
PGRYTV   040901063000065543002543STICKIN' AROUND                                   PHOTO OOPS/CASA BLANK STARE                       NELVANYTV   A08097 1 32107ECC                              
PRCYTV   040901063112      000015YTV PROMO CONTRACT                                                                                                                                             
PRCYTV   040901064229      000015YTV PROMO CONTRACT                                                                                                                                             
PRCYTV   040901065352      000015YTV PROMO CONTRACT                                                                                                                                             
INTYTV   040901065543065843000300NANALAN'                                          SNAKE EP19                                                           1 351120                                
INTYTV   040901065843070018000135RALF THE RECORD RAT                               EPS 93                                                               1 351120                                
ID YTV   040901070007      000012STATION ID                                                                                                                                                     
PGRYTV   040901070018072620002602GEORGE SHRINKS                                    SUNKEN TREASURES  EP 7                            NELVAN             1 32107ECC                              
INTYTV   040901072620072830000210NELVANA INTERSTITIALS                             HIGH NOON                                                            1 321120                                
PRCYTV   040901072816      000015YTV PROMO CONTRACT                                                                                                                                             
INTYTV   040901072830073006000136RALF THE RECORD RAT                               EPS 94                                                               1 351120                                
ID YTV   040901072954      000012STATION ID                                                                                                                                                     
PGRYTV   040901073006075205002159FLYING RHINO JUNIOR HIGH                          ALL GREEN THUMBS        EPS 25                    NELVAN             1 32107ECC                              
PGRYTV   040901075205075851000646SNAILYMPICS                                       HYGIENE                   EP18                                A88115 1 35107E                                
PRCYTV   040901075836      000015YTV PROMO CONTRACT                                                                                                                                             
INTYTV   040901075851080026000135RALF THE RECORD RAT                               EPS 95                                                               1 351120                                
ID YTV   040901080014      000012STATION ID                                                                                                                                                     
PGRYTV   040901080026082312002246D'MYNA LEAGUES                                    JOKE'S ON YOU           EPS 4                     D'MYNAYTV   A40238 1 35107ECC                              
INTYTV   040901082312082612000300NANALAN'                                          HULA, HULA EP20                                                      1 351120                                
INTYTV   040901082612083009000357CHIP 'N' ORBIT                                    EPISODE 2                                                            1 311120CC                              
ID YTV   040901082956      000012STATION ID                                                                                                                                                     
PGRYTV   040901083009085341002332MONA THE VAMPIRE                                  ROCKIN' REPTILE/SUCK-0 5000 PS                    FANCY YTV   A90822 1 35107ECC                              
PGRYTV   040901085341090009000628SNAILYMPICS                                       MAX AGAINST GUMMY          EP1                                B25274 1 35107E                                
ID YTV   040901085954      000012STATION ID                                                                                                                                                     
PGRYTV   040901090009092421002412RUPERT                                            EPS 2-RUPERT AND THE SAGE OF                      NELVANYTV   P11512 1 32107ECC                              
INTYTV   040901092421092647000226NELVANA INTERSTITIALS                             GONE BUT NOT FORGOTTEN                                               1 321120                                
PRCYTV   040901092538      000030YTV PROMO CONTRACT                                                                                                                                             
PRCYTV   040901092608      000030YTV PROMO CONTRACT                                                                                                                                             
INTYTV   040901092647092747000100STICKIN' AROUND                                   DOIN' THE MONSTER TRASH                                              1 321120CC                              
INTYTV   040901092747093000000213NELVANA INTERSTITIALS                             YOU ARE WHAT YOU EAT                                                 1 321120                                
PRCYTV   040901092848      000030YTV PROMO CONTRACT                                                                                                                                             
PRCYTV   040901092918      000030YTV PROMO CONTRACT                                                                                                                                             
ID YTV   040901092948      000012STATION ID                                                                                                                                                     
PGRYTV   040901093000095247002247CARE BEARS                                        THING/SPACE BUBBLES  EPS 37                       NELVAN      C07540 1 32107E                                
PRCYTV   040901095200      000015YTV PROMO CONTRACT                                                                                                                                             
PRCYTV   040901095215      000030YTV PROMO CONTRACT                                                                                                                                             
INTYTV   040901095247095645000358CHIP 'N' ORBIT                                    EPISODE 1                                                            1 311120                                
PRCYTV   040901095631      000015YTV PROMO CONTRACT                                                                                                                                             
INTYTV   040901095645095957000312NANALAN'                                          SPIDER EP21                                                          1 351120                                
PROYTV   040901095646      000015YTV PROMO CONTRACT                                                                                                                                             
PGRYTV   040901095957102605002608SEVEN LITTLE MONSTERS                             IT'S A WONDER-FOUR LIFE     PS                    NELVAN             1 32107ECC                              
ID YTV   040901100013      000012STATION ID                                                                                                                                                     
INTYTV   040901102605103000000355CHIP 'N' ORBIT                                    EPISODE 3                                                            1 311120CC                              
ID YTV   040901102948      000012STATION ID                                                                                                                                                     
PGRYTV   040901103000105303002303MONSTER BY MISTAKE                                LIVE FROM PICKFORD EP14.                          MONSTEYTV   A30290 1 35107ECC                              
PGRYTV   040901105303110007000704SNAILYMPICS                                       BLUM, THE BLUE SNAIL       EP2                                B25275 1 35107E                                
PRCYTV   040901105925      000030YTV PROMO CONTRACT                                                                                                                                             
ID YTV   040901105955      000012STATION ID                                                                                                                                                     
PGRYTV   040901110007112700002653JACOB TWO TWO                                     HAL - JTT & THE GHOST                                                1 32107ECC                              
PRCYTV   040901110825      000030YTV PROMO CONTRACT                                                                                                                                             
PRCYTV   040901110855      000030YTV PROMO CONTRACT                                                                                                                                             
PRCYTV   040901111559      000030YTV PROMO CONTRACT                                                                                                                                             
PRCYTV   040901111629      000030YTV PROMO CONTRACT                                                                                                                                             
PRCYTV   040901112437      000030YTV PROMO CONTRACT                                                                                                                                             
PRCYTV   040901112507      000030YTV PROMO CONTRACT                                                                                                                                             
INTYTV   040901112700112815000115ZOO INTERSTITIALS                                 ZOO - FERRET                                                         1 311120                                
INTYTV   040901112815113000000145NELVANA INTERSTITIALS                             ALL'S QUIET ON MONSTER FRONT                                         1 321120                                
ID YTV   040901112948      000012STATION ID                                                                                                                                                     
PGRYTV   040901113000115158002158FLYING RHINO JUNIOR HIGH                          SEEING DOUBLE           EPS 26                    NELVAN             1 32107ECC                              
INTYTV   040901115158115603000405NANALAN'                                          BUTTERFLY TAG EP22                                                   1 351120                                
PRCYTV   040901115457      000030YTV PROMO CONTRACT                                                                                                                                             
PRCYTV   040901115527      000030YTV PROMO CONTRACT                                                                                                                                             
INTYTV   040901115603120000000357CHIP 'N' ORBIT                                    EPISODE 4                                                            1 311120CC                              
ID YTV   040901115948      000012STATION ID                                                                                                                                                     
PGRYTV   040901120000123000003000SPONGEBOB SQUAREPANTS                             PIZZA DELIVERY/PINEAPPLE EP5                                         2 38307ECC                              
SPOYTV   040901120049      000010BURGER KING/KIDS VARIOUS                                                                                                                                       
COMYTV   040901120059      000030KELLOGG/FROSTED FLAKES                                                                                                                                         
COMYTV   040901120129      000030KRAFT/KIDS 30S                                                                                                                                                 
PRCYTV   040901120159      000015YTV PROMO CONTRACT                                                                                                                                             
PRCYTV   040901120214      000030YTV PROMO CONTRACT                                                                                                                                             
COMYTV   040901121356      000015KRAFT/P3 KIDS 15S                                                                                                                                              
COMYTV   040901121411      000030KRAFT/KIDS 30S                                                                                                                                                 
COMYTV   040901121441      000030KELLOGG/FRUIT TWISTABLES                                                                                                                                       
COMYTV   040901121511      000030KRAFT/KIDS 30S                                                                                                                                                 
COMYTV   040901121541      000015BINNEY&SMITH/CRAYOLA                                                                                                                                           
COMYTV   040901122339      000030MCDONALDS/HAPPY MEAL                                                                                                                                           
COMYTV   040901122409      000030HASBRO/VIDEO NOW COLOR-BARTER                                                                                                                                  
PRCYTV   040901122439      000030YTV PROMO CONTRACT                                                                                                                                             
PRCYTV   040901122509      000030YTV PROMO CONTRACT                                                                                                                                             
ID YTV   040901122948      000012STATION ID                                                                                                                                                     
PGRYTV   040901123000125139002139HAMTARO                                           SCARY SCHOOL PRINCIPAL EP 63                                  D02043 7 38307E  2                             
PRCYTV   040901123114      000015YTV PROMO CONTRACT                                                                                                                                             
PRCYTV   040901124035      000030YTV PROMO CONTRACT                                                                                                                                             
PRCYTV   040901124540      000030YTV PROMO CONTRACT                                                                                                                                             
PGRYTV   040901125139125732000553PINGU                                             PINGU'S CURLING PARTY     EP32                                       3 38307E                                
PRCYTV   040901125703      000030YTV PROMO CONTRACT                                                                                                                                             
INTYTV   040901125732130000000228EVERYDAY HEROES                                   HELI PILOT  EP 5                                                     1 311120                                
ID YTV   040901125948      000012STATION ID                                                                                                                                                     
PGRYTV   040901130000132157002157CARE BEARS                                        CHANCE/HUNGRY LITTLE GUY                          NELVAN      C07540 1 32107E                                
PRCYTV   040901132131      000015YTV PROMO CONTRACT                                                                                                                                             
PGRYTV   040901132157132956000759SNAILYMPICS                                       MOOT, SNAIL FROM OUTER SPACE                                  A81156 1 35107E                                
PRCYTV   040901132829      000015YTV PROMO CONTRACT                                                                                                                                             
PRCYTV   040901132844      000030YTV PROMO CONTRACT                                                                                                                                             
PRCYTV   040901132914      000030YTV PROMO CONTRACT                                                                                                                                             
ID YTV   040901132944      000012STATION ID                                                                                                                                                     
PGRYTV   040901132956135557002601GEORGE SHRINKS                                    SNOWMAN'S LAND  EP 8                              NELVAN             1 32107ECC                              
INTYTV   040901135557135826000229NELVANA INTERSTITIALS                             THE WHOLE TOOTH                                                      1 321120                                
PRCYTV   040901135752      000030YTV PROMO CONTRACT                                                                                                                                             
INTYTV   040901135826140001000135RALF THE RECORD RAT                               EPS 96                                                               1 351120                                
ID YTV   040901135948      000012STATION ID                                                                                                                                                     
PGRYTV   040901140001142339002338MONA THE VAMPIRE                                  MEDUSA'S REVENGE/FEARSOME   PS                    FANCY YTV   A90823 1 35107ECC                              
INTYTV   040901142339142848000509CHIP 'N' ORBIT                                    EPISODE 5                                                            1 311120CC                              
PRCYTV   040901142723      000030YTV PROMO CONTRACT                                                                                                                                             
PRCYTV   040901142753      000030YTV PROMO CONTRACT                                                                                                                                             
PRCYTV   040901142823      000015YTV PROMO CONTRACT                                                                                                                                             
INTYTV   040901142848143000000112STICKIN' AROUND                                   THE GOOD, THE BAD, AND THE                                           1 321120CC                              
ID YTV   040901142948      000012STATION ID                                                                                                                                                     
PGRYTV   040901143000145355002355D'MYNA LEAGUES                                    BIRTH O'DA BIRDS       EPS 5                      D'MYNAYTV   A40239 1 35107ECC                              
PRCYTV   040901145246      000030YTV PROMO CONTRACT                                                                                                                                             
PRCYTV   040901145316      000030YTV PROMO CONTRACT                                                                                                                                             
INTYTV   040901145355145749000354CHIP 'N' ORBIT                                    EPISODE 6                                                            1 311120CC                              
INTYTV   040901145749145959000210EVERYDAY HEROES                                   TREE  EP 6                                                           1 311120                                
ID YTV   040901145948      000012STATION ID                                                                                                                                                     
PGRYTV   040901145959152748002749CRAMP TWINS                                       MISSY KISSY & FRIEND FIGHT                                           4 38307ECC                              
SPOYTV   040901150106      000010BURGER KING/KIDS VARIOUS                                                                                                                                       
COMYTV   040901150116      000030MATTEL/FALL 04 CORPORATE KIDS                                                                                                                                  
COMYTV   040901150146      000030KELLOGG/FROOT TWISTABLES                                                                                                                                       
COMYTV   040901151252      000030KELLOGG/RICE KRISPIE SQUARE BA                                                                                                                                 
COMYTV   040901151322      000030MATTEL/FALL 04 CORPORATE KIDS                                                                                                                                  
COMYTV   040901151352      000030LEGO/ALPHA TEAM 30'S                                                                                                                                           
COMYTV   040901151422      000030KELLOGG/FROSTED FLAKES                                                                                                                                         
COMYTV   040901152533      000030MATTEL/FALL 04 CORPORATE KIDS                                                                                                                                  
COMYTV   040901152603      000030KRAFT/KIDS 30S                                                                                                                                                 
PROYTV   040901152633      000015YTV PROMO CONTRACT                                                                                                                                             
INTYTV   040901152748152959000211TRY SOMETHING NEW                                 TRY SOMETHING NEW - ROCK CLIMB                                       1 313120                                
ID YTV   040901152948      000012STATION ID                                                                                                                                                     
PGRYTV   040901152959153821000822JACOB TWO TWO                                     JTT & THE MOULDY MENACE                                              1 32307ECC                              
SPOYTV   040901153812      000010BANDAI/VIDEO GAMES SUMMER 2004                                                                                                                                 
OFTYTV   040901153821153839000018OFF AIR-TECHNICAL                                                                                                      0 000                                   
COMYTV   040901153822      000030MCDONALDS/HAPPY MEAL                                                                                                                                           
PGRYTV   040901153839155749001910JACOB TWO TWO                                     JTT & THE MOULDY MENACE                                              1 32307E                                
COMYTV   040901153852      000030KELLOGG/FRUIT TWISTABLES                                                                                                                                       
PROYTV   040901153922      000015YTV PROMO CONTRACT                                                                                                                                             
COMYTV   040901154509      000015KRAFT/P3 KIDS 15S                                                                                                                                              
COMYTV   040901154524      000030GEN MILLS/VARIOUS ROTATION                                                                                                                                     
COMYTV   040901154554      000030KELLOGG/FROSTED FLAKES                                                                                                                                         
COMYTV   040901154624      000030MATTEL/FALL 04 CORPORATE KIDS                                                                                                                                  
COMYTV   040901154654      000015KRAFT/P3 KIDS 15S                                                                                                                                              
COMYTV   040901155549      000015BINNEY&SMITH/CRAYOLA                                                                                                                                           
COMYTV   040901155604      000030MATTEL/FALL 04 CORPORATE KIDS                                                                                                                                  
COMYTV   040901155634      000015MEGABLOKS/NANO-PRE-EMPT BONUS                                                                                                                                  
INTYTV   040901155749160000000211PROGRAM JOCKEY                                    PROGRAM JOCKEY                                                       1 213120                                
ID YTV   040901155948      000012STATION ID                                                                                                                                                     
PGRYTV   040901160000162645002645BEYBLADE                                          THE ENEMY WITHIN        EP 100                                D02193 7 38307ECC2                             
SPOYTV   040901160550      000010BURGER KING/KIDS VARIOUS                                                                                                                                       
COMYTV   040901160600      000015YTV/C PLUS-SUMMER PROMO                                                                                                                                        
COMYTV   040901160615      000030KRAFT/KIDS 30S                                                                                                                                                 
COMYTV   040901160645      000015SPIN MAS/MIGHTY BEANZ SERIES#4                                                                                                                                 
PROYTV   040901160700      000015YTV PROMO CONTRACT                                                                                                                                             
COMYTV   040901161234      000015BVHV/SIMBA'S PRIDE(LION KING2)                                                                                                                                 
COMYTV   040901161249      000030KELLOGG/FROOT TWISTABLES                                                                                                                                       
COMYTV   040901161319      000030MATTEL/FALL 04 CORPORATE KIDS                                                                                                                                  
COMYTV   040901161349      000030KELLOGG/RICE KRISPIES                                                                                                                                          
COMYTV   040901161419      000015HASBRO/VARIOUS                                                                                                                                                 
COMYTV   040901161853      000015BINNEY&SMITH/CRAYOLA                                                                                                                                           
COMYTV   040901161908      000030GEN MILLS/VARIOUS ROTATION                                                                                                                                     
COMYTV   040901161938      000015HASBRO/TRANSFORMERS/DUEL MAST.                                                                                                                                 
PRCYTV   040901161953      000030YTV PROMO CONTRACT                                                                                                                                             
PROYTV   040901162023      000030YTV PROMO CONTRACT                                                                                                                                             
INTYTV   040901162645163000000315PROGRAM JOCKEY                                    PROGRAM JOCKEY                                                       1 213120                                
ID YTV   040901162948      000012STATION ID                                                                                                                                                     
PGRYTV   040901163000165649002649YU-GI-OH                                          PT1-DUEL IDENTITY EP 29                                              7 38307ECC                              
SPOYTV   040901163503      000010BANDAI/VIDEO GAMES SUMMER 2004                                                                                                                                 
COMYTV   040901163513      000030GEN MILLS/VARIOUS-TRAD CHILD 1                                                                                                                                 
COMYTV   040901163543      000030KELLOGG/RICE KRISPIE SQUARE BA                                                                                                                                 
PRCYTV   040901163613      000015YTV PROMO CONTRACT                                                                                                                                             
COMYTV   040901164249      000030KRAFT/KIDS 30S                                                                                                                                                 
COMYTV   040901164319      000030MCDONALDS/HAPPY MEAL                                                                                                                                           
COMYTV   040901164349      000030KELLOGG/FROSTED FLAKES                                                                                                                                         
COMYTV   040901164419      000030MATTEL/FALL 04 CORPORATE KIDS                                                                                                                                  
COMYTV   040901165021      000015YTV/C PLUS-SUMMER PROMO                                                                                                                                        
COMYTV   040901165036      000030KELLOGG/RICE KRISPIES                                                                                                                                          
COMYTV   040901165106      000015BINNEY&SMITH/CRAYOLA                                                                                                                                           
PROYTV   040901165121      000030YTV PROMO CONTRACT                                                                                                                                             
PROYTV   040901165151      000030YTV PROMO CONTRACT                                                                                                                                             
INTYTV   040901165649170000000311PROGRAM JOCKEY                                    PROGRAM JOCKEY                                                       1 213120                                
ID YTV   040901165948      000012STATION ID                                                                                                                                                     
PGRYTV   040901170000172806002806FAIRLY ODD PARENTS                                VAL-LOVE STRUCK EP 24                                                2 38307ECC                              
SPOYTV   040901170051      000010YTV/HASBRO VIDEO NOW COLOR PRM                                                                                                                                 
COMYTV   040901170101      000030KRAFT/KIDS 30S                                                                                                                                                 
COMYTV   040901170131      000030KELLOGG/RICE KRISPIES                                                                                                                                          
COMYTV   040901171312      00001520TH CENT VIDEO/STRAWBRRY 15'S                                                                                                                                 
COMYTV   040901171327      000030KELLOGG/FROOT TWISTABLES                                                                                                                                       
COMYTV   040901171357      000030KRAFT/P2 KIDS HEAVY UP                                                                                                                                         
COMYTV   040901171427      000030MATTEL/FALL 04 CORPORATE KIDS                                                                                                                                  
COMYTV   040901171457      000015KRAFT/P3 KIDS 15S                                                                                                                                              
COMYTV   040901172646      000030MCDONALDS/HAPPY MEAL                                                                                                                                           
COMYTV   040901172716      000030SUN-RYPE/SPRING-FALL 2004                                                                                                                                      
PROYTV   040901172746      000015YTV PROMO CONTRACT                                                                                                                                             
INTYTV   040901172806173000000154PROGRAM JOCKEY                                    PROGRAM JOCKEY                                                       1 213120                                
ID YTV   040901172948      000012STATION ID                                                                                                                                                     
PGRYTV   040901173000175725002725MARTIN MYSTERY                                    ATTACK OF THE SANDMAN    EP 8                     MYSTERYTV   A85374 1 35307ECC                              
SPOYTV   040901173545      000010BURGER KING/KIDS VARIOUS                                                                                                                                       
COMYTV   040901173555      000030KELLOGG/FROSTED FLAKES                                                                                                                                         
COMYTV   040901173625      000030KRAFT/KIDS 30S                                                                                                                                                 
COMYTV   040901174307      000015KRAFT/P3 KIDS 15S                                                                                                                                              
COMYTV   040901174322      000030MATTEL/FALL 04 CORPORATE KIDS                                                                                                                                  
COMYTV   040901174352      000030KRAFT/KIDS 30S                                                                                                                                                 
COMYTV   040901174422      000030KELLOGG/RICE KRISPIES                                                                                                                                          
COMYTV   040901174452      000015YTV MARKETING/WHOA MAGAZINE                                                                                                                                    
COMYTV   040901175150      000015HASBRO/TRANSFORMERS/DUEL MAST.                                                                                                                                 
COMYTV   040901175205      000030KRAFT/KIDS 30S                                                                                                                                                 
COMYTV   040901175235      000015MEGABLOKS/NANO                                                                                                                                                 
PRCYTV   040901175250      000015YTV PROMO CONTRACT                                                                                                                                             
PROYTV   040901175305      000030YTV PROMO CONTRACT                                                                                                                                             
INTYTV   040901175725180000000235PROGRAM JOCKEY                                    PROGRAM JOCKEY                                                       1 213120                                
PGRYTV   040901180000183007003007SPONGEBOB SQUAREPANTS                             PIZZA DELIVERY/PINEAPPLE EP5                                         2 38307ECC                              
SPOYTV   040901180049      000010YTV/C PLUS-SUMMER PROMO                                                                                                                                        
COMYTV   040901180059      000015YTV/VIZ COMMUNICATIONS                                                                                                                                         
COMYTV   040901180114      000030KELLOGG/FRUIT TWISTABLES                                                                                                                                       
COMYTV   040901180144      000030ROGERS WIRELESS/BACK TO SCHOOL                                                                                                                                 
COMYTV   040901180214      000030HASBRO/VIDEO NOW COLOR-BARTER                                                                                                                                  
COMYTV   040901180244      000015MEGABLOKS/NANO                                                                                                                                                 
COMYTV   040901181402      000015HASBRO/VARIOUS                                                                                                                                                 
COMYTV   040901181417      000030GEN MILLS/HONEY NUT CHEERIOS                                                                                                                                   
COMYTV   040901181447      000030MATTEL/FALL 04 CORPORATE KIDS                                                                                                                                  
COMYTV   040901181517      000030DYNATECH/WUBBER WRESTLERS-YOME                                                                                                                                 
COMYTV   040901181547      000015BURGER KING/SUMMER 04 ADULT:15                                                                                                                                 
COMYTV   040901182345      000015YTV/C PLUS-SUMMER PROMO                                                                                                                                        
COMYTV   040901182400      000030KELLOGG/FRUIT TWISTABLES                                                                                                                                       
COMYTV   040901182430      000030KRAFT/P2 KIDS HEAVY UP                                                                                                                                         
COMYTV   040901182500      000030KELLOGG/FROSTED FLAKES                                                                                                                                         
COMYTV   040901182530      000015HASBRO/VARIOUS                                                                                                                                                 
ID YTV   040901182954      000012STATION ID                                                                                                                                                     
PGRYTV   040901183007190038003031FAIRLY ODD PARENTS                                COSMO CON/WANDA'S DAY OFF EP25                                       2 38307ECC                              
COMYTV   040901183057      000030BVHV/SIMBA'S PRIDE(LION KING2)                                                                                                                                 
COMYTV   040901183127      000015MEGABLOKS/NANO                                                                                                                                                 
COMYTV   040901183142      000030L'OREAL/PANORAMIC CURL                                                                                                                                         
COMYTV   040901183212      000030ROGERS WIRELESS/BACK TO SCHOOL                                                                                                                                 
COMYTV   040901183242      000015HASBRO/TRANSFORMERS/DUEL MAST.                                                                                                                                 
COMYTV   040901184416      000015J&J/JOHNSON'S BABY WASH                                                                                                                                        
COMYTV   040901184431      000030KELLOGG/RICE KRISPIE SQUARE BA                                                                                                                                 
COMYTV   040901184501      000030STAPLES BUS DEPOT/BACK TO SCHO                                                                                                                                 
COMYTV   040901184531      000030PEPSICO/PEPI-WORLD CUP HOCKEY                                                                                                                                  
COMYTV   040901184601      000015L'OREAL/GLAM SHINE                                                                                                                                             
COMYTV   040901185735      000015J&J/CAREFREE - SUMMER                                                                                                                                          
COMYTV   040901185750      000030KRAFT/KIDS 30S                                                                                                                                                 
COMYTV   040901185820      000030SC JOHNSON/SKINTAMATE                                                                                                                                          
COMYTV   040901185850      000030ZELLERS/SUMMER/FALL RENEGOTIAT                                                                                                                                 
COMYTV   040901185920      000015J&J/CLEAN AND CLEAR                                                                                                                                            
ID YTV   040901190023      000012STATION ID                                                                                                                                                     
PGRYTV   040901190038193014002936MARTIN MYSTERY                                    SHRIEK FROM BEYOND       EP 9                     MYSTERYTV   A85375 1 35307ECC                              
COMYTV   040901190649      000015YTV/C PLUS-SUMMER PROMO                                                                                                                                        
COMYTV   040901190704      000030KRAFT/KIDS 30S                                                                                                                                                 
COMYTV   040901190734      000030SC JOHNSON/SKINTAMATE                                                                                                                                          
COMYTV   040901190804      000030YTV CREA/BENTLEY'S BACK SCHOOL                                                                                                                                 
COMYTV   040901190834      000015HASBRO/VARIOUS                                                                                                                                                 
COMYTV   040901191503      000030HILLROY/BACK TO SCHOOL                                                                                                                                         
COMYTV   040901191533      000030MICROCELL/FIDO (CT08)                                                                                                                                          
COMYTV   040901191603      000030ZELLERS/SUMMER/FALL RENEGOTIAT                                                                                                                                 
COMYTV   040901191633      000030SC JOHNSON/SKINTAMATE                                                                                                                                          
COMYTV   040901192258      000030K CLARK/GOODNITES HEAVY UP 30S                                                                                                                                 
COMYTV   040901192328      000030MATTEL/FALL 04 CORPORATE KIDS                                                                                                                                  
COMYTV   040901192358      000030WALMART/BACK TO SCHOOL                                                                                                                                         
COMYTV   040901192428      000030MICROCELL/FIDO (CT08)                                                                                                                                          
ID YTV   040901192958      000012STATION ID                                                                                                                                                     
PGRYTV   040901193014200019003005YVON OF THE YUKON                                 PULL YOUR GOALIE  EPS 22                          YVON  YTV   A52383 1 35307ECC                              
COMYTV   040901193930      000030PEPSICO/PEPSI BRANDS                                                                                                                                           
COMYTV   040901194000      000030SC JOHNSON/SKINTAMATE                                                                                                                                          
COMYTV   040901194030      000030MICROCELL/FIDO (CT08)                                                                                                                                          
COMYTV   040901194100      000030L'OREAL/PANORAMIC CURL                                                                                                                                         
COMYTV   040901194841      000015UNIVERSAL MUSIC/NOW 9                                                                                                                                          
COMYTV   040901194856      000030MICROCELL/FIDO (CT08)                                                                                                                                          
COMYTV   040901194926      000030SEARS/FURNITURE/APPLIANCES SUM                                                                                                                                 
COMYTV   040901194956      000030DELL/DELL DR                                                                                                                                                   
COMYTV   040901195026      000015HASBRO/VARIOUS                                                                                                                                                 
COMYTV   040901195733      000015YTV/KRAFT TRY SOMETHING NEW                                                                                                                                    
COMYTV   040901195748      000030GEN MILLS/VARIOUS ROTATION                                                                                                                                     
COMYTV   040901195818      000030MICROCELL/FIDO (CT08)                                                                                                                                          
COMYTV   040901195848      000030KRAFT/KIDS 30S                                                                                                                                                 
COMYTV   040901195918      000015J&J/CLEAN AND CLEAR                                                                                                                                            
ID YTV   040901200003      000012STATION ID                                                                                                                                                     
PGRYTV   040901200019202958002939DRAGON BALL                                       MAYHEM IN DREAMLAND   EPS 45                                  D02587 7 38307ECC2                             
COMYTV   040901200121      000030KELLOGG/RICE KRISPIES                                                                                                                                          
COMYTV   040901200151      000030WALMART/BACK TO SCHOOL                                                                                                                                         
COMYTV   040901200221      000030MICROCELL/FIDO (CT08)                                                                                                                                          
COMYTV   040901200251      000030CADBURY CHOC/SOFT & CHEWY                                                                                                                                      
PRCYTV   040901200321      000015YTV PROMO CONTRACT                                                                                                                                             
COMYTV   040901201140      000015KRAFT/P3 KIDS 15S                                                                                                                                              
COMYTV   040901201155      000030MATTEL/FALL 04 CORPORATE KIDS                                                                                                                                  
COMYTV   040901201225      000030MICROCELL/FIDO (CT08)                                                                                                                                          
COMYTV   040901201255      000030WRIGLEY/JUICY FRUIT                                                                                                                                            
COMYTV   040901201325      000015UNIVERSAL MUSIC/NOW 9                                                                                                                                          
PRCYTV   040901201340      000030YTV PROMO CONTRACT                                                                                                                                             
COMYTV   040901202546      000015BINNEY&SMITH/CRAYOLA                                                                                                                                           
COMYTV   040901202601      000030MICROCELL/FIDO (CT08)                                                                                                                                          
COMYTV   040901202631      000030MATTEL/FALL 04 CORPORATE KIDS                                                                                                                                  
COMYTV   040901202701      000030KRAFT/KIDS 30S                                                                                                                                                 
COMYTV   040901202731      000015HASBRO/VARIOUS                                                                                                                                                 
PRCYTV   040901202746      000030YTV PROMO CONTRACT                                                                                                                                             
PRCYTV   040901202816      000030YTV PROMO CONTRACT                                                                                                                                             
PGRYTV   040901202958205918002920DRAGON BALL Z                                     DARK PRINCE RETURNS  EPS 213                                  D01860 7 38307ECC2                             
COMYTV   040901203104      000030KELLOGG/RICE KRISPIES                                                                                                                                          
COMYTV   040901203134      000030MICROCELL/FIDO (CT08)                                                                                                                                          
COMYTV   040901203204      000030WALMART/BACK TO SCHOOL                                                                                                                                         
COMYTV   040901203234      000030KELLOGG/FRUIT TWISTABLES                                                                                                                                       
COMYTV   040901204313      000030HASBRO/VIDEO NOW COLOR-BARTER                                                                                                                                  
COMYTV   040901204343      000030KRAFT/KIDS 30S                                                                                                                                                 
COMYTV   040901204413      000030MICROCELL/FIDO (CT08)                                                                                                                                          
COMYTV   040901204443      000030KELLOGG/RICE KRISPIES                                                                                                                                          
PRCYTV   040901204513      000030YTV PROMO CONTRACT                                                                                                                                             
COMYTV   040901205510      000030GEN MILLS/VARIOUS ROTATION                                                                                                                                     
COMYTV   040901205540      000030SC JOHNSON/SKINTAMATE                                                                                                                                          
COMYTV   040901205610      000030PEPSICO/GATORADE-COMPENSATION                                                                                                                                  
COMYTV   040901205640      000030YTV CREA/BENTLEY'S BACK SCHOOL                                                                                                                                 
PRCYTV   040901205710      000030YTV PROMO CONTRACT                                                                                                                                             
PRCYTV   040901205740      000030YTV PROMO CONTRACT                                                                                                                                             
ID YTV   040901205906      000012STATION ID                                                                                                                                                     
PGRYTV   040901205918213000003042MYSTERY HUNTERS                                   OGOPOGO/MUMMY                                     APARTMYTV   C20142 1 35305BCC                              
SPOYTV   040901210545      000010PEPSICO/LIPTON BRISK TEEN BB                                                                                                                                   
COMYTV   040901210555      000015PARAMOUNT/WITHOUTH A PADDLE                                                                                                                                    
COMYTV   040901210610      000030K CLARK/HUGGIES FALL RENEGOTN                                                                                                                                  
COMYTV   040901210640      000030ROGERS WIRELESS/BACK TO SCHOOL                                                                                                                                 
COMYTV   040901210710      000030K CLARK/KOTEX FALL RENEGOTIATN                                                                                                                                 
COMYTV   040901210740      000015UNIVERSAL MUSIC/NOW 9                                                                                                                                          
COMYTV   040901211638      000015J&J/CLEAN AND CLEAR                                                                                                                                            
COMYTV   040901211653      000030MICROCELL/FIDO (CT08)                                                                                                                                          
COMYTV   040901211723      000100CDN TIRE/TIRE REPAIR                                                                                                                                           
COMYTV   040901211823      000015FERRERO/NUTELLA                                                                                                                                                
COMYTV   040901212716      000030K CLARK/GOODNITES HEAVY UP 30S                                                                                                                                 
COMYTV   040901212746      000030WALMART/BACK TO SCHOOL                                                                                                                                         
COMYTV   040901212816      000030ROGERS WIRELESS/BACK TO SCHOOL                                                                                                                                 
COMYTV   040901212846      000030SONY/HOT SHOTS 4                                                                                                                                               
ID YTV   040901212946      000012STATION ID                                                                                                                                                     
PGRYTV   040901213000220014003014RADIO ACTIVE ( III)(#53-78)                       DEAD COMIC'S SOCIETY EP63                         TELEACYTV   C16978 1 35307BCC                              
SPOYTV   040901214105      000010MAPLE LEAF FOODS/SPEC HIGHLIGH                                                                                                                                 
COMYTV   040901214115      000015YTV/C PLUS-SUMMER PROMO                                                                                                                                        
COMYTV   040901214130      000030PEPSICO/TROPICANA PURE PREMIUM                                                                                                                                 
COMYTV   040901214200      000030K CLARK/KOTEX FALL RENEGOTIATN                                                                                                                                 
COMYTV   040901214230      000030WALMART/BACK TO SCHOOL                                                                                                                                         
COMYTV   040901214300      000015FERRERO/NUTELLA                                                                                                                                                
COMYTV   040901214847      000030SC JOHNSON/SKINTAMATE                                                                                                                                          
COMYTV   040901214917      000030HEINZ/VEGGIE SAUCES                                                                                                                                            
COMYTV   040901214947      000030MICROCELL/FIDO (CT08)                                                                                                                                          
COMYTV   040901215017      000030MCCAINS/CORPORATE AGREEMENT                                                                                                                                    
COMYTV   040901215605      000030SEARS/FURNITURE/APPLIANCES SUM                                                                                                                                 
COMYTV   040901215635      000030HILLROY/BACK TO SCHOOL                                                                                                                                         
COMYTV   040901215705      000030SC JOHNSON/SKINTAMATE                                                                                                                                          
COMYTV   040901215735      000030MAPLE LEAF FOODS/SPEC HIGHLIGH                                                                                                                                 
ID YTV   040901215959      000012STATION ID                                                                                                                                                     
PGRYTV   040901220014223018003004FRIES WITH THAT                                   EVERYONE'S ALEX          EPS 5                    9124  YTV   C21848 1 35307BCC3                             
COMYTV   040901220709      000015PARAMOUNT/WITHOUTH A PADDLE                                                                                                                                    
COMYTV   040901220724      000030SONY/HOT SHOTS 4                                                                                                                                               
COMYTV   040901220754      000030YTV CREA/BENTLEY'S BACK SCHOOL                                                                                                                                 
COMYTV   040901220824      000030COCA-COLA/SPRITE                                                                                                                                               
COMYTV   040901220854      000015BURGER KING/SUMMER 04 ADULT:15                                                                                                                                 
COMYTV   040901221759      000030WALMART/BACK TO SCHOOL                                                                                                                                         
COMYTV   040901221829      000030FERRERO/NUTELLA                                                                                                                                                
COMYTV   040901221859      000030MICROCELL/FIDO (CT08)                                                                                                                                          
COMYTV   040901221929      000030PEPSICO/PEPI-WORLD CUP HOCKEY                                                                                                                                  
COMYTV   040901222653      000015YTV/C PLUS-SUMMER PROMO                                                                                                                                        
COMYTV   040901222708      000030SC JOHNSON/SKINTAMATE                                                                                                                                          
COMYTV   040901222738      000030FERRERO/NUTELLA                                                                                                                                                
COMYTV   040901222808      000030K CLARK/KOTEX FALL RENEGOTIATN                                                                                                                                 
COMYTV   040901222838      000015BURGER KING/SUMMER 04 ADULT:15                                                                                                                                 
ID YTV   040901223002      000012STATION ID                                                                                                                                                     
PGRYTV   040901223018230020003002MENTAL BLOCK                                      CRIME & PUNISHMENT       EPS 6                    ZONE 3YTV   C20867 1 35307ACC3                             
COMYTV   040901223303      000015PARAMOUNT/WITHOUTH A PADDLE                                                                                                                                    
COMYTV   040901223318      000030MICROCELL/FIDO (CT08)                                                                                                                                          
COMYTV   040901223348      000030MCCAINS/CORPORATE AGREEMENT                                                                                                                                    
COMYTV   040901223418      000030K CLARK/GOODNITES HEAVY UP 30S                                                                                                                                 
COMYTV   040901223448      000015J&J/JOHNSON'S BABY WASH                                                                                                                                        
COMYTV   040901224322      000030SC JOHNSON/SKINTAMATE                                                                                                                                          
COMYTV   040901224352      000030MCCAINS/CORPORATE AGREEMENT                                                                                                                                    
COMYTV   040901224422      000030MICROCELL/FIDO (CT08)                                                                                                                                          
COMYTV   040901224452      000030EFFEM/DENTABONE/HEALTHY MATURI                                                                                                                                 
COMYTV   040901225308      000030SC JOHNSON/SKINTAMATE                                                                                                                                          
COMYTV   040901225338      000030PEPSICO/PEPI-WORLD CUP HOCKEY                                                                                                                                  
COMYTV   040901225408      000030YTV CREA/BENTLEY'S BACK SCHOOL                                                                                                                                 
COMYTV   040901225438      000030FERRERO/NUTELLA                                                                                                                                                
ID YTV   040901230005      000012STATION ID                                                                                                                                                     
PGRYTV   040901230020233034003014SERIOUSLY WEIRD                                   WEIRD BROTHERS  EPS 13                                        A66860 1 35307ACC                              
SPOYTV   040901230240      000010PEPSICO/LIPTON BRISK TEEN BB                                                                                                                                   
COMYTV   040901230250      000030CADBURY CHOC/SOFT & CHEWY                                                                                                                                      
COMYTV   040901230320      000030MAPLE LEAF FOODS/SPEC HIGHLIGH                                                                                                                                 
COMYTV   040901230350      000030MICROCELL/FIDO (CT08)                                                                                                                                          
COMYTV   040901230420      000030PEPSICO/TROPICANA SPIN                                                                                                                                         
COMYTV   040901231503      000015PARAMOUNT/WITHOUTH A PADDLE                                                                                                                                    
COMYTV   040901231518      000030WALMART/BACK TO SCHOOL                                                                                                                                         
COMYTV   040901231548      000030MICROCELL/FIDO (CT08)                                                                                                                                          
COMYTV   040901231618      000030CADBURY CHOC/SOFT & CHEWY                                                                                                                                      
COMYTV   040901231648      000015YTV/VIZ COMMUNICATIONS                                                                                                                                         
COMYTV   040901232704      000015BURGER KING/SUMMER 04 ADULT:15                                                                                                                                 
COMYTV   040901232719      000030K CLARK/KOTEX COMPENSATION #2                                                                                                                                  
COMYTV   040901232749      000030MCCAINS/CORPORATE AGREEMENT                                                                                                                                    
COMYTV   040901232819      000030SC JOHNSON/SKINTAMATE                                                                                                                                          
COMYTV   040901232849      000015YTV/C PLUS-SUMMER PROMO                                                                                                                                        
ID YTV   040901233018      000012STATION ID                                                                                                                                                     
PGRYTV   040901233034000701003627MY FAMILY                                         DRIVING MISS CRAZY  EP13                                             3 38807BCC                              
COMYTV   040901233658      000030K CLARK/KOTEX FALL RENEGOTIATN                                                                                                                                 
COMYTV   040901233728      000100CDN TIRE/TIRE REPAIR                                                                                                                                           
COMYTV   040901233828      000030MAPLE LEAF FOODS/SPECIAL PKG                                                                                                                                   
COMYTV   040901234330      000015PARAMOUNT/WITHOUTH A PADDLE                                                                                                                                    
COMYTV   040901234345      000030WALMART/BACK TO SCHOOL                                                                                                                                         
COMYTV   040901234415      000030SEARS/FURNITURE/APPLIANCES SUM                                                                                                                                 
COMYTV   040901234445      000030HILLROY/BACK TO SCHOOL                                                                                                                                         
COMYTV   040901234515      000015UNIVERSAL MUSIC/NOW 9                                                                                                                                          
COMYTV   040901235817      000015J&J/CAREFREE - SUMMER                                                                                                                                          
COMYTV   040901235832      000030SC JOHNSON/SKINTAMATE                                                                                                                                          
COMYTV   040901235902      000030EFFEM/DENTABONE/HEALTHY MATURI                                                                                                                                 
COMYTV   040901235932      000030PEPSICO/TROPICANA-COMPENSATION                                                                                                                                 
COMYTV   040901000002      000015FERRERO/NUTELLA                                                                                                                                                
COMYTV   040901000449      000030PEPSICO/PEPSI BRANDS                                                                                                                                           
COMYTV   040901000519      000030ZELLERS/SUMMER/FALL RENEGOTIAT                                                                                                                                 
COMYTV   040901000549      000030MICROCELL/FIDO (CT08)                                                                                                                                          
COMYTV   040901000619      000030COCA-COLA/SPRITE                                                                                                                                               
PGRYTV   040901000701004413003712ARE YOU BEING SERVED?                             FRIENDS AND NEIGHBOURS                                               3 38807BCC                              
SPOYTV   040901001446      000010SC JOHNSON/SKINTAMATE                                                                                                                                          
COMYTV   040901001456      000030SC JOHNSON/SKINTAMATE                                                                                                                                          
COMYTV   040901001526      000030EFFEM/DENTABONE/HEALTHY MATURI                                                                                                                                 
COMYTV   040901001556      000030WALMART/BACK TO SCHOOL                                                                                                                                         
COMYTV   040901001626      000030HEINZ/VEGGIE SAUCES                                                                                                                                            
COMYTV   040901002326      000015PARAMOUNT/WITHOUTH A PADDLE                                                                                                                                    
COMYTV   040901002341      000030HILLROY/BACK TO SCHOOL                                                                                                                                         
COMYTV   040901002411      000030K CLARK/GOODNITES HEAVY UP 30S                                                                                                                                 
COMYTV   040901002441      000030SONY/HOT SHOTS 4                                                                                                                                               
COMYTV   040901002511      000030MAPLE LEAF FOODS/SPEC HIGHLIGH                                                                                                                                 
COMYTV   040901002541      000015J&J/CAREFREE - SUMMER                                                                                                                                          
COMYTV   040901003039      000030PEPSICO/TROPICANA SPIN                                                                                                                                         
COMYTV   040901003109      000030STAPLES BUS DEPOT/BACK TO SCHO                                                                                                                                 
COMYTV   040901003139      000030MCCAINS/CORPORATE AGREEMENT                                                                                                                                    
COMYTV   040901003209      000030DELL/DELL DR                                                                                                                                                   
COMYTV   040901003239      000030COCA-COLA/SPRITE                                                                                                                                               
INTYTV   040901004413004525000112HERITAGE MINUTE                                   RESPONSIBLE GOVERNMENT EP11                                          1 358120CC                              
PGRYTV   040901004525012201003636KEEPING UP APPEARANCES                            EPS 37                                                               3 38807BCC                              
COMYTV   040901005728      000015FERRERO/NUTELLA                                                                                                                                                
COMYTV   040901005743      000030MICROCELL/FIDO (CT08)                                                                                                                                          
COMYTV   040901005813      000030MCCAINS/CORPORATE AGREEMENT                                                                                                                                    
COMYTV   040901005843      000030K CLARK/GOODNITES HEAVY UP 30S                                                                                                                                 
COMYTV   040901005913      000015J&J/CLEAN AND CLEAR                                                                                                                                            
COMYTV   040901010541      000015J&J/JOHNSON'S BABY WASH                                                                                                                                        
COMYTV   040901010556      000030SONY/HOT SHOTS 4                                                                                                                                               
COMYTV   040901010626      000100CDN TIRE/TIRE REPAIR                                                                                                                                           
COMYTV   040901010726      000030ROGERS WIRELESS/BACK TO SCHOOL                                                                                                                                 
COMYTV   040901010756      000015BURGER KING/SUMMER 04 ADULT:15                                                                                                                                 
COMYTV   040901011447      000030ZELLERS/SUMMER/FALL RENEGOTIAT                                                                                                                                 
COMYTV   040901011517      000030DELL/DELL DR                                                                                                                                                   
COMYTV   040901011547      000030SONY/HOT SHOTS 4                                                                                                                                               
COMYTV   040901011617      000030SC JOHNSON/SKINTAMATE                                                                                                                                          
COMYTV   040901011647      000030MICROCELL/FIDO (CT08)                                                                                                                                          
PGRYTV   040901012201015726003525MY FAMILY                                         DRIVING MISS CRAZY  EP13                                             3 38807BCC                              
COMYTV   040901012829      000030MAPLE LEAF FOODS/SPEC HIGHLIGH                                                                                                                                 
COMYTV   040901012859      000030MICROCELL/FIDO (CT08)                                                                                                                                          
COMYTV   040901012929      000030ZELLERS/SUMMER/FALL RENEGOTIAT                                                                                                                                 
COMYTV   040901012959      000030K CLARK/KOTEX COMPENSATION #2                                                                                                                                  
COMYTV   040901013501      000030SC JOHNSON/SKINTAMATE                                                                                                                                          
COMYTV   040901013531      000030DELL/DELL DR                                                                                                                                                   
COMYTV   040901013601      000030MCCAINS/CORPORATE AGREEMENT                                                                                                                                    
COMYTV   040901013631      000030SONY/HOT SHOTS 4                                                                                                                                               
COMYTV   040901013701      000030HILLROY/BACK TO SCHOOL                                                                                                                                         
COMYTV   040901015018      000030MCCAINS/CORPORATE AGREEMENT                                                                                                                                    
COMYTV   040901015048      000030SUN-RYPE/SPRING-FALL 2004                                                                                                                                      
COMYTV   040901015118      000030MAPLE LEAF FOODS/SPEC HIGHLIGH                                                                                                                                 
COMYTV   040901015148      000030CADBURY CHOC/SOFT & CHEWY                                                                                                                                      
COMYTV   040901015218      000030MCCAINS/CORPORATE AGREEMENT                                                                                                                                    
PGRYTV   040901015726022715002949ADDAMS FAMILY: THE SERIES (#1-65)                 AMNESIA IN ADDAMS FAMILY EP30                     AFS         C15097 1 35307BCC                              
SPOYTV   040901020611      000010PEPSICO/LIPTON BRISK TEEN BB                                                                                                                                   
COMYTV   040901020621      000030WALMART/BACK TO SCHOOL                                                                                                                                         
COMYTV   040901020651      000100CDN TIRE/TIRE REPAIR                                                                                                                                           
COMYTV   040901020751      000030PEPSICO/PEPI-WORLD CUP HOCKEY                                                                                                                                  
COMYTV   040901021458      000030SC JOHNSON/SKINTAMATE                                                                                                                                          
COMYTV   040901021528      000100CDN TIRE/TIRE REPAIR                                                                                                                                           
COMYTV   040901021628      000030SONY/HOT SHOTS 4                                                                                                                                               
COMYTV   040901021658      000030MCCAINS/CORPORATE AGREEMENT                                                                                                                                    
COMYTV   040901022254      000015BURGER KING/SUMMER 04 ADULT:15                                                                                                                                 
COMYTV   040901022309      000030SC JOHNSON/SKINTAMATE                                                                                                                                          
COMYTV   040901022339      000030HEINZ/VEGGIE SAUCES                                                                                                                                            
COMYTV   040901022409      000030MICROCELL/FIDO (CT08)                                                                                                                                          
COMYTV   040901022439      000030MAPLE LEAF FOODS/SPECIAL PKG                                                                                                                                   
COMYTV   040901022509      000015J&J/JOHNSON'S BABY WASH                                                                                                                                        
PGRYTV   040901022715025821003106RADIO ACTIVE (#1-26)                              OPERATION FRAUDCAST EP1                           TELEACYTV   C14677 1 35307BCC                              
SPOYTV   040901023826      000010PEPSICO/LIPTON BRISK TEEN BB                                                                                                                                   
COMYTV   040901023836      000015FERRERO/NUTELLA                                                                                                                                                
COMYTV   040901023851      000030MAPLE LEAF FOODS/SPEC HIGHLIGH                                                                                                                                 
COMYTV   040901023921      000030MCCAINS/CORPORATE AGREEMENT                                                                                                                                    
COMYTV   040901023951      000030MAPLE LEAF FOODS/SPECIAL PKG                                                                                                                                   
COMYTV   040901024021      000015J&J/CAREFREE - SUMMER                                                                                                                                          
COMYTV   040901024811      000030SEARS/FURNITURE/APPLIANCES SUM                                                                                                                                 
COMYTV   040901024841      000030PEPSICO/PEPI-WORLD CUP HOCKEY                                                                                                                                  
COMYTV   040901024911      000030STAPLES BUS DEPOT/BACK TO SCHO                                                                                                                                 
COMYTV   040901024941      000030GENERAL MILLS/PIZZA POPS                                                                                                                                       
COMYTV   040901025011      000030FERRERO/NUTELLA                                                                                                                                                
COMYTV   040901025400      000015J&J/CLEAN AND CLEAR                                                                                                                                            
COMYTV   040901025415      000030SONY/HOT SHOTS 4                                                                                                                                               
COMYTV   040901025445      000030CADBURY CHOC/SOFT & CHEWY                                                                                                                                      
COMYTV   040901025515      000030WALMART/BACK TO SCHOOL                                                                                                                                         
COMYTV   040901025545      000030MCCAINS/CORPORATE AGREEMENT                                                                                                                                    
COMYTV   040901025615      000015BURGER KING/SUMMER 04 ADULT:15                                                                                                                                 
PGRYTV   040901025821030622000801SYSTEM CRASH                                      CYBERWORLD EP6                                                A18367 1 31307FCC                              
SPOYTV   040901030412      000010PEPSICO/LIPTON BRISK TEEN BB                                                                                                                                   
COMYTV   040901030422      000030SC JOHNSON/SKINTAMATE                                                                                                                                          
COMYTV   040901030452      000100CDN TIRE/TIRE REPAIR                                                                                                                                           
COMYTV   040901030552      000030MAPLE LEAF FOODS/SPECIAL PKG                                                                                                                                   
PSAYTV   040901030622030722000100GREENPEACE/CLEAN ENERGY NOW                                                                                            1 000130                                
PGRYTV   040901030722032928002206SYSTEM CRASH                                      CYBERWORLD EP6                                                A18367 1 31307FCC                              
COMYTV   040901031256      000030WALMART/BACK TO SCHOOL                                                                                                                                         
COMYTV   040901031326      000030PEPSICO/TROPICANA-COMPENSATION                                                                                                                                 
COMYTV   040901031356      000030ROGERS WIRELESS/BACK TO SCHOOL                                                                                                                                 
COMYTV   040901031426      000030HEINZ/VEGGIE SAUCES                                                                                                                                            
COMYTV   040901031456      000030HILLROY/BACK TO SCHOOL                                                                                                                                         
COMYTV   040901031938      000030HEINZ/VEGGIE SAUCES                                                                                                                                            
COMYTV   040901032008      000030COCA-COLA/SPRITE                                                                                                                                               
COMYTV   040901032038      000030STAPLES BUS DEPOT/BACK TO SCHO                                                                                                                                 
COMYTV   040901032108      000030EFFEM/DENTABONE/HEALTHY MATURI                                                                                                                                 
COMYTV   040901032138      000030PEPSICO/TROPICANA SPIN                                                                                                                                         
PGRYTV   040901032928035824002856DRAGON BALL                                       MAYHEM IN DREAMLAND   EPS 45                                  D02587 7 38307ECC2                             
SPOYTV   040901033034      000010PEPSICO/LIPTON BRISK TEEN BB                                                                                                                                   
