PGRYTV   030501060000062503002503MONA THE VAMPIRE                                  DR.JAVA/MISS DEWEY'S EPS 27                       CINAR YTV   A68376 1 35107E                                
PRCYTV   030501060106      000015YTV PROMO CONTRACT                                                                                                                                             
PRCYTV   030501061228      000015YTV PROMO CONTRACT                                                                                                                                             
PRCYTV   030501062349      000030YTV PROMO CONTRACT                                                                                                                                             
PRCYTV   030501062419      000015YTV PROMO CONTRACT                                                                                                                                             
INTYTV   030501062503062848000345CHIP 'N' ORBIT                                    EPS 64                                                               1 311120CC                              
INTYTV   030501062848063000000112STICKIN' AROUND                                   TEMPER, TEMPER                                                       1 321120CC                              
ID YTV   030501062949      000012STATION ID                                                                                                                                                     
PGRYTV   030501063000065432002432MONSTER BY MISTAKE                                MONSTER A GO GO EP11                              MONSTEYTV   A21775 1 35107ECC                              
PRCYTV   030501063810      000015YTV PROMO CONTRACT                                                                                                                                             
PRCYTV   030501064551      000015YTV PROMO CONTRACT                                                                                                                                             
PRCYTV   030501065326      000015YTV PROMO CONTRACT                                                                                                                                             
PGRYTV   030501065432070114000642ELLIOT MOOSE                                      FLOWER-SPOTTED DRAGON EP44                        NELVAN      A25754 1 32107GCC                              
ID YTV   030501070102      000012STATION ID                                                                                                                                                     
PGRYTV   030501070114072405002251SAILOR MOON (#1-65)                               SECRET GARDEN                                                 D01277 7 38107ECC2                             
PRCYTV   030501070311      000015YTV PROMO CONTRACT                                                                                                                                             
PRCYTV   030501071104      000015YTV PROMO CONTRACT                                                                                                                                             
PRCYTV   030501071953      000015YTV PROMO CONTRACT                                                                                                                                             
PGRYTV   030501072405072905000500AT THE FUNNY FARM (#1-40)                         PONY                                              REDCAP      C14543 1 35105A                                
INTYTV   030501072905073017000112STICKIN' AROUND                                   THE AMAZING RUBBERGUY                                                1 321120CC                              
ID YTV   030501073006      000012STATION ID                                                                                                                                                     
PGRYTV   030501073017075648002631HAMTARO                                           ROMANCING THE ROOSTERS  EP 47                                 D02043 7 38307ECC2                             
SPOYTV   030501073132      000010MATTEL/HE-MAN SUPPORT                                                                                                                                          
COMYTV   030501073142      000030MCDONALDS/HAPPY MEAL                                                                                                                                           
COMYTV   030501073212      000030MATTEL/SPRING VARIOUS                                                                                                                                          
PROYTV   030501073242      000030YTV PROMO CONTRACT                                                                                                                                             
COMYTV   030501073923      000030MATTEL/BONUS CONTRACT                                                                                                                                          
COMYTV   030501073953      000030KELLOGG/FROOT LOOPS                                                                                                                                            
COMYTV   030501074023      000030MATTEL/SPRING VARIOUS                                                                                                                                          
COMYTV   030501074053      000015J&J/SUPER SUD SURF                                                                                                                                             
COMYTV   030501074108      000015HASBRO/PREFALL 2003 PART 2 OF2                                                                                                                                 
PRCYTV   030501074123      000030YTV PROMO CONTRACT                                                                                                                                             
COMYTV   030501074754      000030MATTEL/SPRING VARIOUS                                                                                                                                          
COMYTV   030501074824      000030KELLOGG CANADA INC.                                                                                                                                            
PRCYTV   030501074854      000030YTV PROMO CONTRACT                                                                                                                                             
PRCYTV   030501074924      000030YTV PROMO CONTRACT                                                                                                                                             
INTYTV   030501075648080000000312NANALAN'                                          SNEEZE EP24                                                          1 353120                                
ID YTV   030501075948      000012STATION ID                                                                                                                                                     
PGRYTV   030501080000082801002801RUGRATS                                           OFFICER CHUCKIE/GRANDPA EPS114                                       2 38307ECC                              
COMYTV   030501080052      000030MATTEL/SPRING VARIOUS                                                                                                                                          
COMYTV   030501080122      000030MCDONALD'S RESTAURANTS CANADA                                                                                                                                  
COMYTV   030501081304      000015MATTEL CANADA INC.                                                                                                                                             
COMYTV   030501081319      000030DISCOVERY KIDS                                                                                                                                                 
COMYTV   030501081349      000030MATTEL CANADA INC.                                                                                                                                             
COMYTV   030501081419      000015TOPP'S                                                                                                                                                         
COMYTV   030501081434      000030GRAND TOYS                                                                                                                                                     
COMYTV   030501082616      000030WRIGLEY CANADA INC.                                                                                                                                            
COMYTV   030501082646      000030BANDAI CANADA                                                                                                                                                  
INTYTV   030501082801083007000206NELVANA INTERSTITIALS                             HIGH NOON                                                            1 321120                                
ID YTV   030501082956      000012STATION ID                                                                                                                                                     
PGRYTV   030501083007085503002456UH OH!                                            EPS 178                                                              1 311100CC                              
PRCYTV   030501083320      000030YTV PROMO CONTRACT                                                                                                                                             
PRCYTV   030501084022      000030YTV PROMO CONTRACT                                                                                                                                             
PRCYTV   030501084707      000030YTV PROMO CONTRACT                                                                                                                                             
INTYTV   030501085503085848000345CHIP 'N' ORBIT                                    EPS 65                                                               1 311120CC                              
INTYTV   030501085848090000000112STICKIN' AROUND                                   GROSS ANATOMY                                                        1 321120CC                              
ID YTV   030501085948      000012STATION ID                                                                                                                                                     
PGRYTV   030501090000092406002406LITTLE BEAR                                       DUCK/QUACK/FEATHER DETECTIVE                      NELVAN             1 32107E                                
INTYTV   030501092406092624000218NELVANA INTERSTITIALS                             GONE BUT NOT FORGOTTEN                                               1 321120                                
PRCYTV   030501092524      000030YTV PROMO CONTRACT                                                                                                                                             
PRCYTV   030501092554      000030YTV PROMO CONTRACT                                                                                                                                             
INTYTV   030501092624092724000100STICKIN' AROUND                                   VITAMIN P                                                            1 321120CC                              
INTYTV   030501092724093000000236NELVANA INTERSTITIALS                             YOU ARE WHAT YOU EAT                                                 1 321120                                
PRCYTV   030501092824      000030YTV PROMO CONTRACT                                                                                                                                             
PRCYTV   030501092854      000030YTV PROMO CONTRACT                                                                                                                                             
PRCYTV   030501092924      000015YTV PROMO CONTRACT                                                                                                                                             
ID YTV   030501092939      000012STATION ID                                                                                                                                                     
PGRYTV   030501093000095401002401CARE BEARS SERIES                                 POWERFUL MR.BEASTLY/ORDER                         NELVAN      C06927 1 32107E                                
PGRYTV   030501095401095959000558AT THE FUNNY FARM (#1-40)                         COW                                               REDCAP      C14543 1 35105A                                
PRCYTV   030501095904      000030YTV PROMO CONTRACT                                                                                                                                             
PRCYTV   030501095934      000015YTV PROMO CONTRACT                                                                                                                                             
ID YTV   030501095949      000012STATION ID                                                                                                                                                     
PGRYTV   030501095959102342002343COUNTRY MOUSE & CITY MOUSE                        HIGH FLYING HI-JINKS EP45                         CINAR       CXXXXX 1 35107ECC                              
PGRYTV   030501102342103024000642ELLIOT MOOSE                                      PAISLEY THE GREAT EP45                            NELVAN      A25753 1 32107GCC                              
ID YTV   030501103014      000012STATION ID                                                                                                                                                     
PGRYTV   030501103024105429002405RUPERT                                            EPS 7-RUPERT AND THE CROCODILE                    NELVANYTV   P11517 1 32107ECC                              
INTYTV   030501105429105602000133NELVANA INTERSTITIALS                             ALL'S QUIET ON MONSTER FRONT                                         1 321120                                
INTYTV   030501105602105702000100STICKIN' AROUND                                   DISAPPEARING ACT                                                     1 321120CC                              
INTYTV   030501105702110000000258NELVANA INTERSTITIALS                             THE WHOLE TOOTH                                                      1 321120                                
PRCYTV   030501105859      000030YTV PROMO CONTRACT                                                                                                                                             
PRCYTV   030501105929      000015YTV PROMO CONTRACT                                                                                                                                             
ID YTV   030501105944      000012STATION ID                                                                                                                                                     
PGRYTV   030501110000112439002439MONSTER BY MISTAKE                                THIN ICE EP19                                     MONSTEYTV   A30285 1 35107ECC                              
PRCYTV   030501110826      000015YTV PROMO CONTRACT                                                                                                                                             
PRCYTV   030501111606      000015YTV PROMO CONTRACT                                                                                                                                             
PRCYTV   030501112325      000015YTV PROMO CONTRACT                                                                                                                                             
PGRYTV   030501112439113111000632ELLIOT MOOSE                                      SLEEPING SOCKS  EPS46                             NELVAN      A25757 1 32107GCC                              
ID YTV   030501113101      000012STATION ID                                                                                                                                                     
PGRYTV   030501113111115702002551STICKIN' AROUND                                   JUMBO FRANK/OWED TO A TREE                        NELVANYTV   A08092 1 32107ECC                              
PRCYTV   030501113225      000015YTV PROMO CONTRACT                                                                                                                                             
PRCYTV   030501114348      000015YTV PROMO CONTRACT                                                                                                                                             
PRCYTV   030501115511      000015YTV PROMO CONTRACT                                                                                                                                             
INTYTV   030501115702115826000124NELVANA INTERSTITIALS                             MONSTER TRASH                                                        1 321120                                
INTYTV   030501115826115957000131NELVANA INTERSTITIALS                             WIZ DUMB                                                             1 321120                                
ID YTV   030501115947      000012STATION ID                                                                                                                                                     
PGRYTV   030501115957122659002702SAILOR MOON                                       DAMP SPIRITS EP90                                             D01864 7 38307ECC2                             
COMYTV   030501120157      000030MCDONALD'S RESTAURANTS CANADA                                                                                                                                  
COMYTV   030501120227      000030HASBRO CANADA INC.                                                                                                                                             
COMYTV   030501121300      000030WRIGLEY/HUBBA BUBBA                                                                                                                                            
COMYTV   030501121330      000030MATTEL/BONUS CONTRACT                                                                                                                                          
COMYTV   030501121400      000030GENERAL MILLS/BARTER                                                                                                                                           
COMYTV   030501121430      000030MATTEL/SPRING VARIOUS                                                                                                                                          
COMYTV   030501122439      000030MATTEL CANADA INC.                                                                                                                                             
COMYTV   030501122509      000030KELLOGG CANADA INC.                                                                                                                                            
PRCYTV   030501122539      000030YTV PROMO CONTRACT                                                                                                                                             
PRCYTV   030501122609      000015YTV PROMO CONTRACT                                                                                                                                             
INTYTV   030501122659122959000300NUCLEAR DONKEY                                    NUCLEAR DONKEY VIDEO                                                 1 313120                                
ID YTV   030501122949      000012STATION ID                                                                                                                                                     
PGRYTV   030501122959125645002646HAMTARO                                           ROMANCING THE ROOSTERS  EP 47                                 D02043 7 38307ECC2                             
COMYTV   030501123115      000030MCDONALD'S RESTAURANTS CANADA                                                                                                                                  
COMYTV   030501123145      000030MATTEL CANADA INC.                                                                                                                                             
PROYTV   030501123215      000030YTV PROMO CONTRACT                                                                                                                                             
PROYTV   030501123245      000030YTV PROMO CONTRACT                                                                                                                                             
COMYTV   030501123922      000015HASBRO CANADA INC.                                                                                                                                             
COMYTV   030501123937      000015TOPP'S                                                                                                                                                         
COMYTV   030501123952      000030MATTEL CANADA INC.                                                                                                                                             
COMYTV   030501124022      000030MINUTE MAID                                                                                                                                                    
COMYTV   030501124052      000030MATTEL CANADA INC.                                                                                                                                             
PRCYTV   030501124122      000030YTV PROMO CONTRACT                                                                                                                                             
COMYTV   030501124753      000030MATTEL CANADA INC.                                                                                                                                             
COMYTV   030501124823      000030DISCOVERY KIDS                                                                                                                                                 
PRCYTV   030501124853      000030YTV PROMO CONTRACT                                                                                                                                             
PRCYTV   030501124923      000030YTV PROMO CONTRACT                                                                                                                                             
INTYTV   030501125645125958000313NANALAN'                                          DINNER GUEST EP25                                                    1 351120                                
ID YTV   030501125947      000012STATION ID                                                                                                                                                     
PGRYTV   030501125958132559002601GEORGE SHRINKS                                    SPEED SHRINKS EP 25                               NELVAN             1 32107E                                
INTYTV   030501132559132957000358CHIP 'N' ORBIT                                    EPS 66                                                               1 311120CC                              
ID YTV   030501132946      000012STATION ID                                                                                                                                                     
PGRYTV   030501132957135346002349LEGEND OF WHITE FANG                              EPS 17.                                                       P12863 1 35107ACC                              
PGRYTV   030501135346135846000500AT THE FUNNY FARM (#1-40)                         HAMSTER                                           REDCAP      C14543 1 35105A                                
INTYTV   030501135846140059000213NELVANA INTERSTITIALS                             CAMP UPPIDY                                                          1 321120                                
ID YTV   030501140047      000012STATION ID                                                                                                                                                     
PGRYTV   030501140059142547002448MONA THE VAMPIRE                                  DR.JAVA/MISS DEWEY'S EPS 27                       CINAR YTV   a68376 1 35107ECC                              
PRCYTV   030501140205      000015YTV PROMO CONTRACT                                                                                                                                             
PRCYTV   030501141327      000015YTV PROMO CONTRACT                                                                                                                                             
PRCYTV   030501142448      000030YTV PROMO CONTRACT                                                                                                                                             
INTYTV   030501142547142932000345CHIP 'N' ORBIT                                    EPS 67                                                               1 311120CC                              
INTYTV   030501142932143045000113STICKIN' AROUND                                   YAMS AWAY                                                            1 321120CC                              
ID YTV   030501143033      000012STATION ID                                                                                                                                                     
PGRYTV   030501143045145347002302SAILOR MOON (#1-65)                               SECRET GARDEN                                                 D01277 7 38107ECC2                             
PRCYTV   030501143242      000015YTV PROMO CONTRACT                                                                                                                                             
PRCYTV   030501144035      000015YTV PROMO CONTRACT                                                                                                                                             
PRCYTV   030501144924      000015YTV PROMO CONTRACT                                                                                                                                             
PGRYTV   030501145347145847000500AT THE FUNNY FARM (#1-40)                         ZEBRA                                             REDCAP      C14543 1 35105A                                
INTYTV   030501145847150000000113STICKIN' AROUND                                   PHOTO OOPS                                                           1 321120CC                              
ID YTV   030501145948      000012STATION ID                                                                                                                                                     
PGRYTV   030501150000152848002848MEDABOTS                                          SWEDE OR SOUR EPS 44                                          D01866 7 38307ECC2                             
SPOYTV   030501150457      000010DISCOVERY KIDS/DK WEB                                                                                                                                          
COMYTV   030501150507      000030KELLOGG/RICE KRISPIES                                                                                                                                          
COMYTV   030501150537      000030MATTEL/SPRING VARIOUS                                                                                                                                          
PROYTV   030501150607      000030YTV PROMO CONTRACT                                                                                                                                             
PROYTV   030501150637      000030YTV PROMO CONTRACT                                                                                                                                             
COMYTV   030501151238      000015TOPP'S/PUSH POP                                                                                                                                                
COMYTV   030501151253      000030MATTEL/BONUS CONTRACT                                                                                                                                          
COMYTV   030501151323      000030MCDONALDS/HAPPY MEAL                                                                                                                                           
COMYTV   030501151353      000030DISCOVERY KIDS/DK WEB                                                                                                                                          
COMYTV   030501151423      000015KRAFT/KIDS P1 :15'S                                                                                                                                            
PRCYTV   030501151438      000030YTV PROMO CONTRACT                                                                                                                                             
PRCYTV   030501151508      000030YTV PROMO CONTRACT                                                                                                                                             
COMYTV   030501152014      000030KELLOGG/FROOT LOOPS                                                                                                                                            
COMYTV   030501152044      000030MATTEL/SPRING VARIOUS                                                                                                                                          
PRCYTV   030501152114      000030YTV PROMO CONTRACT                                                                                                                                             
PRCYTV   030501152144      000030YTV PROMO CONTRACT                                                                                                                                             
INTYTV   030501152848153000000112ANIME MINUTE                                      DRAGON MANGO ONLINE COMICS                                           1 313120                                
ID YTV   030501152948      000012STATION ID                                                                                                                                                     
PGRYTV   030501153000155728002728MONSTER RANCHER                                   BATTLE IN THE MEADOW EP33                                     D01755 7 38307ECC2                             
COMYTV   030501153106      000030WENDY'S/KIDS CORPORATE                                                                                                                                         
COMYTV   030501153136      000030MATTEL/SPRING VARIOUS                                                                                                                                          
PRCYTV   030501153206      000030YTV PROMO CONTRACT                                                                                                                                             
PRCYTV   030501153236      000030YTV PROMO CONTRACT                                                                                                                                             
COMYTV   030501154016      000030MINUTE MAID/BIBO                                                                                                                                               
COMYTV   030501154046      000030MATTEL CANADA INC.                                                                                                                                             
COMYTV   030501154116      000030MCDONALD'S RESTAURANTS CANADA                                                                                                                                  
COMYTV   030501154146      000030MATTEL CANADA INC.                                                                                                                                             
PRCYTV   030501154216      000030YTV PROMO CONTRACT                                                                                                                                             
COMYTV   030501154928      000030BANDAI CANADA                                                                                                                                                  
COMYTV   030501154958      000015KRAFT/KOOL AID JAMMER'S :15                                                                                                                                    
COMYTV   030501155013      000015HASBRO/SKIBO BARTER                                                                                                                                            
PRCYTV   030501155028      000030YTV PROMO CONTRACT                                                                                                                                             
INTYTV   030501155728160001000233PROGRAM JOCKEY                                    PROGRAM JOCKEY                                                       1 213120                                
ID YTV   030501155948      000012STATION ID                                                                                                                                                     
PGRYTV   030501160001162746002745POKEMON                                           EPS 250 FANGS FOR NOTHIN                                             7 28307ECC                              
SPOYTV   030501160123      000010MATTEL/HE-MAN SUPPORT                                                                                                                                          
COMYTV   030501160133      000030MATTEL/SPRING VARIOUS                                                                                                                                          
COMYTV   030501160203      000030GENERAL MILLS/BARTER                                                                                                                                           
PRCYTV   030501160233      000030YTV PROMO CONTRACT                                                                                                                                             
PRCYTV   030501160303      000030YTV PROMO CONTRACT                                                                                                                                             
COMYTV   030501161159      000015KRAFT/KIDS P1 :15'S                                                                                                                                            
COMYTV   030501161214      000030MATTEL/SPRING VARIOUS                                                                                                                                          
COMYTV   030501161244      000030DISCOVERY KIDS/DK WEB                                                                                                                                          
COMYTV   030501161314      000030KRAFT/KIDS P1 :30'S                                                                                                                                            
COMYTV   030501161344      000015BUENA VISTA PIC/LIZZYMCG                                                                                                                                       
COMYTV   030501162353      000030GENERAL MILLS CANADA INC.                                                                                                                                      
COMYTV   030501162423      000030KELLOGG CANADA INC.                                                                                                                                            
PRCYTV   030501162453      000030YTV PROMO CONTRACT                                                                                                                                             
PRCYTV   030501162523      000015YTV PROMO CONTRACT                                                                                                                                             
INTYTV   030501162746163000000214PROGRAM JOCKEY                                    PROGRAM JOCKEY                                                       1 213120                                
ID YTV   030501162948      000012STATION ID                                                                                                                                                     
PGRYTV   030501163000165726002726DEXTER'S LABORATORY                               CRITICAL/LET'S SAVE/AVERAGE                                          2 38307ECC                              
SPOYTV   030501163726      000010DISCOVERY KIDS/DK WEB                                                                                                                                          
COMYTV   030501163736      000030KELLOGG/FROOT LOOPS                                                                                                                                            
COMYTV   030501163806      000015BUENA VISTA HV/TREASURE PLANET                                                                                                                                 
COMYTV   030501163821      000015KRAFT/KIDS P1 :15'S                                                                                                                                            
COMYTV   030501164533      000015TOPP'S                                                                                                                                                         
COMYTV   030501164548      000030SHAW                                                                                                                                                           
COMYTV   030501164618      000030GENERAL MILLS CANADA INC.                                                                                                                                      
COMYTV   030501164648      000030MATTEL/SPRING VARIOUS                                                                                                                                          
COMYTV   030501164718      000015HASBRO/PREFALL 2003 PART 2 OF2                                                                                                                                 
COMYTV   030501165238      000030MATTEL/SPRING VARIOUS                                                                                                                                          
COMYTV   030501165308      000030SMITHKLINE BEECHAM                                                                                                                                             
PRCYTV   030501165338      000030YTV PROMO CONTRACT                                                                                                                                             
PRCYTV   030501165408      000015YTV PROMO CONTRACT                                                                                                                                             
INTYTV   030501165726170000000234PROGRAM JOCKEY                                    PROGRAM JOCKEY                                                       1 213120                                
ID YTV   030501165948      000012STATION ID                                                                                                                                                     
PGRYTV   030501170000172655002655YU-GI-OH                                          LEGENDARY FISHERMAN II EP69                                          7 38307ECC                              
SPOYTV   030501170535      000010WRIGLEY/HUBBA BUBBA                                                                                                                                            
COMYTV   030501170545      000015HASBRO/SKIBO BARTER                                                                                                                                            
COMYTV   030501170600      000015KRAFT/KOOL AID JAMMER'S :15                                                                                                                                    
COMYTV   030501170615      000030MATTEL/SPRING VARIOUS                                                                                                                                          
COMYTV   030501171204      000030WENDY'S/KIDS CORPORATE                                                                                                                                         
COMYTV   030501171234      000030MATTEL/SPRING VARIOUS                                                                                                                                          
COMYTV   030501171304      000030GENERAL MILLS CANADA INC.                                                                                                                                      
COMYTV   030501171334      000030MATTEL/SPRING VARIOUS                                                                                                                                          
COMYTV   030501171745      000015HIGHWAY ENTERTAINMENT                                                                                                                                          
COMYTV   030501171800      000030MATTEL/SPRING VARIOUS                                                                                                                                          
COMYTV   030501171830      000015JOHNSON & JOHNSON INC.                                                                                                                                         
PRCYTV   030501171845      000030YTV PROMO CONTRACT                                                                                                                                             
INTYTV   030501172655173000000305PROGRAM JOCKEY                                    PROGRAM JOCKEY                                                       1 213120                                
ID YTV   030501172948      000012STATION ID                                                                                                                                                     
PGRYTV   030501173000175637002637BEYBLADE                                          NEW AND CYBER IMPROVED  EPS 50                                D02016 7 38307ECC2                             
COMYTV   030501173621      000015KRAFT/KIDS P1 :15'S                                                                                                                                            
COMYTV   030501173636      000015BUENA VISTA HV/TREASURE PLANET                                                                                                                                 
COMYTV   030501173651      000030MCDONALDS/HAPPY MEAL                                                                                                                                           
COMYTV   030501174143      000015KRAFT/KIDS P1 :15'S                                                                                                                                            
COMYTV   030501174158      000030DISCOVERY KIDS                                                                                                                                                 
COMYTV   030501174228      000030KRAFT/KIDS P1 :30'S                                                                                                                                            
COMYTV   030501174258      000030MATTEL/BONUS CONTRACT                                                                                                                                          
COMYTV   030501174328      000015SONY ENT/DADDY DAY CARE-KIDS P                                                                                                                                 
COMYTV   030501174959      000030WENDY'S/KIDS CORPORATE                                                                                                                                         
COMYTV   030501175029      000030MATTEL/SPRING VARIOUS                                                                                                                                          
PRCYTV   030501175059      000030YTV PROMO CONTRACT                                                                                                                                             
PRCYTV   030501175129      000030YTV PROMO CONTRACT                                                                                                                                             
INTYTV   030501175637180009000332PROGRAM JOCKEY                                    PROGRAM JOCKEY                                                       1 213120                                
ID YTV   030501175948      000012STATION ID                                                                                                                                                     
SPOYTV   030501180000      000005HERSHEY/MOULDED BARS                                                                                                                                           
PGRYTV   030501180009183103003054SPONGEBOB SQUAREPANTS                             GRAVEYARD/KRUSTY LOVE  EPS 36                                        2 38307ECC                              
SPOYTV   030501180054      000010MATTEL/HE-MAN SUPPORT                                                                                                                                          
COMYTV   030501180104      000015KRAFT/KIDS P1 :15'S                                                                                                                                            
COMYTV   030501180119      000030ACT/X2 WOLVERINES REVENGE/XMEN                                                                                                                                 
COMYTV   030501180149      000030HWY/ADULT BARTER#1                                                                                                                                             
COMYTV   030501180219      000030HALLMARK/CARDS                                                                                                                                                 
COMYTV   030501180249      000015BUENA VISTA HV/TREASURE PLANET                                                                                                                                 
COMYTV   030501181425      000015HERSHEY/MOULDED BARS                                                                                                                                           
COMYTV   030501181440      000015J&J/ACNE WASH                                                                                                                                                  
COMYTV   030501181455      000030GENERAL MILLS CANADA INC.                                                                                                                                      
COMYTV   030501181525      000030SHAW                                                                                                                                                           
COMYTV   030501181555      000030TRICON                                                                                                                                                         
COMYTV   030501182801      000015KRAFT/KOOL AID JAMMER'S :15                                                                                                                                    
COMYTV   030501182816      000030HIGHWAY ENTERTAINMENT                                                                                                                                          
COMYTV   030501182846      000030STELLA PHARMACEUTICAL CO.LTD.                                                                                                                                  
COMYTV   030501182916      000030COLGATE-PALMOLIVE CANADA INC                                                                                                                                   
COMYTV   030501182946      000015HASBRO/SKIBO BARTER                                                                                                                                            
ID YTV   030501183046      000012STATION ID                                                                                                                                                     
PGRYTV   030501183103190026002923JIMMY NEUTRON                                     WHEN PANTS ATTACK  EPS1                                              2 38307ECC                              
SPOYTV   030501183139      000010COLGATE/TOOTHBRUSH,TOOTHPASTE                                                                                                                                  
COMYTV   030501183149      000015KRAFT/KIDS P1 :15'S                                                                                                                                            
COMYTV   030501183204      000030HWY/CPA-ADULT PACKAGE#3                                                                                                                                        
COMYTV   030501183234      000030HIGHWAY ENTERTAINMENT                                                                                                                                          
COMYTV   030501183304      000030COLGATE/TOOTHBRUSH,TOOTHPASTE                                                                                                                                  
COMYTV   030501183334      000015KRAFT/KIDS P1 :15'S                                                                                                                                            
COMYTV   030501184452      000015SCOTT PAPER/TOWELS&SCOTTIES                                                                                                                                    
COMYTV   030501184507      000015KRAFT/KOOL AID JAMMER'S :15                                                                                                                                    
COMYTV   030501184522      000030SONY ENT/DADDY DAY CARE-KIDS P                                                                                                                                 
COMYTV   030501184552      000030NESTLE CANADA INC.                                                                                                                                             
COMYTV   030501184622      000015ACT/X2 WOLVERINES REVENGE/XMEN                                                                                                                                 
COMYTV   030501184637      000015NIVEA CREAM                                                                                                                                                    
COMYTV   030501185723      000015BUENA VISTA/FINDING NEMO WK 1                                                                                                                                  
COMYTV   030501185738      000030KRAFT/KIDS P1 :30'S                                                                                                                                            
COMYTV   030501185808      000030SHAW                                                                                                                                                           
COMYTV   030501185838      000030BURGER KING CANADA INC.                                                                                                                                        
COMYTV   030501185908      000015MATTEL/:15'S SPRING                                                                                                                                            
ID YTV   030501190014      000012STATION ID                                                                                                                                                     
PGRYTV   030501190026193040003014YVON OF THE YUKON                                 YVON OVER THE RAINBOW  EP20                       YVON  YTV   A52381 1 35307ECC                              
SPOYTV   030501190834      000010GRAND TOYS/ASTRO JAX                                                                                                                                           
COMYTV   030501190844      000030HWY/CPA-ADULT PACKAGE#1                                                                                                                                        
COMYTV   030501190914      000030BANDAI/STRAWBERRY SHORTCAKE RE                                                                                                                                 
COMYTV   030501190944      000030ROGERS AT&T/NO WORRIES                                                                                                                                         
COMYTV   030501191014      000030HWY/BARTER PACKAGES                                                                                                                                            
COMYTV   030501191816      000030HASBRO CANADA INC.                                                                                                                                             
COMYTV   030501191846      000030ACT/X2 WOLVERINES REVENGE/XMEN                                                                                                                                 
COMYTV   030501191916      000030HWY/ADULT BARTER#3                                                                                                                                             
COMYTV   030501191946      000030MATTEL/SPRING VARIOUS                                                                                                                                          
COMYTV   030501192757      000015JOHNSON & JOHNSON INC.                                                                                                                                         
COMYTV   030501192812      000030BURGER KING CANADA INC.                                                                                                                                        
COMYTV   030501192842      000030COLGATE-PALMOLIVE CANADA INC                                                                                                                                   
COMYTV   030501192912      000030MATTEL/SPRING VARIOUS                                                                                                                                          
COMYTV   030501192942      000015HIGHWAY ENTERTAINMENT                                                                                                                                          
ID YTV   030501193027      000012STATION ID                                                                                                                                                     
PGRYTV   030501193040200000002920YU-GI-OH                                          LEGENDARY FISHERMAN I EP68                                           7 38307ECC                              
SPOYTV   030501193659      000010GRAND TOYS/ASTRO JAX                                                                                                                                           
COMYTV   030501193709      000030KELLOGG/FROOT LOOPS                                                                                                                                            
COMYTV   030501193739      000030MATTEL/SPRING VARIOUS                                                                                                                                          
COMYTV   030501193809      000030BURGER KING CANADA INC.                                                                                                                                        
COMYTV   030501193839      000015BUENA VISTA HV/TREASURE PLANET                                                                                                                                 
COMYTV   030501193854      000015NIVEA CREAM                                                                                                                                                    
COMYTV   030501194346      000015BUENA VISTA PIC/LIZZYMCG                                                                                                                                       
COMYTV   030501194401      000100P&G/CORPORATE BASE BUY                                                                                                                                         
COMYTV   030501194501      000015SUBWAY SUBS                                                                                                                                                    
COMYTV   030501194516      000030SONY ENT/DADDY DAY CARE-KIDS P                                                                                                                                 
PRCYTV   030501194546      000030YTV PROMO CONTRACT                                                                                                                                             
COMYTV   030501195314      000030ROGERS AT&T/NO WORRIES                                                                                                                                         
COMYTV   030501195344      000030HWY/ADULT BARTER#2                                                                                                                                             
COMYTV   030501195414      000030SHAW                                                                                                                                                           
COMYTV   030501195444      000015HERSHEY/MOULDED BARS                                                                                                                                           
COMYTV   030501195459      000015HASBRO/SKIBO BARTER                                                                                                                                            
PRCYTV   030501195514      000030YTV PROMO CONTRACT                                                                                                                                             
ID YTV   030501195949      000012STATION ID                                                                                                                                                     
PGRYTV   030501200000203000003000DRAGON BALL Z                                     HE'S ALWAYS LATE  EPS 273                                     D02590 7 28307E  2                             
SPOYTV   030501200106      000010GRAND TOYS/ASTRO JAX                                                                                                                                           
COMYTV   030501200116      000030MINUTE MAID/BIBO                                                                                                                                               
COMYTV   030501200146      000030ROGERS AT&T/NO WORRIES                                                                                                                                         
COMYTV   030501200216      000030SEARS/JESSICA                                                                                                                                                  
COMYTV   030501200246      000030MATTEL/EVERYBODY UNO                                                                                                                                           
PRCYTV   030501200316      000030YTV PROMO CONTRACT                                                                                                                                             
PRCYTV   030501200346      000030YTV PROMO CONTRACT                                                                                                                                             
COMYTV   030501201346      000015SONY ENT/DADDY DAY CARE                                                                                                                                        
COMYTV   030501201401      000030HIGHWAY ENTERTAINMENT                                                                                                                                          
COMYTV   030501201431      000030TRICON/K.F.C.                                                                                                                                                  
COMYTV   030501201501      000030HIGHWAY ENTERTAINMENT                                                                                                                                          
COMYTV   030501201531      000015BUENA VISTA PIC/LIZZYMCG                                                                                                                                       
PRCYTV   030501201546      000030YTV PROMO CONTRACT                                                                                                                                             
PRCYTV   030501201616      000015YTV PROMO CONTRACT                                                                                                                                             
COMYTV   030501202603      000030HIGHWAY ENTERTAINMENT                                                                                                                                          
COMYTV   030501202633      000100SCOTT'S LIQUID GOLD                                                                                                                                            
COMYTV   030501202733      000030HIGHWAY ENTERTAINMENT                                                                                                                                          
PRCYTV   030501202803      000030YTV PROMO CONTRACT                                                                                                                                             
PRCYTV   030501202833      000015YTV PROMO CONTRACT                                                                                                                                             
ID YTV   030501202949      000012STATION ID                                                                                                                                                     
PGRYTV   030501203000210005003005REBOOT                                            EPS 17--BAD BOB                                   ALLIANYTV   P21683 1 35307ECC                              
SPOYTV   030501203817      000010GRAND TOYS/ASTRO JAX                                                                                                                                           
COMYTV   030501203827      000030MATTEL/SPRING VARIOUS                                                                                                                                          
COMYTV   030501203857      000015JOHNSON & JOHNSON INC.                                                                                                                                         
COMYTV   030501203912      000030HIGHWAY ENTERTAINMENT                                                                                                                                          
COMYTV   030501203942      000015HIGHWAY ENTERTAINMENT                                                                                                                                          
COMYTV   030501203957      000030MATTEL/BONUS CONTRACT                                                                                                                                          
COMYTV   030501204503      000030HWY/PLAYTOY BARTER                                                                                                                                             
COMYTV   030501204533      000030MATTEL/SPRING VARIOUS                                                                                                                                          
COMYTV   030501204603      000030NESTLE CANADA INC.                                                                                                                                             
COMYTV   030501204633      000030KELLOGG/RICE KRISPIES                                                                                                                                          
COMYTV   030501205113      000030MATTEL/SPRING VARIOUS                                                                                                                                          
COMYTV   030501205143      000030HWY/CPA-ADULT PACKAGE#2                                                                                                                                        
COMYTV   030501205213      000030ACT/X2 WOLVERINES REVENGE/XMEN                                                                                                                                 
COMYTV   030501205243      000030KELLOGG CANADA INC.                                                                                                                                            
ID YTV   030501205948      000012STATION ID                                                                                                                                                     
SPOYTV   030501210000      000005HERSHEY/MOULDED BARS                                                                                                                                           
PGRYTV   030501210005213005003000GOOSEBUMPS (I)(#1-13)                             RETURN OF THE MUMMY   EPS 12                      PROTOCYTV   C12143 1 35307ACC                              
SPOYTV   030501210327      000010EFFEM/M&M'S 10 SEC CC BB                                                                                                                                       
COMYTV   030501210337      000030GRAND TOYS/ASTRO JAX                                                                                                                                           
COMYTV   030501210407      000100PRIMUS CANADA/PER INQUIRY $15P                                                                                                                                 
COMYTV   030501210507      000030HWY/CPA-ADULT PACKAGE#2                                                                                                                                        
COMYTV   030501211618      000015J&J/ACNE WASH                                                                                                                                                  
COMYTV   030501211633      000030HIGHWAY ENTERTAINMENT                                                                                                                                          
COMYTV   030501211703      000030GENERAL MILLS CANADA INC.                                                                                                                                      
COMYTV   030501211733      000030HWY/CPA-ADULT PACKAGE#1                                                                                                                                        
COMYTV   030501211803      000015K CLARK/KOTEX                                                                                                                                                  
PRCYTV   030501211818      000030YTV PROMO CONTRACT                                                                                                                                             
PRCYTV   030501211848      000030YTV PROMO CONTRACT                                                                                                                                             
COMYTV   030501212542      000030KIMBERLY-CLARK OF CANADA LTD.                                                                                                                                  
COMYTV   030501212612      000030PEPSICO/FLC DORITOS (TEENS)                                                                                                                                    
COMYTV   030501212642      000030COLGATE-PALMOLIVE CANADA INC                                                                                                                                   
COMYTV   030501212712      000030KELLOGG CANADA INC.                                                                                                                                            
ID YTV   030501212948      000012STATION ID                                                                                                                                                     
SPOYTV   030501213000      000005HERSHEY/MOULDED BARS                                                                                                                                           
PGRYTV   030501213005220018003013RADIO ACTIVE (#1-26)                              THE PLAY EP12                                     TELEACYTV   C14677 1 35307BCC                              
SPOYTV   030501213633      000010BURGER KING                                                                                                                                                    
COMYTV   030501213643      000030GRAND TOYS/ASTRO JAX                                                                                                                                           
COMYTV   030501213713      000100P&G/CORPORATE BASE BUY                                                                                                                                         
COMYTV   030501213813      000030HWY/ADULT BARTER#2                                                                                                                                             
COMYTV   030501214635      000100P&G/CORP BASE BUY/PRE-EMPTIBLE                                                                                                                                 
COMYTV   030501214735      000030PEPSICO/FLC DORITOS (TEENS)                                                                                                                                    
COMYTV   030501214805      000030HWY/BARTER PACKAGES                                                                                                                                            
COMYTV   030501215523      000015SCOTT PAPER/TOWELS&SCOTTIES                                                                                                                                    
COMYTV   030501215538      000030HWY/BARTER PACKAGES                                                                                                                                            
COMYTV   030501215608      000030K CLARK/PULL UPS                                                                                                                                               
COMYTV   030501215638      000030L'OREAL CANADA/WET SHINE                                                                                                                                       
COMYTV   030501215708      000015HERSHEY/MOULDED BARS                                                                                                                                           
ID YTV   030501220000      000012STATION ID                                                                                                                                                     
SPOYTV   030501220012      000005HERSHEY/MOULDED BARS                                                                                                                                           
PGRYTV   030501220018223005002947BREAKER HIGH (#1-44)                              OUT WITH THE OLD....                              SHAVIC      SR0291 1 36307ACC                              
SPOYTV   030501220243      000010GRAND TOYS/ASTRO JAX                                                                                                                                           
COMYTV   030501220253      000030GRAND TOYS/ASTRO JAX                                                                                                                                           
COMYTV   030501220323      000030SHAW                                                                                                                                                           
COMYTV   030501220353      000030TRICON                                                                                                                                                         
COMYTV   030501220423      000030SMITHKLINE BEECHAM/OXY                                                                                                                                         
PRCYTV   030501220453      000015YTV PROMO CONTRACT                                                                                                                                             
COMYTV   030501221220      000015J&J/ACNE WASH                                                                                                                                                  
COMYTV   030501221235      000030MAZDA                                                                                                                                                          
COMYTV   030501221305      000030HALLMARK CARDS                                                                                                                                                 
COMYTV   030501221335      000030NESTLE CANADA INC.                                                                                                                                             
COMYTV   030501221405      000015K CLARK/HUGGIES:ULTRA                                                                                                                                          
PRCYTV   030501221420      000030YTV PROMO CONTRACT                                                                                                                                             
PRCYTV   030501221450      000030YTV PROMO CONTRACT                                                                                                                                             
COMYTV   030501222532      000015SUBWAY SUBS                                                                                                                                                    
COMYTV   030501222547      000030K CLARK/KOTEX                                                                                                                                                  
COMYTV   030501222617      000030COLGATE-PALMOLIVE CANADA INC                                                                                                                                   
COMYTV   030501222647      000030HWY/CPA-ADULT PACKAGE#2                                                                                                                                        
COMYTV   030501222717      000015STELLA PHARMACEUTICAL CO.LTD.                                                                                                                                  
PRCYTV   030501222732      000030YTV PROMO CONTRACT                                                                                                                                             
PRCYTV   030501222802      000030YTV PROMO CONTRACT                                                                                                                                             
ID YTV   030501222948      000012STATION ID                                                                                                                                                     
SPOYTV   030501223000      000005SCOTT PAPER/TOWELS&SCOTTIES                                                                                                                                    
PGRYTV   030501223005230006003001BIG WOLF ON CAMPUS                                STAGE FRIGHT EPS 12                               347689      A29764 1 35307BCC                              
SPOYTV   030501223731      000010GRAND TOYS/ASTRO JAX                                                                                                                                           
COMYTV   030501223741      000030GRAND TOYS/ASTRO JAX                                                                                                                                           
COMYTV   030501223811      000030GEN MILLS/PILLSBURY PIZZA POPS                                                                                                                                 
COMYTV   030501223841      000030HWY/PLAYTOY BARTER                                                                                                                                             
COMYTV   030501223911      000030BURGER KING CANADA INC.                                                                                                                                        
COMYTV   030501224650      000030HALLMARK/CARDS                                                                                                                                                 
COMYTV   030501224720      000030SEARS/JESSICA                                                                                                                                                  
COMYTV   030501224750      000030HIGHWAY ENTERTAINMENT                                                                                                                                          
COMYTV   030501224820      000030GENERAL MILLS CANADA INC.                                                                                                                                      
PRCYTV   030501224850      000030YTV PROMO CONTRACT                                                                                                                                             
COMYTV   030501225549      000015K CLARK/HUGGIES:ULTRA                                                                                                                                          
COMYTV   030501225604      000030SMITHKLINE BEECHAM                                                                                                                                             
COMYTV   030501225634      000030HALLMARK/CARDS                                                                                                                                                 
COMYTV   030501225704      000030SHAW                                                                                                                                                           
COMYTV   030501225734      000015NIVEA CREAM/SILKY SHIMMER                                                                                                                                      
PRCYTV   030501225749      000030YTV PROMO CONTRACT                                                                                                                                             
SPOYTV   030501230001      000005K CLARK/PULL UPS                                                                                                                                               
PGRYTV   030501230006233000002954ADDAM'S FAMILY: THE SERIES                        LURCH & HIS PIANO EP54                            AFS         C15097 1 35307BCC                              
COMYTV   030501230207      000030GRAND TOYS/ASTRO JAX                                                                                                                                           
COMYTV   030501230237      000030KRAFT/W:30'S                                                                                                                                                   
COMYTV   030501230307      000030HWY/ADULT BARTER#1                                                                                                                                             
COMYTV   030501230337      000015NIVEA CREAM/SILKY SHIMMER                                                                                                                                      
COMYTV   030501230352      000015HERSHEY/MOULDED BARS                                                                                                                                           
PRCYTV   030501230407      000015YTV PROMO CONTRACT                                                                                                                                             
COMYTV   030501231149      000015SCOTT PAPER/TOWELS&SCOTTIES                                                                                                                                    
COMYTV   030501231204      000030GENERAL MILLS CANADA INC.                                                                                                                                      
COMYTV   030501231234      000030HWY/PLAYTOY BARTER                                                                                                                                             
COMYTV   030501231304      000030KELLOGG CANADA INC.                                                                                                                                            
COMYTV   030501231334      000015K CLARK/KOTEX                                                                                                                                                  
PRCYTV   030501231349      000030YTV PROMO CONTRACT                                                                                                                                             
COMYTV   030501231859      000030BURGER KING CANADA INC.                                                                                                                                        
COMYTV   030501231929      000100PRIMUS CANADA/PER INQUIRY $15P                                                                                                                                 
COMYTV   030501232029      000030COLGATE-PALMOLIVE CANADA INC                                                                                                                                   
PRCYTV   030501232059      000030YTV PROMO CONTRACT                                                                                                                                             
ID YTV   030501232948      000012STATION ID                                                                                                                                                     
PGRYTV   0305012330000007420037422 POINT 4 CHILDREN                                PT 1 - FRENZY                                                        3 38807BCC                              
COMYTV   030501233531      000030GRAND TOYS/ASTRO JAX                                                                                                                                           
COMYTV   030501233601      000030HWY/CPA-ADULT PACKAGE#3                                                                                                                                        
COMYTV   030501233631      000030L'OREAL CANADA                                                                                                                                                 
COMYTV   030501233701      000030HIGHWAY ENTERTAINMENT                                                                                                                                          
COMYTV   030501234424      000015STELLA PHARM/NUTRI BAR                                                                                                                                         
COMYTV   030501234439      000030TRICON/K.F.C.                                                                                                                                                  
COMYTV   030501234509      000030SMITHKLINE BEECHAM                                                                                                                                             
COMYTV   030501234539      000030HIGHWAY ENTERTAINMENT                                                                                                                                          
COMYTV   030501234609      000015SONY ENT/DADDY DAY CARE                                                                                                                                        
COMYTV   030501235648      000100P&G/CORP BASE BUY/PRE-EMPTIBLE                                                                                                                                 
COMYTV   030501235748      000030KELL/CORN POPS/POP TARTS                                                                                                                                       
COMYTV   030501235818      000030HWY/ADULT BARTER#3                                                                                                                                             
COMYTV   030501000530      000030HWY/BARTER PACKAGES                                                                                                                                            
COMYTV   030501000600      000100PRIMUS CANADA/PER INQUIRY $15P                                                                                                                                 
COMYTV   030501000700      000030HWY/ADULT BARTER#1                                                                                                                                             
ID YTV   030501000730      000012STATION ID                                                                                                                                                     
PGRYTV   030501000742004055003313ARE YOU BEING SERVED?                             FIFTY YEARS ON                                                       3 38807BCC                              
SPOYTV   030501001630      000010GRAND TOYS/ASTRO JAX                                                                                                                                           
COMYTV   030501001640      000030GRAND TOYS/ASTRO JAX                                                                                                                                           
COMYTV   030501001710      000030L'OREAL CANADA/WET SHINE                                                                                                                                       
COMYTV   030501001740      000030SHAW                                                                                                                                                           
COMYTV   030501001810      000030HWY/BARTER PACKAGES                                                                                                                                            
COMYTV   030501002611      000100P&G/CORPORATE BASE BUY                                                                                                                                         
COMYTV   030501002711      000030HALLMARK/CARDS                                                                                                                                                 
COMYTV   030501002741      000030ROGERS AT&T/NO WORRIES                                                                                                                                         
COMYTV   030501002811      000030KRAFT/W:30'S                                                                                                                                                   
COMYTV   030501003410      000100P&G/CORPORATE BASE BUY                                                                                                                                         
COMYTV   030501003510      000030TRICON/K.F.C.                                                                                                                                                  
COMYTV   030501003540      000030MATTEL/EVERYBODY UNO                                                                                                                                           
COMYTV   030501003610      000015BURGER KING                                                                                                                                                    
COMYTV   030501003625      000015NIVEA CREAM/SILKY SHIMMER                                                                                                                                      
PGRYTV   030501004055012039003944KEEPING UP APPEARANCES                            EPS 16                                                               3 38807BCC                              
SPOYTV   030501005044      000010GRAND TOYS/ASTRO JAX                                                                                                                                           
COMYTV   030501005054      000030GRAND TOYS/ASTRO JAX                                                                                                                                           
COMYTV   030501005124      000030MAZDA/MPV                                                                                                                                                      
COMYTV   030501005154      000030BURGER KING                                                                                                                                                    
COMYTV   030501005224      000030HWY/BARTER PACKAGES                                                                                                                                            
COMYTV   030501010056      000015SCOTT PAPER/TOWELS&SCOTTIES                                                                                                                                    
COMYTV   030501010111      000030ROGERS AT&T/NO WORRIES                                                                                                                                         
COMYTV   030501010141      000030SMITHKLINE BEECHAM/OXY                                                                                                                                         
COMYTV   030501010211      000030MATTEL/EVERYBODY UNO                                                                                                                                           
COMYTV   030501010241      000030L'OREAL CANADA/WET SHINE                                                                                                                                       
COMYTV   030501010311      000015PEPSICO/FLC CHEETOS                                                                                                                                            
COMYTV   030501010936      000100P&G/CORP BASE BUY/PRE-EMPTIBLE                                                                                                                                 
COMYTV   030501011036      000100PRIMUS CANADA/PER INQUIRY $15P                                                                                                                                 
COMYTV   030501011136      000030NESTLE/HAAGEN DAZ                                                                                                                                              
COMYTV   030501011757      000015STELLA PHARM/NUTRI BAR                                                                                                                                         
COMYTV   030501011812      000030NESTLE/HAAGEN DAZ                                                                                                                                              
COMYTV   030501011842      000030HWY/ADULT BARTER#1                                                                                                                                             
COMYTV   030501011912      000030KRAFT/W:30'S                                                                                                                                                   
COMYTV   030501011942      000030THANE DIRECT/AB SWING                                                                                                                                          
COMYTV   030501012012      000015HWY/ADULT BARTER#4                                                                                                                                             
PGRYTV   0305010120390157250036462 POINT 4 CHILDREN                                PT 1 - FRENZY                                                        3 38807BCC                              
SPOYTV   030501012610      000010GRAND TOYS/ASTRO JAX                                                                                                                                           
COMYTV   030501012620      000030GRAND TOYS/ASTRO JAX                                                                                                                                           
COMYTV   030501012650      000030TRICON/K.F.C.                                                                                                                                                  
COMYTV   030501012720      000030HWY/CPA-ADULT PACKAGE#1                                                                                                                                        
COMYTV   030501012750      000030ROGERS AT&T/NO WORRIES                                                                                                                                         
COMYTV   030501013513      000100P&G/CORP BASE BUY/PRE-EMPTIBLE                                                                                                                                 
COMYTV   030501013613      000030MATTEL/EVERYBODY UNO                                                                                                                                           
COMYTV   030501013643      000030HWY/CPA-ADULT PACKAGE#2                                                                                                                                        
COMYTV   030501013713      000030HWY/ADULT BARTER#2                                                                                                                                             
COMYTV   030501014807      000100P&G/CORPORATE BASE BUY                                                                                                                                         
COMYTV   030501014907      000100PRIMUS CANADA/PER INQUIRY $15P                                                                                                                                 
COMYTV   030501015007      000030HALLMARK/CARDS                                                                                                                                                 
PGRYTV   030501015725022714002949ADDAM'S FAMILY: THE SERIES                        LURCH & HIS PIANO EP54                            AFS         C15097 1 35307BCC                              
SPOYTV   030501015926      000010GRAND TOYS/ASTRO JAX                                                                                                                                           
